:100000000C94A3010C94CB010C94CB010C94CB0168
:100010000C94CB010C94CB010C94CB010C94CB0130
:100020000C94CB010C94CB010C94CB010C94CB0120
:100030000C94CB010C94CB010C94CB010C94CB0110
:100040000C94DD1D0C94CB010C944D1E0C94271EBA
:100050000C94CB010C94CB010C94CB010C94CB01F0
:100060000C94CB010C94CB010C94CB010C94CB01E0
:100070000C94CB010C94CB010C94CB010C94CB01D0
:100080000C94CB010C94CB010C94CB010C94CB01C0
:100090000C94CB010C94CB010C94CB010C94CB01B0
:1000A0000C94CB010C94CB010C94CB010C94CB01A0
:1000B0000C94CB01616C676F726974686D00747920
:1000C0007065007670705F6D760070756C73652D6D
:1000D00064656C61790070696E2D636F756E740074
:1000E000636869702D696400666C616773006164A0
:1000F0006472657373006D656D6F72792D73697AC3
:10010000650000070E091C1B1215383F36312423E9
:100110002A2D70777E796C6B6265484F4641545347
:100120005A5DE0E7EEE9FCFBF2F5D8DFD6D1C4C3B7
:10013000CACD90979E998C8B8285A8AFA6A1B4B3A7
:10014000BABDC7C0C9CEDBDCD5D2FFF8F1F6E3E417
:10015000EDEAB7B0B9BEABACA5A28F888186939407
:100160009D9A2720292E3B3C35321F181116030477
:100170000D0A5750595E4B4C45426F686166737467
:100180007D7A898E878095929B9CB1B6BFB8ADAAC7
:10019000A3A4F9FEF7F0E5E2EBECC1C6CFC8DDDAC7
:1001A000D3D4696E676075727B7C51565F584D4A37
:1001B0004344191E171005020B0C21262F283D3A27
:1001C00033344E49404752555C5B7671787F6A6D97
:1001D00064633E39303722252C2B0601080F1A1D87
:1001E0001413AEA9A0A7B2B5BCBB9691989F8A8DF7
:1001F0008483DED9D0D7C2C5CCCBE6E1E8EFFAFDE7
:10020000F4F3AA55AA55666C616773006D656D6F4E
:1002100072792D73697A6500616464726573730025
:10022000636869702D69640070696E2D636F756E07
:100230007400747970650070756C73652D64656CFD
:100240006179007670705F6D7600616C676F7269BE
:1002500074686D00444F4E450000000000230026E6
:100260000029002C000A0D0E0900030200000405FD
:100270000800000000000000000000000000000076
:100280007232007231007265760072772D70696E7D
:10029000007670702D70696E007374617469632DDF
:1002A0006869676800627573006275732D636F6EAD
:1002B00066696700F600831DEE00561DE800B01D5C
:1002C000E0002B1DD600011DCA00AA1CC3007F1C24
:1002D000BE00D71CB400521C737461746500636D5A
:1002E00064004F4B3A2046573A200000000000259A
:1002F0000028002B002E0000000000240027002A08
:10030000002D000404040404040404020202020296
:1003100002030303030303020203050505050102AB
:100320000408102040800102040810200102040883
:1003300010204080400102040873746174650063FA
:100340006D6400001F2811241FBECFEFD8E0DEBF70
:10035000CDBF26E0AAECB1E001C01D92AB3DB207D3
:10036000E1F711E0A0E0B1E0EAE7F6E502C00590B0
:100370000D92AA3CB107D9F711E0C3EAD1E004C05D
:100380002197FE010E94E828C23AD107C9F70E94CE
:100390007F1E0C943B2B0C9400008091060120E4FE
:1003A000829FC0011124826080937C0080917A003A
:1003B000806480937A0080917A0086FDFCCF8091E2
:1003C0007800909179000895CF93DF9390E0FC013D
:1003D000E25EFC4F24918D5F9C4FFC018491882349
:1003E000C9F090E0880F991FFC01E950FD4FA591DD
:1003F000B491FC01E551FD4FC591D49161110DC03F
:100400009FB7F8948C91209582238C938881282320
:1004100028839FBFDF91CF910895623051F49FB739
:10042000F8943C91822F809583238C93E8812E2B26
:10043000EFCF8FB7F894EC912E2B2C938FBFEACF90
:100440008230910538F0880F991F880F991F059702
:100450000197F1F708953FB7F8948091E4019091E6
:10046000E501A091E601B091E70126B5A89B05C082
:100470002F3F19F00196A11DB11D3FBFBA2FA92F23
:10048000982F8827BC01CD01620F711D811D911D20
:1004900042E0660F771F881F991F4A95D1F708958C
:1004A0008F929F92AF92BF92CF92DF92EF92FF9284
:1004B0004B015C010E942B026B017C010E942B020C
:1004C0006C197D098E099F09683E7340810591056D
:1004D000A8F321E0821A9108A108B10888EEC80E9D
:1004E00083E0D81EE11CF11C81149104A104B10425
:1004F00029F7FF90EF90DF90CF90BF90AF909F9043
:100500008F9008952FB7F8946091E0017091E10108
:100510008091E2019091E3012FBF0895AF92BF92C5
:10052000CF92DF92EF92FF920F931F93CF93DF93BF
:100530006C017B018B01040F151FEB015E01AE18EE
:10054000BF08C017D10759F06991D601ED91FC9110
:100550000190F081E02DC6010995892B79F7C5013D
:10056000DF91CF911F910F91FF90EF90DF90CF908F
:10057000BF90AF900895FC01538D448D252F30E03E
:10058000842F90E0821B930B541710F0CF960895A0
:1005900001970895FC01918D828D981761F0A28DCD
:1005A000AE0FBF2FB11D5D968C91928D9F5F9F7393
:1005B000928F90E008958FEF9FEF08958F929F9212
:1005C000AF92BF92EF92FF920F931F93CF93DF935F
:1005D0007B018C01D0E0C0E00E9482026093420661
:1005E0007093430680934406909345068AE396E011
:1005F0000E94CA0297FF27C00E9482028090420692
:1006000090904306A0904406B09045066819790979
:100610008A099B0980903E0690903F06A090400674
:10062000B0904106681579058A059B05F8F2CE0160
:10063000DF91CF911F910F91FF90EF90BF90AF90FE
:100640009F908F900895F80181938F012196EC1669
:10065000FD0611F6ECCFFC01918D828D981731F0DB
:10066000828DE80FF11D858D90E008958FEF9FEF4B
:100670000895FC01918D228D892F90E0805C9F4F21
:10068000821B91098F73992708958AE396E00E944F
:10069000390321E0892B09F420E0822F0895FC0121
:1006A000A48DA80FB92FB11DA35ABF4F2C91848DD3
:1006B00090E001968F739927848FA689B7892C9330
:1006C000A089B1898C91837080648C93938D848D83
:1006D000981306C00288F389E02D80818F7D808386
:1006E0000895EF92FF920F931F93CF93DF93EC0146
:1006F00081E0888F9B8D8C8D98131AC0E889F989C9
:10070000808185FF15C09FB7F894EE89FF896083CB
:10071000E889F98980818370806480839FBF81E04C
:1007200090E0DF91CF911F910F91FF90EF9008958E
:10073000F62E0B8D10E00F5F1F4F0F731127E02E69
:100740008C8D8E110CC00FB607FCFACFE889F989A1
:10075000808185FFF5CFCE010E944F03F1CFEB8D55
:10076000EC0FFD2FF11DE35AFF4FF0829FB7F89475
:100770000B8FEA89FB8980818062CFCFCF93DF9393
:10078000EC01888D8823B9F0AA89BB89E889F989A9
:100790008C9185FD03C0808186FD0DC00FB607FCDE
:1007A000F7CF8C9185FFF2CF808185FFEDCFCE0111
:1007B0000E944F03E9CFDF91CF91089580E090E050
:1007C000892B29F00E94450381110E94000080E0DE
:1007D00090E0892B49F080E090E0892B29F00E947D
:1007E000000081110C94000008958F929F92AF92A7
:1007F000BF92CF92DF92EF92FF920F931F93CF930E
:10080000DF93EC018C01035E1F4F812C912C54016E
:100810006C0183EEC81A8DEFD80A7E01A8EBEA1AA4
:10082000ADEFFA0AF60180819181A281B381881629
:100830009906AA06BB06B0F4D8012D918D014D850D
:100840005E856F857889480D591D6A1D7B1DD7010E
:10085000ED91FC91CE010995BFEF8B1A9B0AAB0A73
:10086000BB0AE0CFDF91CF911F910F91FF90EF90E6
:10087000DF90CF90BF90AF909F908F9008958F9210
:100880009F92AF92BF92CF92DF92EF92FF920F931F
:100890001F93CF93DF93EC0189859A85AB85BC8547
:1008A0004D855E856F857889841B950BA60BB70BEC
:1008B000813022E09207A105B10520F080E092E0AE
:1008C000A0E0B0E08C017E018DE1E80EF11C812CEE
:1008D000912C54016E01A6EBCA1AADEFDA0A80160C
:1008E0009106B4F44D855E856F857889480D591D54
:1008F0006A1D7B1DD601ED91FC91CE010995F70192
:1009000081937F01FFEF8F1A9F0AAF0ABF0AE7CFDB
:10091000C35EDD4F012E000C220B330B08831983BD
:100920002A833B83DF91CF911F910F91FF90EF902E
:10093000DF90CF90BF90AF909F908F90089580915F
:100940000201909103016823792381E0672B09F468
:1009500080E00895CF93DF93EC01FC01E85BFD4F4D
:100960000190F081E02D2FEF40E050E0BA010995B1
:10097000FE01E25BFD4F0190F081E02D40E068E870
:1009800070E0CE01DF91CF910994FC0120852032E7
:1009900041F4E55CFD4F81E09081953151F080E0BC
:1009A00008C02C3139F4E55CFD4F81E090819F3027
:1009B000B1F70895283199F7E55CFD4F81E090810A
:1009C0009B3069F7F6CF2F923F924F925F926F92D2
:1009D0007F928F929F92AF92BF92CF92DF92EF92CF
:1009E000FF921F93CF93DF93CDB7DEB7A7970FB6D4
:1009F000F894DEBF0FBECDBFFC01EF5DFD4F3FE1C0
:100A0000DE01119601900D923A95E1F7FC01E65C4A
:100A1000FD4F308131961081319640805180628047
:100A2000738048A259A26AA27BA23797C080D18066
:100A3000E280F380C422D522E622F722E981EF3F4B
:100A400009F43FC0FC01E75CFD4FE0812E2E312C04
:100A5000E1E0F0E0EC0FFD1FE20DF31DA4E12A162A
:100A600031047CF5A191AF3F61F1812C912C5401AF
:100A7000839404C0880C991CAA1CBB1CAA95D2F7AD
:100A80002A013B01022C04C0769467945794479442
:100A90000A94D2F74CA25DA26EA27FA240FC0CC0C9
:100AA00080949094A094B094C820D920EA20FB2090
:100AB000AFEF2A1A3A0AD2CFC828D928EA28FB2849
:100AC000F7CF3F3F79F0422F50E070E060E004C084
:100AD000440F551F661F771F3A95D2F7C42AD52AAF
:100AE000E62AF72A1F3F99F00E94C50481110FC022
:100AF00081E090E0A0E0B0E004C0880F991FAA1F39
:100B0000BB1F1A95D2F7C82AD92AEA2AFB2A68A15C
:100B100079A18AA19BA16C297D298E299F29A7965D
:100B20000FB6F894DEBF0FBECDBFDF91CF911F91FE
:100B3000FF90EF90DF90CF90BF90AF909F908F90FD
:100B40007F906F905F904F903F902F900895FC01A1
:100B50002081233091F02430A9F0223069F4EE5B3B
:100B6000FD4F2DE934E1318320838C5B9D4F25E2DD
:100B700038E0FC013183208308958C5B9D4F2AE38C
:100B800032E1F7CF8C5B9D4F2DEB33E1F2CFFC01CF
:100B9000EE5BFD4F22ED31E131832083DC012C91AE
:100BA0002330A9F018F4223031F008952430B9F040
:100BB0002530D1F0089522EC34E1318320838C5B21
:100BC0009D4F2DEA32E1FC013183208308958C5B37
:100BD0009D4F2AED31E1DC012D933C9308958C5B10
:100BE0009D4F2DEB33E1EFCF118210828C5B9D4F37
:100BF00022E731E1F0CFFF920F931F93CF93DF9362
:100C00008C01EB01F42E62FF07C0C8010E94C504ED
:100C1000882311F0CB7FC860E091CA01F091CB012D
:100C20004F2DBE01C801DF91CF911F910F91FF9011
:100C30000994FC01DC01AE5BBD4F86ED9FE011968F
:100C40009C938E938081833009F441C058F58230A3
:100C5000A1F1DF01A25BBD4F8D919C911197909303
:100C6000CB018093CA018BEF95E08D939C93838990
:100C70009489A589B689892B8A2B8B2B09F043C0CF
:100C800084819581A681B78188309105A105B10540
:100C900091F10B97A105B105B9F188EE93E0A0E0C1
:100CA000B0E02DC0843021F1853099F68FEE9FE0C1
:100CB0008D939C938FE39AE006C08EE096E18D932E
:100CC0009C9385E097E1DF01AC5BBD4F0EC08DE9E1
:100CD00093E1DF01AC5BBD4F11969C938E938789A6
:100CE00083FDB7CF8DEB93E112968D939C93B1CF9B
:100CF0008DEB93E1E8CF84E690E0A0E0B0E0838B59
:100D0000948BA58BB68B089584EF91E0A0E0B0E0C2
:100D1000F6CFCF93DF93EC0120E030E0A901E99119
:100D200080ED8E0F8A3028F0CA01B901DF91CF9192
:100D30000895AAE0B0E00E9479282E2FEE0F330B21
:100D400020533109032E000C440B550B260F371F7F
:100D5000481F591FE4CF0E94820268517C4F8F4F79
:100D60009F4F6093DB017093DC018093DD019093D2
:100D7000DE01089595B18095892385B9089566238C
:100D800021F095B1892B85B908950C94BA06CF92BC
:100D9000DF92EF92FF920F931F93CF93DF93909187
:100DA0000001992309F463C0D42F6B01C82FE2E03E
:100DB000F2E064918AE396E00E947103E3E0F2E0DE
:100DC00064918AE396E00E947103E4E0F2E06491AA
:100DD0008AE396E00E947103E5E0F2E064918AE321
:100DE00096E00E947103ED2EF12CC7010296692F47
:100DF0008AE396E00E94710362E06D0F8AE396E059
:100E00000E9471036C2F8AE396E00E947103EC2F1D
:100E1000F0E0EE5FFE4FC4918601EC0CFD1C0E1558
:100E20001F0579F0F801D1918F016D2F8AE396E0CB
:100E30000E947103ED2FEC27F0E0EE5FFE4FC491AE
:100E4000EECF6C2F8AE396E00E9471036AE08AE39A
:100E500096E00E9471038AE396E0DF91CF911F91A3
:100E60000F91FF90EF90DF90CF900C94BE03DF9135
:100E7000CF911F910F91FF90EF90DF90CF90089549
:100E80004F925F926F927F92AF92BF92CF92DF921A
:100E9000EF92FF920F931F93CF93DF9300D000D078
:100EA0001F92CDB7DEB78C017C018DE1E80EF11CFD
:100EB000412C512C32016801A3EECA1AADEFDA0AB7
:100EC0005801B6EBAB1ABDEFBB0AF60180819181E8
:100ED000A281B381481659066A067B0670F5D801CF
:100EE0001D964D915D916D917C915097440D551DCE
:100EF000661D771DD501ED91FC91C8010995F7019B
:100F000091917F01891769F1D8011D964D915D91ED
:100F10006D917C915097440E551E661E771E9983E5
:100F20008A836B825C824D8245E0BE016F5F7F4F9A
:100F30008FEA0E94C706F80112820F900F900F905F
:100F40000F900F90DF91CF911F910F91FF90EF9035
:100F5000DF90CF90BF90AF907F906F905F904F9059
:100F60000895FFEF4F1A5F0A6F0A7F0AAECFAF9264
:100F7000BF92CF92DF92EF92FF920F931F93CF9386
:100F8000DF9300D000D0CDB7DEB78C016C0188EBC9
:100F9000C81A8DEFD80AD601ED91FC9120E940E006
:100FA00050E0BA01C80109955801B6EBAB1ABDEF84
:100FB000BB0AD501ED91FC9140E050E0BA01C801B7
:100FC0000995E82EF12CFE2CEE24D501ED91FC9133
:100FD00041E050E060E070E0C8010995E82AD601E0
:100FE000ED91FC912FEF40E050E0BA01C801099566
:100FF000F801838D948D8E159F0591F0F982EA8218
:101000009B838C83878944E0BE016F5F7F4F80FFA5
:1010100016C083E80E94C70682E0D80112968C931E
:101020000F900F900F900F90DF91CF911F910F9124
:10103000FF90EF90DF90CF90BF90AF90089589EB35
:101040000E94C706F8011282EBCF3F924F925F9247
:101050006F927F928F929F92AF92BF92CF92DF92C8
:10106000EF92FF920F931F93CF93DF93CDB7DEB72D
:101070002B970FB6F894DEBF0FBECDBF8C014D96F7
:101080009F838E83412C512C3201480193EE891AA3
:101090009DEF990AD801A85BBD4FB987A887F801D1
:1010A000E65BFD4FFB87EA87F40180819181A28195
:1010B000B381481659066A067B0608F054C0D80169
:1010C0001D96CD90DD90ED90FC905097C40CD51CF2
:1010D000E61CF71CEE81FF813190FF83EE83A8852B
:1010E000B985ED91FC91232DB701A601C8010995A1
:1010F000F40180819181A281B3810197A109B10995
:10110000B701A6014F735527662777274F3351053F
:101110006105710529F084159505A605B705D9F572
:10112000A12C84E0B82E8AE090E00E942002AA85DB
:10113000BB85ED91FC91B701A601C8010995381650
:1011400051F1B1E0AB1AB10871F73982EA82DB8262
:10115000CC828D8345E0BE016F5F7F4F83EB0E94A1
:10116000C706F80112822B960FB6F894DEBF0FBEA9
:10117000CDBFDF91CF911F910F91FF90EF90DF9046
:10118000CF90BF90AF909F908F907F906F905F9027
:101190004F903F900895FFEF4F1A5F0A6F0A7F0A42
:1011A00083CFCF92DF92EF92FF920F931F93CF9353
:1011B000DF93EC018B010E9482026B017C01C00E67
:1011C000D11EE11CF11C8E01065B1D4F0E948202A4
:1011D0006C157D058E059F0580F5D801ED91FC917C
:1011E00040E050E0BA01CE01099587FFEFCF84FFC0
:1011F0001DC040E070E060E084EB0E94C7061A82E8
:10120000FE01E85BFD4F0190F081E02D2FEF40E003
:1012100050E0BA01CE01099580E0DF91CF911F9196
:101220000F91FF90EF90DF90CF90089583FF0AC059
:1012300040E070E060E085EBE0CF40E070E060E02F
:1012400086EBDBCF81E0E9CF3F924F925F926F92C6
:101250007F928F929F92AF92BF92CF92DF92EF9246
:10126000FF920F931F93CF93DF93EC018C01035EEA
:101270001F4FC12CD12C76014C0183EE881A8DEFC3
:10128000980A5E01A8EBAA1AADEFBA0AF4018081B0
:101290009181A281B381C816D906EA06FB0640F502
:1012A0004D845E846F8478884C0C5D1C6E1C7F1CA2
:1012B000D8013D908D01D501ED91FC9120E4B30161
:1012C000A201CE010995D501ED91FC91232DB30129
:1012D000A201CE01099566E970E0CE010E94D10815
:1012E000882331F0BFEFCB1ADB0AEB0AFB0ACECF23
:1012F000DF91CF911F910F91FF90EF90DF90CF90F2
:10130000BF90AF909F908F907F906F905F904F9025
:101310003F9008950F931F93CF93DF93EC01FC014F
:10132000E25BFD4F0190F081E02D41E068E870E064
:10133000099564EF71E080E090E00E9450028E0118
:10134000085B1D4FD801ED91FC9120E240E050E098
:10135000BA01CE010995D801ED91FC9120ED40E054
:1013600050E0BA01CE01099568E97AE3CE01DF9138
:10137000CF911F910F910C94D1089F92AF92BF9281
:10138000CF92DF92EF92FF920F931F93CF93DF9351
:1013900000D000D0CDB7DEB78C01962E6C0182EB69
:1013A000C81A8DEFD80AD601ED91FC9141E060E8B2
:1013B00070E0C801099562E370E080E090E00E946F
:1013C0005002D601ED91FC9141E062E070E0C8016D
:1013D000099564E670E080E090E00E9450025801B8
:1013E000B6EBAB1ABDEFBB0AD501ED91FC9140E025
:1013F00050E0BA01C8010995E82EF12CFE2CEE242C
:10140000D501ED91FC9141E050E060E070E0C80151
:101410000995E82AD601ED91FC9140E062E870E080
:10142000C8010995F801838D948D8E159F0589F06B
:10143000F982EA829B838C83F2E044E0BE016F5F15
:101440007F4F9F1216C083E80E94C706D8011296EC
:101450009C920F900F900F900F90DF91CF911F9162
:101460000F91FF90EF90DF90CF90BF90AF909F9043
:10147000089589EB0E94C706F8011282EACF60E066
:101480000C94BD097F928F929F92AF92BF92CF92A0
:10149000DF92EF92FF920F931F93CF93DF9300D0D1
:1014A00000D01F92CDB7DEB78C01C42E952E862EAC
:1014B000772ED22E80EDE82E87E0F82E580186EBAD
:1014C000A81A8DEFB80A8AE090E00E942002D501A8
:1014D000ED91FC914C2D592D682D772DC801099562
:1014E0008D1531F1B1E0EB1AF10869F789829A8222
:1014F000CB82DC828D8345E0BE016F5F7F4F82EB44
:101500000E94C706F801128280E00F900F900F90A2
:101510000F900F90DF91CF911F910F91FF90EF905F
:10152000DF90CF90BF90AF909F908F907F90089565
:1015300081E0EBCF2F923F925F926F927F928F92DA
:101540009F92AF92BF92CF92DF92EF92FF920F9352
:101550001F93CF93DF93EC013C018DE1680E711C6A
:10156000812C912C54018E01035E1D4F1E01A8EBAE
:101570002A1AADEF3A0AF80180819181A281B381E4
:1015800088169906AA06BB06D8F5CD84DE84EF84BA
:10159000F888C80CD91CEA1CFB1CD3015D903D01E6
:1015A000D101ED91FC91252DB701A601CE01099540
:1015B000D701C6010196A11DB11D8F739927AA27D6
:1015C000BB27892B8A2B8B2B99F0F8018081918185
:1015D000A281B3810197A109B10988159905AA05CE
:1015E000BB0531F0FFEF8F1A9F0AAF0ABF0AC3CFC6
:1015F000252DB701A601CE010E94420A8111F2CF2A
:10160000DF91CF911F910F91FF90EF90DF90CF90DE
:10161000BF90AF909F908F907F906F905F903F9022
:101620002F900895CF93DF93EC018F8987FF06C039
:1016300040E070E060E081E40E94C7069981892F54
:101640008F738F5F907C892B898340E070E060E02E
:1016500080E2DF91CF910C94C706109200018AE3DB
:1016600096E00E94BE03EAE3F6E0A289B3898C917A
:1016700087748C93828D818F65E070E080E090E0CC
:101680000E945002509A0895589A5098E0914A0644
:10169000F0914B0682E08083E0914606F091470688
:1016A0001082E0914806F091490687E0808310920D
:1016B0005206E0914E06F0914F0686E08083E0915D
:1016C0004C06F0914D06808188698083E0914C063C
:1016D000F0914D0680818F7D808362E370E080E031
:1016E00090E00E9450028AE396E00E943903892B21
:1016F00029F08AE396E00E94CA02F5CF81E0809348
:1017000000010895CF92DF92EF92FF920F931F9303
:10171000CF93DF938C01EB010E942D0BCE01F801DA
:1017200009950E94440B8A81813008F441C08330BE
:1017300080F18330E9F5FE01E35EFD4FC0800C2DA2
:1017400011817E01FDE1EF0EF11CF701D12CCF01DB
:101750008E199F098017910718F48191D826F7CF29
:10176000612F8AE396E00E9471036C2D8AE396E074
:101770000E9471036D2D8AE396E00E947103A80117
:10178000B7018AE396E00E948E028AE396E00E9407
:10179000BE030E94AB0681E08A8390E080E0DF9187
:1017A000CF911F910F91FF90EF90DF90CF90089510
:1017B0008FEF9FEFF4CFCF93DF93EC01FC01EC5B55
:1017C000FD4F80819181009739F4898186FF0BC09C
:1017D00081E0DF91CF910895BE010E94820B0196B6
:1017E000A1F780E0F6CFCE010E94120BF1CF8091DD
:1017F000DA018F3F11F4809101010895CF93DF93B7
:10180000EC010E94F70B8230C0F08530D0F48D2FB0
:1018100081709C2F9E7D892B9E013695279536954C
:1018200027952870822B25E0CC0FDD1F2A95E1F744
:10183000C0728C2BDF91CF9108958D2F81708C2BEE
:10184000F9CF80E0F7CFCF93DF93C82FCB01C23021
:1018500011F1C83071F1C13009F043C02091050188
:10186000261709F43EC060930501D0E09FEF9AB9B6
:101870008BB985B18C2B85B981E090E00E94200264
:101880008C2F0E94BA06DD2361F184E090E0DF91A5
:10189000CF910C94200220910401261711F160933E
:1018A00004012FEF2AB91BB800000000000000005F
:1018B000DCCF20910201309103012617370789F010
:1018C00028703327D1E0AB014870552742175307E2
:1018D00008F0D0E090930301809302010E94FE0B78
:1018E000C5CFDF91CF910895CF92DF92EF92FF9213
:1018F000CF93DF93EC016A017B01642F70E081E0FC
:101900000E94230C6D2D70E082E00E94230CA70141
:101910004177552728858EE891E0203210F08EE837
:1019200090E0609102017091030168237923642B98
:10193000752B2C3109F4606188E0DF91CF91FF9025
:10194000EF90DF90CF900C94230C80910201909146
:101950000301442329F0682B792B88E00C94230C95
:101960006095709568237923F8CFCF93DF931F920A
:10197000CDB7DEB7698341E0BE016F5F7F4F0E9444
:10198000C7060F90DF91CF910895CF92DF92EF922B
:10199000FF920F931F93CF93DF93EC017C018EEBAB
:1019A000E81A8DEFF80AF701118210828E010C5BA4
:1019B0001D4FF801118210826E01FAEBCF1AFDEF74
:1019C000DF0AF601118210828881823009F448C052
:1019D000863009F448C0813029F48FE394E0F8019F
:1019E0009183808386EE90E1FE01E65BFD4F91835B
:1019F000808380EC90E132979183808384E79CE040
:101A000034969183808385EA9CE03296918380832B
:101A10008FE994E032969183808340E050E0BA01F0
:101A2000CE010E94740C8C819D81AE81BF8180317A
:101A30009105A105B105A9F58AEA94E0F601918323
:101A400080838881833051F188F48230E1F0DF9126
:101A5000CF911F910F91FF90EF90DF90CF9008955D
:101A600085EF93E0BCCF80E497E0B9CF843039F1C3
:101A7000853069F7F70111821082F6011182108218
:101A800087EB97E007C085EF94E1F70191838083AE
:101A900084E299E0F80191838083D9CF8AE899E0C4
:101AA000F9CF8D309105A105B105A1F41B8A1C8ADF
:101AB0001D8A1E8A8881823029F0843041F68DEBA0
:101AC00093E1E8CF86E396E1F701918380838AE989
:101AD0009AE0E0CF86309105A105B10559F4CE0119
:101AE000DF91CF911F910F91FF90EF90DF90CF90FA
:101AF0000C94C70585309105A105B10551F08533DA
:101B00009105A105B10529F089339105A105B1051C
:101B100059F4CE01DF91CF911F910F91FF90EF907B
:101B2000DF90CF900C94A705AC01BD01475051093F
:101B300061097109423051056105710528F08B304A
:101B40009105A105B10559F4CE01DF91CF911F9107
:101B50000F91FF90EF90DF90CF900C9419068E308C
:101B60009105A105B10509F472CF8797A109B109C3
:101B70000397A105B10508F46ACF6B81613021F3A9
:101B8000643009F464CF633009F4A9CF653009F2F9
:101B90008EEA0E94B50C1A825ACF8AE396E00C9422
:101BA000CA028AE396E00C9439038EE480937C00A9
:101BB00062E070E080E090E00E94500280917A0044
:101BC000806480937A0080917A0086FDFCCF20911A
:101BD00078006091790070E0762F6627072E000C60
:101BE000880B990B622B08952F923F924F925F9230
:101BF0006F927F928F929F92AF92BF92CF92DF921D
:101C0000EF92FF920F931F93CF93DF93CDB7DEB781
:101C10002F970FB6F894DEBF0FBECDBFA090D201B4
:101C2000B090D301C090D401D090D501A986BA86D6
:101C3000CB86DC86C090D601D090D701E090D80149
:101C4000F090D901C982DA82EB82FC8281E0809334
:101C500006010E94CD019E878D870E94D50D6115DA
:101C600071058105910509F494C0CD28CE28CF28AF
:101C700009F48FC02B013C01770C4408542C32012D
:101C8000A980BA80CB80DC80E12CF12C00E010E050
:101C90009B01AC01642D742D842D942D0E94EE289F
:101CA000722E632E542E452E962E872E382E292ED8
:101CB00069857A858B859C85C980DA80EB80FC807C
:101CC0006C0D7D1D8E1D9F1D2CE434E040E050E026
:101CD0000E944629ED84FE840F2C000C000B110B92
:101CE000670156016801E12CF12C8701A982BA82B3
:101CF000CB82DC82ED82FE820F831887E12CF12CEF
:101D000000E010E00E94EE28298339874F875D8725
:101D1000B62FA72FF82FE92F272D362D452D542D1F
:101D2000692D782D832D922D01E00E94D229590131
:101D30006A017B018C01298139854F855D856B2F77
:101D40007A2F8F2F9E2F0E94ED29A72CB62CC52C01
:101D5000D42CE92CF82C032D122D0E947329C901D3
:101D60002F960FB6F894DEBF0FBECDBFDF91CF9197
:101D70001F910F91FF90EF90DF90CF90BF90AF90A9
:101D80009F908F907F906F905F904F903F902F909B
:101D9000089580E090E0E4CF4F925F926F927F923F
:101DA000AF92BF92CF92DF92EF92FF920F931F9369
:101DB000CF93DF93CDB7DEB728970FB6F894DEBF89
:101DC0000FBECDBF8C010E94F70B81111FC040E0F8
:101DD00070E060E080E80E94C70682E0D8011296B9
:101DE0008C9328960FB6F894DEBF0FBECDBFDF915F
:101DF000CF911F910F91FF90EF90DF90CF90BF9008
:101E0000AF907F906F905F904F9008955801B2EB24
:101E1000AB1ABDEFBB0AF50120813181F801848145
:101E20009581A681B78141E00B97A105B10529F005
:101E3000878960E871E084FF02C060E870E0C80153
:101E4000F901099564E670E080E090E00E9450029C
:101E50000E94F40D6C012C01712C612CD80151965B
:101E6000ED90FC90C701B0E0A0E08C509E4FAF4FCA
:101E7000BF4F84159505A605B70508F04DC0B2E320
:101E8000CB0ED11CE2E3EE0EF11C198298EE692E06
:101E900093E0792EC601B3010E9493286A831B82C6
:101EA000E4E6F0E0C601BF010E949328CB012AE0DE
:101EB00030E0B9010E9493288C831D82C701B301D1
:101EC0000E9493286E831F82C701BF010E9493283E
:101ED000CB01B9010E9493288887D80157968C912D
:101EE00048E0BE016F5F7F4F80FF0FC082E80E9415
:101EF000C70682E0F8018283D501ED91FC9140E0B4
:101F000060E871E0C80109956CCF88EB0E94C706B4
:101F1000D80112961C92F0CF9701AFE5B0E00E9475
:101F2000842824E630E040E050E00E94A7284216D2
:101F300053066406750600F7B2E3CB0ED11CE2E34C
:101F4000EE0EF11C198288EE682E83E0782EC60111
:101F5000B3010E9493286A831B82E4E6F0E0C60185
:101F6000BF010E949328CB012AE030E0B9010E9412
:101F700093288C831D82C701B3010E9493286E832E
:101F80001F82C701BF010E949328CB01B9010E94A3
:101F90009328888748E0BE016F5F7F4F81E80E94E9
:101FA000C70682E0D80112968C93A6CFCF93DF9319
:101FB000EC010E94CC0E8A81882371F08B8D9C8D60
:101FC000892B51F06F89788D660F771F6270CE0173
:101FD000DF91CF910C94BD09DF91CF9108950C94BE
:101FE000CC0EBF92CF92DF92EF92FF920F931F938E
:101FF000CF93DF93CDB7DEB7C854D1090FB6F894AD
:10200000DEBF0FBECDBF7B01B42EFC0101900020CE
:10201000E9F731971E2F181B1F3008F01EE01983B7
:10202000C12ED12CA601BC01CE0102960E941B2B11
:10203000E2E0F0E0EC0FFD1FEC0DFD1DE082809171
:10204000FF0387FF08C042E0410FBE016F5F7F4F73
:1020500082E50E94C70629E065EA71E0B21202C07B
:1020600068E871E0FB0101900020E9F731978F01EA
:10207000061B170B0983A8015527CE0102960E9463
:102080001B2B8091FF0387FF08C041E0400FBE017A
:102090006F5F7F4F83E50E94C70689E0DE011196DE
:1020A000B8120AC08CE7898380E28A8380E3F0FC5F
:1020B00081E38B83DE011496FD0187E090E03CE72D
:1020C00040E230834183B701082E02C076956795C0
:1020D0000A94E2F720E360FD21E32283019733961F
:1020E0008F3F980771F78CE758968C9358975996BD
:1020F0001C92BE016F5F7F4FFB0101900020E9F74A
:1021000031971E2F161B103208F01FE119A7412F1F
:1021100050E0CE018A960E941B2B8091FF0387FF1F
:1021200008C041E0410FBE01675D7F4F84E50E941A
:10213000C706C85BDF4F0FB6F894DEBF0FBECDBF3A
:10214000DF91CF911F910F91FF90EF90DF90CF9093
:10215000BF9008950E942D0B2D9A70E060E088E0FA
:102160000E94230C70E060E081E00E94230C70E08C
:1021700060E082E00E94230C1092E8030C94440B70
:102180001F93CF93DF93EC01122F2A9A20E00E9435
:10219000E304AB01BC01FE01E45BFD4F0190F08163
:1021A000E02DCE0109958FEF8AB91BB983E090E04D
:1021B0000E94200280E20E94BA068B899C890E94BC
:1021C00020022D9ADF91CF911F910895CF92DF9237
:1021D000EF92FF92CF93DF93EC016A017B0184E0E1
:1021E0000E94BA0621E0B701A601CE010E94E304D5
:1021F000AB01BC01FE01E45BFD4F0190F081E02DDD
:10220000CE0109951BB81AB880E20E94BA0683E095
:1022100090E00E94200289B12D9ADF91CF91FF902A
:10222000EF90DF90CF9008951BB81AB880E20E941B
:10223000BA0684E00E94BA0689B12D9A2A9A0895B6
:102240007F928F929F92AF92BF92CF92DF92EF9246
:10225000FF920F931F93CF93DF938C017B015A0161
:102260006C0182EBC81A8DEFD80AD601ED91FC9172
:1022700040E060E470E0C8010995E701F12CE12C31
:1022800088248A947C80688199808AB870E081E093
:102290000E94230C692D70E082E00E94230C8AB812
:1022A0007BB82A9A80E20E94BA062D9ABFEFEB1AF9
:1022B000FB0A2596AE14BF0429F7D601ED91FC91D7
:1022C00040E060E470E0C801DF91CF911F910F9171
:1022D000FF90EF90DF90CF90BF90AF909F908F9046
:1022E0007F900994CF92DF92EF92FF920F931F930A
:1022F000CF93DF9300D000D0CDB7DEB78C0143E0A1
:1023000050E067E671E00E942011680186EBC81A70
:102310008DEFD80AD601ED91FC9140E050E0BA0172
:10232000C8010995E82EF12CFE2CEE24D601ED9182
:10233000FC9141E050E060E070E0C8010995E82AB6
:1023400043E050E068E571E0C8010E942011F80107
:10235000838D948D8E159F0591F0F982EA829B837F
:102360008C83878944E0BE016F5F7F4F80FF14C07C
:1023700083E80E94C70682E0D80112968C930F90E2
:102380000F900F900F90DF91CF911F910F91FF90C1
:10239000EF90DF90CF90089589EB0E94C706F80177
:1023A0001282EDCFFC01238D348D232B11F00C9480
:1023B00072110895CF92DF92EF92FF920F931F93C5
:1023C000CF93DF93CDB7DEB76E970FB6F894DEBF2D
:1023D0000FBECDBFFC01058516852785308946E0F7
:1023E00050E06AE371E0011511052105310589F11D
:1023F00045E555E560E070E049835A836B837C8353
:10240000FAEAFD83EAEACE2EEAE2DE2EE12CF12C96
:10241000CE82DF82E886F986E5E5EA874B875C872E
:102420006D877E87A0E8AF87488B598B6A8B7B8B43
:10243000FC8BCD8ADE8AEF8AF88EE98F40E34E8FDF
:102440000A8F1B8F2C8F3D8F46E050E0BE016F5FDF
:102450007F4F0E9420116E960FB6F894DEBF0FBE1C
:10246000CDBFDF91CF911F910F91FF90EF90DF9043
:10247000CF900895EF92FF920F931F93CF93DF9326
:10248000EC0121E040E050E0BA010E94E304AB011E
:10249000BC017E0184EBE81A8DEFF80AD701ED91BB
:1024A000FC91CE0109952D9A8E01025B1D4FD8013A
:1024B000ED91FC9140E064E871E0CE01099562E0A5
:1024C00070E080E090E00E94500280E20E94BA0634
:1024D000D801ED91FC9141E064E871E0CE010995ED
:1024E00062E070E080E090E00E94500220E040E076
:1024F00050E0BA01CE010E94E304AB01BC01D70158
:10250000ED91FC91CE01099564E170E080E090E0EE
:102510000E94500221E040E050E0BA01CE010E944A
:10252000E304AB01BC01D701ED91FC91CE0109950B
:1025300062E070E080E090E00E9450022D9AD801A5
:10254000ED91FC9140E064E871E0CE01DF91CF9124
:102550001F910F91FF90EF9009942F923F924F920D
:102560005F926F927F928F929F92AF92BF92CF9223
:10257000DF92EF92FF920F931F93CF93DF9300D0E0
:102580001F92CDB7DEB79B838A838C01412C512CDF
:1025900032011C0123EE221A2DEF320A4C0188EB86
:1025A000881A8DEF980A580192EBA91A9DEFB90A83
:1025B000F10180819181A281B381481659066A0692
:1025C0007B0608F061C043E050E06BE271E08A8175
:1025D0009B810E942011AA81BB811D964D915D9126
:1025E0006D917C915097440D551D661D771DD4014A
:1025F000ED91FC91D8015D962C918A819B81099582
:10260000F801F58DF983D501ED91FC9141E060E48D
:1026100070E08A819B8109950E9482026B017C0196
:10262000B6E9CB0ED11CE11CF11C0E9482026C1594
:102630007D058E059F05E8F40E941411E9818E271F
:1026400087FDF3CF0E941411F9818F2787FDEDCF0D
:102650002FEF2AB92D9A2A9A0F5F1F4FEA81FB812B
:102660008281882389F0FFEF4F1A5F0A6F0A7F0A81
:102670009FCF40E070E060E087EB0E94C706AA8130
:10268000BB8112961C92E8CF0F900F900F90DF91B4
:10269000CF911F910F91FF90EF90DF90CF90BF905F
:1026A000AF909F908F907F906F905F904F903F90F2
:1026B0002F9008950F931F93CF93DF93EC012A9AE5
:1026C0008C01025B1D4FD801ED91FC9141E060E867
:1026D00070E0099564E670E080E090E00E945002AE
:1026E000FE01E45BFD4F0190F081E02D40E050E001
:1026F000BA01CE010995D801ED91FC9141E066E067
:1027000070E0CE01099564E670E080E090E00E9400
:10271000500280E20E94BA068B899C890E942002A6
:102720002D9AD801ED91FC9140E066E870E0CE0171
:10273000DF91CF911F910F9109940C945A13FF923E
:102740000F931F93CF93DF938C01C0E3D0E0F80188
:10275000F1908F01CE010E946328F81621F06F2DB1
:10276000CE010E946B282196CF33D10581F7DF91EE
:10277000CF911F910F91FF9008954F925F926F92AA
:102780007F92AF92BF92CF92DF92EF92FF920F9320
:102790001F93CF93DF93CDB7DEB728970FB6F8948A
:1027A000DEBF0FBECDBF8C01DC0111969C9111974D
:1027B0001D96CD90DD90ED90FC90509796FD51C008
:1027C000906411969C9384E090E00E94F629F801B1
:1027D000E05CFD4F91838083FC01C082D182E28264
:1027E000F382D8011D961D921D921D921C92509746
:1027F000F801C584D684E784F08826013701F8E023
:102800005F0E611C711C580186EBA81A8DEFB80A87
:10281000F80181859285A385B485C414D504E604A6
:10282000F70408F05FC0C816D906EA06FB0608F0F0
:1028300059C0D501ED91FC91B701A601C8010995D8
:102840008F3F09F449C0E982DA82CB828C8344E06D
:10285000BE016F5F7F4F80EB0E94C706F8011282B6
:1028600026C0F8014185528563857485C416D50656
:10287000E606F70608F4BCCF7801F0ECEF1AFDEF9E
:10288000FF0AD7012D913C919F7BF8019183F901BB
:1028900080819181A281B381F80185879687A7877E
:1028A000B08BC9010E94922AD7011D921C922896D2
:1028B0000FB6F894DEBF0FBECDBFDF91CF911F9151
:1028C0000F91FF90EF90DF90CF90BF90AF907F90EF
:1028D0006F905F904F900895FFEFCF1ADF0AEF0AD5
:1028E000FF0A96CFF8014585568567857089585F40
:1028F0006F4F7F4F84179507A607B707C8F0458726
:1029000056876787708BF8012585368547855089FE
:1029100059834A833B832C83BD83AE839F838887FF
:1029200048E0BE016F5F7F4F80EE0E94C706BFCFB9
:1029300085879687A787B08BE6CFCF93DF93EC018F
:10294000898186FD0BC08A818823C9F08F8981FF28
:1029500005C082FD0BC0CE010E943A128F8983FD13
:102960000EC0CE01DF91CF910C94BD1387FFF6CF3F
:1029700040E070E060E088E50E94C706EFCFDF919D
:10298000CF910895CF93DF93EC01898186FD07C035
:102990008B8D9C8D892B59F48F8981FD11C08F8976
:1029A00083FD0BC0CE01DF91CF910C94BD13CE01FE
:1029B0000E9472118A818111EFCFDF91CF9108952A
:1029C00082FD0AC0CE010E94DA1169E670E080E063
:1029D00090E00E945002E3CF87FFE1CF40E070E03B
:1029E00060E089E50E94C706DACF4F925F926F924E
:1029F0007F92AF92BF92CF92DF92EF92FF920F93AE
:102A00001F93CF93DF93CDB7DEB728970FB6F89417
:102A1000DEBF0FBECDBF8C015C0182EBA81A8DEF2B
:102A2000B80AD501ED91FC9141E068E870E0C80179
:102A3000099564EF71E080E090E00E9450020E94EE
:102A4000F70B81112AC040E070E060E080E80E944E
:102A5000C70682E0F8018283F80182818111BFC03C
:102A6000D501ED91FC9140E068E870E0C80109955E
:102A700028960FB6F894DEBF0FBECDBFDF91CF9181
:102A80001F910F91FF90EF90DF90CF90BF90AF908C
:102A90007F906F905F904F9008950E94F40D6C01AD
:102AA0002C01712C612CD8015196ED90FC90C7013E
:102AB000B0E0A0E08C509E4FAF4FBF4F84159505FE
:102AC000A605B70508F040C0B2E3CB0ED11CE2E387
:102AD000EE0EF11C198298EE692E93E0792EC60154
:102AE000B3010E9493286A831B82E4E6F0E0C601EA
:102AF000BF010E949328CB012AE030E0B9010E9477
:102B000093288C831D82C701B3010E9493286E8392
:102B10001F82C701BF010E949328CB01B9010E9407
:102B200093288887D80157968C9148E0BE016F5F43
:102B30007F4F80FF02C082E88ACF88EB0E94C706E1
:102B4000D80112961C9288CF9701AFE5B0E00E94A1
:102B5000842824E630E040E050E00E94A728421696
:102B600053066406750608F077CFB2E3CB0ED11C8E
:102B7000E2E3EE0EF11C198288EE682E83E0782ED7
:102B8000C601B3010E9493286A831B82E4E6F0E049
:102B9000C601BF010E949328CB012AE030E0B901B1
:102BA0000E9493288C831D82C701B3010E94932841
:102BB0006E831F82C701BF010E949328CB01B90118
:102BC0000E949328888748E0BE016F5F7F4F81E8AD
:102BD0000E94C70682E0D80112968C933DCF838D68
:102BE000948D892B49F0C8010E94B707D80112962D
:102BF0008C91882309F434CFF801878981FF05C0BF
:102C000082FD03C0C8010E948A09D80157968C91A1
:102C100083FD2ECFC8010E94BD132ACFCF93DF932F
:102C2000EC01898186FD0EC0CE010E94D60F8A81FB
:102C30008823C9F08F8981FF05C082FD0BC0CE01BA
:102C40000E945A138F8983FD0EC0CE01DF91CF9170
:102C50000C94BD1387FFF6CF40E070E060E088E59C
:102C60000E94C706EFCFDF91CF9108954F925F92F8
:102C70006F927F92AF92BF92CF92DF92EF92FF92CC
:102C80000F931F93CF93DF9300D000D0CDB7DEB763
:102C90008C01DC015B968D919C91892B21F546E09E
:102CA00050E06DE071E0C8010E94201120E245E58E
:102CB00055E560E070E0C8010E94420A81119DC0A4
:102CC0000F900F900F900F90DF91CF911F910F9168
:102CD000FF90EF90DF90CF90BF90AF907F906F907C
:102CE0005F904F900895F80181859285A385B48502
:102CF00080349105A105B10590F4278919821A82C3
:102D00001B828C8344E0BE016F5F7F4F84E820FD0F
:102D100066C08AEB0E94C706F801128266C068018D
:102D2000F2EBCF1AFDEFDF0AD601ED91FC9141E005
:102D300060E870E0C801099562E370E080E090E02F
:102D40000E945002D601ED91FC9141E062E070E0FA
:102D5000C801099564E670E080E090E00E945002AE
:102D6000F8014184528463847484B301A201405405
:102D70005109610971095801F6EBAF1AFDEFBF0A5D
:102D8000D501ED91FC91C8010995E82EF12CFE2C9E
:102D9000EE24B301A2014F53510961097109D50114
:102DA000ED91FC91C8010995E82AD601ED91FC91BD
:102DB00040E062E870E0C8010995F801838D948DC8
:102DC000E816F90691F0F982EA829B838C83878961
:102DD00044E0BE016F5F7F4F80FF0DC083E80E941B
:102DE000C70682E0D80112968C93D80112968C9176
:102DF000811155CF65CF89EB8DCFF801878983FD90
:102E00005FCFC8010E94BD135BCF2F923F924F92BC
:102E10005F926F927F928F929F92AF92BF92CF926A
:102E2000DF92EF92FF920F931F93CF93DF93CDB773
:102E3000DEB7C255D1090FB6F894DEBF0FBECDBFC5
:102E40008C01FC01E05BFD4F0190F081E02D60E81A
:102E500070E009959801225B3D4F29963FAF2EAF58
:102E6000299781111DC0D9012D913C91F8018481D0
:102E70009581A681B78141E00B97A105B10529F0A5
:102E8000878960E871E084FF02C060E870E0C801F3
:102E9000F901099564EF71E080E090E00E94500232
:102EA00040E450E06FEF70E09E012F5F3F4FC9019B
:102EB0000E94242BD80153964D905D906D907C908C
:102EC00056972D964CAE5DAE6EAE7FAE2D97312CE3
:102ED000212CF801E35EFD4F2F96FFAFEEAF2F9749
:102EE0009801285B3D4F63963FAF2EAF6397A801D3
:102EF000465B5D4F61965FAF4EAF61972996AEAD71
:102F0000BFAD2997ED91FC9141E064E070E0C8010C
:102F100009956AE070E080E090E00E94500278013C
:102F2000812C912C54012F96EEADFFAD2F9780810F
:102F30009181A281B38188169906AA06BB06C8F5BD
:102F4000D501C40123E0B695A795979587952A9555
:102F5000D1F721E030E02C0F3D1F820F931FDC01E1
:102F60008C9190E094012770332702C09595879546
:102F70002A95E2F780FF14C0F801458556856785DC
:102F80007089480D591D6A1D7B1D6396AEADBFAD9E
:102F90006397ED91FC91D7015D962C91C80109953D
:102FA000BFEF8B1A9B0AAB0ABB0AEFEFEE1AFE0AC1
:102FB000BACF2996AEADBFAD2997ED91FC9140E017
:102FC00064E070E0C80109954801BDE18B0E911CD9
:102FD000C12CD12C7601B12CA12C2F96EEADFFADDA
:102FE0002F9780819181A281B381C816D906EA0604
:102FF000FB0608F041C0D8011D964D915D916D9181
:103000007C9150974C0D5D1D6E1D7F1D6196AEAD80
:10301000BFAD6197ED91FC91C8010995F401A191B3
:103020004F01B701A60193E07695679557954795AF
:103030009A95D1F7E1E0F0E0EC0FFD1FE40FF51FEA
:1030400096012770332741E050E002C0440F551F1E
:103050002A95E2F79A0190818A1759F05FEFA51A35
:10306000B50A292B20838FEFC81AD80AE80AF80A74
:10307000B4CF20952923F6CFA114B10459F521141A
:10308000310449F0D80157968C9187FF04C0622D16
:1030900081E50E94B50CF801438A548A658A768AD4
:1030A000CE5ADF4F0FB6F894DEBF0FBECDBFDF9113
:1030B000CF911F910F91FF90EF90DF90CF90BF9035
:1030C000AF909F908F907F906F905F904F903F90C8
:1030D0002F900895FFEF2F1A3F0A2D966CAD7DAD0E
:1030E0008EAD9FAD2D9724E130E040E050E00E948E
:1030F000A728240D351D461D571DD80153962D9325
:103100003D934D935C9356972D962CAD3DAD4EADB2
:103110005FAD2D97240D351D461D571D2D962CAFE7
:103120003DAF4EAF5FAF2D9734E12316310409F068
:10313000E5CE2996AEADBFAD2997ED91FC9140E06B
:1031400060E870E0C8010995F801858596852785B6
:1031500022962FAF229723969FAF239724968FAF67
:10316000249784E125968FAF25972696BFAE2697A4
:103170002796AFAE279746E0BE016F5B7F4F81EB8E
:103180000E94C706D80112961C928ACF4F925F9276
:103190006F927F92AF92BF92CF92DF92EF92FF92A7
:1031A0000F931F93CF93DF9300D000D01F92CDB722
:1031B000DEB76C010E94D10D181619060CF0CFC0B5
:1031C0000E94D10D181619060CF0C9C08AE396E0CA
:1031D0000E942B038434910509F443C08F34910578
:1031E000D1F0839709F0B8C00E94D10D04970CF478
:1031F000B6C00E94CD0D76012DE1E20EF11C62E019
:1032000070E0CE0101960E94DE02029709F442C0EE
:103210009FEF8FEF87C00E94D10D02970CF49FC0E3
:103220000E94CD0D8AE396E00E942B038B3491051A
:1032300039F60E94CD0D90E080E00F900F900F9036
:103240000F900F90DF91CF911F910F91FF90EF9012
:10325000DF90CF90BF90AF907F906F905F904F9036
:1032600008950E94D10D04970CF479C064E070E0D9
:10327000CE0101960E94DE0244E050E064E572E077
:10328000CE0101960E945528892B09F099CF81E043
:1032900090E0D3CFA980BA80BA24AB24BA2461E0ED
:1032A00070E0CE0105960E94DE02019709F0B0CFD2
:1032B0009EEF81E0A81682E0B80608F0AACF0E942F
:1032C00082022B013C0110E000E00A151B0558F0BA
:1032D000F7019701200F311F80E0E217F307C9F0D3
:1032E00091918927FACF0E94820264197509860993
:1032F0009709613D774081059105A0F5B501601BF7
:10330000710BC701800F911F0E94DE02080F191F69
:10331000DCCF9D81891711F09CEF7BCF902F812FFF
:1033200017FF0CC089839A8342E0BE016F5F7F4F15
:1033300089EA0E94C70684E090E07FCFF601E35E51
:10334000FD4F012E000C220B330B008311832283CF
:10335000338382E090E071CF0E94CD0D31CF83E0C6
:1033600090E06BCF9DEF55CF0F931F93CF93DF93DB
:10337000EC014D855E856F85788989859A85AB8559
:10338000BC85481759076A077B0720F0CE010E94C9
:10339000120B12C0CE010E94C6188330910591F421
:1033A000898187FD09C040E070E060E082E00E9412
:1033B000C70689818068898381E0DF91CF911F9161
:1033C0000F91089529812F77298381309105F1F29A
:1033D000029711F080E0F1CF8E01035E1D4F8D85C5
:1033E0009E85AF85B889F8014081518162817381E2
:1033F000840F951FA61FB71F49855A856B857C854D
:10340000481759076A077B0738F440E070E060E02E
:1034100087EA0E94C706DECFFE01EC5BFD4F80818C
:1034200091810097B9F2BE010E94820B019691F240
:103430008D859E85AF85B889F80140815181628173
:103440007381840F951FA61FB71F8D879E87AF8737
:10345000B88BB2CFCF92DF92EF92FF92CF93DF93F0
:10346000EC010E9482026B017C0128EEC20E23E077
:10347000D21EE11CF11C0E9482026C157D058E0596
:103480009F0570F4CE010E94C618009789F004973A
:1034900069F06AE070E080E090E00E945002EBCFBB
:1034A00040E070E060E088EA0E94C70680E001C06A
:1034B00081E0DF91CF91FF90EF90DF90CF90089562
:1034C0000F931F93CF93DF938C01EB018091E9035E
:1034D0008F7390E09B01215031098217930731F0DF
:1034E0008617970779F181E090E008C088EE93E0B5
:1034F0000E942A1A811107C08FEF9FEFDF91CF91B1
:103500001F910F9108958091FF0390910004A09165
:103510000104B091020480789927AA27BB27C13003
:10352000D105D1F4892B8A2B8B2B31F040E070E050
:1035300060E082E40E94C7068091E903807C8C2BC6
:103540008093E9030115110581F48091E90386FF59
:1035500014C090E080E0D2CF892B8A2B8B2B61F3B3
:1035600040E070E060E083E4E5CF68EE73E0C8011E
:103570000E94820B019649F7BFCF40E070E060E007
:1035800080E1219709F080E30E94C7069091E9034A
:10359000892F8F738F5F907C892B8093E903A3CF52
:1035A000CF93DF9320912C0630912D06232B71F0C1
:1035B000EC019091E9039F73963051F488EE93E00B
:1035C0000E94C61821E0039709F443C020E041C0DF
:1035D0009330F9F0923019F588EE93E00E942A1AA0
:1035E0008823D9F10E94AB069091E903907C936007
:1035F0009093E9038091FF0387FF06C040E070E0ED
:1036000060E080E40E94C7068091E9038F738330F5
:1036100039F588EE93E0FE01DF91CF91099461E0E6
:1036200070E080912A0690912B060E94601A8130EA
:10363000910559F465E070E080912E0690912F0677
:103640000E94601A81309105F9F221E0892B09F07E
:10365000BDCF822FDF91CF9108958FEF9FEFF5CFF0
:1036600021E0F7CFCF92DF92EF92FF920F931F935B
:10367000CF93DF93FC01EC5BFD4F2081318121155D
:10368000310559F410E0812FDF91CF911F910F91F7
:10369000FF90EF90DF90CF900895EC01BC01C9013D
:1036A0000E94820B019671F340E070E060E082EED0
:1036B0000E94C70680910001882309F462C0FE01C0
:1036C000E35EFD4FE080F1808EEFE8168FEFF806A5
:1036D00008F057C0E2E0F2E064918AE396E00E94CD
:1036E0007103E3E0F2E064918AE396E00E947103E3
:1036F000E4E0F2E064918AE396E00E947103E5E081
:10370000F2E064918AE396E00E94710387010E5F04
:103710001F4F612F8AE396E00E947103602F8AE3B6
:1037200096E00E94710366EE8AE396E00E947103C0
:10373000E8EEF1E004916E01C6018C1B9D0B8E1525
:103740009F0588F4F601158D612F8AE396E00E94AB
:103750007103E12FE027F0E0EE5FFE4F0491FFEFF1
:10376000CF1ADF0AE9CF602F8AE396E00E94710347
:103770006AE08AE396E00E9471038AE396E00E9481
:10378000BE03CE010E942A1A182F882309F47ACF8B
:103790008D859E85AF85B889FE01E35EFD4F408132
:1037A000518162817381840F951FA61FB71F8D877A
:1037B0009E87AF87B88B49855A856B857C85841732
:1037C0009507A607B70708F45ECFCE010E94120B3B
:1037D0005ACFEF92FF920F931F93CF93DF93FB018A
:1037E000208131812430310539F58A01EB017C01DA
:1037F000CA010E944C28EA81FB812C813D812E1B4D
:103800003F0B82179307C1F4AC01B801C7018E0FBB
:103810009F1F0E94552821E030E0892B11F430E0F1
:1038200020E088279927821B930BDF91CF911F916E
:103830000F91FF90EF9008958FEF9FEFF6CFEF92EB
:10384000FF920F931F93CF93DF938C01EB0183E0E3
:10385000CC0FDD1F8A95E1F7CE0188519E4F7C0188
:103860004FE353E0BC01C8010E94E91B892B41F0E2
:1038700049E353E0B701C8010E94E91B892B81F499
:10388000C051DE4F8A819B81800F911F0E94890663
:10389000862FDF91CF911F910F91FF90EF900895A8
:1038A0008FEFF7CFEF92FF920F931F93CF93DF939A
:1038B0007C01890183E0440F551F8A95E1F7EB01F4
:1038C000C40FD51F4AE452E0BE01C7010E94E91BA4
:1038D000892B99F48A859B858E0D9F1D0E948906F0
:1038E000F801648375838683978381E0DF91CF91AC
:1038F0001F910F91FF90EF90089580E0F7CFEF9226
:10390000FF920F931F93CF93DF937C01890183E094
:10391000440F551F8A95E1F7EB01C40FD51F43E40F
:1039200052E0BE01C7010E94E91B892B89F48A85F8
:103930009B858E0D9F1D0E948906F801728B618BFD
:1039400081E0DF91CF911F910F91FF90EF9008954B
:1039500080E0F7CFEF92FF920F931F93CF93DF9307
:103960007C01890183E0440F551F8A95E1F7EB0143
:10397000C40FD51F47E352E0BE01C7010E94E91BF7
:10398000892B99F48A859B858E0D9F1D0E9489063F
:10399000F801638B748B858B968B81E0DF91CF91DF
:1039A0001F910F91FF90EF90089580E0F7CFEF9275
:1039B000FF920F931F93CF93DF937C01890183E0E4
:1039C000440F551F8A95E1F7EB01C40FD51F42E361
:1039D00052E0BE01C7010E94E91B892B81F48A8550
:1039E0009B858E0D9F1D0E948906F801638381E0EF
:1039F000DF91CF911F910F91FF90EF90089580E09C
:103A0000F7CFEF92FF920F931F93CF93DF937C0139
:103A1000890183E0440F551F8A95E1F7EB01C40F3C
:103A2000D51F48E252E0BE01C7010E94E91B892B65
:103A300081F48A859B858E0D9F1D0E948906F80161
:103A4000608781E0DF91CF911F910F91FF90EF9000
:103A5000089580E0F7CFEF92FF920F931F93CF93DB
:103A6000DF937C01890183E0440F551F8A95E1F7BC
:103A7000EB01C40FD51F40E252E0BE01C7010E9416
:103A8000E91B892B89F48A859B858E0D9F1D0E94D9
:103A90008906F801748F638F81E0DF91CF911F91C8
:103AA0000F91FF90EF90089580E0F7CFEF92FF9293
:103AB0000F931F93CF93DF937C01890183E0440F21
:103AC000551F8A95E1F7EB01C40FD51F48E152E07D
:103AD000BE01C7010E94E91B892B99F48A859B8549
:103AE0008E0D9F1D0E948906F8016587768787875E
:103AF000908B81E0DF91CF911F910F91FF90EF901C
:103B0000089580E0F7CFEF92FF920F931F93CF932A
:103B1000DF937C01890183E0440F551F8A95E1F70B
:103B2000EB01C40FD51F4CE052E0BE01C7010E945B
:103B3000E91B892B99F48A859B858E0D9F1D0E9418
:103B40008906F801618772878387948781E0DF9116
:103B5000CF911F910F91FF90EF90089580E0F7CFE4
:103B6000EF92FF920F931F93CF93DF937C01890114
:103B700083E0440F551F8A95E1F7EB01C40FD51F71
:103B800046E052E0BE01C7010E94E91B892B99F46F
:103B90008A859B858E0D9F1D0E948906F801678B83
:103BA000708F818F928F81E0DF91CF911F910F9164
:103BB000FF90EF90089580E0F7CF1F920F920FB61D
:103BC0000F9211242F933F938F939F93AF93BF93A3
:103BD0008091E0019091E101A091E201B091E301B7
:103BE0003091DF0123E0230F2D3768F126E8230F02
:103BF0000296A11DB11D2093DF018093E0019093F7
:103C0000E101A093E201B093E3018091E40190917E
:103C1000E501A091E601B091E7010196A11DB11D5A
:103C20008093E4019093E501A093E601B093E7014E
:103C3000BF91AF919F918F913F912F910F900FBEA8
:103C40000F901F9018950196A11DB11DD4CF1F9202
:103C50000F920FB60F9211242F933F934F935F93C0
:103C60006F937F938F939F93AF93BF93EF93FF9344
:103C70008AE396E00E944F03FF91EF91BF91AF91CD
:103C80009F918F917F916F915F914F913F912F9174
:103C90000F900FBE0F901F9018951F920F920FB6A6
:103CA0000F9211242F938F939F93EF93FF93E091A3
:103CB0004A06F0914B068081E0915006F091510642
:103CC00082FD1BC09081809153068F5F8F7320917E
:103CD0005406821741F0E0915306F0E0E65CF94F9C
:103CE000958F80935306FF91EF919F918F912F9124
:103CF0000F900FBE0F901F9018958081F4CFCF9337
:103D0000DF93CDB7DEB7E2970FB6F894DEBF0FBEF4
:103D1000CDBF789484B5836084BD85B5836085BD4F
:103D200080916E00816080936E0082E080938100BC
:103D3000809181008160809381008091800081600A
:103D4000809380008091B10084608093B100809165
:103D5000B00081608093B000809191008360809377
:103D60009100809190008160809390008091A100EB
:103D700083608093A1008091A00081608093A00067
:103D800087E880937A001092C1001CECE12E11E0CC
:103D9000F12E00E310E0C8010E946328D7018D9343
:103DA0007D010F5F1F4F0F331105A9F76CE871E01C
:103DB0008CEC91E00E942B2B892B29F16CE871E0AF
:103DC0008CEC91E00E94342B80EB9EE1A4E0B0E00B
:103DD0008093D2019093D301A093D401B093D501E5
:103DE00080EE9BEAA0E0B0E08093D6019093D701EB
:103DF000A093D801B093D9018FEF8093DA018CECB6
:103E000091E00E949F1362E081E10E94E40162E080
:103E100080E10E94E401E6E7F2E09491EFE2F3E052
:103E20002491E4E1F3E08491882309F4B3C0992359
:103E3000D9F092509D30C0F4E92FF0E0EE5DF04EE5
:103E40000C94E828C31FC71F2F1FA11F341F341F46
:103E5000A51FAB1FAF1FB51F341FB91FBF1F909108
:103E600080009F7790938000E82FF0E0EE0FFF1F17
:103E7000E75AFD4FA591B491EC912E2309F48AC025
:103E80000E94CD0121E0883E93400CF020E0209379
:103E9000010160E080E10E94E4018FE284B980E1E9
:103EA00085B92D9A2A9A70E060E081E00E94230C87
:103EB00070E060E082E00E94230C70E060E088E047
:103EC0000E94230C0E94440B1092E8038091E803A7
:103ED000882309F463C00E9482020091DB011091E3
:103EE000DC012091DD013091DE010617170728075C
:103EF000390708F053C06091E8038AEA0E94B50CC4
:103F00000E94AA1081E08093EA036091E803603187
:103F100010F00C941528E62FF0E0EF56F04E0C94BC
:103F2000E8280C205625612564256F25722561251A
:103F300006274426152815287D257D251526F427D6
:103F40003826909180009F7D8DCF9091B0009F7713
:103F50009093B00089CF9091B0009F7DF9CF909160
:103F600090009F77909390007FCF909190009F7DDD
:103F7000F9CF9091A0009F779093A00075CF90917A
:103F8000A0009F7DF9CF94B59F7794BD6DCF94B578
:103F90009F7DFBCF82E0809301017BCF8091E8037E
:103FA0008111B0CF0E94D10D18161906ACF58AE325
:103FB00096E00E942B038B37910509F074C581E0D0
:103FC0008093EA031092E90360E072E085E094E0F8
:103FD0000E94DE02AC0170E060E040930506509361
:103FE0000606609307067093080610E8E12EF12C90
:103FF00000E010E0E092FF03F0920004009301045F
:1040000010930204452B462B472B49F440E070E007
:1040100060E084EA0E94C7060E94DE0357CFFC01DD
:10402000E851FC4F158E6FEF7FEF30E020E050E05D
:1040300040E0512C412C4817590730F4FA01EB5F4E
:10404000FB4FE081E1113DC0C901019713E0220F50
:10405000331F1A95E1F7F901EE51FE4F97FF53C256
:10406000141415040CF030C18FEF8093E803109204
:10407000FF03109200041092010410920204F12C2C
:1040800010E000E0B80185E094E00E941F1C8F3F23
:1040900009F447C28093E8030F5F1F4F8091E80344
:1040A0008F3F11F0F1104DC20F5F1F4F0415150522
:1040B0004CF38F3F09F045C240E070E060E081EAD8
:1040C000A9CFEA330CF068C0E0330CF07CC0E032DA
:1040D00009F47DC16CF4E93034F0EB300CF477C1B5
:1040E000ED3009F474C1BEEF4B2E55245A94B8CF6D
:1040F000EC3209F4C3C1ED3209F465C0E23299F73C
:104100006A014F5F5F4F4817590708F0DDC0FA0199
:10411000EB5FFB4FE081EE2309F4D6C0E23209F0F9
:104120005CC12034310508F0CFC089010F5F1F4FFB
:10413000E3E0220F331FEA95E1F7F901E851FE4F62
:10414000EE24EA94FE2CF582E482F382E282178266
:104150001682309709F4B8C024E030E03183208320
:10416000D6011196B383A283558344833FEF431A4C
:10417000530A6F3F760709F4F8C0FB0123E0EE0F06
:10418000FF1F2A95E1F7E851FE4F268137812F5F07
:104190003F4F37832683E9C0E636A9F06CF4EB3550
:1041A00009F497C0ED3509F4E2C0EA3309F09BCF7A
:1041B000B901615071090BC1E43729F00CF06DC0F1
:1041C000EE3609F090CF6F3F7607B1F0FB01A3E028
:1041D000EE0FFF1FAA95E1F7E851FE4FA081B181D4
:1041E000A130B10509F470C0149731F40680F7814D
:1041F000E02DEF2B09F068C08A01FA01EB5FFB4F5D
:104200008417950709F460C0A191AA2309F45CC042
:10421000A03251F00CF065C1A9300CF46BC1AB3089
:104220001CF0AD3009F066C12034310508F04CC0F7
:10423000D9011196E3E0220F331FEA95E1F7F90166
:10424000E851FE4FEE24EA94FE2CF582E482F382DC
:10425000E282178216823097B9F128E030E031838C
:1042600020830283138355834483415051093FEFD8
:10427000431A530A6F3F760771F0FB0103E0EE0F1C
:10428000FF1F0A95E1F7E851FE4F268137812F5F26
:104290003F4F378326839D019AC0EB37D1F0ED372E
:1042A00009F021CFCC24C394D12CD9011197F90165
:1042B00003E0EE0FFF1F0A95E1F7E052FE4FB7FF54
:1042C0005AC0119609F083C040E070E060E080EAD7
:1042D000A1CE0FEF401A500A20343105A8F789010A
:1042E0000F5F1F4F6901B3E0CC0CDD1CBA95E1F7FD
:1042F000D601A851BE4F6D01EE24EA94FE2C15960E
:10430000FC92EE9214971396FC92EE9212971796E7
:104310001C921E921697AB2BB9F26F3F7607C9F02D
:10432000A3E0660F771FAA95E1F768517E4FDB0186
:10433000ED90FC90EA94EF2839F2DB011696ED90AF
:10434000FC90BFEFEB1AFB0ADB011796FC92EE9292
:10435000169761E070E0EB3711F062E070E0F60173
:104360007183608353834283B901980130C0E2E0D6
:10437000CE2ED12C9ACFE280F380EF20E09451F141
:10438000E480F580EF20E09429F5608171816C155F
:104390007D0509F099CFBA016F5F7F4F7583648304
:1043A000FD0113E0EE0FFF1F1A95E1F7E851FE4FF4
:1043B000BD01A281B381119621F0A481B58111962E
:1043C00031F06150710938976F3F760791F74F5F71
:1043D0005F4F31CE1197389772CFEC3509F091CEFF
:1043E000FA013196E817F90708F08BCE8F010B5FC1
:1043F0001B4FD8011C91163639F074F41F3221F08E
:104400002CF4123209F060CFAF017BCE1C35E1F302
:10441000123609F059CFF8CF1237B1F324F41E3613
:1044200009F052CFF1CF143779F3153709F04CCF9B
:10443000FA0132968A01095F1B4F4A5F5F4FE81706
:10444000F907C1F0D801FD908D01FF2099F0B0ED82
:10445000EB2EEF0CB9E0BE1548F4E894F5F8AFEB9D
:10446000EA2EFE0CA5E0AF1508F42ECF3196E41726
:10447000F50729F7AF014150510943CE6F3F760749
:1044800009F4A5CFFB0103E0EE0FFF1F0A95E1F74A
:10449000E851FE4F0190F081E02D3197329708F4FA
:1044A00096CFD9011197F90113E0EE0FFF1F1A956E
:1044B000E1F7E052FE4FB7FD8ACF00811181015034
:1044C00011090230110550F4E280F380EF20E094EE
:1044D00029F0E480F580EF20E09499F01197389767
:1044E000EACFAD3509F4A0CEAD3709F49DCEAC329C
:1044F00009F49ACE4F5F5F4FA052AF3508F480CEDB
:10450000E3CEBD0164CF208131812F3F3F4F31F099
:10451000228133812F3F3F4F09F4D6CE0197389740
:104520009DCD28EE33E0A80168EE71E085E094E0CF
:104530000E94B01D882309F4B1CD0F5F1F4FF82EE4
:10454000ADCD8B3008F0FCC11092F5031092F6034C
:104550001092F7031092F8031092FF0310920004D8
:1045600010920104109202048FEF80932206809330
:1045700023068093090610921D0610921E061092C3
:104580001F06109220061092240610922506109203
:1045900026061092270610920404109203048091BC
:1045A000E8019091E901019711F5E090EE01F0909A
:1045B000EF01F8AAEFA61BA21AA266246394712C3D
:1045C000EFA4F8A80AA11BA10E151F051CF18091EC
:1045D00009068F3F61F48FEF9FEFA0E0B0E080937A
:1045E0001D0690931E06A0931F06B093200680918F
:1045F000E803873008F0E9C168EE73E085EC9CE0E1
:104600000E94820B019609F0E0C140E070E060E09A
:1046100082EA00CD6414750454F7C301F3E0880FF7
:10462000991FFA95E1F78C0108511E4F18014EEDC4
:1046300052E0B80185E094E00E94E91B892B59F013
:1046400048ED52E0B80185E094E00E94E91B10E0DB
:1046500000E0892B51F412E0610E711C0AA11BA12C
:104660000F5F1F4F1BA30AA3ABCFF801EC54FD4F04
:1046700045915491B10185E094E00E94E91B892B9A
:1046800091F4F801EA54FD4FA591B49128EE33E07E
:10469000A30168EE71E085E094E0FD010995F2E088
:1046A0006F0E711CDBCF0C5F1F4F04321105E9F652
:1046B00049EA52E0B10185E094E00E94E91B8C01D7
:1046C000892B09F039C17201E618F708FBA6EAA6A2
:1046D000970122303105E4F0D10118968D919C911B
:1046E00019970197A9F41E96ED90FC90FAAAE9AAF1
:1046F0001FA21EA2E2E0AE2EB12C01E010E0E9A85C
:10470000FAA82EA13FA12E153F053CF017FD6FCF53
:104710000F5F1F4F600E711EA1CFEAA4FBA4AE1461
:10472000BF040CF064CF650173E0CC0CDD1C7A95FE
:10473000E1F77101EC0CFD1C45EA52E0B70185E0A0
:1047400094E00E94E91B4C01892B09F079C028E014
:10475000C20ED11CF101EC0DFD1D808191810297EB
:1047600009F045CFC680D7803FEF3093210689E01E
:1047700096E099A788A7E0912106EEA78C149D04E6
:1047800024F4F4E18F169104E1F42EA52F3F11F4E7
:10479000C092210634E1C316D1042CF4F601E75F80
:1047A000F94F4FEF408382E0C80ED11C0C0D1D1D48
:1047B000AC0CBD1C2EA13FA12F5F3F4F3FA32EA3EA
:1047C0009ECFD70152968D919C918B5F9B4F0E94FB
:1047D0008906E8A5F9A56193F9A7E8A7262F30E097
:1047E00081E090E0A0E0B0E004C0880F991FAA1F0C
:1047F000BB1F6A95D2F7AC01BD0180911D06909157
:104800001E06A0911F06B0912006842B952BA62B87
:10481000B72B80931D0690931E06A0931F06B0939E
:1048200020069EA59F3F29F48216930611F08092E0
:104830002106AFEF8A1A9A0AB8E0EB0EF11C9BCF63
:1048400049E952E0B70185E094E00E94E91B4C0180
:10485000892B09F044C098E0C90ED11CF101EC0D80
:10486000FD1D80819181029709F0C1CEC680D7805D
:10487000A8E0EA0EF11C8C149D0424F0B2E0CB0EEB
:10488000D11C94CFD7011A968D919C918B5F9B4F31
:104890000E94890681E090E0A0E0B0E004C0880FAB
:1048A000991FAA1FBB1F6A95D2F7AC01BD01809169
:1048B000240690912506A0912606B0912706842B08
:1048C000952BA62BB72B8093240690932506A093B7
:1048D0002606B09327069FEF891A990AC9CF4AE89E
:1048E00052E0B70185E094E00E94E91B0E5F1F4F84
:1048F000E2E0AE0EB11C892B59F4D7011A968D91C6
:104900009C918B5F9B4F0E9489066093220652CF39
:1049100041E952E0B70185E094E00E94E91B892B50
:1049200009F048CFF701828593858B5F9B4F0E94EA
:104930008906609323063ECF32E0630E711C8ECE53
:104940008E3009F042C0EE24E394F12C10E000E038
:1049500032C0B70185E094E00E941F1C8F3F41F5F3
:1049600028EE33E0A70168EE71E085E094E00E9454
:10497000B01D81111DC0870163E0000F111F6A95F2
:10498000E1F708511E4F46E852E0B80185E094E097
:104990000E94E91B892B09F052C0F801828593859A
:1049A0008B5F9B4F0E9489066093DA0101E010E063
:1049B000F2E0EF0EF11CE414F5045CF20130110595
:1049C00021F48CEC91E00E949F138091FF0387FFFC
:1049D00011C080E18983E2E9F1E0DE0112960190E5
:1049E0000D928A95E1F741E1BE016F5F7F4F8AE545
:1049F0000E94C7068091FF0387FF05C060910101F7
:104A00008CE50E94B50C8091FF0387FF06C00E94D1
:104A1000F70B682F8BE50E94B50C8091FF0387FF91
:104A200005C06091E8038DE50E94B50C40E070E0A0
:104A300060E081E00E94C7060E94AB06EDCA43E831
:104A400052E0B80185E094E00E94E91B892B89F4CB
:104A5000D8011A968D919C918B5F9B4F0E9489067D
:104A60006093D2017093D3018093D4019093D501C8
:104A70009DCF40E852E0B80185E094E00E94E91B38
:104A8000892B09F0D6C2F801828593858B5F9B4FF5
:104A90000E9489066093D6017093D7018093D80154
:104AA0009093D90183CF0E94CD0DB6CA82E39BE1DA
:104AB0000E94D01A91E0892709F4AECA0E94AA1078
:104AC000ABCA84EB99E1F4CF8091FF0381FD07C06D
:104AD00040E070E060E085EA0E94C706EFCF8BED12
:104AE0009BE0E6CF8091030490910404892BB9F7F1
:104AF00040E070E060E086EAEFCF8091E903811149
:104B00002EC00E94F70B811105C040E070E060E00C
:104B10008CEAE2CF0E942D0B8091E80360E871E0FF
:104B20008B3021F08C30A1F460E870E088E00E94C6
:104B3000230C64E670E080E090E00E9450020E9446
:104B4000440B81E08093E90340E070E060E062CADA
:104B50000E94440B40E070E060E08DEABDCF88EE3B
:104B600093E00E94C618892B09F056CA64EF71E0E1
:104B700080E090E00E9450020E94D50D6B017C0104
:104B800010E000E0C114D104E104F10481F022E05E
:104B900030E040E050E00E94C928CA01B901705DD0
:104BA0008E4E9F4FA70196010E94C92889010E943D
:104BB000F40D9C012E5C3F4F48EEE42E43E0F42EB2
:104BC000C901B7010E949328D62EE4E6F0E0C9019E
:104BD000BF010E949328CB012AE030E0B9010E9476
:104BE0009328482F0E5C1F4FC801B7010E949328DD
:104BF000F62EC801BF010E949328CB01B9010E9483
:104C000093289091E8031982DA821B824C831D82DB
:104C1000FE821F82888748E0BE016F5F7F4F85EE6E
:104C20009C3009F407CF84EE05CF02EE12E0F801C4
:104C30006491662341F08AE396E00E9471030F5F5E
:104C40001F4F892BA1F740E150E062E971E08AE350
:104C500096E00E948E0242E050E063EA71E08AE34F
:104C600096E00E948E028AE396E00E94BE0326CF61
:104C70008091DA019091010199838A8342E0BE011B
:104C80006F5F7F4F84E028CF88EE93E00E94C618C4
:104C9000892B09F0C1C90E94D10D04970CF4BCC93D
:104CA0000E94CD0D7C010E94CD0D6C010E94CD0DA6
:104CB0008DA71CA60E94CD0DACA4BDA4A82AB92A1C
:104CC000850111708091FF0390910004A09101046F
:104CD000B0910204AC01BD0126E076956795579529
:104CE00047952A95D1F741704983AC01BD0135E064
:104CF00076956795579547953A95D1F741704A83D0
:104D000087FF07C042E0BE016F5F7F4F85E50E94CD
:104D1000C706FF2448E0B70186EA91E00E94F10F40
:104D2000DD2448E0B6018AEA91E00E94F10F48E0F4
:104D3000B8018EEA91E0B7FE0DC049E08EEA91E03D
:104D40000E94F10FC8010E94FE0B682F70E048E03E
:104D500083EB91E00E94F10F40E070E060E081E0C1
:104D60000E94C7060E942D0BB60181E00E94230C11
:104D7000B70182E00E94230CB7FE39C0B80188E079
:104D80000E94230C8091FF0390910004A0910104E4
:104D9000B091020416E0B695A795979587951A9558
:104DA000D1F7F1E08F27682F617080E20E94BF0683
:104DB0008091FF0390910004A0910104B09102043E
:104DC00005E0B695A795979587950A95D1F701E0E7
:104DD0008027682F617084E00E94BF061C9B13C06F
:104DE00068EC70E080E090E00E945002F7CF8FEF17
:104DF0008AB90BB92B9A81E090E00E94200288E0EA
:104E00000E94BA06BFCF0E94440B58CE8091FF0388
:104E100090910004A0910104B0910204AC01BD0185
:104E2000E6E07695679557954795EA95D1F74170F5
:104E30004983AC01BD01F5E0769567955795479597
:104E4000FA95D1F741704A8387FF07C042E0BE015F
:104E50006F5F7F4F85E50E94C7068091FF0387FF44
:104E600010C08091F5039091F6032091F7032983F8
:104E70009A838B8343E0BE016F5F7F4F86E50E947C
:104E8000C7064090FF0350900004609001047090AA
:104E90000204D301C20145E0B695A7959795879581
:104EA0004A95D1F7282F21704091F5035091F603D0
:104EB0006091F7037091F80388EE93E00E94E30499
:104EC0006B017C01C701AA27BB278AA39BA3ACA3C4
:104ED000BDA38D2C9E2CAF2CBB2447FE0AC089831A
:104EE0008A82CB8243E0BE016F5F7F4F87E50E94DD
:104EF000C70699245601BB244AA15BA141775527D7
:104F00002091F0038EE890E0203210F48EE891E0DA
:104F1000009102011091030108231923042B152B82
:104F20002C3109F400611127C8010E94FE0B782E74
:104F300048E0B40186EA91E00E94F10F48E0B50133
:104F40008AEA91E00E94F10F48E0B80181EC91E01B
:104F50000E94F10F672D70E048E083EB91E00E9422
:104F6000F10F40E070E060E081E00E94C7060E941F
:104F70002D0BB701A60188EE93E00E94740C80917E
:104F8000FF0390910004A0910104B091020426E077
:104F9000B695A795979587952A95D1F7E1E08E2745
:104FA000682F617080E20E94BF068091FF0390919C
:104FB0000004A0910104B091020435E0B695A795D4
:104FC000979587953A95D1F7F1E08F27682F617013
:104FD00084E00E94BF061C9B16CF68EC70E080E066
:104FE00090E00E945002F7CF8091DA019091D201B7
:104FF0002091D3013091D4014091D50149833A8366
:105000002B839C839091D6012091D7013091D801B8
:105010004091D9014D833E832F839887898749E04A
:10502000BE016F5F7F4F85E057CD8BEA0E94B50CC4
:1050300045CD40E070E060E083EA0C940A20EAE3AA
:10504000F6E01382128288EE93E0A0E0B0E0848361
:105050009583A683B7838AE791E09183808385EC6B
:1050600090E09587848784EC90E09787868780EC32
:1050700090E0918B808B81EC90E0938B828B82EC23
:1050800090E0958B848B86EC90E0978B868B118ECD
:10509000128E138E148E0895FC0105900020E9F7FE
:1050A000809590958E0F9F1F0895FB01DC01415064
:1050B000504030F08D910590801919F40020B9F717
:1050C000881B990B0895F999FECF92BD81BDF89A7E
:1050D000992780B50895262FF999FECF1FBA92BD62
:1050E00081BD20BD0FB6F894FA9AF99A0FBE0196C9
:1050F00008950E948428A59F900DB49F900DA49FB1
:10510000800D911D11240895A29FB001B39FC0018D
:10511000A39F700D811D1124911DB29F700D811DE3
:105120001124911D0895AA1BBB1B51E107C0AA1FA2
:10513000BB1FA617B70710F0A61BB70B881F991F38
:105140005A95A9F780959095BC01CD010895A1E2EB
:105150001A2EAA1BBB1BFD010DC0AA1FBB1FEE1FF1
:10516000FF1FA217B307E407F50720F0A21BB30B3C
:10517000E40BF50B661F771F881F991F1A9469F7B8
:1051800060957095809590959B01AC01BD01CF0114
:105190000895052E97FB1EF400940E94E02857FD09
:1051A00007D00E94A72807FC03D04EF40C94E028F7
:1051B00050954095309521953F4F4F4F5F4F089543
:1051C00090958095709561957F4F8F4F9F4F089573
:1051D000EE0FFF1F0590F491E02D0994DF93CF931C
:1051E0001F930F939A9DF02D219FF00D8B9DF00D35
:1051F0008A9DE02DF10D039FF00D029FE00DF11D42
:105200004E9DE00DF11D5E9DF00D4F9DF00D7F93C5
:105210006F93BF92AF925F934F93D5010E94842802
:105220008B01AC01D7010E948428EB01E80FF91F24
:10523000D6010E943D292F913F91D6010E948428DA
:10524000C60FD71FE81FF91FAF91BF910E943D29DC
:105250002F913F910E948428C60FD71FE81FF91F86
:10526000D6010E948428E60FF71F9801BE01CF01E6
:105270000F911F91CF91DF9108950E948428460FCE
:10528000571FC81FD91F08F431960895E894DF937B
:10529000CF93FC01DB010E9484287F936F93E90187
:1052A0009A01AC01BF93AF933F932F93DF010E940C
:1052B000842826F46C1B7D0B820B930B9E01EB0163
:1052C000FC010E943D29AF91BF912F913F910E9417
:1052D0003D29BE01CF01F9012F913F91CF91DF917F
:1052E0000895689401C0E8948F929F92CF93DF93C2
:1052F0000E947F29DF91CF919F908F9008958824FD
:105300009924F401E401B0E49F93AA279A158B0431
:105310009C04ED05FE05CF05D007A10798F4AD2F3D
:10532000DC2FCF2FFE2FE92D982C892E982F872F39
:10533000762F652F542F432F322F2227B85031F765
:10534000BF9127C01B2EBF91BB27220F331F441FC5
:10535000551F661F771F881F991F881C991CEE1FF9
:10536000FF1FCC1FDD1FAA1FBB1F8A149B04EC0567
:10537000FD05CE05DF05A007B10748F08A189B0898
:10538000EC09FD09CE09DF09A00BB10B21601A94CD
:10539000E1F62EF49401AF01BE01CD01000C089599
:1053A00097FD1094002E083098F00850232F342FCA
:1053B000452F562F672F782F892F912DF4CF1594D5
:1053C000979587957795679557954795379527953D
:1053D0000A95AAF71124002D08952A0D3B1D4C1D96
:1053E0005D1D6E1D7F1D801F911F08950F931F93DC
:1053F000CF93DF938230910510F482E090E0E0914A
:10540000D906F091DA0630E020E0B0E0A0E0309775
:1054100099F42115310509F44AC0281B390B2430B1
:105420003105D8F58A819B816115710589F1FB01F0
:1054300093838283FE0111C04081518102811381D7
:1054400048175907E0F04817590799F4109761F089
:1054500012960C93129713961C933296CF01DF91FC
:10546000CF911F910F9108950093D9061093DA06FA
:10547000F4CF2115310551F04217530738F0A90137
:10548000DB019A01BD01DF01F801C1CFEF01F9CFC6
:105490009093DA068093D906CDCFFE01E20FF31F79
:1054A000819391932250310939832883D7CF20915A
:1054B000D7063091D806232B41F420910901309171
:1054C0000A013093D8062093D70620910701309126
:1054D00008012115310541F42DB73EB740910B016C
:1054E00050910C01241B350BE091D706F091D806A2
:1054F000E217F307A0F42E1B3F0B2817390778F0AB
:10550000AC014E5F5F4F2417350748F04E0F5F1F09
:105510005093D8064093D706819391939FCFF0E0A4
:10552000E0E09CCFCF93DF930097E9F0FC01329746
:1055300013821282A091D906B091DA06ED0130E013
:1055400020E01097A1F420813181820F931F2091D8
:10555000D7063091D8062817390709F061C0F093B3
:10556000D806E093D706DF91CF910895EA01CE17D0
:10557000DF07E8F54A815B819E0141155105B1F7CE
:10558000E901FB83EA8349915991C40FD51FEC17B8
:10559000FD0761F4808191810296840F951FE901D6
:1055A00099838883828193819B838A83F0E0E0E002
:1055B00012968D919C9113970097B9F52D913C917E
:1055C0001197CD010296820F931F2091D70630913B
:1055D000D8062817390739F6309751F51092DA06B0
:1055E0001092D906B093D806A093D706BCCFD38328
:1055F000C28340815181840F951FC817D90761F478
:105600004E5F5F4F88819981480F591F51834083B6
:105610008A819B81938382832115310509F0B0CF64
:10562000F093DA06E093D9069ECFFD01DC01C0CFEE
:1056300013821282D7CFFB01DC0102C001900D92D0
:1056400041505040D8F70895DC0101C06D9341509E
:105650005040E0F70895FB01DC018D910190801925
:105660000110D9F3990B0895FB01DC0101900D9213
:0A5670000020E1F70895F894FFCF41
:10567A0001FFFF00FFFF010000DB06800055550017
:10568A0000AAAA2A00005555550000805555000069
:10569A00AAAA2A000055555500002055550000AA0F
:1056AA00AA2A00005555550000A055550000AAAA7F
:1056BA002A000055555500008055550000AAAA2A0F
:1056CA00000055555500001055550000AAAA2A0099
:1056DA00005555550000F055550000AAAA2A0000A9
:1056EA005555550000900000000071038E02BB0260
:1056FA00BE033903CA022B037C4438005645523094
:10570A003600332E302E3062343A756E6F333238AB
:10571A007062000D0A004D5342004C53420043543C
:10572A00524C004354524C2072656D61707065642E
:0A573A0000544F50206164647200B7
:00000001FF
