:100000000C94D2010C94FA010C94FA010C94FA01AC
:100010000C94FA010C94FA010C94FA010C94FA0174
:100020000C94FA010C94FA010C949C1F0C94192066
:100030000C94FA010C94FA010C94FA010C94FA0154
:100040000C94FA010C94FA010C94FA010C94FA0144
:100050000C94FA010C94FA010C94FA010C94521FBE
:100060000C94FA010C94FA010C94FA010C94FA0124
:100070000C94FA010C94FA010C94FA010C94FA0114
:100080000C94FA010C94FA010C94FA010C94FA0104
:100090000C94FA010C94FA010C94FA010C94FA01F4
:1000A0000C94FA010C94FA010C94FA01616C676FDC
:1000B000726974686D0074797065007670705F6D38
:1000C000760070756C73652D64656C61790070697C
:1000D0006E2D636F756E7400636869702D696400BE
:1000E000666C6167730061646472657373006D654B
:1000F0006D6F72792D73697A650000070E091C1BFC
:100100001215383F363124232A2D70777E796C6B97
:100110006265484F464154535A5DE0E7EEE9FCFB07
:10012000F2F5D8DFD6D1C4C3CACD90979E998C8BF7
:100130008285A8AFA6A1B4B3BABDC7C0C9CEDBDC67
:10014000D5D2FFF8F1F6E3E4EDEAB7B0B9BEABAC57
:10015000A5A28F88818693949D9A2720292E3B3CC7
:1001600035321F18111603040D0A5750595E4B4CB7
:1001700045426F68616673747D7A898E8780959237
:100180009B9CB1B6BFB8ADAAA3A4F9FEF7F0E5E217
:10019000EBECC1C6CFC8DDDAD3D4696E6760757287
:1001A0007B7C51565F584D4A4344191E1710050277
:1001B0000B0C21262F283D3A33344E4940475255E7
:1001C0005C5B7671787F6A6D64633E3930372225D7
:1001D0002C2B0601080F1A1D1413AEA9A0A7B2B547
:1001E000BCBB9691989F8A8D8483DED9D0D7C2C537
:1001F000CCCBE6E1E8EFFAFDF4F3AA55AA55666C1C
:10020000616773006D656D6F72792D73697A650032
:100210006164647265737300636869702D6964005A
:1002200070696E2D636F756E7400747970650070FF
:10023000756C73652D64656C6179007670705F6DA7
:100240007600616C676F726974686D00444F4E454B
:1002500000080B0002020200000904000001020273
:1002600000000524001001052401010104240206F8
:100270000524060001070581031000400904010060
:10028000020A000000070502024000000705830281
:100290004000000403090412010002EF0201404182
:1002A00023368000010102030141726475696E6F9B
:1002B000204C4C430041726475696E6F204C656F31
:1002C0006E6172646F007232007231007265760086
:1002D00072772D70696E007670702D70696E007384
:1002E00074617469632D6869676800627573006280
:1002F00075732D636F6E66696700EE00F81EE60089
:10030000CB1EE000251FD800A01ECE00761EC20026
:100310001F1EBB00F41DB6004C1EAC00C71D73743D
:1003200061746500636D64004F4B3A2046573A2074
:1003300000070605040100080A0B0C0D097374611F
:10034000746500636D640000000000250028002B28
:10035000002E00310000000000240027002A002D9C
:100360000030000404040404030405020202020431
:100370000302020202060606060606040402020240
:100380000404040802011040804010204080408096
:10039000080204018040201002011080102040401B
:1003A0002000F72B11241FBECFEFDAE0DEBFCDBF58
:1003B00026E0ACEDB1E001C01D92A73BB207E1F72A
:1003C00011E0A0E0B1E0EAEFFDE502C005900D927A
:1003D000AC3DB107D9F711E0C2EDD1E004C02197DF
:1003E000FE010E94A82CC13DD107C9F70E944B22F3
:1003F0000C94FB2E0C94000083E08093E900809124
:10040000F200882319F08AE38093E8000895CF93DF
:10041000DF9390E0FC01EE57FC4F24918D599C4FE7
:10042000FC0184918823C1F090E0880F991FFC01A2
:10043000EB5AFC4FC591D491FC01E95BFC4FA591AF
:10044000B4919FB7F8948881E22FE0958E2388833A
:100450008C91E823EC939FBFDF91CF910895FC012D
:1004600080916206882311F13FB7F89482E080936F
:10047000E9002091F200822F90E01816190614F47A
:1004800081E090E0882339F0289844E640936106A3
:100490004091F1004083222339F02091F200211194
:1004A00003C02BE62093E8003FBF08958FEF9FEF36
:1004B00008952FB7F89483E08093E9009091E800C5
:1004C000892F807295FF04C09091F20080E4891B0F
:1004D0002FBF08958091070281110DC082E08093A3
:1004E000030284E080930402109206021092050237
:1004F00081E08093070283E092E008958251E82F23
:10050000F0E0EF5CFC4FE49190917B008E2F880F20
:10051000880F80729F7D892B80937B0080911101D1
:1005200020E4829FC0011124E770E82BE0937C0057
:1005300080917A00806480937A0080917A0086FDB1
:10054000FCCF809178009091790008953FB7F8949E
:100550008091FF0190910002A0910102B0910202EE
:1005600026B5A89B05C02F3F19F00196A11DB11D0E
:100570003FBFBA2FA92F982F8827BC01CD01620F4A
:10058000711D811D911D42E0660F771F881F991F05
:100590004A95D1F708958F929F92AF92BF92CF92D2
:1005A000DF92EF92FF924B015C010E94A6026B0169
:1005B0007C010E94A6026C197D098E099F09683E84
:1005C000734081059105A8F321E0821A9108A108E2
:1005D000B10888EEC80E83E0D81EE11CF11C81141E
:1005E0009104A104B10429F7FF90EF90DF90CF9020
:1005F000BF90AF909F908F9008952FB7F89460911F
:10060000FB017091FC018091FD019091FE012FBFD3
:1006100008950C94FC014091E1015091E201209178
:10062000DF013091E00142175307B4F49091E800E4
:100630009570E1F39091E80092FD19C08093F1006C
:100640008091E1019091E20101968F739927892BA6
:1006500019F48EEF8093E8008091E1019091E2011E
:1006600001969093E2018093E10181E0089580E09A
:100670000895EF92FF920F931F93CF93DF93F82E7D
:10068000192FE62E042F81E0860F880F0E940B039E
:1006900083E00E940B03CF2DD12FEC0EFD2EF11C19
:1006A000CE15DF05B9F007FF13C0FE0184910E944B
:1006B0000B03182F80E00E940B03812321968111E8
:1006C000EFCFDF91CF911F910F91FF90EF900895A1
:1006D0008881EDCF81E0F5CFDF92EF92FF920F930B
:1006E0001F93CF93DF93D82E8A01EB017B01E40E99
:1006F000F51ECE15DF0559F0D7FE12C0FE0184911C
:100700000E940B0321968111F4CF0FEF1FEFC80158
:10071000DF91CF911F910F91FF90EF90DF9008959F
:100720008881EECF0F931F93CF93DF931F92CDB7A6
:10073000DEB782E0898342E450E061E572E080E860
:100740000E946C030E946A02DC0112960D911C91BA
:100750000115110589F0D801ED91FC910280F3811A
:10076000E02DBE016F5F7F4FC801099597FD04C062
:10077000F80100851185ECCF89810F90DF91CF9131
:100780001F910F910895615030F02091F100FC010C
:1007900020830196F8CF289884E680936106089517
:1007A0008F929F92AF92BF92CF92DF92EF92FF9281
:1007B0000F931F93CF93DF936C017B018A0180918C
:1007C0000B01882309F45CC080916206882309F438
:1007D00057C08091E50180FF05C08091E0008260F4
:1007E0008093E000E801B12C8AEFA82E93E0892ED7
:1007F0002AE3922E209711F4BB20D9F10E945902CE
:1008000081110AC0AA94AA20D9F161E070E080E0C9
:1008100090E00E94CB02EECF8C171D0611F00CF079
:100820008C2F9FB7F8948092E9002091E80025FD75
:1008300002C09FBFDFCF282F30E0C21BD30BF701D0
:10084000815020F041914093F100FACFE20EF31E67
:10085000BB2021F09092E800B12CEBCF8091E80012
:1008600085FDE7CF9092E800BB24B394209709F36D
:10087000F3CF5D9884E68093E401101611063CF0F6
:1008800081E090E0F6019383828310E000E0C801EC
:10089000DF91CF911F910F91FF90EF90DF90CF905C
:1008A000BF90AF909F908F900895CF93DF931F924A
:1008B000CDB7DEB76983DC01ED91FC910280F38155
:1008C000E02D41E050E0BE016F5F7F4F09950F9032
:1008D000DF91CF9108950E94590290E00895CF933F
:1008E000DF931F92CDB7DEB7FC018485958597FD18
:1008F00008C02FEF3FEF358724870F90DF91CF910E
:100900000895CE0101960E942F02019719F4898162
:1009100090E0F3CF8FEF9FEFF0CF8F929F92AF9247
:10092000BF92EF92FF920F931F93CF93DF937B01C0
:100930008C01D0E0C0E00E94FD0260936B067093D2
:100940006C0680936D0690936E0683E696E00E9497
:100950006F0497FF27C00E94FD0280906B06909065
:100960006C06A0906D06B0906E06681979098A0928
:100970009B098090670690906806A0906906B090E9
:100980006A06681579058A059B05F8F2CE01DF91A4
:10099000CF911F910F91FF90EF90BF90AF909F90DC
:1009A0008F900895F80181938F012196EC16FD0632
:1009B00011F6ECCF0F931F93CF93DF931F92CDB718
:1009C000DEB78C01FC018485958597FF0BC0CE01B5
:1009D00001960E942F02019771F4898190E0F8013D
:1009E00095878487F801848595850F90DF91CF9155
:1009F0001F910F9108958FEF9FEFF1CFFC01848538
:100A0000958597FD0BC09FB7F89482E08093E9002D
:100A10008091F2009FBF90E0019608959FB7F894EF
:100A200082E08093E9008091F2009FBF90E00895FA
:100A30008F929F92AF92BF92CF92DF92EF92FF92EE
:100A40000F931F93CF93DF93EC018C01035E1F4F35
:100A5000812C912C54016C0183EEC81A8DEFD80AB9
:100A60007E01A8EBEA1AADEFFA0AF60180819181C6
:100A7000A281B38188169906AA06BB06B0F4D801F4
:100A80002D918D014D855E856F857889480D591DA5
:100A90006A1D7B1DD701ED91FC91CE010995BFEF39
:100AA0008B1A9B0AAB0ABB0AE0CFDF91CF911F9153
:100AB0000F91FF90EF90DF90CF90BF90AF909F90FD
:100AC0008F9008958F929F92AF92BF92CF92DF92B4
:100AD000EF92FF920F931F93CF93DF93EC018985E1
:100AE0009A85AB85BC854D855E856F857889841B2D
:100AF000950BA60BB70B813022E09207A105B1053B
:100B000020F080E092E0A0E0B0E08C017E018DE179
:100B1000E80EF11C812C912C54016E01A6EBCA1A2F
:100B2000ADEFDA0A80169106B4F44D855E856F85C7
:100B30007889480D591D6A1D7B1DD601ED91FC91E8
:100B4000CE010995F70181937F01FFEF8F1A9F0A6C
:100B5000AF0ABF0AE7CFC35EDD4F012E000C220BA8
:100B6000330B088319832A833B83DF91CF911F9135
:100B70000F91FF90EF90DF90CF90BF90AF909F903C
:100B80008F90089580910D0190910E016823792333
:100B900081E0672B09F480E00895CF93DF93EC01A7
:100BA000FC01E85BFD4F0190F081E02D2FEF40E06C
:100BB00050E0BA010995FE01E25BFD4F0190F08122
:100BC000E02D40E068E870E0CE01DF91CF9109941C
:100BD000FC012085203241F4E55CFD4F81E09081ED
:100BE000953151F080E008C02C3139F4E55CFD4FBF
:100BF00081E090819F30B1F70895283199F7E55C45
:100C0000FD4F81E090819B3069F7F6CF2F923F92A4
:100C10004F925F926F927F928F929F92AF92BF920C
:100C2000CF92DF92EF92FF921F93CF93DF93CDB7D6
:100C3000DEB7A7970FB6F894DEBF0FBECDBFFC019D
:100C4000EF5DFD4F3FE1DE01119601900D923A9567
:100C5000E1F7FC01E65CFD4F308131961081319661
:100C6000408051806280738048A259A26AA27BA210
:100C70003797C080D180E280F380C422D522E6225B
:100C8000F722E981EF3F09F43FC0FC01E75CFD4F2B
:100C9000E0812E2E312CE1E0F0E0EC0FFD1FE20DA3
:100CA000F31DA4E12A1631047CF5A191AF3F61F157
:100CB000812C912C5401839404C0880C991CAA1C8B
:100CC000BB1CAA95D2F72A013B01022C04C07694E2
:100CD0006794579447940A94D2F74CA25DA26EA2EF
:100CE0007FA240FC0CC080949094A094B094C82043
:100CF000D920EA20FB20AFEF2A1A3A0AD2CFC8281F
:100D0000D928EA28FB28F7CF3F3F79F0422F50E05F
:100D100070E060E004C0440F551F661F771F3A95CE
:100D2000D2F7C42AD52AE62AF72A1F3F99F00E9453
:100D3000E80581110FC081E090E0A0E0B0E004C0C0
:100D4000880F991FAA1FBB1F1A95D2F7C82AD92A44
:100D5000EA2AFB2A68A179A18AA19BA16C297D2995
:100D60008E299F29A7960FB6F894DEBF0FBECDBF80
:100D7000DF91CF911F91FF90EF90DF90CF90BF90C8
:100D8000AF909F908F907F906F905F904F903F902B
:100D90002F900895FC012081233091F02430A9F098
:100DA000223069F4EE5BFD4F29E136E13183208387
:100DB0008C5B9D4F25E139E0FC0131832083089550
:100DC0008C5B9D4F2BEC3EE0F7CF8C5B9D4F29E376
:100DD00035E1F2CFFC01EE5BFD4F20E034E13183E1
:100DE0002083DC012C912330A9F018F4223031F05B
:100DF00008952430B9F02530D1F008952EE336E17E
:100E0000318320838C5B9D4F28E634E1FC013183E4
:100E1000208308958C5B9D4F28E034E1DC012D9305
:100E20003C9308958C5B9D4F29E335E1EFCF118210
:100E300010828C5B9D4F20EA33E1F0CFFF920F933D
:100E40001F93CF93DF938C01EB01F42E62FF07C059
:100E5000C8010E94E805882311F0CB7FC860E091AB
:100E6000DD01F091DE014F2DBE01C801DF91CF9170
:100E70001F910F91FF900994FC01DC01AE5BBD4F07
:100E80008BEA90E111969C938E938081833009F4D4
:100E900041C058F58230A1F1DF01A25BBD4F8D91B9
:100EA0009C9111979093DE018093DD018EE197E094
:100EB0008D939C9383899489A589B689892B8A2BE4
:100EC0008B2B09F043C084819581A681B78188303E
:100ED0009105A105B10591F10B97A105B105B9F1F6
:100EE00088EE93E0A0E0B0E02DC0843021F18530A1
:100EF00099F684EC90E18D939C938FE99BE006C07A
:100F00008AE897E18D939C9381E898E1DF01AC5BDF
:100F1000BD4F0EC088E99FE0DF01AC5BBD4F11966D
:100F20009C938E93878983FDB7CF89E395E11296D1
:100F30008D939C93B1CF89E395E1E8CF84E690E06F
:100F4000A0E0B0E0838B948BA58BB68B089584EFE3
:100F500091E0A0E0B0E0F6CFCF93DF93EC0120E08A
:100F600030E0A901E99180ED8E0F8A3028F0CA01A6
:100F7000B901DF91CF910895AAE0B0E00E94392C29
:100F80002E2FEE0F330B20533109032E000C440B90
:100F9000550B260F371F481F591FE4CF0E94FD0233
:100FA00068517C4F8F4F9F4F6093F6017093F7010C
:100FB0008093F8019093F9010895CF92DF92EF9218
:100FC000FF920F931F93CF93DF93009709F447C0CD
:100FD000EB01FC01CB0109958A81813008F442C004
:100FE000833070F18330F1F5FE01E35EFD4FC08088
:100FF0000C2D11817E018DE1E80EF11CF701D12C41
:10100000CF018E199F098017910718F48191D82676
:10101000F7CF612F83E696E00E9455046C2D83E69E
:1010200096E00E9455046D2D83E696E00E945504DB
:10103000A801B70183E696E00E94D0030E94FC015C
:101040000E94CE0781E08A8390E080E0DF91CF911B
:101050001F910F91FF90EF90DF90CF90089581E066
:1010600090E0F4CF8FEF9FEFF1CFDF92EF92FF92FE
:101070000F931F93CF93DF93C82FD62ED72F142F04
:10108000EAEFF1E0649183E696E00E945504EBEF0D
:10109000F1E0649183E696E00E945504ECEFF1E004
:1010A000649183E696E00E945504EDEFF1E06491CF
:1010B00083E696E00E945504E12EF12CC7010296CA
:1010C000692F83E696E00E94550462E0610F83E693
:1010D00096E00E9455046C2F83E696E00E9455042A
:1010E000EC2FF0E0E650FF4FC4910D2D1D2FE00EC8
:1010F000F11E0E151F0579F0F801D1918F016D2FAA
:1011000083E696E00E945504EC2FED27F0E0E650D0
:10111000FF4FC491EECF6C2F83E696E00E945504FA
:101120006AE083E696E00E945504DF91CF911F911B
:101130000F91FF90EF90DF900C94FC014F925F9223
:101140006F927F92AF92BF92CF92DF92EF92FF9217
:101150000F931F93CF93DF9300D000D01F92CDB792
:10116000DEB78C017C018DE1E80EF11C412C512C85
:1011700032016801A3EECA1AADEFDA0A5801B6EBE4
:10118000AB1ABDEFBB0AF60180819181A281B381C8
:10119000481659066A067B0670F5D8011D964D91D2
:1011A0005D916D917C915097440D551D661D771D85
:1011B000D501ED91FC91C8010995F70191917F014D
:1011C000891769F1D8011D964D915D916D917C91C2
:1011D0005097440E551E661E771E99838A836B8234
:1011E0005C824D8245E0BE016F5F7F4F8FEA0E94B7
:1011F0003508F80112820F900F900F900F900F900A
:10120000DF91CF911F910F91FF90EF90DF90CF90E2
:10121000BF90AF907F906F905F904F900895FFEFD9
:101220004F1A5F0A6F0A7F0AAECF3F924F925F92CA
:101230006F927F928F929F92AF92BF92CF92DF92E6
:10124000EF92FF920F931F93CF93DF93CDB7DEB74B
:101250002B970FB6F894DEBF0FBECDBF8C014C01AB
:101260008DE1880E911C412C512C3201D801A35ED6
:10127000BD4FBF83AE83F801E85BFD4FF987E88778
:10128000C801865B9D4F9B878A87EE81FF818081A5
:101290009181A281B381481659066A067B0608F03F
:1012A00054C0D8011D96CD90DD90ED90FC905097E4
:1012B000C40CD51CE61CF71CF40131904F01A88525
:1012C000B985ED91FC91232DB701A601C8010995BF
:1012D000EE81FF8180819181A281B3810197A10973
:1012E000B109B701A6014F735527662777274F33FA
:1012F00051056105710531F084159505A605B70501
:1013000009F03BC0A12C84E0B82E83E290E0019765
:10131000F1F7AA85BB85ED91FC91B701A601C80143
:101320000995381651F1B1E0AB1AB10871F739825D
:10133000EA82DB82CC828D8345E0BE016F5F7F4F06
:1013400083EB0E943508F80112822B960FB6F894B1
:10135000DEBF0FBECDBFDF91CF911F910F91FF90E8
:10136000EF90DF90CF90BF90AF909F908F907F9045
:101370006F905F904F903F900895FFEF4F1A5F0A74
:101380006F0A7F0A82CFAF92BF92CF92DF92EF9225
:10139000FF920F931F93CF93DF9300D000D0CDB770
:1013A000DEB78C016C0188EBC81A8DEFD80AD60124
:1013B000ED91FC9120E940E050E0BA01C8010995A7
:1013C0005801B6EBAB1ABDEFBB0AD501ED91FC910C
:1013D00040E050E0BA01C8010995E82EF12CFE2C3E
:1013E000EE24D501ED91FC9141E050E060E070E029
:1013F000C8010995E82AD601ED91FC912FEF40E054
:1014000050E0BA01C8010995F801838D948D8E15BD
:101410009F0591F0F982EA829B838C83878944E05F
:10142000BE016F5F7F4F80FF16C083E80E943508C2
:1014300082E0D80112968C930F900F900F900F902E
:10144000DF91CF911F910F91FF90EF90DF90CF90A0
:10145000BF90AF90089589EB0E943508F801128281
:10146000EBCFCF92DF92EF92FF920F931F93CF9328
:10147000DF93EC018B010E94FD026B017C01C00E29
:10148000D11EE11CF11C8E01065B1D4F0E94FD0266
:101490006C157D058E059F0580F5D801ED91FC91B9
:1014A00040E050E0BA01CE01099587FFEFCF84FFFD
:1014B0001DC040E070E060E084EB0E9435081A82B5
:1014C000FE01E85BFD4F0190F081E02D2FEF40E041
:1014D00050E0BA01CE01099580E0DF91CF911F91D4
:1014E0000F91FF90EF90DF90CF90089583FF0AC097
:1014F00040E070E060E085EBE0CF40E070E060E06D
:1015000086EBDBCF81E0E9CF3F924F925F926F9203
:101510007F928F929F92AF92BF92CF92DF92EF9283
:10152000FF920F931F93CF93DF93EC018C01035E27
:101530001F4FC12CD12C76014C0183EE881A8DEF00
:10154000980A5E01A8EBAA1AADEFBA0AF4018081ED
:101550009181A281B381C816D906EA06FB0640F53F
:101560004D845E846F8478884C0C5D1C6E1C7F1CDF
:10157000D8013D908D01D501ED91FC9120E4B3019E
:10158000A201CE010995D501ED91FC91232DB30166
:10159000A201CE01099566E970E0CE010E94310AF0
:1015A000882331F0BFEFCB1ADB0AEB0AFB0ACECF60
:1015B000DF91CF911F910F91FF90EF90DF90CF902F
:1015C000BF90AF909F908F907F906F905F904F9063
:1015D0003F9008950F931F93CF93DF93EC01FC018D
:1015E000E25BFD4F0190F081E02D41E068E870E0A2
:1015F000099564EF71E080E090E00E94CB028E01DB
:10160000085B1D4FD801ED91FC9120E240E050E0D5
:10161000BA01CE010995D801ED91FC9120ED40E091
:1016200050E0BA01CE01099568E97AE3CE01DF9175
:10163000CF911F910F910C94310A9F92AF92BF925C
:10164000CF92DF92EF92FF920F931F93CF93DF938E
:1016500000D000D0CDB7DEB78C01962E6C0182EBA6
:10166000C81A8DEFD80AD601ED91FC9141E060E8EF
:1016700070E0C801099562E370E080E090E00E94AC
:10168000CB02D601ED91FC9141E062E070E0C8012F
:10169000099564E670E080E090E00E94CB0258017A
:1016A000B6EBAB1ABDEFBB0AD501ED91FC9140E062
:1016B00050E0BA01C8010995E82EF12CFE2CEE2469
:1016C000D501ED91FC9141E050E060E070E0C8018F
:1016D0000995E82AD601ED91FC9140E062E870E0BE
:1016E000C8010995F801838D948D8E159F0589F0A9
:1016F000F982EA829B838C83F2E044E0BE016F5F53
:101700007F4F9F1216C083E80E943508D8011296B9
:101710009C920F900F900F900F90DF91CF911F919F
:101720000F91FF90EF90DF90CF90BF90AF909F9080
:10173000089589EB0E943508F8011282EACF60E033
:101740000C941D0B5F926F927F928F929F92AF923B
:10175000BF92CF92DF92EF92FF920F931F93CF939E
:10176000DF9300D000D01F92CDB7DEB78C01C42E1E
:10177000752E662E572ED22E80EDE82E87E0F82E9D
:1017800093E2A92EB12C480186EB881A8DEF980AB6
:10179000C5010197F1F7D401ED91FC914C2D572D26
:1017A000662D752DC80109958D1541F1B1E0EB1A33
:1017B000F10871F769827A82CB82DC828D8345E001
:1017C000BE016F5F7F4F82EB0E943508F8011282E5
:1017D00080E00F900F900F900F900F90DF91CF91BE
:1017E0001F910F91FF90EF90DF90CF90BF90AF903F
:1017F0009F908F907F906F905F90089581E0E9CFE8
:101800002F923F925F926F927F928F929F92AF92B0
:10181000BF92CF92DF92EF92FF920F931F93CF93DD
:10182000DF93EC013C018DE1680E711C812C912C41
:1018300054018E01035E1D4F1E01A8EB2A1AADEF65
:101840003A0AF80180819181A281B38188169906B4
:10185000AA06BB06D8F5CD84DE84EF84F888C80CD0
:10186000D91CEA1CFB1CD3015D903D01D101ED9117
:10187000FC91252DB701A601CE010995D701C6011E
:101880000196A11DB11D8F739927AA27BB27892B0C
:101890008A2B8B2B99F0F80180819181A281B381F1
:1018A0000197A109B10988159905AA05BB0531F071
:1018B000FFEF8F1A9F0AAF0ABF0AC3CF252DB701CA
:1018C000A601CE010E94A20B8111F2CFDF91CF9130
:1018D0001F910F91FF90EF90DF90CF90BF90AF904E
:1018E0009F908F907F906F905F903F902F90089582
:1018F000CF93DF93EC018F8987FF06C040E070E053
:1019000060E081E40E9435089981892F8F738F5F91
:10191000907C892B898340E070E060E080E2DF9179
:10192000CF910C943508CF93DF93EC01FC01EC5B75
:10193000FD4FBC01808191810E94DD07019641F03D
:10194000898186FD03C0CE010E94780C81E001C030
:1019500080E0DF91CF910895CF93DF931F92CDB7B1
:10196000DEB7698341E0BE016F5F7F4F0E9435089B
:101970000F90DF91CF91089583E696E00C946F0469
:1019800083E696E00C94FE048EE580937C0062E092
:1019900070E080E090E00E94CB0280917A00806449
:1019A00080937A0080917A0086FDFCCF20917800A8
:1019B0006091790070E0762F6627072E000C880B67
:1019C000990B622B08952F923F924F925F926F92E4
:1019D0007F928F929F92AF92BF92CF92DF92EF92BF
:1019E000FF920F931F93CF93DF93CDB7DEB72F975F
:1019F0000FB6F894DEBF0FBECDBFA090ED01B09042
:101A0000EE01C090EF01D090F001A986BA86CB8696
:101A1000DC86C090F101D090F201E090F301F090EB
:101A2000F401C982DA82EB82FC8281E080931101A9
:101A300084E10E947E029E878D870E94C40C6115FE
:101A400071058105910509F494C0CD28CE28CF28D1
:101A500009F48FC02B013C01770C4408542C32014F
:101A6000A980BA80CB80DC80E12CF12C00E010E072
:101A70009B01AC01642D742D842D942D0E94AE2CFD
:101A8000722E632E542E452E962E872E382E292EFA
:101A900069857A858B859C85C980DA80EB80FC809E
:101AA0006C0D7D1D8E1D9F1D2CE434E040E050E048
:101AB0000E94062DED84FE840F2C000C000B110BF0
:101AC000670156016801E12CF12C8701A982BA82D5
:101AD000CB82DC82ED82FE820F831887E12CF12C11
:101AE00000E010E00E94AE2C298339874F875D8784
:101AF000B62FA72FF82FE92F272D362D452D542D42
:101B0000692D782D832D922D01E00E94922D59018F
:101B10006A017B018C01298139854F855D856B2F99
:101B20007A2F8F2F9E2F0E94AD2DA72CB62CC52C5F
:101B3000D42CE92CF82C032D122D0E94332DC90131
:101B40002F960FB6F894DEBF0FBECDBFDF91CF91B9
:101B50001F910F91FF90EF90DF90CF90BF90AF90CB
:101B60009F908F907F906F905F904F903F902F90BD
:101B7000089580E090E0E4CF8AB180768AB93E98FB
:101B80006E9808958AB18F698AB93E9A6E9A0895BF
:101B900069B196B18CB1462F50E09A0135952795E1
:101BA000359527952370FA01EE0FFF1FE4702E2B59
:101BB0006071262BBA01B3E0660F771FBA95E1F783
:101BC0006870262B96959072292B559547954074F1
:101BD000242B880F8078822B0895CF93C82F0E94E2
:101BE000C20D2C2F30E0A90155954795C901880FEA
:101BF000991F9BB1C0719076C92BB901660F771FF1
:101C0000660F771F6C70C62B942F9270C92B23FB25
:101C1000222720F92C2B982F9078292B2BB998B1BB
:101C20009F7B8074982B98B98EB18F7B4074842BE6
:101C30008EB9CF9108959091DC016623C9F0892B6C
:101C40008093DC0194E0899F9001112495B19F70ED
:101C50008295807F892B85B99BB19F7B822F807471
:101C6000982B9BB988B18F772078822B88B90895FB
:101C700080958923E5CFCF92DF92EF92FF921F9359
:101C8000CF93DF93EC016A017B01122F61E084E0C6
:101C90000E941B0E20E0B701A601CE010E9406069D
:101CA000AB01BC01FE01E45BFD4F0190F081E02D32
:101CB000CE010995812F0E94ED0D87E090E00197FC
:101CC000F1F760E080E20E941B0E8B899C898230D4
:101CD000910538F0880F991F880F991F0597019774
:101CE000F1F761E080E2DF91CF911F91FF90EF90DB
:101CF000DF90CF900C941B0ECF92DF92EF92FF9269
:101D0000CF93DF93EC016A017B0160E084E00E94E5
:101D10001B0E21E0B701A601CE010E940606AB0111
:101D2000BC01FE01E45BFD4F0190F081E02DCE018E
:101D300009950E94BC0D60E080E20E941B0E87E0C6
:101D400090E00197F1F70E94C80DC82F61E080E292
:101D50000E941B0E8C2FDF91CF91FF90EF90DF90B0
:101D6000CF900895CF930E94BC0D60E080E20E9466
:101D70001B0E60E084E00E941B0E0E94C80DC82F5D
:101D800061E080E20E941B0E61E084E00E941B0E75
:101D90008C2FCF910895EF92FF920F931F93CF93C3
:101DA000DF93EC0121E040E050E0BA010E9406061A
:101DB000AB01BC017E0184EBE81A8DEFF80AD70174
:101DC000ED91FC91CE01099561E080E20E941B0E2D
:101DD0008E01025B1D4FD801ED91FC9140E064E85B
:101DE00071E0CE01099562E070E080E090E00E9431
:101DF000CB0260E080E20E941B0ED801ED91FC91C5
:101E000041E064E871E0CE01099562E070E080E0B5
:101E100090E00E94CB0220E040E050E0BA01CE0109
:101E20000E940606AB01BC01D701ED91FC91CE01E9
:101E3000099564E170E080E090E00E94CB0221E02F
:101E400040E050E0BA01CE010E940606AB01BC01A1
:101E5000D701ED91FC91CE01099562E070E080E040
:101E600090E00E94CB0261E080E20E941B0ED8014C
:101E7000ED91FC9140E064E871E0CE01DF91CF91FB
:101E80001F910F91FF90EF9009940F931F93CF93A1
:101E9000DF93EC0161E084E00E941B0E8E01025B87
:101EA0001D4FD801ED91FC9141E060E870E0CE015A
:101EB000099564E670E080E090E00E94CB02FE01AC
:101EC000E45BFD4F0190F081E02D40E050E0BA016D
:101ED000CE010995D801ED91FC9141E066E070E0FA
:101EE000CE01099564E670E080E090E00E94CB02AC
:101EF00060E080E20E941B0E8B899C8982309105F4
:101F000038F0880F991F880F991F05970197F1F7EF
:101F100061E080E20E941B0ED801ED91FC9140E04F
:101F200066E870E0CE01DF91CF911F910F91099487
:101F30000C94450F8091F5018F3F11F480910C01B5
:101F400008954F925F926F927F92AF92BF92CF921D
:101F5000DF92EF92FF920F931F93CF93DF93CDB752
:101F6000DEB728970FB6F894DEBF0FBECDBF8C0149
:101F70000E949A0F81111FC040E070E060E080E88D
:101F80000E94350882E0D80112968C9328960FB6ED
:101F9000F894DEBF0FBECDBFDF91CF911F910F919F
:101FA000FF90EF90DF90CF90BF90AF907F906F90B9
:101FB0005F904F9008955801B2EBAB1ABDEFBB0A8A
:101FC000F50120813181F80184819581A681B78155
:101FD00041E00B97A105B10529F0878960E871E020
:101FE00084FF02C060E870E0C801F901099564E669
:101FF00070E080E090E00E94CB020E94E30C6C0154
:102000002C01712C612CD8015196ED90FC90C701E8
:10201000B0E0A0E08C509E4FAF4FBF4F84159505A8
:10202000A605B70508F04DC0B2E3CB0ED11CE2E324
:10203000EE0EF11C198298EE692E93E0792EC601FE
:10204000B3010E94532C6A831B82E4E6F0E0C601D0
:10205000BF010E94532CCB012AE030E0B9010E945D
:10206000532C8C831D82C701B3010E94532C6E83B5
:102070001F82C701BF010E94532CCB01B9010E94EE
:10208000532C8887D80157968C9148E0BE016F5F2A
:102090007F4F80FF0FC082E80E94350882E0F80180
:1020A0008283D501ED91FC9140E060E871E0C801C8
:1020B00009956CCF88EB0E943508D80112961C92C6
:1020C000F0CF9701AFE5B0E00E94442C24E630E069
:1020D00040E050E00E94672C4216530664067506E5
:1020E00000F7B2E3CB0ED11CE2E3EE0EF11C198235
:1020F00088EE682E83E0782EC601B3010E94532C2F
:102100006A831B82E4E6F0E0C601BF010E94532C03
:10211000CB012AE030E0B9010E94532C8C831D8250
:10212000C701B3010E94532C6E831F82C701BF01F8
:102130000E94532CCB01B9010E94532C888748E0A0
:10214000BE016F5F7F4F81E80E94350882E0D801B1
:1021500012968C93A6CFCF93DF93EC010E94A10F30
:102160008A81882371F08B8D9C8D892B51F06F892A
:10217000788D660F771F6270CE01DF91CF910C943E
:102180001D0BDF91CF9108950C94A10FCF93DF9396
:10219000EC010E949A0F8230C0F08630D0F48D2F6F
:1021A00081709C2F9E7D892B9E01369527953695B3
:1021B00027952870822B25E0CC0FDD1F2A95E1F7AB
:1021C000C0728C2BDF91CF9108958D2F81708C2B55
:1021D000F9CF80E0F7CFBF92CF92DF92EF92FF92DC
:1021E0000F931F93CF93DF93CDB7DEB7C854D109B8
:1021F0000FB6F894DEBF0FBECDBF7B01B42EFC013D
:1022000001900020E9F731971E2F181B1F3008F0AE
:102210001EE01983C12ED12CA601BC01CE0102966D
:102220000E94DB2EE2E0F0E0EC0FFD1FEC0DFD1D47
:10223000E0828091260487FF08C042E0410FBE0182
:102240006F5F7F4F82E50E94350829E067EB71E000
:10225000B21202C06AE971E0FB0101900020E9F7C7
:1022600031978F01061B170B0983A8015527CE0153
:1022700002960E94DB2E8091260487FF08C041E071
:10228000400FBE016F5F7F4F83E50E94350889E0F4
:10229000DE011196B8120AC08CE7898380E28A8336
:1022A00080E3F0FC81E38B83DE011496FD0187E07F
:1022B00090E03CE740E230834183B701082E02C042
:1022C000769567950A94E2F720E360FD21E3228387
:1022D000019733968F3F980771F78CE758968C9348
:1022E000589759961C92BE016F5F7F4FFB0101907A
:1022F0000020E9F731971E2F161B103208F01FE15E
:1023000019A7412F50E0CE018A960E94DB2E8091C2
:10231000260487FF08C041E0410FBE01675D7F4F83
:1023200084E50E943508C85BDF4F0FB6F894DEBF26
:102330000FBECDBFDF91CF911F910F91FF90EF9016
:10234000DF90CF90BF900895CF93DF93C82FCB013C
:10235000C230F1F0C83019F1C130B9F42091100148
:10236000261799F060931001D0E00E94ED0D61E016
:102370008C2F0E941B0E60E08C2F0E941B0EDD2311
:1023800021F08BE090E00197F1F7DF91CF91089574
:1023900020910F012617C9F360930F01E5CF20911B
:1023A0000D0130910E012617370779F32870332776
:1023B000D1E0AB01487055274217530708F0D0E031
:1023C00090930E0180930D010E94C610CECF61E064
:1023D00080E20E941B0E70E060E088E00E94A41181
:1023E00070E060E081E00E94A41170E060E082E0B3
:1023F0000E94A41110920F040895CF92DF92EF92E1
:10240000FF92CF93DF93EC016A017B01642F70E0B0
:1024100081E00E94A4116D2D70E082E00E94A41161
:10242000A7014177552728858EE891E0203210F0EA
:102430008EE890E060910D0170910E016823792380
:10244000642B752B2C3109F4606188E0DF91CF910A
:10245000FF90EF90DF90CF900C94A411CF92DF9279
:10246000EF92FF920F931F93CF93DF93EC017C01C8
:102470008EEBE81A8DEFF80AF701118210828E01B7
:102480000C5B1D4FF801118210826E01FAEBCF1A1E
:10249000FDEFDF0AF601118210828881823009F493
:1024A00048C0863009F448C0813029F482E695E0BE
:1024B000F801918380838CE79EE0FE01E65BFD4F8F
:1024C000918380838BE39EE03297918380838DEFAD
:1024D00091E134969183808386E393E132969183F0
:1024E000808382EC95E032969183808340E050E0D7
:1024F000BA01CE010E94FD118C819D81AE81BF8108
:1025000080319105A105B105A9F58DEC95E0F601A5
:10251000918380838881833051F188F48230E1F0A7
:10252000DF91CF911F910F91FF90EF90DF90CF90AF
:10253000089588E195E0BCCF8EE998E0B9CF84306A
:1025400039F1853069F7F70111821082F6011182A5
:10255000108283EC99E007C081E796E1F70191834F
:10256000808384E89AE0F80191838083D9CF8AEE52
:102570009AE0F9CF8D309105A105B105A1F41B8A30
:102580001C8A1D8A1E8A8881823029F0843041F697
:1025900089E395E1E8CF82EB97E1F70191838083AE
:1025A00080E09CE0E0CF86309105A105B10559F4AB
:1025B000CE01DF91CF911F910F91FF90EF90DF90AF
:1025C000CF900C94EA0685309105A105B10551F034
:1025D00085339105A105B10529F089339105A10540
:1025E000B10559F4CE01DF91CF911F910F91FF906A
:1025F000EF90DF90CF900C94CA06AC01BD0147501C
:10260000510961097109423051056105710528F0D0
:102610008B309105A105B10559F4CE01DF91CF9121
:102620001F910F91FF90EF90DF90CF900C943C079B
:102630008E309105A105B10509F472CF8797A109E4
:10264000B1090397A105B10508F46ACF6B81613028
:1026500021F3643009F464CF633009F4A9CF653005
:1026600009F28EEA0E94AC0C1A825ACF80910D01B9
:1026700090910E01442329F0682B792B88E00C946B
:10268000A4116095709568237923F8CF7F928F927B
:102690009F92AF92BF92CF92DF92EF92FF920F93F1
:1026A0001F93CF93DF938C017B015A016C0182EB66
:1026B000C81A8DEFD80AD601ED91FC9140E060E494
:1026C00070E0C8010995E701F12CE12C7C8088803D
:1026D00099800E94C20D682D70E081E00E94A411D3
:1026E000692D70E082E00E94A411872D0E94ED0DFB
:1026F00061E084E00E941B0E60E080E20E941B0EFD
:1027000061E080E20E941B0EBFEFEB1AFB0A2596E8
:10271000AE14BF04D9F6D601ED91FC9140E060E41F
:1027200070E0C801DF91CF911F910F91FF90EF9062
:10273000DF90CF90BF90AF909F908F907F90099443
:10274000CF92DF92EF92FF920F931F93CF93DF937D
:1027500000D000D0CDB7DEB78C0143E050E062E797
:1027600071E00E944613680186EBC81A8DEFD80A03
:10277000D601ED91FC9140E050E0BA01C801099505
:10278000E82EF12CFE2CEE24D601ED91FC9141E0D7
:1027900050E060E070E0C8010995E82A43E050E0AD
:1027A00063E671E0C8010E944613F801838D948DA1
:1027B0008E159F0591F0F982EA829B838C8387892D
:1027C00044E0BE016F5F7F4F80FF14C083E80E942A
:1027D000350882E0D80112968C930F900F900F90DD
:1027E0000F90DF91CF911F910F91FF90EF90DF90AD
:1027F000CF90089589EB0E943508F8011282EDCF41
:10280000FC01238D348D232B11F00C94A01308951B
:10281000CF92DF92EF92FF920F931F93CF93DF93AC
:10282000CDB7DEB76E970FB6F894DEBF0FBECDBF43
:10283000FC01058516852785308946E050E065E472
:1028400071E0011511052105310589F145E555E5D1
:1028500060E070E049835A836B837C83FAEAFD83EE
:10286000EAEACE2EEAE2DE2EE12CF12CCE82DF82E5
:10287000E886F986E5E5EA874B875C876D877E8782
:10288000A0E8AF87488B598B6A8B7B8BFC8BCD8AFA
:10289000DE8AEF8AF88EE98F40E34E8F0A8F1B8F16
:1028A0002C8F3D8F46E050E0BE016F5F7F4F0E944E
:1028B00046136E960FB6F894DEBF0FBECDBFDF9104
:1028C000CF911F910F91FF90EF90DF90CF900895DF
:1028D0002F923F924F925F926F927F928F929F9230
:1028E000AF92BF92CF92DF92EF92FF920F931F931E
:1028F000CF93DF9300D01F92CDB7DEB79B838A833F
:102900008C01412C512C32011C0123EE221A2DEF97
:10291000320A4C0188EB881A8DEF980A580192EB25
:10292000A91A9DEFB90AF10180819181A281B38139
:10293000481659066A067B0608F067C043E050E077
:1029400066E371E08A819B810E944613AA81BB8164
:102950001D964D915D916D917C915097440D551D43
:10296000661D771DD401ED91FC91D8015D962C91E7
:102970008A819B810995F801F58DF983D501ED9147
:10298000FC9141E060E470E08A819B8109950E949E
:10299000FD026B017C01B6E9CB0ED11CE11CF11CE0
:1029A0000E94FD026C157D058E059F0518F50E949D
:1029B000B20EE9818E2787FDF3CF0E94B20EF98116
:1029C0008F2787FDEDCF0E94C20D61E080E20E945B
:1029D0001B0E61E084E00E941B0E0F5F1F4FEA8117
:1029E000FB818281882389F0FFEF4F1A5F0A6F0A0B
:1029F0007F0A99CF40E070E060E087EB0E943508E5
:102A0000AA81BB8112961C92E8CF0F900F900F9075
:102A1000DF91CF911F910F91FF90EF90DF90CF90BA
:102A2000BF90AF909F908F907F906F905F904F90EE
:102A30003F902F900895FF920F931F93CF93DF93B2
:102A40008C01C0E3D0E0F801F1908F01CE010E942B
:102A5000232CF81621F06F2DCE010E942B2C2196ED
:102A6000CF33D10581F7DF91CF911F910F91FF9067
:102A700008954F925F926F927F92AF92BF92CF92E2
:102A8000DF92EF92FF920F931F93CF93DF93CDB717
:102A9000DEB728970FB6F894DEBF0FBECDBF8C010E
:102AA000DC0111969C9111971D96CD90DD90ED90D3
:102AB000FC90509796FD51C0906411969C9384E0D1
:102AC00090E00E94B62DF801E05CFD4F9183808379
:102AD000FC01C082D182E282F382D8011D961D9250
:102AE0001D921D921C925097F801C584D684E784EC
:102AF000F08826013701F8E05F0E611C711C580157
:102B000086EBA81A8DEFB80AF80181859285A38516
:102B1000B485C414D504E604F70408F05FC0C816F1
:102B2000D906EA06FB0608F059C0D501ED91FC91E3
:102B3000B701A601C80109958F3F09F449C0E98290
:102B4000DA82CB828C8344E0BE016F5F7F4F80EBE3
:102B50000E943508F801128226C0F801418552858D
:102B600063857485C416D506E606F70608F4BCCF5F
:102B70007801F0ECEF1AFDEFFF0AD7012D913C919F
:102B80009F7BF8019183F90180819181A281B381BA
:102B9000F80185879687A787B08BC9010E94522EBE
:102BA000D7011D921C9228960FB6F894DEBF0FBE77
:102BB000CDBFDF91CF911F910F91FF90EF90DF90EC
:102BC000CF90BF90AF907F906F905F904F9008959F
:102BD000FFEFCF1ADF0AEF0AFF0A96CFF80145850B
:102BE000568567857089585F6F4F7F4F84179507AB
:102BF000A607B707C8F0458756876787708BF80127
:102C0000258536854785508959834A833B832C83A4
:102C1000BD83AE839F83888748E0BE016F5F7F4F8F
:102C200080EE0E943508BFCF85879687A787B08B37
:102C3000E6CFCF93DF93EC01898186FD0BC08A81BB
:102C40008823C9F08F8981FF05C082FD0BC0CE01AA
:102C50000E94CB0E8F8983FD0EC0CE01DF91CF91F4
:102C60000C94391587FFF6CF40E070E060E088E50E
:102C70000E943508EFCFDF91CF910895CF93DF9376
:102C8000EC01898186FD07C08B8D9C8D892B59F4C1
:102C90008F8981FD11C08F8983FD0BC0CE01DF912B
:102CA000CF910C943915CE010E94A0138A81811115
:102CB000EFCFDF91CF91089582FD0AC0CE010E942F
:102CC000081469E670E080E090E00E94CB02E3CF58
:102CD00087FFE1CF40E070E060E089E50E943508C1
:102CE000DACF4F925F926F927F92AF92BF92CF9264
:102CF000DF92EF92FF920F931F93CF93DF93CDB7A5
:102D0000DEB728970FB6F894DEBF0FBECDBF8C019B
:102D10005C0182EBA81A8DEFB80AD501ED91FC9108
:102D200041E068E870E0C801099564EF71E080E077
:102D300090E00E94CB020E949A0F81112AC040E0CD
:102D400070E060E080E80E94350882E0F80182834C
:102D5000F80182818111BFC0D501ED91FC9140E065
:102D600068E870E0C801099528960FB6F894DEBFB0
:102D70000FBECDBFDF91CF911F910F91FF90EF90CC
:102D8000DF90CF90BF90AF907F906F905F904F900B
:102D900008950E94E30C6C012C01712C612CD80168
:102DA0005196ED90FC90C701B0E0A0E08C509E4F92
:102DB000AF4FBF4F84159505A605B70508F040C075
:102DC000B2E3CB0ED11CE2E3EE0EF11C198298EEB9
:102DD000692E93E0792EC601B3010E94532C6A83B9
:102DE0001B82E4E6F0E0C601BF010E94532CCB0138
:102DF0002AE030E0B9010E94532C8C831D82C70168
:102E0000B3010E94532C6E831F82C701BF010E9431
:102E1000532CCB01B9010E94532C8887D8015796B7
:102E20008C9148E0BE016F5F7F4F80FF02C082E857
:102E30008ACF88EB0E943508D80112961C9288CF61
:102E40009701AFE5B0E00E94442C24E630E040E07A
:102E500050E00E94672C421653066406750608F07F
:102E600077CFB2E3CB0ED11CE2E3EE0EF11C198258
:102E700088EE682E83E0782EC601B3010E94532CA1
:102E80006A831B82E4E6F0E0C601BF010E94532C76
:102E9000CB012AE030E0B9010E94532C8C831D82C3
:102EA000C701B3010E94532C6E831F82C701BF016B
:102EB0000E94532CCB01B9010E94532C888748E013
:102EC000BE016F5F7F4F81E80E94350882E0D80124
:102ED00012968C933DCF838D948D892B49F0C80138
:102EE0000E94C309D80112968C91882309F434CF2B
:102EF000F801878981FF05C082FD03C0C8010E94D7
:102F0000EA0AD80157968C9183FD2ECFC8010E9402
:102F100039152ACFCF93DF93EC01898186FD0EC04E
:102F2000CE010E94AB108A818823C9F08F8981FF6E
:102F300005C082FD0BC0CE010E94450F8F8983FD25
:102F40000EC0CE01DF91CF910C94391587FFF6CFDB
:102F500040E070E060E088E50E943508EFCFDF9147
:102F6000CF9108954F925F926F927F92AF92BF92EE
:102F7000CF92DF92EF92FF920F931F93CF93DF9345
:102F800000D000D0CDB7DEB78C01DC015B968D910F
:102F90009C91892B21F546E050E068E171E0C80181
:102FA0000E94461320E245E555E560E070E0C80167
:102FB0000E94A20B81119DC00F900F900F900F9057
:102FC000DF91CF911F910F91FF90EF90DF90CF9005
:102FD000BF90AF907F906F905F904F900895F801F1
:102FE00081859285A385B48580349105A105B105BD
:102FF00090F4278919821A821B828C8344E0BE01D7
:103000006F5F7F4F84E820FD66C08AEB0E94350821
:10301000F801128266C06801F2EBCF1AFDEFDF0AF9
:10302000D601ED91FC9141E060E870E0C80109959E
:1030300062E370E080E090E00E94CB02D601ED9167
:10304000FC9141E062E070E0C801099564E670E03F
:1030500080E090E00E94CB02F801418452846384B6
:103060007484B301A20140545109610971095801E6
:10307000F6EBAF1AFDEFBF0AD501ED91FC91C80147
:103080000995E82EF12CFE2CEE24B301A2014F533A
:10309000510961097109D501ED91FC91C8010995AA
:1030A000E82AD601ED91FC9140E062E870E0C801A9
:1030B0000995F801838D948DE816F90691F0F9824F
:1030C000EA829B838C83878944E0BE016F5F7F4FD8
:1030D00080FF0DC083E80E94350882E0D801129677
:1030E0008C93D80112968C91811155CF65CF89EBC5
:1030F0008DCFF801878983FD5FCFC8010E94391504
:103100005BCF2F923F924F925F926F927F928F92FE
:103110009F92AF92BF92CF92DF92EF92FF920F9366
:103120001F93CF93DF93CDB7DEB7C255D1090FB64A
:10313000F894DEBF0FBECDBF8C01FC01E05BFD4FFC
:103140000190F081E02D60E870E009959801225B24
:103150003D4F29963FAF2EAF299781111DC0D90150
:103160002D913C91F80184819581A681B78141E040
:103170000B97A105B10529F0878960E871E084FF0C
:1031800002C060E870E0C801F901099564EF71E0E0
:1031900080E090E00E94CB0240E450E06FEF70E0EE
:1031A0009E012F5F3F4FC9010E94E42ED801539624
:1031B0004D905D906D907C9056972D964CAE5DAE87
:1031C0006EAE7FAE2D97312C212CF801E35EFD4FC2
:1031D0002F96FFAFEEAF2F979801285B3D4F639678
:1031E0003FAF2EAF6397A801465B5D4F61965FAF1F
:1031F0004EAF61972996AEADBFAD2997ED91FC9189
:1032000041E064E070E0C80109956AE070E080E0A8
:1032100090E00E94CB027801812C912C54012F96D2
:10322000EEADFFAD2F9780819181A281B381881689
:103230009906AA06BB06C8F5D501C40123E0B695D8
:10324000A795979587952A95D1F721E030E02C0F27
:103250003D1F820F931FDC018C9190E09401277039
:10326000332702C0959587952A95E2F780FF14C011
:10327000F8014585568567857089480D591D6A1D79
:103280007B1D6396AEADBFAD6397ED91FC91D70109
:103290005D962C91C8010995BFEF8B1A9B0AAB0A6A
:1032A000BB0AEFEFEE1AFE0ABACF2996AEADBFAD5C
:1032B0002997ED91FC9140E064E070E0C801099528
:1032C0004801BDE18B0E911CC12CD12C7601B12C93
:1032D000A12C2F96EEADFFAD2F9780819181A28119
:1032E000B381C816D906EA06FB0608F041C0D8012A
:1032F0001D964D915D916D917C9150974C0D5D1D8A
:103300006E1D7F1D6196AEADBFAD6197ED91FC91D5
:10331000C8010995F401A1914F01B701A60193E0FD
:1033200076956795579547959A95D1F7E1E0F0E046
:10333000EC0FFD1FE40FF51F96012770332741E0C6
:1033400050E002C0440F551F2A95E2F79A01908180
:103350008A1759F05FEFA51AB50A292B20838FEF42
:10336000C81AD80AE80AF80AB4CF20952923F6CF5C
:10337000A114B10459F52114310449F0D80157962C
:103380008C9187FF04C0622D81E50E94AC0CF8018E
:10339000438A548A658A768ACE5ADF4F0FB6F894EC
:1033A000DEBF0FBECDBFDF91CF911F910F91FF9078
:1033B000EF90DF90CF90BF90AF909F908F907F90D5
:1033C0006F905F904F903F902F900895FFEF2F1ACE
:1033D0003F0A2D966CAD7DAD8EAD9FAD2D9724E14E
:1033E00030E040E050E00E94672C240D351D461D62
:1033F000571DD80153962D933D934D935C9356974B
:103400002D962CAD3DAD4EAD5FAD2D97240D351DE8
:10341000461D571D2D962CAF3DAF4EAF5FAF2D977C
:1034200034E12316310409F0E5CE2996AEADBFADE7
:103430002997ED91FC9140E060E870E0C8010995A2
:10344000F80185859685278522962FAF22972396AA
:103450009FAF239724968FAF249784E125968FAF53
:1034600025972696BFAE26972796AFAE279746E0BC
:10347000BE016F5B7F4F81EB0E943508D801129629
:103480001C928ACF4F925F926F927F92AF92BF92BF
:10349000CF92DF92EF92FF920F931F93CF93DF9320
:1034A00000D000D01F92CDB7DEB76C010E94C00CD7
:1034B000181619060CF0CFC00E94C00C1816190679
:1034C0000CF0C9C083E696E00E94DA0484349105CA
:1034D00009F443C08F349105D1F0839709F0B8C047
:1034E0000E94C00C04970CF4B6C00E94BC0C76017C
:1034F0002DE1E20EF11C62E070E0CE0101960E9427
:103500008D04029709F442C09FEF8FEF87C00E949D
:10351000C00C02970CF49FC00E94BC0C83E696E09E
:103520000E94DA048B34910539F60E94BC0C90E0BD
:1035300080E00F900F900F900F900F90DF91CF9140
:103540001F910F91FF90EF90DF90CF90BF90AF90C1
:103550007F906F905F904F9008950E94C00C0497E9
:103560000CF479C064E070E0CE0101960E948D04F5
:1035700044E050E06CE472E0CE0101960E94152C0C
:10358000892B09F099CF81E090E0D3CFA980BA8050
:10359000BA24AB24BA2461E070E0CE0105960E9403
:1035A0008D04019709F0B0CF9EEF81E0A81682E06C
:1035B000B80608F0AACF0E94FD022B013C0110E0E2
:1035C00000E00A151B0558F0F7019701200F311F85
:1035D00080E0E217F307C9F091918927FACF0E94A2
:1035E000FD026419750986099709613D77408105D7
:1035F0009105A0F5B501601B710BC701800F911FEC
:103600000E948D04080F191FDCCF9D81891711F0CE
:103610009CEF7BCF902F812F17FF0CC089839A835B
:1036200042E0BE016F5F7F4F89EA0E94350884E067
:1036300090E07FCFF601E35EFD4F012E000C220BE0
:10364000330B008311832283338382E090E071CFB8
:103650000E94BC0C31CF83E090E06BCF9DEF55CF43
:103660000F931F93CF93DF93EC014D855E856F859C
:10367000788989859A85AB85BC85481759076A077B
:103680007B0720F0CE010E94780C12C0CE010E9470
:10369000421A8330910591F4898187FD09C040E089
:1036A00070E060E082E00E9435088981806889834B
:1036B00081E0DF91CF911F910F91089529812F779C
:1036C000298381309105F1F2029711F080E0F1CF6A
:1036D0008E01035E1D4F8D859E85AF85B889F801EB
:1036E0004081518162817381840F951FA61FB71F8E
:1036F00049855A856B857C85481759076A077B077A
:1037000038F440E070E060E087EA0E943508DECFE0
:10371000FE01EC5BFD4F808191810097B9F2BE0103
:103720000E94DD07019691F28D859E85AF85B8894F
:10373000F8014081518162817381840F951FA61F1A
:10374000B71F8D879E87AF87B88BB2CFCF92DF929E
:10375000EF92FF92CF93DF93EC010E94FD026B0189
:103760007C0128EEC20E23E0D21EE11CF11C0E9457
:10377000FD026C157D058E059F0570F4CE010E943B
:10378000421A009789F0049769F06AE070E080E0DF
:1037900090E00E94CB02EBCF40E070E060E088EA6E
:1037A0000E94350880E001C081E0DF91CF91FF9059
:1037B000EF90DF90CF9008950F931F93CF93DF93F7
:1037C0008C01EB01809110048F7390E09B012150DC
:1037D00031098217930731F08617970779F181E055
:1037E00090E008C08FE094E00E94A61B811107C002
:1037F0008FEF9FEFDF91CF911F910F9108958091EF
:10380000260490912704A0912804B091290480787F
:103810009927AA27BB27C130D10571F5892B8A2B9F
:103820008B2B31F040E070E060E082E40E943508CC
:1038300080911004807C8C2B809310046FE074E0E6
:10384000C8010E94DD07019699F28091100486FD5F
:103850001CC040E070E060E080E1219709F080E367
:103860000E94350890911004892F8F738F5F907C90
:10387000892B80931004B3CF892B8A2B8B2BC1F219
:1038800040E070E060E083E4D1CF90E080E0B2CF30
:10389000CF93DF932091530630915406232B71F080
:1038A000EC01909110049F73963051F48FE094E0F6
:1038B0000E94421A21E0039709F443C020E041C06E
:1038C0009330F9F0923019F58FE094E00E94A61B36
:1038D0008823D9F10E94CE0790911004907C9360C8
:1038E000909310048091260487FF06C040E070E0AA
:1038F00060E080E40E943508809110048F7383306B
:1039000039F58FE094E0FE01DF91CF91099461E0F9
:1039100070E080915106909152060E94DC1B81302C
:10392000910559F465E070E0809155069091560636
:103930000E94DC1B81309105F9F221E0892B09F00E
:10394000BDCF822FDF91CF9108958FEF9FEFF5CFFD
:1039500021E0F7CFAF92BF92CF92DF92EF92FF922A
:103960000F931F93CF93DF93FC01EC5BFD4F2081FE
:1039700031812115310569F410E0812FDF91CF915C
:103980001F910F91FF90EF90DF90CF90BF90AF907D
:103990000895EC01BC01C9010E94DD07019661F3A5
:1039A00040E070E060E082EE0E9435086E0183EE38
:1039B000C81A8DEFD80AF601E080F180FEEFEF160D
:1039C000FFEFFF0608F054C0EAEFF1E0649183E6F0
:1039D00096E00E945504EBEFF1E0649183E696E0F7
:1039E0000E945504ECEFF1E0649183E696E00E94BA
:1039F0005504EDEFF1E0649183E696E00E945504F2
:103A000087010E5F1F4F612F83E696E00E945504E9
:103A1000602F83E696E00E94550466EE83E696E00A
:103A20000E945504E0EEF1E0A4908E01C8018C1BC9
:103A30009D0B8E159F0580F4F801B58C6B2D83E6E8
:103A400096E00E945504EB2DEA25F0E0E650FF4F8A
:103A5000A4900F5F1F4FEACF6A2D83E696E00E9485
:103A600055046AE083E696E00E9455040E94FC013A
:103A7000CE010E94A61B182F882309F47DCF8D85C7
:103A80009E85AF85B889F60140815181628173813D
:103A9000840F951FA61FB71F8D879E87AF87B88B92
:103AA00049855A856B857C8584179507A607B707D6
:103AB00008F463CFCE010E94780C5FCFEF92FF92A3
:103AC0000F931F93CF93DF93FB012081318124302B
:103AD000310539F58A01EB017C01CA010E940C2CE9
:103AE000EA81FB812C813D812E1B3F0B82179307BE
:103AF000C1F4AC01B801C7018E0F9F1F0E94152CA5
:103B000021E030E0892B11F430E020E0882799276C
:103B1000821B930BDF91CF911F910F91FF90EF903C
:103B200008958FEF9FEFF6CFEF92FF920F931F93C1
:103B3000CF93DF938C01EB0183E0CC0FDD1F8A95DF
:103B4000E1F7CE01815F9D4F7C0143E453E0BC016E
:103B5000C8010E945E1D892B41F04DE353E0B7017F
:103B6000C8010E945E1D892B81F4C95EDD4F8A81E8
:103B70009B81800F911F0E94AC07862FDF91CF9110
:103B80001F910F91FF90EF9008958FEFF7CFEF9275
:103B9000FF920F931F93CF93DF937C01890183E002
:103BA000440F551F8A95E1F7EB01C40FD51F42E47E
:103BB00052E0BE01C7010E945E1D892B99F48A85DF
:103BC0009B858E0D9F1D0E94AC07F8016483758351
:103BD0008683978381E0DF91CF911F910F91FF90B2
:103BE000EF90089580E0F7CFEF92FF920F931F932D
:103BF000CF93DF937C01890183E0440F551F8A95A1
:103C0000E1F7EB01C40FD51F4BE352E0BE01C70142
:103C10000E945E1D892B89F48A859B858E0D9F1DD0
:103C20000E94AC07F801728B618B81E0DF91CF912C
:103C30001F910F91FF90EF90089580E0F7CFEF92E2
:103C4000FF920F931F93CF93DF937C01890183E051
:103C5000440F551F8A95E1F7EB01C40FD51F4FE2C2
:103C600052E0BE01C7010E945E1D892B99F48A852E
:103C70009B858E0D9F1D0E94AC07F801638B748B92
:103C8000858B968B81E0DF91CF911F910F91FF90F3
:103C9000EF90089580E0F7CFEF92FF920F931F937C
:103CA000CF93DF937C01890183E0440F551F8A95F0
:103CB000E1F7EB01C40FD51F4AE252E0BE01C70194
:103CC0000E945E1D892B81F48A859B858E0D9F1D28
:103CD0000E94AC07F801638381E0DF91CF911F91CF
:103CE0000F91FF90EF90089580E0F7CFEF92FF9251
:103CF0000F931F93CF93DF937C01890183E0440FDF
:103D0000551F8A95E1F7EB01C40FD51F40E252E041
:103D1000BE01C7010E945E1D892B81F48A859B85A7
:103D20008E0D9F1D0E94AC07F801608781E0DF9136
:103D3000CF911F910F91FF90EF90089580E0F7CF02
:103D4000EF92FF920F931F93CF93DF937C01890132
:103D500083E0440F551F8A95E1F7EB01C40FD51F8F
:103D600048E152E0BE01C7010E945E1D892B89F423
:103D70008A859B858E0D9F1D0E94AC07F801748F6C
:103D8000638F81E0DF91CF911F910F91FF90EF90B2
:103D9000089580E0F7CFEF92FF920F931F93CF9398
:103DA000DF937C01890183E0440F551F8A95E1F779
:103DB000EB01C40FD51F40E152E0BE01C7010E94D4
:103DC0005E1D892B99F48A859B858E0D9F1D0E940F
:103DD000AC07F801658776878787908B81E0DF9154
:103DE000CF911F910F91FF90EF90089580E0F7CF52
:103DF000EF92FF920F931F93CF93DF937C01890182
:103E000083E0440F551F8A95E1F7EB01C40FD51FDE
:103E100044E052E0BE01C7010E945E1D892B99F467
:103E20008A859B858E0D9F1D0E94AC07F8016187D6
:103E300072878387948781E0DF91CF911F910F91E3
:103E4000FF90EF90089580E0F7CFEF92FF920F93ED
:103E50001F93CF93DF937C01890183E0440F551FAB
:103E60008A95E1F7EB01C40FD51F4EEF51E0BE017B
:103E7000C7010E945E1D892B99F48A859B858E0D52
:103E80009F1D0E94AC07F801678B708F818F928F06
:103E900081E0DF91CF911F910F91FF90EF900895F6
:103EA00080E0F7CF1F920F920FB60F9211242F933D
:103EB0003F938F939F93AF93BF938091FB0190911A
:103EC000FC01A091FD01B091FE013091FA0123E0C7
:103ED000230F2D3758F50196A11DB11D2093FA012E
:103EE0008093FB019093FC01A093FD01B093FE0130
:103EF0008091FF0190910002A0910102B091020215
:103F00000196A11DB11D8093FF0190930002A09323
:103F10000102B0930202BF91AF919F918F913F91A7
:103F20002F910F900FBE0F901F90189526E8230F2A
:103F30000296A11DB11DD2CF1F920F920FB60F9204
:103F400011242F933F934F935F936F937F938F939E
:103F50009F93AF93BF93CF93EF93FF93C091E100F3
:103F60008091E100837F8093E100C3FF0FC0109236
:103F7000E90081E08093EB001092EC0082E38093F3
:103F8000ED001092620688E08093F000C2FF1AC034
:103F90000E94FC018091E401882341F08091E401BA
:103FA00081508093E401811101C05D9A8091610686
:103FB000882341F0809161068150809361068111D0
:103FC00001C0289AC4FF23C08091E2008E7E8160E8
:103FD0008093E2008091E1008F7E8093E1008091E8
:103FE000E5018E7E80618093E501FF91EF91CF9195
:103FF000BF91AF919F918F917F916F915F914F9101
:104000003F912F910F900FBE0F901F901895C0FFFA
:10401000ECCF8091E2008E7E80618093E2008091FF
:10402000E1008E7E8093E1008091E5018E7E8160CB
:10403000DACF1F920F920FB60F921124CF92DF9218
:10404000EF92FF920F931F932F933F934F935F93A2
:104050006F937F938F939F93AF93BF93EF93FF9350
:10406000CF93DF93CDB7DEB76C97DEBFCDBF109295
:10407000E9008091E80083FF25C068E0CE01459605
:104080000E94C30382EF8093E8008D8987FF39C0C7
:104090009091E80090FFFCCF982F907609F034C102
:1040A0009E894F89588D2F89F88C911131C08038A5
:1040B00061F58091E6018093F1001092F1008EEF9E
:1040C0008093E8006C960FB6F894DEBF0FBECDBFAC
:1040D000DF91CF91FF91EF91BF91AF919F918F9120
:1040E0007F916F915F914F913F912F911F910F9110
:1040F000FF90EF90DF90CF900F900FBE0F901F902A
:1041000018959EEF9093E800C7CF1092F100D5CF9D
:10411000913059F48111D3CF4130510581F680910E
:10412000E6018D7F8093E601CACF933049F4811177
:10413000C6CF4130510519F68091E6018260F2CF79
:10414000953041F48091E80080FFFCCF20682093F7
:10415000E300B5CF963009F0A9C00B8D1C8D22E08D
:104160001092E9001092E2011092E101F2122EC0C9
:104170001092E0011092DF010E9492031F8299E0E9
:104180009983FA8291E09E8390EA98879AEF9987C3
:104190002091E1013091E201275F3F4F3C832B8367
:1041A0008D831092E9001092E2011092E1011093C8
:1041B000E0010093DF0149E050E0BE016F5F7F4FF7
:1041C00080E00E946C030E94920379CF1093E0017B
:1041D0000093DF010E946A02DC0112960D911C918E
:1041E0000115110509F451C1D801ED91FC9104802C
:1041F000F581E02DBE016B5E7F4FC80109950097E8
:1042000009F03EC1F80100851185EACFF3E0FF1205
:104210000EC08F89882309F440C0823061F440E8E1
:1042200060E185EB92E00E943903811148CF81E281
:104230008093EB0047CF813029F440E86BE089EAB6
:1042400092E0F1CF833099F70E946A02DC01129666
:10425000ED90FC908E010F5F1F4F6801E114F10497
:1042600079F0D701ED91FC910680F781E02DB8013E
:10427000C7010995080F111DF701E084F184EECF05
:10428000D8011C92F60101900020E9F73197BF0197
:104290006C197D0940E0C601C6CF63E972E0FB01FD
:1042A000449150E080E80E946C0309CF973009F4F4
:1042B000BECF983021F481E08093F10000CF993097
:1042C00009F0FDCE837009F0B2CFE4E9F1E081E0BE
:1042D00031E096E32191222371F08093E90030933D
:1042E000EB00DF0111972C912093EC009093ED00EF
:1042F0008F5F873079F78EE78093EA001092EA00AB
:104300008F8980936206DBCE8B8D9C8D1092E900A5
:104310001092E2011092E1019093E0018093DF019D
:10432000898D811192C08E899D89913A49F481329B
:1043300009F07DCF47E050E064E071E080E0B3CF6A
:10434000913209F074CF833269F48F89988DB0E08F
:10435000A0E08093000190930101A0930201B0932B
:104360000301ADCE803269F48091E80082FFFCCF7A
:1043700067E084E091E00E94C3038BEF8093E80044
:104380009ECE823209F09BCE8F8980930B01EEEF97
:10439000FFE7859194918B3F9C4D51F1E0E0F8E06F
:1043A0008091040190910501A0910601B09107014F
:1043B000803B9440A105B105F1F480910B0180FD93
:1043C0001AC0EE3F8AE0F80789F587E797E79183FF
:1043D0008083809160008093E30188E19BE00FB6C9
:1043E000F894A895809360000FBE9093600067CE0C
:1043F000EEEFFAE0D5CF808191818737974709F0BA
:104400005ECEA89580916000886180936000809165
:10441000E30180936000EE3F2AE0F20789F080918B
:10442000FE0A9091FF0A9183808349CE8081918119
:104430008737980751F29093FF0A8093FE0AC5CF01
:104440001092FF0A1092FE0A3ACE0E946A02DC0124
:1044500012960D911C910115110509F4E8CED801B1
:10446000ED91FC910190F081E02DBE016B5E7F4FDC
:10447000C8010995811123CEF80100851185EBCF84
:10448000181619060CF41BCED2CEF1E0FF12BECEE8
:1044900067E972E004CFCF93DF93CDB7DEB7E09743
:1044A0000FB6F894DEBF0FBECDBF789484B582609E
:1044B00084BD84B5816084BD85B5826085BD85B5C8
:1044C000816085BD80916E00816080936E00109246
:1044D00081008091810082608093810080918100C1
:1044E0008160809381008091800081608093800052
:1044F0008091910082608093910080919100816011
:1045000080939100809190008160809390008091D1
:10451000C10084608093C1008091C100826080935B
:10452000C1008091C10081608093C1008091C3006F
:1045300081608093C3008091C00082608093C0003E
:104540008091C20081608093C20080917A00846073
:1045500080937A0080917A00826080937A008091C3
:104560007A00816080937A0080917A0080688093DD
:104570007A00109262061092E6011092E501809195
:10458000D70081608093D70080EA8093D80089B5F6
:10459000806189BD89B5826089BD09B400FEFDCF07
:1045A00061E070E080E090E00E94CB028091D80052
:1045B0008F7C80618093D8008091E000807F809321
:1045C000E0008091E1008E7E8093E1008DE0809399
:1045D000E200559A209A27EEE22E21E0F22E00E327
:1045E00010E0C8010E94232CD7018D937D010F5F3D
:1045F0001F4F0F331105A9F76EE971E087EE91E0C7
:104600000E94EB2E892B29F16EE971E087EE91E093
:104610000E94F42E80EB9EE1A4E0B0E08093ED01D7
:104620009093EE01A093EF01B093F00180EE9BEA2E
:10463000A0E0B0E08093F1019093F201A093F30128
:10464000B093F4018FEF8093F50187EE91E00E9423
:104650001B1585E10E94070284E10E94070298E091
:10466000F92E10E000E085E10E947E02080F191F7C
:10467000FA94F110F8CF83E0169507958A95E1F743
:1046800082E0083C110538F0C8018C5D91098C3737
:10469000914020F485E080930C010EC08EEF083528
:1046A0001240C8F384E10E947E0221E0883E9340DC
:1046B0000CF020E020930C0180910C018E3F41F41E
:1046C0008091F5018F3F21F46EEF8BE50E94AC0CD9
:1046D00084B1806F84B93F9A569A8FEF9FEF909381
:1046E000700680936F0610910B016AE070E080E025
:1046F00090E00E94CB021123B1F30E94FC0161E023
:1047000070E080E090E00E94CB0210920F04809154
:104710000F04882309F435C00E94FD020091F601C0
:104720001091F7012091F8013091F9010617170750
:104730002807390730F560910F048AEA0E94AC0C13
:104740000E94E71181E08093110410910F04103151
:1047500010F00C94EC2BE12FF0E0EF54FC4D0C9496
:10476000A82CFF234929542957296229652954294E
:10477000E02A262AEC2BEC2B70297029F929CB2B67
:104780001A2A80910F048111DDCF0E94C00C1816E7
:104790001906ACF583E696E00E94DA048B379105A2
:1047A00009F074C581E0809311041092100460E058
:1047B00072E08CE294E00E948D04AC0170E060E055
:1047C00040932C0650932D0660932E0670932F066F
:1047D00010E8E12EF12C00E010E0E0922604F092C7
:1047E00027040093280410932904452B462B472BBC
:1047F00071F440E070E060E084EA0E94350880E0F7
:1048000090E0892B09F483CF0E94000080CFFC0147
:10481000E15FFB4F158E6FEF7FEF30E020E050E05F
:1048200040E0312C212CA4E0CA2ED12C4817590786
:1048300030F4FA01E45DFB4FE081E1113DC0C901B4
:10484000019713E0220F331F1A95E1F7F901E75F93
:10485000FD4F97FF51C2121413040CF02EC18FEFBD
:1048600080930F04109226041092270410922804BB
:1048700010922904F12C10E000E0B8018CE294E0E1
:104880000E94941D8F3F09F445C280930F040F5F6F
:104890001F4F80910F048F3F11F0F1104BC20F5F3B
:1048A0001F4F021513054CF38F3F09F043C240E040
:1048B00070E060E081EAA1CFEA330CF066C0E0333B
:1048C0000CF07AC0E03209F47BC16CF4E93034F0CA
:1048D000EB300CF475C1ED3009F472C1BEEF2B2E34
:1048E00033243A94B8CFEC3209F4C1C1ED3209F463
:1048F00063C0E23299F75A014F5F5F4F481759077B
:1049000008F0DBC0FA01E45DFB4FE081EE2309F41F
:10491000D4C0E23209F05AC12034310508F0CDC0CC
:1049200089010F5F1F4FE3E0220F331FEA95E1F784
:10493000F901E15FFD4FEE24EA94FE2CF582E4825A
:10494000F382E28217821682309709F4B6C0D182D0
:10495000C082D5011196B383A283558344832FEF80
:10496000221A320A6F3F760709F4F8C0FB0123E0F0
:10497000EE0FFF1F2A95E1F7E15FFD4F268137819A
:104980002F5F3F4F37832683E9C0E636A9F06CF4EA
:10499000EB3509F497C0ED3509F4E2C0EA3309F0CC
:1049A0009DCFB901615071090BC1E43729F00CF0BA
:1049B0006DC0EE3609F092CF6F3F7607B1F0FB0184
:1049C000A3E0EE0FFF1FAA95E1F7E15FFD4FA08185
:1049D000B181A130B10509F470C0149731F406809B
:1049E000F781E02DEF2B09F068C08A01FA01E45D40
:1049F000FB4F8417950709F460C0A191AA2309F41D
:104A00005CC0A03251F00CF065C1A9300CF46BC150
:104A1000AB301CF0AD3009F066C12034310508F030
:104A20004CC0D9011196E3E0220F331FEA95E1F75C
:104A3000F901E15FFD4FEE24EA94FE2CF582E48259
:104A4000F382E282178216823097B9F128E030E0D3
:104A5000318320830283138355834483415051095A
:104A60003FEF231A330A6F3F760771F0FB0103E033
:104A7000EE0FFF1F0A95E1F7E15FFD4F26813781B9
:104A80002F5F3F4F378326839D019AC0EB37D1F0CC
:104A9000ED3709F023CFAA24A394B12CD9011197A3
:104AA000F90103E0EE0FFF1F0A95E1F7E95FFD4F03
:104AB000B7FF5AC0119609F083C040E070E060E093
:104AC00080EA9BCE0FEF201A300A20343105A8F778
:104AD00089010F5F1F4F5901B3E0AA0CBB1CBA95A7
:104AE000E1F7D501A15FBD4F5D01EE24EA94FE2CF4
:104AF0001596FC92EE9214971396FC92EE921297F2
:104B000017961C921E921697AB2BB9F26F3F760741
:104B1000C9F0A3E0660F771FAA95E1F7615F7D4FAB
:104B2000DB01ED90FC90EA94EF2839F2DB01169658
:104B3000ED90FC90BFEFEB1AFB0ADB011796FC929D
:104B4000EE92169761E070E0EB3711F062E070E0F2
:104B5000F5017183608353834283B901980130C0AA
:104B6000E2E0AE2EB12C9ACFE280F380EF20E09409
:104B700051F1E480F580EF20E09429F560817181A6
:104B80006A157B0509F099CFBA016F5F7F4F758376
:104B90006483FD0113E0EE0FFF1F1A95E1F7E15F5B
:104BA000FD4FBD01A281B381119621F0A481B58191
:104BB000119631F06150710938976F3F760791F780
:104BC0004F5F5F4F33CE1197389772CFEC3509F0B6
:104BD00093CEFA013196E817F90708F08DCE8F01D0
:104BE000045D1B4FD8011C91163639F074F41F3246
:104BF00021F02CF4123209F060CFAF017DCE1C35CC
:104C0000E1F3123609F059CFF8CF1237B1F324F49B
:104C10001E3609F052CFF1CF143779F3153709F06A
:104C20004CCFFA0132968A01025D1B4F4A5F5F4FFB
:104C3000E817F907C1F0D801FD908D01FF2099F028
:104C4000B0EDEB2EEF0CB9E0BE1548F4E894F5F8A2
:104C5000AFEBEA2EFE0CA5E0AF1508F42ECF31968F
:104C6000E417F50729F7AF014150510945CE6F3FD1
:104C7000760709F4A5CFFB0103E0EE0FFF1F0A95AD
:104C8000E1F7E15FFD4F0190F081E02D3197329720
:104C900008F496CFD9011197F90113E0EE0FFF1F29
:104CA0001A95E1F7E95FFD4FB7FD8ACF00811181C9
:104CB000015011090230110550F4E280F380EF2019
:104CC000E09429F0E480F580EF20E09499F01197CA
:104CD0003897EACFAD3509F4A0CEAD3709F49DCEB3
:104CE000AC3209F49ACE4F5F5F4FA052AF3508F453
:104CF00080CEE3CEBD0164CF208131812F3F3F4F75
:104D000031F0228133812F3F3F4F09F4D6CE0197F6
:104D100038979FCD2FE034E0A8016FE072E08CE27D
:104D200094E00E94251F882309F4B3CD0F5F1F4F25
:104D3000F82EAFCD8B3008F0F6C110921C04109203
:104D40001D0410921E0410921F041092260410924B
:104D5000270410922804109229048FEF80934906AB
:104D600080934A06809330061092440610924506BE
:104D7000109246061092470610924B0610924C066F
:104D800010924D0610924E0610922B0410922A0497
:104D900080910F0290911002019709F5E0901502A1
:104DA000F0901602FEA6EDA61BA21AA201E010E0EA
:104DB000EDA4FEA42AA13BA12E153F051CF1809174
:104DC00030068F3F61F48FEF9FEFA0E0B0E080935B
:104DD000440690934506A0934606B09347068091FB
:104DE0000F04873008F0E4C16FE074E08EE292E1D6
:104DF0000E94DD07019609F0DBC140E070E060E051
:104E000082EAFBCC0215130554F7C801A3E0880F12
:104E1000991FAA95E1F79C01215F3D4F290144E2CA
:104E200053E0B9018CE294E00E945E1D892B59F099
:104E30004EE153E0B2018CE294E00E945E1DF12C41
:104E4000E12C892B19F40E5F1F4F57C0F701E65074
:104E5000FD4F45915491B2018CE294E00E945E1D99
:104E6000892B79F4F701E450FD4FA591B4912FE01F
:104E700034E0A8016FE072E08CE294E0FD01099556
:104E8000E2CFF4E0EF0EF11C24E2E216F104F1F6B9
:104E90004FEE52E0B2018CE294E00E945E1D5C0194
:104EA000892B89F67101E01AF10AFCA6EBA697019D
:104EB00022303105ECF0D20118968D919C91199712
:104EC0000197B1F41E96ED90FC90F8AAEFA61FA2F0
:104ED0001EA2E2E06E2E712CAA24A394B12CEFA4A2
:104EE000F8A82EA13FA12E153F056CF0B7FC77CF97
:104EF0003FEFA31AB30A0A0D1B1D8AA19BA10196BD
:104F00009BA38AA355CFEBA4FCA46E147F040CF0E2
:104F100066CF630173E0CC0CDD1C7A95E1F772017A
:104F2000EC0CFD1C4BEE52E0B7018CE294E00E94C9
:104F30005E1D4C01892B09F079C028E0C20ED11CFE
:104F4000F201EC0DFD1D80819181029709F047CFA0
:104F5000C680D7803FEF3093480680E396E099A75C
:104F600088A7E0914806EAA78C149D0424F4F4E194
:104F70008F169104E1F42AA52F3F11F4C092480640
:104F800034E1C316D1042CF4F601E05DF94F4FEF84
:104F9000408382E0C80ED11CAC0CBD1C6C0C7D1C87
:104FA0002EA13FA12F5F3F4F3FA32EA398CFD70144
:104FB00052968D919C91845D9B4F0E94AC07E8A511
:104FC000F9A56193F9A7E8A7262F30E081E090E0EA
:104FD000A0E0B0E004C0880F991FAA1FBB1F6A950C
:104FE000D2F7AC01BD018091440690914506A09195
:104FF0004606B0914706842B952BA62BB72B8093A2
:10500000440690934506A0934606B09347069AA59A
:105010009F3F29F48216930611F080924806AFEF65
:105020008A1A9A0AB8E0EB0EF11C9BCF4FED52E0C2
:10503000B7018CE294E00E945E1D4C01892B09F0BF
:1050400044C098E0C90ED11CF201EC0DFD1D808119
:105050009181029709F0C3CEC680D780A8E0EA0EFE
:10506000F11C8C149D0424F0B2E0CB0ED11C94CF23
:10507000D7011A968D919C91845D9B4F0E94AC073D
:1050800081E090E0A0E0B0E004C0880F991FAA1F63
:10509000BB1F6A95D2F7AC01BD0180914B06909180
:1050A0004C06A0914D06B0914E06842B952BA62B55
:1050B000B72B80934B0690934C06A0934D06B0936C
:1050C0004E069FEF891A990AC9CF40ED52E0B70109
:1050D0008CE294E00E945E1DE2E0AE0EB11CF2E0B4
:1050E0006F0E711C892B59F4D7011A968D919C91E2
:1050F000845D9B4F0E94AC076093490651CF47EDFA
:1051000052E0B7018CE294E00E945E1D892B09F009
:1051100047CFF70182859385845D9B4F0E94AC0742
:1051200060934A063DCF8E3009F042C0EE24E394EE
:10513000F12C10E000E032C0B7018CE294E00E9454
:10514000941D8F3F41F52FE034E0A7016FE072E03E
:105150008CE294E00E94251F81111DC0870163E04D
:10516000000F111F6A95E1F7015F1D4F4CEC52E0F3
:10517000B8018CE294E00E945E1D892B09F052C0B8
:10518000F80182859385845D9B4F0E94AC076093F4
:10519000F50101E010E0F2E0EF0EF11CE214F3047F
:1051A0005CF20130110521F487EE91E00E941B159D
:1051B0008091260487FF11C080E18983E4EAF1E051
:1051C000DE01129601900D928A95E1F741E1BE0150
:1051D0006F5F7F4F8AE50E9435088091260487FF24
:1051E00005C060910C018CE50E94AC0C80912604F6
:1051F00087FF06C00E949A0F682F8BE50E94AC0CB7
:105200008091260487FF05C060910F048DE50E9400
:10521000AC0C40E070E060E081E00E9435080E9444
:10522000CE07EDCA49EC52E0B8018CE294E00E944E
:105230005E1D892B89F4D8011A968D919C91845D0D
:105240009B4F0E94AC076093ED017093EE01809339
:10525000EF019093F0019DCF46EC52E0B8018CE253
:1052600094E00E945E1D892B09F0BBC2F801828583
:105270009385845D9B4F0E94AC076093F10170930E
:10528000F2018093F3019093F40183CF0E94BC0C50
:10529000B6CA8AEA9CE10E94481C91E0892709F479
:1052A000AECA0E94E711ABCA80E39BE1F4CF8091C4
:1052B000260481FD07C040E070E060E085EA0E94BE
:1052C0003508EFCF83E99CE0E6CF80912A049091E6
:1052D0002B04892BB9F740E070E060E086EAEFCF5D
:1052E0008091100481111FC00E949A0F811105C086
:1052F00040E070E060E08CEAE2CF60E871E01B30F3
:1053000011F060E870E088E00E94A41164E670E0AB
:1053100080E090E00E94CB0281E08093100440E0A6
:1053200070E060E06ACA8FE094E00E94421A892B24
:1053300009F065CA64EF71E080E090E00E94CB0262
:105340000E94C40C6B017C0110E000E0C114D10488
:10535000E104F10481F022E030E040E050E00E94FE
:10536000892CCA01B901705D8E4E9F4FA70196012D
:105370000E94892C89010E94E30C9C012E5C3F4F06
:1053800048EEE42E43E0F42EC901B7010E94532CED
:10539000D62EE4E6F0E0C901BF010E94532CCB01F8
:1053A0002AE030E0B9010E94532C482F0E5C1F4FB9
:1053B000C801B7010E94532CF62EC801BF010E94FC
:1053C000532CCB01B9010E94532C90910F041982E8
:1053D000DA821B824C831D82FE821F82888748E00E
:1053E000BE016F5F7F4F85EE9C3009F416CF84EECF
:1053F00014CF08E213E0F8016491662341F083E6DC
:1054000096E00E9455040F5F1F4F892BA1F740E1E2
:1054100050E064EA71E083E696E00E94D00342E047
:1054200050E065EB71E083E696E00E94D0030E94B5
:10543000FC0137CF8091F50190910C0199838A830B
:1054400042E0BE016F5F7F4F84E039CF8FE094E090
:105450000E94421A892B09F0D2C90E94C00C0497FD
:105460000CF4CDC90E94BC0C6C010E94BC0C5C0108
:105470000E94BC0C00E0182F0E94BC0C082B192BBA
:105480007801F1E0FF228091260490912704A091F9
:105490002804B0912904AC01BD0126E076956795FA
:1054A000579547952A95D1F741704983AC01BD01C5
:1054B00035E076956795579547953A95D1F74170C0
:1054C0004A8387FF07C042E0BE016F5F7F4F85E5DB
:1054D0000E943508DD2448E0B60188EB91E00E9487
:1054E000EB10BB2448E0B5018CEB91E00E94EB107F
:1054F00048E0B70180EC91E017FF0DC049E080EC77
:1055000091E00E94EB10C7010E94C610682F70E066
:1055100048E085EC91E00E94EB1040E070E060E034
:1055200081E00E943508B50181E00E94A411B60116
:1055300082E00E94A41117FF37C0B70188E00E94E3
:10554000A4118091260490912704A0912804B09181
:10555000290416E0B695A795979587951A95D1F7E2
:1055600001E08027682F617080E20E941B0E80910D
:10557000260490912704A0912804B091290405E005
:10558000B695A795979587950A95D1F711E081274C
:10559000682F617084E00E941B0E68EC70E080E070
:1055A00090E00E94CB02F9CF8E2D0E94ED0D61E0BC
:1055B00088E00E941B0E60E088E00E941B0EC1CFB5
:1055C0008091260490912704A0912804B091290489
:1055D000AC01BD01E6E07695679557954795EA954C
:1055E000D1F741704983AC01BD01F5E0769567952F
:1055F00057954795FA95D1F741704A8387FF07C0C1
:1056000042E0BE016F5F7F4F85E50E9435088091C3
:10561000260487FF10C080911C0490911D042091E6
:105620001E0429839A838B8343E0BE016F5F7F4F03
:1056300086E50E943508409026045090270460902B
:10564000280470902904D301C20145E0B695A795BE
:10565000979587954A95D1F7282F217040911C0482
:1056600050911D0460911E0470911F048FE094E01E
:105670000E9406066B017C01C701AA27BB278AA3EB
:105680009BA3ACA3BDA38D2C9E2CAF2CBB2447FEAB
:105690000AC089838A82CB8243E0BE016F5F7F4F5D
:1056A00087E50E94350899245601BB242AA13BA115
:1056B00021773327409117048EE890E0403210F4B0
:1056C0008EE891E060910D0170910E0168237923BD
:1056D000622B732B4C3109F460618B011127C801D7
:1056E0000E94C610782E48E0B40188EB91E00E9439
:1056F000EB1048E0B5018CEB91E00E94EB1048E024
:10570000B80183ED91E00E94EB10672D70E048E056
:1057100085EC91E00E94EB1040E070E060E081E0F9
:105720000E943508B701A6018FE094E00E94FD11A8
:105730008091260490912704A0912804B091290417
:1057400026E0B695A795979587952A95D1F7E1E03C
:105750008E27682F617080E20E941B0E80912604C4
:1057600090912704A0912804B091290435E0B695C2
:10577000A795979587953A95D1F7F1E08F27682FF0
:10578000617084E00E941B0E68EC70E080E090E0A5
:105790000E94CB02F9CF8091F5019091ED0120910B
:1057A000EE013091EF014091F00149833A832B8360
:1057B0009C839091F1012091F2013091F30140918D
:1057C000F4014D833E832F839887898749E0BE018A
:1057D0006F5F7F4F85E073CD612F8BEA0E94AC0C29
:1057E00060CD40E070E060E083EA0C94FD23E3E6E6
:1057F000F6E01382128288EE93E0A0E0B0E08483AA
:105800009583A683B78385E891E0918380838FEFAA
:105810009FEF958784870895FC0105900020E9F7A4
:10582000809590958E0F9F1F0895FB01DC014150DC
:10583000504030F08D910590801919F40020B9F78F
:10584000881B990B0895F999FECF92BD81BDF89AF6
:10585000992780B50895262FF999FECF1FBA92BDDA
:1058600081BD20BD0FB6F894FA9AF99A0FBE019641
:1058700008950E94442CA59F900DB49F900DA49F65
:10588000800D911D11240895A29FB001B39FC00106
:10589000A39F700D811D1124911DB29F700D811D5C
:1058A0001124911D0895AA1BBB1B51E107C0AA1F1B
:1058B000BB1FA617B70710F0A61BB70B881F991FB1
:1058C0005A95A9F780959095BC01CD010895A1E264
:1058D0001A2EAA1BBB1BFD010DC0AA1FBB1FEE1F6A
:1058E000FF1FA217B307E407F50720F0A21BB30BB5
:1058F000E40BF50B661F771F881F991F1A9469F731
:1059000060957095809590959B01AC01BD01CF018C
:105910000895052E97FB1EF400940E94A02C57FDBD
:1059200007D00E94672C07FC03D04EF40C94A02CE7
:1059300050954095309521953F4F4F4F5F4F0895BB
:1059400090958095709561957F4F8F4F9F4F0895EB
:10595000EE0FFF1F0590F491E02D0994DF93CF9394
:105960001F930F939A9DF02D219FF00D8B9DF00DAD
:105970008A9DE02DF10D039FF00D029FE00DF11DBA
:105980004E9DE00DF11D5E9DF00D4F9DF00D7F933E
:105990006F93BF92AF925F934F93D5010E94442CB7
:1059A0008B01AC01D7010E94442CEB01E80FF91FD9
:1059B000D6010E94FD2C2F913F91D6010E94442CCC
:1059C000C60FD71FE81FF91FAF91BF910E94FD2C92
:1059D0002F913F910E94442CC60FD71FE81FF91F3B
:1059E000D6010E94442CE60FF71F9801BE01CF019B
:1059F0000F911F91CF91DF9108950E94442C460F83
:105A0000571FC81FD91F08F431960895E894DF93F3
:105A1000CF93FC01DB010E94442C7F936F93E9013B
:105A20009A01AC01BF93AF933F932F93DF010E9484
:105A3000442C26F46C1B7D0B820B930B9E01EB0117
:105A4000FC010E94FD2CAF91BF912F913F910E94CC
:105A5000FD2CBE01CF01F9012F913F91CF91DF9134
:105A60000895689401C0E8948F929F92CF93DF933A
:105A70000E943F2DDF91CF919F908F9008958824B1
:105A80009924F401E401B0E49F93AA279A158B04AA
:105A90009C04ED05FE05CF05D007A10798F4AD2FB6
:105AA000DC2FCF2FFE2FE92D982C892E982F872FB2
:105AB000762F652F542F432F322F2227B85031F7DE
:105AC000BF9127C01B2EBF91BB27220F331F441F3E
:105AD000551F661F771F881F991F881C991CEE1F72
