:100000000C9460010C9488010C9488010C94880174
:100010000C9488010C9488010C9488010C9488013C
:100020000C9488010C9488010C9488010C9488012C
:100030000C9488010C9488010C9488010C9488011C
:100040000C949D1D0C9488010C940D1E0C94E71DBE
:100050000C9488010C9488010C9488010C948801FC
:100060000C9488010C948801616C676F72697468E4
:100070006D0074797065007670705F6D76007075D4
:100080006C73652D64656C61790070696E2D636FAA
:10009000756E7400636869702D696400666C6167D1
:1000A000730061646472657373006D656D6F72795E
:1000B0002D73697A650000070E091C1B1215383F65
:1000C000363124232A2D70777E796C6B6265484F18
:1000D000464154535A5DE0E7EEE9FCFBF2F5D8DF08
:1000E000D6D1C4C3CACD90979E998C8B8285A8AF78
:1000F000A6A1B4B3BABDC7C0C9CEDBDCD5D2FFF868
:10010000F1F6E3E4EDEAB7B0B9BEABACA5A28F88D7
:10011000818693949D9A2720292E3B3C35321F18C7
:10012000111603040D0A5750595E4B4C45426F6837
:10013000616673747D7A898E878095929B9CB1B637
:10014000BFB8ADAAA3A4F9FEF7F0E5E2EBECC1C697
:10015000CFC8DDDAD3D4696E676075727B7C515687
:100160005F584D4A4344191E171005020B0C2126F7
:100170002F283D3A33344E49404752555C5B7671E7
:10018000787F6A6D64633E39303722252C2B060157
:10019000080F1A1D1413AEA9A0A7B2B5BCBB969147
:1001A000989F8A8D8483DED9D0D7C2C5CCCBE6E1B7
:1001B000E8EFFAFDF4F3AA55AA55666C616773007F
:1001C0006D656D6F72792D73697A65006164647213
:1001D00065737300636869702D69640070696E2DC2
:1001E000636F756E7400747970650070756C7365FB
:1001F0002D64656C6179007670705F6D7600616C5E
:10020000676F726974686D00444F4E45007232002A
:100210007231007265760072772D70696E007670AB
:10022000702D70696E007374617469632D686967FD
:100230006800627573006275732D636F6E6669671F
:1002400000AA00431DA200161D9C00701D9400EB27
:100250001C8A00C11C7E006A1C77003F1C7200973C
:100260001C6800121C737461746500636D64004F38
:100270004B3A2046573A2000737461746500636DF1
:10028000640000000000250028002B000000000092
:10029000240027002A0004040404040404040202C5
:1002A00002020202030303030303010204081020F5
:1002B0004080010204081020010204081020B42725
:1002C00011241FBECFEFD8E0DEBFCDBF26E0A6ECE5
:1002D000B1E001C01D92A73DB207E1F711E0A0E037
:1002E000B1E0E4EAF5E502C005900D92A63CB10745
:1002F000D9F711E0C0E6D1E004C02197FE010E94C9
:100300007D28CF35D107C9F70E943F1E0C94D02A13
:100310000C940000CF93DF9390E0FC01E655FD4F75
:1003200024918A569D4FFC0184918823C1F090E06E
:10033000880F991FFC01E457FD4FC591D491FC0132
:10034000EE57FD4FA591B4919FB7F8948881E22FA5
:10035000E0958E2388838C91E823EC939FBFDF91F7
:10036000CF9108952091060190E4299F90011124D6
:100370008E50822B80937C0080917A0080648093E1
:100380007A0080917A0086FDFCCF80917800909170
:10039000790008953FB7F8948091E0019091E101D0
:1003A000A091E201B091E30126B5A89B05C02F3FC3
:1003B00019F00196A11DB11D3FBFBA2FA92F982F8B
:1003C0008827BC01CD01620F711D811D911D42E086
:1003D000660F771F881F991F4A95D1F708958F924E
:1003E0009F92AF92BF92CF92DF92EF92FF924B011A
:1003F0005C010E94CA016B017C010E94CA016C1958
:100400007D098E099F09683E734081059105A8F317
:1004100021E0821A9108A108B10888EEC80E83E095
:10042000D81EE11CF11C81149104A104B10429F728
:10043000FF90EF90DF90CF90BF90AF909F908F9004
:1004400008952FB7F8946091DC017091DD018091DF
:10045000DE019091DF012FBF0895AF92BF92CF923E
:10046000DF92EF92FF920F931F93CF93DF936C0174
:100470007B018B01040F151FEB015E01AE18BF0855
:10048000C017D10759F06991D601ED91FC91019007
:10049000F081E02DC6010995892B79F7C501DF911F
:1004A000CF911F910F91FF90EF90DF90CF90BF9071
:1004B000AF900895FC01538D448D252F30E0842F9B
:1004C00090E0821B930B541710F0CF96089501977C
:1004D0000895FC01918D828D981761F0A28DAE0F69
:1004E000BF2FB11D5D968C91928D9F5F9F73928FF0
:1004F00090E008958FEF9FEF08958F929F92AF92B3
:10050000BF92EF92FF920F931F93CF93DF937B01E4
:100510008C01D0E0C0E00E94210260933E067093FF
:100520003F06809340069093410686E396E00E9442
:10053000690297FF27C00E94210280903E0690909A
:100540003F06A0904006B0904106681979098A09D3
:100550009B0980903A0690903B06A0903C06B09094
:100560003D06681579058A059B05F8F2CE01DF91F5
:10057000CF911F910F91FF90EF90BF90AF909F9000
:100580008F900895F80181938F012196EC16FD0656
:1005900011F6ECCFFC01918D828D981731F0828D90
:1005A000E80FF11D858D90E008958FEF9FEF08957E
:1005B000FC01918D228D892F90E0805C9F4F821BE2
:1005C00091098F739927089586E396E00E94D802D7
:1005D00021E0892B09F420E0822F089580E090E04B
:1005E000892B29F00E94E40281110C9400000895E7
:1005F000FC01A48DA80FB92FB11DA35ABF4F2C9198
:10060000848D90E001968F739927848FA689B7898E
:100610002C93A089B1898C91837080648C93938D85
:10062000848D981306C00288F389E02D80818F7D28
:1006300080830895EF92FF920F931F93CF93DF93E0
:10064000EC0181E0888F9B8D8C8D98131AC0E8890E
:10065000F989808185FF15C09FB7F894EE89FF89DD
:100660006083E889F98980818370806480839FBF7B
:1006700081E090E0DF91CF911F910F91FF90EF907B
:100680000895F62E0B8D10E00F5F1F4F0F7311278B
:10069000E02E8C8D8E110CC00FB607FCFACFE889C6
:1006A000F989808185FFF5CFCE010E94F802F1CF54
:1006B000EB8DEC0FFD2FF11DE35AFF4FF0829FB73A
:1006C000F8940B8FEA89FB8980818062CFCFCF932A
:1006D000DF93EC01888D8823B9F0AA89BB89E8896A
:1006E000F9898C9185FD03C0808186FD0DC00FB610
:1006F00007FCF7CF8C9185FFF2CF808185FFEDCF8E
:10070000CE010E94F802E9CFDF91CF9108958F9238
:100710009F92AF92BF92CF92DF92EF92FF920F9390
:100720001F93CF93DF93EC018C01035E1F4F812C4D
:10073000912C54016C0183EEC81A8DEFD80A7E010A
:10074000A8EBEA1AADEFFA0AF60180819181A28145
:10075000B38188169906AA06BB06B0F4D8012D917C
:100760008D014D855E856F857889480D591D6A1DFF
:100770007B1DD701ED91FC91CE010995BFEF8B1A3E
:100780009B0AAB0ABB0AE0CFDF91CF911F910F917B
:10079000FF90EF90DF90CF90BF90AF909F908F90A1
:1007A00008958F929F92AF92BF92CF92DF92EF9275
:1007B000FF920F931F93CF93DF93EC0189859A8566
:1007C000AB85BC854D855E856F857889841B950BCF
:1007D000A60BB70B813022E09207A105B10520F0EE
:1007E00080E092E0A0E0B0E08C017E018DE1E80EB7
:1007F000F11C812C912C54016E01A6EBCA1AADEFAD
:10080000DA0A80169106B4F44D855E856F85788985
:10081000480D591D6A1D7B1DD601ED91FC91CE013D
:100820000995F70181937F01FFEF8F1A9F0AAF0AA5
:10083000BF0AE7CFC35EDD4F012E000C220B330B46
:10084000088319832A833B83DF91CF911F910F91F6
:10085000FF90EF90DF90CF90BF90AF909F908F90E0
:10086000089580910201909103016823792381E02A
:10087000672B09F480E00895CF93DF93EC01FC012E
:10088000E85BFD4F0190F081E02D2FEF40E050E05C
:10089000BA010995FE01E25BFD4F0190F081E02D68
:1008A00040E068E870E0CE01DF91CF910994FC014F
:1008B0002085203241F4E55CFD4F81E09081953147
:1008C00051F080E008C02C3139F4E55CFD4F81E047
:1008D00090819F30B1F70895283199F7E55CFD4F7D
:1008E00081E090819B3069F7F6CF2F923F924F9233
:1008F0005F926F927F928F929F92AF92BF92CF92B0
:10090000DF92EF92FF921F93CF93DF93CDB7DEB7C5
:10091000A7970FB6F894DEBF0FBECDBFFC01EF5D09
:10092000FD4F3FE1DE01119601900D923A95E1F7FE
:10093000FC01E65CFD4F308131961081319640809C
:1009400051806280738048A259A26AA27BA2379725
:10095000C080D180E280F380C422D522E622F72233
:10096000E981EF3F09F43FC0FC01E75CFD4FE08106
:100970002E2E312CE1E0F0E0EC0FFD1FE20DF31D17
:10098000A4E12A1631047CF5A191AF3F61F1812CDD
:10099000912C5401839404C0880C991CAA1CBB1C84
:1009A000AA95D2F72A013B01022C04C076946794E1
:1009B000579447940A94D2F74CA25DA26EA27FA2EC
:1009C00040FC0CC080949094A094B094C820D9208E
:1009D000EA20FB20AFEF2A1A3A0AD2CFC828D9283A
:1009E000EA28FB28F7CF3F3F79F0422F50E070E034
:1009F00060E004C0440F551F661F771F3A95D2F779
:100A0000C42AD52AE62AF72A1F3F99F00E945704E4
:100A100081110FC081E090E0A0E0B0E004C0880F39
:100A2000991FAA1FBB1F1A95D2F7C82AD92AEA2AEA
:100A3000FB2A68A179A18AA19BA16C297D298E2915
:100A40009F29A7960FB6F894DEBF0FBECDBFDF91EA
:100A5000CF911F91FF90EF90DF90CF90BF90AF901C
:100A60009F908F907F906F905F904F903F902F90CE
:100A70000895FC012081233091F02430A9F0223028
:100A800069F4EE5BFD4F2DE534E1318320838C5B0F
:100A90009D4F27EB37E0FC013183208308958C5B69
:100AA0009D4F22EF31E1F7CF8C5B9D4F2DE733E176
:100AB000F2CFFC01EE5BFD4F2AE831E13183208368
:100AC000DC012C912330A9F018F4223031F0089584
:100AD0002430B9F02530D1F0089522E834E1318393
:100AE00020838C5B9D4F25E632E1FC01318320831E
:100AF00008958C5B9D4F22E931E1DC012D933C93FD
:100B000008958C5B9D4F2DE733E1EFCF118210826A
:100B10008C5B9D4F2AE231E1F0CFFF920F931F9340
:100B2000CF93DF938C01EB01F42E62FF07C0C80165
:100B30000E945704882311F0CB7FC860E091C60162
:100B4000F091C7014F2DBE01C801DF91CF911F91D8
:100B50000F91FF900994FC01DC01AE5BBD4F84EF67
:100B60009DE011969C938E938081833009F441C05F
:100B700058F58230A1F1DF01A25BBD4F8D919C91B0
:100B800011979093C7018093C6018DE895E08D93EE
:100B90009C9383899489A589B689892B8A2B8B2B71
:100BA00009F043C084819581A681B7818830910581
:100BB000A105B10591F10B97A105B105B9F188EE39
:100BC00093E0A0E0B0E02DC0843021F1853099F6AB
:100BD0008DE09EE08D939C9383ED99E006C08EECB2
:100BE00095E18D939C9385EC96E1DF01AC5BBD4F65
:100BF0000EC08DE593E1DF01AC5BBD4F11969C9378
:100C00008E93878983FDB7CF8DE793E112968D93FD
:100C10009C93B1CF8DE793E1E8CF84E690E0A0E02C
:100C2000B0E0838B948BA58BB68B089584EF91E015
:100C3000A0E0B0E0F6CFCF93DF93EC0120E030E00E
:100C4000A901E99180ED8E0F8A3028F0CA01B9011F
:100C5000DF91CF910895AAE0B0E00E940E282E2FD8
:100C6000EE0F330B20533109032E000C440B550BB0
:100C7000260F371F481F591FE4CF0E9421026851D9
:100C80007C4F8F4F9F4F6093D7017093D801809313
:100C9000D9019093DA01089595B18095892385B99A
:100CA0000895662321F095B1892B85B908950C9498
:100CB0004C06CF92DF92EF92FF920F931F93CF9348
:100CC000DF9390910001992309F463C0D42F6B0145
:100CD000C82FE6EBF1E0649186E396E00E941A03E8
:100CE000E7EBF1E0649186E396E00E941A03E8EBFB
:100CF000F1E0649186E396E00E941A03E9EBF1E0EB
:100D0000649186E396E00E941A03ED2EF12CC70150
:100D10000296692F86E396E00E941A0362E06D0F47
:100D200086E396E00E941A036C2F86E396E00E9409
:100D30001A03EC2FF0E0EA54FF4FC4918601EC0C4B
:100D4000FD1C0E151F0579F0F801D1918F016D2F53
:100D500086E396E00E941A03ED2FEC27F0E0EA54B8
:100D6000FF4FC491EECF6C2F86E396E00E941A03EA
:100D70006AE086E396E00E941A0386E396E0DF913C
:100D8000CF911F910F91FF90EF90DF90CF900C9437
:100D90006703DF91CF911F910F91FF90EF90DF904C
:100DA000CF9008954F925F926F927F92AF92BF92D1
:100DB000CF92DF92EF92FF920F931F93CF93DF9327
:100DC00000D000D01F92CDB7DEB78C017C018DE141
:100DD000E80EF11C412C512C32016801A3EECA1A15
:100DE000ADEFDA0A5801B6EBAB1ABDEFBB0AF6015C
:100DF00080819181A281B381481659066A067B06DB
:100E000070F5D8011D964D915D916D917C91509733
:100E1000440D551D661D771DD501ED91FC91C8014E
:100E20000995F70191917F01891769F1D8011D9604
:100E30004D915D916D917C915097440E551E661EAB
:100E4000771E99838A836B825C824D8245E0BE0166
:100E50006F5F7F4F8FEA0E945906F80112820F9050
:100E60000F900F900F900F90DF91CF911F910F91E6
:100E7000FF90EF90DF90CF90BF90AF907F906F90FA
:100E80005F904F900895FFEF4F1A5F0A6F0A7F0A35
:100E9000AECFAF92BF92CF92DF92EF92FF920F93BD
:100EA0001F93CF93DF9300D000D0CDB7DEB78C0176
:100EB0006C0188EBC81A8DEFD80AD601ED91FC9130
:100EC00020E940E050E0BA01C80109955801B6EBAD
:100ED000AB1ABDEFBB0AD501ED91FC9140E050E0AB
:100EE000BA01C8010995E82EF12CFE2CEE24D5019B
:100EF000ED91FC9141E050E060E070E0C80109959F
:100F0000E82AD601ED91FC912FEF40E050E0BA01C4
:100F1000C8010995F801838D948D8E159F0591F078
:100F2000F982EA829B838C83878944E0BE016F5FEC
:100F30007F4F80FF16C083E80E94590682E0D801E7
:100F400012968C930F900F900F900F90DF91CF918E
:100F50001F910F91FF90EF90DF90CF90BF90AF90D7
:100F6000089589EB0E945906F8011282EBCF3F9257
:100F70004F925F926F927F928F929F92AF92BF92A9
:100F8000CF92DF92EF92FF920F931F93CF93DF9355
:100F9000CDB7DEB72B970FB6F894DEBF0FBECDBF2F
:100FA0008C014C018DE1880E911C412C512C320199
:100FB000D801A35EBD4FBF83AE83F801E85BFD4F50
:100FC000F987E887C801865B9D4F9B878A87EE81FA
:100FD000FF8180819181A281B381481659066A06FA
:100FE0007B0608F054C0D8011D96CD90DD90ED90A1
:100FF000FC905097C40CD51CE61CF71CF4013190F2
:101000004F01A885B985ED91FC91232DB701A6016B
:10101000C8010995EE81FF8180819181A281B38110
:101020000197A109B109B701A6014F73552766279A
:1010300077274F3351056105710531F0841595050A
:10104000A605B70509F03BC0A12C84E0B82E83E2C9
:1010500090E00197F1F7AA85BB85ED91FC91B7016E
:10106000A601C8010995381651F1B1E0AB1AB108D3
:1010700071F73982EA82DB82CC828D8345E0BE0142
:101080006F5F7F4F83EB0E945906F80112822B9607
:101090000FB6F894DEBF0FBECDBFDF91CF911F9189
:1010A0000F91FF90EF90DF90CF90BF90AF909F9007
:1010B0008F907F906F905F904F903F900895FFEFDB
:1010C0004F1A5F0A6F0A7F0A82CFCF92DF92EF92A8
:1010D000FF920F931F93CF93DF93EC018B010E943C
:1010E00021026B017C01C00ED11EE11CF11C8E019E
:1010F000065B1D4F0E9421026C157D058E059F0524
:1011000080F5D801ED91FC9140E050E0BA01CE01AC
:10111000099587FFEFCF84FF1DC040E070E060E0DD
:1011200084EB0E9459061A82FE01E85BFD4F019094
:10113000F081E02D2FEF40E050E0BA01CE0109959B
:1011400080E0DF91CF911F910F91FF90EF90DF90A2
:10115000CF90089583FF0AC040E070E060E085EB27
:10116000E0CF40E070E060E086EBDBCF81E0E9CFEC
:101170003F924F925F926F927F928F929F92AF9227
:10118000BF92CF92DF92EF92FF920F931F93CF9374
:10119000DF93EC018C01035E1F4FC12CD12C760133
:1011A0004C0183EE881A8DEF980A5E01A8EBAA1A0B
:1011B000ADEFBA0AF40180819181A281B381C81692
:1011C000D906EA06FB0640F54D845E846F84788874
:1011D0004C0C5D1C6E1C7F1CD8013D908D01D5010F
:1011E000ED91FC9120E4B301A201CE010995D50156
:1011F000ED91FC91232DB301A201CE01099566E981
:1012000070E0CE010E946508882331F0BFEFCB1A51
:10121000DB0AEB0AFB0ACECFDF91CF911F910F9132
:10122000FF90EF90DF90CF90BF90AF909F908F9006
:101230007F906F905F904F903F9008950F931F9312
:10124000CF93DF93EC01FC01E25BFD4F0190F08155
:10125000E02D41E068E870E0099564EF71E080E01E
:1012600090E00E94EF018E01085B1D4FD801ED91C7
:10127000FC9120E240E050E0BA01CE010995D8018E
:10128000ED91FC9120ED40E050E0BA01CE010995CE
:1012900068E97AE3CE01DF91CF911F910F910C9411
:1012A00065089F92AF92BF92CF92DF92EF92FF922A
:1012B0000F931F93CF93DF9300D000D0CDB7DEB74D
:1012C0008C01962E6C0182EBC81A8DEFD80AD601DC
:1012D000ED91FC9141E060E870E0C801099562E39E
:1012E00070E080E090E00E94EF01D601ED91FC916A
:1012F00041E062E070E0C801099564E670E080E0DA
:1013000090E00E94EF015801B6EBAB1ABDEFBB0AAB
:10131000D501ED91FC9140E050E0BA01C80109957A
:10132000E82EF12CFE2CEE24D501ED91FC9141E04C
:1013300050E060E070E0C8010995E82AD601ED911F
:10134000FC9140E062E870E0C8010995F801838DE6
:10135000948D8E159F0589F0F982EA829B838C8398
:10136000F2E044E0BE016F5F7F4F9F1216C083E83A
:101370000E945906D80112969C920F900F900F90E0
:101380000F90DF91CF911F910F91FF90EF90DF9021
:10139000CF90BF90AF909F90089589EB0E9459061F
:1013A000F8011282EACF60E00C9451095F926F92CB
:1013B0007F928F929F92AF92BF92CF92DF92EF92E5
:1013C000FF920F931F93CF93DF9300D000D01F9213
:1013D000CDB7DEB78C01C42E752E662E572ED22EB9
:1013E00080EDE82E87E0F82E93E2A92EB12C48017B
:1013F00086EB881A8DEF980AC5010197F1F7D401A1
:10140000ED91FC914C2D572D662D752DC801099538
:101410008D1541F1B1E0EB1AF10871F769827A821A
:10142000CB82DC828D8345E0BE016F5F7F4F82EB14
:101430000E945906F801128280E00F900F900F90E1
:101440000F900F90DF91CF911F910F91FF90EF9030
:10145000DF90CF90BF90AF909F908F907F906F90D4
:101460005F90089581E0E9CF2F923F925F926F9253
:101470007F928F929F92AF92BF92CF92DF92EF9224
:10148000FF920F931F93CF93DF93EC013C018DE10B
:10149000680E711C812C912C54018E01035E1D4F2E
:1014A0001E01A8EB2A1AADEF3A0AF801808191815A
:1014B000A281B38188169906AA06BB06D8F5CD8409
:1014C000DE84EF84F888C80CD91CEA1CFB1CD3010D
:1014D0005D903D01D101ED91FC91252DB701A60153
:1014E000CE010995D701C6010196A11DB11D8F73CB
:1014F0009927AA27BB27892B8A2B8B2B99F0F801D8
:1015000080819181A281B3810197A109B1098815D8
:101510009905AA05BB0531F0FFEF8F1A9F0AAF0AA4
:10152000BF0AC3CF252DB701A601CE010E94D6095F
:101530008111F2CFDF91CF911F910F91FF90EF902A
:10154000DF90CF90BF90AF909F908F907F906F90E3
:101550005F903F902F900895CF93DF93EC018F8998
:1015600087FF06C040E070E060E081E40E94590619
:101570009981892F8F738F5F907C892B898340E0BD
:1015800070E060E080E2DF91CF910C9459061092F8
:10159000000186E396E00E946703E6E3F6E0A28995
:1015A000B3898C918F7E8C93A289B3898C91877F2C
:1015B0008C93A289B3898C918F778C93A289B389FC
:1015C0008C918F7D8C93828D818F65E070E080E0BF
:1015D00090E00E94EF01509A0895589A5098E09137
:1015E0004606F091470682E08083E0914206F09142
:1015F00043061082E0914406F091450687E080831F
:1016000010924E06E0914A06F0914B0686E08083E8
:10161000E0914806F0914906808180618083E091E5
:101620004806F0914906808188608083E0914806F1
:10163000F0914906808180688083E0914806F091AE
:10164000490680818F7D808362E370E080E090E0D6
:101650000E94EF0186E396E00E94D802892B29F0D0
:1016600086E396E00E946902F5CF81E08093000155
:101670000895CF92DF92EF92FF920F931F93CF9333
:10168000DF938C01EB010E94C70ACE01F801099596
:101690000E94ED0A8A81813008F441C0833080F1D4
:1016A0008330E9F5FE01E35EFD4FC0800C2D118112
:1016B0007E01FDE1EF0EF11CF701D12CCF018E1957
:1016C0009F098017910718F48191D826F7CF612FD1
:1016D00086E396E00E941A036C2D86E396E00E9452
:1016E0001A036D2D86E396E00E941A03A801B70144
:1016F00086E396E00E942D0286E396E00E9467034F
:101700000E943D0681E08A8390E080E0DF91CF91E6
:101710001F910F91FF90EF90DF90CF9008958FEF82
:101720009FEFF4CFCF93DF93EC01FC01EC5BFD4F17
:1017300080819181009739F4898186FF0BC081E017
:10174000DF91CF910895BE010E94390B0196A1F758
:1017500080E0F6CFCE010E94AC0AF1CF8091D60195
:101760008F3F11F4809101010895CF93DF93EC0135
:101770000E94AE0B8230C0F08630D0F48D2F817085
:101780009C2F9E7D892B9E01369527953695279512
:101790002870822B25E0CC0FDD1F2A95E1F7C0725F
:1017A0008C2BDF91CF9108958D2F81708C2BF9CFE9
:1017B00080E0F7CFCF93DF931F92CDB7DEB7698379
:1017C00041E0BE016F5F7F4F0E9459060F90DF918D
:1017D000CF91089586E396E00C94690286E396E043
:1017E0000C94D8028EE480937C0062E070E080E08C
:1017F00090E00E94EF0180917A00806480937A00EB
:1018000080917A0086FDFCCF20917800609179006C
:1018100070E0762F6627072E000C880B990B622B41
:1018200008952F923F924F925F926F927F928F9284
:101830009F92AF92BF92CF92DF92EF92FF920F935F
:101840001F93CF93DF93CDB7DEB72F970FB6F894E2
:10185000DEBF0FBECDBFA090CE01B090CF01C09033
:10186000D001D090D101A986BA86CB86DC86C09003
:10187000D201D090D301E090D401F090D501C9827B
:10188000DA82EB82FC8281E08093060180E10E9493
:10189000B2019E878D870E94F20B6115710581054B
:1018A000910509F494C0CD28CE28CF2809F48FC023
:1018B0002B013C01770C4408542C3201A980BA80DA
:1018C000CB80DC80E12CF12C00E010E09B01AC012E
:1018D000642D742D842D942D0E948328722E632EE6
:1018E000542E452E962E872E382E292E69857A85E0
:1018F0008B859C85C980DA80EB80FC806C0D7D1D1A
:101900008E1D9F1D2CE434E040E050E00E94DB2857
:10191000ED84FE840F2C000C000B110B67015601A7
:101920006801E12CF12C8701A982BA82CB82DC828A
:10193000ED82FE820F831887E12CF12C00E010E08D
:101940000E948328298339874F875D87B62FA72F69
:10195000F82FE92F272D362D452D542D692D782D63
:10196000832D922D01E00E94672959016A017B01B4
:101970008C01298139854F855D856B2F7A2F8F2FBB
:101980009E2F0E948229A72CB62CC52CD42CE92C82
:10199000F82C032D122D0E940829C9012F960FB68D
:1019A000F894DEBF0FBECDBFDF91CF911F910F9195
:1019B000FF90EF90DF90CF90BF90AF909F908F906F
:1019C0007F906F905F904F903F902F90089580E0B0
:1019D00090E0E4CF4F925F926F927F92AF92BF926E
:1019E000CF92DF92EF92FF920F931F93CF93DF93EB
:1019F000CDB7DEB728970FB6F894DEBF0FBECDBFC8
:101A00008C010E94AE0B81111FC040E070E060E0CD
:101A100080E80E94590682E0D80112968C9328969D
:101A20000FB6F894DEBF0FBECDBFDF91CF911F91EF
:101A30000F91FF90EF90DF90CF90BF90AF907F908D
:101A40006F905F904F9008955801B2EBAB1ABDEFC5
:101A5000BB0AF50120813181F80184819581A6813D
:101A6000B78141E00B97A105B10529F0878960E8AE
:101A700071E084FF02C060E870E0C801F9010995D7
:101A800064E670E080E090E00E94EF010E94110C9B
:101A90006C012C01712C612CD8015196ED90FC90B9
:101AA000C701B0E0A0E08C509E4FAF4FBF4F8415F0
:101AB0009505A605B70508F04DC0B2E3CB0ED11CC5
:101AC000E2E3EE0EF11C198298EE692E93E0792E76
:101AD000C601B3010E9428286A831B82E4E6F0E075
:101AE000C601BF010E942828CB012AE030E0B901DD
:101AF0000E9428288C831D82C701B3010E942828D8
:101B00006E831F82C701BF010E942828CB01B90143
:101B10000E9428288887D80157968C9148E0BE01FA
:101B20006F5F7F4F80FF0FC082E80E94590682E0FE
:101B3000F8018283D501ED91FC9140E060E871E00D
:101B4000C80109956CCF88EB0E945906D8011296FE
:101B50001C92F0CF9701AFE5B0E00E94192824E66F
:101B600030E040E050E00E943C28421653066406F4
:101B7000750600F7B2E3CB0ED11CE2E3EE0EF11CCA
:101B8000198288EE682E83E0782EC601B3010E9488
:101B900028286A831B82E4E6F0E0C601BF010E94A8
:101BA0002828CB012AE030E0B9010E9428288C8344
:101BB0001D82C701B3010E9428286E831F82C701BE
:101BC000BF010E942828CB01B9010E9428288887DC
:101BD00048E0BE016F5F7F4F81E80E94590682E0B6
:101BE000D80112968C93A6CFCF93DF93EC010E947D
:101BF000EA0C8A81882371F08B8D9C8D892B51F0A2
:101C00006F89788D660F771F6270CE01DF91CF915B
:101C10000C945109DF91CF9108950C94EA0CBF9276
:101C2000CF92DF92EF92FF920F931F93CF93DF93A8
:101C3000CDB7DEB7C854D1090FB6F894DEBF0FBEDA
:101C4000CDBF7B01B42EFC0101900020E9F7319754
:101C50001E2F181B1F3008F01EE01983C12ED12C37
:101C6000A601BC01CE0102960E94B02AE2E0F0E09B
:101C7000EC0FFD1FEC0DFD1DE0828091FB0387FF43
:101C800008C042E0410FBE016F5F7F4F82E50E94B6
:101C9000590629E060EA71E0B21202C068E871E01A
:101CA000FB0101900020E9F731978F01061B170B0C
:101CB0000983A8015527CE0102960E94B02A80917F
:101CC000FB0387FF08C041E0400FBE016F5F7F4FFD
:101CD00083E50E94590689E0DE011196B8120AC018
:101CE0008CE7898380E28A8380E3F0FC81E38B8345
:101CF000DE011496FD0187E090E03CE740E230838E
:101D00004183B701082E02C0769567950A94E2F7E1
:101D100020E360FD21E32283019733968F3F9807EC
:101D200071F78CE758968C93589759961C92BE0180
:101D30006F5F7F4FFB0101900020E9F731971E2F65
:101D4000161B103208F01FE119A7412F50E0CE01F9
:101D50008A960E94B02A8091FB0387FF08C041E069
:101D6000410FBE01675D7F4F84E50E945906C85B45
:101D7000DF4F0FB6F894DEBF0FBECDBFDF91CF911E
:101D80001F910F91FF90EF90DF90CF90BF9008953B
:101D9000CF93DF93C82FCB01C230E9F0C83049F1AF
:101DA000C130B1F420910501261791F0609305012F
:101DB000D0E09FEF9AB98BB985B18C2B85B98C2F68
:101DC0000E944C06DD2321F08BE090E00197F1F7B3
:101DD000DF91CF910895209104012617C9F36093F4
:101DE00004012FEF2AB91BB800000000000000001A
:101DF000DFCF20910201309103012617370741F30D
:101E000028703327D1E0AB0148705527421753079C
:101E100008F0D0E090930301809302010E94B50B7B
:101E2000C8CF0E94C70A2D9A70E060E088E00E9447
:101E3000C80E70E060E081E00E94C80E70E060E0D3
:101E400082E00E94C80E1092E4030C94ED0ACF9237
:101E5000DF92EF92FF92CF93DF93EC016A017B0157
:101E6000642F70E081E00E94C80E6D2D70E082E06A
:101E70000E94C80EA7014177552728858EE891E07A
:101E8000203210F08EE890E0609102017091030121
:101E900068237923642B752B2C3109F4606188E069
:101EA000DF91CF91FF90EF90DF90CF900C94C80E10
:101EB000CF92DF92EF92FF920F931F93CF93DF9316
:101EC000EC017C018EEBE81A8DEFF80AF701118224
:101ED00010828E010C5B1D4FF801118210826E0181
:101EE000FAEBCF1AFDEFDF0AF6011182108288812A
:101EF000823009F448C0863009F448C0813029F4A2
:101F000081ED93E0F801918380838EE990E1FE01F9
:101F1000E65BFD4F9183808380E790E13297918368
:101F2000808387E29FE034969183808380E690E10E
:101F300032969183808381E394E03296918380830B
:101F400040E050E0BA01CE010E94270F8C819D81B4
:101F5000AE81BF8180319105A105B105A9F58CE362
:101F600094E0F601918380838881833051F188F475
:101F70008230E1F0DF91CF911F910F91FF90EF90B0
:101F8000DF90CF90089587E893E0BCCF82ED96E094
:101F9000B9CF843039F1853069F7F70111821082A9
:101FA000F6011182108289E497E007C085EB94E185
:101FB000F7019183808388EB98E0F8019183808317
:101FC000D9CF8EE199E0F9CF8D309105A105B1050A
:101FD000A1F41B8A1C8A1D8A1E8A8881823029F0FE
:101FE000843041F68DE793E1E8CF86EF95E1F70184
:101FF0009183808384E39AE0E0CF86309105A10548
:10200000B10559F4CE01DF91CF911F910F91FF904F
:10201000EF90DF90CF900C94590585309105A10584
:10202000B10551F085339105A105B10529F089333A
:102030009105A105B10559F4CE01DF91CF911F9112
:102040000F91FF90EF90DF90CF900C943905AC0189
:10205000BD014750510961097109423051056105BF
:10206000710528F08B309105A105B10559F4CE0119
:10207000DF91CF911F910F91FF90EF90DF90CF9064
:102080000C94AB058E309105A105B10509F472CF12
:102090008797A109B1090397A105B10508F46ACF93
:1020A0006B81613021F3643009F464CF633009F44B
:1020B000A9CF653009F28EEA0E94DA0B1A825ACF54
:1020C0008091020190910301442329F0682B792B20
:1020D00088E00C94C80E6095709568237923F8CF3A
:1020E0001F93CF93DF93EC01122F2A9A20E00E94D6
:1020F0007504AB01BC01FE01E45BFD4F0190F08172
:10210000E02DCE0109958FEF8AB91BB987E090E0E9
:102110000197F1F780E20E944C068B899C898230FE
:10212000910538F0880F991F880F991F059701971F
:10213000F1F72D9ADF91CF911F910895CF92DF9201
:10214000EF92FF92CF93DF93EC016A017B0184E071
:102150000E944C0621E0B701A601CE010E94750441
:10216000AB01BC01FE01E45BFD4F0190F081E02D6D
:10217000CE0109951BB81AB880E20E944C0687E090
:1021800090E00197F1F789B12D9ADF91CF91FF90FF
:10219000EF90DF90CF9008951BB81AB880E20E94AC
:1021A0004C0684E00E944C0689B12D9A2A9A089523
:1021B0007F928F929F92AF92BF92CF92DF92EF92D7
:1021C000FF920F931F93CF93DF938C017B015A01F2
:1021D0006C0182EBC81A8DEFD80AD601ED91FC9103
:1021E00040E060E470E0C8010995E701F12CE12CC2
:1021F00088248A947C80688199808AB870E081E024
:102200000E94C80E692D70E082E00E94C80E8AB854
:102210007BB82A9A80E20E944C062D9ABFEFEB1AF7
:10222000FB0A2596AE14BF0429F7D601ED91FC9167
:1022300040E060E470E0C801DF91CF911F910F9101
:10224000FF90EF90DF90CF90BF90AF909F908F90D6
:102250007F900994CF92DF92EF92FF920F931F939A
:10226000CF93DF9300D000D0CDB7DEB78C0143E031
:1022700050E067E671E00E94D810680186EBC81A4A
:102280008DEFD80AD601ED91FC9140E050E0BA0103
:10229000C8010995E82EF12CFE2CEE24D601ED9113
:1022A000FC9141E050E060E070E0C8010995E82A47
:1022B00043E050E068E571E0C8010E94D810F801E1
:1022C000838D948D8E159F0591F0F982EA829B8310
:1022D0008C83878944E0BE016F5F7F4F80FF14C00D
:1022E00083E80E94590682E0D80112968C930F90E1
:1022F0000F900F900F90DF91CF911F910F91FF9052
:10230000EF90DF90CF90089589EB0E945906F80175
:102310001282EDCFFC01238D348D232B11F00C9410
:102320002A110895CF92DF92EF92FF920F931F939D
:10233000CF93DF93CDB7DEB76E970FB6F894DEBFBD
:102340000FBECDBFFC01058516852785308946E087
:1023500050E06AE371E0011511052105310589F1AD
:1023600045E555E560E070E049835A836B837C83E3
:10237000FAEAFD83EAEACE2EEAE2DE2EE12CF12C27
:10238000CE82DF82E886F986E5E5EA874B875C87BF
:102390006D877E87A0E8AF87488B598B6A8B7B8BD4
:1023A000FC8BCD8ADE8AEF8AF88EE98F40E34E8F70
:1023B0000A8F1B8F2C8F3D8F46E050E0BE016F5F70
:1023C0007F4F0E94D8106E960FB6F894DEBF0FBEF6
:1023D000CDBFDF91CF911F910F91FF90EF90DF90D4
:1023E000CF900895EF92FF920F931F93CF93DF93B7
:1023F000EC0121E040E050E0BA010E947504AB011D
:10240000BC017E0184EBE81A8DEFF80AD701ED914B
:10241000FC91CE0109952D9A8E01025B1D4FD801CA
:10242000ED91FC9140E064E871E0CE01099562E035
:1024300070E080E090E00E94EF0180E20E944C0694
:10244000D801ED91FC9141E064E871E0CE0109957D
:1024500062E070E080E090E00E94EF0120E040E068
:1024600050E0BA01CE010E947504AB01BC01D70156
:10247000ED91FC91CE01099564E170E080E090E07F
:102480000E94EF0121E040E050E0BA01CE010E943D
:102490007504AB01BC01D701ED91FC91CE0109950A
:1024A00062E070E080E090E00E94EF012D9AD80198
:1024B000ED91FC9140E064E871E0CE01DF91CF91B5
:1024C0001F910F91FF90EF9009942F923F924F929E
:1024D0005F926F927F928F929F92AF92BF92CF92B4
:1024E000DF92EF92FF920F931F93CF93DF9300D071
:1024F0001F92CDB7DEB79B838A838C01412C512C70
:1025000032011C0123EE221A2DEF320A4C0188EB16
:10251000881A8DEF980A580192EBA91A9DEFB90A13
:10252000F10180819181A281B381481659066A0622
:102530007B0608F061C043E050E06BE271E08A8105
:102540009B810E94D810AA81BB811D964D915D91FF
:102550006D917C915097440D551D661D771DD401DA
:10256000ED91FC91D8015D962C918A819B81099512
:10257000F801F58DF983D501ED91FC9141E060E41E
:1025800070E08A819B8109950E9421026B017C0188
:10259000B6E9CB0ED11CE11CF11C0E9421026C1586
:1025A0007D058E059F05E8F40E94CC10E9818E27F9
:1025B00087FDF3CF0E94CC10F9818F2787FDEDCFE7
:1025C0002FEF2AB92D9A2A9A0F5F1F4FEA81FB81BC
:1025D0008281882389F0FFEF4F1A5F0A6F0A7F0A12
:1025E0009FCF40E070E060E087EB0E945906AA812F
:1025F000BB8112961C92E8CF0F900F900F90DF9145
:10260000CF911F910F91FF90EF90DF90CF90BF90EF
:10261000AF909F908F907F906F905F904F903F9082
:102620002F9008950F931F93CF93DF93EC012A9A75
:102630008C01025B1D4FD801ED91FC9141E060E8F7
:1026400070E0099564E670E080E090E00E94EF01A0
:10265000FE01E45BFD4F0190F081E02D40E050E091
:10266000BA01CE010995D801ED91FC9141E066E0F7
:1026700070E0CE01099564E670E080E090E00E9491
:10268000EF0180E20E944C068B899C898230910583
:1026900038F0880F991F880F991F05970197F1F758
:1026A0002D9AD801ED91FC9140E066E870E0CE01F2
:1026B000DF91CF911F910F9109940C941213FF9207
:1026C0000F931F93CF93DF938C01C0E3D0E0F80109
:1026D000F1908F01CE010E94F827F81621F06F2D9E
:1026E000CE010E9400282196CF33D10581F7DF91DA
:1026F000CF911F910F91FF9008954F925F926F922B
:102700007F92AF92BF92CF92DF92EF92FF920F93A0
:102710001F93CF93DF93CDB7DEB728970FB6F8940A
:10272000DEBF0FBECDBF8C01DC0111969C911197CD
:102730001D96CD90DD90ED90FC90509796FD51C088
:10274000906411969C9384E090E00E948B29F8019C
:10275000E05CFD4F91838083FC01C082D182E282E4
:10276000F382D8011D961D921D921D921C925097C6
:10277000F801C584D684E784F08826013701F8E0A3
:102780005F0E611C711C580186EBA81A8DEFB80A08
:10279000F80181859285A385B485C414D504E60427
:1027A000F70408F05FC0C816D906EA06FB0608F071
:1027B00059C0D501ED91FC91B701A601C801099559
:1027C0008F3F09F449C0E982DA82CB828C8344E0EE
:1027D000BE016F5F7F4F80EB0E945906F8011282A5
:1027E00026C0F8014185528563857485C416D506D7
:1027F000E606F70608F4BCCF7801F0ECEF1AFDEF1F
:10280000FF0AD7012D913C919F7BF8019183F9013B
:1028100080819181A281B381F80185879687A787FE
:10282000B08BC9010E94272AD7011D921C922896BD
:102830000FB6F894DEBF0FBECDBFDF91CF911F91D1
:102840000F91FF90EF90DF90CF90BF90AF907F906F
:102850006F905F904F900895FFEFCF1ADF0AEF0A55
:10286000FF0A96CFF8014585568567857089585FC0
:102870006F4F7F4F84179507A607B707C8F04587A6
:1028800056876787708BF80125853685478550897F
:1028900059834A833B832C83BD83AE839F83888780
:1028A00048E0BE016F5F7F4F80EE0E945906BFCFA8
:1028B00085879687A787B08BE6CFCF93DF93EC0110
:1028C000898186FD0BC08A818823C9F08F8981FFA9
:1028D00005C082FD0BC0CE010E94F2118F8983FDDD
:1028E0000EC0CE01DF91CF910C947D1387FFF6CF00
:1028F00040E070E060E088E50E945906EFCFDF918C
:10290000CF910895CF93DF93EC01898186FD07C0B5
:102910008B8D9C8D892B59F48F8981FD11C08F89F6
:1029200083FD0BC0CE01DF91CF910C947D13CE01BE
:102930000E942A118A818111EFCFDF91CF910895F2
:1029400082FD0AC0CE010E94921169E670E080E02B
:1029500090E00E94EF01E3CF87FFE1CF40E070E01D
:1029600060E089E50E945906DACF4F925F926F923C
:102970007F92AF92BF92CF92DF92EF92FF920F932E
:102980001F93CF93DF93CDB7DEB728970FB6F89498
:10299000DEBF0FBECDBF8C015C0182EBA81A8DEFAC
:1029A000B80AD501ED91FC9141E068E870E0C801FA
:1029B000099564EF71E080E090E00E94EF010E94D1
:1029C000AE0B81112AC040E070E060E080E80E9418
:1029D000590682E0F8018283F80182818111BFC02B
:1029E000D501ED91FC9140E068E870E0C8010995DF
:1029F00028960FB6F894DEBF0FBECDBFDF91CF9102
:102A00001F910F91FF90EF90DF90CF90BF90AF900C
:102A10007F906F905F904F9008950E94110C6C0111
:102A20002C01712C612CD8015196ED90FC90C701BE
:102A3000B0E0A0E08C509E4FAF4FBF4F841595057E
:102A4000A605B70508F040C0B2E3CB0ED11CE2E307
:102A5000EE0EF11C198298EE692E93E0792EC601D4
:102A6000B3010E9428286A831B82E4E6F0E0C601D5
:102A7000BF010E942828CB012AE030E0B9010E9462
:102A800028288C831D82C701B3010E9428286E83E9
:102A90001F82C701BF010E942828CB01B9010E94F3
:102AA00028288887D80157968C9148E0BE016F5F2F
:102AB0007F4F80FF02C082E88ACF88EB0E945906D0
:102AC000D80112961C9288CF9701AFE5B0E00E9422
:102AD000192824E630E040E050E00E943C284216ED
:102AE00053066406750608F077CFB2E3CB0ED11C0F
:102AF000E2E3EE0EF11C198288EE682E83E0782E58
:102B0000C601B3010E9428286A831B82E4E6F0E034
:102B1000C601BF010E942828CB012AE030E0B9019C
:102B20000E9428288C831D82C701B3010E94282897
:102B30006E831F82C701BF010E942828CB01B90103
:102B40000E942828888748E0BE016F5F7F4F81E898
:102B50000E94590682E0D80112968C933DCF838D56
:102B6000948D892B49F0C8010E944907D80112961B
:102B70008C91882309F434CFF801878981FF05C03F
:102B800082FD03C0C8010E941E09D80157968C918E
:102B900083FD2ECFC8010E947D132ACFCF93DF93F0
:102BA000EC01898186FD0EC0CE010E94F40D8A8160
:102BB0008823C9F08F8981FF05C082FD0BC0CE013B
:102BC0000E9412138F8983FD0EC0CE01DF91CF9139
:102BD0000C947D1387FFF6CF40E070E060E088E55D
:102BE0000E945906EFCFDF91CF9108954F925F92E7
:102BF0006F927F92AF92BF92CF92DF92EF92FF924D
:102C00000F931F93CF93DF9300D000D0CDB7DEB7E3
:102C10008C01DC015B968D919C91892B21F546E01E
:102C200050E06DE071E0C8010E94D81020E245E557
:102C300055E560E070E0C8010E94D60981119DC091
:102C40000F900F900F900F90DF91CF911F910F91E8
:102C5000FF90EF90DF90CF90BF90AF907F906F90FC
:102C60005F904F900895F80181859285A385B48582
:102C700080349105A105B10590F4278919821A8243
:102C80001B828C8344E0BE016F5F7F4F84E820FD90
:102C900066C08AEB0E945906F801128266C068017C
:102CA000F2EBCF1AFDEFDF0AD601ED91FC9141E086
:102CB00060E870E0C801099562E370E080E090E0B0
:102CC0000E94EF01D601ED91FC9141E062E070E0DD
:102CD000C801099564E670E080E090E00E94EF0191
:102CE000F8014184528463847484B301A201405486
:102CF0005109610971095801F6EBAF1AFDEFBF0ADE
:102D0000D501ED91FC91C8010995E82EF12CFE2C1E
:102D1000EE24B301A2014F53510961097109D50194
:102D2000ED91FC91C8010995E82AD601ED91FC913D
:102D300040E062E870E0C8010995F801838D948D48
:102D4000E816F90691F0F982EA829B838C838789E1
:102D500044E0BE016F5F7F4F80FF0DC083E80E949B
:102D6000590682E0D80112968C93D80112968C9164
:102D7000811155CF65CF89EB8DCFF801878983FD10
:102D80005FCFC8010E947D135BCF2F923F924F927D
:102D90005F926F927F928F929F92AF92BF92CF92EB
:102DA000DF92EF92FF920F931F93CF93DF93CDB7F4
:102DB000DEB7C255D1090FB6F894DEBF0FBECDBF46
:102DC0008C01FC01E05BFD4F0190F081E02D60E89B
:102DD00070E009959801225B3D4F29963FAF2EAFD9
:102DE000299781111DC0D9012D913C91F801848151
:102DF0009581A681B78141E00B97A105B10529F026
:102E0000878960E871E084FF02C060E870E0C80173
:102E1000F901099564EF71E080E090E00E94EF0114
:102E200040E450E06FEF70E09E012F5F3F4FC9011B
:102E30000E94B92AD80153964D905D906D907C9078
:102E400056972D964CAE5DAE6EAE7FAE2D97312C63
:102E5000212CF801E35EFD4F2F96FFAFEEAF2F97C9
:102E60009801285B3D4F63963FAF2EAF6397A80153
:102E7000465B5D4F61965FAF4EAF61972996AEADF1
:102E8000BFAD2997ED91FC9141E064E070E0C8018D
:102E900009956AE070E080E090E00E94EF0178011F
:102EA000812C912C54012F96EEADFFAD2F97808190
:102EB0009181A281B38188169906AA06BB06C8F53E
:102EC000D501C40123E0B695A795979587952A95D6
:102ED000D1F721E030E02C0F3D1F820F931FDC0162
:102EE0008C9190E094012770332702C095958795C7
:102EF0002A95E2F780FF14C0F8014585568567855D
:102F00007089480D591D6A1D7B1D6396AEADBFAD1E
:102F10006397ED91FC91D7015D962C91C8010995BD
:102F2000BFEF8B1A9B0AAB0ABB0AEFEFEE1AFE0A41
:102F3000BACF2996AEADBFAD2997ED91FC9140E097
:102F400064E070E0C80109954801BDE18B0E911C59
:102F5000C12CD12C7601B12CA12C2F96EEADFFAD5A
:102F60002F9780819181A281B381C816D906EA0684
:102F7000FB0608F041C0D8011D964D915D916D9101
:102F80007C9150974C0D5D1D6E1D7F1D6196AEAD01
:102F9000BFAD6197ED91FC91C8010995F401A19134
:102FA0004F01B701A60193E0769567955795479530
:102FB0009A95D1F7E1E0F0E0EC0FFD1FE40FF51F6B
:102FC00096012770332741E050E002C0440F551F9F
:102FD0002A95E2F79A0190818A1759F05FEFA51AB6
:102FE000B50A292B20838FEFC81AD80AE80AF80AF5
:102FF000B4CF20952923F6CFA114B10459F521149B
:10300000310449F0D80157968C9187FF04C0622D96
:1030100081E50E94DA0BF801438A548A658A768A30
:10302000CE5ADF4F0FB6F894DEBF0FBECDBFDF9193
:10303000CF911F910F91FF90EF90DF90CF90BF90B5
:10304000AF909F908F907F906F905F904F903F9048
:103050002F900895FFEF2F1A3F0A2D966CAD7DAD8E
:103060008EAD9FAD2D9724E130E040E050E00E940E
:103070003C28240D351D461D571DD80153962D9310
:103080003D934D935C9356972D962CAD3DAD4EAD33
:103090005FAD2D97240D351D461D571D2D962CAF68
:1030A0003DAF4EAF5FAF2D9734E12316310409F0E9
:1030B000E5CE2996AEADBFAD2997ED91FC9140E0EC
:1030C00060E870E0C8010995F80185859685278537
:1030D00022962FAF229723969FAF239724968FAFE8
:1030E000249784E125968FAF25972696BFAE269725
:1030F0002796AFAE279746E0BE016F5B7F4F81EB0F
:103100000E945906D80112961C928ACF4F925F9264
:103110006F927F92AF92BF92CF92DF92EF92FF9227
:103120000F931F93CF93DF9300D000D01F92CDB7A2
:10313000DEB76C010E94EE0B181619060CF0CFC01A
:103140000E94EE0B181619060CF0C9C086E396E033
:103150000E94CA028434910509F443C08F3491055A
:10316000D1F0839709F0B8C00E94EE0B04970CF4DD
:10317000B6C00E94EA0B76012DE1E20EF11C62E07E
:1031800070E0CE0101960E947D02029709F442C0D0
:103190009FEF8FEF87C00E94EE0B02970CF49FC049
:1031A0000E94EA0B86E396E00E94CA028B349105E6
:1031B00039F60E94EA0B90E080E00F900F900F909C
:1031C0000F900F90DF91CF911F910F91FF90EF9093
:1031D000DF90CF90BF90AF907F906F905F904F90B7
:1031E00008950E94EE0B04970CF479C064E070E03F
:1031F000CE0101960E947D0244E050E068E072E05A
:10320000CE0101960E94EA27892B09F099CF81E02F
:1032100090E0D3CFA980BA80BA24AB24BA2461E06D
:1032200070E0CE0105960E947D02019709F0B0CFB3
:103230009EEF81E0A81682E0B80608F0AACF0E94AF
:1032400021022B013C0110E000E00A151B0558F09B
:10325000F7019701200F311F80E0E217F307C9F053
:1032600091918927FACF0E94210264197509860974
:103270009709613D774081059105A0F5B501601B77
:10328000710BC701800F911F0E947D02080F191F4B
:10329000DCCF9D81891711F09CEF7BCF902F812F80
:1032A00017FF0CC089839A8342E0BE016F5F7F4F96
:1032B00089EA0E94590684E090E07FCFF601E35E40
:1032C000FD4F012E000C220B330B00831183228350
:1032D000338382E090E071CF0E94EA0B31CF83E02C
:1032E00090E06BCF9DEF55CF0F931F93CF93DF935C
:1032F000EC014D855E856F85788989859A85AB85DA
:10330000BC85481759076A077B0720F0CE010E9449
:10331000AC0A12C0CE010E9486188330910591F448
:10332000898187FD09C040E070E060E082E00E9492
:10333000590689818068898381E0DF91CF911F914F
:103340000F91089529812F77298381309105F1F21A
:10335000029711F080E0F1CF8E01035E1D4F8D8545
:103360009E85AF85B889F801408151816281738162
:10337000840F951FA61FB71F49855A856B857C85CD
:10338000481759076A077B0738F440E070E060E0AF
:1033900087EA0E945906DECFFE01EC5BFD4F80817B
:1033A00091810097B9F2BE010E94390B019691F20A
:1033B0008D859E85AF85B889F801408151816281F4
:1033C0007381840F951FA61FB71F8D879E87AF87B8
:1033D000B88BB2CFCF92DF92EF92FF92CF93DF9371
:1033E000EC010E9421026B017C0128EEC20E23E059
:1033F000D21EE11CF11C0E9421026C157D058E0578
:103400009F0570F4CE010E948618009789F00497FA
:1034100069F06AE070E080E090E00E94EF01EBCF9D
:1034200040E070E060E088EA0E94590680E001C058
:1034300081E0DF91CF91FF90EF90DF90CF900895E2
:103440000F931F93CF93DF938C01EB018091E503E2
:103450008F7390E09B01215031098217930731F05F
:103460008617970779F181E090E008C084EE93E039
:103470000E94EA19811107C08FEF9FEFDF91CF9172
:103480001F910F9108958091FB039091FC03A091EF
:10349000FD03B091FE0380789927AA27BB27C1308E
:1034A000D105D1F4892B8A2B8B2B31F040E070E0D1
:1034B00060E082E40E9459068091E503807C8C2BB9
:1034C0008093E5030115110581F48091E50386FFE2
:1034D00014C090E080E0D2CF892B8A2B8B2B61F334
:1034E00040E070E060E083E4E5CF64EE73E0C801A3
:1034F0000E94390B019649F7BFCF40E070E060E0D1
:1035000080E1219709F080E30E9459069091E5033C
:10351000892F8F738F5F907C892B8093E503A3CFD6
:10352000CF93DF932091280630912906232B71F049
:10353000EC019091E5039F73963051F484EE93E093
:103540000E94861821E0039709F443C020E041C09F
:103550009330F9F0923019F584EE93E00E94EA1965
:103560008823D9F10E943D069091E503907C9360F9
:103570009093E5038091FB0387FF06C040E070E075
:1035800060E080E40E9459068091E5038F738330E8
:1035900039F584EE93E0FE01DF91CF91099461E06B
:1035A00070E080912606909127060E94201A8130B3
:1035B000910559F465E070E080912A0690912B0600
:1035C0000E94201A81309105F9F221E0892B09F03F
:1035D000BDCF822FDF91CF9108958FEF9FEFF5CF71
:1035E00021E0F7CFCF92DF92EF92FF920F931F93DC
:1035F000CF93DF93FC01EC5BFD4F208131812115DE
:10360000310559F410E0812FDF91CF911F910F9177
:10361000FF90EF90DF90CF900895EC01BC01C901BD
:103620000E94390B019671F340E070E060E082EE99
:103630000E94590680910001882309F462C0FE01AE
:10364000E35EFD4FE080F1808EEFE8168FEFF80625
:1036500008F057C0E6EBF1E0649186E396E00E9443
:103660001A03E7EBF1E0649186E396E00E941A0307
:10367000E8EBF1E0649186E396E00E941A03E9EB3F
:10368000F1E0649186E396E00E941A0387010E5FE1
:103690001F4F612F86E396E00E941A03602F86E396
:1036A00096E00E941A0366EE86E396E00E941A03F3
:1036B000ECE9F1E004916E01C6018C1B9D0B8E15A7
:1036C0009F0588F4F601158D612F86E396E00E9430
:1036D0001A03E12FE027F0E0EA54FF4F0491FFEFD7
:1036E000CF1ADF0AE9CF602F86E396E00E941A0323
:1036F0006AE086E396E00E941A0386E396E00E9461
:103700006703CE010E94EA19182F882309F47ACFA3
:103710008D859E85AF85B889FE01E35EFD4F4081B2
:10372000518162817381840F951FA61FB71F8D87FA
:103730009E87AF87B88B49855A856B857C858417B2
:103740009507A607B70708F45ECFCE010E94AC0A22
:103750005ACFEF92FF920F931F93CF93DF93FB010A
:10376000208131812430310539F58A01EB017C015A
:10377000CA010E94E127EA81FB812C813D812E1B39
:103780003F0B82179307C1F4AC01B801C7018E0F3C
:103790009F1F0E94EA2721E030E0892B11F430E0DE
:1037A00020E088279927821B930BDF91CF911F91EF
:1037B0000F91FF90EF9008958FEF9FEFF6CFEF926C
:1037C000FF920F931F93CF93DF938C01EB0183E064
:1037D000CC0FDD1F8A95E1F7CE018C519E4F7C0105
:1037E0004EE752E0BC01C8010E94A91B892B41F0A1
:1037F00048E752E0B701C8010E94A91B892B81F458
:10380000C451DE4F8A819B81800F911F0E941B064D
:10381000862FDF91CF911F910F91FF90EF90089528
:103820008FEFF7CFEF92FF920F931F93CF93DF931A
:103830007C01890183E0440F551F8A95E1F7EB0174
:10384000C40FD51F4EEF51E0BE01C7010E94A91B56
:10385000892B99F48A859B858E0D9F1D0E941B06DE
:10386000F801648375838683978381E0DF91CF912C
:103870001F910F91FF90EF90089580E0F7CFEF92A6
:10388000FF920F931F93CF93DF937C01890183E015
:10389000440F551F8A95E1F7EB01C40FD51F47EF81
:1038A00051E0BE01C7010E94A91B892B89F48A85BA
:1038B0009B858E0D9F1D0E941B06F801728B618BEC
:1038C00081E0DF91CF911F910F91FF90EF900895CC
:1038D00080E0F7CFEF92FF920F931F93CF93DF9388
:1038E0007C01890183E0440F551F8A95E1F7EB01C4
:1038F000C40FD51F4BEE51E0BE01C7010E94A91BAA
:10390000892B99F48A859B858E0D9F1D0E941B062D
:10391000F801638B748B858B968B81E0DF91CF915F
:103920001F910F91FF90EF90089580E0F7CFEF92F5
:10393000FF920F931F93CF93DF937C01890183E064
:10394000440F551F8A95E1F7EB01C40FD51F46EED2
:1039500051E0BE01C7010E94A91B892B81F48A8511
:103960009B858E0D9F1D0E941B06F801638381E0DD
:10397000DF91CF911F910F91FF90EF90089580E01C
:10398000F7CFEF92FF920F931F93CF93DF937C01BA
:10399000890183E0440F551F8A95E1F7EB01C40FBD
:1039A000D51F4CED51E0BE01C7010E94A91B892B18
:1039B00081F48A859B858E0D9F1D0E941B06F80150
:1039C000608781E0DF91CF911F910F91FF90EF9081
:1039D000089580E0F7CFEF92FF920F931F93CF935C
:1039E000DF937C01890183E0440F551F8A95E1F73D
:1039F000EB01C40FD51F44ED51E0BE01C7010E9489
:103A0000A91B892B89F48A859B858E0D9F1D0E9499
:103A10001B06F801748F638F81E0DF91CF911F91B6
:103A20000F91FF90EF90089580E0F7CFEF92FF9213
:103A30000F931F93CF93DF937C01890183E0440FA1
:103A4000551F8A95E1F7EB01C40FD51F4CEC51E0EF
:103A5000BE01C7010E94A91B892B99F48A859B8509
:103A60008E0D9F1D0E941B06F8016587768787874C
:103A7000908B81E0DF91CF911F910F91FF90EF909C
:103A8000089580E0F7CFEF92FF920F931F93CF93AB
:103A9000DF937C01890183E0440F551F8A95E1F78C
:103AA000EB01C40FD51F40EC51E0BE01C7010E94DD
:103AB000A91B892B99F48A859B858E0D9F1D0E94D9
:103AC0001B06F801618772878387948781E0DF9105
:103AD000CF911F910F91FF90EF90089580E0F7CF65
:103AE000EF92FF920F931F93CF93DF937C01890195
:103AF00083E0440F551F8A95E1F7EB01C40FD51FF2
:103B00004AEB51E0BE01C7010E94A91B892B99F421
:103B10008A859B858E0D9F1D0E941B06F801678B71
:103B2000708F818F928F81E0DF91CF911F910F91E4
:103B3000FF90EF90089580E0F7CF1F920F920FB69D
:103B40000F9211242F933F938F939F93AF93BF9323
:103B50008091DC019091DD01A091DE01B091DF0147
:103B60003091DB0123E0230F2D3758F50196A11D7D
:103B7000B11D2093DB018093DC019093DD01A093C4
:103B8000DE01B093DF018091E0019091E101A0910D
:103B9000E201B091E3010196A11DB11D8093E00106
:103BA0009093E101A093E201B093E301BF91AF9143
:103BB0009F918F913F912F910F900FBE0F901F906B
:103BC000189526E8230F0296A11DB11DD2CF1F9292
:103BD0000F920FB60F9211242F933F934F935F9341
:103BE0006F937F938F939F93AF93BF93EF93FF93C5
:103BF00086E396E00E94F802FF91EF91BF91AF91AA
:103C00009F918F917F916F915F914F913F912F91F4
:103C10000F900FBE0F901F9018951F920F920FB626
:103C20000F9211242F938F939F93EF93FF93E09123
:103C30004606F09147068081E0914C06F0914D06D2
:103C400082FD1BC0908180914F068F5F8F73209102
:103C50005006821741F0E0914F06F0E0EA5CF94F20
:103C6000958F80934F06FF91EF919F918F912F91A8
:103C70000F900FBE0F901F9018958081F4CFCF93B7
:103C8000DF93CDB7DEB7E2970FB6F894DEBF0FBE75
:103C9000CDBF789484B5826084BD84B5816084BDD5
:103CA00085B5826085BD85B5816085BD80916E00DA
:103CB000816080936E00109281008091810082600B
:103CC0008093810080918100816080938100809148
:103CD00080008160809380008091B1008460809337
:103CE000B1008091B00081608093B00080917A0033
:103CF000846080937A0080917A00826080937A0059
:103D000080917A00816080937A0080917A00806847
:103D100080937A001092C10028ECE22E21E0F22E6E
:103D200000E310E0C8010E94F827D7018D937D01C0
:103D30000F5F1F4F0F331105A9F76CE871E088EC96
:103D400091E00E94C02A892B29F16CE871E088EC8F
:103D500091E00E94C92A80EB9EE1A4E0B0E080934C
:103D6000CE019093CF01A093D001B093D10180EE0A
:103D70009BEAA0E0B0E08093D2019093D301A0939E
:103D8000D401B093D5018FEF8093D60188EC91E0F8
:103D90000E945F1381E10E948A0180E10E948A01F2
:103DA00098E0F92E10E000E081E10E94B201080FD6
:103DB000191FFA94F110F8CF83E0169507958A95AC
:103DC000E1F782E0083C110538F0C8018C5D9109EB
:103DD0008C37914020F485E0809301010EC08EEF76
:103DE00008351240C8F380E10E94B20121E0883E0C
:103DF00093400CF020E020930101809101018E3F5F
:103E000041F48091D6018F3F21F46EEF8BE50E9443
:103E1000DA0B8FE284B980E185B92D9A2A9A70E095
:103E200060E081E00E94C80E70E060E082E00E94E5
:103E3000C80E70E060E088E00E94C80E0E94ED0AA3
:103E40001092E4038091E403882309F435C00E94B2
:103E500021020091D7011091D8012091D901309110
:103E6000DA01061717072807390730F56091E403D0
:103E70008AEA0E94DA0B0E94110F81E08093E60328
:103E80006091E403603110F00C94AA27E62FF0E073
:103E9000E45BF04E0C947D289A1FEF24FA24FD2455
:103EA00008250B25FA249B26DD25AA27AA271625F7
:103EB0001625AE258927D1258091E4038111DDCF18
:103EC0000E94EE0B18161906ACF586E396E00E94E8
:103ED000CA028B37910509F07FC581E08093E60324
:103EE0001092E50360E072E081E094E00E947D02C0
:103EF000AC0170E060E040930106509302066093CD
:103F000003067093040610E8E12EF12C00E010E0A7
:103F1000E092FB03F092FC030093FD031093FE0379
:103F2000452B462B472B99F440E070E060E084EA93
:103F30000E94590680E090E0892B09F483CF0E940B
:103F4000E402882309F47ECF0E9400007BCFFC01AD
:103F5000EC51FC4F158E6FEF7FEF30E020E050E02A
:103F600040E0512C412CA4E0CA2ED12C481759070F
:103F700030F4FA01EF5FFB4FE081E1113DC0C90170
:103F8000019713E0220F331F1A95E1F7F901E2526E
:103F9000FE4F97FF51C2141415040CF02EC18FEF81
:103FA0008093E4031092FB031092FC031092FD0334
:103FB0001092FE03F12C10E000E0B80181E094E0E3
:103FC0000E94DF1B8F3F09F445C28093E4030F5F1B
:103FD0001F4F8091E4038F3F11F0F1104BC20F5F30
:103FE0001F4F041515054CF38F3F09F043C240E005
:103FF00070E060E081EA9CCFEA330CF066C0E03309
:104000000CF07AC0E03209F47BC16CF4E93034F092
:10401000EB300CF475C1ED3009F472C1BEEF4B2EDC
:1040200055245A94B8CFEC3209F4C1C1ED3209F4E9
:1040300063C0E23299F75A014F5F5F4F4817590743
:1040400008F0DBC0FA01EF5FFB4FE081EE2309F4DB
:10405000D4C0E23209F05AC12034310508F0CDC095
:1040600089010F5F1F4FE3E0220F331FEA95E1F74D
:10407000F901EC51FE4FEE24EA94FE2CF582E48225
:10408000F382E28217821682309709F4B6C0D18299
:10409000C082D5011196B383A283558344832FEF49
:1040A000421A520A6F3F760709F4F8C0FB0123E079
:1040B000EE0FFF1F2A95E1F7EC51FE4F2681378165
:1040C0002F5F3F4F37832683E9C0E636A9F06CF4B3
:1040D000EB3509F497C0ED3509F4E2C0EA3309F095
:1040E0009DCFB901615071090BC1E43729F00CF083
:1040F0006DC0EE3609F092CF6F3F7607B1F0FB014D
:10410000A3E0EE0FFF1FAA95E1F7EC51FE4FA0814F
:10411000B181A130B10509F470C0149731F4068063
:10412000F781E02DEF2B09F068C08A01FA01EF5FFB
:10413000FB4F8417950709F460C0A191AA2309F4E5
:104140005CC0A03251F00CF065C1A9300CF46BC119
:10415000AB301CF0AD3009F066C12034310508F0F9
:104160004CC0D9011196E3E0220F331FEA95E1F725
:10417000F901EC51FE4FEE24EA94FE2CF582E48224
:10418000F382E282178216823097B9F128E030E09C
:104190003183208302831383558344834150510923
:1041A0003FEF431A530A6F3F760771F0FB0103E0BC
:1041B000EE0FFF1F0A95E1F7EC51FE4F2681378184
:1041C0002F5F3F4F378326839D019AC0EB37D1F095
:1041D000ED3709F023CFAA24A394B12CD90111976C
:1041E000F90103E0EE0FFF1F0A95E1F7E452FE4FDD
:1041F000B7FF5AC0119609F083C040E070E060E05C
:1042000080EA96CE0FEF401A500A20343105A8F705
:1042100089010F5F1F4F5901B3E0AA0CBB1CBA956F
:10422000E1F7D501AC51BE4F5D01EE24EA94FE2CBE
:104230001596FC92EE9214971396FC92EE921297BA
:1042400017961C921E921697AB2BB9F26F3F76070A
:10425000C9F0A3E0660F771FAA95E1F76C517E4F76
:10426000DB01ED90FC90EA94EF2839F2DB01169621
:10427000ED90FC90BFEFEB1AFB0ADB011796FC9266
:10428000EE92169761E070E0EB3711F062E070E0BB
:10429000F5017183608353834283B901980130C073
:1042A000E2E0AE2EB12C9ACFE280F380EF20E094D2
:1042B00051F1E480F580EF20E09429F5608171816F
:1042C0006A157B0509F099CFBA016F5F7F4F75833F
:1042D0006483FD0113E0EE0FFF1F1A95E1F7EC5127
:1042E000FE4FBD01A281B381119621F0A481B58159
:1042F000119631F06150710938976F3F760791F749
:104300004F5F5F4F33CE1197389772CFEC3509F07E
:1043100093CEFA013196E817F90708F08DCE8F0198
:104320000F5F1B4FD8011C91163639F074F41F3201
:1043300021F02CF4123209F060CFAF017DCE1C3594
:10434000E1F3123609F059CFF8CF1237B1F324F464
:104350001E3609F052CFF1CF143779F3153709F033
:104360004CCFFA0132968A010D5F1B4F4A5F5F4FB7
:10437000E817F907C1F0D801FD908D01FF2099F0F1
:10438000B0EDEB2EEF0CB9E0BE1548F4E894F5F86B
:10439000AFEBEA2EFE0CA5E0AF1508F42ECF319658
:1043A000E417F50729F7AF014150510945CE6F3F9A
:1043B000760709F4A5CFFB0103E0EE0FFF1F0A9576
:1043C000E1F7EC51FE4F0190F081E02D31973297EB
:1043D00008F496CFD9011197F90113E0EE0FFF1FF2
:1043E0001A95E1F7E452FE4FB7FD8ACF00811181A3
:1043F000015011090230110550F4E280F380EF20E2
:10440000E09429F0E480F580EF20E09499F0119792
:104410003897EACFAD3509F4A0CEAD3709F49DCE7B
:10442000AC3209F49ACE4F5F5F4FA052AF3508F41B
:1044300080CEE3CEBD0164CF208131812F3F3F4F3D
:1044400031F0228133812F3F3F4F09F4D6CE0197BF
:1044500038979FCD24EE33E0A80164EE71E081E04F
:1044600094E00E94701D882309F4B3CD0F5F1F4FA5
:10447000F82EAFCD8B3008F0FCC11092F1031092F2
:10448000F2031092F3031092F4031092FB031092C4
:10449000FC031092FD031092FE038FEF80931E0623
:1044A00080931F06809305061092190610921A0633
:1044B00010921B0610921C061092200610922106E4
:1044C0001092220610922306109200041092FF030D
:1044D0008091E4019091E501019711F5E090EA01E6
:1044E000F090EB01F8AAEFA61BA21AA2662463942F
:1044F000712CEFA4F8A80AA11BA10E151F051CF131
:10450000809105068F3F61F48FEF9FEFA0E0B0E050
:104510008093190690931A06A0931B06B0931C066D
:104520008091E403873008F0E9C164EE73E088E528
:104530009FE00E94390B019609F0E0C140E070E075
:1045400060E082EAF5CC6414750454F7C301F3E02B
:10455000880F991FFA95E1F78C010C511E4F180135
:104560004BE652E0B80181E094E00E94A91B892B40
:1045700059F045E652E0B80181E094E00E94A91BA1
:1045800010E000E0892B51F412E0610E711C0AA1C9
:104590001BA10F5F1F4F1BA30AA3ABCFF801EF5B5B
:1045A000FD4F45915491B10181E094E00E94A91B17
:1045B000892B91F4F801ED5BFD4FA591B49124EEA8
:1045C00033E0A30164EE71E081E094E0FD01099520
:1045D000F2E06F0E711CDBCF0C5F1F4F0432110530
:1045E000E9F646E352E0B10181E094E00E94A91BA4
:1045F0008C01892B09F039C17201E618F708FBA676
:10460000EAA6970122303105E4F0D10118968D9188
:104610009C9119970197A9F41E96ED90FC90FAAA27
:10462000E9AA1FA21EA2E2E0AE2EB12C01E010E02A
:10463000E9A8FAA82EA13FA12E153F053CF017FDD1
:104640006FCF0F5F1F4F600E711EA1CFEAA4FBA4B6
:10465000AE14BF040CF064CF650173E0CC0CDD1C1C
:104660007A95E1F77101EC0CFD1C42E352E0B701D1
:1046700081E094E00E94A91B4C01892B09F079C0CC
:1046800028E0C20ED11CF101EC0DFD1D808191814D
:10469000029709F045CFC680D7803FEF30931D06C3
:1046A00085E096E099A788A7E0911D06EEA78C14F7
:1046B0009D0424F4F4E18F169104E1F42EA52F3F1C
:1046C00011F4C0921D0634E1C316D1042CF4F60196
:1046D000EB5FF94F4FEF408382E0C80ED11C0C0D09
:1046E0001D1DAC0CBD1C2EA13FA12F5F3F4F3FA352
:1046F0002EA39ECFD70152968D919C918F5F9B4F99
:104700000E941B06E8A5F9A56193F9A7E8A7262F43
:1047100030E081E090E0A0E0B0E004C0880F991F95
:10472000AA1FBB1F6A95D2F7AC01BD018091190683
:1047300090911A06A0911B06B0911C06842B952B14
:10474000A62BB72B8093190690931A06A0931B06ED
:10475000B0931C069EA59F3F29F48216930611F084
:1047600080921D06AFEF8A1A9A0AB8E0EB0EF11C90
:104770009BCF46E252E0B70181E094E00E94A91B82
:104780004C01892B09F044C098E0C90ED11CF101FD
:10479000EC0DFD1D80819181029709F0C1CEC6808C
:1047A000D780A8E0EA0EF11C8C149D0424F0B2E03E
:1047B000CB0ED11C94CFD7011A968D919C918F5F0F
:1047C0009B4F0E941B0681E090E0A0E0B0E004C097
:1047D000880F991FAA1FBB1F6A95D2F7AC01BD01B4
:1047E0008091200690912106A0912206B091230687
:1047F000842B952BA62BB72B809320069093210614
:10480000A0932206B09323069FEF891A990AC9CF75
:1048100047E152E0B70181E094E00E94A91B0E5FDE
:104820001F4FE2E0AE0EB11C892B59F4D7011A9646
:104830008D919C918F5F9B4F0E941B0660931E067B
:1048400052CF4EE152E0B70181E094E00E94A91BF3
:10485000892B09F048CFF701828593858F5F9B4FA5
:104860000E941B0660931F063ECF32E0630E711C50
:104870008ECE8E3009F042C0EE24E394F12C10E08D
:1048800000E032C0B70181E094E00E94DF1B8F3F5F
:1048900041F524EE33E0A70164EE71E081E094E09D
:1048A0000E94701D81111DC0870163E0000F111F60
:1048B0006A95E1F70C511E4F43E152E0B80181E0E7
:1048C00094E00E94A91B892B09F052C0F80182854F
:1048D00093858F5F9B4F0E941B066093D60101E07A
:1048E00010E0F2E0EF0EF11CE414F5045CF201308C
:1048F000110521F488EC91E00E945F138091FB0385
:1049000087FF11C08BE08983E2E9F1E0DE011296B6
:1049100001900D928A95E1F74CE0BE016F5F7F4FE9
:104920008AE50E9459068091FB0387FF05C06091CC
:1049300001018CE50E94DA0B8091FB0387FF06C022
:104940000E94AE0B682F8BE50E94DA0B8091FB036F
:1049500087FF05C06091E4038DE50E94DA0B40E01B
:1049600070E060E081E00E9459060E943D06E2CAC4
:1049700040E152E0B80181E094E00E94A91B892B3C
:1049800089F4D8011A968D919C918F5F9B4F0E945C
:104990001B066093CE017093CF018093D00190935A
:1049A000D1019DCF4DE052E0B80181E094E00E943A
:1049B000A91B892B09F0D2C2F801828593858F5FEC
:1049C0009B4F0E941B066093D2017093D30180938A
:1049D000D4019093D50183CF0E94EA0BABCA82EF3A
:1049E0009AE10E94901A91E0892709F4A3CA0E94D3
:1049F000110FA0CA84E799E1F4CF8091FB0381FDF8
:104A000007C040E070E060E085EA0E945906EFCF01
:104A100082E99BE0E6CF8091FF0390910004892B0F
:104A2000B9F740E070E060E086EAEFCF8091E503FF
:104A300081112EC00E94AE0B811105C040E070E0D4
:104A400060E08CEAE2CF0E94C70A8091E40360E84C
:104A500071E08B3021F08C30A1F460E870E088E0E8
:104A60000E94C80E64E670E080E090E00E94EF01D2
:104A70000E94ED0A81E08093E50340E070E060E091
:104A800057CA0E94ED0A40E070E060E08DEABDCFB9
:104A900084EE93E00E948618892B09F04BCA64EFDC
:104AA00071E080E090E00E94EF010E94F20B6B0148
:104AB0007C0110E000E0C114D104E104F10481F0B4
:104AC00022E030E040E050E00E945E28CA01B901D7
:104AD000705D8E4E9F4FA70196010E945E2889014E
:104AE0000E94110C9C012E5C3F4F48EEE42E43E0E7
:104AF000F42EC901B7010E942828D62EE4E6F0E082
:104B0000C901BF010E942828CB012AE030E0B90189
:104B10000E942828482F0E5C1F4FC801B7010E9431
:104B20002828F62EC801BF010E942828CB01B90110
:104B30000E9428289091E4031982DA821B824C8318
:104B40001D82FE821F82888748E0BE016F5F7F4F13
:104B500085EE9C3009F407CF84EE05CF0FE612E016
:104B6000F8016491662341F086E396E00E941A03FF
:104B70000F5F1F4F892BA1F74BE050E062E971E016
:104B800086E396E00E942D0242E050E06EE971E07B
:104B900086E396E00E942D0286E396E00E9467037A
:104BA00026CF8091D6019091010199838A8342E0BA
:104BB000BE016F5F7F4F84E028CF84EE93E00E94B8
:104BC0008618892B09F0B6C90E94EE0B04970CF4E5
:104BD000B1C90E94EA0B7C010E94EA0B6C010E94A1
:104BE000EA0B8DA71CA60E94EA0BACA4BDA4A82AC0
:104BF000B92A850111708091FB039091FC03A0916B
:104C0000FD03B091FE03AC01BD0126E076956795EA
:104C1000579547952A95D1F741704983AC01BD015D
:104C200035E076956795579547953A95D1F7417058
:104C30004A8387FF07C042E0BE016F5F7F4F85E573
:104C40000E945906FF2448E0B70181EA91E00E94E2
:104C50000F0EDD2448E0B60185EA91E00E940F0EB8
:104C600048E0B80189EA91E0B7FE0DC049E089EA61
:104C700091E00E940F0EC8010E94B50B682F70E0F2
:104C800048E08EEA91E00E940F0E40E070E060E0A4
:104C900081E00E9459060E94C70AB60181E00E9485
:104CA000C80EB70182E00E94C80EB7FE39C0B80135
:104CB00088E00E94C80E8091FB039091FC03A091B4
:104CC000FD03B091FE0316E0B695A79597958795DD
:104CD0001A95D1F7F1E08F27682F617080E20E946A
:104CE00051068091FB039091FC03A091FD03B091CC
:104CF000FE0305E0B695A795979587950A95D1F798
:104D000001E08027682F617084E00E9451061C9B9F
:104D10000FC068EC70E080E090E00E94EF01F7CFF8
:104D20008FEF8AB90BB92B9A88E00E944C06C3CF4B
:104D30000E94ED0A5CCE8091FB039091FC03A09150
:104D4000FD03B091FE03AC01BD01E6E076956795E9
:104D500057954795EA95D1F741704983AC01BD015C
:104D6000F5E07695679557954795FA95D1F7417097
:104D70004A8387FF07C042E0BE016F5F7F4F85E532
:104D80000E9459068091FB0387FF10C08091F103B8
:104D90009091F2032091F30329839A838B8343E05C
:104DA000BE016F5F7F4F86E50E9459064090FB036E
:104DB0005090FC036090FD037090FE03D301C2018C
:104DC00045E0B695A795979587954A95D1F7282FF1
:104DD00021704091F1035091F2036091F3037091BF
:104DE000F40384EE93E00E9475046B017C01C7011B
:104DF000AA27BB278AA39BA3ACA3BDA38D2C9E2C63
:104E0000AF2CBB2447FE0AC089838A82CB8243E051
:104E1000BE016F5F7F4F87E50E94590699245601B6
:104E2000BB244AA15BA1417755272091EC038EE872
:104E300090E0203210F48EE891E000910201109190
:104E4000030108231923042B152B2C3109F40061CD
:104E50001127C8010E94B50B782E48E0B40181EA01
:104E600091E00E940F0E48E0B50185EA91E00E94B2
:104E70000F0E48E0B8018CEB91E00E940F0E672DF9
:104E800070E048E08EEA91E00E940F0E40E070E092
:104E900060E081E00E9459060E94C70AB701A6019E
:104EA00084EE93E00E94270F8091FB039091FC0316
:104EB000A091FD03B091FE0326E0B695A7959795C6
:104EC00087952A95D1F7E1E08E27682F617080E2FF
:104ED0000E9451068091FB039091FC03A091FD0379
:104EE000B091FE0335E0B695A795979587953A95CD
:104EF000D1F7F1E08F27682F617084E00E9451069E
:104F00001C9B16CF68EC70E080E090E00E94EF01FF
:104F1000F7CF8091D6019091CE012091CF013091B1
:104F2000D0014091D10149833A832B839C83909196
:104F3000D2012091D3013091D4014091D5014D830C
:104F40003E832F839887898749E0BE016F5F7F4F3B
:104F500085E05BCD8BEA0E94DA0B49CD40E070E042
:104F600060E083EA0C94981FE6E3F6E01382128275
:104F700088EE93E0A0E0B0E084839583A683B783B6
:104F80008AE791E09183808385EC90E09587848720
:104F900084EC90E09787868780EC90E0918B808B03
:104FA00081EC90E0938B828B82EC90E0958B848BEC
:104FB00086EC90E0978B868B118E128E138E148E5A
:104FC0000895FC0105900020E9F7809590958E0FDB
:104FD0009F1F0895FB01DC014150504030F08D913E
:104FE0000590801919F40020B9F7881B990B0895D2
:104FF000F999FECF92BD81BDF89A992780B50895A1
:10500000262FF999FECF1FBA92BD81BD20BD0FB6E4
:10501000F894FA9AF99A0FBE019608950E941928F9
:10502000A59F900DB49F900DA49F800D911D1124FC
:105030000895A29FB001B39FC001A39F700D811D71
:105040001124911DB29F700D811D1124911D089591
:10505000AA1BBB1B51E107C0AA1FBB1FA617B7079E
:1050600010F0A61BB70B881F991F5A95A9F78095BA
:105070009095BC01CD010895A1E21A2EAA1BBB1B7D
:10508000FD010DC0AA1FBB1FEE1FFF1FA217B30714
:10509000E407F50720F0A21BB30BE40BF50B661F2A
:1050A000771F881F991F1A9469F7609570958095EE
:1050B00090959B01AC01BD01CF010895052E97FB92
:1050C0001EF400940E94752857FD07D00E943C28CA
:1050D00007FC03D04EF40C947528509540953095FC
:1050E00021953F4F4F4F5F4F089590958095709554
:1050F00061957F4F8F4F9F4F0895EE0FFF1F0590D3
:10510000F491E02D0994DF93CF931F930F939A9D11
:10511000F02D219FF00D8B9DF00D8A9DE02DF10D5E
:10512000039FF00D029FE00DF11D4E9DE00DF11D5E
:105130005E9DF00D4F9DF00D7F936F93BF92AF92E8
:105140005F934F93D5010E9419288B01AC01D701C1
:105150000E941928EB01E80FF91FD6010E94D228FE
:105160002F913F91D6010E941928C60FD71FE81F23
:10517000F91FAF91BF910E94D2282F913F910E94B9
:105180001928C60FD71FE81FF91FD6010E9419283A
:10519000E60FF71F9801BE01CF010F911F91CF912C
:1051A000DF9108950E941928460F571FC81FD91F65
:1051B00008F431960895E894DF93CF93FC01DB0166
:1051C0000E9419287F936F93E9019A01AC01BF9364
:1051D000AF933F932F93DF010E94192826F46C1B95
:1051E0007D0B820B930B9E01EB01FC010E94D228E8
:1051F000AF91BF912F913F910E94D228BE01CF0164
:10520000F9012F913F91CF91DF910895689401C0EA
:10521000E8948F929F92CF93DF930E941429DF919D
:10522000CF919F908F90089588249924F401E401F0
:10523000B0E49F93AA279A158B049C04ED05FE0504
:10524000CF05D007A10798F4AD2FDC2FCF2FFE2F6D
:10525000E92D982C892E982F872F762F652F542F84
:10526000432F322F2227B85031F7BF9127C01B2E72
:10527000BF91BB27220F331F441F551F661F771F87
:10528000881F991F881C991CEE1FFF1FCC1FDD1F54
:10529000AA1FBB1F8A149B04EC05FD05CE05DF0584
:1052A000A007B10748F08A189B08EC09FD09CE0950
:1052B000DF09A00BB10B21601A94E1F62EF49401E2
:1052C000AF01BE01CD01000C089597FD1094002E92
:1052D000083098F00850232F342F452F562F672F72
:1052E000782F892F912DF4CF1594979587957795E1
:1052F000679557954795379527950A95AAF71124ED
:10530000002D08952A0D3B1D4C1D5D1D6E1D7F1D3A
:10531000801F911F08950F931F93CF93DF938230C7
:10532000910510F482E090E0E091D506F091D60668
:1053300030E020E0B0E0A0E0309799F4211531058D
:1053400009F44AC0281B390B24303105D8F58A816D
:105350009B816115710589F1FB0193838283FE01B5
:1053600011C0408151810281138148175907E0F033
:105370004817590799F4109761F012960C931297F9
:1053800013961C933296CF01DF91CF911F910F910D
:1053900008950093D5061093D606F4CF2115310554
:1053A00051F04217530738F0A901DB019A01BD0102
:1053B000DF01F801C1CFEF01F9CF9093D6068093BA
:1053C000D506CDCFFE01E20FF31F819391932250BA
:1053D000310939832883D7CF2091D3063091D40661
:1053E000232B41F42091090130910A013093D40616
:1053F0002093D30620910701309108012115310532
:1054000041F42DB73EB740910B0150910C01241B84
:10541000350BE091D306F091D406E217F307A0F420
:105420002E1B3F0B2817390778F0AC014E5F5F4FFA
:105430002417350748F04E0F5F1F5093D406409352
:10544000D306819391939FCFF0E0E0E09CCFCF9380
:10545000DF930097E9F0FC01329713821282A0914A
:10546000D506B091D606ED0130E020E01097A1F40A
:1054700020813181820F931F2091D3063091D40671
:105480002817390709F061C0F093D406E093D306DA
:10549000DF91CF910895EA01CE17DF07E8F54A8141
:1054A0005B819E0141155105B1F7E901FB83EA8358
:1054B00049915991C40FD51FEC17FD0761F4808104
:1054C00091810296840F951FE901998388838281D7
:1054D00093819B838A83F0E0E0E012968D919C910A
:1054E00013970097B9F52D913C911197CD01029634
:1054F000820F931F2091D3063091D40628173907C5
:1055000039F6309751F51092D6061092D506B09321
:10551000D406A093D306BCCFD383C28340815181EC
:10552000840F951FC817D90761F44E5F5F4F8881BC
:105530009981480F591F518340838A819B819383AE
:1055400082832115310509F0B0CFF093D606E093A0
:10555000D5069ECFFD01DC01C0CF13821282D7CFCA
:10556000FB01DC0102C001900D9241505040D8F780
:105570000895DC0101C06D9341505040E0F708955B
:10558000FB01DC018D91019080190110D9F3990B79
:105590000895FB01DC0101900D920020E1F70895D0
:0455A000F894FFCFAD
:1055A40001FFFF00FFFF010000D7068000555500F2
:1055B40000AAAA2A00005555550000805555000040
:1055C400AAAA2A000055555500002055550000AAE6
:1055D400AA2A00005555550000A055550000AAAA56
:1055E4002A000055555500008055550000AAAA2AE6
:1055F400000055555500001055550000AAAA2A0070
:10560400005555550000F055550000AAAA2A00007F
:10561400555555000090000000001A032D025A024F
:105624006703D8026902CA027C44380056455230E6
:105634003600332E302E3062343A756E6F000D0A08
:10564400004D5342004C5342004354524C004354C7
:10565400524C2072656D617070656400544F502027
:06566400616464720000A5
:00000001FF
