:100000000C948F010C94B7010C94B7010C94B701B8
:100010000C94B7010C94B7010C94B7010C94B70180
:100020000C94B7010C94B7010C94B7010C94B70170
:100030000C94B7010C94B7010C94B7010C94B70160
:100040000C94B71D0C94B7010C94271E0C94011E40
:100050000C94B7010C94B7010C94B7010C94B70140
:100060000C94B7010C94B7010C94B7010C94B70130
:100070000C94B7010C94B7010C94B7010C94B70120
:100080000C94B7010C94B7010C94B7010C94B70110
:100090000C94B7010C94B7010C94B7010C94B70100
:1000A0000C94B7010C94B7010C94B7010C94B701F0
:1000B0000C94B701616C676F726974686D00747934
:1000C0007065007670705F6D760070756C73652D6D
:1000D00064656C61790070696E2D636F756E740074
:1000E000636869702D696400666C616773006164A0
:1000F0006472657373006D656D6F72792D73697AC3
:10010000650000070E091C1B1215383F36312423E9
:100110002A2D70777E796C6B6265484F4641545347
:100120005A5DE0E7EEE9FCFBF2F5D8DFD6D1C4C3B7
:10013000CACD90979E998C8B8285A8AFA6A1B4B3A7
:10014000BABDC7C0C9CEDBDCD5D2FFF8F1F6E3E417
:10015000EDEAB7B0B9BEABACA5A28F888186939407
:100160009D9A2720292E3B3C35321F181116030477
:100170000D0A5750595E4B4C45426F686166737467
:100180007D7A898E878095929B9CB1B6BFB8ADAAC7
:10019000A3A4F9FEF7F0E5E2EBECC1C6CFC8DDDAC7
:1001A000D3D4696E676075727B7C51565F584D4A37
:1001B0004344191E171005020B0C21262F283D3A27
:1001C00033344E49404752555C5B7671787F6A6D97
:1001D00064633E39303722252C2B0601080F1A1D87
:1001E0001413AEA9A0A7B2B5BCBB9691989F8A8DF7
:1001F0008483DED9D0D7C2C5CCCBE6E1E8EFFAFDE7
:10020000F4F3AA55AA55666C616773006D656D6F4E
:1002100072792D73697A6500616464726573730025
:10022000636869702D69640070696E2D636F756E07
:100230007400747970650070756C73652D64656CFD
:100240006179007670705F6D7600616C676F7269BE
:1002500074686D00444F4E45007232007231007276
:1002600065760072772D70696E007670702D7069FA
:100270006E007374617469632D68696768006275E4
:1002800073006275732D636F6E66696700F6005DBB
:100290001DEE00301DE8008A1DE000051DD600DBC4
:1002A0001CCA00841CC300591CBE00B11CB4002C25
:1002B0001C737461746500636D64004F4B3A204693
:1002C000573A2000737461746500636D6400000028
:1002D0000000250028002B002E0000000000240054
:1002E00027002A002D00040404040404040402026C
:1002F00002020202030303030303020203050505CE
:1003000005010204081020408001020408102001A9
:10031000020408102040804001020408C027112474
:100320001FBECFEFD8E0DEBFCDBF26E0AAECB1E024
:1003300001C01D92AB3DB207E1F711E0A0E0B1E0D2
:10034000ECEBF5E502C005900D92AA3CB107D9F798
:1003500011E0CFE8D1E004C02197FE010E94892876
:10036000CE38D107C9F70E94591E0C94DC2A0C9490
:100370000000CF93DF9390E0FC01EF5FFC4F2491EE
:100380008A519D4FFC0184918823C1F090E0880F31
:10039000991FFC01E652FD4FC591D491FC01E25337
:1003A000FD4FA591B4919FB7F8948881E22FE09515
:1003B0008E2388838C91E823EC939FBFDF91CF91AC
:1003C00008952091060190E4299F900111248E50F8
:1003D000822B80937C0080917A00806480937A00E5
:1003E00080917A0086FDFCCF809178009091790011
:1003F00008958230910538F0880F991F880F991F52
:1004000005970197F1F708953FB7F8948091E401BB
:100410009091E501A091E601B091E70126B5A89B76
:1004200005C02F3F19F00196A11DB11D3FBFBA2F86
:10043000A92F982F8827BC01CD01620F711D811D46
:10044000911D42E0660F771F881F991F4A95D1F7CB
:1004500008958F929F92AF92BF92CF92DF92EF92C8
:10046000FF924B015C010E9404026B017C010E941F
:1004700004026C197D098E099F09683E734081054D
:100480009105A8F321E0821A9108A108B10888EE2D
:10049000C80E83E0D81EE11CF11C81149104A10454
:1004A000B10429F7FF90EF90DF90CF90BF90AF900D
:1004B0009F908F9008952FB7F8946091E00170910C
:1004C000E1018091E2019091E3012FBF0895AF9285
:1004D000BF92CF92DF92EF92FF920F931F93CF9331
:1004E000DF936C017B018B01040F151FEB015E0193
:1004F000AE18BF08C017D10759F06991D601ED9128
:10050000FC910190F081E02DC6010995892B79F7C6
:10051000C501DF91CF911F910F91FF90EF90DF9078
:10052000CF90BF90AF900895FC01538D448D252F3F
:1005300030E0842F90E0821B930B541710F0CF967D
:10054000089501970895FC01918D828D981761F0AF
:10055000A28DAE0FBF2FB11D5D968C91928D9F5FC6
:100560009F73928F90E008958FEF9FEF08958F9281
:100570009F92AF92BF92EF92FF920F931F93CF93F0
:10058000DF937B018C01D0E0C0E00E945B026093AE
:1005900042067093430680934406909345068AE38F
:1005A00096E00E94A30297FF27C00E945B02809002
:1005B000420690904306A0904406B0904506681904
:1005C00079098A099B0980903E0690903F06A09089
:1005D0004006B0904106681579058A059B05F8F23A
:1005E000CE01DF91CF911F910F91FF90EF90BF90BF
:1005F000AF909F908F900895F80181938F0121967D
:10060000EC16FD0611F6ECCFFC01918D828D98174A
:1006100031F0828DE80FF11D858D90E008958FEF08
:100620009FEF0895FC01918D228D892F90E0805CD1
:100630009F4F821B91098F73992708958AE396E053
:100640000E94120321E0892B09F420E0822F0895F3
:10065000FC01A48DA80FB92FB11DA35ABF4F2C9137
:10066000848D90E001968F739927848FA689B7892E
:100670002C93A089B1898C91837080648C93938D25
:10068000848D981306C00288F389E02D80818F7DC8
:1006900080830895EF92FF920F931F93CF93DF9380
:1006A000EC0181E0888F9B8D8C8D98131AC0E889AE
:1006B000F989808185FF15C09FB7F894EE89FF897D
:1006C0006083E889F98980818370806480839FBF1B
:1006D00081E090E0DF91CF911F910F91FF90EF901B
:1006E0000895F62E0B8D10E00F5F1F4F0F7311272B
:1006F000E02E8C8D8E110CC00FB607FCFACFE88966
:10070000F989808185FFF5CFCE010E942803F1CFC2
:10071000EB8DEC0FFD2FF11DE35AFF4FF0829FB7D9
:10072000F8940B8FEA89FB8980818062CFCFCF93C9
:10073000DF93EC01888D8823B9F0AA89BB89E88909
:10074000F9898C9185FD03C0808186FD0DC00FB6AF
:1007500007FCF7CF8C9185FFF2CF808185FFEDCF2D
:10076000CE010E942803E9CFDF91CF91089580E068
:1007700090E0892B29F00E941E0381110E94000045
:1007800080E090E0892B49F080E090E0892B29F00F
:100790000E94000081110C94000008958F929F9296
:1007A000AF92BF92CF92DF92EF92FF920F931F937F
:1007B000CF93DF93EC018C01035E1F4F812C912CB2
:1007C00054016C0183EEC81A8DEFD80A7E01A8EBA4
:1007D000EA1AADEFFA0AF60180819181A281B38114
:1007E00088169906AA06BB06B0F4D8012D918D0192
:1007F0004D855E856F857889480D591D6A1D7B1D65
:10080000D701ED91FC91CE010995BFEF8B1A9B0AA0
:10081000AB0ABB0AE0CFDF91CF911F910F91FF9000
:10082000EF90DF90CF90BF90AF909F908F90089502
:100830008F929F92AF92BF92CF92DF92EF92FF92F0
:100840000F931F93CF93DF93EC0189859A85AB8536
:10085000BC854D855E856F857889841B950BA60BBD
:10086000B70B813022E09207A105B10520F080E0AE
:1008700092E0A0E0B0E08C017E018DE1E80EF11C79
:10088000812C912C54016E01A6EBCA1AADEFDA0A45
:1008900080169106B4F44D855E856F857889480D84
:1008A000591D6A1D7B1DD601ED91FC91CE01099564
:1008B000F70181937F01FFEF8F1A9F0AAF0ABF0AEA
:1008C000E7CFC35EDD4F012E000C220B330B0883F4
:1008D00019832A833B83DF91CF911F910F91FF9062
:1008E000EF90DF90CF90BF90AF909F908F90089542
:1008F00080910201909103016823792381E0672BA5
:1009000009F480E00895CF93DF93EC01FC01E85BEC
:10091000FD4F0190F081E02D2FEF40E050E0BA0153
:100920000995FE01E25BFD4F0190F081E02D40E072
:1009300068E870E0CE01DF91CF910994FC01208539
:10094000203241F4E55CFD4F81E09081953151F01A
:1009500080E008C02C3139F4E55CFD4F81E09081E6
:100960009F30B1F70895283199F7E55CFD4F81E09C
:1009700090819B3069F7F6CF2F923F924F925F9212
:100980006F927F928F929F92AF92BF92CF92DF929F
:10099000EF92FF921F93CF93DF93CDB7DEB7A79768
:1009A0000FB6F894DEBF0FBECDBFFC01EF5DFD4F6B
:1009B0003FE1DE01119601900D923A95E1F7FC01BD
:1009C000E65CFD4F30813196108131964080518038
:1009D0006280738048A259A26AA27BA23797C08026
:1009E000D180E280F380C422D522E622F722E98179
:1009F000EF3F09F43FC0FC01E75CFD4FE0812E2E84
:100A0000312CE1E0F0E0EC0FFD1FE20DF31DA4E15D
:100A10002A1631047CF5A191AF3F61F1812C912C14
:100A20005401839404C0880C991CAA1CBB1CAA9571
:100A3000D2F72A013B01022C04C0769467945794A4
:100A400047940A94D2F74CA25DA26EA27FA240FC0A
:100A50000CC080949094A094B094C820D920EA202F
:100A6000FB20AFEF2A1A3A0AD2CFC828D928EA28A1
:100A7000FB28F7CF3F3F79F0422F50E070E060E075
:100A800004C0440F551F661F771F3A95D2F7C42A3A
:100A9000D52AE62AF72A1F3F99F00E949E04811169
:100AA0000FC081E090E0A0E0B0E004C0880F991F83
:100AB000AA1FBB1F1A95D2F7C82AD92AEA2AFB2AED
:100AC00068A179A18AA19BA16C297D298E299F29E2
:100AD000A7960FB6F894DEBF0FBECDBFDF91CF91C2
:100AE0001F91FF90EF90DF90CF90BF90AF909F90BD
:100AF0008F907F906F905F904F903F902F900895D0
:100B0000FC012081233091F02430A9F0223069F4D7
:100B1000EE5BFD4F27E734E1318320838C5B9D4FF3
:100B20002EEF37E0FC013183208308958C5B9D4FCD
:100B300024E132E1F7CF8C5B9D4F27E933E1F2CF1F
:100B4000FC01EE5BFD4F2CEA31E131832083DC01B7
:100B50002C912330A9F018F4223031F0089524307C
:100B6000B9F02530D1F008952CE934E131832083A8
:100B70008C5B9D4F27E832E1FC013183208308958F
:100B80008C5B9D4F24EB31E1DC012D933C93089568
:100B90008C5B9D4F27E933E1EFCF118210828C5B94
:100BA0009D4F2CE431E1F0CFFF920F931F93CF9331
:100BB000DF938C01EB01F42E62FF07C0C8010E9495
:100BC0009E04882311F0CB7FC860E091CA01F091A8
:100BD000CB014F2DBE01C801DF91CF911F910F9125
:100BE000FF900994FC01DC01AE5BBD4F80EB9FE000
:100BF00011969C938E938081833009F441C058F5FF
:100C00008230A1F1DF01A25BBD4F8D919C911197C4
:100C10009093CB018093CA0184ED95E08D939C93D2
:100C200083899489A589B689892B8A2B8B2B09F016
:100C300043C084819581A681B78188309105A10543
:100C4000B10591F10B97A105B105B9F188EE93E0DB
:100C5000A0E0B0E02DC0843021F1853099F689EC18
:100C60009FE08D939C9388E19AE006C088EE95E121
:100C70008D939C938FED96E1DF01AC5BBD4F0EC071
:100C800087E793E1DF01AC5BBD4F11969C938E9398
:100C9000878983FDB7CF87E993E112968D939C9363
:100CA000B1CF87E993E1E8CF84E690E0A0E0B0E03F
:100CB000838B948BA58BB68B089584EF91E0A0E095
:100CC000B0E0F6CFCF93DF93EC0120E030E0A90154
:100CD000E99180ED8E0F8A3028F0CA01B901DF91C9
:100CE000CF910895AAE0B0E00E941A282E2FEE0FAF
:100CF000330B20533109032E000C440B550B260FE8
:100D0000371F481F591FE4CF0E945B0268517C4F78
:100D10008F4F9F4F6093DB017093DC018093DD0167
:100D20009093DE01089595B18095892385B9089542
:100D3000662321F095B1892B85B908950C9493060B
:100D4000CF92DF92EF92FF920F931F93CF93DF9397
:100D500090910001992309F463C0D42F6B01C82F2F
:100D6000E2E0F2E064918AE396E00E944A03E3E065
:100D7000F2E064918AE396E00E944A03E4E0F2E044
:100D800064918AE396E00E944A03E5E0F2E0649110
:100D90008AE396E00E944A03ED2EF12CC7010296E9
:100DA000692F8AE396E00E944A0362E06D0F8AE3AE
:100DB00096E00E944A036C2F8AE396E00E944A0361
:100DC000EC2FF0E0EE5FFE4FC4918601EC0CFD1CB1
:100DD0000E151F0579F0F801D1918F016D2F8AE36F
:100DE00096E00E944A03ED2FEC27F0E0EE5FFE4F05
:100DF000C491EECF6C2F8AE396E00E944A036AE02A
:100E00008AE396E00E944A038AE396E0DF91CF915D
:100E10001F910F91FF90EF90DF90CF900C9497036C
:100E2000DF91CF911F910F91FF90EF90DF90CF90C6
:100E300008954F925F926F927F92AF92BF92CF923E
:100E4000DF92EF92FF920F931F93CF93DF9300D027
:100E500000D01F92CDB7DEB78C017C018DE1E80E8A
:100E6000F11C412C512C32016801A3EECA1AADEFDE
:100E7000DA0A5801B6EBAB1ABDEFBB0AF601808166
:100E80009181A281B381481659066A067B0670F5E6
:100E9000D8011D964D915D916D917C915097440DB7
:100EA000551D661D771DD501ED91FC91C801099571
:100EB000F70191917F01891769F1D8011D964D9134
:100EC0005D916D917C915097440E551E661E771E64
:100ED00099838A836B825C824D8245E0BE016F5F9D
:100EE0007F4F8FEA0E94A006F80112820F900F90A8
:100EF0000F900F900F90DF91CF911F910F91FF9066
:100F0000EF90DF90CF90BF90AF907F906F905F9009
:100F10004F900895FFEF4F1A5F0A6F0A7F0AAECF16
:100F2000AF92BF92CF92DF92EF92FF920F931F93F7
:100F3000CF93DF9300D000D0CDB7DEB78C016C012A
:100F400088EBC81A8DEFD80AD601ED91FC9120E903
:100F500040E050E0BA01C80109955801B6EBAB1A60
:100F6000BDEFBB0AD501ED91FC9140E050E0BA0124
:100F7000C8010995E82EF12CFE2CEE24D501ED9147
:100F8000FC9141E050E060E070E0C8010995E82A7A
:100F9000D601ED91FC912FEF40E050E0BA01C8017D
:100FA0000995F801838D948D8E159F0591F0F98236
:100FB000EA829B838C83878944E0BE016F5F7F4F09
:100FC00080FF16C083E80E94A00682E0D801129636
:100FD0008C930F900F900F900F90DF91CF911F91F6
:100FE0000F91FF90EF90DF90CF90BF90AF9008955A
:100FF00089EB0E94A006F8011282EBCF3F924F923C
:101000005F926F927F928F929F92AF92BF92CF9298
:10101000DF92EF92FF920F931F93CF93DF93CDB7A1
:10102000DEB72B970FB6F894DEBF0FBECDBF8C0195
:101030004D969F838E83412C512C3201480193EEB3
:10104000891A9DEF990AD801A85BBD4FB987A88777
:10105000F801E65BFD4FFB87EA87F401808191810F
:10106000A281B381481659066A067B0608F054C06F
:10107000D8011D96CD90DD90ED90FC905097C40C5A
:10108000D51CE61CF71CEE81FF813190FF83EE83B7
:10109000A885B985ED91FC91232DB701A601C80162
:1010A0000995F40180819181A281B3810197A10901
:1010B000B109B701A6014F735527662777274F332C
:1010C00051056105710529F084159505A605B7053B
:1010D000D9F5A12C84E0B82E8AE090E00E94F901B5
:1010E000AA85BB85ED91FC91B701A601C8010995C0
:1010F000381651F1B1E0AB1AB10871F73982EA82C2
:10110000DB82CC828D8345E0BE016F5F7F4F83EB36
:101110000E94A006F80112822B960FB6F894DEBF4B
:101120000FBECDBFDF91CF911F910F91FF90EF9038
:10113000DF90CF90BF90AF909F908F907F906F90F7
:101140005F904F903F900895FFEF4F1A5F0A6F0A2C
:101150007F0A83CFCF92DF92EF92FF920F931F937C
:10116000CF93DF93EC018B010E945B026B017C014A
:10117000C00ED11EE11CF11C8E01065B1D4F0E94AA
:101180005B026C157D058E059F0580F5D801ED91FC
:10119000FC9140E050E0BA01CE01099587FFEFCF06
:1011A00084FF1DC040E070E060E084EB0E94A00678
:1011B0001A82FE01E85BFD4F0190F081E02D2FEFD8
:1011C00040E050E0BA01CE01099580E0DF91CF9177
:1011D0001F910F91FF90EF90DF90CF90089583FFC4
:1011E0000AC040E070E060E085EBE0CF40E070E0F6
:1011F00060E086EBDBCF81E0E9CF3F924F925F92D8
:101200006F927F928F929F92AF92BF92CF92DF9216
:10121000EF92FF920F931F93CF93DF93EC018C011A
:10122000035E1F4FC12CD12C76014C0183EE881A2E
:101230008DEF980A5E01A8EBAA1AADEFBA0AF40185
:1012400080819181A281B381C816D906EA06FB0686
:1012500040F54D845E846F8478884C0C5D1C6E1C58
:101260007F1CD8013D908D01D501ED91FC9120E4CA
:10127000B301A201CE010995D501ED91FC91232D79
:10128000B301A201CE01099566E970E0CE010E948A
:10129000AA08882331F0BFEFCB1ADB0AEB0AFB0A5E
:1012A000CECFDF91CF911F910F91FF90EF90DF9004
:1012B000CF90BF90AF909F908F907F906F905F90F6
:1012C0004F903F9008950F931F93CF93DF93EC01BE
:1012D000FC01E25BFD4F0190F081E02D41E068E808
:1012E00070E0099564EF71E080E090E00E942902CF
:1012F0008E01085B1D4FD801ED91FC9120E240E08A
:1013000050E0BA01CE010995D801ED91FC9120ED94
:1013100040E050E0BA01CE01099568E97AE3CE01D8
:10132000DF91CF911F910F910C94AA089F92AF92D9
:10133000BF92CF92DF92EF92FF920F931F93CF93C2
:10134000DF9300D000D0CDB7DEB78C01962E6C01B4
:1013500082EBC81A8DEFD80AD601ED91FC9141E0DD
:1013600060E870E0C801099562E370E080E090E019
:101370000E942902D601ED91FC9141E062E070E00B
:10138000C801099564E670E080E090E00E942902BF
:101390005801B6EBAB1ABDEFBB0AD501ED91FC913C
:1013A00040E050E0BA01C8010995E82EF12CFE2C6E
:1013B000EE24D501ED91FC9141E050E060E070E059
:1013C000C8010995E82AD601ED91FC9140E062E858
:1013D00070E0C8010995F801838D948D8E159F05E5
:1013E00089F0F982EA829B838C83F2E044E0BE01BB
:1013F0006F5F7F4F9F1216C083E80E94A006D8013E
:1014000012969C920F900F900F900F90DF91CF91BA
:101410001F910F91FF90EF90DF90CF90BF90AF9012
:101420009F90089589EB0E94A006F8011282EACFEE
:1014300060E00C9496097F928F929F92AF92BF9238
:10144000CF92DF92EF92FF920F931F93CF93DF9390
:1014500000D000D01F92CDB7DEB78C01C42E952EE0
:10146000862E772ED22E80EDE82E87E0F82E5801BA
:1014700086EBA81A8DEFB80A8AE090E00E94F90185
:10148000D501ED91FC914C2D592D682D772DC8017A
:1014900009958D1531F1B1E0EB1AF10869F78982F0
:1014A0009A82CB82DC828D8345E0BE016F5F7F4FE5
:1014B00082EB0E94A006F801128280E00F900F904C
:1014C0000F900F900F90DF91CF911F910F91FF9090
:1014D000EF90DF90CF90BF90AF909F908F907F90D4
:1014E000089581E0EBCF2F923F925F926F927F92AF
:1014F0008F929F92AF92BF92CF92DF92EF92FF9224
:101500000F931F93CF93DF93EC013C018DE1680EA5
:10151000711C812C912C54018E01035E1D4F1E0104
:10152000A8EB2A1AADEF3A0AF80180819181A281D5
:10153000B38188169906AA06BB06D8F5CD84DE8449
:10154000EF84F888C80CD91CEA1CFB1CD3015D9001
:101550003D01D101ED91FC91252DB701A601CE01F0
:101560000995D701C6010196A11DB11D8F73992759
:10157000AA27BB27892B8A2B8B2B99F0F801808116
:101580009181A281B3810197A109B10988159905BB
:10159000AA05BB0531F0FFEF8F1A9F0AAF0ABF0AF9
:1015A000C3CF252DB701A601CE010E941B0A8111D0
:1015B000F2CFDF91CF911F910F91FF90EF90DF90CD
:1015C000CF90BF90AF909F908F907F906F905F90E3
:1015D0003F902F900895CF93DF93EC018F8987FF81
:1015E00006C040E070E060E081E40E94A0069981BE
:1015F000892F8F738F5F907C892B898340E070E007
:1016000060E080E2DF91CF910C94A006109200017F
:101610008AE396E00E949703EAE3F6E0A289B389A1
:101620008C9187748C93828D818F65E070E080E06F
:1016300090E00E942902509A0895589A5098E0919B
:101640004A06F0914B0682E08083E0914606F091D5
:1016500047061082E0914806F091490687E08083B2
:1016600010925206E0914E06F0914F0686E080837C
:10167000E0914C06F0914D06808188698083E0916D
:101680004C06F0914D0680818F7D808362E370E08F
:1016900080E090E00E9429028AE396E00E94120313
:1016A000892B29F08AE396E00E94A302F5CF81E01E
:1016B000809300010895CF92DF92EF92FF920F93F3
:1016C0001F93CF93DF938C01EB010E94060BCE0199
:1016D000F80109950E941D0B8A81813008F441C0F0
:1016E000833080F18330E9F5FE01E35EFD4FC08079
:1016F0000C2D11817E01FDE1EF0EF11CF701D12CC3
:10170000CF018E199F098017910718F48191D8266F
:10171000F7CF612F8AE396E00E944A036C2D8AE39B
:1017200096E00E944A036D2D8AE396E00E944A03E8
:10173000A801B7018AE396E00E9467028AE396E077
:101740000E9497030E94840681E08A8390E080E0F3
:10175000DF91CF911F910F91FF90EF90DF90CF908D
:1017600008958FEF9FEFF4CFCF93DF93EC01FC014F
:10177000EC5BFD4F80819181009739F4898186FF70
:101780000BC081E0DF91CF910895BE010E945B0BF9
:101790000196A1F780E0F6CFCE010E94EB0AF1CFCF
:1017A0008091DA018F3F11F4809101010895CF9368
:1017B000DF93EC010E94D00B8230C0F08630D0F471
:1017C0008D2F81709C2F9E7D892B9E0136952795AC
:1017D000369527952870822B25E0CC0FDD1F2A95A2
:1017E000E1F7C0728C2BDF91CF9108958D2F81701E
:1017F0008C2BF9CF80E0F7CFCF93DF93C82FCB01AD
:10180000C23011F1C83071F1C13009F043C02091EC
:101810000501261709F43EC060930501D0E09FEF53
:101820009AB98BB985B18C2B85B981E090E00E9483
:10183000F9018C2F0E949306DD2361F184E090E092
:10184000DF91CF910C94F90120910401261711F139
:10185000609304012FEF2AB91BB8000000000000BC
:101860000000DCCF209102013091030126173707D9
:1018700089F028703327D1E0AB0148705527421713
:10188000530708F0D0E090930301809302010E9477
:10189000D70BC5CFDF91CF910895CF92DF92EF9212
:1018A000FF92CF93DF93EC016A017B01642F70E01C
:1018B00081E00E94FC0B6D2D70E082E00E94FC0B29
:1018C000A7014177552728858EE891E0203210F056
:1018D0008EE890E060910201709103016823792302
:1018E000642B752B2C3109F4606188E0DF91CF9176
:1018F000FF90EF90DF90CF900C94FC0B8091020151
:1019000090910301442329F0682B792B88E00C94F3
:10191000FC0B6095709568237923F8CFCF93DF9304
:101920001F92CDB7DEB7698341E0BE016F5F7F4F85
:101930000E94A0060F90DF91CF910895CF92DF9281
:10194000EF92FF920F931F93CF93DF93EC017C01F3
:101950008EEBE81A8DEFF80AF701118210828E01E2
:101960000C5B1D4FF801118210826E01FAEBCF1A49
:10197000FDEFDF0AF601118210828881823009F4BE
:1019800048C0863009F448C0813029F488E194E0E9
:10199000F8019183808380EC90E1FE01E65BFD4FCE
:1019A000918380838AE990E13297918380838DE4EB
:1019B0009CE03496918380838EE79CE032969183FD
:1019C000808388E794E032969183808340E050E002
:1019D000BA01CE010E944D0C8C819D81AE81BF81E8
:1019E00080319105A105B105A9F583E894E0F601E0
:1019F000918380838881833051F188F48230E1F0D3
:101A0000DF91CF911F910F91FF90EF90DF90CF90DA
:101A100008958EEC93E0BCCF89E197E0B9CF843094
:101A200039F1853069F7F70111821082F6011182D0
:101A3000108280E997E007C08FEC94E1F701918371
:101A400080838DEF98E0F80191838083D9CF83E67E
:101A500099E0F9CF8D309105A105B105A1F41B8A5C
:101A60001C8A1D8A1E8A8881823029F0843041F6C2
:101A700087E993E1E8CF80E196E1F70191838083E4
:101A800083E79AE0E0CF86309105A105B10559F4CE
:101A9000CE01DF91CF911F910F91FF90EF90DF90DA
:101AA000CF900C94A00585309105A105B10551F0AA
:101AB00085339105A105B10529F089339105A1056B
:101AC000B10559F4CE01DF91CF911F910F91FF9095
:101AD000EF90DF90CF900C948005AC01BD01475092
:101AE000510961097109423051056105710528F0FC
:101AF0008B309105A105B10559F4CE01DF91CF914D
:101B00001F910F91FF90EF90DF90CF900C94F20512
:101B10008E309105A105B10509F472CF8797A1090F
:101B2000B1090397A105B10508F46ACF6B81613053
:101B300021F3643009F464CF633009F4A9CF653030
:101B400009F28EEA0E948E0C1A825ACF8AE396E03E
:101B50000C94A3028AE396E00C9412038EE4809323
:101B60007C0062E070E080E090E00E9429028091B9
:101B70007A00806480937A0080917A0086FDFCCFA1
:101B8000209178006091790070E0762F6627072E0B
:101B9000000C880B990B622B08952F923F924F9265
:101BA0005F926F927F928F929F92AF92BF92CF92ED
:101BB000DF92EF92FF920F931F93CF93DF93CDB7F6
:101BC000DEB72F970FB6F894DEBF0FBECDBFA09043
:101BD000D201B090D301C090D401D090D501A98694
:101BE000BA86CB86DC86C090D601D090D701E09033
:101BF000D801F090D901C982DA82EB82FC8281E0BF
:101C00008093060180E10E94E1019E878D870E94FA
:101C1000AE0D611571058105910509F494C0CD28BB
:101C2000CE28CF2809F48FC02B013C01770C440843
:101C3000542C3201A980BA80CB80DC80E12CF12CBD
:101C400000E010E09B01AC01642D742D842D942DD7
:101C50000E948F28722E632E542E452E962E872E8C
:101C6000382E292E69857A858B859C85C980DA80F6
:101C7000EB80FC806C0D7D1D8E1D9F1D2CE434E0DF
:101C800040E050E00E94E728ED84FE840F2C000C19
:101C9000000B110B670156016801E12CF12C870143
:101CA000A982BA82CB82DC82ED82FE820F83188702
:101CB000E12CF12C00E010E00E948F282983398765
:101CC0004F875D87B62FA72FF82FE92F272D362DA9
:101CD000452D542D692D782D832D922D01E00E94E4
:101CE000732959016A017B018C01298139854F854E
:101CF0005D856B2F7A2F8F2F9E2F0E948E29A72C08
:101D0000B62CC52CD42CE92CF82C032D122D0E94B6
:101D10001429C9012F960FB6F894DEBF0FBECDBFB0
:101D2000DF91CF911F910F91FF90EF90DF90CF90B7
:101D3000BF90AF909F908F907F906F905F904F90EB
:101D40003F902F90089580E090E0E4CF4F925F9213
:101D50006F927F92AF92BF92CF92DF92EF92FF92FB
:101D60000F931F93CF93DF93CDB7DEB728970FB6AE
:101D7000F894DEBF0FBECDBF8C010E94D00B811145
:101D80001FC040E070E060E080E80E94A00682E0B2
:101D9000D80112968C9328960FB6F894DEBF0FBE2A
:101DA000CDBFDF91CF911F910F91FF90EF90DF900A
:101DB000CF90BF90AF907F906F905F904F900895BD
:101DC0005801B2EBAB1ABDEFBB0AF501208131819E
:101DD000F80184819581A681B78141E00B97A10527
:101DE000B10529F0878960E871E084FF02C060E8EE
:101DF00070E0C801F901099564E670E080E090E0C8
:101E00000E9429020E94CD0D6C012C01712C612CC5
:101E1000D8015196ED90FC90C701B0E0A0E08C5045
:101E20009E4FAF4FBF4F84159505A605B70508F027
:101E30004DC0B2E3CB0ED11CE2E3EE0EF11C1982D1
:101E400098EE692E93E0792EC601B3010E943428E2
:101E50006A831B82E4E6F0E0C601BF010E943428D9
:101E6000CB012AE030E0B9010E9434288C831D8226
:101E7000C701B3010E9434286E831F82C701BF01CE
:101E80000E943428CB01B9010E9434288887D801E8
:101E900057968C9148E0BE016F5F7F4F80FF0FC067
:101EA00082E80E94A00682E0F8018283D501ED91CC
:101EB000FC9140E060E871E0C80109956CCF88EBC7
:101EC0000E94A006D80112961C92F0CF9701AFE5B0
:101ED000B0E00E94252824E630E040E050E00E9477
:101EE0004828421653066406750600F7B2E3CB0E87
:101EF000D11CE2E3EE0EF11C198288EE682E83E01D
:101F0000782EC601B3010E9434286A831B82E4E65E
:101F1000F0E0C601BF010E943428CB012AE030E086
:101F2000B9010E9434288C831D82C701B3010E942D
:101F300034286E831F82C701BF010E943428CB0161
:101F4000B9010E943428888748E0BE016F5F7F4F47
:101F500081E80E94A00682E0D80112968C93A6CF59
:101F6000CF93DF93EC010E94A60E8A81882371F043
:101F70008B8D9C8D892B51F06F89788D660F771F23
:101F80006270CE01DF91CF910C949609DF91CF91D1
:101F900008950C94A60EBF92CF92DF92EF92FF921B
:101FA0000F931F93CF93DF93CDB7DEB7C854D109FA
:101FB0000FB6F894DEBF0FBECDBF7B01B42EFC017F
:101FC00001900020E9F731971E2F181B1F3008F0F1
:101FD0001EE01983C12ED12CA601BC01CE010296B0
:101FE0000E94BC2AE2E0F0E0EC0FFD1FEC0DFD1DAD
:101FF000E0828091FF0387FF08C042E0410FBE01ED
:102000006F5F7F4F82E50E94A00629E065EA71E0DC
:10201000B21202C068E871E0FB0101900020E9F70C
:1020200031978F01061B170B0983A8015527CE0195
:1020300002960E94BC2A8091FF0387FF08C041E0FE
:10204000400FBE016F5F7F4F83E50E94A00689E0CD
:10205000DE011196B8120AC08CE7898380E28A8378
:1020600080E3F0FC81E38B83DE011496FD0187E0C1
:1020700090E03CE740E230834183B701082E02C084
:10208000769567950A94E2F720E360FD21E32283C9
:10209000019733968F3F980771F78CE758968C938A
:1020A000589759961C92BE016F5F7F4FFB010190BC
:1020B0000020E9F731971E2F161B103208F01FE1A0
:1020C00019A7412F50E0CE018A960E94BC2A809128
:1020D000FF0387FF08C041E0410FBE01675D7F4FEE
:1020E00084E50E94A006C85BDF4F0FB6F894DEBF00
:1020F0000FBECDBFDF91CF911F910F91FF90EF9059
:10210000DF90CF90BF9008950E94060B2D9A70E04B
:1021100060E088E00E94FC0B70E060E081E00E94DB
:10212000FC0B70E060E082E00E94FC0B1092E80380
:102130000C941D0B1F93CF93DF93EC01122F2A9A5F
:1021400020E00E94BC04AB01BC01FE01E45BFD4F3A
:102150000190F081E02DCE0109958FEF8AB91BB96E
:1021600083E090E00E94F90180E20E9493068B894F
:102170009C890E94F9012D9ADF91CF911F910895BA
:10218000CF92DF92EF92FF92CF93DF93EC016A013F
:102190007B0184E00E94930621E0B701A601CE01F5
:1021A0000E94BC04AB01BC01FE01E45BFD4F019049
:1021B000F081E02DCE0109951BB81AB880E20E948B
:1021C000930683E090E00E94F90189B12D9ADF9196
:1021D000CF91FF90EF90DF90CF9008951BB81AB881
:1021E00080E20E94930684E00E94930689B12D9AB2
:1021F0002A9A08957F928F929F92AF92BF92CF9228
:10220000DF92EF92FF920F931F93CF93DF938C0196
:102210007B015A016C0182EBC81A8DEFD80AD601F6
:10222000ED91FC9140E060E470E0C8010995E701A0
:10223000F12CE12C88248A947C80688199808AB86A
:1022400070E081E00E94FC0B692D70E082E00E944A
:10225000FC0B8AB87BB82A9A80E20E9493062D9ADA
:10226000BFEFEB1AFB0A2596AE14BF0429F7D6017F
:10227000ED91FC9140E060E470E0C801DF91CF9106
:102280001F910F91FF90EF90DF90CF90BF90AF9094
:102290009F908F907F900994CF92DF92EF92FF9260
:1022A0000F931F93CF93DF9300D000D0CDB7DEB74D
:1022B0008C0143E050E067E671E00E94FA1068018B
:1022C00086EBC81A8DEFD80AD601ED91FC9140E05B
:1022D00050E0BA01C8010995E82EF12CFE2CEE243D
:1022E000D601ED91FC9141E050E060E070E0C80162
:1022F0000995E82A43E050E068E571E0C8010E94D2
:10230000FA10F801838D948D8E159F0591F0F98256
:10231000EA829B838C83878944E0BE016F5F7F4F95
:1023200080FF14C083E80E94A00682E0D8011296C4
:102330008C930F900F900F900F90DF91CF911F9182
:102340000F91FF90EF90DF90CF90089589EB0E945E
:10235000A006F8011282EDCFFC01238D348D232BD2
:1023600011F00C944C110895CF92DF92EF92FF92EE
:102370000F931F93CF93DF93CDB7DEB76E970FB652
:10238000F894DEBF0FBECDBFFC01058516852785FD
:10239000308946E050E06AE371E00115110521053E
:1023A000310589F145E555E560E070E049835A83E0
:1023B0006B837C83FAEAFD83EAEACE2EEAE2DE2E24
:1023C000E12CF12CCE82DF82E886F986E5E5EA870A
:1023D0004B875C876D877E87A0E8AF87488B598BDA
:1023E0006A8B7B8BFC8BCD8ADE8AEF8AF88EE98F35
:1023F00040E34E8F0A8F1B8F2C8F3D8F46E050E0BD
:10240000BE016F5F7F4F0E94FA106E960FB6F89470
:10241000DEBF0FBECDBFDF91CF911F910F91FF9017
:10242000EF90DF90CF900895EF92FF920F931F935C
:10243000CF93DF93EC0121E040E050E0BA010E942D
:10244000BC04AB01BC017E0184EBE81A8DEFF80AF5
:10245000D701ED91FC91CE0109952D9A8E01025B79
:102460001D4FD801ED91FC9140E064E871E0CE0190
:10247000099562E070E080E090E00E94290280E22D
:102480000E949306D801ED91FC9141E064E871E06F
:10249000CE01099562E070E080E090E00E942902A0
:1024A00020E040E050E0BA01CE010E94BC04AB0144
:1024B000BC01D701ED91FC91CE01099564E170E07A
:1024C00080E090E00E94290221E040E050E0BA0163
:1024D000CE010E94BC04AB01BC01D701ED91FC917F
:1024E000CE01099562E070E080E090E00E94290250
:1024F0002D9AD801ED91FC9140E064E871E0CE01A5
:10250000DF91CF911F910F91FF90EF9009942F923F
:102510003F924F925F926F927F928F929F92AF9273
:10252000BF92CF92DF92EF92FF920F931F93CF93C0
:10253000DF9300D01F92CDB7DEB79B838A838C01D7
:10254000412C512C32011C0123EE221A2DEF320AAC
:102550004C0188EB881A8DEF980A580192EBA91A62
:102560009DEFB90AF10180819181A281B381481662
:1025700059066A067B0608F061C043E050E06BE252
:1025800071E08A819B810E94FA10AA81BB811D960D
:102590004D915D916D917C915097440D551D661D37
:1025A000771DD401ED91FC91D8015D962C918A8123
:1025B0009B810995F801F58DF983D501ED91FC9189
:1025C00041E060E470E08A819B8109950E945B0292
:1025D0006B017C01B6E9CB0ED11CE11CF11C0E9401
:1025E0005B026C157D058E059F05E8F40E94EE10D8
:1025F000E9818E2787FDF3CF0E94EE10F9818F27A6
:1026000087FDEDCF2FEF2AB92D9A2A9A0F5F1F4F22
:10261000EA81FB818281882389F0FFEF4F1A5F0AEC
:102620006F0A7F0A9FCF40E070E060E087EB0E9476
:10263000A006AA81BB8112961C92E8CF0F900F9042
:102640000F90DF91CF911F910F91FF90EF90DF904E
:10265000CF90BF90AF909F908F907F906F905F9042
:102660004F903F902F9008950F931F93CF93DF9338
:10267000EC012A9A8C01025B1D4FD801ED91FC916F
:1026800041E060E870E0099564E670E080E090E089
:102690000E942902FE01E45BFD4F0190F081E02DD4
:1026A00040E050E0BA01CE010995D801ED91FC91CE
:1026B00041E066E070E0CE01099564E670E080E0FC
:1026C00090E00E94290280E20E9493068B899C89F7
:1026D0000E94F9012D9AD801ED91FC9140E066E845
:1026E00070E0CE01DF91CF911F910F9109940C946E
:1026F0003413FF920F931F93CF93DF938C01C0E3AA
:10270000D0E0F801F1908F01CE010E940428F81664
:1027100021F06F2DCE010E940C282196CF33D105D8
:1027200081F7DF91CF911F910F91FF9008954F9204
:102730005F926F927F92AF92BF92CF92DF92EF92B1
:10274000FF920F931F93CF93DF93CDB7DEB72897F8
:102750000FB6F894DEBF0FBECDBF8C01DC01119621
:102760009C9111971D96CD90DD90ED90FC90509727
:1027700096FD51C0906411969C9384E090E00E9475
:102780009729F801E05CFD4F91838083FC01C082B2
:10279000D182E282F382D8011D961D921D921D9274
:1027A0001C925097F801C584D684E784F0882601EE
:1027B0003701F8E05F0E611C711C580186EBA81A06
:1027C0008DEFB80AF80181859285A385B485C4147C
:1027D000D504E604F70408F05FC0C816D906EA0677
:1027E000FB0608F059C0D501ED91FC91B701A60197
:1027F000C80109958F3F09F449C0E982DA82CB828A
:102800008C8344E0BE016F5F7F4F80EB0E94A00687
:10281000F801128226C0F8014185528563857485CE
:10282000C416D506E606F70608F4BCCF7801F0EC2E
:10283000EF1AFDEFFF0AD7012D913C919F7BF80124
:102840009183F90180819181A281B381F80185870B
:102850009687A787B08BC9010E94332AD7011D92A2
:102860001C9228960FB6F894DEBF0FBECDBFDF9145
:10287000CF911F910F91FF90EF90DF90CF90BF907D
:10288000AF907F906F905F904F900895FFEFCF1AB9
:10289000DF0AEF0AFF0A96CFF8014585568567855E
:1028A0007089585F6F4F7F4F84179507A607B7074A
:1028B000C8F0458756876787708BF8012585368570
:1028C0004785508959834A833B832C83BD83AE83DC
:1028D0009F83888748E0BE016F5F7F4F80EE0E9434
:1028E000A006BFCF85879687A787B08BE6CFCF930B
:1028F000DF93EC01898186FD0BC08A818823C9F0B2
:102900008F8981FF05C082FD0BC0CE010E94141289
:102910008F8983FD0EC0CE01DF91CF910C94971368
:1029200087FFF6CF40E070E060E088E50E94A006F7
:10293000EFCFDF91CF910895CF93DF93EC018981A1
:1029400086FD07C08B8D9C8D892B59F48F8981FD65
:1029500011C08F8983FD0BC0CE01DF91CF910C9404
:102960009713CE010E944C118A818111EFCFDF9124
:10297000CF91089582FD0AC0CE010E94B41169E68C
:1029800070E080E090E00E942902E3CF87FFE1CF72
:1029900040E070E060E089E50E94A006DACF4F9247
:1029A0005F926F927F92AF92BF92CF92DF92EF923F
:1029B000FF920F931F93CF93DF93CDB7DEB7289786
:1029C0000FB6F894DEBF0FBECDBF8C015C0182EB69
:1029D000A81A8DEFB80AD501ED91FC9141E068E8A5
:1029E00070E0C801099564EF71E080E090E00E941A
:1029F00029020E94D00B81112AC040E070E060E003
:102A000080E80E94A00682E0F8018283F8018281BA
:102A10008111BFC0D501ED91FC9140E068E870E004
:102A2000C801099528960FB6F894DEBF0FBECDBF3A
:102A3000DF91CF911F910F91FF90EF90DF90CF909A
:102A4000BF90AF907F906F905F904F9008950E94DD
:102A5000CD0D6C012C01712C612CD8015196ED909B
:102A6000FC90C701B0E0A0E08C509E4FAF4FBF4F2D
:102A700084159505A605B70508F040C0B2E3CB0E56
:102A8000D11CE2E3EE0EF11C198298EE692E93E060
:102A9000792EC601B3010E9434286A831B82E4E6C2
:102AA000F0E0C601BF010E943428CB012AE030E0EB
:102AB000B9010E9434288C831D82C701B3010E9492
:102AC00034286E831F82C701BF010E943428CB01C6
:102AD000B9010E9434288887D80157968C9148E024
:102AE000BE016F5F7F4F80FF02C082E88ACF88EB14
:102AF0000E94A006D80112961C9288CF9701AFE5DC
:102B0000B0E00E94252824E630E040E050E00E943A
:102B10004828421653066406750608F077CFB2E3DC
:102B2000CB0ED11CE2E3EE0EF11C198288EE682E6A
:102B300083E0782EC601B3010E9434286A831B8289
:102B4000E4E6F0E0C601BF010E943428CB012AE090
:102B500030E0B9010E9434288C831D82C701B30183
:102B60000E9434286E831F82C701BF010E9434284F
:102B7000CB01B9010E943428888748E0BE016F5F0D
:102B80007F4F81E80E94A00682E0D80112968C93C4
:102B90003DCF838D948D892B49F0C8010E94900709
:102BA000D80112968C91882309F434CFF8018789D3
:102BB00081FF05C082FD03C0C8010E946309D801DE
:102BC00057968C9183FD2ECFC8010E9497132ACF70
:102BD000CF93DF93EC01898186FD0EC0CE010E9468
:102BE000B00F8A818823C9F08F8981FF05C082FDDB
:102BF0000BC0CE010E9434138F8983FD0EC0CE011D
:102C0000DF91CF910C94971387FFF6CF40E070E0EF
:102C100060E088E50E94A006EFCFDF91CF91089594
:102C20004F925F926F927F92AF92BF92CF92DF925C
:102C3000EF92FF920F931F93CF93DF9300D000D0BA
:102C4000CDB7DEB78C01DC015B968D919C91892B11
:102C500021F546E050E06DE071E0C8010E94FA10F5
:102C600020E245E555E560E070E0C8010E941B0ADE
:102C700081119DC00F900F900F900F90DF91CF9119
:102C80001F910F91FF90EF90DF90CF90BF90AF908A
:102C90007F906F905F904F900895F80181859285A5
:102CA000A385B48580349105A105B10590F42789E9
:102CB00019821A821B828C8344E0BE016F5F7F4FB2
:102CC00084E820FD66C08AEB0E94A006F80112820B
:102CD00066C06801F2EBCF1AFDEFDF0AD601ED9175
:102CE000FC9141E060E870E0C801099562E370E0A2
:102CF00080E090E00E942902D601ED91FC9141E034
:102D000062E070E0C801099564E670E080E090E060
:102D10000E942902F8014184528463847484B301BF
:102D2000A20140545109610971095801F6EBAF1A2B
:102D3000FDEFBF0AD501ED91FC91C8010995E82E80
:102D4000F12CFE2CEE24B301A2014F53510961096D
:102D50007109D501ED91FC91C8010995E82AD601C8
:102D6000ED91FC9140E062E870E0C8010995F8013E
:102D7000838D948DE816F90691F0F982EA829B839F
:102D80008C83878944E0BE016F5F7F4F80FF0DC059
:102D900083E80E94A00682E0D80112968C93D801A5
:102DA00012968C91811155CF65CF89EB8DCFF801AB
:102DB000878983FD5FCFC8010E9497135BCF2F9255
:102DC0003F924F925F926F927F928F929F92AF92BB
:102DD000BF92CF92DF92EF92FF920F931F93CF9308
:102DE000DF93CDB7DEB7C255D1090FB6F894DEBF79
:102DF0000FBECDBF8C01FC01E05BFD4F0190F08167
:102E0000E02D60E870E009959801225B3D4F29961E
:102E10003FAF2EAF299781111DC0D9012D913C9153
:102E2000F80184819581A681B78141E00B97A105C6
:102E3000B10529F0878960E871E084FF02C060E88D
:102E400070E0C801F901099564EF71E080E090E05D
:102E50000E94290240E450E06FEF70E09E012F5F76
:102E60003F4FC9010E94C52AD80153964D905D90ED
:102E70006D907C9056972D964CAE5DAE6EAE7FAE4B
:102E80002D97312C212CF801E35EFD4F2F96FFAFDB
:102E9000EEAF2F979801285B3D4F63963FAF2EAF63
:102EA0006397A801465B5D4F61965FAF4EAF619738
:102EB0002996AEADBFAD2997ED91FC9141E064E05C
:102EC00070E0C80109956AE070E080E090E00E943F
:102ED00029027801812C912C54012F96EEADFFAD83
:102EE0002F9780819181A281B38188169906AA06C5
:102EF000BB06C8F5D501C40123E0B695A795979503
:102F000087952A95D1F721E030E02C0F3D1F820FE5
:102F1000931FDC018C9190E094012770332702C04D
:102F2000959587952A95E2F780FF14C0F8014585AD
:102F3000568567857089480D591D6A1D7B1D6396EE
:102F4000AEADBFAD6397ED91FC91D7015D962C912D
:102F5000C8010995BFEF8B1A9B0AAB0ABB0AEFEFBA
:102F6000EE1AFE0ABACF2996AEADBFAD2997ED9104
:102F7000FC9140E064E070E0C80109954801BDE1C2
:102F80008B0E911CC12CD12C7601B12CA12C2F962B
:102F9000EEADFFAD2F9780819181A281B381C816DC
:102FA000D906EA06FB0608F041C0D8011D964D91EE
:102FB0005D916D917C9150974C0D5D1D6E1D7F1D37
:102FC0006196AEADBFAD6197ED91FC91C8010995D9
:102FD000F401A1914F01B701A60193E076956795A1
:102FE000579547959A95D1F7E1E0F0E0EC0FFD1F7A
:102FF000E40FF51F96012770332741E050E002C02F
:10300000440F551F2A95E2F79A0190818A1759F0CB
:103010005FEFA51AB50A292B20838FEFC81AD80AAB
:10302000E80AF80AB4CF20952923F6CFA114B104F9
:1030300059F52114310449F0D80157968C9187FF36
:1030400004C0622D81E50E948E0CF801438A548AE7
:10305000658A768ACE5ADF4F0FB6F894DEBF0FBE70
:10306000CDBFDF91CF911F910F91FF90EF90DF9037
:10307000CF90BF90AF909F908F907F906F905F9018
:103080004F903F902F900895FFEF2F1A3F0A2D96F3
:103090006CAD7DAD8EAD9FAD2D9724E130E040E06D
:1030A00050E00E944828240D351D461D571DD801AB
:1030B00053962D933D934D935C9356972D962CAD3F
:1030C0003DAD4EAD5FAD2D97240D351D461D571DF1
:1030D0002D962CAF3DAF4EAF5FAF2D9734E1231649
:1030E000310409F0E5CE2996AEADBFAD2997ED913B
:1030F000FC9140E060E870E0C8010995F801858521
:103100009685278522962FAF229723969FAF2397E8
:1031100024968FAF249784E125968FAF2597269626
:10312000BFAE26972796AFAE279746E0BE016F5BEE
:103130007F4F81EB0E94A006D80112961C928ACF85
:103140004F925F926F927F92AF92BF92CF92DF9237
:10315000EF92FF920F931F93CF93DF9300D000D095
:103160001F92CDB7DEB76C010E94AA0D1816190682
:103170000CF0CFC00E94AA0D181619060CF0C9C099
:103180008AE396E00E9404038434910509F443C065
:103190008F349105D1F0839709F0B8C00E94AA0D31
:1031A00004970CF4B6C00E94A60D76012DE1E20E44
:1031B000F11C62E070E0CE0101960E94B702029716
:1031C00009F442C09FEF8FEF87C00E94AA0D0297BB
:1031D0000CF49FC00E94A60D8AE396E00E940403AF
:1031E0008B34910539F60E94A60D90E080E00F9097
:1031F0000F900F900F900F90DF91CF911F910F9133
:10320000FF90EF90DF90CF90BF90AF907F906F9046
:103210005F904F9008950E94AA0D04970CF479C016
:1032200064E070E0CE0101960E94B70244E050E0F5
:1032300064E572E0CE0101960E94F627892B09F021
:1032400099CF81E090E0D3CFA980BA80BA24AB2493
:10325000BA2461E070E0CE0105960E94B7020197A2
:1032600009F0B0CF9EEF81E0A81682E0B80608F022
:10327000AACF0E945B022B013C0110E000E00A157E
:103280001B0558F0F7019701200F311F80E0E2176E
:10329000F307C9F091918927FACF0E945B02641964
:1032A000750986099709613D774081059105A0F56B
:1032B000B501601B710BC701800F911F0E94B702FF
:1032C000080F191FDCCF9D81891711F09CEF7BCF70
:1032D000902F812F17FF0CC089839A8342E0BE0193
:1032E0006F5F7F4F89EA0E94A00684E090E07FCF65
:1032F000F601E35EFD4F012E000C220B330B008321
:1033000011832283338382E090E071CF0E94A60D67
:1033100031CF83E090E06BCF9DEF55CF0F931F939C
:10332000CF93DF93EC014D855E856F857889898524
:103330009A85AB85BC85481759076A077B0720F03B
:10334000CE010E94EB0A12C0CE010E94A018833069
:10335000910591F4898187FD09C040E070E060E04B
:1033600082E00E94A00689818068898381E0DF91E4
:10337000CF911F910F91089529812F772983813053
:103380009105F1F2029711F080E0F1CF8E01035E1A
:103390001D4F8D859E85AF85B889F801408151818B
:1033A00062817381840F951FA61FB71F49855A85B7
:1033B0006B857C85481759076A077B0738F440E01E
:1033C00070E060E087EA0E94A006DECFFE01EC5BC1
:1033D000FD4F808191810097B9F2BE010E945B0B85
:1033E000019691F28D859E85AF85B889F80140815F
:1033F000518162817381840F951FA61FB71F8D872E
:103400009E87AF87B88BB2CFCF92DF92EF92FF92B9
:10341000CF93DF93EC010E945B026B017C0128EEED
:10342000C20E23E0D21EE11CF11C0E945B026C154F
:103430007D058E059F0570F4CE010E94A0180097AF
:1034400089F0049769F06AE070E080E090E00E9403
:103450002902EBCF40E070E060E088EA0E94A0061D
:1034600080E001C081E0DF91CF91FF90EF90DF908D
:10347000CF9008950F931F93CF93DF938C01EB01AF
:103480008091E9038F7390E09B01215031098217ED
:10349000930731F08617970779F181E090E008C033
:1034A00088EE93E00E94041A811107C08FEF9FEF0E
:1034B000DF91CF911F910F9108958091FF0390911B
:1034C0000004A0910104B091020480789927AA27F2
:1034D000BB27C130D105D1F4892B8A2B8B2B31F03E
:1034E00040E070E060E082E40E94A0068091E90381
:1034F000807C8C2B8093E9030115110581F4809168
:10350000E90386FF14C090E080E0D2CF892B8A2B9C
:103510008B2B61F340E070E060E083E4E5CF68EE80
:1035200073E0C8010E945B0B019649F7BFCF40E0F2
:1035300070E060E080E1219709F080E30E94A0063E
:103540009091E903892F8F738F5F907C892B8093F3
:10355000E903A3CFCF93DF9320912C0630912D0662
:10356000232B71F0EC019091E9039F73963051F495
:1035700088EE93E00E94A01821E0039709F443C06D
:1035800020E041C09330F9F0923019F588EE93E0D5
:103590000E94041A8823D9F10E9484069091E903BD
:1035A000907C93609093E9038091FF0387FF06C0AE
:1035B00040E070E060E080E40E94A0068091E903B2
:1035C0008F73833039F588EE93E0FE01DF91CF9160
:1035D000099461E070E080912A0690912B060E9488
:1035E0003A1A8130910559F465E070E080912E0619
:1035F00090912F060E943A1A81309105F9F221E04C
:10360000892B09F0BDCF822FDF91CF9108958FEFE5
:103610009FEFF5CF21E0F7CFCF92DF92EF92FF92AD
:103620000F931F93CF93DF93FC01EC5BFD4F208141
:1036300031812115310559F410E0812FDF91CF91AF
:103640001F910F91FF90EF90DF90CF900895EC01C4
:10365000BC01C9010E945B0B019671F340E070E070
:1036600060E082EE0E94A00680910001882309F4A8
:1036700062C0FE01E35EFD4FE080F1808EEFE81650
:103680008FEFF80608F057C0E2E0F2E064918AE3B9
:1036900096E00E944A03E3E0F2E064918AE396E058
:1036A0000E944A03E4E0F2E064918AE396E00E941B
:1036B0004A03E5E0F2E064918AE396E00E944A035F
:1036C00087010E5F1F4F612F8AE396E00E944A0335
:1036D000602F8AE396E00E944A0366EE8AE396E052
:1036E0000E944A03E8EEF1E004916E01C6018C1BD2
:1036F0009D0B8E159F0588F4F601158D612F8AE3C9
:1037000096E00E944A03E12FE027F0E0EE5FFE4FD3
:103710000491FFEFCF1ADF0AE9CF602F8AE396E02A
:103720000E944A036AE08AE396E00E944A038AE321
:1037300096E00E949703CE010E94041A182F882356
:1037400009F47ACF8D859E85AF85B889FE01E35E49
:10375000FD4F4081518162817381840F951FA61FA7
:10376000B71F8D879E87AF87B88B49855A856B8534
:103770007C8584179507A607B70708F45ECFCE01AE
:103780000E94EB0A5ACFEF92FF920F931F93CF93B1
:10379000DF93FB01208131812430310539F58A0125
:1037A000EB017C01CA010E94ED27EA81FB812C819B
:1037B0003D812E1B3F0B82179307C1F4AC01B8016A
:1037C000C7018E0F9F1F0E94F62721E030E0892B52
:1037D00011F430E020E088279927821B930BDF91BA
:1037E000CF911F910F91FF90EF9008958FEF9FEF72
:1037F000F6CFEF92FF920F931F93CF93DF938C013D
:10380000EB0183E0CC0FDD1F8A95E1F7CE018851F3
:103810009E4F7C014AEC52E0BC01C8010E94C31BD0
:10382000892B41F044EC52E0B701C8010E94C31B50
:10383000892B81F4C051DE4F8A819B81800F911FBB
:103840000E946206862FDF91CF911F910F91FF900A
:10385000EF9008958FEFF7CFEF92FF920F931F93A2
:10386000CF93DF937C01890183E0440F551F8A9534
:10387000E1F7EB01C40FD51F4AE452E0BE01C701D6
:103880000E94C31B892B99F48A859B858E0D9F1DF1
:103890000E946206F801648375838683978381E0C2
:1038A000DF91CF911F910F91FF90EF90089580E0ED
:1038B000F7CFEF92FF920F931F93CF93DF937C018B
:1038C000890183E0440F551F8A95E1F7EB01C40F8E
:1038D000D51F43E452E0BE01C7010E94C31B892BE0
:1038E00089F48A859B858E0D9F1D0E946206F801D2
:1038F000728B618B81E0DF91CF911F910F91FF90CF
:10390000EF90089580E0F7CFEF92FF920F931F930F
:10391000CF93DF937C01890183E0440F551F8A9583
:10392000E1F7EB01C40FD51F47E352E0BE01C70129
:103930000E94C31B892B99F48A859B858E0D9F1D40
:103940000E946206F801638B748B858B968B81E0F5
:10395000DF91CF911F910F91FF90EF90089580E03C
:10396000F7CFEF92FF920F931F93CF93DF937C01DA
:10397000890183E0440F551F8A95E1F7EB01C40FDD
:10398000D51F42E352E0BE01C7010E94C31B892B31
:1039900081F48A859B858E0D9F1D0E946206F80129
:1039A000638381E0DF91CF911F910F91FF90EF90A2
:1039B000089580E0F7CFEF92FF920F931F93CF937C
:1039C000DF937C01890183E0440F551F8A95E1F75D
:1039D000EB01C40FD51F48E252E0BE01C7010E94AF
:1039E000C31B892B81F48A859B858E0D9F1D0E94A8
:1039F0006206F801608781E0DF91CF911F910F91FE
:103A0000FF90EF90089580E0F7CFEF92FF920F9331
:103A10001F93CF93DF937C01890183E0440F551FEF
:103A20008A95E1F7EB01C40FD51F40E252E0BE01D9
:103A3000C7010E94C31B892B89F48A859B858E0D43
:103A40009F1D0E946206F801748F638F81E0DF91F1
:103A5000CF911F910F91FF90EF90089580E0F7CFE5
:103A6000EF92FF920F931F93CF93DF937C01890115
:103A700083E0440F551F8A95E1F7EB01C40FD51F72
:103A800048E152E0BE01C7010E94C31B892B99F493
:103A90008A859B858E0D9F1D0E946206F8016587B1
:103AA00076878787908B81E0DF91CF911F910F916F
:103AB000FF90EF90089580E0F7CFEF92FF920F9381
:103AC0001F93CF93DF937C01890183E0440F551F3F
:103AD0008A95E1F7EB01C40FD51F4CE052E0BE011F
:103AE000C7010E94C31B892B99F48A859B858E0D83
:103AF0009F1D0E946206F801618772878387948701
:103B000081E0DF91CF911F910F91FF90EF90089589
:103B100080E0F7CFEF92FF920F931F93CF93DF9345
:103B20007C01890183E0440F551F8A95E1F7EB0181
:103B3000C40FD51F46E052E0BE01C7010E94C31B5F
:103B4000892B99F48A859B858E0D9F1D0E946206A4
:103B5000F801678B708F818F928F81E0DF91CF9119
:103B60001F910F91FF90EF90089580E0F7CF1F9283
:103B70000F920FB60F9211242F933F938F939F9321
:103B8000AF93BF938091E0019091E101A091E20198
:103B9000B091E3013091DF0123E0230F2D3768F16D
:103BA00026E8230F0296A11DB11D2093DF0180930B
:103BB000E0019093E101A093E201B093E3018091D1
:103BC000E4019091E501A091E601B091E701019631
:103BD000A11DB11D8093E4019093E501A093E6013E
:103BE000B093E701BF91AF919F918F913F912F913A
:103BF0000F900FBE0F901F9018950196A11DB11D3B
:103C0000D4CF1F920F920FB60F9211242F933F9390
:103C10004F935F936F937F938F939F93AF93BF93D4
:103C2000EF93FF938AE396E00E942803FF91EF91C0
:103C3000BF91AF919F918F917F916F915F914F91C4
:103C40003F912F910F900FBE0F901F9018951F92CC
:103C50000F920FB60F9211242F938F939F93EF9390
:103C6000FF93E0914A06F0914B068081E091500667
:103C7000F091510682FD1BC09081809153068F5FA9
:103C80008F7320915406821741F0E0915306F0E0C3
:103C9000E65CF94F958F80935306FF91EF919F91CA
:103CA0008F912F910F900FBE0F901F9018958081CC
:103CB000F4CFCF93DF93CDB7DEB7E2970FB6F8948A
:103CC000DEBF0FBECDBF789484B5836084BD85B55B
:103CD000836085BD80916E00816080936E0082E07C
:103CE0008093810080918100816080938100809128
:103CF00080008160809380008091B1008460809317
:103D0000B1008091B00081608093B00080919100FB
:103D100083608093910080919000816080939000F7
:103D20008091A10083608093A1008091A0008160B8
:103D30008093A00087E880937A001092C1000CEC79
:103D4000E02E01E0F02E00E310E0C8010E940428FC
:103D5000D7018D937D010F5F1F4F0F331105A9F719
:103D60006CE871E08CEC91E00E94CC2A892B29F15F
:103D70006CE871E08CEC91E00E94D52A80EB9EE12A
:103D8000A4E0B0E08093D2019093D301A093D4013A
:103D9000B093D50180EE9BEAA0E0B0E08093D6011D
:103DA0009093D701A093D801B093D9018FEF80935E
:103DB000DA018CEC91E00E94791381E10E94B90153
:103DC00080E10E94B90118E0F12E10E000E081E1ED
:103DD0000E94E101080F191FFA94F110F8CFB3E027
:103DE00016950795BA95E1F782E0083C110538F081
:103DF000C8018C5D91098C37914020F485E0809357
:103E000001010EC08EEF08351240C8F380E10E9418
:103E1000E10121E0883E93400CF020E02093010175
:103E2000809101018E3F41F48091DA018F3F21F4AE
:103E30006EEF8BE50E948E0C8FE284B980E185B92C
:103E40002D9A2A9A70E060E081E00E94FC0B70E0FD
:103E500060E082E00E94FC0B70E060E088E00E947D
:103E6000FC0B0E941D0B1092E8038091E80388234D
:103E700009F435C00E945B020091DB011091DC0166
:103E80002091DD013091DE01061717072807390759
:103E900030F56091E8038AEA0E948E0C0E9484103B
:103EA00081E08093EA036091E803603110F00C94A4
:103EB000B627E62FF0E0E15AF04E0C948928AD1FAA
:103EC000F72402250525102513250225A726E5251B
:103ED000B627B6271E251E25B6259527D9258091FC
:103EE000E8038111DDCF0E94AA0D18161906ACF562
:103EF0008AE396E00E9404038B37910509F074C5AC
:103F000081E08093EA031092E90360E072E085E0CB
:103F100094E00E94B702AC0170E060E040930506B7
:103F200050930606609307067093080610E8E12E8A
:103F3000F12C00E010E0E092FF03F0920004009307
:103F4000010410930204452B462B472B49F440E013
:103F500070E060E084EA0E94A0060E94B70385CF6B
:103F6000FC01E851FC4F158E6FEF7FEF30E020E051
:103F700050E040E0512C412C4817590730F4FA0129
:103F8000EB5FFB4FE081E1113DC0C901019713E0F8
:103F9000220F331F1A95E1F7F901EE51FE4F97FFFB
:103FA00053C2141415040CF030C18FEF8093E80352
:103FB0001092FF0310920004109201041092020468
:103FC000F12C10E000E0B80185E094E00E94F91BBC
:103FD0008F3F09F447C28093E8030F5F1F4F809122
:103FE000E8038F3F11F0F1104DC20F5F1F4F041512
:103FF00015054CF38F3F09F045C240E070E060E0EA
:1040000081EAA9CFEA330CF068C0E0330CF07CC041
:10401000E03209F47DC16CF4E93034F0EB300CF49B
:1040200077C1ED3009F474C1BEEF4B2E55245A947C
:10403000B8CFEC3209F4C3C1ED3209F465C0E23205
:1040400099F76A014F5F5F4F4817590708F0DDC0C5
:10405000FA01EB5FFB4FE081EE2309F4D6C0E232B8
:1040600009F05CC12034310508F0CFC089010F5F31
:104070001F4FE3E0220F331FEA95E1F7F901E85102
:10408000FE4FEE24EA94FE2CF582E482F382E28273
:1040900017821682309709F4B8C024E030E03183EB
:1040A0002083D6011196B383A283558344833FEFC7
:1040B000431A530A6F3F760709F4F8C0FB0123E067
:1040C000EE0FFF1F2A95E1F7E851FE4F2681378159
:1040D0002F5F3F4F37832683E9C0E636A9F06CF4A3
:1040E000EB3509F497C0ED3509F4E2C0EA3309F085
:1040F0009BCFB901615071090BC1E43729F00CF075
:104100006DC0EE3609F090CF6F3F7607B1F0FB013E
:10411000A3E0EE0FFF1FAA95E1F7E851FE4FA08143
:10412000B181A130B10509F470C0149731F4068053
:10413000F781E02DEF2B09F068C08A01FA01EB5FEF
:10414000FB4F8417950709F460C0A191AA2309F4D5
:104150005CC0A03251F00CF065C1A9300CF46BC109
:10416000AB301CF0AD3009F066C12034310508F0E9
:104170004CC0D9011196E3E0220F331FEA95E1F715
:10418000F901E851FE4FEE24EA94FE2CF582E48218
:10419000F382E282178216823097B9F128E030E08C
:1041A0003183208302831383558344834150510913
:1041B0003FEF431A530A6F3F760771F0FB0103E0AC
:1041C000EE0FFF1F0A95E1F7E851FE4F2681378178
:1041D0002F5F3F4F378326839D019AC0EB37D1F085
:1041E000ED3709F021CFCC24C394D12CD9011197FC
:1041F000F90103E0EE0FFF1F0A95E1F7E052FE4FD1
:10420000B7FF5AC0119609F083C040E070E060E04B
:1042100080EAA1CE0FEF401A500A20343105A8F7EA
:1042200089010F5F1F4F6901B3E0CC0CDD1CBA950B
:10423000E1F7D601A851BE4F6D01EE24EA94FE2CA1
:104240001596FC92EE9214971396FC92EE921297AA
:1042500017961C921E921697AB2BB9F26F3F7607FA
:10426000C9F0A3E0660F771FAA95E1F768517E4F6A
:10427000DB01ED90FC90EA94EF2839F2DB01169611
:10428000ED90FC90BFEFEB1AFB0ADB011796FC9256
:10429000EE92169761E070E0EB3711F062E070E0AB
:1042A000F6017183608353834283B901980130C062
:1042B000E2E0CE2ED12C9ACFE280F380EF20E09482
:1042C00051F1E480F580EF20E09429F5608171815F
:1042D0006C157D0509F099CFBA016F5F7F4F75832B
:1042E0006483FD0113E0EE0FFF1F1A95E1F7E8511B
:1042F000FE4FBD01A281B381119621F0A481B58149
:10430000119631F06150710938976F3F760791F738
:104310004F5F5F4F31CE1197389772CFEC3509F070
:1043200091CEFA013196E817F90708F08BCE8F018C
:104330000B5F1B4FD8011C91163639F074F41F32F5
:1043400021F02CF4123209F060CFAF017BCE1C3586
:10435000E1F3123609F059CFF8CF1237B1F324F454
:104360001E3609F052CFF1CF143779F3153709F023
:104370004CCFFA0132968A01095F1B4F4A5F5F4FAB
:10438000E817F907C1F0D801FD908D01FF2099F0E1
:10439000B0EDEB2EEF0CB9E0BE1548F4E894F5F85B
:1043A000AFEBEA2EFE0CA5E0AF1508F42ECF319648
:1043B000E417F50729F7AF014150510943CE6F3F8C
:1043C000760709F4A5CFFB0103E0EE0FFF1F0A9566
:1043D000E1F7E851FE4F0190F081E02D31973297DF
:1043E00008F496CFD9011197F90113E0EE0FFF1FE2
:1043F0001A95E1F7E052FE4FB7FD8ACF0081118197
:10440000015011090230110550F4E280F380EF20D1
:10441000E09429F0E480F580EF20E09499F0119782
:104420003897EACFAD3509F4A0CEAD3709F49DCE6B
:10443000AC3209F49ACE4F5F5F4FA052AF3508F40B
:1044400080CEE3CEBD0164CF208131812F3F3F4F2D
:1044500031F0228133812F3F3F4F09F4D6CE0197AF
:1044600038979DCD28EE33E0A80168EE71E085E035
:1044700094E00E948A1D882309F4B1CD0F5F1F4F7D
:10448000F82EADCD8B3008F0FCC11092F5031092E0
:10449000F6031092F7031092F8031092FF031092A4
:1044A000000410920104109202048FEF8093220600
:1044B000809323068093090610921D0610921E0613
:1044C00010921F06109220061092240610922506C4
:1044D00010922606109227061092040410920304EC
:1044E0008091E8019091E901019711F5E090EE01CA
:1044F000F090EF01F8AAEFA61BA21AA2662463941B
:10450000712CEFA4F8A80AA11BA10E151F051CF120
:10451000809109068F3F61F48FEF9FEFA0E0B0E03C
:1045200080931D0690931E06A0931F06B09320064D
:104530008091E803873008F0E9C168EE73E08EE906
:104540009CE00E945B0B019609F0E0C140E070E046
:1045500060E082EA00CD6414750454F7C301F3E00F
:10456000880F991FFA95E1F78C0108511E4F180129
:1045700047EB52E0B80185E094E00E94C31B892B11
:1045800059F041EB52E0B80185E094E00E94C31B72
:1045900010E000E0892B51F412E0610E711C0AA1B9
:1045A0001BA10F5F1F4F1BA30AA3ABCFF801E3575B
:1045B000FD4F45915491B10185E094E00E94C31BE9
:1045C000892B91F4F801E157FD4FA591B49128EEA4
:1045D00033E0A30168EE71E085E094E0FD01099508
:1045E000F2E06F0E711CDBCF0C5F1F4F0432110520
:1045F000E9F642E852E0B10185E094E00E94C31B75
:104600008C01892B09F039C17201E618F708FBA665
:10461000EAA6970122303105E4F0D10118968D9178
:104620009C9119970197A9F41E96ED90FC90FAAA17
:10463000E9AA1FA21EA2E2E0AE2EB12C01E010E01A
:10464000E9A8FAA82EA13FA12E153F053CF017FDC1
:104650006FCF0F5F1F4F600E711EA1CFEAA4FBA4A6
:10466000AE14BF040CF064CF650173E0CC0CDD1C0C
:104670007A95E1F77101EC0CFD1C4EE752E0B701B1
:1046800085E094E00E94C31B4C01892B09F079C09E
:1046900028E0C20ED11CF101EC0DFD1D808191813D
:1046A000029709F045CFC680D7803FEF30932106AF
:1046B00089E096E099A788A7E0912106EEA78C14DF
:1046C0009D0424F4F4E18F169104E1F42EA52F3F0C
:1046D00011F4C092210634E1C316D1042CF4F60182
:1046E000E75FF94F4FEF408382E0C80ED11C0C0DFD
:1046F0001D1DAC0CBD1C2EA13FA12F5F3F4F3FA342
:104700002EA39ECFD70152968D919C918B5F9B4F8C
:104710000E946206E8A5F9A56193F9A7E8A7262FEC
:1047200030E081E090E0A0E0B0E004C0880F991F85
:10473000AA1FBB1F6A95D2F7AC01BD0180911D066F
:1047400090911E06A0911F06B0912006842B952BF8
:10475000A62BB72B80931D0690931E06A0931F06D1
:10476000B09320069EA59F3F29F48216930611F070
:1047700080922106AFEF8A1A9A0AB8E0EB0EF11C7C
:104780009BCF42E752E0B70185E094E00E94C31B53
:104790004C01892B09F044C098E0C90ED11CF101ED
:1047A000EC0DFD1D80819181029709F0C1CEC6807C
:1047B000D780A8E0EA0EF11C8C149D0424F0B2E02E
:1047C000CB0ED11C94CFD7011A968D919C918B5F03
:1047D0009B4F0E94620681E090E0A0E0B0E004C040
:1047E000880F991FAA1FBB1F6A95D2F7AC01BD01A4
:1047F0008091240690912506A0912606B091270667
:10480000842B952BA62BB72B8093240690932506FB
:10481000A0932606B09327069FEF891A990AC9CF5D
:1048200043E652E0B70185E094E00E94C31B0E5FAF
:104830001F4FE2E0AE0EB11C892B59F4D7011A9636
:104840008D919C918B5F9B4F0E9462066093220624
:1048500052CF4AE652E0B70185E094E00E94C31BC4
:10486000892B09F048CFF701828593858B5F9B4F99
:104870000E946206609323063ECF32E0630E711CF5
:104880008ECE8E3009F042C0EE24E394F12C10E07D
:1048900000E032C0B70185E094E00E94F91B8F3F31
:1048A00041F528EE33E0A70168EE71E085E094E081
:1048B0000E948A1D81111DC0870163E0000F111F36
:1048C0006A95E1F708511E4F4FE552E0B80185E0C7
:1048D00094E00E94C31B892B09F052C0F801828525
:1048E00093858B5F9B4F0E9462066093DA0101E023
:1048F00010E0F2E0EF0EF11CE414F5045CF201307C
:10490000110521F48CEC91E00E9479138091FF0352
:1049100087FF11C080E18983E2E9F1E0DE011296B0
:1049200001900D928A95E1F741E1BE016F5F7F4FE3
:104930008AE50E94A0068091FF0387FF05C0609171
:1049400001018CE50E948E0C8091FF0387FF06C059
:104950000E94D00B682F8BE50E948E0C8091FF0384
:1049600087FF05C06091E8038DE50E948E0C40E052
:1049700070E060E081E00E94A0060E948406EDCA1B
:104980004CE552E0B80185E094E00E94C31B892BFE
:1049900089F4D8011A968D919C918B5F9B4F0E9450
:1049A00062066093D2017093D3018093D4019093F7
:1049B000D5019DCF49E552E0B80185E094E00E9421
:1049C000C31B892B09F0D6C2F801828593858B5FC2
:1049D0009B4F0E9462066093D6017093D70180932B
:1049E000D8019093D90183CF0E94A60DB6CA8CE05E
:1049F0009BE10E94AA1A91E0892709F4AECA0E949D
:104A00008410ABCA8EE899E1F4CF8091FF0381FD59
:104A100007C040E070E060E085EA0E94A006EFCFAA
:104A200084EB9BE0E6CF8091030490910404892BF2
:104A3000B9F740E070E060E086EAEFCF8091E903EB
:104A400081112EC00E94D00B811105C040E070E0A2
:104A500060E08CEAE2CF0E94060B8091E80360E8F8
:104A600071E08B3021F08C30A1F460E870E088E0D8
:104A70000E94FC0B64E670E080E090E00E94290256
:104A80000E941D0B81E08093E90340E070E060E04C
:104A900062CA0E941D0B40E070E060E08DEABDCF6D
:104AA00088EE93E00E94A018892B09F056CA64EFA3
:104AB00071E080E090E00E9429020E94AE0D6B013F
:104AC0007C0110E000E0C114D104E104F10481F0A4
:104AD00022E030E040E050E00E946A28CA01B901BB
:104AE000705D8E4E9F4FA70196010E946A28890132
:104AF0000E94CD0D9C012E5C3F4F48EEE42E43E01A
:104B0000F42EC901B7010E943428D62EE4E6F0E065
:104B1000C901BF010E943428CB012AE030E0B9016D
:104B20000E943428482F0E5C1F4FC801B7010E9415
:104B30003428F62EC801BF010E943428CB01B901E8
:104B40000E9434289091E8031982DA821B824C83F8
:104B50001D82FE821F82888748E0BE016F5F7F4F03
:104B600085EE9C3009F407CF84EE05CF0BEB12E005
:104B7000F8016491662341F08AE396E00E944A03BB
:104B80000F5F1F4F892BA1F740E150E062E971E010
:104B90008AE396E00E94670242E050E063EA71E037
:104BA0008AE396E00E9467028AE396E00E949703F8
:104BB00026CF8091DA019091010199838A8342E0A6
:104BC000BE016F5F7F4F84E028CF88EE93E00E94A4
:104BD000A018892B09F0C1C90E94AA0D04970CF4F2
:104BE000BCC90E94A60D7C010E94A60D6C010E940A
:104BF000A60D8DA71CA60E94A60DACA4BDA4A82A34
:104C0000B92A850111708091FF0390910004A09151
:104C10000104B0910204AC01BD0126E076956795D0
:104C2000579547952A95D1F741704983AC01BD014D
:104C300035E076956795579547953A95D1F7417048
:104C40004A8387FF07C042E0BE016F5F7F4F85E563
:104C50000E94A006FF2448E0B70186EA91E00E9486
:104C6000CB0FDD2448E0B6018AEA91E00E94CB0F29
:104C700048E0B8018EEA91E0B7FE0DC049E08EEA47
:104C800091E00E94CB0FC8010E94D70B682F70E003
:104C900048E083EB91E00E94CB0F40E070E060E0E1
:104CA00081E00E94A0060E94060BB60181E00E94EE
:104CB000FC0BB70182E00E94FC0BB7FE39C0B801C3
:104CC00088E00E94FC0B8091FF0390910004A0916A
:104CD0000104B091020416E0B695A79597958795C3
:104CE0001A95D1F7F1E08F27682F617080E20E945A
:104CF00098068091FF0390910004A0910104B09167
:104D0000020405E0B695A795979587950A95D1F782
:104D100001E08027682F617084E00E9498061C9B48
:104D200013C068EC70E080E090E00E942902F7CFA9
:104D30008FEF8AB90BB92B9A81E090E00E94F901BC
:104D400088E00E949306BFCF0E941D0B58CE809131
:104D5000FF0390910004A0910104B0910204AC0102
:104D6000BD01E6E07695679557954795EA95D1F7A9
:104D700041704983AC01BD01F5E076956795579583
:104D80004795FA95D1F741704A8387FF07C042E003
:104D9000BE016F5F7F4F85E50E94A0068091FF03F3
:104DA00087FF10C08091F5039091F6032091F703DF
:104DB00029839A838B8343E0BE016F5F7F4F86E533
:104DC0000E94A0064090FF035090000460900104F0
:104DD00070900204D301C20145E0B695A79597955E
:104DE00087954A95D1F7282F21704091F50350916E
:104DF000F6036091F7037091F80388EE93E00E9448
:104E0000BC046B017C01C701AA27BB278AA39BA313
:104E1000ACA3BDA38D2C9E2CAF2CBB2447FE0AC097
:104E200089838A82CB8243E0BE016F5F7F4F87E533
:104E30000E94A00699245601BB244AA15BA1417798
:104E400055272091F0038EE890E0203210F48EE890
:104E500091E0009102011091030108231923042B12
:104E6000152B2C3109F400611127C8010E94D70BC2
:104E7000782E48E0B40186EA91E00E94CB0F48E02A
:104E8000B5018AEA91E00E94CB0F48E0B80181ECBD
:104E900091E00E94CB0F672D70E048E083EB91E03A
:104EA0000E94CB0F40E070E060E081E00E94A0062D
:104EB0000E94060BB701A60188EE93E00E944D0CFC
:104EC0008091FF0390910004A0910104B09102042D
:104ED00026E0B695A795979587952A95D1F7E1E0B5
:104EE0008E27682F617080E20E9498068091FF03F0
:104EF00090910004A0910104B091020435E0B695B0
:104F0000A795979587953A95D1F7F1E08F27682F68
:104F1000617084E00E9498061C9B16CF68EC70E0DC
:104F200080E090E00E942902F7CF8091DA01909111
:104F3000D2012091D3013091D4014091D501498310
:104F40003A832B839C839091D6012091D701309195
:104F5000D8014091D9014D833E832F83988789875B
:104F600049E0BE016F5F7F4F85E057CD8BEA0E941D
:104F70008E0C45CD40E070E060E083EA0C94AB1FFE
:104F8000EAE3F6E01382128288EE93E0A0E0B0E05C
:104F900084839583A683B7838AE791E09183808396
:104FA00085EC90E09587848784EC90E097878687EE
:104FB00080EC90E0918B808B81EC90E0938B828BE6
:104FC00082EC90E0958B848B86EC90E0978B868BBF
:104FD000118E128E138E148E0895FC010590002000
:104FE000E9F7809590958E0F9F1F0895FB01DC01D6
:104FF0004150504030F08D910590801919F40020F7
:10500000B9F7881B990B0895F999FECF92BD81BD20
:10501000F89A992780B50895262FF999FECF1FBADF
:1050200092BD81BD20BD0FB6F894FA9AF99A0FBED1
:10503000019608950E942528A59F900DB49F900D7C
:10504000A49F800D911D11240895A29FB001B39FCC
:10505000C001A39F700D811D1124911DB29F700D81
:10506000811D1124911D0895AA1BBB1B51E107C08E
:10507000AA1FBB1FA617B70710F0A61BB70B881FE8
:10508000991F5A95A9F780959095BC01CD01089577
:10509000A1E21A2EAA1BBB1BFD010DC0AA1FBB1F3C
:1050A000EE1FFF1FA217B307E407F50720F0A21BAE
:1050B000B30BE40BF50B661F771F881F991F1A941B
:1050C00069F760957095809590959B01AC01BD0145
:1050D000CF010895052E97FB1EF400940E948128AD
:1050E00057FD07D00E94482807FC03D04EF40C94CB
:1050F000812850954095309521953F4F4F4F5F4FF8
:10510000089590958095709561957F4F8F4F9F4F33
:105110000895EE0FFF1F0590F491E02D0994DF93A1
:10512000CF931F930F939A9DF02D219FF00D8B9D90
:10513000F00D8A9DE02DF10D039FF00D029FE00D13
:10514000F11D4E9DE00DF11D5E9DF00D4F9DF00D8A
:105150007F936F93BF92AF925F934F93D5010E945D
:1051600025288B01AC01D7010E942528EB01E80F0F
:10517000F91FD6010E94DE282F913F91D6010E948F
:105180002528C60FD71FE81FF91FAF91BF910E94B6
:10519000DE282F913F910E942528C60FD71FE81FB8
:1051A000F91FD6010E942528E60FF71F9801BE01BE
:1051B000CF010F911F91CF91DF9108950E94252873
:1051C000460F571FC81FD91F08F431960895E89459
:1051D000DF93CF93FC01DB010E9425287F936F931F
:1051E000E9019A01AC01BF93AF933F932F93DF0185
:1051F0000E94252826F46C1B7D0B820B930B9E01CD
:10520000EB01FC010E94DE28AF91BF912F913F91ED
:105210000E94DE28BE01CF01F9012F913F91CF916D
:10522000DF910895689401C0E8948F929F92CF9384
:10523000DF930E942029DF91CF919F908F90089556
:1052400088249924F401E401B0E49F93AA279A15D5
:105250008B049C04ED05FE05CF05D007A10798F44B
:10526000AD2FDC2FCF2FFE2FE92D982C892E982FD4
:10527000872F762F652F542F432F322F2227B85098
:1052800031F7BF9127C01B2EBF91BB27220F331FC1
:10529000441F551F661F771F881F991F881C991C64
:1052A000EE1FFF1FCC1FDD1FAA1FBB1F8A149B040C
:1052B000EC05FD05CE05DF05A007B10748F08A180B
:1052C0009B08EC09FD09CE09DF09A00BB10B216099
:1052D0001A94E1F62EF49401AF01BE01CD01000C49
:1052E000089597FD1094002E083098F00850232F51
:1052F000342F452F562F672F782F892F912DF4CFDC
:105300001594979587957795679557954795379510
:1053100027950A95AAF71124002D08952A0D3B1D03
:105320004C1D5D1D6E1D7F1D801F911F08950F93E5
:105330001F93CF93DF938230910510F482E090E0C9
:10534000E091D906F091DA0630E020E0B0E0A0E08C
:10535000309799F42115310509F44AC0281B390BFF
:1053600024303105D8F58A819B816115710589F159
:10537000FB0193838283FE0111C040815181028130
:10538000138148175907E0F04817590799F4109707
:1053900061F012960C93129713961C933296CF01DC
:1053A000DF91CF911F910F9108950093D90610932B
:1053B000DA06F4CF2115310551F04217530738F0C2
:1053C000A901DB019A01BD01DF01F801C1CFEF01A5
:1053D000F9CF9093DA068093D906CDCFFE01E20F84
:1053E000F31F819391932250310939832883D7CFBA
:1053F0002091D7063091D806232B41F42091090142
:1054000030910A013093D8062093D70620910701E6
:10541000309108012115310541F42DB73EB7409177
:105420000B0150910C01241B350BE091D706F09134
:10543000D806E217F307A0F42E1B3F0B28173907F5
:1054400078F0AC014E5F5F4F2417350748F04E0FE0
:105450005F1F5093D8064093D706819391939FCFB7
:10546000F0E0E0E09CCFCF93DF930097E9F0FC0100
:10547000329713821282A091D906B091DA06ED011B
:1054800030E020E01097A1F420813181820F931F3A
:105490002091D7063091D8062817390709F061C046
:1054A000F093D806E093D706DF91CF910895EA01F3
:1054B000CE17DF07E8F54A815B819E014115510552
:1054C000B1F7E901FB83EA8349915991C40FD51FD4
:1054D000EC17FD0761F4808191810296840F951F7E
:1054E000E90199838883828193819B838A83F0E099
:1054F000E0E012968D919C9113970097B9F52D914C
:105500003C911197CD010296820F931F2091D706EF
:105510003091D8062817390739F6309751F510928F
:10552000DA061092D906B093D806A093D706BCCF5E
:10553000D383C28340815181840F951FC817D90737
:1055400061F44E5F5F4F88819981480F591F5183E5
:1055500040838A819B81938382832115310509F0E1
:10556000B0CFF093DA06E093D9069ECFFD01DC01BF
:10557000C0CF13821282D7CFFB01DC0102C00190A1
:105580000D9241505040D8F70895DC0101C06D9351
:1055900041505040E0F70895FB01DC018D910190EE
:1055A00080190110D9F3990B0895FB01DC010190DA
:0C55B0000D920020E1F70895F894FFCF61
:1055BC0001FFFF00FFFF010000DB068000555500D6
:1055CC0000AAAA2A00005555550000805555000028
:1055DC00AAAA2A000055555500002055550000AACE
:1055EC00AA2A00005555550000A055550000AAAA3E
:1055FC002A000055555500008055550000AAAA2ACE
:10560C00000055555500001055550000AAAA2A0057
:10561C00005555550000F055550000AAAA2A000067
:10562C00555555000090000000004A036702940293
:10563C0097031203A30204037C44380056455230EE
:10564C003600332E302E3062343A756E6F3332386A
:10565C007062000D0A004D5342004C5342004354FB
:10566C00524C004354524C2072656D6170706564ED
:0A567C0000544F5020616464720076
:00000001FF
