:100000000C9411020C9439020C9439020C943902AC
:100010000C9439020C9439020C9439020C94390274
:100020000C9439020C9439020C9452260C94CF266D
:100030000C9439020C9439020C9439020C94390254
:100040000C9439020C9439020C9439020C94390244
:100050000C9439020C9439020C9439020C94082641
:100060000C9439020C9439020C9439020C94390224
:100070000C9439020C9439020C9439020C94390214
:100080000C9439020C9439020C9439020C94390204
:100090000C9439020C9439020C9439020C943902F4
:1000A0000C9439020C9439020C9439027061676522
:1000B0002D73697A6500726561642D7374726F6265
:1000C000652D757300726561642D736574746C6958
:1000D0006E672D64656C617900616C676F7269741D
:1000E000686D007670705F6D760070756C73652D4D
:1000F00064656C61790070696E2D636F756E740054
:10010000636869702D696400666C6167730061647F
:100110006472657373006D656D6F72792D73697AA2
:100120006500AA55AA55666C616773006D656D6FB1
:1001300072792D73697A6500616464726573730006
:10014000636869702D69640070696E2D636F756EE8
:10015000740070756C73652D64656C6179007670E0
:10016000705F6D7600616C676F726974686D0072A4
:100170006561642D736574746C696E672D64656C5C
:10018000617900726561642D7374726F62652D759B
:100190007300706167652D73697A6500444F4E4541
:1001A0000000070E091C1B1215383F363124232A84
:1001B0002D70777E796C6B6265484F464154535A77
:1001C0005DE0E7EEE9FCFBF2F5D8DFD6D1C4C3CAA7
:1001D000CD90979E998C8B8285A8AFA6A1B4B3BA17
:1001E000BDC7C0C9CEDBDCD5D2FFF8F1F6E3E4ED44
:1001F000EAB7B0B9BEABACA5A28F88818693949DB7
:100200009A2720292E3B3C35321F18111603040D66
:100210000A5750595E4B4C45426F68616673747D56
:100220007A898E878095929B9CB1B6BFB8ADAAA300
:10023000A4F9FEF7F0E5E2EBECC1C6CFC8DDDAD3F6
:10024000D4696E676075727B7C51565F584D4A4326
:1002500044191E171005020B0C21262F283D3A3396
:10026000344E49404752555C5B7671787F6A6D64C5
:10027000633E39303722252C2B0601080F1A1D1436
:1002800013AEA9A0A7B2B5BCBB9691989F8A8D84E6
:1002900083DED9D0D7C2C5CCCBE6E1E8EFFAFDF4D6
:1002A000F3F82401000000000019000100F8240107
:1002B000000000000019000100F824010050C300F4
:1002C00000FF00000107080B080B000202020000FB
:1002D00009040000010202000005240010010524A9
:1002E000010101042402060524060001070581031B
:1002F00010004009040100020A0000000705020284
:1003000040000007058302400000040309041201B5
:100310000002EF0201404123368000010102030187
:1003200041726475696E6F204C4C43004172647574
:10033000696E6F204C656F6E6172646F007232007F
:100340007231007265760072772D70696E0076707A
:10035000702D70696E007374617469632D686967CC
:100360006800627573006275732D636F6E666967EE
:10037000001601AE250E0181250801DB250001567E
:1003800025F6002C25EA00FF24E300D424D900A799
:1003900024C5007024B6003924AC000E24737461A7
:1003A000746500636D64004F4B3A2046573A200055
:1003B000070605040100080A0B0C0D09737461742B
:1003C0006500636D640000000000250028002B001C
:1003D0002E00310000000000240027002A002D001C
:1003E00030000404040404030405020202020403AE
:1003F00002020202060606060606040402020204BF
:100400000404080201104080401020408040800811
:100410000204018040201002011080102040402082
:10042000783311241FBECFEFDAE0DEBFCDBF28E066
:10043000ACEFB1E001C01D92A03EB207E1F711E0C0
:10044000A0E0B1E0EEE0FDE602C005900D92AC3F09
:10045000B107D9F712E0C1E1D2E004C02197FE0153
:100460000E943934C031D107C9F70E9401290C9488
:1004700085360C94000083E08093E9008091F200BF
:10048000882319F08AE38093E8000895CF93DF93DF
:1004900090E0FC01EF5FFB4F24918E519C4FFC01DB
:1004A00084918823C1F090E0880F991FFC01EC52E1
:1004B000FC4FC591D491FC01EA53FC4FA591B49136
:1004C0009FB7F8948881E22FE0958E2388838C91E2
:1004D000E823EC939FBFDF91CF910895FC018091B9
:1004E000DB08882311F13FB7F89482E08093E9009C
:1004F0002091F200822F90E01816190614F481E082
:1005000090E0882339F0289844E64093DA08409137
:10051000F1004083222339F02091F200211103C021
:100520002BE62093E8003FBF08958FEF9FEF0895DB
:100530002FB7F89483E08093E9009091E800892F29
:10054000807295FF04C09091F20080E4891B2FBF58
:1005500008958091770281110DC082E0809373022B
:1005600084E080937402109276021092750281E00A
:100570008093770283E792E008958251E82FF0E0BC
:10058000E055FC4FE49190917B008E2F880F880FEF
:1005900080729F7D892B80937B008091110120E4E4
:1005A000829FC0011124E770E82BE0937C008091CA
:1005B0007A00806480937A0080917A0086FDFCCF77
:1005C000809178009091790008958230910538F0FB
:1005D000880F991F880F991F05970197F1F70895C4
:1005E0003FB7F89480916F0290917002A0917102D0
:1005F000B091720226B5A89B05C02F3F19F0019655
:10060000A11DB11D3FBFBA2FA92F982F8827BC016C
:10061000CD01620F711D811D911D42E0660F771F94
:10062000881F991F4A95D1F708958F929F92AF9294
:10063000BF92CF92DF92EF92FF926B017C010E94FA
:10064000F0024B015C01C114D104E104F104B9F0E2
:100650000E94F002681979098A099B09683E734073
:100660008105910580F321E0C21AD108E108F10863
:1006700088EE880E83E0981EA11CB11CE4CFFF9089
:10068000EF90DF90CF90BF90AF909F908F900895A4
:100690002FB7F89460916B0270916C0280916D029B
:1006A00090916E022FBF08950C943B02409101027D
:1006B000509102022091FF0130910002421753072E
:1006C000B4F49091E8009570E1F39091E80092FD08
:1006D00019C08093F100809101029091020201966D
:1006E0008F739927892B19F48EEF8093E8008091FE
:1006F00001029091020201969093020280930102FE
:1007000081E0089580E00895EF92FF920F931F9388
:10071000CF93DF93F82E192FE62E042F81E0860F5A
:10072000880F0E94560383E00E945603CF2DD12FDD
:10073000EC0EFD2EF11CCE15DF05B9F007FF13C03E
:10074000FE0184910E945603182F80E00E945603F8
:10075000812321968111EFCFDF91CF911F910F91CE
:10076000FF90EF9008958881EDCF81E0F5CFDF9283
:10077000EF92FF920F931F93CF93DF93D82E8A01AE
:10078000EB017B01E40EF51ECE15DF0559F0D7FE17
:1007900012C0FE0184910E94560321968111F4CF6C
:1007A0000FEF1FEFC801DF91CF911F910F91FF90C5
:1007B000EF90DF9008958881EECF0F931F93CF9332
:1007C000DF931F92CDB7DEB782E0898342E450E029
:1007D00068EC72E080E80E94B7030E94A902DC0185
:1007E00012960D911C910115110589F0D801ED911A
:1007F000FC910280F381E02DBE016F5F7F4FC80145
:10080000099597FD04C0F80100851185ECCF898119
:100810000F90DF91CF911F910F910895615030F0AB
:100820002091F100FC0120830196F8CF289884E6FE
:100830008093DA0808958F929F92AF92BF92CF92E1
:10084000DF92EF92FF920F931F93CF93DF936C0190
:100850007B018A0180910F01882309F45CC080919B
:10086000DB08882309F457C08091050280FF05C08A
:100870008091E00082608093E000E801B12C8AEF73
:10088000A82E93E0892E2AE3922E209711F4BB2004
:10089000D9F10E94980281110AC0AA94AA20D9F124
:1008A00061E070E080E090E00E941503EECF8C17CD
:1008B0001D0611F00CF08C2F9FB7F8948092E90080
:1008C0002091E80025FD02C09FBFDFCF282F30E038
:1008D000C21BD30BF701815020F041914093F100EE
:1008E000FACFE20EF31EBB2021F09092E800B12C6B
:1008F000EBCF8091E80085FDE7CF9092E800BB2424
:10090000B394209709F3F3CF5D9884E680930402B3
:10091000101611063CF081E090E0F601938382838B
:1009200010E000E0C801DF91CF911F910F91FF907F
:10093000EF90DF90CF90BF90AF909F908F900895F1
:10094000CF93DF931F92CDB7DEB76983DC01ED91C2
:10095000FC910280F381E02D41E050E0BE016F5F29
:100960007F4F09950F90DF91CF9108950E949802D3
:1009700090E00895CF93DF931F92CDB7DEB7FC01CF
:100980008485958597FD08C02FEF3FEF3587248735
:100990000F90DF91CF910895CE0101960E946E02D3
:1009A000019719F4898190E0F3CF8FEF9FEFF0CF9B
:1009B0000F931F93CF93DF931F92CDB7DEB78C01B8
:1009C000FC018485958597FF0BC0CE0101960E949E
:1009D0006E02019771F4898190E0F8019587848710
:1009E000F801848595850F90DF91CF911F910F912C
:1009F00008958FEF9FEFF1CFFC018485958597FDDA
:100A00000BC09FB7F89482E08093E9008091F200D8
:100A10009FBF90E0019608959FB7F89482E080937D
:100A2000E9008091F2009FBF90E008958F929F921D
:100A3000AF92BF92CF92DF92EF92FF920F931F93EC
:100A4000CF93DF93EC018C010A5D1F4F812C912C19
:100A500054016C018AEDC81A8BEFD80A7E01AFEA07
:100A6000EA1AABEFFA0AF60180819181A281B38183
:100A700088169906AA06BB06B0F4D8012D918D01FF
:100A80004C855D856E857F85480D591D6A1D7B1DD2
:100A9000D701ED91FC91CE010995BFEF8B1A9B0A0E
:100AA000AB0ABB0AE0CFDF91CF911F910F91FF906E
:100AB000EF90DF90CF90BF90AF909F908F90089570
:100AC0008F929F92AF92BF92CF92DF92EF92FF925E
:100AD0000F931F93CF93DF93EC0188859985AA85A7
:100AE000BB854C855D856E857F85841B950BA60B2C
:100AF000B70B813024E09207A105B10520F080E01A
:100B000094E0A0E0B0E08C017E0186E2E80EF11CEA
:100B1000812C912C54016E01ADEACA1AABEFDA0AAE
:100B200080169106B4F44C855D856E857F85480DF1
:100B3000591D6A1D7B1DD601ED91FC91CE010995D1
:100B4000F70181937F01FFEF8F1A9F0AAF0ABF0A57
:100B5000E7CFCA5DDB4F012E000C220B330B08835D
:100B600019832A833B83DF91CF911F910F91FF90CF
:100B7000EF90DF90CF90BF90AF909F908F900895AF
:100B8000CF93DF93EB01611520E472078105910596
:100B900058F028EE33E040E050E00E94F833EB01DB
:100BA000CA01B9010E941503209729F0CE01DF91F7
:100BB000CF910C94E502DF91CF91089580910001CF
:100BC000909101016823792381E0672B09F480E08B
:100BD0000895CF93DF93EC01FC01EF5AFB4F019096
:100BE000F081E02D2FEF40E050E0BA010995FE01C1
:100BF000E95AFB4F0190F081E02D40E068E870E099
:100C0000CE01DF91CF910994FC012781203241F47C
:100C1000EC5BFB4F81E09081953151F080E008C0A2
:100C20002C3139F4EC5BFB4F81E090819F30B1F7C0
:100C30000895283199F7EC5BFB4F81E090819B3060
:100C400069F7F6CFFF920F931F93CF93DF938C0139
:100C5000EB01F42E62FF07C0C8010E94040688233E
:100C600011F0CB7FC860E091FD01F091FE014F2DA6
:100C7000BE01C801DF91CF911F910F91FF900994A0
:100C80002F923F924F925F926F927F928F929F929C
:100C9000AF92BF92CF92DF92EF92FF921F93CF93CA
:100CA000DF93CDB7DEB7A7970FB6F894DEBF0FBEC0
:100CB000CDBFFC01E65DFB4F3FE1DE0111960190E7
:100CC0000D923A95E1F7FC01ED5BFB4F30813196D7
:100CD00010813196408051806280738048A259A271
:100CE0006AA27BA23797C080D180E280F380C422C1
:100CF000D522E622F722E981EF3F09F43FC0FC014B
:100D0000EE5BFB4FE0812E2E312CE1E0F0E0EC0FAA
:100D1000FD1FE20DF31DA4E12A1631047CF5A1911B
:100D2000AF3F61F1812C912C5401839404C0880C55
:100D3000991CAA1CBB1CAA95D2F72A013B01022CC4
:100D400004C076946794579447940A94D2F74CA2BF
:100D50005DA26EA27FA240FC0CC080949094A094EF
:100D6000B094C820D920EA20FB20AFEF2A1A3A0A13
:100D7000D2CFC828D928EA28FB28F7CF3F3F79F0FF
:100D8000422F50E070E060E004C0440F551F661F22
:100D9000771F3A95D2F7C42AD52AE62AF72A1F3FA9
:100DA00099F00E94040681110FC081E090E0A0E05C
:100DB000B0E004C0880F991FAA1FBB1F1A95D2F775
:100DC000C82AD92AEA2AFB2A68A179A18AA19BA16B
:100DD0006C297D298E299F29A7960FB6F894DEBF2E
:100DE0000FBECDBFDF91CF911F91FF90EF90DF90AD
:100DF000CF90BF90AF909F908F907F906F905F90BB
:100E00004F903F902F9008950F931F93E5ECF2E0E1
:100E1000E4910E2F10E030E020E0601771078207A8
:100E2000930729F1E6ECF2E0E4910E2F10E030E0B8
:100E300020E06017710782079307E1F0E7ECF2E02A
:100E4000E4910E2F10E030E020E060177107820778
:100E5000930799F422E030E04CE0429FC001439FA9
:100E6000900D11248F559D4F1F910F91089530E0E3
:100E700020E0F2CF21E030E0EFCF90E080E0F4CF4F
:100E8000FC0163817481858196810E94040700972B
:100E900041F00B96FC018491813019F480E890E0D8
:100EA000089580E891E00895EF92FF920F931F93C9
:100EB000E22F2223C1F0A82FB0E09A01AB010E94DB
:100EC000BA339B01AC01AE2FB0E00E94BA33E616F4
:100ED000F7060807190710F4C801B7011F910F9111
:100EE000FF90EF90089560E070E0CB01F7CFCF92D4
:100EF000DF92EF92FF920F931F93CF93DF938C01BA
:100F00006AE070E080E090E00E94150378018DEACD
:100F1000E81A8BEFF80AD701ED91FC9145E555E50C
:100F200060E070E0C8010995C82FD0E283E2C82EC6
:100F3000D12CC6010197F1F7D701ED91FC9145E560
:100F400055E560E070E0C8010995C827C6FF03C0F9
:100F5000D150C82F71F7DF91CF911F910F91FF9062
:100F6000EF90DF90CF900895CF93DF93EC0120E0D6
:100F700030E0A901E99180ED8E0F8A3028F0CA0196
:100F8000B901DF91CF910895AAE0B0E00E94BA3391
:100F90002E2FEE0F330B20533109032E000C440B80
:100FA000550B260F371F481F591FE4CF0E944803D7
:100FB00068517C4F8F4F9F4F60936602709367021A
:100FC000809368029093690208956F927F928F9246
:100FD0009F92AF92BF92CF92DF92EF92FF920F93C8
:100FE0001F93CF93DF93009709F4A0C07B01FC010E
:100FF000CB010995F7018281813008F49AC08330D2
:1010000008F46BC0833009F094C0EA5DFB4FA08008
:10101000B180E701A6964E01DE01612CCD018C1B4B
:101020009D0B8A159B0540F4ED916E26E62DF0E0B0
:10103000EF55FE4F6490F2CFD12CC12C712C10E0F3
:1010400000E0CA14DB0450F5F40181914F0161E026
:10105000670DFFEFCF1ADF0A811113C087E092E01E
:101060000E94A004772049F0472D50E0BE01600F98
:10107000711F87E092E00E941B04860160E0762EDB
:10108000E0CF6E3FE1F76FEF87E092E00E94A004AF
:10109000BE01600F711F4EEF50E0EBCF611033C007
:1010A00061E0670D87E092E00E94A004772049F09C
:1010B000472D50E0BE01600F711F87E092E00E9453
:1010C0001B0461E087E092E00E94A00460E087E0FA
:1010D00092E00E94A0040E943B020E94D60781E099
:1010E000F701828390E080E0DF91CF911F910F9113
:1010F000FF90EF90DF90CF90BF90AF909F908F9038
:101100007F906F90089562E0670D87E092E00E9403
:10111000A004772049F0472D50E0BE01600F711FF9
:1011200087E092E00E941B04662DCCCF81E090E026
:10113000DBCF8FEF9FEFD8CFDF92EF92FF920F932D
:101140001F93CF93DF93C82FD62ED72F142FE2E211
:10115000F1E0649187E092E00E94A004E3E2F1E014
:10116000649187E092E00E94A004E4E2F1E06491DF
:1011700087E092E00E94A004E5E2F1E0649187E05C
:1011800092E00E94A004E12EF12CC7010296692F83
:1011900087E092E00E94A00462E0610F87E092E0A5
:1011A0000E94A0046C2F87E092E00E94A004EC2F24
:1011B000F0E0EF55FE4FC4910D2D1D2FE00EF11EF6
:1011C0000E151F0579F0F801D1918F016D2F87E081
:1011D00092E00E94A004EC2FED27F0E0EF55FE4FC7
:1011E000C491EECF6C2F87E092E00E94A0046AE0E9
:1011F00087E092E00E94A004DF91CF911F910F91B0
:10120000FF90EF90DF900C943B024F925F926F92B1
:101210007F92AF92BF92CF92DF92EF92FF920F93A5
:101220001F93CF93DF9300D000D01F92CDB7DEB7CE
:101230008C017C0186E2E80EF11C412C512C32011C
:101240006801AAEDCA1AABEFDA0A5801BDEAAB1A77
:10125000BBEFBB0AF60180819181A281B381481660
:1012600059066A067B0670F5D8011C964D915D9172
:101270006D917C911F97440D551D661D771DD501FD
:10128000ED91FC91C8010995F70191917F018917B2
:1012900069F1D8011C964D915D916D917C911F97DC
:1012A000440E551E661E771E99838A836B825C826C
:1012B0004D8245E0BE016F5F7F4F8FEA0E949C0820
:1012C000F80112820F900F900F900F900F90DF9106
:1012D000CF911F910F91FF90EF90DF90CF90BF9033
:1012E000AF907F906F905F904F900895FFEF4F1AEF
:1012F0005F0A6F0A7F0AAECFAF92BF92CF92DF92A2
:10130000EF92FF920F931F93CF93DF9300D000D003
:10131000CDB7DEB78C016C018FEAC81A8BEFD80A03
:10132000D601ED91FC9120E940E050E0BA01C801FE
:1013300009955801BDEAAB1ABBEFBB0AD501ED9187
:10134000FC9140E050E0BA01C8010995E82EF12C6B
:10135000FE2CEE24D501ED91FC9141E050E060E0DF
:1013600070E0C8010995E82AD601ED91FC912FEFB4
:1013700040E050E0BA01C8010995F80182A193A1AB
:101380008E159F0591F0F982EA829B838C83868D6E
:1013900044E0BE016F5F7F4F80FF16C083E80E946C
:1013A0009C0882E0D80112968C930F900F900F90BA
:1013B0000F90DF91CF911F910F91FF90EF90DF90F1
:1013C000CF90BF90AF90089589EB0E949C08F801E0
:1013D0001282EBCFCF92DF92EF92FF920F931F9387
:1013E000CF93DF93EC018B010E9448036B017C01DA
:1013F000C00ED11EE11CF11C8E010D5A1B4F0E9424
:1014000048036C157D058E059F0580F5D801ED918B
:10141000FC9140E050E0BA01CE01099587FFEFCF83
:1014200084FF1DC040E070E060E084EB0E949C08F7
:101430001A82FE01EF5AFB4F0190F081E02D2FEF51
:1014400040E050E0BA01CE01099580E0DF91CF91F4
:101450001F910F91FF90EF90DF90CF90089583FF41
:101460000AC040E070E060E085EBE0CF40E070E073
:1014700060E086EBDBCF81E0E9CF3F924F925F9255
:101480006F927F928F929F92AF92BF92CF92DF9294
:10149000EF92FF920F931F93CF93DF93EC018C0198
:1014A0000A5D1F4FC12CD12C76014C018AED881AA0
:1014B0008BEF980A5E01AFEAAA1AABEFBA0AF40101
:1014C00080819181A281B381C816D906EA06FB0604
:1014D00040F54C845D846E847F844C0C5D1C6E1CD6
:1014E0007F1CD8013D908D01D501ED91FC9120E448
:1014F000B301A201CE010995D501ED91FC91232DF7
:10150000B301A201CE01099566E970E0CE010E9407
:10151000EA09882331F0BFEFCB1ADB0AEB0AFB0A9A
:10152000CECFDF91CF911F910F91FF90EF90DF9081
:10153000CF90BF90AF909F908F907F906F905F9073
:101540004F903F9008950F931F93CF93DF93EC013B
:10155000FC01E95AFB4F0190F081E02D41E068E881
:1015600070E0099564EF71E080E090E00E9415035F
:101570008E010F5A1B4FD801ED91FC9120E240E003
:1015800050E0BA01CE010995D801ED91FC9120ED12
:1015900040E050E0BA01CE01099568E97AE3CE0156
:1015A000DF91CF911F910F910C94EA099F92AF9216
:1015B000BF92CF92DF92EF92FF920F931F93CF9340
:1015C000DF9300D000D0CDB7DEB78C01962E6C0132
:1015D00089EAC81A8BEFD80AD601ED91FC9141E057
:1015E00060E870E0C801099562E370E080E090E097
:1015F0000E941503D601ED91FC9141E062E070E09C
:10160000C801099564E670E080E090E00E9415034F
:101610005801BDEAAB1ABBEFBB0AD501ED91FC91B5
:1016200040E050E0BA01C8010995E82EF12CFE2CEB
:10163000EE24D501ED91FC9141E050E060E070E0D6
:10164000C8010995E82AD601ED91FC9140E066E8D1
:1016500071E0C8010995F80182A193A18E159F053B
:1016600089F0F982EA829B838C83F2E044E0BE0138
:101670006F5F7F4F9F1216C083E80E949C08D801BD
:1016800012969C920F900F900F900F90DF91CF9138
:101690001F910F91FF90EF90DF90CF90BF90AF9090
:1016A0009F90089589EB0E949C08F8011282EACF6E
:1016B00060E00C94D60ABF92CF92DF92EF92FF9235
:1016C0000F931F93CF93DF9300D000D0CDB7DEB739
:1016D0007C01D42EC52EB62E122FFC01E95AFB4FE9
:1016E0000190F081E02D40E066E871E00995B98253
:1016F000CA82DB821C8344E0BE016F5F7F4F802F74
:101700000E949C08F70112820F900F900F900F908B
:10171000DF91CF911F910F91FF90EF90DF90CF90CD
:10172000BF900895CF93DF93EC018E8D87FF06C0A5
:1017300040E070E060E081E40E949C089981892F7C
:101740008F738F5F907C892B898340E070E060E02D
:1017500080E2DF91CF910C949C080F931F93CF935D
:10176000DF93CDB7DEB728970FB6F894DEBF0FBE74
:10177000CDBF8C01FC01E35BFB4FBC0180819181FB
:101780000E94E507F8012081243009F044C0019649
:10179000F1F4F801EA5DFB4F80819181A281B38170
:1017A0000497A105B10539F4B8016A5D7F4F44E0A3
:1017B00080EB0E949C0880E028960FB6F894DEBF6C
:1017C0000FBECDBFDF91CF911F910F910895F8010A
:1017D000818186FF17C0448555856685778580851C
:1017E00091852285338579836A835B834C833D832E
:1017F0002E839F83888748E0BE016F5F7F4F80EE16
:101800000E949C08F801818186FD03C0C8010E94E6
:10181000920B81E0D1CF0196A9F7CDCFCF93DF9383
:1018200000D000D0CDB7DEB779836A835B834C8369
:1018300044E0BE016F5F7F4F0E949C080F900F90A5
:101840000F900F90DF91CF9108952F923F924F927A
:101850005F926F927F928F929F92AF92BF92CF9240
:10186000DF92EF92FF920F931F93CF93DF93CDB749
:10187000DEB76E970FB6F894DEBF0FBECDBF1C016A
:10188000DC0194968D919C919C0121503109211588
:10189000B2E03B0790F428233923232B09F0EBC057
:1018A000B0E0A0E09C01AD0121503109410951098E
:1018B0002B873C874D875E8708C08FE390E0A0E0D0
:1018C000B0E08B879C87AD87BE870E94F002698B52
:1018D0007A8B8B8B9C8BA1014A5D5F4F5A8F498F0E
:1018E000412C512C32011F82188619861A86C12C70
:1018F000D12C7601C1018A5D9B4F9C8F8B8FD101CA
:10190000AF5ABB4FBE8FAD8FF101ED5AFB4FF88B35
:10191000EF87EB8DFC8D80819181A281B381481688
:1019200059066A067B0608F086C0D1011C968D9088
:101930009D90AD90BC901F97840C951CA61CB71C65
:10194000E98DFA8D2191FA8FE98F2E83AD8DBE8DB1
:10195000ED91FC91B501A401C10109950E94F0022D
:101960006D8B7E8B8F8B988FDC01CB0129893A8917
:101970004B895C89821B930BA40BB50B2F81388597
:1019800049855A85281739074A075B0720F48F8352
:101990009887A987BA87D501C4010196A11DB11DF9
:1019A0002B853C854D855E8582239323A423B52317
:1019B000892B8A2B8B2B79F0EB8DFC8D808191818B
:1019C000A281B3810197A109B10984159505A605E6
:1019D000B70509F08AC000ED17E083E290E00197B7
:1019E000F1F7AF85B889ED91FC91B501A401C10172
:1019F00009959E81982797FD0CC0AF85B889ED9118
:101A0000FC91B501A401C10109959E81982797FF1A
:101A10003CC00150110909F7A9829A828B82BE81CC
:101A2000BC838D8345E0BE016F5F7F4F82EB0E94D8
:101A30009C08F10112824F81588569857A8582E67A
:101A40000E940E0C6E960FB6F894DEBF0FBECDBF8F
:101A5000DF91CF911F910F91FF90EF90DF90CF908A
:101A6000BF90AF909F908F907F906F905F904F90BE
:101A70003F902F9008952FE330E040E050E018CFE2
:101A8000FFEFCF1ADF0AEF0AFF0A4C145D046E0461
:101A90007F0420F1F101EC0DFD1D16A1D1011C9672
:101AA0008D909D90AD90BC901F978C0C9D1CAE1C92
:101AB000BF1CAF85B889ED91FC91B501A401C101AE
:101AC00009951817E9F219838A83AB829C828D826B
:101AD00045E0BE016F5F7F4F8FEAA9CF73016201BE
:101AE0002FEFC21AD20AE20AF20A3FEF431A530A50
:101AF000630A730A8D899E89AF89B88D898B9A8B09
:101B0000AB8BBC8B06CFCF93DF9300D0CDB7DEB7C6
:101B100079836A8342E0BE016F5F7F4F0E949C0819
:101B20000F900F90DF91CF910895CF93DF931F9285
:101B3000CDB7DEB7698341E0BE016F5F7F4F0E9482
:101B40009C080F90DF91CF91089587E092E00C946C
:101B5000BA0487E092E00C94FC04CF92DF92EF92FB
:101B6000FF92CF93C82F0E94A90D18161906E4F012
:101B7000CC23A1F00E9448036B017C010E94A90DB7
:101B8000181619068CF00E9448036C197D098E09FD
:101B90009F09683E73408105910580F3CF91FF90C6
:101BA000EF90DF90CF9008950E94A50D97FDF6CF9E
:101BB0008111D9CFF3CF4F925F926F927F929F9214
:101BC000AF92BF92CF92DF92EF92FF920F931F934B
:101BD000CF93DF937C016B0100E0B12CA12C912C01
:101BE00010E0D0E0C0E00E94A90D18161906CCF054
:101BF0000E9448032B013C010E94A90D18161906EA
:101C000084F00E9448036419750986099709683EA3
:101C100073408105910580F380E00E94AD0D8FEF48
:101C200019C00E94A50D97FF02C081E0F6CF282FB2
:101C3000811105C0112309F44FC08DEF0BC0112392
:101C400079F1BB20E9F0CC15DD05A8F081E00E9418
:101C5000AD0D8EEF9FEFDF91CF911F910F91FF9010
:101C6000EF90DF90CF90BF90AF909F907F906F905C
:101C70005F904F900895F701EC0FFD1F00832196B0
:101C80008FEF810FBB24B394811107C0B92C911041
:101C900004C0BB24B394AA24A394022F182FA3CF6B
:101CA000AA20B1F0BB20B1F0CC15DD0578F6F70124
:101CB000EC0FFD1F00832196992493942F3F09F088
:101CC000912C8150AA24A3948111A12C212FE5CF1E
:101CD000102FF2CFBA2CF0CFBB2009F4A0CFD70140
:101CE000C7018C0F9D1FA817B90741F0ED911E2762
:101CF000E12FF0E0EF55FE4F1491F5CFCE01011723
:101D000009F4A9CF8CEFA6CF8EE580937C0062E02A
:101D100070E080E090E00E94150380917A0080647A
:101D200080937A0080917A0086FDFCCF2091780024
:101D30006091790070E0762F6627072E000C880BE3
:101D4000990B622B08952F923F924F925F926F9260
:101D50007F928F929F92AF92BF92CF92DF92EF923B
:101D6000FF920F931F93CF93DF93CDB7DEB72F97DB
:101D70000FB6F894DEBF0FBECDBFA0905D02B0904D
:101D80005E02C0905F02D0906002A986BA86CB86C0
:101D9000DC86C0906102D0906202E0906302F09015
:101DA0006402C982DA82EB82FC8281E080931101B5
:101DB00084E10E94BD029E878D870E94840E61157A
:101DC00071058105910509F494C0CD28CE28CF284E
:101DD00009F48FC02B013C01770C4408542C3201CC
:101DE000A980BA80CB80DC80E12CF12C00E010E0EF
:101DF0009B01AC01642D742D842D942D0E943F34E1
:101E0000722E632E542E452E962E872E382E292E76
:101E100069857A858B859C85C980DA80EB80FC801A
:101E20006C0D7D1D8E1D9F1D2CE434E040E050E0C4
:101E30000E949734ED84FE840F2C000C000B110BD4
:101E4000670156016801E12CF12C8701A982BA8251
:101E5000CB82DC82ED82FE820F831887E12CF12C8D
:101E600000E010E00E943F34298339874F875D8767
:101E7000B62FA72FF82FE92F272D362D452D542DBE
:101E8000692D782D832D922D01E00E942335590173
:101E90006A017B018C01298139854F855D856B2F16
:101EA0007A2F8F2F9E2F0E943E35A72CB62CC52C43
:101EB000D42CE92CF82C032D122D0E94C434C90116
:101EC0002F960FB6F894DEBF0FBECDBFDF91CF9136
:101ED0001F910F91FF90EF90DF90CF90BF90AF9048
:101EE0009F908F907F906F905F904F903F902F903A
:101EF000089580E090E0E4CF8AB180768AB93E9878
:101F00006E9808958AB18F698AB93E9A6E9A08953B
:101F10004F925F926F927F928F929F92AF92BF92F9
:101F2000CF92DF92EF92FF920F93CF93DF936C01EA
:101F30007B014A01822F40E070E060E00E949C0833
:101F40000E94F0022B013C010E94820FE701F12C5C
:101F5000E12C56018FEAA81A8BEFB80A4881598103
:101F60006A817B81D501ED91FC912C81C601099597
:101F7000BFEFEB1AFB0A25968E149F0479F70E9497
:101F8000F0026B017C01C418D508E608F708B70118
:101F9000A601802F0E940E0C9401A4E6B0E00E94DE
:101FA000C5336C157D058E059F05A0F4B701A6010C
:101FB00087E8DF91CF910F91FF90EF90DF90CF9066
:101FC000BF90AF909F908F907F906F905F904F9059
:101FD0000C940E0CDF91CF910F91FF90EF90DF905A
:101FE000CF90BF90AF909F908F907F906F905F90B9
:101FF0004F9008950F93CF93DF93EC010FE52EE5FB
:1020000046E050E067E271E00E94880FCE01DF9168
:10201000CF910F910C9477070F931F93CF93DF937A
:10202000EC010E94FA0F0E94820F8E010F5A1B4F83
:10203000D801ED91FC912AEA45E555E560E070E0B4
:10204000CE010995D801ED91FC9125E54AEA5AE2C5
:1020500060E070E0CE010995D801ED91FC9120E897
:1020600045E555E560E070E0CE010995D801ED91B8
:10207000FC912AEA45E555E560E070E0CE0109955E
:10208000D801ED91FC9125E54AEA5AE260E070E062
:10209000CE010995D801ED91FC9120E145E555E58A
:1020A00060E070E0CE01099564E170E080E090E0CE
:1020B000DF91CF911F910F910C9415030F9301E6BF
:1020C00020E643E050E068E171E00E94880F6AE09A
:1020D00070E080E090E00F910C9415034F925F92B6
:1020E0006F927F92AF92BF92CF92DF92EF92FF9268
:1020F0000F931F93CF93DF9300D000D0CDB7DEB7FF
:102100007C01DC0192968D919C919397892BA1F48F
:10211000F701868D978DA0A1B1A190FDAFC00FE50D
:102120002EE546E050E067E271E0C7010E94880FAB
:10213000C7010E9477071AC018964D915D916D9165
:102140007C911B97403451056105710548F55E96F9
:102150008C9180FF1EC084E80E940E0C82E0F70183
:102160008283D70112968C918111D2CF0F900F905C
:102170000F900F90DF91CF911F910F91FF90EF90F3
:10218000DF90CF90BF90AF907F906F905F904F9017
:1021900008958AEB0E940E0CD70112961C92E1CF93
:1021A0006701B9EACB1ABBEFDB0AD601ED91FC91CE
:1021B00041E060E870E0C701099562E370E080E00B
:1021C00090E00E941503D601ED91FC9141E062E0A0
:1021D00070E0C701099564E670E080E090E00E943D
:1021E0001503F7014084518462847384B301A20112
:1021F00040545109610971095701FDEAAF1AFBEF1B
:10220000BF0AD501ED91FC91C7010995082F10E097
:10221000102F0027B301A2014F5351096109710921
:10222000D501ED91FC91C7010995082BD601ED91DF
:10223000FC9140E062E870E0C7010995F70182A1D6
:1022400093A10817190709F48CCF19830A839B837C
:102250008C83868D44E0BE016F5F7F4F80FF08C096
:1022600083E80E949C0882E0D70112968C9379CF74
:1022700089EB0E949C08F701128273CF40E070E066
:1022800060E086E80E949C0871CF69B1000096B1B9
:1022900000008CB1462F50E09A0135952795359571
:1022A00027952370FA01EE0FFF1FE4702E2B60714B
:1022B000262BBA01B3E0660F771FBA95E1F7687075
:1022C000262B96959072292B559547954074242B73
:1022D000880F8078822B0895CF93C82F0E94820F99
:1022E0002C2F30E0A90155954795C901880F991FFA
:1022F0009BB1C0719076C92BB901660F771F660F2D
:10230000771F6C70C62B942F9270C92B23FB22274A
:1023100020F92C2B982F9078292B2BB998B19F7BE3
:102320008074982B98B98EB18F7B4074842B8EB9B2
:10233000CF9108959091FC016623C9F0892B809379
:10234000FC0194E0899F9001112495B19F708295C2
:10235000807F892B85B99BB19F7B822F8074982BBE
:102360009BB988B18F772078822B88B908958095A2
:102370008923E5CF61E084E00C949A1161E080E26A
:102380000C949A1160E080E20C949A11CF92DF9243
:10239000EF92FF921F93CF93DF93EC016A017B01D1
:1023A000122F0E94BA1120E0B701A601CE010E94AF
:1023B0004006AB01BC01FE01EB5AFB4F0190F081DE
:1023C000E02DCE010995812F0E946C1187E090E0ED
:1023D0000197F1F70E94C2116A897B898C899D89D6
:1023E0000E94C005DF91CF911F91FF90EF90DF9089
:1023F000CF900C94BE11CF92DF92EF92FF92CF93C9
:10240000DF93EC016A017B0160E084E00E949A1195
:1024100021E0B701A601CE010E944006AB01BC013C
:10242000FE01EB5AFB4F0190F081E02DCE010995A2
:102430000E947C0F8E899F89A88DB98D0097A10578
:10244000B10561F0893E23E09207A105B10520F0B6
:1024500088EE93E0A0E0B0E00E94E5020E94C21185
:102460008A8D9B8DAC8DBD8D0097A105B105C9F0FE
:10247000893E23E09207A105B10520F088EE93E0A4
:10248000A0E0B0E00E94E5020E944511C82F0E9422
:10249000BE118C2FDF91CF91FF90EF90DF90CF9006
:1024A000089583E090E0A0E0B0E0ECCFEF92FF92DF
:1024B0000F931F93CF93DF93EC0121E040E050E0B6
:1024C000BA010E944006AB01BC017E018BEAE81A0A
:1024D0008BEFF80AD701ED91FC91CE0109950E948E
:1024E000BE118E01095A1B4FD801ED91FC9140E0BD
:1024F00064E871E0CE01099562E070E080E090E070
:102500000E9415030E94C211D801ED91FC9141E097
:1025100064E871E0CE01099562E070E080E090E04F
:102520000E94150320E040E050E0BA01CE010E9475
:102530004006AB01BC01D701ED91FC91CE0109959C
:1025400064E170E080E090E00E94150321E040E04B
:1025500050E0BA01CE010E944006AB01BC01D70198
:10256000ED91FC91CE01099562E070E080E090E091
:102570000E9415030E94BE11D801ED91FC9140E02C
:1025800064E871E0CE01DF91CF911F910F91FF9030
:10259000EF900994FC01218126FD11C022812223A4
:1025A00071F0268D21FF0BC022FF0C94561227FFDD
:1025B00006C040E070E060E088E50C949C08089557
:1025C0000F931F93CF93DF93EC010E94BA118E01FA
:1025D000095A1B4FD801ED91FC9141E060E870E091
:1025E000CE01099564E670E080E090E00E9415035A
:1025F000FE01EB5AFB4F0190F081E02D40E050E0EE
:10260000BA01CE010995D801ED91FC9141E066E057
:1026100070E0CE01099564E670E080E090E00E94F1
:1026200015030E94C21160EA76E881E090E00E9402
:10263000C0050E94BE11D801ED91FC9140E066E812
:1026400071E0CE01DF91CF911F910F9109940C940D
:10265000E012CF930E947C0F0E94C21160E084E0E0
:102660000E949A110E944511C82F0E94BE110E941B
:10267000BA118C2FCF910895809165028F3F11F48C
:102680008091100108950F931F93CF938B010177D1
:102690001127FC01C781C03228F00E943C138250F0
:1026A000843088F48EE891E020910001309101019E
:1026B00082239323802B912BCC3109F48061CF911D
:1026C0001F910F9108958EE890E0EECF4F925F92A8
:1026D0006F927F92AF92BF92CF92DF92EF92FF9272
:1026E0000F931F93CF93DF93CDB7DEB728970FB625
:1026F000F894DEBF0FBECDBF8C010E943C13811148
:102700001FC040E070E060E080E80E949C0882E02A
:10271000D80112968C9328960FB6F894DEBF0FBEA0
:10272000CDBFDF91CF911F910F91FF90EF90DF9080
:10273000CF90BF90AF907F906F905F904F90089533
:102740005801B9EAAB1ABBEFBB0AF501E080F18092
:10275000D8015E968C9184FD6BC0C8010E94400731
:1027600041E0BC01C801F701099564E670E080E032
:1027700090E00E9415030E94A30E6C012C01712CA5
:10278000612CD8015096ED90FC90C701B0E0A0E01C
:102790008C509E4FAF4FBF4F84159505A605B705CA
:1027A00008F050C0B2E3CB0ED11CE2E3EE0EF11CF8
:1027B000198298EE692E93E0792EC601B3010E942A
:1027C000E4336A831B82E4E6F0E0C601BF010E94A5
:1027D000E433CB012AE030E0B9010E94E4338C837A
:1027E0001D82C701B3010E94E4336E831F82C701BB
:1027F000BF010E94E433CB01B9010E94E433888712
:10280000D8015E968C9148E0BE016F5F7F4F80FFDC
:1028100012C082E80E949C0882E0F8018283D50100
:10282000ED91FC9140E066E871E0C801099573CF35
:1028300080E890E095CF88EB0E949C08D801129622
:102840001C92EDCF9701AFE5B0E00E94C53324E6BE
:1028500030E040E050E00E94F83342165306640630
:102860007506E8F6B2E3CB0ED11CE2E3EE0EF11CE6
:10287000198288EE682E83E0782EC601B3010E948B
:10288000E4336A831B82E4E6F0E0C601BF010E94E4
:10289000E433CB012AE030E0B9010E94E4338C83B9
:1028A0001D82C701B3010E94E4336E831F82C701FA
:1028B000BF010E94E433CB01B9010E94E433888751
:1028C00048E0BE016F5F7F4F81E80E949C0882E074
:1028D000D80112968C93A3CFCF93DF93EC010E9483
:1028E00066138A81882371F08AA19BA1892B51F0FC
:1028F0006E8D7F8D660F771F6270CE01DF91CF9155
:102900000C94D60ADF91CF9108950C946613CF935F
:10291000DF93EC010E943C138230C0F08630D0F48B
:102920008D2F81709C2F9E7D892B9E01369527953A
:10293000369527952870822B25E0CC0FDD1F2A9530
:10294000E1F7C0728C2BDF91CF9108958D2F8170AC
:102950008C2BF9CF80E0F7CFBF92CF92DF92EF922E
:10296000FF920F931F93CF93DF93CDB7DEB7C85479
:10297000D1090FB6F894DEBF0FBECDBF7B01B42ED8
:10298000FC0101900020E9F731971E2F181B1F3022
:1029900008F01EE01983C12ED12CA601BC01CE0186
:1029A00002960E946C36E2E0F0E0EC0FFD1FEC0DA9
:1029B000FD1DE08280919D0487FF08C042E0410F29
:1029C000BE016F5F7F4F82E50E949C0829E066EDA3
:1029D00071E0B21202C068EB71E0FB0101900020CF
:1029E000E9F731978F01061B170B0983A8015527BB
:1029F000CE0102960E946C3680919D0487FF08C02C
:102A000041E0400FBE016F5F7F4F83E50E949C084D
:102A100089E0DE011196B8120AC08CE7898380E252
:102A20008A8380E3F0FC81E38B83DE011496FD0151
:102A300087E090E03CE740E230834183B701082E15
:102A400002C0769567950A94E2F720E360FD21E3E2
:102A50002283019733968F3F980771F78CE758963A
:102A60008C93589759961C92BE016F5F7F4FFB0164
:102A700001900020E9F731971E2F161B103208F045
:102A80001FE119A7412F50E0CE018A960E946C36B3
:102A900080919D0487FF08C041E0410FBE01675D42
:102AA0007F4F84E50E949C08C85BDF4F0FB6F89407
:102AB000DEBF0FBECDBFDF91CF911F910F91FF9071
:102AC000EF90DF90CF90BF900895CF93DF93C82F02
:102AD000CB01C230F1F0C83019F1C130B9F4209106
:102AE0000301261799F060930301D0E00E946C1156
:102AF00061E08C2F0E949A1160E08C2F0E949A1145
:102B0000DD2321F08BE090E00197F1F7DF91CF9189
:102B10000895209102012617C9F360930201E5CFC1
:102B200020910001309101012617370779F32870B1
:102B30003327D1E0AB01487055274217530708F0FF
:102B4000D0E090930101809300010E948714CECFC2
:102B50000E94BE1170E060E088E00E94651570E0A0
:102B600060E081E00E94651570E060E082E00E9414
:102B7000651510927F040895EF92FF920F931F93B3
:102B8000CF93DF938C01D42FC52F7B01642F70E08E
:102B900081E00E9465156C2F70E082E00E9465154F
:102BA0004D2F5C2FB701C8010E944313BC0188E080
:102BB000DF91CF911F910F91FF90EF900C946515CD
:102BC0004F925F926F927F928F929F92AF92BF923D
:102BD000CF92DF92EF92FF920F931F93CF93DF93E9
:102BE000EC017C0125EBE21A2BEFF20AF7011182CE
:102BF00010828C01035B1B4FF801118210826C0163
:102C0000F1EBCF1AFBEFDF0AF60111821082888107
:102C1000823009F456C0863009F456C0813029F458
:102C200080E695E0F801918380838BEF91E1FE01CE
:102C3000ED5AFB4F9183808386EC91E1329791832B
:102C400080838CEB95E13496918380835E01F9EA71
:102C5000AF1AFBEFBF0A8DEB97E1F50191838083FB
:102C60008EED95E032969183808340E050E0BA018A
:102C7000CE010E94BC156B817C818D819E8160316B
:102C800071058105910509F040C089EE95E0F601D6
:102C9000918380838881833091F1C8F4823021F15F
:102CA000DF91CF911F910F91FF90EF90DF90CF9028
:102CB000BF90AF909F908F907F906F905F904F905C
:102CC000089586E195E0AECF85E099E0ABCF843002
:102CD000C9F0853029F7F70111821082F6011182BF
:102CE00010828CE799E007C088E49CE1F7019183AA
:102CF00080838DE39AE0F80191838083D1CF83EACA
:102D00009AE0F9CF86E19BE1F6CF6D307105810540
:102D1000910519F51A8A1B8A1C8A1D8A88818430BC
:102D200089F340F4823071F0833009F0B9CF8CE040
:102D300090E1E1CF893071F08A3009F0B1CF8EE5B2
:102D400090E1D9CF8EE690E1F7019183808385E20F
:102D50009CE0D1CF8AEF9FE0CECF66307105810530
:102D6000910539F58EE89AE1F70191838083888196
:102D7000843041F240F4823081F0833009F090CF0A
:102D800088E99AE1B8CF853079F0803109F088CFB1
:102D9000118210828CE698E1AECF85E19CE19183AF
:102DA00080838DE799E1A7CF1182108286E99AE1AD
:102DB000A2CF653071058105910551F0653371052C
:102DC0008105910529F0693371058105910519F592
:102DD0008881843009F496CF40F4823071F08330DA
:102DE00009F05ECF86E592E186CF853071F08031C3
:102DF00009F056CF84E498E17ECF8AEC92E1F701A6
:102E00009183808383E998E176CFF7011182108264
:102E10008CE89AE170CF2B013C01F7E04F1A510882
:102E20006108710822E0421651046104710430F017
:102E30006B3071058105910509F081C02CE634E104
:102E4000F701318320832881233009F44DC0C8F570
:102E5000223009F441C0F501208131813093FE0117
:102E60002093FD0122E236E0318320830A891B8909
:102E70002C893D89012B022B032BD1F404E610E0B1
:102E800020E030E0683071058105910569F004EFBC
:102E900011E020E030E06B3071058105910521F0F3
:102EA00008EE13E020E030E00A8B1B8B2C8B3D8B6F
:102EB0000E940407009749F56B818BEB0E94950DEA
:102EC0003CC02430F9F0253031F625E834E1318377
:102ED000208328E53BE006C021E63DE131832083E5
:102EE00027E93DE1F8010BC027E233E1F801318326
:102EF00020832E8D23FDAFCF26E13BE1F601318308
:102F00002083A9CF26E13BE1EDCFFC0134968591EA
:102F10009591A591B4910097A105B10509F4C0CE92
:102F20004A895B896C897D8984179507A607B7074D
:102F300008F0B6CE8EEA0E940E0C1A82B1CE6E3028
:102F400071058105910509F4ABCE4B015C01F7E2F7
:102F50008F1A9108A108B10823E082169104A104F8
:102F6000B10408F49DCEF70111821082F80111829C
:102F70001082F60111821082A0CF80910001909101
:102F80000101442329F0682B792B88E00C94651506
:102F90006095709568237923F8CF7F928F929F92E6
:102FA000AF92BF92CF92DF92EF92FF920F931F9357
:102FB000CF93DF938C017B015A016C0189EAC81A17
:102FC0008BEFD80AD601ED91FC9140E060E470E00F
:102FD000C8010995E701F12CE12C7C80888099805B
:102FE0000E94820F682D70E081E00E946515692DB6
:102FF00070E082E00E946515872D0E946C110E948E
:10300000BA110E94C2110E94BE11BFEFEB1AFB0A57
:103010002596AE14BF0409F7D601ED91FC9140E06E
:1030200060E470E0C801DF91CF911F910F91FF9094
:10303000EF90DF90CF90BF90AF909F908F907F9058
:1030400009941F93CF93DF93EC0143E050E069EACA
:1030500071E00E94CD17FE01ED5AFB4F0190F08107
:10306000E02D42E050E060E070E0CE010995182FBD
:1030700043E050E06AE971E0CE010E94CD17812F54
:10308000DF91CF911F9108950F931F93CF93DF93FB
:1030900000D0CDB7DEB78C010E94211889838F3F05
:1030A00091F41A8281E0F801828342E0BE016F5FF1
:1030B0007F4F81EE0E949C080F900F90DF91CF917F
:1030C0001F910F9108958E3F19F481E08A83EBCF11
:1030D0008FEF8A8382E0E7CF0F931F93CF93DF9325
:1030E00000D0CDB7DEB78C010E94211889838111F1
:1030F00012C01A8281E0F801828342E0BE016F5F54
:103100007F4F81EE0E949C080F900F90DF91CF912E
:103110001F910F910895813011F48A83ECCF8FEFC6
:103120008A8382E0E8CF2F923F924F925F926F9214
:103130007F928F929F92AF92BF92CF92DF92EF9247
:10314000FF920F931F93CF93DF93CDB7DEB72E97E8
:103150000FB6F894DEBF0FBECDBF8C01FC01808599
:103160009185A285B38520E4822E912CA12CB12CCF
:1031700081309105F1E0AF07B10568F030E8832EAA
:10318000912CA12CB12C0197A440B10520F0812CE9
:10319000912C54019394C801869698878F83412C73
:1031A000512C3201D801AA5DBB4FBA87A987F8011B
:1031B000EF5AFB4FFC87EB87835D9B4F9E878D8784
:1031C000E985FA8580819181A281B38148165906EB
:1031D0006A067B0608F072C0D8011C96CD90DD907F
:1031E000ED90FC901F97C40CD51CE61CF71CEF81DA
:1031F000F8852191F887EF832E83C701B601A501D9
:1032000094010E94F833672B682B692B29F0411435
:1032100051046104710439F443E050E065E471E065
:10322000C8010E94CD17AB85BC85ED91FC912E8124
:10323000B701A601C8010995C701B6016F5F7F4FAD
:103240008F4F9F4FA50194010E94F833672B682B85
:10325000692B79F0E985FA8580819181A281B3811A
:103260000197A109B10984159505A605B70509F0CF
:103270003EC0212C84E0382E83E290E00197F1F7E4
:10328000AD85BE85ED91FC91B701A601C8010995F8
:10329000BE81B81761F1E1E02E1A310869F7B983F0
:1032A000EA82DB82CC828D8345E0BE016F5F7F4F77
:1032B00083EB0E949C08D80112961C922E960FB6A2
:1032C000F894DEBF0FBECDBFDF91CF911F910F915C
:1032D000FF90EF90DF90CF90BF90AF909F908F9036
:1032E0007F906F905F904F903F902F900895BFEF29
:1032F0004B1A5B0A6B0A7B0A63CF2F923F924F9265
:103300005F926F927F928F929F92AF92BF92CF9275
:10331000DF92EF92FF920F931F93CF93DF9300D032
:103320001F92CDB7DEB79B838A838C01412C512C31
:1033300032011C012AED221A2BEF320A4C018FEACE
:10334000881A8BEF980A580199EAA91A9BEFB90AD3
:10335000F10180819181A281B381481659066A06E4
:103360007B0608F063C043E050E064E571E08A81C9
:103370009B810E94CD17AA81BB811C964D915D91C6
:103380006D917C911F97440D551D661D771DD401CD
:10339000ED91FC91D80196962C918A819B8109959B
:1033A000F801F6A1F983D501ED91FC9141E060E4CB
:1033B00070E08A819B8109950E9448036B017C0122
:1033C000B6E9CB0ED11CE11CF11C0E9448036C1520
:1033D0007D058E059F05F8F40E942913E9818E274B
:1033E00087FDF3CF0E942913F9818F2787FDEDCF49
:1033F0000E94820F0E94BE110E94BA110F5F1F4FE0
:10340000EA81FB818281882389F0FFEF4F1A5F0AEE
:103410006F0A7F0A9DCF40E070E060E087EB0E947A
:103420009C08AA81BB8112961C92E8CF0F900F9046
:103430000F90DF91CF911F910F91FF90EF90DF9050
:10344000CF90BF90AF909F908F907F906F905F9044
:103450004F903F902F900895CF92DF92EF92FF927E
:103460000F931F93CF93DF9300D000D0CDB7DEB77B
:103470008C0143E050E069EA71E00E94CD176801D9
:103480008DEAC81A8BEFD80AD601ED91FC9140E085
:1034900050E0BA01C8010995E82EF12CFE2CEE246B
:1034A000D601ED91FC9141E050E060E070E0C80190
:1034B0000995E82A43E050E06AE971E0C8010E94FA
:1034C000CD17F80182A193A18E159F0591F0F98285
:1034D000EA829B838C83868D44E0BE016F5F7F4FC1
:1034E00080FF14C083E80E949C0882E0D8011296F5
:1034F0008C930F900F900F900F90DF91CF911F91B1
:103500000F91FF90EF90DF90CF90089589EB0E948C
:103510009C08F8011282EDCF0C942C1AFC0122A118
:1035200033A1232B11F00C942C1A08950C942C1A0F
:10353000CF92DF92EF92FF920F931F93CF93DF937F
:10354000CDB7DEB76E970FB6F894DEBF0FBECDBF16
:10355000FC01048515852685378546E050E063E645
:1035600071E0011511052105310589F145E555E5A4
:1035700060E070E049835A836B837C83FAEAFD83C1
:10358000EAEACE2EEAE2DE2EE12CF12CCE82DF82B8
:10359000E886F986E5E5EA874B875C876D877E8755
:1035A000A0E8AF87488B598B6A8B7B8BFC8BCD8ACD
:1035B000DE8AEF8AF88EE98F40E34E8F0A8F1B8FE9
:1035C0002C8F3D8F46E050E0BE016F5F7F4F0E9421
:1035D000CD176E960FB6F894DEBF0FBECDBFDF914C
:1035E000CF911F910F91FF90EF90DF90CF900895B2
:1035F000FF920F931F93CF93DF938C01C0E3D0E032
:10360000F801F1908F01CE010E94A433F81621F049
:103610006F2DCE010E94AC332196CF33D10581F7B7
:10362000DF91CF911F910F91FF9008954F925F927C
:103630006F927F92AF92BF92CF92DF92EF92FF9202
:103640000F931F93CF93DF93CDB7DEB728970FB6B5
:10365000F894DEBF0FBECDBF8C01DC0111969C91AA
:1036600011971C96CD90DD90ED90FC901F9796FDE4
:1036700065C0906411969C9384E090E00E94473569
:10368000F801E75BFB4F91838083FC01C082D1820C
:10369000E282F382D8011C961D921D921D921C920B
:1036A0001F97F801C484D584E684F7842601370186
:1036B000F8E05F0E611C711C58018DEAA81A8BEFAF
:1036C000B80AF80180859185A285B385C414D50414
:1036D000E604F70408F07BC0C816D906EA06FB0624
:1036E00008F075C0D501ED91FC91B701A601C801A4
:1036F00009958F3F09F465C0270166247724498224
:1037000077276F2D5E2D4D2D4A83CB828C83F80158
:103710009081943009F04DC046A247A3C0A681A76E
:1037200084E090E0A0E0B0E0EA5DFB4F808391830D
:10373000A283B383D80112961C9226C0F80140855B
:10374000518562857385C416D506E606F70608F42A
:10375000A8CF7801F7EBEF1AFBEFFF0AD7012D9105
:103760003C919F7BF8019183F90180819181A28135
:10377000B381F80184879587A687B787C9010E941E
:10378000E335D7011D921C9228960FB6F894DEBF40
:103790000FBECDBFDF91CF911F910F91FF90EF90A2
:1037A000DF90CF90BF90AF907F906F905F904F90E1
:1037B000089544E0BE016F5F7F4F80EB0E949C083C
:1037C000B9CFBFEFCB1ADB0AEB0AFB0A7ACFF801BD
:1037D0004485558566857785585F6F4F7F4F841781
:1037E0009507A607B707E0F0448755876687778770
:1037F000F8012081243041F224853585468557859E
:1038000059834A833B832C83BD83AE839F83888700
:1038100048E0BE016F5F7F4F80EE0E949C08B4CFEE
:1038200084879587A687B787E3CFCF93DF93EC0193
:10383000898186FD07C08AA19BA1892B59F48E8DB1
:1038400081FD11C08E8D83FD0BC0CE01DF91CF9124
:103850000C94161BCE010E942C1A8A818111EFCF85
:10386000DF91CF91089582FD0AC0CE010E94981A7F
:1038700069E670E080E090E00E941503E3CF87FFE7
:10388000E1CF40E070E060E089E50E949C08DACF7B
:103890004F925F926F927F92AF92BF92CF92DF92E0
:1038A000EF92FF920F931F93CF93DF93CDB7DEB7C5
:1038B00028970FB6F894DEBF0FBECDBF8C015C0118
:1038C00089EAA81A8BEFB80AD501ED91FC9141E085
:1038D00068E870E0C801099564EF71E080E090E06D
:1038E0000E9415030E943C1381112AC040E070E041
:1038F00060E080E80E949C0882E0F8018283F80181
:1039000082818111BFC0D501ED91FC9140E068E852
:1039100070E0C801099528960FB6F894DEBF0FBE77
:10392000CDBFDF91CF911F910F91FF90EF90DF906E
:10393000CF90BF90AF907F906F905F904F90089521
:103940000E94A30E6C012C01712C612CD8015096A1
:10395000ED90FC90C701B0E0A0E08C509E4FAF4FBF
:10396000BF4F84159505A605B70508F040C0B2E322
:10397000CB0ED11CE2E3EE0EF11C198298EE692EFB
:1039800093E0792EC601B3010E94E4336A831B825F
:10399000E4E6F0E0C601BF010E94E433CB012AE077
:1039A00030E0B9010E94E4338C831D82C701B3016A
:1039B0000E94E4336E831F82C701BF010E94E4337B
:1039C000CB01B9010E94E4338887D8015E968C91BF
:1039D00048E0BE016F5F7F4F80FF02C082E88ACF60
:1039E00088EB0E949C08D80112961C9288CF970100
:1039F000AFE5B0E00E94C53324E630E040E050E09F
:103A00000E94F833421653066406750608F077CF15
:103A1000B2E3CB0ED11CE2E3EE0EF11C198288EE6C
:103A2000682E83E0782EC601B3010E94E4336A83D6
:103A30001B82E4E6F0E0C601BF010E94E433CB0143
:103A40002AE030E0B9010E94E4338C831D82C70173
:103A5000B3010E94E4336E831F82C701BF010E943D
:103A6000E433CB01B9010E94E433888748E0BE010A
:103A70006F5F7F4F81E80E949C0882E0D801129618
:103A80008C933DCF82A193A1892B49F0C8010E945C
:103A90007C09D80112968C91882309F434CFF8015F
:103AA000868D81FF05C082FD03C0C8010E94A30A64
:103AB000D8015E968C9183FD2ECFC8010E94161B03
:103AC0002ACFCF93DF93EC01898186FD0EC0CE0112
:103AD0000E946C148A81882389F08E8D81FF05C035
:103AE00082FD19C0CE010E94E0128E8D83FD03C0BD
:103AF000CE010E94161B8A81811116C0FE01E95A6F
:103B0000FB4F0190F081E02D40E066E871E0CE01CE
:103B1000DF91CF91099487FFE8CF40E070E060E04B
:103B200088E50E949C08E1CFDF91CF9108952F9204
:103B30003F924F925F926F927F928F929F92AF923D
:103B4000BF92CF92DF92EF92FF920F931F93CF938A
:103B5000DF93CDB7DEB7C05BD1090FB6F894DEBFF7
:103B60000FBECDBF7C01FC01E75AFB4F0190F081F5
:103B7000E02D60E870E00995811118C0F701E95A5D
:103B8000FB4F00811181D7015E968C9184FDA9C104
:103B9000C7010E94400741E0BC01C701F801099537
:103BA00064EF71E080E090E00E941503D701139666
:103BB0006D917D918D919C9116970E9404070097BD
:103BC00009F4E3C1FC013496259135914591549156
:103BD000CE55DF4F288339834A835B83C25AD04056
:103BE000FC0138963491C656DF4F3883CA59D0400D
:103BF00032964491C855DF4F4883C85AD040D70108
:103C000052968D919D910D90BC91A02DC755DF4F7F
:103C100088839983AA83BB83C95AD0400E944803F2
:103C2000C256DF4F688379838A839B83CE59D04005
:103C3000F701EA5DFB4F20813181C556DF4F3983A3
:103C40002883CB59D040FE01319680E8DF011D92D8
:103C50008A95E9F7C357DF4F188219821A821B82AF
:103C6000CD58D040612C8F01F701ED5AFB4FC35561
:103C7000DF4FF983E883CD5AD0409701295A3B4F53
:103C8000CA55DF4F39832883C65AD040A7014F5AFF
:103C90005B4FC155DF4F59834883CF5AD040D7017E
:103CA0001C967C901C971D96BC91C956DF4FB8831B
:103CB000C759D040F701F685C856DF4FF883C85979
:103CC000D040D7011F96BC91C756DF4FB883C95962
:103CD000D040CF56DF4FF982E882C159D040CD564F
:103CE000DF4FF982E882C359D040212C312C2101C9
:103CF000D12CC12CC556DF4FE881F981CB59D0407A
:103D00002E163F0608F022C1C1018770992721E0D5
:103D100030E002C0220F331F8A95E2F7CB56DF4F07
:103D200039832883C559D040A10193E05695479522
:103D30009A95E1F7C757DF4F59834883C958D04058
:103D4000FA01E00FF11F5081C557DF4F5883CB5860
:103D5000D0405223C457DF4F5883CC58D040662000
:103D600019F0552309F4AAC0CD56DF4FA881B981B7
:103D7000C359D0409696BC91C356DF4FB883CD59F6
:103D8000D04061105AC00E944803C256DF4F2881BC
:103D900039814A815B81CE59D040621B730B840B01
:103DA000950B683E73408105910508F446C00E945A
:103DB0004803C256DF4F688379838A839B83CE5939
:103DC000D040F70184859585A685B785820D931D22
:103DD000A41DB51D2085318542855385CF57DF4F02
:103DE000B883C158D040CE57DF4FA883C258D040C7
:103DF000CD57DF4F9883C358D040CC57DF4F8883CF
:103E0000C458D040CB57DF4F5883C558D040CA570D
:103E1000DF4F4883C658D040C957DF4F3883C75853
:103E2000D040C857DF4F2883C858D04048E0BE0173
:103E30006F577F4F80EE0E949C08C356DF4FF8817A
:103E4000CD59D040FF3FD1F1D7011C968D909D9068
:103E5000AD90BC901F97820C931CA41CB51CC3553D
:103E6000DF4FA881B981CD5AD040ED91FC91B501C9
:103E7000A401C7010995C356DF4FB881CD59D04081
:103E8000B81332C0C457DF4FE881CC58D040EE237E
:103E9000A9F0C757DF4FE881F981C958D040E00F3A
:103EA000F11FCB56DF4F8881C559D0408095C5574B
:103EB000DF4F2881CB58D040822380838FEF281A90
:103EC000380A480A580ACD56DF4FA881B981C3592C
:103ED000D0401196CD56DF4FB983A883C359D04047
:103EE00009CF80E890E057CEC457DF4F3881CC58D7
:103EF000D040311114C0C757DF4FE881F981C9584C
:103F0000D040E00FF11FC557DF4F8881CB58D0401C
:103F1000CB56DF4F4881C559D040842B8083C114D4
:103F2000D10481F4782CC956DF4F9882C759D0400C
:103F3000C856DF4FA882C859D040C756DF4FB88255
:103F4000C959D0405FEFC51AD50AB8CFCD2809F4BA
:103F5000F4C0C656DF4FB881CA59D040B6113FC031
:103F60000DEB2B2F472DC956DF4F5881C759D04035
:103F7000C856DF4F6881C859D040C756DF4F788197
:103F8000C959D040C7010E945B0BD70112968C9192
:103F900081110BC0F701E95AFB4F0190F081E02D30
:103FA00040E066E871E0C7010995C055DF4F0FB6E4
:103FB000F894DEBF0FBECDBFDF91CF911F910F915F
:103FC000FF90EF90DF90CF90BF90AF909F908F9039
:103FD0007F906F905F904F903F902F900895CE55B7
:103FE000DF4F288139814A815B81C25AD040211537
:103FF00031054105510581F0C357DF4F8881998113
:10400000AA81BB81CD58D04082179307A407B5077A
:1040100018F00EEB262DA6CFCA55DF4FA881B98127
:10402000C65AD040ED91FC9141E064E070E0C701D8
:1040300009958BE99FE00197F1F7812C912C5401B0
:10404000C556DF4FE881F981CB59D0408E169F06C7
:1040500008F044C0F40183E0F695E7958A95E1F70E
:10406000E00FF11FC4018770992721E030E001C003
:10407000220F8A95EAF780818223E9F0D7011C9606
:104080004D915D916D917C911F97480D591D6A1D51
:104090007B1DC155DF4FA881B981CF5AD040ED912A
:1040A000FC91CF56DF4FA881B981C159D040969677
:1040B0002C91C7010995CF56DF4FE881F981C1598D
:1040C000D0403196CF56DF4FF983E883C159D040B5
:1040D000FFEF8F1A9F0AAF0ABF0AB2CF8BE891E0B9
:1040E0000197F1F7CA55DF4FA881B981C65AD04070
:1040F000ED91FC9140E064E070E0C70109956394A4
:10410000C357DF4F288139814A815B81CD58D04028
:10411000C755DF4F88819981AA81BB81C95AD04098
:10412000280F391F4A1F5B1FC357DF4F288339836E
:104130004A835B83CD58D040B2CDC855DF4F9881BC
:10414000C85AD040913009F020CFC7010E9405091C
:104150001CCF4F925F926F927F92AF92BF92CF929D
:10416000DF92EF92FF920F931F93CF93DF9300D0D4
:1041700000D0CDB7DEB77C010E94A90D1816190634
:104180000CF0A1C06E0185E0C80ED11C0E94A90DE3
:10419000181619060CF097C087E092E00E94D80428
:1041A00084349105E1F18F349105A1F0839709F0F2
:1041B00087C00E94A50D60E074E0C70186960E944A
:1041C000DB0D97FF6FC0BC0189EA0E94830D84E07C
:1041D00090E012C00E94A90D02970CF474C00E94D6
:1041E000A50D87E092E00E94D8048B34910571F60A
:1041F0000E94A50D90E080E00F900F900F900F901F
:10420000DF91CF911F910F91FF90EF90DF90CF90B2
:10421000BF90AF907F906F905F904F9008950E94F5
:10422000A90D04970CF44FC08E010F5F1F4FB02EE5
:10423000A12E0E94480360930F0270931002809396
:1042400011029093120287E092E00E94BA0497FF55
:104250003DC00E94480340900F02509010026090B1
:10426000110270901202641975098609970940902D
:104270000B0250900C0260900D0270900E026415BB
:10428000750586059705F8F244E050E06CE971E0A9
:104290008B2D9A2D0E949633892B09F077CF81E0E0
:1042A00090E0AACFF701EA5DFB4F092E000CAA0BA4
:1042B000BB0B80839183A283B38382E090E09CCF89
:1042C0000E94A50D63CF83E090E096CFF801819323
:1042D0008F01CE16DF0609F0ACCFD6CF0F931F9318
:1042E000CF93DF93EC014C855D856E857F85888556
:1042F0009985AA85BB85481759076A077B0720F06F
:10430000CE010E94920B12C0CE010E94A9208330E0
:10431000910591F4898187FD09C040E070E060E07B
:1043200082E00E949C0889818068898381E0DF9116
:10433000CF911F910F91089529812F772983813083
:104340009105F1F2029711F080E0F1CF8E010A5D44
:104350001B4F8C859D85AE85BF85F80140815181BD
:1043600062817381840F951FA61FB71F48855985E9
:104370006A857B85481759076A077B0738F440E050
:1043800070E060E087EA0E949C08DECFFE01E35BFC
:10439000FB4F808191810097B9F2BE010E94E50731
:1043A000019691F28C859D85AE85BF85F80140818F
:1043B000518162817381840F951FA61FB71F8C875F
:1043C0009D87AE87BF87B2CFCF92DF92EF92FF92E9
:1043D000CF93DF93EC010E9448036B017C0128EE30
:1043E000C20E23E0D21EE11CF11C0E9448036C1592
:1043F0007D058E059F0570F4CE010E94A9200097CF
:1044000089F0049769F06AE070E080E090E00E9433
:104410001503EBCF40E070E060E088EA0E949C0862
:1044200080E001C081E0DF91CF91FF90EF90DF90BD
:10443000CF9008950F931F93CF93DF938C01EB01DF
:10444000809180048F7390E09B0121503109821785
:10445000930731F08617970779F181E090E008C063
:104460008FE794E00E94E421811107C08FEF9FEF56
:10447000DF91CF911F910F91089580919D049091AC
:104480009E04A0919F04B091A00480789927AA2748
:10449000BB27C130D10571F5892B8A2B8B2B31F0CD
:1044A00040E070E060E082E40E949C08809180041B
:1044B000807C8C2B809380046FE774E0C8010E949D
:1044C000E507019699F28091800486FD1CC040E0CA
:1044D00070E060E080E1219709F080E30E949C0891
:1044E00090918004892F8F738F5F907C892B8093AC
:1044F0008004B3CF892B8A2B8B2BC1F240E070E074
:1045000060E083E4D1CF90E080E0B2CFCF93DF933F
:10451000EC018091CC089091CD08892B09F458C00A
:10452000809180048F73863051F48FE794E00E946D
:10453000A92021E0039709F444C020E042C0833061
:1045400001F1823021F58FE794E00E94E421882375
:10455000E1F10E94D60780918004807C8360809383
:10456000800480919D0487FF06C040E070E060E019
:1045700080E40E949C08809180048F7321E0833046
:1045800001F58FE794E0FE01DF91CF91099461E09E
:1045900070E08091CA089091CB080E941A22813065
:1045A000910559F465E070E08091CE089091CF08B4
:1045B0000E941A2281309105F1F221E0892B09F045
:1045C000BCCF822FDF91CF9108958FEF9FEFF5CF72
:1045D00040E070E060E085EA0E949C08109281044F
:1045E000ACCFAF92BF92CF92DF92EF92FF920F9338
:1045F0001F93CF93DF93FC01E35BFB4F208131815D
:104600002115310569F410E0812FDF91CF911F91C1
:104610000F91FF90EF90DF90CF90BF90AF900895F3
:10462000EC01BC01C9010E94E507019661F340E07D
:1046300070E060E082EE0E949C086E018AEDC81A6C
:104640008BEFD80AF601E080F180FEEFEF16FFEF66
:10465000FF0608F054C0E2E2F1E0649187E092E0E6
:104660000E94A004E3E2F1E0649187E092E00E94FE
:10467000A004E4E2F1E0649187E092E00E94A004EB
:10468000E5E2F1E0649187E092E00E94A0048701F6
:104690000E5F1F4F612F87E092E00E94A004602F01
:1046A00087E092E00E94A00466EE87E092E00E941C
:1046B000A004E7E8F2E0A4908E01C8018C1B9D0BDA
:1046C0008E159F0580F4F801B6A06B2D87E092E06F
:1046D0000E94A004EB2DEA25F0E0EF55FE4FA490D8
:1046E0000F5F1F4FEACF6A2D87E092E00E94A0047F
:1046F0006AE087E092E00E94A0040E943B02CE01A3
:104700000E94E421182F882309F47DCF8C859D8594
:10471000AE85BF85F6014081518162817381840F2E
:10472000951FA61FB71F8C879D87AE87BF874885BB
:1047300059856A857B8584179507A607B70708F40E
:1047400063CFCE010E94920B5FCFEF92FF920F9347
:104750001F93CF93DF93FB012081318124303105FA
:1047600039F58A01EB017C01CA010E948D33EA818F
:10477000FB812C813D812E1B3F0B82179307C1F4D7
:10478000AC01B801C7018E0F9F1F0E94963321E034
:1047900030E0892B11F430E020E088279927821B34
:1047A000930BDF91CF911F910F91FF90EF900895A0
:1047B0008FEF9FEFF6CFEF92FF920F931F93CF9360
:1047C000DF938C01EB0183E0CC0FDD1F8A95E1F7CD
:1047D000CE0181589D4F7C0142EC53E0BC01C801E1
:1047E0000E94A523892B41F04CEB53E0B701C8018F
:1047F0000E94A523892B81F4C957DD4F8A819B81B3
:10480000800F911F0E94B407862FDF91CF911F91D7
:104810000F91FF90EF9008958FEFF7CFEF92FF92F7
:104820000F931F93CF93DF937C01890183E0440FA3
:10483000551F8A95E1F7EB01C40FD51F42E951E0FE
:10484000BE01C7010E94A523892B89F48A859B8517
:104850008E0D9F1D0E94B407F80175A364A381E02B
:10486000DF91CF911F910F91FF90EF90089580E01D
:10487000F7CFEF92FF920F931F93CF93DF937C01BB
:10488000890183E0440F551F8A95E1F7EB01C40FBE
:10489000D51F43E851E0BE01C7010E94A523892B23
:1048A000E9F48A859B858E0D9F1D0E94B407693EA1
:1048B00023E072078105910520F068EE73E080E047
:1048C00090E0F801628F738F848F958F81E0DF9184
:1048D000CF911F910F91FF90EF90089580E0F7CF57
:1048E000EF92FF920F931F93CF93DF937C01890187
:1048F00083E0440F551F8A95E1F7EB01C40FD51FE4
:104900004FE651E0BE01C7010E94A523892BE9F4BF
:104910008A859B858E0D9F1D0E94B407693E23E00A
:1049200072078105910520F068EE73E080E090E069
:10493000F801668B778B808F918F81E0DF91CF912B
:104940001F910F91FF90EF90089580E0F7CFEF92C5
:10495000FF920F931F93CF93DF937C01890183E034
:10496000440F551F8A95E1F7EB01C40FD51F45E6AB
:1049700051E0BE01C7010E94A523892B99F48A85C5
:104980009B858E0D9F1D0E94B407F801638374837D
:104990008583968381E0DF91CF911F910F91FF90E6
:1049A000EF90089580E0F7CFEF92FF920F931F935F
:1049B000CF93DF937C01890183E0440F551F8A95D3
:1049C000E1F7EB01C40FD51F4EE551E0BE01C70171
:1049D0000E94A523892B89F48A859B858E0D9F1DB6
:1049E0000E94B407F801718B608B81E0DF91CF9159
:1049F0001F910F91FF90EF90089580E0F7CFEF9215
:104A0000FF920F931F93CF93DF937C01890183E083
:104A1000440F551F8A95E1F7EB01C40FD51F42E5FE
:104A200051E0BE01C7010E94A523892B99F48A8514
:104A30009B858E0D9F1D0E94B407F801628B738BBE
:104A4000848B958B81E0DF91CF911F910F91FF9027
:104A5000EF90089580E0F7CFEF92FF920F931F93AE
:104A6000CF93DF937C01890183E0440F551F8A9522
:104A7000E1F7EB01C40FD51F48E451E0BE01C701C7
:104A80000E94A523892B81F48A859B858E0D9F1D0D
:104A90000E94B407F801678381E0DF91CF911F91F5
:104AA0000F91FF90EF90089580E0F7CFEF92FF9283
:104AB0000F931F93CF93DF937C01890183E0440F11
:104AC000551F8A95E1F7EB01C40FD51F40E451E073
:104AD000BE01C7010E94A523892B89F48A859B8585
:104AE0008E0D9F1D0E94B407F80173A362A381E09D
:104AF000DF91CF911F910F91FF90EF90089580E08B
:104B0000F7CFEF92FF920F931F93CF93DF937C0128
:104B1000890183E0440F551F8A95E1F7EB01C40F2B
:104B2000D51F48E351E0BE01C7010E94A523892B90
:104B300099F48A859B858E0D9F1D0E94B407F8010C
:104B4000648775878687978781E0DF91CF911F9172
:104B50000F91FF90EF90089580E0F7CFEF92FF92D2
:104B60000F931F93CF93DF937C01890183E0440F60
:104B7000551F8A95E1F7EB01C40FD51F4CE251E0B8
:104B8000BE01C7010E94A523892B99F48A859B85C4
:104B90008E0D9F1D0E94B407F80160877187828780
:104BA000938781E0DF91CF911F910F91FF90EF905C
:104BB000089580E0F7CFEF92FF920F931F93CF936A
:104BC000DF937C01890183E0440F551F8A95E1F74B
:104BD000EB01C40FD51F46E251E0BE01C7010E94A0
:104BE000A523892B99F48A859B858E0D9F1D0E9494
:104BF000B407F801668F778F80A391A381E0DF91DE
:104C0000CF911F910F91FF90EF90089580E0F7CF23
:104C10001F920F920FB60F9211242F933F938F93F1
:104C20009F93AF93BF9380916B0290916C02A09180
:104C30006D02B0916E0230916A0223E0230F2D378E
:104C400058F50196A11DB11D20936A0280936B0255
:104C500090936C02A0936D02B0936E0280916F02EC
:104C600090917002A0917102B09172020196A11D03
:104C7000B11D80936F0290937002A0937102B09364
:104C80007202BF91AF919F918F913F912F910F90A1
:104C90000FBE0F901F90189526E8230F0296A11DB6
:104CA000B11DD2CF1F920F920FB60F9211242F93E6
:104CB0003F934F935F936F937F938F939F93AF93A4
:104CC000BF93CF93EF93FF93C091E1008091E100F8
:104CD000837F8093E100C3FF0FC01092E90081E061
:104CE0008093EB001092EC0082E38093ED00109231
:104CF000DB0888E08093F000C2FF1AC00E943B02EC
:104D000080910402882341F08091040281508093B5
:104D10000402811101C05D9A8091DA08882341F074
:104D20008091DA0881508093DA08811101C0289AB5
:104D3000C4FF23C08091E2008E7E81608093E200F8
:104D40008091E1008F7E8093E100809105028E7E4C
:104D5000806180930502FF91EF91CF91BF91AF9158
:104D60009F918F917F916F915F914F913F912F9183
:104D70000F900FBE0F901F901895C0FFECCF809141
:104D8000E2008E7E80618093E2008091E1008E7E61
:104D90008093E100809105028E7E8160DACF1F92C0
:104DA0000F920FB60F921124CF92DF92EF92FF92E3
:104DB0000F931F932F933F934F935F936F937F9323
:104DC0008F939F93AF93BF93EF93FF93CF93DF9313
:104DD000CDB7DEB76C97DEBFCDBF1092E9008091F2
:104DE000E80083FF25C068E0CE0145960E940E04CE
:104DF00082EF8093E8008D8987FF39C09091E800A9
:104E000090FFFCCF982F907609F034C19E894F898E
:104E1000588D2F89F88C911131C0803861F58091BF
:104E200006028093F1001092F1008EEF8093E8006B
:104E30006C960FB6F894DEBF0FBECDBFDF91CF9159
:104E4000FF91EF91BF91AF919F918F917F916F9162
:104E50005F914F913F912F911F910F91FF90EF9094
:104E6000DF90CF900F900FBE0F901F9018959EEF80
:104E70009093E800C7CF1092F100D5CF913059F44C
:104E80008111D3CF4130510581F6809106028D7F8B
:104E900080930602CACF933049F48111C6CF4130C6
:104EA000510519F6809106028260F2CF953041F4E7
:104EB0008091E80080FFFCCF20682093E300B5CF0D
:104EC000963009F0A9C00B8D1C8D22E01092E900EC
:104ED0001092020210920102F2122EC010920002F1
:104EE0001092FF010E94DD031F8299E09983FA82EC
:104EF00091E09E8390EA98879AEF9987209101022A
:104F000030910202275F3F4F3C832B838D831092A9
:104F1000E900109202021092010210930002009325
:104F2000FF0149E050E0BE016F5F7F4F80E00E94CB
:104F3000B7030E94DD0379CF109300020093FF01B5
:104F40000E94A902DC0112960D911C910115110518
:104F500009F451C1D801ED91FC910480F581E02D57
:104F6000BE016B5E7F4FC8010995009709F03EC1F5
:104F7000F80100851185EACFF3E0FF120EC08F899A
:104F8000882309F440C0823061F440E860E18CE29B
:104F900093E00E948403811148CF81E28093EB006B
:104FA00047CF813029F440E86BE080E293E0F1CF15
:104FB000833099F70E94A902DC011296ED90FC90D3
:104FC0008E010F5F1F4F6801E114F10479F0D701E2
:104FD000ED91FC910680F781E02DB801C70109959C
:104FE000080F111DF701E084F184EECFD8011C9267
:104FF000F60101900020E9F73197BF016C197D0996
:1050000040E0C601C6CF6AE073E0FB01449150E086
:1050100080E80E94B70309CF973009F4BECF9830DB
:1050200021F481E08093F10000CF993009F0FDCEAA
:10503000837009F0B2CFE4E9F1E081E031E096E37A
:105040002191222371F08093E9003093EB00DF017E
:1050500011972C912093EC009093ED008F5F873097
:1050600079F78EE78093EA001092EA008F898093A7
:10507000DB08DBCE8B8D9C8D1092E9001092020232
:1050800010920102909300028093FF01898D81119B
:1050900092C08E899D89913A49F4813209F07DCF81
:1050A00047E050E068E071E080E0B3CF913209F072
:1050B00074CF833269F48F89988DB0E0A0E080933B
:1050C000040190930501A0930601B0930701ADCEB2
:1050D000803269F48091E80082FFFCCF67E088E0CD
:1050E00091E00E940E048BEF8093E8009ECE823206
:1050F00009F09BCE8F8980930F01EEEFFFE785913A
:1051000094918B3F9C4D51F1E0E0F8E080910801D3
:1051100090910901A0910A01B0910B01803B94404C
:10512000A105B105F1F480910F0180FD1AC0EE3F99
:105130008AE0F80789F587E797E791838083809174
:1051400060008093030288E19BE00FB6F894A89575
:10515000809360000FBE9093600067CEEEEFFAE0A0
:10516000D5CF808191818737974709F05ECEA8958A
:105170008091600088618093600080910302809339
:105180006000EE3F2AE0F20789F08091FE0A9091DC
:10519000FF0A9183808349CE808191818737980768
:1051A00051F29093FF0A8093FE0AC5CF1092FF0A36
:1051B0001092FE0A3ACE0E94A902DC0112960D91CD
:1051C0001C910115110509F4E8CED801ED91FC916F
:1051D0000190F081E02DBE016B5E7F4FC801099503
:1051E000811123CEF80100851185EBCF1816190621
:1051F0000CF41BCED2CEF1E0FF12BECE6EE073E017
:1052000004CFCF93DF93CDB7DEB7E5970FB6F89411
:10521000DEBF0FBECDBF789484B5826084BD84B5F7
:10522000816084BD85B5826085BD85B5816085BDA1
:1052300080916E00816080936E0010928100809159
:1052400081008260809381008091810081608093E1
:105250008100809180008160809380008091910026
:105260008260809391008091910081608093910091
:10527000809190008160809390008091C100846053
:105280008093C1008091C10082608093C1008091B1
:10529000C10081608093C1008091C30081608093D0
:1052A000C3008091C00082608093C0008091C200E2
:1052B00081608093C20080917A00846080937A003C
:1052C00080917A00826080937A0080917A00816078
:1052D00080937A0080917A00806880937A0010929F
:1052E000DB0810920602109205028091D7008160BF
:1052F0008093D70080EA8093D80089B5806189BD0A
:1053000089B5826089BD09B400FEFDCF61E070E01F
:1053100080E090E00E9415038091D8008F7C80612E
:105320008093D8008091E000807F8093E00080919E
:10533000E1008E7E8093E1008DE08093E200559A3B
:10534000209A27E5E22E22E0F22E00E310E0C801C9
:105350000E94A433D7018D937D010F5F1F4F0F3340
:105360001105A9F76CEB71E087E592E00E947536B4
:10537000892B29F16CEB71E087E592E00E947E3683
:1053800080EB9EE1A4E0B0E080935D0290935E022A
:10539000A0935F02B093600280EE9BEAA0E0B0E0D1
:1053A0008093610290936202A0936302B0936402BF
:1053B0008FEF8093650287E592E00E94F81A85E1FD
:1053C0000E94460284E10E94460298E0F92E10E015
:1053D00000E085E10E94BD02080F191FFA94F11048
:1053E000F8CF83E0169507958A95E1F782E0083CAF
:1053F000110538F0C8018C5D91098C37914020F47B
:1054000085E0809310010EC08EEF08351240C8F37E
:1054100084E10E94BD0221E0883E93400CF020E030
:1054200020931001809110018E3F41F4809165021C
:105430008F3F21F46EEF8BE50E94950D84B1806F54
:1054400084B93F9A569A8FEF9FEF909314028093FE
:10545000130210910F016AE070E080E090E00E947A
:1054600015031123B1F30E943B0261E070E080E07C
:1054700090E00E94150310927F0480917F0488239E
:1054800009F436C00E944803009166021091670239
:10549000209168023091690206171707280739071B
:1054A00038F560917F048AEA0E94950D0E94A81544
:1054B00081E08093810410917F04113110F00C94ED
:1054C0006E33E12FF0E0E959F54D0C943934253174
:1054D000DB30E630E930F430F730E6307C32C3318F
:1054E000F430F4300231023196314D33B731F430BB
:1054F00080917F048111DCCF0E94A90D1816190636
:105500000CF0A3C66FEF73E085EA94E00E94DB0D18
:10551000181619060CF04AC6AC01092E000C660BD1
:10552000770B4093A5085093A6086093A708709343
:10553000A808811514E0910724F4FC01E158FB4F01
:1055400016A221E0209381041092800420E830E02C
:1055500040E050E020939D0430939E0440939F04CC
:105560005093A0046FEF7FEF50E040E030E020E088
:10557000D12CC12CA8E0AA2EB12CB4E08B2E912CFA
:10558000FA01EB55FB4FE081EE2309F48CC1EA33BD
:105590000CF066C0E0330CF07AC0E03209F47DC153
:1055A0006CF4E93034F0EB300CF477C1ED3009F4F1
:1055B00074C19EEFC92EDD24DA9481C1EC3209F466
:1055C00003C2ED3209F463C0E23299F73A014F5F4A
:1055D0005F4F4817590708F0D9C0FA01EB55FB4F48
:1055E000E081EE2309F4D2C0E23209F09CC12034FC
:1055F000310508F0CBC089010F5F1F4FE3E0220F98
:10560000331FEA95E1F7F901E158FD4FEE24EA94E2
:10561000FE2CF582E482F382E282178216823097B2
:1056200009F4B4C091828082D3011196B383A2831E
:10563000558344832FEFC21AD20A6F3F760709F4CD
:10564000F8C0FB0123E0EE0FFF1F2A95E1F7E158B8
:10565000FD4F268137812F5F3F4F37832683E9C077
:10566000E636A9F06CF4EB3509F497C0ED3509F492
:10567000E2C0EA3309F09DCFB901615071090DC153
:10568000E43729F00CF06BC0EE3609F092CF6F3F93
:105690007607B1F0FB01A3E0EE0FFF1FAA95E1F73B
:1056A000E158FD4FA081B181A130B10509F46EC070
:1056B000149731F40680F781E02DEF2B09F066C0D6
:1056C0008A01FA01EB55FB4F4817590708F05EC0F5
:1056D000A191AA2309F45AC0A03251F00CF0A7C13D
:1056E000A9300CF4ADC1AB301CF0AD3009F0A8C14D
:1056F0002034310508F04AC0D9011196E3E0220FA9
:10570000331FEA95E1F7F901E158FD4FEE24EA94E1
:10571000FE2CF582E482F382E282178216823097B1
:10572000A9F1B182A082028313835583448341503F
:1057300051091FEFC11AD10A6F3F760771F0FB01C3
:1057400013E0EE0FFF1F1A95E1F7E158FD4F268198
:1057500037812F5F3F4F378326839D019EC0EB37F4
:10576000E1F0ED3709F025CF66246394712CD9015F
:105770001197F90103E0EE0FFF1F0A95E1F7E958D1
:10578000FD4FB7FF5CC0119609F087C040E070E0A4
:1057900060E080EA0E949C0858C5AFEFCA1ADA0A96
:1057A0002034310598F789010F5F1F4F3901B3E0AD
:1057B000660C771CBA95E1F7D301A158BD4F3D01A6
:1057C000EE24EA94FE2C1596FC92EE921497139612
:1057D000FC92EE92129717961C921E921697AB2B84
:1057E000A9F26F3F7607C9F0A3E0660F771FAA956D
:1057F000E1F761587D4FDB01ED90FC90EA94EF28D2
:1058000029F2DB011696ED90FC90BFEFEB1AFB0A34
:10581000DB011796FC92EE92169761E070E0EB3791
:1058200011F062E070E0F30171836083538342837F
:10583000B901980132C0E2E06E2E712C98CFE2805F
:10584000F380EF20E09409F46BC0E480F580EF2052
:10585000E09409F065C0608171816615770509F0F3
:1058600095CFBA016F5F7F4F75836483FD0113E0AD
:10587000EE0FFF1F1A95E1F7E158FD4FBD01A28120
:10588000B381119621F0A481B581119631F0615058
:10589000710938976F3F760791F74F5F5F4F481751
:1058A000590708F46DCEC901019743E0220F331F59
:1058B0004A95E1F7F901E758FD4F97FFCAC01C145C
:1058C0001D040CF063CF8FEF80937F0410929D0432
:1058D00010929E0410929F041092A004F12C10E0EC
:1058E00000E0B80185EA94E00E94DB238F3F09F4D1
:1058F000BEC080937F040F5F1F4F80917F048F3F56
:1059000011F0F110C4C00F5F1F4F0C151D054CF3B3
:105910008F3F09F0BCC040E070E060E081EA3ACF20
:10592000119738972ECFEC3509F051CEFA01319608
:10593000E817F90708F04BCE8F010B551B4FD80124
:105940001C91163639F074F41F3221F02CF4123207
:1059500009F01CCFAF013BCE1C35E1F3123609F044
:1059600015CFF8CF1237B1F324F41E3609F00ECF5D
:10597000F1CF143779F3153709F008CFFA013296D1
:105980008A0109551B4F4A5F5F4FE817F907C0F4BA
:10599000D801FD908D01FF2099F0B0EDEB2EEF0CBA
:1059A000B9E0BE1548F4E894F5F8AFEBEA2EFE0C2A
:1059B000A5E0AF1508F4EACE3196E417F50729F70C
:1059C000AF014150510903CE6F3F760709F465CF0F
:1059D000FB0103E0EE0FFF1F0A95E1F7E158FD4FD1
:1059E0000190F081E02D3197329708F456CFD9011C
:1059F0001197F90113E0EE0FFF1F1A95E1F7E9582F
:105A0000FD4FB7FD4ACF00811181015011090230CD
:105A1000110550F4E280F380EF20E09429F0E48057
:105A2000F580EF20E09499F011973897EACFAD35E3
:105A300009F45ECEAD3709F45BCEAC3209F458CE32
:105A40004F5F5F4FA052AF3508F43ECE9FCEBD01F1
:105A500024CF208131812F3F3F4F31F0228133818C
:105A60002F3F3F4F09F492CE0197389726CF2FE76B
:105A700034E0A8016FE772E085EA94E00E94DB253C
:105A8000882309F43ACF0F5F1F4FF82E36CF8B30A3
:105A900008F077C0893028F49FEF980F963008F00F
:105AA00073C010928B0410928C0410928D0410928B
:105AB0008E0410929D0410929E0410929F041092E6
:105AC000A0048FEF8093C2088093C3088093A90835
:105AD0001092BD081092BE081092BF081092C00824
