:100000000C949F010C94C7010C94C7010C94C70178
:100010000C94C7010C94C7010C94C7010C94C70140
:100020000C94C7010C94C7010C94C7010C94C70130
:100030000C94C7010C94C7010C94C7010C94C70120
:100040000C94E2200C94C7010C9452210C942C21A6
:100050000C94C7010C94C7010C94C7010C94C70100
:100060000C94C7010C94C7010C94C7010C94C701F0
:100070000C94C7010C94C7010C94C7010C94C701E0
:100080000C94C7010C94C7010C94C7010C94C701D0
:100090000C94C7010C94C7010C94C7010C94C701C0
:1000A0000C94C7010C94C7010C94C7010C94C701B0
:1000B0000C94C701706167652D73697A650072657C
:1000C00061642D7374726F62652D75730072656162
:1000D000642D736574746C696E672D64656C6179E9
:1000E00000616C676F726974686D007670705F6D27
:1000F000760070756C73652D64656C61790070694C
:100100006E2D636F756E7400636869702D6964008D
:1001100061646472657373006D656D6F72792D73C0
:10012000697A6500AA55AA55444F4E450000070E4E
:10013000091C1B1215383F363124232A2D70777E77
:10014000796C6B6265484F464154535A5DE0E7EE67
:10015000E9FCFBF2F5D8DFD6D1C4C3CACD90979E97
:10016000998C8B8285A8AFA6A1B4B3BABDC7C0C90C
:10017000CEDBDCD5D2FFF8F1F6E3E4EDEAB7B0B9B7
:10018000BEABACA5A28F88818693949D9A27202927
:100190002E3B3C35321F18111603040D0A575059D7
:1001A0005E4B4C45426F68616673747D7A898E87B9
:1001B0008095929B9CB1B6BFB8ADAAA3A4F9FEF7F7
:1001C000F0E5E2EBECC1C6CFC8DDDAD3D4696E67E7
:1001D0006075727B7C51565F584D4A4344191E1717
:1001E0001005020B0C21262F283D3A33344E49408E
:1001F0004752555C5B7671787F6A6D64633E393037
:100200003722252C2B0601080F1A1D1413AEA9A0A6
:10021000A7B2B5BCBB9691989F8A8D8483DED9D056
:10022000D7C2C5CCCBE6E1E8EFFAFDF4F3F8240140
:10023000000000000019000100F824010000000087
:100240000019000100F824010050C30000FF000065
:100250000107080B72320072310072657600727706
:100260002D70696E007670702D70696E0073746108
:100270007469632D686967680062757300627573DD
:100280002D636F6E66696700180100000504100198
:1002900000000904E70200001B82080100001D02A3
:1002A000FE0000000401F20000000F04EB0000005B
:1002B0000D02E10000000301CD00E8031304BE00BD
:1002C000E8031704B40000001F0273746174650032
:1002D000636D64004F4B3A2046573A2000737461B7
:1002E000746500636D6400666C61677300000000F4
:1002F00000250028002B002E00000000002400270D
:10030000002A002D00040404040404040402020270
:1003100002020203030303030302020305050505AA
:10032000010204081020408001020408102001028C
:10033000040810204080400102040800782B11249A
:100340001FBECFEFD8E0DEBFCDBF26E0A4EEB1E008
:1003500001C01D92A03AB207E1F711E0A0E0B1E0C0
:10036000E4EFF8E502C005900D92A43EB107D9F77D
:1003700011E0CFE9D1E004C02197FE010E94512C89
:10038000CE39D107C9F70E9484210C94782C0C94A3
:100390000000CF93DF9390E0FC01E05EFC4F2491DE
:1003A0008B5F9C4FFC0184918823C1F090E0880F03
:1003B000991FFC01E750FD4FC591D491FC01E35119
:1003C000FD4FA591B4919FB7F8948881E22FE095F5
:1003D0008E2388838C91E823EC939FBFDF91CF918C
:1003E00008952091060190E4299F900111248E50D8
:1003F000822B80937C0080917A00806480937A00C5
:1004000080917A0086FDFCCF8091780090917900F0
:1004100008958230910538F0880F991F880F991F31
:1004200005970197F1F708953FB7F8948091C802B6
:100430009091C902A091CA02B091CB0226B5A89BA7
:1004400005C02F3F19F00196A11DB11D3FBFBA2F66
:10045000A92F982F8827BC01CD01620F711D811D26
:10046000911D42E0660F771F881F991F4A95D1F7AB
:1004700008958F929F92AF92BF92CF92DF92EF92A8
:10048000FF926B017C010E9414024B015C01C114BC
:10049000D104E104F104B9F00E9414026819790949
:1004A0008A099B09683E73408105910580F321E02C
:1004B000C21AD108E108F10888EE880E83E0981E80
:1004C000A11CB11CE4CFFF90EF90DF90CF90BF90C4
:1004D000AF909F908F9008952FB7F8946091C402C9
:1004E0007091C5028091C6029091C7022FBF0895F6
:1004F000AF92BF92CF92DF92EF92FF920F931F9332
:10050000CF93DF936C017B018B01040F151FEB016F
:100510005E01AE18BF08C017D10759F06991D60126
:10052000ED91FC910190F081E02DC6010995892B98
:1005300079F7C501DF91CF911F910F91FF90EF9057
:10054000DF90CF90BF90AF900895FC01538D448D04
:10055000252F30E0842F90E0821B930B541710F06E
:10056000CF96089501970895FC01918D828D98177B
:1005700061F0A28DAE0FBF2FB11D5D968C91928D53
:100580009F5F9F73928F90E008958FEF9FEF089584
:10059000FC01918D828D981731F0828DE80FF11D4D
:1005A000858D90E008958FEF9FEF0895FC01918D68
:1005B000228D892F90E0805C9F4F821B91098F7361
:1005C0009927089583E192E00E94D60221E0892BC9
:1005D00009F420E0822F0895FC01A48DA80FB92F03
:1005E000B11DA35ABF4F2C91848D90E001968F735B
:1005F0009927848FA689B7892C93A089B1898C917A
:10060000837080648C93938D848D981306C00288C8
:10061000F389E02D80818F7D80830895EF92FF9292
:100620000F931F93CF93DF93EC0181E0888F9B8D15
:100630008C8D98131AC0E889F989808185FF15C0CF
:100640009FB7F894EE89FF896083E889F9898081F2
:100650008370806480839FBF81E090E0DF91CF91C1
:100660001F910F91FF90EF900895F62E0B8D10E0E3
:100670000F5F1F4F0F731127E02E8C8D8E110CC052
:100680000FB607FCFACFE889F989808185FFF5CF9D
:10069000CE010E94EC02F1CFEB8DEC0FFD2FF11D8E
:1006A000E35AFF4FF0829FB7F8940B8FEA89FB89DA
:1006B00080818062CFCFCF93DF93EC01888D882338
:1006C000B9F0AA89BB89E889F9898C9185FD03C0B5
:1006D000808186FD0DC00FB607FCF7CF8C9185FF9A
:1006E000F2CF808185FFEDCFCE010E94EC02E9CFF1
:1006F000DF91CF91089580E090E0892B29F00E944E
:10070000E20281110E94000080E090E0892B49F014
:1007100080E090E0892B29F00E94000081110C9468
:10072000000008958F929F92AF92BF92CF92DF9276
:10073000EF92FF920F931F93CF93DF93EC018C0105
:100740000F5D1F4F812C912C54016C018FEDC81A45
:100750008DEFD80A7E01A6EBEA1AADEFFA0AF60190
:1007600080819181A281B38188169906AA06BB0671
:10077000B0F4D8012D918D0149855A856B857C8512
:10078000480D591D6A1D7B1DD701ED91FC91CE01CD
:100790000995BFEF8B1A9B0AAB0ABB0AE0CFDF912A
:1007A000CF911F910F91FF90EF90DF90CF90BF906E
:1007B000AF909F908F9008958F929F92AF92BF922B
:1007C000CF92DF92EF92FF920F931F93CF93DF931D
:1007D000EC018D819E81AF81B88549855A856B85F5
:1007E0007C85841B950BA60BB70B813022E092070A
:1007F000A105B10520F080E092E0A0E0B0E08C011E
:100800007E0181E2E80EF11C812C912C54016E01D5
:10081000A4EBCA1AADEFDA0A80169106B4F4498542
:100820005A856B857C85480D591D6A1D7B1DD60137
:10083000ED91FC91CE010995F70181937F01FFEFC6
:100840008F1A9F0AAF0ABF0AE7CFCF5DDD4F012E97
:10085000000C220B330B088319832A833B83DF911F
:10086000CF911F910F91FF90EF90DF90CF90BF90AD
:10087000AF909F908F900895CF93DF93EB01611518
:1008800020E472078105910558F028EE33E040E03E
:1008900050E00E94102CEB01CA01B9010E943902FC
:1008A000209729F0CE01DF91CF910C940902DF91BE
:1008B000CF910895809101019091020168237923DD
:1008C00081E0672B09F480E00895CF93DF93EC017A
:1008D000FC01E65BFD4F0190F081E02D2FEF40E041
:1008E00050E0BA010995FE01E05BFD4F0190F081F7
:1008F000E02D40E068E870E0CE01DF91CF910994EF
:10090000FC012481203241F4E15CFD4F81E09081C3
:10091000953151F080E008C02C3139F4E15CFD4F95
:1009200081E090819F30B1F70895283199F7E15C1B
:10093000FD4F81E090819B3069F7F6CFFF920F93D6
:100940001F93CF93DF938C01EB01F42E62FF07C05E
:10095000C8010E948004882311F0CB7FC860E09119
:100960000D02F0910E024F2DBE01C801DF91CF9113
:100970001F910F91FF9009942F923F924F925F9297
:100980006F927F928F929F92AF92BF92CF92DF929F
:10099000EF92FF921F93CF93DF93CDB7DEB7A79768
:1009A0000FB6F894DEBF0FBECDBFFC01EB5DFD4F6F
:1009B0003FE1DE01119601900D923A95E1F7FC01BD
:1009C000E25CFD4F3081319610813196408051803C
:1009D0006280738048A259A26AA27BA23797C08026
:1009E000D180E280F380C422D522E622F722E98179
:1009F000EF3F09F43FC0FC01E35CFD4FE0812E2E88
:100A0000312CE1E0F0E0EC0FFD1FE20DF31DA4E15D
:100A10002A1631047CF5A191AF3F61F1812C912C14
:100A20005401839404C0880C991CAA1CBB1CAA9571
:100A3000D2F72A013B01022C04C0769467945794A4
:100A400047940A94D2F74CA25DA26EA27FA240FC0A
:100A50000CC080949094A094B094C820D920EA202F
:100A6000FB20AFEF2A1A3A0AD2CFC828D928EA28A1
:100A7000FB28F7CF3F3F79F0422F50E070E060E075
:100A800004C0440F551F661F771F3A95D2F7C42A3A
:100A9000D52AE62AF72A1F3F99F00E948004811187
:100AA0000FC081E090E0A0E0B0E004C0880F991F83
:100AB000AA1FBB1F1A95D2F7C82AD92AEA2AFB2AED
:100AC00068A179A18AA19BA16C297D298E299F29E2
:100AD000A7960FB6F894DEBF0FBECDBFDF91CF91C2
:100AE0001F91FF90EF90DF90CF90BF90AF909F90BD
:100AF0008F907F906F905F904F903F902F900895D0
:100B00002D9808950F931F93E1E5F2E0E4910E2FE5
:100B100010E030E020E0601771078207930729F1A9
:100B2000E2E5F2E0E4910E2F10E030E020E0601703
:100B3000710782079307E1F0E3E5F2E0E4910E2FFD
:100B400010E030E020E0601771078207930799F406
:100B500022E030E04CE0429FC001439F900D112401
:100B6000835D9D4F1F910F91089530E020E0F2CFFB
:100B700021E030E0EFCF90E080E0F4CFFC01638132
:100B800070E090E080E00E948205009741F00B96B3
:100B9000FC018491813019F480E890E0089580E8A8
:100BA00091E00895CF92DF92EF92FF920F931F93FF
:100BB000CF93DF938C017C0180EBE81A8DEFF80A6C
:100BC000D701ED91FC9141E060E870E0C801099522
:100BD00062E370E080E090E00E943902D701ED917D
:100BE000FC9141E062E070E0C801099564E670E0C4
:100BF00080E090E00E9439026801B4EBCB1ABDEFAF
:100C0000DB0AD601ED91FC9140E050E0BA01C80149
:100C10000995C82FD0E0DC2FCC27D601ED91FC91AF
:100C200041E050E060E070E0C8010995C82BD701B1
:100C3000ED91FC9140E066E871E0C8010995CE01B4
:100C4000DF91CF911F910F91FF90EF90DF90CF90A8
:100C50000895EF92FF920F931F93E22F2223C1F08A
:100C6000A82FB0E09A01AB010E94D22B9B01AC01EE
:100C7000AE2FB0E00E94D22BE616F7060807190740
:100C800010F4C801B7011F910F91FF90EF900895E4
:100C900060E070E0CB01F7CFEF92FF920F931F93CC
:100CA000CF93DF938C016AE070E080E090E00E94D7
:100CB0003902780184EBE81A8DEFF80AD701ED913B
:100CC000FC9145E555E560E070E0C8010995C82F45
:100CD000D0E28AE090E00E940902D701ED91FC91F8
:100CE00045E555E560E070E0C8010995C827C6FFF5
:100CF00003C0D150C82F69F7DF91CF911F910F9199
:100D0000FF90EF900895CF93DF93EC0120E030E067
:100D1000A901E99180ED8E0F8A3028F0CA01B9014E
:100D2000DF91CF910895AAE0B0E00E94D22B2E2F40
:100D3000EE0F330B20533109032E000C440B550BDF
:100D4000260F371F481F591FE4CF0E946C026851BD
:100D50007C4F8F4F9F4F6093BF027093C002809370
:100D6000C1029093C202089595B1662319F0892BB0
:100D700085B9089580958923FBCF1092000183E106
:100D800092E00E945B03E3E1F2E0A289B3898C91D7
:100D900087748C93828D818F65E070E080E090E0B5
:100DA0000E943902509A0895CF93C82F823039F4A7
:100DB0008FEF8AB91BB800000000000000008FEF21
:100DC0008AB96BB985B18C2B85B981E090E00E941E
:100DD000090285B1C095C823C5B9CF910895809106
:100DE000BE028F3F11F48091050108950F931F9368
:100DF000CF938B0101771127FC01C481C03228F009
:100E00000E94EF068250843088F48EE891E02091B1
:100E100001013091020182239323802B912BCC314D
:100E200009F48061CF911F910F9108958EE890E0B1
:100E3000EECFCF93DF93EC010E94EF068230C0F03B
:100E40008630D0F48D2F81709C2F9E7D892B9E0142
:100E500036952795369527952870822B25E0CC0F5F
:100E6000DD1F2A95E1F7C0728C2BDF91CF91089599
:100E70008D2F81708C2BF9CF80E0F7CFCF93DF934C
:100E8000D82F8230B1F08830D9F08130A1F580912F
:100E90000401861781F160930401C0E08D2F0E9448
:100EA000D406CC2341F184E090E0DF91CF910C9403
:100EB0000902809103018617F1F060930301EDCFE1
:100EC000809101019091020186179707A1F0887027
:100ED0009927C1E09B01287033272817390708F0AC
:100EE000C0E07093020160930101CB010E941907D9
:100EF000682F70E0D3CFDF91CF910895EF92FF92EA
:100F00000F931F93CF93DF938C01D42FC52F7B01B9
:100F1000642F70E081E00E943E076C2F70E082E059
:100F20000E943E074D2F5C2FB701C8010E94F606B4
:100F3000BC0188E0DF91CF911F910F91FF90EF905E
:100F40000C943E078091010190910201442329F005
:100F5000682B792B88E00C943E0760957095682388
:100F60007923F8CFDF92EF92FF920F931F93CF93E5
:100F7000DF93C82FD62ED72F142FE4E2F1E064912F
:100F800083E192E00E940E03E5E2F1E0649183E1E7
:100F900092E00E940E03E6E2F1E0649183E192E0C8
:100FA0000E940E03E7E2F1E0649183E192E00E9487
:100FB0000E03E12EF12CC7010296692F83E192E026
:100FC0000E940E0362E0610F83E192E00E940E0333
:100FD0006C2F83E192E00E940E03EC2FF0E0E35DC2
:100FE000FE4FC4910D2D1D2FE00EF11E0E151F0595
:100FF00079F0F801D1918F016D2F83E192E00E9489
:101000000E03EC2FED27F0E0E35DFE4FC491EECF31
:101010006C2F83E192E00E940E036AE083E192E08C
:101020000E940E0383E192E0DF91CF911F910F9117
:10103000FF90EF90DF900C945B0390910001911171
:101040000C94B20790910C02943018F5493008F0D6
:1010500048E02AE0299FF0011124EC51FE4F8083E3
:101060004183562F929F90011124FB0161E070E0B3
:101070006F5F7F4F8E2F851B841740F48191DB01BA
:10108000A20FB31FAC51BE4F8C93F2CF9F5F9093D2
:101090000C0208954F925F926F927F92AF92BF922F
:1010A000CF92DF92EF92FF920F931F93CF93DF9334
:1010B000CDB7DEB728970FB6F894DEBF0FBECDBF11
:1010C000FC018181418552856385748586FD5BC005
:1010D0008064818340930F02509310026093110249
:1010E0007093120211861286138614868F01C184B2
:1010F000D284E384F4842601370188E0580E611C11
:10110000711C5F01A4EBAA1AADEFBA0AF801858140
:101110009681A781B085C414D504E604F70408F0CD
:101120006DC0C816D906EA06FB0608F067C0D501EF
:10113000ED91FC91B701A601C80109958F3F09F413
:1011400057C0270166247724498277276F2D5E2DAB
:101150004D2D4A83CB828C83F8019081943009F025
:101160003FC041A242A3C3A284A384E090E0A0E0D8
:10117000B0E0EF5DFD4F80839183A283B383D801FC
:1011800012961C9218C00581168127813085401760
:1011900051076207730708F4A9CF8F7B8183809181
:1011A0000F0290911002A0911102B091120281875A
:1011B0009287A387B48728960FB6F894DEBF0FBE38
:1011C000CDBFDF91CF911F910F91FF90EF90DF90F6
:1011D000CF90BF90AF907F906F905F904F900895A9
:1011E00044E0BE016F5F7F4F80EB0E941D08C7CFB8
:1011F000BFEFCB1ADB0AEB0AFB0A88CFF801418567
:10120000528563857485585F6F4F7F4F84179507AC
:10121000A607B707E0F04187528763877487F80114
:101220002081243041F221853285438554855983BC
:101230004A833B832C83BD83AE839F83888748E0AA
:10124000BE016F5F7F4F80EE0E941D08B4CF818783
:101250009287A387B487E3CF4F925F926F927F927A
:10126000AF92BF92CF92DF92EF92FF920F931F93B4
:10127000CF93DF9300D000D01F92CDB7DEB78C01A3
:101280007C0181E2E80EF11C412C512C32016801F5
:10129000AFEDCA1AADEFDA0A5801B4EBAB1ABDEFE5
:1012A000BB0AF60180819181A281B381481659065B
:1012B0006A067B0670F5D80119964D915D916D9186
:1012C0007C911C97440D551D661D771DD501ED9130
:1012D000FC91C8010995F70191917F01891769F186
:1012E000D80119964D915D916D917C911C97440E9A
:1012F000551E661E771E99838A836B825C824D829F
:1013000045E0BE016F5F7F4F8FEA0E941D08F80124
:1013100012820F900F900F900F900F90DF91CF914E
:101320001F910F91FF90EF90DF90CF90BF90AF9003
:101330007F906F905F904F900895FFEF4F1A5F0A74
:101340006F0A7F0AAECFFF920F931F93CF93DF9365
:1013500000D000D0CDB7DEB7FC01858D968D861705
:101360009707A1F079836A839B838C8389EB411172
:1013700083E8F42E8F0144E0BE016F5F7F4F0E942F
:101380001D0880E0F11082E0F80182830F900F9039
:101390000F900F90DF91CF911F910F91FF900895C3
:1013A000CF92DF92EF92FF920F931F93CF93DF9331
:1013B000EC017C0186EBE81A8DEFF80AD701ED917C
:1013C000FC9120E940E050E0BA01CE0109956E01A0
:1013D000B4EBCB1ABDEFDB0AD601ED91FC9140E0F6
:1013E00050E0BA01CE010995082F10E0102F002718
:1013F000D601ED91FC9141E050E060E070E0CE015B
:101400000995082BD701ED91FC912FEF40E050E0BA
:10141000BA01CE0109954B8D4170B801CE01DF9123
:10142000CF911F910F91FF90EF90DF90CF900C9490
:10143000A309CF93DF93EC010E94D20540E0BC01E9
:10144000CE01DF91CF910C94A3098F929F92AF921E
:10145000BF92CF92DF92EF92FF920F93CF93DF93E1
:10146000CDB7DEB728970FB6F894DEBF0FBECDBF5D
:101470005C017B0182E3E80EF11CFA01F29619820D
:1014800088EE882E83E0982EC701B4010E94FC2BC1
:101490006A831B8294E6C92ED12CC701B6010E9433
:1014A000FC2BCB013AE0E32EF12CB7010E94FC2B80
:1014B0008C831D82CF01B4010E94FC2B6E831F829E
:1014C000CF01B6010E94FC2BCB01B7010E94FC2B7F
:1014D000888748E0BE016F5F7F4F822F0E941D0802
:1014E000F501028328960FB6F894DEBF0FBECDBF7C
:1014F000DF91CF910F91FF90EF90DF90CF90BF9051
:10150000AF909F908F900895CF92DF92EF92FF92CD
:101510000F931F93CF93DF93EC018B010E946C021A
:101520006B017C01C00ED11EE11CF11C8E01045B1D
:101530001D4F0E946C026C157D058E059F0580F580
:10154000D801ED91FC9140E050E0BA01CE0109953F
:1015500087FFEFCF84FF1DC040E070E060E084EBC8
:101560000E941D081A82FE01E65BFD4F0190F0818A
:10157000E02D2FEF40E050E0BA01CE01099580E068
:10158000DF91CF911F910F91FF90EF90DF90CF905F
:10159000089583FF0AC040E070E060E085EBE0CF93
:1015A00040E070E060E086EBDBCF81E0E9CF3F9286
:1015B0004F925F926F927F928F929F92AF92BF9263
:1015C000CF92DF92EF92FF920F931F93CF93DF930F
:1015D000EC018C010F5D1F4FC12CD12C76014C0109
:1015E0008FED881A8DEF980A5E01A6EBAA1AADEF6F
:1015F000BA0AF40180819181A281B381C816D9060B
:10160000EA06FB0640F549845A846B847C844C0CC2
:101610005D1C6E1C7F1CD8013D908D01D501ED91A4
:10162000FC9120E4B301A201CE010995D501ED9111
:10163000FC91232DB301A201CE01099566E970E06A
:10164000CE010E94840A882331F0BFEFCB1ADB0A57
:10165000EB0AFB0ACECFDF91CF911F910F91FF9044
:10166000EF90DF90CF90BF90AF909F908F907F9042
:101670006F905F904F903F9008950F931F93CF937B
:10168000DF93EC01FC01E05BFD4F0190F081E02D68
:1016900041E068E870E0099564EF71E080E090E077
:1016A0000E9439028E01065B1D4FD801ED91FC911D
:1016B00020E240E050E0BA01CE010995D801ED9159
:1016C000FC9120ED40E050E0BA01CE01099568E9B7
:1016D0007AE3CE01DF91CF911F910F910C94840A90
:1016E000BF92CF92DF92EF92FF920F931F93CF930F
:1016F000DF9300D000D0CDB7DEB77C01D42EC52E4D
:10170000B62E122FFC01E05BFD4F0190F081E02D21
:1017100040E066E871E00995B982CA82DB821C83E9
:1017200044E0BE016F5F7F4F802F0E941D08F701CC
:1017300012820F900F900F900F90DF91CF911F9119
:101740000F91FF90EF90DF90CF90BF900895CF93CF
:10175000DF93EC018B8D87FF06C040E070E060E016
:1017600081E40E941D089981892F8F738F5F907C7F
:10177000892B898340E070E060E080E2DF91CF91C7
:101780000C941D08CF93DF9300D000D0CDB7DEB707
:1017900079836A835B834C8344E0BE016F5F7F4F34
:1017A0000E941D080F900F900F900F90DF91CF9126
:1017B00008952F923F924F925F926F927F928F92F5
:1017C0009F92AF92BF92CF92DF92EF92FF920F93D0
:1017D0001F93CF93DF93CDB7DEB76E970FB6F89414
:1017E000DEBF0FBECDBF1C01DC015F968D919C91C9
:1017F0009C01215031092115B2E03B0790F42823C8
:101800003923232B09F0EBC0B0E0A0E09C01AD012F
:1018100021503109410951092B873C874D875E874B
:1018200008C08FE390E0A0E0B0E08B879C87AD8795
:10183000BE870E941402698B7A8B8B8B9C8BA101D3
:101840004F5D5F4F5A8F498F1F82188619861A86FF
:10185000412C512C3201812C912C5401C1018F5DFE
:101860009D4F9C8F8B8FD101A65BBD4FBE8FAD8FDF
:10187000F101E45BFD4FF88BEF87EB8DFC8D8081F0
:101880009181A281B381481659066A067B0608F049
:1018900086C0D1011996CD90DD90ED90FC901C97FB
:1018A000C40CD51CE61CF71CE98DFA8D2191FA8F2A
:1018B000E98F2E83AD8DBE8DED91FC91B701A60110
:1018C000C10109950E9414026D8B7E8B8F8B988FBE
:1018D000DC01CB0129893A894B895C89821B930BF6
:1018E000A40BB50B2F81388549855A8528173907F0
:1018F0004A075B0720F48F839887A987BA87D701A7
:10190000C6010196A11DB11D2B853C854D855E85C7
:1019100082239323A423B523892B8A2B8B2B79F045
:10192000EB8DFC8D80819181A281B3810197A1090A
:10193000B10984159505A605B70509F08AC000ED23
:1019400017E08AE090E00E940902AF85B889ED9126
:10195000FC91B701A601C10109959E81982797FDC9
:101960000CC0AF85B889ED91FC91B701A601C1010A
:1019700009959E81982797FF3CC00150110909F7EE
:10198000E982DA82CB82BE81BC838D8345E0BE01D1
:101990006F5F7F4F82EB0E941D08F10112824F8121
:1019A000588569857A8582E60E94C20B6E960FB6CD
:1019B000F894DEBF0FBECDBFDF91CF911F910F9185
:1019C000FF90EF90DF90CF90BF90AF909F908F905F
:1019D0007F906F905F904F903F902F9008952FE3EE
:1019E00030E040E050E018CFFFEF8F1A9F0AAF0AB7
:1019F000BF0A481459046A047B0420F1F101E80D80
:101A0000F91D11A1D1011996CD90DD90ED90FC90BA
:101A10001C97C80CD91CEA1CFB1CAF85B889ED913A
:101A2000FC91B701A601C10109951817E9F21983C4
:101A30008A83EB82DC82CD8245E0BE016F5F7F4FFF
:101A40008FEAA9CF530142012FEF821A920AA20A0C
:101A5000B20A3FEF431A530A630A730A8D899E89BB
:101A6000AF89B88D898B9A8BAB8BBC8B06CF4F928D
:101A70005F926F927F928F929F92AF92BF92CF921E
:101A8000DF92EF92FF920F93CF93DF936C017B0174
:101A90004A01822F40E070E060E00E941D080E9431
:101AA00014022B013C018FEF8AB9E701F12CE12CE4
:101AB000560186EBA81A8DEFB80A488159816A81D0
:101AC0007B81D501ED91FC912C81C6010995BFEF79
:101AD000EB1AFB0A25968E149F0479F70E941402D4
:101AE0006B017C01C418D508E608F708B701A60108
:101AF000802F0E94C20B9401A4E6B0E00E94DD2B6F
:101B00006C157D058E059F05A0F4B701A60187E839
:101B1000DF91CF910F91FF90EF90DF90CF90BF902A
:101B2000AF909F908F907F906F905F904F900C94AC
:101B3000C20BDF91CF910F91FF90EF90DF90CF908C
:101B4000BF90AF909F908F907F906F905F904F90DD
:101B500008950F93CF93DF93EC010FE52EE546E058
:101B600050E066E171E00E94370DCE01DF91CF9128
:101B70000F910C944C060F931F93CF93DF93EC01BE
:101B80000E94A90D8FEF8AB98E01065B1D4FD80107
:101B9000ED91FC912AEA45E555E560E070E0CE0163
:101BA0000995D801ED91FC9125E54AEA5AE260E0F9
:101BB00070E0CE010995D801ED91FC9120E845E552
:101BC00055E560E070E0CE010995D801ED91FC91FA
:101BD0002AEA45E555E560E070E0CE010995D801B7
:101BE000ED91FC9125E54AEA5AE260E070E0CE0111
:101BF0000995D801ED91FC9120E145E555E560E0BE
:101C000070E0CE01099564E170E080E090E0DF9142
:101C1000CF911F910F910C9439020F9301E620E6AA
:101C200043E050E067E071E00E94370D6AE070E049
:101C300080E090E00F910C9439028F929F92AF92C6
:101C4000BF92CF92DF92EF92FF920F931F93CF93A9
:101C5000DF93EC018D8D9E8D892BE1F48B8D9C8D16
:101C600090FD92C00FE52EE546E050E066E171E0A0
:101C7000CE010E94370DCE01DF91CF911F910F91C0
:101C8000FF90EF90DF90CF90BF90AF909F908F909C
:101C90000C944C064D815E816F81788540345105EE
:101CA00061057105E8F48B8D80FF15C084E80E9402
:101CB000C20B82E08A838A818111D0CFDF91CF91DC
:101CC0001F910F91FF90EF90DF90CF90BF90AF905A
:101CD0009F908F9008958AEB0E94C20B1A82EBCFDF
:101CE0007E0180EBE81A8DEFF80AD701ED91FC91A7
:101CF00041E060E870E0CE01099562E370E080E0C9
:101D000090E00E943902D701ED91FC9141E062E040
:101D100070E0CE01099564E670E080E090E00E94FA
:101D200039028D809E80AF80B884B501A4014054F3
:101D30005109610971096E01B4EBCB1ABDEFDB0AE1
:101D4000D601ED91FC91CE010995082F10E0102FDE
:101D50000027B501A4014F53510961097109D6014A
:101D6000ED91FC91CE010995082BD701ED91FC91E5
:101D700040E062E870E0CE0109954B8D4170B801FA
:101D8000CE010E94A30997CF40E070E060E086E8B2
:101D9000DF91CF911F910F91FF90EF90DF90CF9047
:101DA000BF90AF909F908F900C941D08CF93DF93BE
:101DB00000D0CDB7DEB779836A8342E0BE016F5FA2
:101DC0007F4F0E941D080F900F90DF91CF910895D3
:101DD000CF93DF931F92CDB7DEB7698341E0BE0199
:101DE0006F5F7F4F0E941D080F90DF91CF91089584
:101DF000AF92BF92CF92DF92EF92FF920F931F9319
:101E0000CF93DF93EC017C018CEBE81A8DEFF80A9D
:101E1000F701118210828E010A5B1D4FF8011182B9
:101E200010826E01F8EBCF1AFDEFDF0AF601118286
:101E300010828881823009F449C0863009F449C093
:101E4000813029F48CED93E0F801918380838EEE4C
:101E500095E1FE01E45BFD4F9183808389EB95E181
:101E60003297918380838EE797E0349691838083C5
:101E70005E01F0EBAF1AFDEFBF0A82EA97E0F501D1
:101E8000918380838AE594E032969183808340E059
:101E900050E0BA01CE010E947E076B816031D1F51E
:101EA00085E694E0F601918380838881833061F137
:101EB00098F48230F1F0DF91CF911F910F91FF9054
:101EC000EF90DF90CF90BF90AF90089582E993E0BC
:101ED000BBCF8CE299E0B8CF8430C9F0853059F798
:101EE000F70111821082F6011182108280ED99E0D3
:101EF00007C08DE793E1F7019183808387ED9AE036
:101F0000F80191838083D7CF8DE39BE0F9CF8AE4FA
:101F100098E0F6CF6D3011F51F86188A198A1A8A53
:101F200088818430A1F338F4823069F0833019F667
:101F30008BEB9DE0E5CF893071F08A3009F0BBCFA3
:101F40008DE09EE0DDCF8DE19EE0F70191838083FF
:101F500089ED9BE0D5CF89EA9DE0D2CF663039F597
:101F600083E298E1F701918380838881843079F25C
:101F700040F4823081F0833009F09DCF8DE298E10A
:101F8000BFCF853079F0803109F095CF1182108272
:101F900085ED96E1B5CF8DE898E19183808380EC63
:101FA00098E1AECF118210828BE298E1A9CF653023
:101FB00021F0653311F0693319F58881843009F413
:101FC000A6CF40F4823071F0833009F074CF8DE7F2
:101FD00099E196CF853071F0803109F06CCF8DEAB0
:101FE00096E18ECF81EF99E1F701918380838CEFA9
:101FF00096E186CFF7011182108281E298E180CFCD
:1020000089EF860F823018F06B3009F07DC087EBC6
:1020100094E1F701918380838881833009F449C07A
:10202000A8F58230F1F1F5018081918190930E0243
:1020300080930D028EE994E0918380838F85988947
:10204000A989BA89892B8A2B8B2BA1F484E690E08D
:10205000A0E0B0E0683051F084EF91E0A0E0B0E0A3
:102060006B3021F088EE93E0A0E0B0E08F87988B92
:10207000A98BBA8B70E090E080E00E948205009707
:1020800049F56B818BEB0E94E80E3CC08430F9F07F
:10209000853049F68CED94E19183808389E19AE063
:1020A00006C080E59AE1918380838DE99AE1F80189
:1020B0000BC08EE49AE1F801918380838B8D83FDC0
:1020C000B2CF8AE498E0F60191838083ACCF8AE4B2
:1020D00098E0EDCFFC01349685919591A591B4914E
:1020E0000097A105B10509F4E6CE4F8558896989A5
:1020F0007A8984179507A607B70708F0DCCE8EEA21
:102100000E94C20B1A82D7CE6E3009F4D4CE89ED6C
:10211000860F833008F4CFCEF70111821082F801C8
:1021200011821082F60111821082ACCFCF93DF931F
:10213000589A5098E0912302F091240282E0808323
:10214000E0911F02F09120021082E0912102F091B3
:10215000220287E0808310922B02E0912702F09107
:10216000280286E08083E0912502F091260280819A
:1021700088698083E0912502F091260280818F7D1D
:10218000808362E370E080E090E00E94390283E1A6
:1021900092E00E94D602892B29F083E192E00E940E
:1021A000B402F5CF81E080930001C0E0DAE08091D5
:1021B0000C02C81770F4DC9FB0011124FB01EC5134
:1021C000FE4F6A517E4F418180810E94B207CF5FEE
:1021D000EECF10920C02DF91CF9108956F927F9213
:1021E0008F929F92AF92BF92CF92DF92EF92FF9227
:1021F0000F931F93CF93DF93EC017B010E94BD06E9
:10220000C701FE0109950E949610F7018281813075
:1022100008F499C0833008F46DC0833009F093C08E
:10222000EF5DFD4FA080B180E701A1964E01DE0178
:10223000612CCD018C1B9D0B8A159B0540F4ED9103
:102240006E26E62DF0E0E35DFE4F6490F2CFD12CD8
:10225000C12C712C10E000E0CA14DB0450F5F4012D
:1022600081914F0161E0670DFFEFCF1ADF0A811105
:1022700013C083E192E00E940E03772049F0472DBE
:1022800050E0BE01600F711F83E192E00E9478026E
:10229000860160E0762EE0CF6E3FE1F76FEF83E1DD
:1022A00092E00E940E03BE01600F711F4EEF50E0DE
:1022B000EBCF611035C061E0670D83E192E00E94D1
:1022C0000E03772049F0472D50E0BE01600F711FCB
:1022D00083E192E00E94780261E083E192E00E9453
:1022E0000E0360E083E192E00E940E0383E192E03E
:1022F0000E945B030E94A50681E0F701828390E0C3
:1023000080E0DF91CF911F910F91FF90EF90DF90D0
:10231000CF90BF90AF909F908F907F906F900895D7
:1023200062E0670D83E192E00E940E03772049F09E
:10233000472D50E0BE01600F711F83E192E00E94C3
:102340007802662DCACF8FEF9FEFDBCF0F931F93DD
:10235000CF93DF93CDB7DEB728970FB6F894DEBFE3
:102360000FBECDBF8C01FC01EA5BFD4F80819181E6
:10237000009741F1B8010E94EE10F801208124304D
:1023800009F047C0019609F5F801EF5DFD4F808126
:102390009181A281B3810497A105B10539F4B801F7
:1023A0006F5D7F4F44E080EB0E941D0880E028961F
:1023B0000FB6F894DEBF0FBECDBFDF91CF911F9156
:1023C0000F91089581E090E0D8CFF801818186FFD8
:1023D00017C04185528563857485858196812781E3
:1023E000308579836A835B834C833D832E839F830F
:1023F000888748E0BE016F5F7F4F80EE0E941D0816
:10240000F801818186FD03C0C8010E94A70B81E00D
:10241000CECF0196A9F7CACF83E192E00C94B40223
:1024200083E192E00C94D602CF92DF92EF92FF927A
:10243000CF93C82F0E94101218161906E4F0CC236F
:10244000A1F00E946C026B017C010E941012181610
:1024500019068CF00E946C026C197D098E099F0987
:10246000683E73408105910580F3CF91FF90EF9016
:10247000DF90CF9008950E940C1297FDF6CF811146
:10248000D9CFF3CF4F925F926F927F929F92AF928C
:10249000BF92CF92DF92EF92FF920F931F93CF9351
:1024A000DF937C016B0100E0B12CA12C912C10E09A
:1024B000D0E0C0E00E94101218161906CCF00E945D
:1024C0006C022B013C010E9410121816190684F0B0
:1024D0000E946C026419750986099709683E734069
:1024E0008105910580F380E00E9414128FEF19C0DE
:1024F0000E940C1297FF02C081E0F6CF282F8111B5
:1025000005C0112309F44FC08DEF0BC0112379F1E1
:10251000BB20E9F0CC15DD05A8F081E00E94141283
:102520008EEF9FEFDF91CF911F910F91FF90EF9072
:10253000DF90CF90BF90AF909F907F906F905F9013
:102540004F900895F701EC0FFD1F008321968FEF48
:10255000810FBB24B394811107C0B92C911004C022
:10256000BB24B394AA24A394022F182FA3CFAA208C
:10257000B1F0BB20B1F0CC15DD0578F6F701EC0F1A
:10258000FD1F00832196992493942F3F09F0912CED
:102590008150AA24A3948111A12C212FE5CF102FC3
:1025A000F2CFBA2CF0CFBB2009F4A0CFD701C701DE
:1025B0008C0F9D1F8A179B0741F0ED911E27E12F7D
:1025C000F0E0E35DFE4F1491F5CFCE01011709F461
:1025D000A9CF8CEFA6CF8EE480937C0062E070E000
:1025E00080E090E00E94390280917A0080648093BC
:1025F0007A0080917A0086FDFCCF2091780060916E
:10260000790070E0762F6627072E000C880B990B57
:10261000622B08954F925F926F927F928F929F925A
:10262000AF92BF92CF92DF92EF92FF92CF93DF9360
:10263000C090B602D090B702E090B802F090B90214
:102640008090BA029090BB02A090BC02B090BD02F4
:1026500081E08093060180E10E94F101EC010E947B
:10266000EB122B013C01411451046104710409F483
:1026700041C081149104A104B104E1F1A7019601C4
:10268000280D391D4A1D5B1D213682E838078BE372
:102690004807510578F5ACE4B4E00E94D22BA501BF
:1026A00094010E94102C2115310580E44807510542
:1026B00008F5DE010E94572C73016201F694E7943D
:1026C000D794C7946C0D7D1D8E1D9F1DA301920193
:1026D0000E94102CC901DF91CF91FF90EF90DF9005
:1026E000CF90BF90AF909F908F907F906F905F90B2
:1026F0004F90089590E080E0EECF4F925F926F92FE
:102700007F92AF92BF92CF92DF92EF92FF920F93A0
:10271000CF93DF93EC016C0180EBC81A8DEFD80AE0
:10272000D601ED91FC9141E068E870E0CE01099599
:1027300064EF71E080E090E00E9439020E94EF06B1
:10274000811120C040E070E060E080E80E941D0838
:1027500082E08A838A8181114AC0D601ED91FC9181
:1027600040E068E870E0CE01DF91CF910F91FF90DB
:10277000EF90DF90CF90BF90AF907F906F905F9081
:102780004F9009940E940A135C012C01712C612C5A
:10279000ED84FE84C701B0E0A0E08C509E4FAF4FA7
:1027A000BF4F84159505A605B70568F48B8D02E02B
:1027B00022E880FD02C000E028EBA701B501CE01B0
:1027C0000E94250AC7CF9701AFE5B0E00E94DD2B3C
:1027D00024E630E040E050E00E94102C4216530600
:1027E0006406750608F0B6CF02E021E8E6CF8D8DCD
:1027F0009E8D892B39F0CE010E94D0098A818823D1
:1028000009F4ABCF8B8D81FF05C082FD03C0CE01E3
:102810000E943D0B8B8D83FD10C0CE01DF91CF91C7
:102820000F91FF90EF90DF90CF90BF90AF907F908F
:102830006F905F904F900C944A08DF91CF910F9169
:10284000FF90EF90DF90CF90BF90AF907F906F9010
:102850005F904F9008954F925F926F927F92AF92E8
:10286000BF92CF92DF92EF92FF920F93CF93DF93BD
:10287000EC010E94EF06811116C040E070E060E0BC
:1028800080E80E941D0882E08A83DF91CF910F913A
:10289000FF90EF90DF90CF90BF90AF907F906F90C0
:1028A0005F904F9008955E0180EBA81A8DEFB80AF3
:1028B000D501ED90FC908B8D84FD43C0CE010E942C
:1028C000BE0541E0BC01CE01F701099564E670E068
:1028D00080E090E00E9439020E940A136C012C01F2
:1028E000712C612CED84FE84C701B0E0A0E08C5017
:1028F0009E4FAF4FBF4F84159505A605B70520F530
:102900008B8D00E028EB80FF02C002E022E8A701E7
:10291000B601CE010E94250AD501ED91FC9140E05F
:1029200066E871E0CE01DF91CF910F91FF90EF90BB
:10293000DF90CF90BF90AF907F906F905F904F905F
:10294000099480E890E0BDCF9701AFE5B0E00E9428
:10295000DD2B24E630E040E050E00E94102C4216CF
:10296000530664067506C0F602E021E8D0CF1F9337
:10297000CF93DF93EC010E942B148A818823C1F04E
:102980008D8D9E8D892BA1F08B8D9C8D880F991F2D
:10299000182F1270CE010E94D20541E0111101C022
:1029A00040E0BC01CE01DF91CF911F910C94A309AF
:1029B000DF91CF911F9108950C942B14BF92CF9269
:1029C000DF92EF92FF920F931F93CF93DF93CDB7D8
:1029D000DEB7C854D1090FB6F894DEBF0FBECDBF25
:1029E0007B01B42EFC0101900020E9F731971E2FE6
:1029F000181B1F3008F01EE01983C12ED12CA60130
:102A0000BC01CE0102960E945F2CE2E0F0E0EC0FE8
:102A1000FD1FEC0DFD1DE0828091670487FF08C05B
:102A200042E0410FBE016F5F7F4F82E50E941D08AB
:102A300029E06EEB71E0B21202C060EA71E0FB01C6
:102A400001900020E9F731978F01061B170B0983CE
:102A5000A8015527CE0102960E945F2C8091670441
:102A600087FF08C041E0400FBE016F5F7F4F83E5E5
:102A70000E941D0889E0DE011196B8120AC08CE799
:102A8000898380E28A8380E3F0FC81E38B83DE012B
:102A90001496FD0187E090E03CE740E230834183FB
:102AA000B701082E02C0769567950A94E2F720E3F5
:102AB00060FD21E32283019733968F3F980771F7DA
:102AC0008CE758968C93589759961C92BE016F5F6D
:102AD0007F4FFB0101900020E9F731971E2F161B55
:102AE000103208F01FE119A7412F50E0CE018A965D
:102AF0000E945F2C8091670487FF08C041E0410F6E
:102B0000BE01675D7F4F84E50E941D08C85BDF4FF3
:102B10000FB6F894DEBF0FBECDBFDF91CF911F91EE
:102B20000F91FF90EF90DF90CF90BF900895FF92AC
:102B30000F931F93CF93DF938C01C0E3D0E0F80194
:102B4000F1908F01CE010E94BC2BF81621F06F2D61
:102B5000CE010E94C42B2196CF33D10581F7DF919E
:102B6000CF911F910F91FF9008952A9A08952D9A61
:102B70000895CF92DF92EF92FF921F93CF93DF934E
:102B8000EC016A017B01122F0E94B51520E0B7010C
:102B9000A601CE010E94BC04AB01BC01FE01E25BB8
:102BA000FD4F0190F081E02DCE0109958FEF8AB99C
:102BB0001BB983E090E00E9409020E9480056F85A6
:102BC000788989899A890E943C04DF91CF911F916D
:102BD000FF90EF90DF90CF900C94B715CF93DF93D9
:102BE000EC012A9821E00E94BC04AB01BC01FE016B
:102BF000E25BFD4F0190F081E02DCE0109951BB8FD
:102C00001AB88B899C89AD89BE890097A105B10549
:102C100061F0893E23E09207A105B10520F088EE1E
:102C200093E0A0E0B0E00E9409020E9480058F8935
:102C3000988DA98DBA8D0097A105B10599F0893EAF
:102C400023E09207A105B10520F088EE93E0A0E013
:102C5000B0E00E940902C9B10E94B7158C2FDF9124
:102C6000CF91089583E090E0A0E0B0E0F2CF7F92B2
:102C70008F929F92AF92BF92CF92DF92EF92FF928C
:102C80000F931F93CF93DF938C017B015A016C014B
:102C900080EBC81A8DEFD80AD601ED91FC9140E087
:102CA00060E470E0C8010995E701F12CE12C88246B
:102CB0008A947C80688199808AB870E081E00E9463
:102CC0003E07692D70E082E00E943E078AB87BB81B
:102CD0000E94B5150E9480050E94B715BFEFEB1A40
:102CE000FB0A2596AE14BF0421F7D601ED91FC91A5
:102CF00040E060E470E0C801DF91CF911F910F9137
:102D0000FF90EF90DF90CF90BF90AF909F908F900B
:102D10007F9009941F93CF93DF93EC0143E050E041
:102D200061E971E00E943716FE01E45BFD4F0190FE
:102D3000F081E02D42E050E060E070E0CE010995C6
:102D4000182F43E050E062E871E0CE010E94371690
:102D5000812FDF91CF911F9108950F931F93CF93F0
:102D6000DF9300D0CDB7DEB78C010E948A1689832D
:102D70008F3F91F41A8281E0F801828342E0BE0124
:102D80006F5F7F4F81EE0E941D080F900F90DF91C3
:102D9000CF911F910F9108958E3F19F481E08A839E
:102DA000EBCF8FEF8A8382E0E7CF0F931F93CF9310
:102DB000DF9300D0CDB7DEB78C010E948A168983DD
:102DC000811112C01A8281E0F801828342E0BE01C3
:102DD0006F5F7F4F81EE0E941D080F900F90DF9173
:102DE000CF911F910F910895813011F48A83ECCF18
:102DF0008FEF8A8382E0E8CF2F923F924F925F92CB
:102E00006F927F928F929F92AF92BF92CF92DF92FA
:102E1000EF92FF920F931F93CF93DF93CDB7DEB75F
:102E20002E970FB6F894DEBF0FBECDBF8C01FC010C
:102E300085819681A781B08520E4822E912CA12CDA
:102E4000B12C81309105F1E0AF07B10568F030E8B1
:102E5000832E912CA12CB12C0197A440B10520F018
:102E6000812C912C54019394C801819698878F836B
:102E7000412C512C3201D801AF5DBD4FBA87A987D3
:102E8000F801E65BFD4FFC87EB87855D9D4F9E87D4
:102E90008D87E985FA8580819181A281B381481669
:102EA00059066A067B0608F072C0D8011996CD90C3
:102EB000DD90ED90FC901C97C40CD51CE61CF71C13
:102EC000EF81F8852191F887EF832E83C701B60142
:102ED000A50194010E94102C672B682B692B29F007
:102EE000411451046104710439F443E050E064E397
:102EF00071E0C8010E943716AB85BC85ED91FC914D
:102F00002E81B701A601C8010995C701B6016F5FFF
:102F10007F4F8F4F9F4FA50194010E94102C672B6C
:102F2000682B692B79F0E985FA8580819181A281EE
:102F3000B3810197A109B10984159505A605B705C7
:102F400009F03EC0212C84E0382E8AE090E00E94F7
:102F50000902AD85BE85ED91FC91B701A601C801BE
:102F60000995BE81B81761F1E1E02E1A310869F7C1
:102F7000B983EA82DB82CC828D8345E0BE016F5F3C
:102F80007F4F83EB0E941D08D80112961C922E964B
:102F90000FB6F894DEBF0FBECDBFDF91CF911F916A
:102FA0000F91FF90EF90DF90CF90BF90AF909F90E8
:102FB0008F907F906F905F904F903F902F900895EB
:102FC000BFEF4B1A5B0A6B0A7B0A63CFEF92FF924B
:102FD0000F931F93CF93DF93EC0143E050E061E93F
:102FE00071E00E9437167E0184EBE81A8DEFF80A33
:102FF000D701ED91FC9140E050E0BA01CE01099576
:10300000082F10E0102F0027D701ED91FC9141E02F
:1030100050E060E070E0CE010995082B43E050E0FD
:1030200062E871E0CE010E9437164B8D4170B80105
:10303000CE01DF91CF911F910F91FF90EF900C94F3
:10304000A3090C94E617FC01258D368D232B11F076
:103050000C94E61708950C94E617CF92DF92EF9246
:10306000FF920F931F93CF93DF93CDB7DEB76E9789
:103070000FB6F894DEBF0FBECDBFFC0101851285EF
:103080002385348546E050E062E571E001151105C5
:103090002105310589F145E555E560E070E049839A
:1030A0005A836B837C83FAEAFD83EAEACE2EEAE256
:1030B000DE2EE12CF12CCE82DF82E886F986E5E572
:1030C000EA874B875C876D877E87A0E8AF87488B50
:1030D000598B6A8B7B8BFC8BCD8ADE8AEF8AF88ECC
:1030E000E98F40E34E8F0A8F1B8F2C8F3D8F46E078
:1030F00050E0BE016F5F7F4F0E9437166E960FB68D
:10310000F894DEBF0FBECDBFDF91CF911F910F911D
:10311000FF90EF90DF90CF900895CF93DF93EC0175
:10312000898186FD07C08D8D9E8D892B59F48B8DED
:1031300081FD11C08B8D83FD0BC0CE01DF91CF913E
:103140000C944A08CE010E94E6178A818111EFCFC4
:10315000DF91CF91089582FD0AC0CE010E942D1803
:1031600069E670E080E090E00E943902E3CF87FFDB
:10317000E1CF40E070E060E089E50E941D08DACF11
:103180002F923F924F925F926F927F928F929F9277
:10319000AF92BF92CF92DF92EF92FF920F931F9365
:1031A000CF93DF9300D000D0CDB7DEB79C838B8365
:1031B0008C01412C512C32018F5D9D4F9A83898364
:1031C000480126EB821A2DEF920A580180EBA81ACB
:1031D0008DEFB80AE981FA8180819181A281B38162
:1031E000481659066A067B0608F070C043E050E0B6
:1031F00063E471E08B819C810E943716AB81BC81B6
:1032000019964D915D916D917C911C97440D551DC2
:10321000661D771DD401ED91FC91D80191962C91FA
:103220008B819C810995F80121A0D501ED91FC913C
:1032300041E060E470E08B819C8109950E946C0202
:103240006B017C01B6E9CB0ED11CE11CF11C0E9484
:103250006C026C157D058E059F0568F51BB81AB8C4
:103260000E9480052A9839B00E94B7150E94B515B2
:10327000322437FCECCF1BB81AB80E9480052A987C
:1032800039B00E94B7150E94B515322437FCDFCF44
:10329000EFEFEAB90E94B7150E94B5150F5F1F4FF7
:1032A000EB81FC818281882389F0FFEF4F1A5F0A4E
:1032B0006F0A7F0A8FCF40E070E060E087EB0E94EA
:1032C0001D08AB81BC8112961C92E8CF0F900F9025
:1032D0000F900F90DF91CF911F910F91FF90EF9082
:1032E000DF90CF90BF90AF909F908F907F906F9026
:1032F0005F904F903F902F900895EF92FF920F9321
:103300001F93CF93DF93EC0121E040E050E0BA013E
:103310000E94BC04AB01BC017E0182EBE81A8DEF78
:10332000F80AD701ED91FC91CE0109950E94B715DD
:103330008E01005B1D4FD801ED91FC9140E064E8E7
:1033400071E0CE01099562E070E080E090E00E94BB
:1033500039020E948005D801ED91FC9141E064E8BA
:1033600071E0CE01099562E070E080E090E00E949B
:10337000390220E040E050E0BA01CE010E94BC04D6
:10338000AB01BC01D701ED91FC91CE01099564E13F
:1033900070E080E090E00E94390221E040E050E0DF
:1033A000BA01CE010E94BC04AB01BC01D701ED9172
:1033B000FC91CE01099562E070E080E090E00E940F
:1033C00039020E94B715D801ED91FC9140E064E804
:1033D00071E0CE01DF91CF911F910F91FF90EF909F
:1033E0000994FC01218126FD11C02281222371F064
:1033F000238D21FF0BC022FF0C947D1927FF06C0EF
:1034000040E070E060E088E50C941D0808950F939B
:103410001F93CF93DF93EC010E94B5158E01005BE3
:103420001D4FD801ED91FC9141E060E870E0CE01C4
:10343000099564E670E080E090E00E943902FE01A8
:10344000E25BFD4F0190F081E02D40E050E0BA01D9
:10345000CE010995D801ED91FC9141E066E070E064
:10346000CE01099564E670E080E090E00E943902A8
:103470000E94800560EA76E881E090E00E943C04CA
:103480000E94B715D801ED91FC9140E066E871E02B
:10349000CE01DF91CF911F910F9109940C94071ADF
:1034A000CF93DF93EC01898186FD0EC0CE010E948F
:1034B000B7148A81882389F08B8D81FF05C082FD36
:1034C00019C0CE010E94071A8B8D83FD03C0CE0167
:1034D0000E944A088A81811116C0FE01E05BFD4FFF
:1034E0000190F081E02D40E066E871E0CE01DF91CF
:1034F000CF91099487FFE8CF40E070E060E088E575
:103500000E941D08E1CFDF91CF9108950E94BD0672
:103510000E94B71570E060E088E00E943E0770E00E
:1035200060E081E00E943E0770E060E082E00E947F
:103530003E0710924C040C9496102F923F924F929B
:103540005F926F927F928F929F92AF92BF92CF9233
:10355000DF92EF92FF920F931F93CF93DF93CDB73C
:10356000DEB7C756D1090FB6F894DEBF0FBECDBF88
:103570006C01FC01EE5AFD4F0190F081E02D60E8F6
:1035800070E00995811118C0F601E05BFD4F0081E4
:103590001181D6015B968C9184FD5DC1C6010E94AC
:1035A000BE0541E0BC01C601F801099564EF71E078
:1035B00080E090E00E943902D60113966C9170E091
:1035C00090E080E00E948205009709F48AC1FC0126
:1035D000349625913591459154916E962CAF3DAF1F
:1035E0004EAF5FAF6E97FC013896349168963FAF4F
:1035F0006897FC012591359145915491A6962CAF81
:103600003DAF4EAF5FAFA697FC0139963491A196BE
:103610003FAFA19731964491A2964FAFA297D601A2
:103620001F968D919D910D90BC91A02D29968CAFE8
:103630009DAFAEAFBFAF2997F601EF5DFD4F208183
:1036400031816A963FAF2EAF6A97FE01319680E4D2
:10365000DF011D928A95E9F760961CAE1DAE1EAE85
:103660001FAE6097212CF601E45BFD4FA896FFAFDB
:10367000EEAFA8979601205B3D4F25963FAF2EAF4A
:103680002597A601465B5D4FA0965FAF4EAFA09712
:10369000D6011996BC916596BFAF6597F601F28584
:1036A0006696FFAF6697D6011B96BC916796BFAF33
:1036B0006797F60134846296DFAECEAE62972C96A1
:1036C000DFAECEAE2C97412C512C320123961FAE8B
:1036D0001EAE23976A962EAD3FAD6A9742165306EB
:1036E00008F0E4C0C2018770992741E050E002C0B1
:1036F000440F551F8A95E2F764965FAF4EAF64970B
:10370000820193E0169507959A95E1F7E1E0F0E0E4
:10371000EC0FFD1FE00FF11FF080E42EEF202220C0
:1037200019F0EE2009F487C02C96AEADBFAD2C97F2
:103730009196BC912A96BFAF2A97BF3F09F47BC0F0
:10374000F60181849284A384B484840C951CA61C05
:10375000B71CA896AEADBFADA897ED91FC91B50191
:10376000A401C60109952A96BFAD2A97B81376C061
:10377000EE2009F460C0E1E0F0E0EC0FFD1FE00F87
:10378000F11F63968FAD63978095F822F082A6961D
:10379000ECACFDAC0EAD1FADA697A1962FADA197D9
:1037A00029964CAD5DAD6EAD7FAD2997822D0E94FF
:1037B00029066115710581059105E9F1F601678713
:1037C000708B818B928B2596AEADBFAD2597ED9119
:1037D000FC9141E064E070E0C601099588EE93E059
:1037E0000E940902A096AEADBFADA097ED91FC91ED
:1037F0002A962FAD2A97B501A401C601099584E642
:1038000090E00E9409022596AEADBFAD2597ED91DF
:10381000FC9140E064E070E0C601099529962CAD6A
:103820003DAD4EAD5FAD2997D6011F962D933D93CB
:103830004D935C9352972C964EAD5FAD2C974F5F96
:103840005F4F2C965FAF4EAF2C975FEF451A550A2E
:10385000650A750A3FCF80E890E0A3CEE1100BC067
:10386000E1E0F0E0EC0FFD1FE00FF11F6396BFAD4C
:103870006397FB2AF0822396EEADFFAD2397EF2BE3
:1038800051F465968FAE659766969FAE669767967C
:10389000AFAE67973B2C23962EAD3FAD23972F5F9E
:1038A0003F4F23963FAF2EAF2397C5CF23968EADC4
:1038B0009FAD2397892B09F4D7C068969FAD689771
:1038C000921138C00DEB292F65964FAD659766961E
:1038D0005FAD669767966FAD6797732DC6010E94BF
:1038E000700BD60112968C918111C8C0F601E05B75
:1038F000FD4F0190F081E02D40E066E871E0C601E7
:10390000C959DF4F0FB6F894DEBF0FBECDBFDF91B0
:10391000CF911F910F91FF90EF90DF90CF90BF90CC
:10392000AF909F908F907F906F905F904F903F905F
:103930002F9009946E962CAD3DAD4EAD5FAD6E9758
:10394000211531054105510571F060968CAD9DAD95
:10395000AEADBFAD609782179307A407B50718F007
:103960000EEB222DB1CF2596AEADBFAD2597ED91D3
:10397000FC9141E064E070E0C601099588EE93E0B7
:103980000E940902812C912C54016A96EEADFFAD84
:103990006A978E169F0608F040C0F40183E0F69502
:1039A000E7958A95E1F721E030E02C0F3D1FE20F0B
:1039B000F31FC4018770992721E030E001C0220F76
:1039C0008A95EAF780818223C9F0D60119964D9134
:1039D0005D916D917C911C97480D591D6A1D7B1D51
:1039E000A096AEADBFADA097ED91FC916296AEAD45
:1039F000BFAD629791962C91C60109956296EEAD86
:103A0000FFAD629731966296FFAFEEAF6297FFEF20
:103A10008F1A9F0AAF0ABF0AB8CF84E690E00E94CF
:103A200009022596AEADBFAD2597ED91FC9140E022
:103A300064E070E0C6010995239460962CAD3DAD1D
:103A40004EAD5FAD609729968CAD9DADAEADBFAD6F
:103A50002997280F391F4A1F5B1F60962CAF3DAF77
:103A60004EAF5FAF609714CEA2969FADA2979130F4
:103A700009F037CFC6010E942C0933CFC959DF4F57
:103A80000FB6F894DEBF0FBECDBFDF91CF911F916F
:103A90000F91FF90EF90DF90CF90BF90AF909F90ED
:103AA0008F907F906F905F904F903F902F900895F0
:103AB0004F925F926F927F92AF92BF92CF92DF92BE
:103AC000EF92FF920F931F93CF93DF9300D000D01C
:103AD000CDB7DEB77C010E941012181619060CF043
:103AE000A1C06E0185E0C80ED11C0E9410121816EC
:103AF00019060CF097C083E192E00E94C80284345A
:103B00009105E1F18F349105A1F0839709F087C009
:103B10000E940C1260E072E0C70181960E9442127E
:103B200097FF6FC0BC0189EA0E94D60E84E090E046
:103B300012C00E94101202970CF474C00E940C1262
:103B400083E192E00E94C8028B34910571F60E94D5
:103B50000C1290E080E00F900F900F900F90DF918B
:103B6000CF911F910F91FF90EF90DF90CF90BF907A
:103B7000AF907F906F905F904F9008950E941012C9
:103B800004970CF44FC08E010F5F1F4FB02EA12E73
:103B90000E946C0260931B0270931C0280931D02B2
:103BA00090931E0283E192E00E94B40297FF3DC011
:103BB0000E946C0240901B0250901C0260901D02FB
:103BC00070901E02641975098609970940901702C2
:103BD000509018026090190270901A0264157505D1
:103BE00086059705F8F244E050E068E271E08B2D1D
:103BF0009A2D0E94AE2B892B09F077CF81E090E0BF
:103C0000AACFF701EF5DFD4F092E000CAA0BBB0BED
:103C100080839183A283B38382E090E09CCF0E9453
:103C20000C1263CF83E090E096CFF80181938F016F
:103C3000CE16DF0609F0ACCFD6CF0F931F93CF93EC
:103C4000DF93EC0149855A856B857C858D819E814A
:103C5000AF81B885481759076A077B0720F0CE0166
:103C60000E94A70B12C0CE010E94581D83309105FF
:103C700091F4898187FD09C040E070E060E082E056
:103C80000E941D0889818068898381E0DF91CF913E
:103C90001F910F91089529812F77298381309105F4
:103CA000F1F2029711F080E0F1CF8E010F5D1D4F10
:103CB00089859A85AB85BC85F801408151816281F7
:103CC0007381840F951FA61FB71F4D815E816F8181
:103CD0007885481759076A077B0738F440E070E099
:103CE00060E087EA0E941D08DECFFE01EA5BFD4F1F
:103CF000808191810097B9F2BE010E94EE10019679
:103D000091F289859A85AB85BC85F8014081518106
:103D100062817381840F951FA61FB71F89879A87B9
:103D2000AB87BC87B2CFCF92DF92EF92FF92CF9357
:103D3000DF93EC010E946C026B017C0128EEC20E45
:103D400023E0D21EE11CF11C0E946C026C157D0563
:103D50008E059F0570F4CE010E94581D009789F0D2
:103D6000049769F06AE070E080E090E00E94390218
:103D7000EBCF40E070E060E088EA0E941D0880E040
:103D800001C081E0DF91CF91FF90EF90DF90CF9065
:103D900008950F931F93CF93DF938C01EB018091D4
:103DA0004D048F7390E09B012150310982179307D6
:103DB00031F08617970739F181E090E008C08CE474
:103DC00094E00E94931E811107C08FEF9FEFDF9157
:103DD000CF911F910F91089580916704909168048D
:103DE00080789927C130D105C1F4892B31F040E0AA
:103DF00070E060E082E40E941D0880914D04807CA8
:103E00008C2B80934D040115110571F480914D04A4
:103E100086FF12C090E080E0DACF892B71F340E09A
:103E200070E060E083E4E7CF6CE474E0C8010E94D6
:103E3000EE10019659F7C9CF40E070E060E080E1F4
:103E4000219709F080E30E941D0890914D04892F6D
:103E50008F738F5F907C892B80934D04ADCFCF9370
:103E6000DF93EC018091920690919306892B09F4DF
:103E700058C080914D048F73863051F48CE494E0E7
:103E80000E94581D21E0039709F044C020E042C081
:103E90008330F9F0823021F58CE494E00E94931E87
:103EA0008823E1F10E94A50680914D04807C836007
:103EB00080934D048091670487FF06C040E070E066
:103EC00060E080E40E941D0880914D048F73833070
:103ED000E9F68CE494E0FE01099521E028271AC058
:103EE00061E070E080919006909191060E94C91E59
:103EF0008130910559F465E070E0809194069091CD
:103F000095060E94C91E81309105F1F221E0892BAE
:103F100009F4BCCF822FDF91CF9108958FEF9FEFEF
:103F2000F5CF40E070E060E085EA0E941D08109245
:103F30004E0421E0EFCFCF92DF92EF92FF920F93EA
:103F40001F93CF93DF93FC01EA5BFD4F208131810A
:103F50002115310559F410E0812FDF91CF911F9188
:103F60000F91FF90EF90DF90CF900895EC01BC018E
:103F7000C9010E94EE10019671F340E070E060E02C
:103F800082EE0E941D0880910001882309F462C01E
:103F9000FE01EF5DFD4FE080F1808EEFE8168FEFC0
:103FA000F80608F057C0E4E2F1E0649183E192E0A2
:103FB0000E940E03E5E2F1E0649183E192E00E9449
:103FC0000E03E6E2F1E0649183E192E00E940E03C9
:103FD000E7E2F1E0649183E192E00E940E03870141
:103FE0000E5F1F4F612F83E192E00E940E03602F4E
:103FF00083E192E00E940E0366EE83E192E00E946C
:104000000E03E3E1F2E004916E01C6018C1B9D0BEF
:104010008E159F0588F4F60111A1612F83E192E0CE
:104020000E940E03E12FE027F0E0E35DFE4F0491D4
:10403000FFEFCF1ADF0AE9CF602F83E192E00E9401
:104040000E036AE083E192E00E940E0383E192E0B6
:104050000E945B03CE010E94931E182F882309F44F
:104060007ACF89859A85AB85BC85FE01EF5DFD4FD2
:104070004081518162817381840F951FA61FB71FF4
:1040800089879A87AB87BC874D815E816F817885F0
:1040900084179507A607B70708F45ECFCE010E94E4
:1040A000A70B5ACFEF92FF920F931F93CF93DF93FB
:1040B000FB012081243039F58A01EB017C01CA0122
:1040C0000E94A52BEA81FB812C813D812E1B3F0B99
:1040D00082179307C1F4AC01B801C7018E0F9F1F6F
:1040E0000E94AE2B21E030E0892B11F430E020E07B
:1040F00088279927821B930BDF91CF911F910F91F6
:10410000FF90EF9008958FEF9FEFF6CF0F931F93DF
:10411000CF93DF938C0186E0869FE001879FD00DCF
:104120001124BE0164537D4F47EE52E0C8010E9446
:104130005220892B91F4CE52DD4F8A819B81800FD2
:10414000911F0E948306709368046093670481E066
:10415000DF91CF911F910F91089580E0F9CFEF92F9
:10416000FF920F931F93CF93DF938C0186E0869F7E
:10417000E001879FD00D1124CE0184539D4F7C0117
:1041800043EE52E0BC01C8010E945220892B41F04D
:104190004DED52E0B701C8010E945220892B81F4F5
:1041A000CE52DD4F8A819B81800F911F0E94830632
:1041B000862FDF91CF911F910F91FF90EF9008957F
:1041C0008FEFF7CF1F920F920FB60F9211242F93FC
:1041D0003F938F939F93AF93BF938091C40290912D
:1041E000C502A091C602B091C7023091C30223E07C
:1041F000230F2D3768F126E8230F0296A11DB11D6C
:104200002093C3028093C4029093C502A093C60278
:10421000B093C7028091C8029091C902A091CA02CE
:10422000B091CB020196A11DB11D8093C80290935D
:10423000C902A093CA02B093CB02BF91AF919F91E4
:104240008F913F912F910F900FBE0F901F90189557
:104250000196A11DB11DD4CF1F920F920FB60F92E0
:1042600011242F933F934F935F936F937F938F937B
:104270009F93AF93BF93EF93FF9383E192E00E94EC
:10428000EC02FF91EF91BF91AF919F918F917F9140
:104290006F915F914F913F912F910F900FBE0F90B3
:1042A0001F9018951F920F920FB60F9211242F9303
:1042B0008F939F93EF93FF93E0912302F091240259
:1042C0008081E0912902F0912A0282FD1BC0908139
:1042D00080912C028F5F8F7320912D02821741F005
:1042E000E0912C02F0E0ED5EFD4F958F80932C0263
:1042F000FF91EF919F918F912F910F900FBE0F9093
:104300001F9018958081F4CFCF93DF93CDB7DEB7A0
:10431000EC970FB6F894DEBF0FBECDBF789484B58E
:10432000836084BD85B5836085BD80916E008160AA
:1043300080936E0082E08093810080918100816093
:1043400080938100809180008160809380008091C3
:10435000B10084608093B1008091B000816080934F
:10436000B0008091910083608093910080919000D3
:104370008160809390008091A10083608093A10070
:104380008091A00081608093A00087E880937A00EC
:104390001092C100B0EBEB2EB2E0FB2E00E310E078
:1043A000C8010E94BC2BD7018D937D010F5F1F4F69
:1043B0000F331105A9F764EA71E080EB92E00E94E7
:1043C000682C892B29F164EA71E080EB92E00E946D
:1043D000712C80EB9EE1A4E0B0E08093B602909354
:1043E000B702A093B802B093B90280EE9BEAA0E0B6
:1043F000B0E08093BA029093BB02A093BC02B0934A
:10440000BD028FEF8093BE0280EB92E00E94971571
:1044100081E10E94C90180E10E94C901A8E0FA2E51
:1044200010E000E081E10E94F101080F191FFA94E9
:10443000F110F8CFF3E016950795FA95E1F782E0D1
:10444000083C110538F0C8018C5D91098C3791400A
:1044500020F485E0809305010EC08EEF08351240F0
:10446000C8F380E10E94F10121E0883E93400CF006
:1044700020E020930501809105018E3F41F4809159
:10448000BE028F3F21F46EEF8BE50E94E80E8FE2B3
:1044900084B980E185B90E94B7150E94B51570E016
:1044A00060E081E00E943E0770E060E082E00E94F0
:1044B0003E0770E060E088E00E943E070E94961090
:1044C00010924C0480914C04882309F436C00E9459
:1044D0006C020091BF021091C0022091C102309184
:1044E000C202061717072807390738F560914C04F0
:1044F0008AEA0E94E80E0E94861A81E080934E04A8
:1045000060914C04613110F00C946F2BE62FF0E0B9
:10451000E457FD4D0C94512C6C291B292529282981
:10452000332936292529A32A0D2A3329332941295C
:104530004129DE294E2B012A332980914C04811117
:10454000DCCF0E941012181619060CF0C5C66FEFCA
:1045500071E08DE694E00E944212DC011816190603
:104560000CF064C6AC01092E000C660B770B40936F
:104570006D0650936E0660936F06709370068115FA
:1045800002E0900724F4FC01E45BFB4F11A281E000
:1045900080934E0410924D0480E890E0909368045C
:1045A000809367046FEF7FEF30E020E050E040E061
:1045B000512C412C96E088E0B82EE4E0AE2EF901B3
:1045C000E359FB4F8081882309F42FC18A330CF013
:1045D00057C080330CF06BC0803209F420C16CF4FA
:1045E000893034F08B300CF41AC18D3009F417C1C6
:1045F000FEEF4F2E55245A9424C18C3209F4E3C1A6
:104600008D3209F454C0823299F739012F5F3F4F40
:104610002A173B0708F0BFC0F901E359FB4FE081BF
:10462000EE2309F4B8C0E23209F06EC140345105FE
:1046300008F0B1C07A011FEFE11AF10A949FF0016E
:10464000959FF00D1124E453FD4F4FEF5FEF55831D
:104650004483538342831182309709F49CC0A08223
:1046600083010F5F1F4F13830283358324835FEF22
:10467000451A550A6F3F760709F09AC1A701CFC0C6
:104680008636A9F06CF48B3509F48CC08D3509F4AD
:1046900005C18A3309F0ACCFBA0161507109BFC0BE
:1046A000843729F00CF05FC08E3609F0A1CF6F3F40
:1046B000760781F0969FF001979FF00D1124E45347
:1046C000FD4F1081113009F466C0143019F4E181F6
:1046D000E11161C07901F901E359FB4F2A173B074A
:1046E00008F059C01191112309F455C0103251F04E
:1046F0000CF099C119300CF49FC11B301CF01D3017
:1047000009F09AC14034510508F045C08A010F5F95
:104710001F4F949FF001959FF00D1124E453FD4F1E
:1047200088248A94982C9582848293828282118232
:10473000309789F1B082E282F3823583248321505D
:1047400031094FEF441A540A6F3F760751F0969F94
:10475000F001979FF00D1124E453FD4F41814F5F0D
:104760004183A8015CC08B37E9F08D3709F040CF59
:10477000EE24E394F12C8A0101501109949FF00179
:10478000959FF00D1124EA53FD4F17FF8BC00F3F8B
:104790001F4F09F044C040E070E060E080EA0E94F2
:1047A0001D089AC51FEF411A510A4034510598F768
:1047B0006A01EFEFCE1ADE0A949FF001959FF00D8B
:1047C00011248F0104531D4F4801EE24EA94FE2C5E
:1047D000F401F582E482F382E28211828114910471
:1047E000D1F26F3F760789F0969F7001979FF00C8A
:1047F0001124B70164537D4FFB01F080F1E0FF16F7
:1048000051F2FB01F180F394F18261E08B3709F002
:1048100062E0F401608333832283BA01A6012F5F33
:104820003F4F2A173B0708F4CACECA01019726E07A
:10483000249FF001259FF00D1124E853FD4F97FFB1
:1048400004C1141415040CF0A6CF8FEF80934C0410
:104850001092680410926704F12C10E000E0B80197
:104860008DE694E00E94AF208F3F09F4FCC0809356
:104870004C040F5F1F4F80914C048F3F11F0F110DB
:10488000FEC00F5F1F4F041515054CF38F3F09F055
:10489000F6C040E070E060E081EA81CFF2E0EF2E08
:1048A000F12C69CFC280D380CD20C09449F1C4805F
:1048B000D580CD20C09421F560816E151F0409F0CC
:1048C0006ACFB9016F5F7F4F75836483909FF0015A
:1048D000919FF00D1124E453FD4FB8010281138123
:1048E0000F3F1F4F31F0048115810F3F1F4F09F417
:1048F00096CF6150710936976F3F760779F78FCF62
:1049000001501109369741CFEC3509F07FCE69018E
:10491000EFEFCE1ADE0ACA16DB0608F077CE860164
:1049200003591B4FF8018081863639F074F48F32B9
:1049300021F02CF4823209F02ECF960167CE8C350F
:10494000E1F3823609F027CFF8CF8237B1F324F4B0
:104950008E3609F020CFF1CF843779F3853709F00F
:104960001ACF4901F2E08F0E911C890101591B4FAA
:1049700078012A5F3F4F8A169B06B0F4F7018191B8
:104980007F01882389F0E0EDCE2EC80E19E01C15BA
:1049900028F48F7D8154863008F0FDCE8FEF881A81
:1049A000980A8216930639F79401215031092ECEC8
:1049B000969FF001979FF00D1124E453FD4F418124
:1049C0004F5F41835BCE6F3F760709F428CF969FF8
:1049D000F001979FF00D1124E453FD4FE081E15069
:1049E000E23008F41CCF8A0101501109949FF001B4
:1049F000959FF00D1124EA53FD4F17FD10CFF08065
:104A0000FA94882483948F1450F0E280F380EF208E
:104A1000E09429F0E480F580EF20E094A1F00150CB
:104A200011093697EACF1D3509F46CCE1D3709F40C
:104A300069CE1C3209F466CE2F5F3F4F10521F35EE
:104A400008F44CCEA8CEB801EACE208131812F3FA8
:104A50003F4F31F0228133812F3F3F4F09F49BCEEE
:104A600001973697ECCEB8018DE694E00E9486203F
:104A7000882309F400CF0F5F1F4FF82EFCCE8B3038
:104A800008F072C0893028F49FEF980F963008F034
:104A90006EC0109255041092560410925704109252
:104AA000580410926804109267048FEF80938A066E
:104AB00080938B068093710610928506109286066D
:104AC000109287061092880610928C0610928D061E
:104AD00010928E0610928F0610926A04109269044A
:104AE00010926C0410926B048091CC02813019F505
:104AF0008091CD02882E912C9AAE89AE1CA61BA661
:104B000022242394312C89AC9AACABA4BCA4A81465
:104B1000B904DCF1809171068F3F69F4EE24EA94C8
:104B2000FE2C00E010E0E0928506F09286060093ED
:104B300087061093880680914C048B3008F00EC2D3
:104B4000893020F48150863008F00BC26CE474E0A8
:104B500088EF9EE00E94EE10019609F002C240E04C
:104B600070E060E082EA1BCE803109F492CF8B3096
:104B700008F48FCF8E3009F0F4C1EE24E394F12CC9
:104B800010E000E096E0D92EEEC2241435049CF625
:104B900076E0972E929C8001939C100D1124980131
:104BA00024533D4F690140ED52E0B9018DE694E098
:104BB0000E945220892B59F04AEC52E0B6018DE652
:104BC00094E00E945220F12CE12C892B51F432E028
:104BD000230E311C0BA51CA50F5F1F4F1CA70BA795
:104BE00092CFF701E857FD4F45915491B6018DE6FC
:104BF00094E00E945220892B09F061C0F801EE5226
:104C0000FD4F8281938183599B4F0E9483066FA33E
:104C100078A789A79AA7F701E457FD4FA491F70158
:104C2000E357FD4FB491F701E657FD4F05911491FD
:104C30000115110559F030E020E006171707280785
:104C4000390720F40FA318A729A73AA72B2F2F70F5
:104C5000422F50E0243030F59A0163E0220F331FD9
:104C60006A95E1F761E070E080E090E004C0660FD3
:104C7000771F881F991F2A95D2F78B019C0101503D
:104C8000110921093109CFA0D8A4E9A4FAA40C156F
:104C90001D052E053F0530F4B7FD04C00FA318A76E
:104CA00029A73AA78A2F90E0BE01695D7F4F845BF8
:104CB0009B4F0E945F2C72E0270E311C8BCF86E049
:104CC000E80EF11C92E4E916F10409F08ACF4DE7F1
:104CD00052E0B6018DE694E00E9452207C01892BBF
:104CE00009F038C14201821893089AAA89AA84015E
:104CF00002301105DCF0D60116968C9116978130A2
:104D0000A9F417968C91882E912C9CAE8BAE18AA84
:104D10001FA632E0A32EB12CEE24E394F12C8BAC31
:104D20009CAC0FA518A90815190534F01FEFE11A5E
:104D3000F10A2E0C3F1C4ECF09A91AA9A016B106E4
:104D40000CF0F9CE16E01A9D40011B9D900C112429
:104D50008601080D191D49E752E0B8018DE694E07F
:104D60000E9452203C01892B09F079C026E0820E76
:104D7000911CF601E80DF91D8081823009F0DBCE2F
:104D800081808BAA912C2FEF2093890641E756E072
:104D90005FAB4EABB0918906B8AF6814790424F4C8
:104DA000E4E16E167104E9F408AD0F3F19F41BA994
:104DB0001093890624E1821691042CF4F401EF5833
:104DC000F94F3FEF308342E0840E911CE80CF91C50
:104DD000A80CB91C0FA518A90F5F1F4F18AB0FA780
:104DE0009ECFD8011E968D919C9183599B4F0E9416
:104DF0008306EEA9FFA96193FFABEEAB262F30E04F
:104E000081E090E0A0E0B0E004C0880F991FAA1FE5
:104E1000BB1F6A95D2F7AC01BD01809185069091C8
:104E20008606A0918706B0918806842B952BA62B29
:104E3000B72B8093850690938606A0938706B09340
:104E4000880698AD9F3F29F46216730611F06092B0
:104E50008906AFEF6A1A7A0A0A5F1F4F9BCF4DE6A9
:104E600052E0B8018DE694E00E9452203C01892B6B
:104E700009F042C056E0850E911CF601E80DF91DBF
:104E80008081823009F057CE8180912C0A5F1F4FBC
:104E90006814790424F0A2E08A0E911C97CFD801FF
:104EA00018968D919C9183599B4F0E94830681E0B7
:104EB00090E0A0E0B0E004C0880F991FAA1FBB1FBC
:104EC0006A95D2F7AC01BD0180918C0690918D0658
:104ED000A0918E06B0918F06842B952BA62BB72B15
:104EE00080938C0690938D06A0938E06B0938F06C8
:104EF0009FEF691A790ACACF4EE552E0B8018DE6F4
:104F000094E00E945220B2E0EB0EF11CE2E0AE0E03
:104F1000B11C892B59F4D80118968D919C91835915
:104F20009B4F0E94830660938A0654CF45E652E069
:104F3000B8018DE694E00E945220892B09F04ACFF7
:104F4000F8018085918583599B4F0E948306609369
:104F50008B0640CF22E0220E311C3CCE803109F47A
:104F6000F5CD8091670487FF11C081E18983EAEA6A
:104F7000F1E0DE01129601900D928A95E1F742E18F
:104F8000BE016F5F7F4F8AE50E941D088091670414
:104F900087FF05C0609105018CE50E94E80E8091B5
:104FA000670487FF06C00E94EF06682F8BE50E940A
:104FB000E80E8091670487FF05C060914C048DE581
:104FC0000E94E80E82E089831A820E94EF068B839A
:104FD00081E18C83EAEAF1E0DE01159601900D9201
:104FE0008A95E1F740905B0450905C0460905D040A
:104FF00070905E0460914F0470E090E080E00E9449
:105000008205009709F40FC1FC013896249131966E
:10501000D49035974591559165917491FC01E59037
:10502000F59005911491822E912CB12CA12C8BA678
:105030009CA6ADA6BEA6411551056105710531F0CE
:10504000411451046104710409F0CDC08BA49CA4E7
:10505000ADA4BEA4A3019201C501B4010E94EC2B32
:105060006BA77CA78DA79EA72D2DB301A201882D2C
:105070000E9429068BA49CA4ADA4BEA4680D791D32
:105080008A1D9B1D20E432E44FE050E00E94102C6A
:1050900069017A01B9E0660F771F881F991FBA95D9
:1050A000D1F7615C7D4B804F9F4F20E432E44FE0AD
:1050B00050E00E94102CD701C60119E0880F991FFB
:1050C000AA1FBB1F1A95D1F70196A11DB11D820F12
:1050D000931FA41FB51F880F991FAA1FBB1F0097FE
:1050E00001E0A007B10520F08FEF9FEFA0E0B0E056
:1050F000282F892F8E8B2F8B47E1BE016F5F7F4F4B
:1051000081E00E941D080E94A506E6C0B7018DE659
:1051100094E00E94AF208F3F19F5B7018DE694E02F
:105120000E94862081111CC0DE9C8001DF9C100D36
:10513000112404531D4F4AE552E0B8018DE694E076
:105140000E945220892BD9F4D80118968D919C91F8
:1051500083599B4F0E9483066093BE0201E010E0DA
:10516000B2E0EB0EF11CE414F50484F201301105F9
:1051700009F0F7CE80EB92E00E949715F2CE47E55A
:1051800052E0B8018DE694E00E945220892B81F410
:10519000F8018085918583599B4F0E948306609317
:1051A000B6027093B7028093B8029093B902D6CF3B
:1051B00044E552E0B8018DE694E00E945220892B2C
:1051C00009F091C2D80118968D919C9183599B4FFB
:1051D0000E9483066093BA027093BB028093BC0264
:1051E0009093BD02BBCFD301C2010197A109B109C0
:1051F0004C015D01840E951EA61EB71EC501B401AB
:10520000A30192010E94102C49015A012BA53CA533
:105210004DA55EA5281539054A055B0508F01ACF8E
:1052200049015A0117CF20E080E064CF40E070E0F0
:1052300060E084EAB4CA8BE99FE10E942F1F8823B3
:1052400009F44AC00E94861A47C08DE19EE1F5CF5D
:105250008091670481FD07C040E070E060E085EA6E
:105260000E941D08EFCF86EA91E1E7CF80916904A3
:1052700090916A04892BB9F740E070E060E086EA1B
:10528000EFCF80914D04811131C00E94EF06811152
:1052900005C040E070E060E08CEAE2CF0E94BD060D
:1052A00080914C0460E871E08B3021F08C30B9F4CF
:1052B00060E870E088E00E943E0764E670E080E00D
:1052C00090E00E9439020E94961081E080934D0484
:1052D00060E072E00E94D60E0E947B03F3C80E9439
:1052E000961040E070E060E08DEABACF8CE494E084
:1052F0000E94581D8130910509F4A4CF892B61F7D4
:1053000064EF71E080E090E00E9439020E94EB12AD
:105310006B017C0110E000E0C114D104E104F10450
:1053200081F022E030E040E050E00E94322CCA01DF
:10533000B901705D8E4E9F4FA70196010E94322CDD
:1053400089010E940A13FC01F296A8EEEA2EA3E05E
:10535000FA2ECF01B7010E94FC2BD62E24E630E0B6
:10536000CF01B9010E94FC2BCB01EAE0F0E0BF01C4
:105370000E94FC2B482F0E5C1F4FC801B7010E94F2
:10538000FC2BF62EC801B9010E94FC2BCB01BF01FA
:105390000E94FC2B90914C041982DA821B824C8370
:1053A0001D82FE821F82888748E0BE016F5F7F4FAB
:1053B00085EE9C3009F4A5CE84EEA3CE04ED12E078
:1053C000F8016491662341F083E192E00E940E03AC
:1053D0000F5F1F4F892BA1F741E150E06AEA71E0AE
:1053E00083E192E00E94780242E050E06CEB71E0D1
:1053F00083E192E00E94780283E192E00E945B03E5
:1054000021CF8091BE029091050199838A8342E069
:10541000BE016F5F7F4F84E023CF8CE494E00E9455
:10542000581D892B09F058CF0E94101204970CF4D4
:1054300053CF0E940C127C010E940C126C010E943E
:105440000C128DAB1CAA0E940C12ACA8BDA8A82AF5
:10545000B92A850111708091670486FB992790F91C
:10546000998385FB992790F99A8387FF07C042E0CB
:10547000BE016F5F7F4F85E50E941D08FF2448E055
:10548000B7018FEB91E00E94DE14DD2448E0B60105
:1054900083EC91E00E94DE1448E0B80187EC91E0D3
:1054A000B7FE0DC049E087EC91E00E94DE14C80110
:1054B0000E941907682F70E048E08CEC91E00E9490
:1054C000DE1460E072E081E00E94D60E0E94BD060C
:1054D000B60181E00E943E07B70182E00E943E07CC
:1054E000B80188E0B7FE29C00E943E0760916704BA
:1054F00070916804E6E076956795EA95E1F7F1E04A
:105500006F27617080E20E94B40660916704709119
:105510006804F5E076956795FA95E1F701E0602774
:10552000617084E00E94B4061C9B0AC068EC70E0C5
:1055300080E090E00E943902F7CF0E94D406D6CFD7
:105540000E9496107FCE8091670486FB992790F980
:10555000998385FB992790F99A8387FF07C042E0DA
:10556000BE016F5F7F4F85E50E941D088091670433
:1055700087FF10C0809155049091560420915704E4
:1055800029839A838B8343E0BE016F5F7F4F86E55B
:105590000E941D080091670410916804980145E07D
:1055A000369527954A95E1F7217040915504509121
:1055B000560460915704709158048CE494E00E9462
:1055C000BC046B017C018D2C9E2CAF2CBB2407FFEF
:1055D0000AC089838A826B8343E0BE016F5F7F4F7D
:1055E00087E50E941D08B701A6018CE494E00E94A3
:1055F000F6068C011127C8010E941907782EB40104
:10560000772748E08FEB91E00E94DE14B601772700
:1056100048E083EC91E00E94DE1448E0B8018AED96
:1056200091E00E94DE14672D70E048E08CEC91E080
:105630000E94DE1460E072E081E00E94D60E0E94BB
:10564000BD06B701A6018CE494E00E947E0760913C
:1056500067047091680486E0769567958A95E1F70E
:1056600011E06127617080E20E94B40660916704D6
:105670007091680495E0769567959A95E1F721E039
:105680006227617084E00E94B4061C9B59CF68ECCD
:1056900070E080E090E00E943902F7CF8091BE0276
:1056A0009091B6022091B7023091B8024091B902B0
:1056B00049833A832B839C839091BA022091BB0249
:1056C0003091BC024091BD024D833E832F83988769
:1056D000898749E0BE016F5F7F4F85E0C1CD8BEACE
:1056E0000E94E80EAFCD40E070E060E083EA57C86A
:1056F000E3E1F2E01382128288EE93E0A0E0B0E0F2
:1057000084839583A683B78384E791E09183808324
:1057100085EC90E09587848784EC90E09787868776
:1057200080EC90E0918B808B81EC90E0938B828B6E
:1057300082EC90E0958B848B86EC90E0978B868B47
:10574000118E128E138E148E0895FC010590002088
:10575000E9F7809590958E0F9F1F0895FB01DC015E
:105760004150504030F08D910590801919F400207F
:10577000B9F7881B990B0895F999FECF92BD81BDA9
:10578000F89A992780B50895262FF999FECF1FBA68
:1057900092BD81BD20BD0FB6F894FA9AF99A0FBE5A
:1057A000019608950E94DD2BA59F900DB49F900D4A
:1057B000A49F800D911D11240895A29FB001B39F55
:1057C000C001A39F700D811D1124911DB29F700D0A
:1057D000811D1124911D0895DB018F939F930E94D9
:1057E000D22BBF91AF91A29F800D911DA39F900DD1
:1057F000B29F900D11240895AA1BBB1B51E107C055
:10580000AA1FBB1FA617B70710F0A61BB70B881F50
:10581000991F5A95A9F780959095BC01CD010895DF
:10582000A1E21A2EAA1BBB1BFD010DC0AA1FBB1FA4
:10583000EE1FFF1FA217B307E407F50720F0A21B16
:10584000B30BE40BF50B661F771F881F991F1A9483
:1058500069F760957095809590959B01AC01BD01AD
:10586000CF010895052E97FB1EF400940E94492C49
:1058700057FD07D00E94102C07FC03D04EF40C9467
:10588000492C50954095309521953F4F4F4F5F4F94
:10589000089590958095709561957F4F8F4F9F4F9C
:1058A0000895EE0FFF1F0590F491E02D0994B7FFC6
:1058B0000C94D22B0E94D22B821B930B0895FB01D8
:1058C000DC0102C001900D9241505040D8F708957C
:1058D000FB01DC018D91019080190110D9F3990B26
:1058E0000895FB01DC0101900D920020E1F708957D
:0458F000F894FFCF5A
:1058F40001FF00FFFFFF0155550000AAAA2A00007E
:105904005555550000A055550000AAAA2A00005577
:10591400555500008055550000AAAA2A0000555587
:105924005500002055550000AAAA2A0000555555D7
:105934000000A055550000AAAA2A0000555555009C
:1059440000A055550000AAAA2A000055555500008C
:105954008055550000AAAA2A00005555550000108C
:10596400000000000E037802A5025B03D602B40215
:10597400C80255550000AAAA2A0000555555000032
:10598400F055550000AAAA2A00005555550000906C
:105994007C443800564552303600332E302E306267
:1059A40032323A756E6F3332387062000D0A004D30
:1059B4005342004C5342004354524C004354524C03
:1059C4002072656D617070656400544F502061648D
:0459D40064720000F9
:00000001FF
