:100000000C94E1010C9409020C9409020C9409026D
:100010000C9409020C9409020C9409020C94090234
:100020000C9409020C9409020C94AC220C94292320
:100030000C9409020C9409020C9409020C94090214
:100040000C9409020C9409020C9409020C94090204
:100050000C9409020C9409020C9409020C9462227B
:100060000C9409020C9409020C9409020C940902E4
:100070000C9409020C9409020C9409020C940902D4
:100080000C9409020C9409020C9409020C940902C4
:100090000C9409020C9409020C9409020C940902B4
:1000A0000C9409020C9409020C94090270616765B2
:1000B0002D73697A6500726561642D7374726F6265
:1000C000652D757300726561642D736574746C6958
:1000D0006E672D64656C617900616C676F7269741D
:1000E000686D007670705F6D760070756C73652D4D
:1000F00064656C61790070696E2D636F756E740054
:10010000636869702D69640061646472657373006B
:100110006D656D6F72792D73697A6500AA55AA5560
:10012000444F4E450000070E091C1B1215383F3680
:100130003124232A2D70777E796C6B6265484F4697
:100140004154535A5DE0E7EEE9FCFBF2F5D8DFD607
:10015000D1C4C3CACD90979E998C8B8285A8AFA637
:10016000A1B4B3BABDC7C0C9CEDBDCD5D2FFF8F1AC
:10017000F6E3E4EDEAB7B0B9BEABACA5A28F8881D7
:100180008693949D9A2720292E3B3C35321F1811C7
:100190001603040D0A5750595E4B4C45426F686177
:1001A0006673747D7A898E878095929B9CB1B6BF69
:1001B000B8ADAAA3A4F9FEF7F0E5E2EBECC1C6CF17
:1001C000C8DDDAD3D4696E676075727B7C51565F87
:1001D000584D4A4344191E171005020B0C21262FB7
:1001E000283D3A33344E49404752555C5B7671782E
:1001F0007F6A6D64633E39303722252C2B06010857
:100200000F1A1D1413AEA9A0A7B2B5BCBB96919846
:100210009F8A8D8483DED9D0D7C2C5CCCBE6E1E8F6
:10022000EFFAFDF4F3F824010000000000190001CA
:1002300000F82401000000000019000100F824016A
:100240000050C30000FF00000107080B080B00026C
:10025000020200000904000001020200000524005F
:1002600010010524010101042402060524060001F1
:100270000705810310004009040100020A00000084
:100280000705020240000007058302400000040346
:10029000090412010002EF020140412336800001EF
:1002A0000102030141726475696E6F204C4C43007A
:1002B00041726475696E6F204C656F6E6172646F18
:1002C000007232007231007265760072772D7069AB
:1002D0006E007670702D70696E007374617469635E
:1002E0002D6869676800627573006275732D636FAE
:1002F0006E6669670010010000050408010000092E
:1003000004600300001B82000100001D02F60000D3
:10031000000401EA0000000F04E30000000D02D910
:100320000000000301C500E8031304B600E803174A
:1003300004AC0000001F02737461746500636D6497
:10034000004F4B3A2046573A2000070605040100AB
:10035000080A0B0C0D09737461746500636D640009
:10036000666C6167730000000000250028002B0008
:100370002E00310000000000240027002A002D007C
:10038000300004040404040304050202020204030E
:10039000020202020606060606060404020202041F
:1003A0000404080201104080401020408040800872
:1003B00002040180402010020110801020404020E3
:1003C000A02F11241FBECFEFDAE0DEBFCDBF28E0A3
:1003D000A6EFB1E001C01D92A335B207E1F711E02D
:1003E000A0E0B1E0E4E1F1E602C005900D92A63F85
:1003F000B107D9F711E0C1EED1E004C02197FE01A9
:100400000E946130C03ED107C9F70E945B250C9461
:1004100088300C94000083E08093E9008091F20022
:10042000882319F08AE38093E8000895CF93DF933F
:1004300090E0FC01EF55FC4F24918E579C4FFC013E
:1004400084918823C1F090E0880F991FFC01EC583B
:10045000FC4FC591D491FC01EA59FC4FA591B49190
:100460009FB7F8948881E22FE0958E2388838C9142
:10047000E823EC939FBFDF91CF910895FC01809119
:100480005208882311F13FB7F89482E08093E90085
:100490002091F200822F90E01816190614F481E0E2
:1004A00090E0882339F0289844E640935108409121
:1004B000F1004083222339F02091F200211103C082
:1004C0002BE62093E8003FBF08958FEF9FEF08953C
:1004D0002FB7F89483E08093E9009091E800892F8A
:1004E000807295FF04C09091F20080E4891B2FBFB9
:1004F00008958091750281110DC082E08093710290
:1005000084E080937202109274021092730281E070
:100510008093750281E792E008958251E82FF0E020
:10052000E65BFC4FE49190917B008E2F880F880F43
:1005300080729F7D892B80937B008091110120E444
:10054000829FC0011124E770E82BE0937C0080912A
:100550007A00806480937A0080917A0086FDFCCFD7
:10056000809178009091790008958230910538F05B
:10057000880F991F880F991F05970197F1F7089524
:100580003FB7F89480916D0290916E02A0916F0236
:10059000B091700226B5A89B05C02F3F19F00196B7
:1005A000A11DB11D3FBFBA2FA92F982F8827BC01CD
:1005B000CD01620F711D811D911D42E0660F771FF5
:1005C000881F991F4A95D1F708958F929F92AF92F5
:1005D000BF92CF92DF92EF92FF926B017C010E945B
:1005E000C0024B015C01C114D104E104F104B9F073
:1005F0000E94C002681979098A099B09683E734004
:100600008105910580F321E0C21AD108E108F108C3
:1006100088EE880E83E0981EA11CB11CE4CFFF90E9
:10062000EF90DF90CF90BF90AF909F908F90089504
:100630002FB7F8946091690270916A0280916B0201
:1006400090916C022FBF08950C940B024091FF0112
:10065000509100022091FD013091FE014217530795
:10066000B4F49091E8009570E1F39091E80092FD68
:1006700019C08093F1008091FF01909100020196D2
:100680008F739927892B19F48EEF8093E80080915E
:10069000FF01909100020196909300028093FF0168
:1006A00081E0089580E00895EF92FF920F931F93E9
:1006B000CF93DF93F82E192FE62E042F81E0860FBB
:1006C000880F0E94260383E00E942603CF2DD12F9E
:1006D000EC0EFD2EF11CCE15DF05B9F007FF13C09F
:1006E000FE0184910E942603182F80E00E942603B9
:1006F000812321968111EFCFDF91CF911F910F912F
:10070000FF90EF9008958881EDCF81E0F5CFDF92E3
:10071000EF92FF920F931F93CF93DF93D82E8A010E
:10072000EB017B01E40EF51ECE15DF0559F0D7FE77
:1007300012C0FE0184910E94260321968111F4CFFC
:100740000FEF1FEFC801DF91CF911F910F91FF9025
:10075000EF90DF9008958881EECF0F931F93CF9392
:10076000DF931F92CDB7DEB782E0898342E450E089
:100770006CE472E080E80E9487030E947902DC0149
:1007800012960D911C910115110589F0D801ED917A
:10079000FC910280F381E02DBE016F5F7F4FC801A5
:1007A000099597FD04C0F80100851185ECCF89817A
:1007B0000F90DF91CF911F910F910895615030F00C
:1007C0002091F100FC0120830196F8CF289884E65F
:1007D0008093510808958F929F92AF92BF92CF92CB
:1007E000DF92EF92FF920F931F93CF93DF936C01F1
:1007F0007B018A0180910F01882309F45CC08091FC
:100800005208882309F457C08091030280FF05C075
:100810008091E00082608093E000E801B12C8AEFD3
:10082000A82E93E0892E2AE3922E209711F4BB2064
:10083000D9F10E94680281110AC0AA94AA20D9F1B4
:1008400061E070E080E090E00E94E502EECF8C175E
:100850001D0611F00CF08C2F9FB7F8948092E900E0
:100860002091E80025FD02C09FBFDFCF282F30E098
:10087000C21BD30BF701815020F041914093F1004E
:10088000FACFE20EF31EBB2021F09092E800B12CCB
:10089000EBCF8091E80085FDE7CF9092E800BB2484
:1008A000B394209709F3F3CF5D9884E68093020216
:1008B000101611063CF081E090E0F60193838283EC
:1008C00010E000E0C801DF91CF911F910F91FF90E0
:1008D000EF90DF90CF90BF90AF909F908F90089552
:1008E000CF93DF931F92CDB7DEB76983DC01ED9123
:1008F000FC910280F381E02D41E050E0BE016F5F8A
:100900007F4F09950F90DF91CF9108950E94680263
:1009100090E00895CF93DF931F92CDB7DEB7FC012F
:100920008485958597FD08C02FEF3FEF3587248795
:100930000F90DF91CF910895CE0101960E943E0263
:10094000019719F4898190E0F3CF8FEF9FEFF0CFFB
:100950000F931F93CF93DF931F92CDB7DEB78C0118
:10096000FC018485958597FF0BC0CE0101960E94FE
:100970003E02019771F4898190E0F80195878487A0
:10098000F801848595850F90DF91CF911F910F918C
:1009900008958FEF9FEFF1CFFC018485958597FD3A
:1009A0000BC09FB7F89482E08093E9008091F20039
:1009B0009FBF90E0019608959FB7F89482E08093DE
:1009C000E9008091F2009FBF90E008958F929F927E
:1009D000AF92BF92CF92DF92EF92FF920F931F934D
:1009E000CF93DF93EC018C010F5D1F4F812C912C75
:1009F00054016C018FEDC81A8BEFD80A7E01A6EB6B
:100A0000EA1AABEFFA0AF60180819181A281B381E3
:100A100088169906AA06BB06B0F4D8012D918D015F
:100A200049855A856B857C85480D591D6A1D7B1D3E
:100A3000D701ED91FC91CE010995BFEF8B1A9B0A6E
:100A4000AB0ABB0AE0CFDF91CF911F910F91FF90CE
:100A5000EF90DF90CF90BF90AF909F908F900895D0
:100A60008F929F92AF92BF92CF92DF92EF92FF92BE
:100A70000F931F93CF93DF93EC018D819E81AF8104
:100A8000B88549855A856B857C85841B950BA60B9B
:100A9000B70B813024E09207A105B10520F080E07A
:100AA00094E0A0E0B0E08C017E0181E2E80EF11C50
:100AB000812C912C54016E01A4EBCA1AABEFDA0A17
:100AC00080169106B4F449855A856B857C85480D5E
:100AD000591D6A1D7B1DD601ED91FC91CE01099532
:100AE000F70181937F01FFEF8F1A9F0AAF0ABF0AB8
:100AF000E7CFCF5DDB4F012E000C220B330B0883B9
:100B000019832A833B83DF91CF911F910F91FF902F
:100B1000EF90DF90CF90BF90AF909F908F9008950F
:100B2000CF93DF93EB01611520E4720781059105F6
:100B300058F028EE33E040E050E00E942030EB0116
:100B4000CA01B9010E94E502209729F0CE01DF9188
:100B5000CF910C94B502DF91CF910895809100015F
:100B6000909101016823792381E0672B09F480E0EB
:100B70000895CF93DF93EC01FC01E65BFB4F0190FE
:100B8000F081E02D2FEF40E050E0BA010995FE0121
:100B9000E05BFB4F0190F081E02D40E068E870E001
:100BA000CE01DF91CF910994FC012481203241F4E0
:100BB000E15CFB4F81E09081953151F080E008C00D
:100BC0002C3139F4E15CFB4F81E090819F30B1F72B
:100BD0000895283199F7E15CFB4F81E090819B30CB
:100BE00069F7F6CFFF920F931F93CF93DF938C019A
:100BF000EB01F42E62FF07C0C8010E94D4058823D0
:100C000011F0CB7FC860E091F701F091F8014F2D12
:100C1000BE01C801DF91CF911F910F91FF90099400
:100C20002F923F924F925F926F927F928F929F92FC
:100C3000AF92BF92CF92DF92EF92FF921F93CF932A
:100C4000DF93CDB7DEB7A7970FB6F894DEBF0FBE20
:100C5000CDBFFC01EB5DFB4F3FE1DE011196019042
:100C60000D923A95E1F7FC01E25CFB4F3081319641
:100C700010813196408051806280738048A259A2D1
:100C80006AA27BA23797C080D180E280F380C42221
:100C9000D522E622F722E981EF3F09F43FC0FC01AB
:100CA000E35CFB4FE0812E2E312CE1E0F0E0EC0F15
:100CB000FD1FE20DF31DA4E12A1631047CF5A1917C
:100CC000AF3F61F1812C912C5401839404C0880CB6
:100CD000991CAA1CBB1CAA95D2F72A013B01022C25
:100CE00004C076946794579447940A94D2F74CA220
:100CF0005DA26EA27FA240FC0CC080949094A09450
:100D0000B094C820D920EA20FB20AFEF2A1A3A0A73
:100D1000D2CFC828D928EA28FB28F7CF3F3F79F05F
:100D2000422F50E070E060E004C0440F551F661F82
:100D3000771F3A95D2F7C42AD52AE62AF72A1F3F09
:100D400099F00E94D40581110FC081E090E0A0E0ED
:100D5000B0E004C0880F991FAA1FBB1F1A95D2F7D5
:100D6000C82AD92AEA2AFB2A68A179A18AA19BA1CB
:100D70006C297D298E299F29A7960FB6F894DEBF8E
:100D80000FBECDBFDF91CF911F91FF90EF90DF900D
:100D9000CF90BF90AF909F908F907F906F905F901B
:100DA0004F903F902F9008950F931F93E9E4F2E046
:100DB000E4910E2F10E030E020E060177107820709
:100DC000930729F1EAE4F2E0E4910E2F10E030E01D
:100DD00020E06017710782079307E1F0EBE4F2E08F
:100DE000E4910E2F10E030E020E0601771078207D9
:100DF000930799F422E030E04CE0429FC001439F0A
:100E0000900D11248B5D9D4F1F910F91089530E03F
:100E100020E0F2CF21E030E0EFCF90E080E0F4CFAF
:100E2000FC01638170E090E080E00E94D4060097AE
:100E300041F00B96FC018491813019F480E890E038
:100E4000089580E891E00895CF92DF92EF92FF92AB
:100E50000F931F93CF93DF938C017C0180EBE81AF3
:100E60008BEFF80AD701ED91FC9141E060E870E06A
:100E7000C801099562E370E080E090E00E94E5021D
:100E8000D701ED91FC9141E062E070E0C801099565
:100E900064E670E080E090E00E94E5026801B4EB57
:100EA000CB1ABBEFDB0AD601ED91FC9140E050E09C
:100EB000BA01C8010995C82FD0E0DC2FCC27D60194
:100EC000ED91FC9141E050E060E070E0C8010995CF
:100ED000C82BD701ED91FC9140E066E871E0C801B4
:100EE0000995CE01DF91CF911F910F91FF90EF9067
:100EF000DF90CF900895EF92FF920F931F93E22F10
:100F00002223C1F0A82FB0E09A01AB010E94E22F8A
:100F10009B01AC01AE2FB0E00E94E22FE616F7066F
:100F20000807190710F4C801B7011F910F91FF902E
:100F3000EF90089560E070E0CB01F7CFCF92DF92A1
:100F4000EF92FF920F931F93CF93DF938C016AE090
:100F500070E080E090E00E94E502780184EBE81AFE
:100F60008BEFF80AD701ED91FC9145E555E560E07E
:100F700070E0C8010995C82FD0E283E2C82ED12CB9
:100F8000C6010197F1F7D701ED91FC9145E555E5D3
:100F900060E070E0C8010995C827C6FF03C0D150C2
:100FA000C82F71F7DF91CF911F910F91FF90EF90B4
:100FB000DF90CF900895CF93DF93EC0120E030E0F5
:100FC000A901E99180ED8E0F8A3028F0CA01B9019C
:100FD000DF91CF910895AAE0B0E00E94E22F2E2F7A
:100FE000EE0F330B20533109032E000C440B550B2D
:100FF000260F371F481F591FE4CF0E94180368515E
:101000007C4F8F4F9F4F6093640270936502809373
:1010100066029093670208956F927F928F929F92DB
:10102000AF92BF92CF92DF92EF92FF920F931F93F6
:10103000CF93DF93009709F4A0C07B01FC01CB01A3
:101040000995F7018281813008F49AC0833008F451
:101050006BC0833009F094C0EF5DFB4FA080B1807E
:10106000E701A1964E01DE01612CCD018C1B9D0B89
:101070008A159B0540F4ED916E26E62DF0E0EB5DC0
:10108000FE4F6490F2CFD12CC12C712C10E000E007
:10109000CA14DB0450F5F40181914F0161E0670D42
:1010A000FFEFCF1ADF0A811113C085E092E00E94A2
:1010B0007004772049F0472D50E0BE01600F711F8A
:1010C00085E092E00E94EB03860160E0762EE0CF9F
:1010D0006E3FE1F76FEF85E092E00E947004BE0181
:1010E000600F711F4EEF50E0EBCF611033C061E035
:1010F000670D85E092E00E947004772049F0472D4B
:1011000050E0BE01600F711F85E092E00E94EB038A
:1011100061E085E092E00E94700460E085E092E08A
:101120000E9470040E940B020E94FD0781E0F701FB
:10113000828390E080E0DF91CF911F910F91FF902B
:10114000EF90DF90CF90BF90AF909F908F907F9067
:101150006F90089562E0670D85E092E00E94700450
:10116000772049F0472D50E0BE01600F711F85E0E8
:1011700092E00E94EB03662DCCCF81E090E0DBCFC4
:101180008FEF9FEFD8CFDF92EF92FF920F931F93D5
:10119000CF93DF93C82FD62ED72F142FECE1F1E099
:1011A000649185E092E00E947004EDE1F1E06491C9
:1011B00085E092E00E947004EEE1F1E0649185E048
:1011C00092E00E947004EFE1F1E0649185E092E02A
:1011D0000E947004E12EF12CC7010296692F85E070
:1011E00092E00E94700462E0610F85E092E00E944C
:1011F00070046C2F85E092E00E947004EC2FF0E008
:10120000EB5DFE4FC4910D2D1D2FE00EF11E0E154E
:101210001F0579F0F801D1918F016D2F85E092E0E3
:101220000E947004EC2FED27F0E0EB5DFE4FC491BF
:10123000EECF6C2F85E092E00E9470046AE085E0BA
:1012400092E00E947004DF91CF911F910F91FF9067
:10125000EF90DF900C940B024F925F926F927F920F
:10126000AF92BF92CF92DF92EF92FF920F931F93B4
:10127000CF93DF93CDB7DEB728970FB6F894DEBFD4
:101280000FBECDBFFC018181418552856385748588
:1012900086FD5BC0806481834093F9015093FA011D
:1012A0006093FB017093FC011186128613861486ED
:1012B0008F01C184D284E384F4842601370188E05D
:1012C000580E611C711C5F01A4EBAA1AABEFBA0A9D
:1012D000F80185819681A781B085C414D504E60400
:1012E000F70408F06DC0C816D906EA06FB0608F038
:1012F00067C0D501ED91FC91B701A601C801099520
:101300008F3F09F457C02701662477244982772745
:101310006F2D5E2D4D2D4A83CB828C83F8019081F9
:10132000943009F03FC041A242A3C3A284A384E049
:1013300090E0A0E0B0E0EF5DFB4F80839183A2835B
:10134000B383D80112961C9218C00581168127819B
:101350003085401751076207730708F4A9CF8F7BC8
:1013600081838091F9019091FA01A091FB01B091E4
:10137000FC0181879287A387B48728960FB6F894DB
:10138000DEBF0FBECDBFDF91CF911F910F91FF90B8
:10139000EF90DF90CF90BF90AF907F906F905F9075
:1013A0004F90089544E0BE016F5F7F4F80EB0E9435
:1013B000C308C7CFBFEFCB1ADB0AEB0AFB0A88CF03
:1013C000F8014185528563857485585F6F4F7F4F63
:1013D00084179507A607B707E0F041875287638710
:1013E0007487F8012081243041F2218532854385BC
:1013F000548559834A833B832C83BD83AE839F836B
:10140000888748E0BE016F5F7F4F80EE0E94C3086F
:10141000B4CF81879287A387B487E3CF4F925F923F
:101420006F927F92AF92BF92CF92DF92EF92FF9234
:101430000F931F93CF93DF9300D000D01F92CDB7AF
:10144000DEB78C017C0181E2E80EF11C412C512CAD
:1014500032016801AFEDCA1AABEFDA0A5801B4EBFA
:10146000AB1ABBEFBB0AF60180819181A281B381E7
:10147000481659066A067B0670F5D80119964D91F3
:101480005D916D917C911C97440D551D661D771DD6
:10149000D501ED91FC91C8010995F70191917F016A
:1014A000891769F1D80119964D915D916D917C91E3
:1014B0001C97440E551E661E771E99838A836B8285
:1014C0005C824D8245E0BE016F5F7F4F8FEA0E94D4
:1014D000C308F80112820F900F900F900F900F9099
:1014E000DF91CF911F910F91FF90EF90DF90CF9000
:1014F000BF90AF907F906F905F904F900895FFEFF7
:101500004F1A5F0A6F0A7F0AAECFFF920F931F93A5
:10151000CF93DF9300D000D0CDB7DEB7FC01858D2F
:10152000968D86179707A1F079836A839B838C83B6
:1015300089EB411183E8F42E8F0144E0BE016F5F17
:101540007F4F0E94C30880E0F11082E0F80182839F
:101550000F900F900F900F90DF91CF911F910F91EF
:10156000FF900895CF92DF92EF92FF920F931F9317
:10157000CF93DF93EC017C0186EBE81A8BEFF80A3E
:10158000D701ED91FC9120E940E050E0BA01CE0195
:1015900009956E01B4EBCB1ABBEFDB0AD601ED91D6
:1015A000FC9140E050E0BA01CE010995082F10E00F
:1015B000102F0027D601ED91FC9141E050E060E052
:1015C00070E0CE010995082BD701ED91FC912FEF2A
:1015D00040E050E0BA01CE0109954B8D4170B80151
:1015E000CE01DF91CF911F910F91FF90EF90DF908F
:1015F000CF900C94850ACF93DF93EC010E942407CF
:1016000040E0BC01CE01DF91CF910C94850A8F920E
:101610009F92AF92BF92CF92DF92EF92FF920F9381
:10162000CF93DF93CDB7DEB728970FB6F894DEBF20
:101630000FBECDBF5C017B0182E3E80EF11CFA0115
:10164000F296198288EE882E83E0982EC701B401A5
:101650000E940C306A831B8294E6C92ED12CC701EC
:10166000B6010E940C30CB013AE0E32EF12CB70119
:101670000E940C308C831D82CF01B4010E940C307B
:101680006E831F82CF01B6010E940C30CB01B701DF
:101690000E940C30888748E0BE016F5F7F4F822F29
:1016A0000E94C308F501028328960FB6F894DEBFA6
:1016B0000FBECDBFDF91CF910F91FF90EF90DF90E4
:1016C000CF90BF90AF909F908F900895CF92DF9270
:1016D000EF92FF920F931F93CF93DF93EC018B0157
:1016E0000E9418036B017C01C00ED11EE11CF11C8D
:1016F0008E01045B1B4F0E9418036C157D058E053F
:101700009F0580F5D801ED91FC9140E050E0BA01D1
:10171000CE01099587FFEFCF84FF1DC040E070E048
:1017200060E084EB0E94C3081A82FE01E65BFB4F77
:101730000190F081E02D2FEF40E050E0BA01CE01A2
:10174000099580E0DF91CF911F910F91FF90EF906D
:10175000DF90CF90089583FF0AC040E070E060E022
:1017600085EBE0CF40E070E060E086EBDBCF81E02E
:10177000E9CF3F924F925F926F927F928F929F92AA
:10178000AF92BF92CF92DF92EF92FF920F931F938F
:10179000CF93DF93EC018C010F5D1F4FC12CD12C37
:1017A00076014C018FED881A8BEF980A5E01A6EB4B
:1017B000AA1AABEFBA0AF40180819181A281B381A8
:1017C000C816D906EA06FB0640F549845A846B849C
:1017D0007C844C0C5D1C6E1C7F1CD8013D908D01DF
:1017E000D501ED91FC9120E4B301A201CE01099550
:1017F000D501ED91FC91232DB301A201CE010995F4
:1018000066E970E0CE010E94660B882331F0BFEFDD
:10181000CB1ADB0AEB0AFB0ACECFDF91CF911F91E7
:101820000F91FF90EF90DF90CF90BF90AF909F907F
:101830008F907F906F905F904F903F9008950F939F
:101840001F93CF93DF93EC01FC01E05BFB4F019012
:10185000F081E02D41E068E870E0099564EF71E007
:1018600080E090E00E94E5028E01065B1B4FD801EC
:10187000ED91FC9120E240E050E0BA01CE010995E3
:10188000D801ED91FC9120ED40E050E0BA01CE018D
:10189000099568E97AE3CE01DF91CF911F910F910D
:1018A0000C94660BBF92CF92DF92EF92FF920F9350
:1018B0001F93CF93DF9300D000D0CDB7DEB77C016C
:1018C000D42EC52EB62E122FFC01E05BFB4F0190EB
:1018D000F081E02D40E066E871E00995B982CA82A6
:1018E000DB821C8344E0BE016F5F7F4F802F0E942C
:1018F000C308F70112820F900F900F900F90DF91A5
:10190000CF911F910F91FF90EF90DF90CF90BF90FC
:101910000895CF93DF93EC018B8D87FF06C040E0E5
:1019200070E060E081E40E94C3089981892F8F7381
:101930008F5F907C892B898340E070E060E080E2DB
:10194000DF91CF910C94C3080F931F93CF93DF9334
:10195000CDB7DEB728970FB6F894DEBF0FBECDBF68
:101960008C01FC01EA5BFB4FBC01808191810E94EC
:101970000C08F8012081243009F044C00196F1F4EC
:10198000F801EF5DFB4F80819181A281B3810497C3
:10199000A105B10539F4B8016F5D7F4F44E080EBDC
:1019A0000E94C30880E028960FB6F894DEBF0FBEF1
:1019B000CDBFDF91CF911F910F910895F8018181E3
:1019C00086FF17C041855285638574858581968120
:1019D0002781308579836A835B834C833D832E83A3
:1019E0009F83888748E0BE016F5F7F4F80EE0E9433
:1019F000C308F801818186FD03C0C8010E94890CDB
:101A000081E0D1CF0196A9F7CDCFCF93DF9300D05E
:101A100000D0CDB7DEB779836A835B834C8344E023
:101A2000BE016F5F7F4F0E94C3080F900F900F9011
:101A30000F90DF91CF9108952F923F924F925F9236
:101A40006F927F928F929F92AF92BF92CF92DF92CE
:101A5000EF92FF920F931F93CF93DF93CDB7DEB733
:101A60006E970FB6F894DEBF0FBECDBF1C01DC0130
:101A70005F968D919C919C01215031092115B2E016
:101A80003B0790F428233923232B09F0EBC0B0E067
:101A9000A0E09C01AD0121503109410951092B877A
:101AA0003C874D875E8708C08FE390E0A0E0B0E000
:101AB0008B879C87AD87BE870E94C002698B7A8B1B
:101AC0008B8B9C8BA1014F5D5F4F5A8F498F412CAF
:101AD000512C32011F82188619861A86C12CD12CEE
:101AE0007601C1018F5D9B4F9C8F8B8FD101A65BCF
:101AF000BB4FBE8FAD8FF101E45BFB4FF88BEF87DF
:101B0000EB8DFC8D80819181A281B38148165906AD
:101B10006A067B0608F086C0D10119968D909D90CB
:101B2000AD90BC901C97840C951CA61CB71CE98D2D
:101B3000FA8D2191FA8FE98F2E83AD8DBE8DED91B7
:101B4000FC91B501A401C10109950E94C0026D8BF1
:101B50007E8B8F8B988FDC01CB0129893A894B8949
:101B60005C89821B930BA40BB50B2F8138854985AB
:101B70005A85281739074A075B0720F48F8398870F
:101B8000A987BA87D501C4010196A11DB11D2B8576
:101B90003C854D855E8582239323A423B523892B21
:101BA0008A2B8B2B79F0EB8DFC8D80819181A2812A
:101BB000B3810197A109B10984159505A605B7055B
:101BC00009F08AC000ED17E083E290E00197F1F799
:101BD000AF85B889ED91FC91B501A401C1010995CA
:101BE0009E81982797FD0CC0AF85B889ED91FC9137
:101BF000B501A401C10109959E81982797FF3CC0BA
:101C00000150110909F7A9829A828B82BE81BC8397
:101C10008D8345E0BE016F5F7F4F82EB0E94C3085A
:101C2000F10112824F81588569857A8582E60E948A
:101C3000050D6E960FB6F894DEBF0FBECDBFDF91D7
:101C4000CF911F910F91FF90EF90DF90CF90BF90B9
:101C5000AF909F908F907F906F905F904F903F904C
:101C60002F9008952FE330E040E050E018CFFFEFD1
:101C7000CF1ADF0AEF0AFF0A4C145D046E047F04DA
:101C800020F1F101EC0DFD1D11A1D10119968D90EE
:101C90009D90AD90BC901C978C0C9D1CAE1CBF1CE5
:101CA000AF85B889ED91FC91B501A401C1010995F9
:101CB0001817E9F219838A83AB829C828D8245E0F2
:101CC000BE016F5F7F4F8FEAA9CF730162012FEFD3
:101CD000C21AD20AE20AF20A3FEF431A530A630A0F
:101CE000730A8D899E89AF89B88D898B9A8BAB8B4E
:101CF000BC8B06CFCF93DF9300D0CDB7DEB779830F
:101D00006A8342E0BE016F5F7F4F0E94C3080F905D
:101D10000F90DF91CF910895CF93DF931F92CDB7AE
:101D2000DEB7698341E0BE016F5F7F4F0E94C30849
:101D30000F90DF91CF91089585E092E00C948A0492
:101D400085E092E00C94CC04CF92DF92EF92FF9268
:101D5000CF93C82F0E94A00E18161906E4F0CC23CA
:101D6000A1F00E9418036B017C010E94A00E1816BE
:101D700019068CF00E9418036C197D098E099F09C1
:101D8000683E73408105910580F3CF91FF90EF90FD
:101D9000DF90CF9008950E949C0E97FDF6CF8111A1
:101DA000D9CFF3CF4F925F926F927F929F92AF9273
:101DB000BF92CF92DF92EF92FF920F931F93CF9338
:101DC000DF937C016B0100E0B12CA12C912C10E081
:101DD000D0E0C0E00E94A00E18161906CCF00E94B8
:101DE00018032B013C010E94A00E1816190684F05E
:101DF0000E9418036419750986099709683E7340A3
:101E00008105910580F380E00E94A40E8FEF19C038
:101E10000E949C0E97FF02C081E0F6CF282F81110F
:101E200005C0112309F44FC08DEF0BC0112379F1C8
:101E3000BB20E9F0CC15DD05A8F081E00E94A40EDE
:101E40008EEF9FEFDF91CF911F910F91FF90EF9059
:101E5000DF90CF90BF90AF909F907F906F905F90FA
:101E60004F900895F701EC0FFD1F008321968FEF2F
:101E7000810FBB24B394811107C0B92C911004C009
:101E8000BB24B394AA24A394022F182FA3CFAA2073
:101E9000B1F0BB20B1F0CC15DD0578F6F701EC0F01
:101EA000FD1F00832196992493942F3F09F0912CD4
:101EB0008150AA24A3948111A12C212FE5CF102FAA
:101EC000F2CFBA2CF0CFBB2009F4A0CFD701C701C5
:101ED0008C0F9D1FA817B90741F0ED911E27E12F28
:101EE000F0E0EB5DFE4F1491F5CFCE01011709F440
:101EF000A9CF8CEFA6CF8EE580937C0062E070E0E6
:101F000080E090E00E94E50280917A0080648093F6
:101F10007A0080917A0086FDFCCF20917800609154
:101F2000790070E0762F6627072E000C880B990B3E
:101F3000622B08954F925F926F927F928F929F9241
:101F4000AF92BF92CF92DF92EF92FF92CF93DF9347
:101F5000C0905B02D0905C02E0905D02F0905E0267
:101F600080905F0290906002A0906102B090620247
:101F700081E08093110184E10E948D02EC010E94B6
:101F80007B0F2B013C01411451046104710409F4DD
:101F900041C081149104A104B104E1F1A7019601AB
:101FA000280D391D4A1D5B1D213682E838078BE359
:101FB0004807510578F5ACE4B4E00E94E22FA50192
:101FC00094010E9420302115310580E44807510515
:101FD00008F5DE010E94673073016201F694E79410
:101FE000D794C7946C0D7D1D8E1D9F1DA30192017A
:101FF0000E942030C901DF91CF91FF90EF90DF90D8
:10200000CF90BF90AF909F908F907F906F905F9098
:102010004F90089590E080E0EECF8AB180768AB943
:102020003E986E9808958AB18F698AB93E9A6E9AE1
:1020300008954F925F926F927F928F929F92AF928C
:10204000BF92CF92DF92EF92FF920F93CF93DF93E5
:102050006C017B014A01822F40E070E060E00E9449
:10206000C3080E94C0022B013C010E941310E7012B
:10207000F12CE12C560186EBA81A8BEFB80A4881A7
:1020800059816A817B81D501ED91FC912C81C6013A
:102090000995BFEFEB1AFB0A25968E149F0479F77A
:1020A0000E94C0026B017C01C418D508E608F7083D
:1020B000B701A601802F0E94050D9401A4E6B0E0AF
:1020C0000E94ED2F6C157D058E059F05A0F4B701CC
:1020D000A60187E8DF91CF910F91FF90EF90DF90FD
:1020E000CF90BF90AF909F908F907F906F905F90B8
:1020F0004F900C94050DDF91CF910F91FF90EF90D1
:10210000DF90CF90BF90AF909F908F907F906F9017
:102110005F904F9008950F93CF93DF93EC010FE5FD
:102120002EE546E050E061E271E00E941910CE0118
:10213000DF91CF910F910C949E070F931F93CF9334
:10214000DF93EC010E948B100E9413108E01065B3E
:102150001B4FD801ED91FC912AEA45E555E560E079
:1021600070E0CE010995D801ED91FC9125E54AEA90
:102170005AE260E070E0CE010995D801ED91FC9142
:1021800020E845E555E560E070E0CE010995D8010D
:10219000ED91FC912AEA45E555E560E070E0CE015D
:1021A0000995D801ED91FC9125E54AEA5AE260E0F3
:1021B00070E0CE010995D801ED91FC9120E145E553
:1021C00055E560E070E0CE01099564E170E080E0E3
:1021D00090E0DF91CF911F910F910C94E5020F9346
:1021E00001E620E643E050E062E171E00E94191050
:1021F0006AE070E080E090E00F910C94E5028F922D
:102200009F92AF92BF92CF92DF92EF92FF920F9385
:102210001F93CF93DF93EC018D8D9E8D892BE1F47D
:102220008B8D9C8D90FD92C00FE52EE546E050E031
:1022300061E271E0CE010E941910CE01DF91CF91D1
:102240001F910F91FF90EF90DF90CF90BF90AF90D4
:102250009F908F900C949E074D815E816F81788551
:102260004034510561057105E8F48B8D80FF15C080
:1022700084E80E94050D82E08A838A818111D0CF93
:10228000DF91CF911F910F91FF90EF90DF90CF9052
:10229000BF90AF909F908F9008958AEB0E94050D9C
:1022A0001A82EBCF7E0180EBE81A8BEFF80AD70198
:1022B000ED91FC9141E060E870E0CE01099562E3A8
:1022C00070E080E090E00E94E502D701ED91FC9182
:1022D00041E062E070E0CE01099564E670E080E0E4
:1022E00090E00E94E5028D809E80AF80B884B501A9
:1022F000A40140545109610971096E01B4EBCB1A74
:10230000BBEFDB0AD601ED91FC91CE010995082FB8
:1023100010E0102F0027B501A4014F5351096109A6
:102320007109D601ED91FC91CE010995082BD701D9
:10233000ED91FC9140E062E870E0CE0109954B8D93
:102340004170B801CE010E94850A97CF40E070E04D
:1023500060E086E8DF91CF911F910F91FF90EF90A1
:10236000DF90CF90BF90AF909F908F900C94C30858
:1023700069B1000096B100008CB1462F50E09A017F
:1023800035952795359527952370FA01EE0FFF1F98
:10239000E4702E2B6071262BBA01B3E0660F771F15
:1023A000BA95E1F76870262B96959072292B559572
:1023B00047954074242B880F8078822B0895CF9303
:1023C000C82F0E9413102C2F30E0A9015595479576
:1023D000C901880F991F9BB1C0719076C92BB901B3
:1023E000660F771F660F771F6C70C62B942F927045
:1023F000C92B23FB222720F92C2B982F9078292BEF
:102400002BB998B19F7B8074982B98B98EB18F7B34
:102410004074842B8EB9CF9108959091F601662374
:10242000C9F0892B8093F60194E0899F90011124D3
:1024300095B19F708295807F892B85B99BB19F7BD9
:10244000822F8074982B9BB988B18F772078822B4C
:1024500088B9089580958923E5CF61E084E00C94E4
:102460000D1261E080E20C940D1260E080E20C94A9
:102470000D12CF92DF92EF92FF921F93CF93DF93D3
:10248000EC016A017B01122F0E942D1220E0B7019E
:10249000A601CE010E941006AB01BC01FE01E25B69
:1024A000FB4F0190F081E02DCE010995812F0E9414
:1024B000DF1187E090E00197F1F70E9435126F85F8
:1024C000788989899A890E949005DF91CF911F911F
:1024D000FF90EF90DF90CF900C943112CF92DF926B
:1024E000EF92FF92CF93DF93EC016A017B0160E0F2
:1024F00084E00E940D1221E0B701A601CE010E94E6
:102500001006AB01BC01FE01E25BFB4F0190F081C4
:10251000E02DCE0109950E940D108B899C89AD8913
:10252000BE890097A105B10561F0893E23E09207BD
:10253000A105B10520F088EE93E0A0E0B0E00E9494
:10254000B5020E9435128F89988DA98DBA8D00979A
:10255000A105B105C9F0893E23E09207A105B105A7
:1025600020F088EE93E0A0E0B0E00E94B5020E9467
:10257000B811C82F0E9431128C2FDF91CF91FF909C
:10258000EF90DF90CF90089583E090E0A0E0B0E07E
:10259000ECCFEF92FF920F931F93CF93DF93EC0159
:1025A00021E040E050E0BA010E941006AB01BC01FE
:1025B0007E0182EBE81A8BEFF80AD701ED91FC91CE
:1025C000CE0109950E9431128E01005B1B4FD8018C
:1025D000ED91FC9140E064E871E0CE01099562E084
:1025E00070E080E090E00E94E5020E943512D80180
:1025F000ED91FC9141E064E871E0CE01099562E063
:1026000070E080E090E00E94E50220E040E050E0D1
:10261000BA01CE010E941006AB01BC01D701ED91B9
:10262000FC91CE01099564E170E080E090E00E94A9
:10263000E50221E040E050E0BA01CE010E94100620
:10264000AB01BC01D701ED91FC91CE01099562E08F
:1026500070E080E090E00E94E5020E943112D80113
:10266000ED91FC9140E064E871E0CE01DF91CF9103
:102670001F910F91FF90EF900994FC01218126FD9D
:1026800011C02281222371F0238D21FF0BC022FF74
:102690000C94C91227FF06C040E070E060E088E5B6
:1026A0000C94C30808950F931F93CF93DF93EC010D
:1026B0000E942D128E01005B1B4FD801ED91FC9101
:1026C00041E060E870E0CE01099564E670E080E0EA
:1026D00090E00E94E502FE01E25BFB4F0190F08179
:1026E000E02D40E050E0BA01CE010995D801ED910E
:1026F000FC9141E066E070E0CE01099564E670E08F
:1027000080E090E00E94E5020E94351260EA76E8DF
:1027100081E090E00E9490050E943112D801ED9175
:10272000FC9140E066E871E0CE01DF91CF911F910E
:102730000F9109940C945313CF930E940D100E9493
:10274000351260E084E00E940D120E94B811C82F7B
:102750000E9431120E942D128C2FCF9108958091EA
:1027600063028F3F11F48091100108950F931F931E
:10277000CF938B0101771127FC01C481C03228F06F
:102780000E94AF138250843088F48EE891E020914B
:1027900000013091010182239323802B912BCC31B6
:1027A00009F48061CF911F910F9108958EE890E018
:1027B000EECF4F925F926F927F92AF92BF92CF9285
:1027C000DF92EF92FF920F93CF93DF93EC016C01B6
:1027D00080EBC81A8BEFD80AD601ED91FC9141E04D
:1027E00068E870E0CE01099564EF71E080E090E068
:1027F0000E94E5020E94AF13811120C040E070E00A
:1028000060E080E80E94C30882E08A838A818111A7
:102810004AC0D601ED91FC9140E068E870E0CE013D
:10282000DF91CF910F91FF90EF90DF90CF90BF900D
:10283000AF907F906F905F904F9009940E949A0F95
:102840005C012C01712C612CED84FE84C701B0E089
:10285000A0E08C509E4FAF4FBF4F84159505A60545
:10286000B70568F48B8D02E022E880FD02C000E02D
:1028700028EBA701B501CE010E94070BC7CF970136
:10288000AFE5B0E00E94ED2F24E630E040E050E0FC
:102890000E942030421653066406750608F0B6CF33
:1028A00002E021E8E6CF8D8D9E8D892B39F0CE0197
:1028B0000E94B20A8A81882309F4ABCF8B8D81FFF5
:1028C00005C082FD03C0CE010E941F0C8B8D83FDCD
:1028D00010C0CE01DF91CF910F91FF90EF90DF906C
:1028E000CF90BF90AF907F906F905F904F900C947F
:1028F0002C09DF91CF910F91FF90EF90DF90CF9057
:10290000BF90AF907F906F905F904F9008954F92DF
:102910005F926F927F92AF92BF92CF92DF92EF92CF
:10292000FF920F93CF93DF93EC010E94AF138111BD
:1029300016C040E070E060E080E80E94C30882E0DA
:102940008A83DF91CF910F91FF90EF90DF90CF902E
:10295000BF90AF907F906F905F904F9008955E0111
:1029600080EBA81A8BEFB80AD501ED90FC908B8D07
:1029700084FD43C0CE010E94100741E0BC01CE019E
:10298000F701099564E670E080E090E00E94E502BE
:102990000E949A0F6C012C01712C612CED84FE8435
:1029A000C701B0E0A0E08C509E4FAF4FBF4F8415E1
:1029B0009505A605B70520F58B8D00E028EB80FF77
:1029C00002C002E022E8A701B601CE010E94070B77
:1029D000D501ED91FC9140E066E871E0CE01DF9118
:1029E000CF910F91FF90EF90DF90CF90BF90AF907D
:1029F0007F906F905F904F90099480E890E0BDCFFA
:102A00009701AFE5B0E00E94ED2F24E630E040E012
:102A100050E00E9420304216530664067506C0F648
:102A200002E021E8D0CF1F93CF93DF93EC010E9407
:102A300087148A818823C1F08D8D9E8D892BA1F00A
:102A40008B8D9C8D880F991F182F1270CE010E94BC
:102A5000240741E0111101C040E0BC01CE01DF912B
:102A6000CF911F910C94850ADF91CF911F9108950A
:102A7000CF93DF93EC01898186FD0EC0CE010E94C9
:102A800013158A81882389F08B8D81FF05C082FD13
:102A900019C0CE010E9453138B8D83FD03C0CE015C
:102AA0000E942C098A81811116C0FE01E05BFB4F58
:102AB0000190F081E02D40E066E871E0CE01DF9109
:102AC000CF91099487FFE8CF40E070E060E088E5AF
:102AD0000E94C308E1CFDF91CF9108950C94871431
:102AE000CF93DF93EC010E94AF138230C0F08630A9
:102AF000D0F48D2F81709C2F9E7D892B9E01369561
:102B00002795369527952870822B25E0CC0FDD1F61
:102B10002A95E1F7C0728C2BDF91CF9108958D2F0C
:102B200081708C2BF9CF80E0F7CFBF92CF92DF92EC
:102B3000EF92FF920F931F93CF93DF93CDB7DEB742
:102B4000C854D1090FB6F894DEBF0FBECDBF7B01CC
:102B5000B42EFC0101900020E9F731971E2F181BBD
:102B60001F3008F01EE01983C12ED12CA601BC0134
:102B7000CE0102960E946F30E2E0F0E0EC0FFD1F04
:102B8000EC0DFD1DE0828091180487FF08C042E033
:102B9000410FBE016F5F7F4F82E50E94C30829E0AD
:102BA00060ED71E0B21202C062EB71E0FB010190D6
:102BB0000020E9F731978F01061B170B0983A80145
:102BC0005527CE0102960E946F308091180487FF2E
:102BD00008C041E0400FBE016F5F7F4F83E50E9458
:102BE000C30889E0DE011196B8120AC08CE7898318
:102BF00080E28A8380E3F0FC81E38B83DE0114961C
:102C0000FD0187E090E03CE740E230834183B7017B
:102C1000082E02C0769567950A94E2F720E360FDDE
:102C200021E32283019733968F3F980771F78CE752
:102C300058968C93589759961C92BE016F5F7F4FA0
:102C4000FB0101900020E9F731971E2F161B10326F
:102C500008F01FE119A7412F50E0CE018A960E948B
:102C60006F308091180487FF08C041E0410FBE011A
:102C7000675D7F4F84E50E94C308C85BDF4F0FB6D6
:102C8000F894DEBF0FBECDBFDF91CF911F910F91A2
:102C9000FF90EF90DF90CF90BF900895CF93DF9398
:102CA000C82FCB01C230F1F0C83019F1C130B9F4EE
:102CB00020910301261799F060930301D0E00E9450
:102CC000DF1161E08C2F0E940D1260E08C2F0E94BA
:102CD0000D12DD2321F08BE090E00197F1F7DF91F9
:102CE000CF910895209102012617C9F36093020144
:102CF000E5CF20910001309101012617370779F3C4
:102D000028703327D1E0AB0148705527421753078D
:102D100008F0D0E090930101809300010E947015AB
:102D2000CECF0E94311270E060E088E00E944E1623
:102D300070E060E081E00E944E1670E060E082E0AA
:102D40000E944E161092FD030895EF92FF920F938A
:102D50001F93CF93DF938C01D42FC52F7B01642F5A
:102D600070E081E00E944E166C2F70E082E00E94BD
:102D70004E164D2F5C2FB701C8010E94B613BC013F
:102D800088E0DF91CF911F910F91FF90EF900C940D
:102D90004E16AF92BF92CF92DF92EF92FF920F93B7
:102DA0001F93CF93DF93EC017C018CEBE81A8BEF40
:102DB000F80AF701118210828E010A5B1B4FF8019D
:102DC000118210826E01F8EBCF1AFBEFDF0AF601D9
:102DD000118210828881823009F449C0863009F45A
:102DE00049C0813029F480E395E0F8019183808324
:102DF0008EE692E1FE01E45BFB4F9183808389E3E1
:102E000092E132979183808385EA96E134969183AB
:102E100080835E01F0EBAF1AFBEFBF0A87E698E113
:102E2000F501918380838EEA95E0329691838083C9
:102E300040E050E0BA01CE010E94A5166B816031DE
:102E4000D1F589EB95E0F601918380838881833009
:102E500061F198F48230F1F0DF91CF911F910F91E1
:102E6000FF90EF90DF90CF90BF90AF90089586EEE7
:102E700094E0BBCF8EE09AE0B8CF8430C9F08530C3
:102E800059F7F70111821082F6011182108282EB4C
:102E90009AE007C089ED93E1F7019183808389EB84
:102EA0009BE0F80191838083D7CF8FE19CE0F9CF3D
:102EB0008CE299E0F6CF6D3011F51F86188A198AD9
:102EC0001A8A88818430A1F338F4823069F0833023
:102ED00019F68DE990E1E5CF893071F08A3009F07B
:102EE000BBCF8FEE90E1DDCF8FEF90E1F7019183C3
:102EF00080838CE19DE0D5CF8BE890E1D2CF663026
:102F000039F583E19BE1F7019183808388818430E7
:102F100079F240F4823081F0833009F09DCF8DE169
:102F20009BE1BFCF853079F0803109F095CF1182D8
:102F3000108286E199E1B5CF8DE79BE19183808393
:102F400087E29AE1AECF118210828BE19BE1A9CF9B
:102F5000653021F0653311F0693319F588818430CB
:102F600009F4A6CF40F4823071F0833009F074CFB9
:102F700089EC92E196CF853071F0803109F06CCF09
:102F80008EEE98E18ECF8DE393E1F70191838083FC
:102F90008DE399E186CFF7011182108281E19BE1F7
:102FA00080CF89EF860F823018F06B3009F07DC03A
:102FB00083E195E1F701918380838881833009F46F
:102FC00049C0A8F58230F1F1F5018081918190939B
:102FD000F8018093F70182EF95E0918380838F85DC
:102FE0009889A989BA89892B8A2B8B2BA1F484E62D
:102FF00090E0A0E0B0E0683051F084EF91E0A0E014
:10300000B0E06B3021F088EE93E0A0E0B0E08F8775
:10301000988BA98BBA8B70E090E080E00E94D40678
:10302000009749F56B818BEB0E948C0E3CC084307D
:10303000F9F0853049F68EE695E1918380838BEF38
:103040009AE006C088E395E1918380838EEC9BE152
:10305000F8010BC08AE993E1F801918380838B8D9D
:1030600083FDB2CF8CE299E0F60191838083ACCFEF
:103070008CE299E0EDCFFC01349685919591A59174
:10308000B4910097A105B10509F4E6CE4F855889A2
:1030900069897A8984179507A607B70708F0DCCEF7
:1030A0008EEA0E94050D1A82D7CE6E3009F4D4CE76
:1030B00089ED860F833008F4CFCEF701118210829C
:1030C000F80111821082F60111821082ACCF80913A
:1030D000000190910101442329F0682B792B88E0AD
:1030E0000C944E166095709568237923F8CF7F92E3
:1030F0008F929F92AF92BF92CF92DF92EF92FF9208
:103100000F931F93CF93DF938C017B015A016C01C6
:1031100080EBC81A8BEFD80AD601ED91FC9140E004
:1031200060E470E0C8010995E701F12CE12C7C8096
:10313000888099800E941310682D70E081E00E94C1
:103140004E16692D70E082E00E944E16872D0E9477
:10315000DF110E942D120E9435120E943112BFEF22
:10316000EB1AFB0A2596AE14BF0409F7D601ED91C0
:10317000FC9140E060E470E0C801DF91CF911F91C5
:103180000F91FF90EF90DF90CF90BF90AF909F9006
:103190008F907F9009941F93CF93DF93EC0143E0CE
:1031A00050E063EA71E00E947718FE01E45BFB4F98
:1031B0000190F081E02D42E050E060E070E0CE014F
:1031C0000995182F43E050E064E971E0CE010E94B8
:1031D0007718812FDF91CF911F9108950F931F933F
:1031E000CF93DF9300D0CDB7DEB78C010E94CB1810
:1031F00089838F3F91F41A8281E0F801828342E053
:10320000BE016F5F7F4F81EE0E94C3080F900F9049
:10321000DF91CF911F910F9108958E3F19F481E0B6
:103220008A83EBCF8FEF8A8382E0E7CF0F931F93E0
:10323000CF93DF9300D0CDB7DEB78C010E94CB18BF
:103240008983811112C01A8281E0F801828342E0F1
:10325000BE016F5F7F4F81EE0E94C3080F900F90F9
:10326000DF91CF911F910F910895813011F48A83DE
:10327000ECCF8FEF8A8382E0E8CF2F923F924F927C
:103280005F926F927F928F929F92AF92BF92CF92F6
:10329000DF92EF92FF920F931F93CF93DF93CDB7FF
:1032A000DEB72E970FB6F894DEBF0FBECDBF8C01F0
:1032B000FC0185819681A781B08520E4822E912C26
:1032C000A12CB12C81309105F1E0AF07B10568F078
:1032D00030E8832E912CA12CB12C0197A440B1058C
:1032E00020F0812C912C54019394C80181969887E9
:1032F0008F83412C512C3201D801AF5DBB4FBA876F
:10330000A987F801E65BFB4FFC87EB87855D9B4F48
:103310009E878D87E985FA8580819181A281B3811D
:10332000481659066A067B0608F072C0D80119963D
:10333000CD90DD90ED90FC901C97C40CD51CE61C44
:10334000F71CEF81F8852191F887EF832E83C70161
:10335000B601A50194010E942030672B682B692BD0
:1033600029F0411451046104710439F443E050E040
:103370006FE371E0C8010E947718AB85BC85ED91C1
:10338000FC912E81B701A601C8010995C701B601BC
:103390006F5F7F4F8F4F9F4FA50194010E94203098
:1033A000672B682B692B79F0E985FA8580819181FB
:1033B000A281B3810197A109B10984159505A605DC
:1033C000B70509F03EC0212C84E0382E83E290E05E
:1033D0000197F1F7AD85BE85ED91FC91B701A6018E
:1033E000C8010995BE81B81761F1E1E02E1A3108D4
:1033F00069F7B983EA82DB82CC828D8345E0BE0126
:103400006F5F7F4F83EB0E94C308D80112961C9216
:103410002E960FB6F894DEBF0FBECDBFDF91CF91D1
:103420001F910F91FF90EF90DF90CF90BF90AF90E2
:103430009F908F907F906F905F904F903F902F90D4
:103440000895BFEF4B1A5B0A6B0A7B0A63CF2F927A
:103450003F924F925F926F927F928F929F92AF9224
:10346000BF92CF92DF92EF92FF920F931F93CF9371
:10347000DF9300D01F92CDB7DEB79B838A838C0188
:10348000412C512C32011C012FED221A2BEF320A54
:103490004C0186EB881A8BEF980A580190EBA91A19
:1034A0009BEFB90AF10180819181A281B381481615
:1034B00059066A067B0608F063C043E050E06EE4FC
:1034C00071E08A819B810E947718AA81BB8119963D
:1034D0004D915D916D917C911C97440D551D661D1C
:1034E000771DD401ED91FC91D80191962C918A81A0
:1034F0009B810995F801F1A1F983D501ED91FC912A
:1035000041E060E470E08A819B8109950E94180384
:103510006B017C01B6E9CB0ED11CE11CF11C0E94B1
:1035200018036C157D058E059F05F8F40E949C1309
:10353000E9818E2787FDF3CF0E949C13F9818F27A5
:1035400087FDEDCF0E9413100E9431120E942D12B0
:103550000F5F1F4FEA81FB818281882389F0FFEF93
:103560004F1A5F0A6F0A7F0A9DCF40E070E060E06B
:1035700087EB0E94C308AA81BB8112961C92E8CFF8
:103580000F900F900F90DF91CF911F910F91FF90AF
:10359000EF90DF90CF90BF90AF909F908F907F90F3
:1035A0006F905F904F903F902F900895EF92FF9211
:1035B0000F931F93CF93DF93EC0143E050E063EA56
:1035C00071E00E9477187E0184EBE81A8BEFF80A0D
:1035D000D701ED91FC9140E050E0BA01CE01099590
:1035E000082F10E0102F0027D701ED91FC9141E04A
:1035F00050E060E070E0CE010995082B43E050E018
:1036000064E971E0CE010E9477184B8D4170B801DA
:10361000CE01DF91CF911F910F91FF90EF900C940D
:10362000850A0C94D61AFC01258D368D232B11F0BA
:103630000C94D61A08950C94D61ACF92DF92EF927A
:10364000FF920F931F93CF93DF93CDB7DEB76E97A3
:103650000FB6F894DEBF0FBECDBFFC010185128509
:103660002385348546E050E06DE571E001151105D4
:103670002105310589F145E555E560E070E04983B4
:103680005A836B837C83FAEAFD83EAEACE2EEAE270
:10369000DE2EE12CF12CCE82DF82E886F986E5E58C
:1036A000EA874B875C876D877E87A0E8AF87488B6A
:1036B000598B6A8B7B8BFC8BCD8ADE8AEF8AF88EE6
:1036C000E98F40E34E8F0A8F1B8F2C8F3D8F46E092
:1036D00050E0BE016F5F7F4F0E9477186E960FB665
:1036E000F894DEBF0FBECDBFDF91CF911F910F9138
:1036F000FF90EF90DF90CF900895CF93DF93EC0190
:10370000898186FD07C08D8D9E8D892B59F48B8D07
:1037100081FD11C08B8D83FD0BC0CE01DF91CF9158
:103720000C942C09CE010E94D61A8A818111EFCF08
:10373000DF91CF91089582FD0AC0CE010E941D1B2A
:1037400069E670E080E090E00E94E502E3CF87FF49
:10375000E1CF40E070E060E089E50E94C308DACF85
:10376000FF920F931F93CF93DF938C01C0E3D0E0C0
:10377000F801F1908F01CE010E94CC2FF81621F0B4
:103780006F2DCE010E94D42F2196CF33D10581F722
:10379000DF91CF911F910F91FF9008952F923F924B
:1037A0004F925F926F927F928F929F92AF92BF9251
:1037B000CF92DF92EF92FF920F931F93CF93DF93FD
:1037C000CDB7DEB7C05BD1090FB6F894DEBF0FBE30
:1037D000CDBF7C01FC01EE5AFB4F0190F081E02D42
:1037E00060E870E00995811118C0F701E05BFB4FBC
:1037F00000811181D7015B968C9184FDA8C1C7011E
:103800000E94100741E0BC01C701F801099564EF6F
:1038100071E080E090E00E94E502D70113966C9180
:1038200070E090E080E00E94D406009709F4E3C1C4
:10383000FC0134962591359145915491CE55DF4F39
:10384000288339834A835B83C25AD040FC0138966F
:103850003491C656DF4F3883CA59D04032964491CE
:10386000C855DF4F4883C85AD040D7011F968D9165
:103870009D910D90BC91A02DC755DF4F88839983F2
:10388000AA83BB83C95AD0400E941803C256DF4F97
:10389000688379838A839B83CE59D040F701EF5D9B
:1038A000FB4F20813181C556DF4F39832883CB59A7
:1038B000D040FE01319680E8DF011D928A95E9F73C
:1038C000C357DF4F188219821A821B82CD58D0400D
:1038D000612C8F01F701E45BFB4FC355DF4FF98388
:1038E000E883CD5AD0409701205B3B4FCA55DF4F4C
:1038F00039832883C65AD040A701465B5B4FC15528
:10390000DF4F59834883CF5AD040D70119967C9016
:1039100019971A96BC91C956DF4FB883C759D04042
:10392000F701F385C856DF4FF883C859D040D70157
:103930001C96BC91C756DF4FB883C959D040CF56AB
:10394000DF4FF982E882C159D040CD56DF4FF9826E
:10395000E882C359D040212C312C2101D12CC12C1B
:10396000C556DF4FE881F981CB59D0402E163F066E
:1039700008F022C1C1018770992721E030E002C020
:10398000220F331F8A95E2F7CB56DF4F3983288306
:10399000C559D040A10193E0569547959A95E1F716
:1039A000C757DF4F59834883C958D040FA01E00F09
:1039B000F11F5081C557DF4F5883CB58D040522359
:1039C000C457DF4F5883CC58D040662019F0552398
:1039D00009F4AAC0CD56DF4FA881B981C359D040A0
:1039E0009196BC91C356DF4FB883CD59D04061103A
:1039F0005AC00E941803C256DF4F288139814A817C
:103A00005B81CE59D040621B730B840B950B683ED3
:103A100073408105910508F446C00E941803C25600
:103A2000DF4F688379838A839B83CE59D040F70127
:103A300081859285A385B485820D931DA41DB51D36
:103A40002581368147815085CF57DF4FB883C158D4
:103A5000D040CE57DF4FA883C258D040CD57DF4F5C
:103A60009883C358D040CC57DF4F8883C458D04088
:103A7000CB57DF4F5883C558D040CA57DF4F4883D4
:103A8000C658D040C957DF4F3883C758D040C857B1
:103A9000DF4F2883C858D04048E0BE016F577F4FA2
:103AA00080EE0E94C308C356DF4FF881CD59D04045
:103AB000FF3FD1F1D70119968D909D90AD90BC90AC
:103AC0001C97820C931CA41CB51CC355DF4FA88106
:103AD000B981CD5AD040ED91FC91B501A401C70147
:103AE0000995C356DF4FB881CD59D040B81332C0C5
:103AF000C457DF4FE881CC58D040EE23A9F0C75718
:103B0000DF4FE881F981C958D040E00FF11FCB5653
:103B1000DF4F8881C559D0408095C557DF4F288138
:103B2000CB58D040822380838FEF281A380A480A66
:103B3000580ACD56DF4FA881B981C359D04011969C
:103B4000CD56DF4FB983A883C359D04009CF80E851
:103B500090E058CEC457DF4F3881CC58D040311157
:103B600014C0C757DF4FE881F981C958D040E00F32
:103B7000F11FC557DF4F8881CB58D040CB56DF4F60
:103B80004881C559D040842B8083C114D10481F46D
:103B9000782CC956DF4F9882C759D040C856DF4F9E
:103BA000A882C859D040C756DF4FB882C959D04003
:103BB0005FEFC51AD50AB8CFCD2809F4F4C0C656B0
:103BC000DF4FB881CA59D040B6113FC00DEB2B2F43
:103BD000472DC956DF4F5881C759D040C856DF4FCF
:103BE0006881C859D040C756DF4F7881C959D04045
:103BF000C7010E94520CD70112968C9181110BC003
:103C0000F701E05BFB4F0190F081E02D40E066E8BA
:103C100071E0C7010995C055DF4F0FB6F894DEBFBC
:103C20000FBECDBFDF91CF911F910F91FF90EF900D
:103C3000DF90CF90BF90AF909F908F907F906F90CC
:103C40005F904F903F902F900895CE55DF4F288181
:103C500039814A815B81C25AD04021153105410525
:103C6000510581F0C357DF4F88819981AA81BB81BB
:103C7000CD58D04082179307A407B50718F00EEB74
:103C8000262DA6CFCA55DF4FA881B981C65AD0408C
:103C9000ED91FC9141E064E070E0C70109958BE98A
:103CA0009FE00197F1F7812C912C5401C556DF4F0D
:103CB000E881F981CB59D0408E169F0608F044C0A8
:103CC000F40183E0F695E7958A95E1F7E00FF11F9F
:103CD000C4018770992721E030E001C0220F8A9546
:103CE000EAF780818223E9F0D70119964D915D9121
:103CF0006D917C911C97480D591D6A1D7B1DC15506
:103D0000DF4FA881B981CF5AD040ED91FC91CF56B9
:103D1000DF4FA881B981C159D04091962C91C7013C
:103D20000995CF56DF4FE881F981C159D0403196CE
:103D3000CF56DF4FF983E883C159D040FFEF8F1A88
:103D40009F0AAF0ABF0AB2CF8BE891E00197F1F763
:103D5000CA55DF4FA881B981C65AD040ED91FC9178
:103D600040E064E070E0C70109956394C357DF4FFA
:103D7000288139814A815B81CD58D040C755DF4FBA
:103D800088819981AA81BB81C95AD040280F391FE7
:103D90004A1F5B1FC357DF4F288339834A835B83E6
:103DA000CD58D040B2CDC855DF4F9881C85AD040C9
:103DB000913009F020CFC7010E940E0A1CCF4F920C
:103DC0005F926F927F92AF92BF92CF92DF92EF920B
:103DD000FF920F931F93CF93DF9300D000D0CDB706
:103DE000DEB77C010E94A00E181619060CF0A1C0C7
:103DF0006E0185E0C80ED11C0E94A00E181619068F
:103E00000CF097C085E092E00E94A80484349105EC
:103E1000E1F18F349105A1F0839709F087C00E94EA
:103E20009C0E60E074E0C70181960E94D20E97FF5D
:103E30006FC0BC0189EA0E947A0E84E090E012C053
:103E40000E94A00E02970CF474C00E949C0E85E0A4
:103E500092E00E94A8048B34910571F60E949C0E9A
:103E600090E080E00F900F900F900F90DF91CF9136
:103E70001F910F91FF90EF90DF90CF90BF90AF9088
:103E80007F906F905F904F9008950E94A00E0497CE
:103E90000CF44FC08E010F5F1F4FB02EA12E0E9459
:103EA000180360930D0270930E0280930F0290939B
:103EB000100285E092E00E948A0497FF3DC00E94B4
:103EC000180340900D0250900E0260900F02709007
:103ED00010026419750986099709409009025090EB
:103EE0000A0260900B0270900C026415750586053D
:103EF0009705F8F244E050E060E271E08B2D9A2DD6
:103F00000E94BE2F892B09F077CF81E090E0AACFE5
:103F1000F701EF5DFB4F092E000CAA0BBB0B808352
:103F20009183A283B38382E090E09CCF0E949C0E99
:103F300063CF83E090E096CFF80181938F01CE1696
:103F4000DF0609F0ACCFD6CF0F931F93CF93DF934B
:103F5000EC0149855A856B857C858D819E81AF8179
:103F6000B885481759076A077B0720F0CE010E94E1
:103F7000890C12C0CE010E94DF1E8330910591F49E
:103F8000898187FD09C040E070E060E082E00E9426
:103F9000C30889818068898381E0DF91CF911F9177
:103FA0000F91089529812F77298381309105F1F2AE
:103FB000029711F080E0F1CF8E010F5D1B4F8985D4
:103FC0009A85AB85BC85F8014081518162817381FE
:103FD000840F951FA61FB71F4D815E816F81788565
:103FE000481759076A077B0738F440E070E060E043
:103FF00087EA0E94C308DECFFE01EA5BFB4F8081A7
:1040000091810097B9F2BE010E940C08019691F2CD
:1040100089859A85AB85BC85F80140815181628193
:104020007381840F951FA61FB71F89879A87AB8757
:10403000BC87B2CFCF92DF92EF92FF92CF93DF9304
:10404000EC010E9418036B017C0128EEC20E23E0F4
:10405000D21EE11CF11C0E9418036C157D058E0513
:104060009F0570F4CE010E94DF1E009789F004972F
:1040700069F06AE070E080E090E00E94E502EBCF3A
:1040800040E070E060E088EA0E94C30880E001C080
:1040900081E0DF91CF91FF90EF90DF90CF90089576
:1040A0000F931F93CF93DF938C01EB018091FE035D
:1040B0008F7390E09B01215031098217930731F0F3
:1040C0008617970739F181E090E008C08DEF93E003
:1040D0000E941A20811107C08FEF9FEFDF91CF91CF
:1040E0001F910F9108958091180490911904807880
:1040F0009927C130D10561F5892B31F040E070E09E
:1041000060E082E40E94C3088091FE03807C8C2BD7
:104110008093FE036DEF73E0C8010E940C080196C6
:10412000D9F28091FE0386FD1AC040E070E060E0A5
:1041300080E1219709F080E30E94C3089091FE037B
:10414000892F8F738F5F907C892B8093FE03BBCF69
:10415000892BD1F240E070E060E083E4D3CF90E0BF
:1041600080E0BCCFCF93DF93EC0180914308909126
:104170004408892B09F458C08091FE038F73863060
:1041800051F48DEF93E00E94DF1E21E0039709F0C8
:1041900044C020E042C08330F9F0823021F58DEF39
:1041A00093E00E941A208823E1F10E94FD0780918C
:1041B000FE03807C83608093FE038091180487FF58
:1041C00006C040E070E060E080E40E94C308809197
:1041D000FE038F738330E9F68DEF93E0FE010995BE
:1041E00021E028271AC061E070E080914108909199
:1041F00042080E9450208130910559F465E070E03A
:1042000080914508909146080E9450208130910588
:10421000F1F221E0892B09F4BCCF822FDF91CF91FD
:1042200008958FEF9FEFF5CF40E070E060E085EA02
:104230000E94C3081092FF0321E0EFCFAF92BF921C
:10424000CF92DF92EF92FF920F931F93CF93DF9362
:10425000FC01EA5BFB4F208131812115310569F4B6
:1042600010E0812FDF91CF911F910F91FF90EF9080
:10427000DF90CF90BF90AF900895EC01BC01C901D1
:104280000E940C08019661F340E070E060E082EE6D
:104290000E94C3086E018FEDC81A8BEFD80AF60191
:1042A000E080F180FEEFEF16FFEFFF0608F054C04C
:1042B000ECE1F1E0649185E092E00E947004EDE1B0
:1042C000F1E0649185E092E00E947004EEE1F1E09B
:1042D000649185E092E00E947004EFE1F1E0649166
:1042E00085E092E00E94700487010E5F1F4F612FEE
:1042F00085E092E00E947004602F85E092E00E94C9
:10430000700466EE85E092E00E947004EBE0F2E05B
:10431000A4908E01C8018C1B9D0B8E159F0580F407
:10432000F801B1A06B2D85E092E00E947004EB2DA6
:10433000EA25F0E0EB5DFE4FA4900F5F1F4FEACF40
:104340006A2D85E092E00E9470046AE085E092E0C8
:104350000E9470040E940B02CE010E941A20182FA6
:10436000882309F47DCF89859A85AB85BC85F601C4
:104370004081518162817381840F951FA61FB71FF1
:1043800089879A87AB87BC874D815E816F817885ED
:1043900084179507A607B70708F463CFCE010E94DC
:1043A000890C5FCFEF92FF920F931F93CF93DF9310
:1043B000FB012081243039F58A01EB017C01CA011F
:1043C0000E94B52FEA81FB812C813D812E1B3F0B82
:1043D00082179307C1F4AC01B801C7018E0F9F1F6C
:1043E0000E94BE2F21E030E0892B11F430E020E064
:1043F00088279927821B930BDF91CF911F910F91F3
:10440000FF90EF9008958FEF9FEFF6CF0F931F93DC
:10441000CF93DF938C0186E0869FE001879FD00DCC
:104420001124BE0163587D4F40E653E0C8010E944D
:10443000D221892B91F4CD57DD4F8A819B81800F4A
:10444000911F0E94DB07709319046093180481E0A8
:10445000DF91CF911F910F91089580E0F9CFEF92F6
:10446000FF920F931F93CF93DF938C0186E0869F7B
:10447000E001879FD00D1124CE0183589D4F7C0110
:104480004CE553E0BC01C8010E94D221892B41F0C8
:1044900046E553E0B701C8010E94D221892B81F47F
:1044A000CD57DD4F8A819B81800F911F0E94DB07D2
:1044B000862FDF91CF911F910F91FF90EF9008957C
:1044C0008FEFF7CF1F920F920FB60F9211242F93F9
:1044D0003F938F939F93AF93BF9380916902909185
:1044E0006A02A0916B02B0916C023091680223E0E5
:1044F000230F2D3758F50196A11DB11D2093680299
:104500008093690290936A02A0936B02B0936C024D
:1045100080916D0290916E02A0916F02B091700235
:104520000196A11DB11D80936D0290936E02A09320
:104530006F02B0937002BF91AF919F918F913F91A5
:104540002F910F900FBE0F901F90189526E8230F04
:104550000296A11DB11DD2CF1F920F920FB60F92DE
:1045600011242F933F934F935F936F937F938F9378
:104570009F93AF93BF93CF93EF93FF93C091E100CD
:104580008091E100837F8093E100C3FF0FC0109210
:10459000E90081E08093EB001092EC0082E38093CD
:1045A000ED001092520888E08093F000C2FF1AC01C
:1045B0000E940B0280910202882341F08091020246
:1045C000815080930202811101C05D9A809151084F
:1045D000882341F0809151088150809351088111C6
:1045E00001C0289AC4FF23C08091E2008E7E8160C2
:1045F0008093E2008091E1008F7E8093E1008091C2
:1046000003028E7E806180930302FF91EF91CF9130
:10461000BF91AF919F918F917F916F915F914F91DA
:104620003F912F910F900FBE0F901F901895C0FFD4
:10463000ECCF8091E2008E7E80618093E2008091D9
:10464000E1008E7E8093E100809103028E7E816086
:10465000DACF1F920F920FB60F921124CF92DF92F2
:10466000EF92FF920F931F932F933F934F935F937C
:104670006F937F938F939F93AF93BF93EF93FF932A
:10468000CF93DF93CDB7DEB76C97DEBFCDBF10926F
:10469000E9008091E80083FF25C068E0CE014596DF
:1046A0000E94DE0382EF8093E8008D8987FF39C086
:1046B0009091E80090FFFCCF982F907609F034C1DC
:1046C0009E894F89588D2F89F88C911131C080387F
:1046D00061F5809104028093F1001092F1008EEF59
:1046E0008093E8006C960FB6F894DEBF0FBECDBF86
:1046F000DF91CF91FF91EF91BF91AF919F918F91FA
:104700007F916F915F914F913F912F911F910F91E9
:10471000FF90EF90DF90CF900F900FBE0F901F9003
:1047200018959EEF9093E800C7CF1092F100D5CF77
:10473000913059F48111D3CF4130510581F68091E8
:1047400004028D7F80930402CACF933049F4811113
:10475000C6CF4130510519F6809104028260F2CF34
:10476000953041F48091E80080FFFCCF20682093D1
:10477000E300B5CF963009F0A9C00B8D1C8D22E067
:104780001092E900109200021092FF01F2122EC066
:104790001092FE011092FD010E94AD031F8299E06C
:1047A0009983FA8291E09E8390EA98879AEF99879D
:1047B0002091FF0130910002275F3F4F3C832B8304
:1047C0008D831092E900109200021092FF01109365
:1047D000FE010093FD0149E050E0BE016F5F7F4F95
:1047E00080E00E9487030E94AD0379CF1093FE0101
:1047F0000093FD010E947902DC0112960D911C913B
:104800000115110509F451C1D801ED91FC91048005
:10481000F581E02DBE016B5E7F4FC80109950097C1
:1048200009F03EC1F80100851185EACFF3E0FF12DF
:104830000EC08F89882309F440C0823061F440E8BB
:1048400060E180EB92E00E945403811148CF81E245
:104850008093EB0047CF813029F440E86BE084EA95
:1048600092E0F1CF833099F70E947902DC01129631
:10487000ED90FC908E010F5F1F4F6801E114F10471
:1048800079F0D701ED91FC910680F781E02DB80118
:10489000C7010995080F111DF701E084F184EECFDF
:1048A000D8011C92F60101900020E9F73197BF0171
:1048B0006C197D0940E0C601C6CF6EE872E0FB01CD
:1048C000449150E080E80E94870309CF973009F4B3
:1048D000BECF983021F481E08093F10000CF993071
:1048E00009F0FDCE837009F0B2CFEEE8F1E081E08F
:1048F00031E096E32191222371F08093E900309317
:10490000EB00DF0111972C912093EC009093ED00C8
:104910008F5F873079F78EE78093EA001092EA0084
:104920008F8980935208DBCE8B8D9C8D1092E9008D
:10493000109200021092FF019093FE018093FD01FE
:10494000898D811192C08E899D89913A49F4813275
:1049500009F07DCF47E050E068E071E080E0B3CF40
:10496000913209F074CF833269F48F89988DB0E069
:10497000A0E08093040190930501A0930601B093F9
:104980000701ADCE803269F48091E80082FFFCCF50
:1049900067E088E091E00E94DE038BEF8093E800FF
:1049A0009ECE823209F09BCE8F8980930F01EEEF6D
:1049B000FFE7859194918B3F9C4D51F1E0E0F8E049
:1049C0008091080190910901A0910A01B0910B0119
:1049D000803B9440A105B105F1F480910F0180FD69
:1049E0001AC0EE3F8AE0F80789F587E797E79183D9
:1049F0008083809160008093010288E19BE00FB684
:104A0000F894A895809360000FBE9093600067CEE5
:104A1000EEEFFAE0D5CF808191818737974709F093
:104A20005ECEA8958091600088618093600080913F
:104A3000010280936000EE3F2AE0F20789F0809146
:104A4000FE0A9091FF0A9183808349CE80819181F3
:104A50008737980751F29093FF0A8093FE0AC5CFDB
:104A60001092FF0A1092FE0A3ACE0E947902DC01EF
:104A700012960D911C910115110509F4E8CED8018B
:104A8000ED91FC910190F081E02DBE016B5E7F4FB6
:104A9000C8010995811123CEF80100851185EBCF5E
:104AA000181619060CF41BCED2CEF1E0FF12BECEC2
:104AB00062E972E004CFCF93DF93CDB7DEB7EA9718
:104AC0000FB6F894DEBF0FBECDBF789484B5826078
:104AD00084BD84B5816084BD85B5826085BD85B5A2
:104AE000816085BD80916E00816080936E00109220
:104AF000810080918100826080938100809181009B
:104B0000816080938100809180008160809380002B
:104B100080919100826080939100809191008160EA
:104B200080939100809190008160809390008091AB
:104B3000C10084608093C1008091C1008260809335
:104B4000C1008091C10081608093C1008091C30049
:104B500081608093C3008091C00082608093C00018
:104B60008091C20081608093C20080917A0084604D
:104B700080937A0080917A00826080937A0080919D
:104B80007A00816080937A0080917A0080688093B7
:104B90007A0010925208109204021092030280913F
:104BA000D70081608093D70080EA8093D80089B5D0
:104BB000806189BD89B5826089BD09B400FEFDCFE1
:104BC00061E070E080E090E00E94E5028091D80012
:104BD0008F7C80618093D8008091E000807F8093FB
:104BE000E0008091E1008E7E8093E1008DE0809373
:104BF000E200559A209AB5E5EB2EB2E0FB2E00E3D9
:104C000010E0C8010E94CC2FD7018D937D010F5F6A
:104C10001F4F0F331105A9F766EB71E085E592E0B0
:104C20000E947830892B29F166EB71E085E592E0EE
:104C30000E94813080EB9EE1A4E0B0E080935B02B3
:104C400090935C02A0935D02B0935E0280EE9BEABB
:104C5000A0E0B0E080935F0290936002A0936102B5
:104C6000B09362028FEF8093630285E592E00E9429
:104C7000B01B85E10E94160284E10E941602A8E0A2
:104C8000FA2E10E000E085E10E948D02080F191F46
:104C9000FA94F110F8CFF3E016950795FA95E1F73D
:104CA00082E0083C110538F0C8018C5D91098C3711
:104CB000914020F485E0809310010EC08EEF0835FE
:104CC0001240C8F384E10E948D0221E0883E9340A7
:104CD0000CF020E020931001809110018E3F41F4F0
:104CE000809163028F3F21F46EEF8BE50E948C0E62
:104CF00084B1806F84B93F9A569A8FEF9FEF90935B
:104D000012028093110210910F016AE070E080E0BE
:104D100090E00E94E5021123B1F30E940B0261E0D2
:104D200070E080E090E00E94E5021092FD03809127
:104D3000FD03882309F436C00E9418030091640221
:104D400010916502209166023091670206171707DD
:104D50002807390738F56091FD038AEA0E948C0E16
:104D60000E94911681E08093FF031091FD031131A1
:104D700010F00C94962FE12FF0E0EF53F94D0C94C6
:104D800061309A2D512D5B2D5E2D692D6C2D5B2D83
:104D9000CE2E372E692D692D772D772D0A2E752F62
:104DA0002B2E692D8091FD038111DCCF0E94A00E76
:104DB000181619060CF0BEC66FEF73E08EE194E092
:104DC0000E94D20EDC01181619060CF065C6AC0163
:104DD000092E000C660B770B40931E0850931F089A
:104DE0006093200870932108811504E0900724F453
:104DF000FC01E350FC4F11A281E08093FF0310926D
:104E0000FE0380E890E090931904809318046FEFFC
:104E10007FEF30E020E050E040E0512C412C96E064
:104E200088E0A82EE4E0BE2EF901E25EFB4F80810F
:104E3000882309F430C18A330CF057C080330CF05A
:104E40006BC0803209F421C16CF4893034F08B30AE
:104E50000CF41BC18D3009F418C1FEEF4F2E552400
:104E60005A9425C18C3209F4E6C18D3209F454C03C
:104E7000823299F739012F5F3F4F2A173B0708F01D
:104E8000C0C0F901E25EFB4F8081882309F4B9C0FC
:104E9000823209F071C14034510508F0B2C07A0184
:104EA0001FEFE11AF10A949FF001959FF00D112474
:104EB000E358FD4F4FEF5FEF5583448353834283A5
:104EC0001182309709F49DC0B08283010F5F1F4F9C
:104ED00013830283358324835FEF451A550A6F3F9E
:104EE000760709F09DC1A701D0C08636A9F06CF401
:104EF0008B3509F48DC08D3509F408C18A3309F06A
:104F0000ACCFBA0161507109C0C0843729F00CF0F0
:104F100060C08E3609F0A1CF6F3F760781F0969F73
:104F2000F001979FF00D1124E358FD4F80818130EF
:104F300009F467C0843019F48181811162C0F22EB6
:104F4000832FF901E25EFB4F2A173B0708F059C097
:104F50001191112309F455C0103251F00CF099C190
:104F600019300CF49FC11B301CF01D3009F09AC1A0
:104F70004034510508F045C08A010F5F1F4F949FD0
:104F8000F001959FF00D1124E358FD4F88248A9479
:104F9000982C95828482938282821182309789F143
:104FA000A082F282838335832483215031094FEF1D
:104FB000441A540A6F3F760751F0969FF001979F6D
:104FC000F00D1124E358FD4F81818F5F8183A8018B
:104FD0005CC08B37E9F08D3709F03FCFEE24E394C6
:104FE000F12C8A0101501109949FF001959FF00D59
:104FF0001124E958FD4F17FF8DC00F3F1F4F09F0D7
:1050000044C040E070E060E080EA0E94C30892C5BE
:105010001FEF411A510A4034510598F76A01EFEF2A
:10502000CE1ADE0A949FF001959FF00D11248F0196
:1050300003581D4F4801EE24EA94FE2CF401F5823A
:10504000E482F382E282118281149104D1F26F3FF3
:10505000760789F0969F7001979FF00C1124B70195
:1050600063587D4FFB01F080F1E0FF1651F2FB0128
:10507000F180F394F1828B3709F046C081E0F401AE
:10508000808333832283BA01A6012F5F3F4F2A1703
:105090003B0708F4C9CECA01019726E0249FF0011E
:1050A000259FF00D1124E758FD4F97FF04C11414FC
:1050B00015040CF0A6CF8FEF8093FD031092190416
:1050C00010921804F12C10E000E0B8018EE194E099
:1050D0000E942F228F3F09F4FCC08093FD030F5FD5
:1050E0001F4F8091FD038F3F11F0F110FEC00F5F45
:1050F0001F4F041515054CF38F3F09F0F6C040E033
:1051000070E060E081EA81CF82E0B9CFF2E0EF2E7B
:10511000F12C67CFC280D380CD20C09449F1C480E8
:10512000D580CD20C09421F580818E151F0409F013
:1051300068CFB9016F5F7F4F75836483909FF001E3
:10514000919FF00D1124E358FD4FB80102811381A6
:105150000F3F1F4F31F0048115810F3F1F4F09F49E
:1051600094CF6150710936976F3F760779F78DCFED
:105170000150110936973FCF8C3509F07CCE69017B
:10518000EFEFCE1ADE0ACA16DB0608F074CE8601EF
:10519000025E1B4FF8018081863639F074F48F323D
:1051A00021F02CF4823209F02CCF960164CE8C359C
:1051B000E1F3823609F025CFF8CF8237B1F324F43A
:1051C0008E3609F01ECFF1CF843779F3853709F099
:1051D00018CF4901F2E08F0E911C8901005E1B4F30
:1051E00078012A5F3F4F8A169B06B0F4F701819140
:1051F0007F01882389F0E0EDDE2ED80E19E01D1521
:1052000028F48F7D8154863008F0FBCE8FEF881A0A
:10521000980A2815390539F79401215031092BCE08
:10522000969FF001979FF00D1124E358FD4F818167
:105230008F5F818358CE6F3F760709F426CF969F04
:10524000F001979FF00D1124E358FD4F80818150AC
:10525000823008F41ACF8A0101501109949FF0019D
:10526000959FF00D1124E958FD4F17FD0ECF808159
:105270008150823050F4E280F380EF20E09429F0F6
:10528000E480F580EF20E094A1F0015011093697F9
:10529000ECCF1D3509F46CCE1D3709F469CE1C32F4
:1052A00009F466CE2F5F3F4F10521F3508F44CCEE5
:1052B000A8CEB801EACE208131812F3F3F4F31F097
:1052C000228133812F3F3F4F09F49BCE01973697C0
:1052D000ECCEB8018EE194E00E940622882309F406
:1052E00000CF0F5F1F4FF82EFCCE8B3008F072C03E
:1052F000893028F49FEF980F963008F06EC0109216
:1053000006041092070410920804109209041092E7
:105310001904109218048FEF80933B0880933C0887
:10532000809322081092360810923708109238089D
:105330001092390810923D0810923E0810923F08D2
:105340001092400810921B0410921A0410921D042F
:1053500010921C0480917D02813019F580917E02AB
:10536000882E912C98AE8FAA1CA61BA622242394CB
:10537000312C8FA898ACABA4BCA4A814B904DCF160
:10538000809122088F3F69F4EE24EA94FE2C00E01D
:1053900010E0E0923608F092370800933808109336
:1053A00039088091FD038B3008F00EC2893020F45B
:1053B0008150863008F00BC26DEF73E089EC96E106
:1053C0000E940C08019609F002C240E070E060E023
:1053D00082EA1BCE803109F492CF8B3008F48FCF54
:1053E0008E3009F0F4C1EE24E394F12C10E000E0DB
:1053F00096E0D92EEEC2241435049CF676E0972E62
:10540000929C8001939C100D1124980123583D4FCC
:1054100069014DE353E0B9018EE194E00E94D2218D
:10542000892B59F047E353E0B6018EE194E00E94E6
:10543000D221F12CE12C892B51F432E0230E311CC6
:105440000BA51CA50F5F1F4F1CA70BA792CFF70141
:10545000EB50FD4F45915491B6018EE194E00E94CE
:10546000D221892B09F061C0F801ED57FD4F8281EF
:105470009381825E9B4F0E94DB076FA378A789A769
:105480009AA7F701E750FD4FA491F701E650FD4FB1
:10549000B491F701E950FD4F0591149101151105E3
:1054A00059F030E020E0061717072807390720F4E5
:1054B0000FA318A729A73AA72B2F2F70422F50E030
:1054C000243030F59A0163E0220F331F6A95E1F72B
:1054D00061E070E080E090E004C0660F771F881FF5
:1054E000991F2A95D2F78B019C01015011092109BE
:1054F0003109CFA0D8A4E9A4FAA40C151D052E05E6
:105500003F0530F4B7FD04C00FA318A729A73AA799
:105510008A2F90E0BE01695D7F4F83509C4F0E94AF
:105520006F3072E0270E311C8BCF86E0E80EF11C45
:1055300092E4E916F10409F08ACF4AEE52E0B6018E
:105540008EE194E00E94D2217C01892B09F038C1C0
:105550004201821893089AAA89AA8401023011058F
:10556000DCF0D60116968C9116978130A9F4179627
:105570008C91882E912C9AAE89AE18AA1FA632E083
:10558000A32EB12CEE24E394F12C89AC9AAC0FA598
:1055900018A90815190534F01FEFE11AF10A2E0CAD
:1055A0003F1C4ECF09A91AA9A016B1060CF0F9CEDE
:1055B00016E01A9D40011B9D900C11248601080DD8
:1055C000191D46EE52E0B8018EE194E00E94D2210E
:1055D0003C01892B09F079C026E0820E911CF6016E
:1055E000E80DF91D8081823009F0DBCE81808BAA25
:1055F000912C2FEF20933A0842E258E05EAB4DAB7E
:10560000B0913A08BCAB6814790424F4E4E16E1656
:105610007104E9F40CA90F3F19F41BA910933A087F
:1056200024E1821691042CF4F401EE5DF74F3FEF74
:10563000308342E0840E911CE80CF91CA80CB91CC4
:105640000FA518A90F5F1F4F18AB0FA79ECFD8014A
:105650001E968D919C91825E9B4F0E94DB07EDA967
:10566000FEA96193FEABEDAB262F30E081E090E028
:10567000A0E0B0E004C0880F991FAA1FBB1F6A9565
:10568000D2F7AC01BD018091360890913708A09106
:105690003808B0913908842B952BA62BB72B809313
:1056A000360890933708A0933808B09339089CA91E
:1056B0009F3F29F46216730611F060923A08AFEF2B
:1056C0006A1A7A0A0A5F1F4F9BCF4AED52E0B8016F
:1056D0008EE194E00E94D2213C01892B09F042C066
:1056E00056E0850E911CF601E80DF91D808182308F
:1056F00009F057CE8180912C0A5F1F4F68147904FE
:1057000024F0A2E08A0E911C97CFD80118968D91B3
:105710009C91825E9B4F0E94DB0781E090E0A0E0BD
:10572000B0E004C0880F991FAA1FBB1F6A95D2F76B
:10573000AC01BD0180913D0890913E08A0913F08C9
:10574000B0914008842B952BA62BB72B80933D0856
:1057500090933E08A0933F08B09340089FEF691ACA
:10576000790ACACF4BEC52E0B8018EE194E00E9476
:10577000D221B2E0EB0EF11CE2E0AE0EB11C892B9F
:1057800059F4D80118968D919C91825E9B4F0E948E
:10579000DB0760933B0854CF42ED52E0B8018EE145
:1057A00094E00E94D221892B09F04ACFF80180852C
:1057B0009185825E9B4F0E94DB0760933C0840CF3F
:1057C00022E0220E311C3CCE803109F4F5CD8091CF
:1057D000180487FF11C081E18983ECEBF1E0DE0161
:1057E000129601900D928A95E1F742E1BE016F5F3A
:1057F0007F4F8AE50E94C3088091180487FF05C087
:10580000609110018CE50E948C0E8091180487FF36
:1058100006C00E94AF13682F8BE50E948C0E80910A
:10582000180487FF05C06091FD038DE50E948C0E72
:1058300084E089831A820E94AF138B8381E18C8379
:10584000ECEBF1E0DE01159601900D928A95E1F7FF
:1058500040900C0450900D0460900E0470900F0462
:105860006091000470E090E080E00E94D406009710
:1058700009F40FC1FC01389624913196D4903597E4
:105880004591559165917491FC01E590F5900591D4
:105890001491822E912CB12CA12C8BA69CA6ADA686
:1058A000BEA6411551056105710531F04114510441
:1058B0006104710409F0CDC08BA49CA4ADA4BEA466
:1058C000A3019201C501B4010E94FC2F6BA77CA724
:1058D0008DA79EA72D2DB301A201882D0E947B07C5
:1058E0008BA49CA4ADA4BEA4680D791D8A1D9B1D2C
:1058F00020E432E44FE050E00E94203069017A0158
:10590000BAE0660F771F881F991FBA95D1F7615CBF
:105910007D4B804F9F4F20E432E44FE050E00E94E7
:105920002030D701C6011AE0880F991FAA1FBB1F9C
:105930001A95D1F70196A11DB11D820F931FA41FC7
:10594000B51F880F991FAA1FBB1F009701E0A00772
:10595000B10520F08FEF9FEFA0E0B0E0282F892F56
:105960008E8B2F8B47E1BE016F5F7F4F81E00E94DE
:10597000C3080E94FD07DEC0B7018EE194E00E94DB
:105980002F228F3F19F5B7018EE194E00E94062285
:1059900081111CC0DE9C8001DF9C100D1124035876
:1059A0001D4F47EC52E0B8018EE194E00E94D221F5
:1059B000892BD9F4D80118968D919C91825E9B4FCA
:1059C0000E94DB076093630201E010E0B2E0EB0E9F
:1059D000F11CE414F50484F20130110509F0F7CE4E
:1059E00085E592E00E94B01BF2CE44EC52E0B80193
:1059F0008EE194E00E94D221892B81F4F801808508
:105A00009185825E9B4F0E94DB0760935B027093DF
:105A10005C0280935D0290935E02D6CF41EC52E02F
:105A2000B8018EE194E00E94D221892B09F083C253
:105A3000D80118968D919C91825E9B4F0E94DB0746
:105A400060935F02709360028093610290936202A0
:105A5000BBCFD301C2010197A109B1094C015D017E
:105A6000840E951EA61EB71EC501B401A3019201A6
:105A70000E94203049015A012BA53CA54DA55EA5E9
:105A8000281539054A055B0508F01ACF49015A0166
:105A900017CF20E080E064CF40E070E060E084EA6F
:105AA000B4CA8EE191E20E94B220882309F442C078
:105AB0000E9491163FC084EA9FE1F5CF80911804BF
:105AC00081FD07C040E070E060E085EA0E94C30805
:105AD000EFCF84EA9CE0E7CF80911A0490911B04F9
