:100000000C94CF010C94F7010C94F7010C94F701B8
:100010000C94F7010C94F7010C94F7010C94F70180
:100020000C94F7010C94F7010C94F7010C94F70170
:100030000C94F7010C94F7010C94F7010C94F70160
:100040000C9488240C94F7010C94F8240C94D2247A
:100050000C94F7010C94F7010C94F7010C94F70140
:100060000C94F7010C94F7010C94F7010C94F70130
:100070000C94F7010C94F7010C94F7010C94F70120
:100080000C94F7010C94F7010C94F7010C94F70110
:100090000C94F7010C94F7010C94F7010C94F70100
:1000A0000C94F7010C94F7010C94F7010C94F701F0
:1000B0000C94F701706167652D73697A650072654C
:1000C00061642D7374726F62652D75730072656162
:1000D000642D736574746C696E672D64656C6179E9
:1000E00000616C676F726974686D007670705F6D27
:1000F000760070756C73652D64656C61790070694C
:100100006E2D636F756E7400636869702D6964008D
:10011000666C6167730061646472657373006D651A
:100120006D6F72792D73697A6500AA55AA55666C50
:10013000616773006D656D6F72792D73697A650003
:100140006164647265737300636869702D6964002B
:1001500070696E2D636F756E740070756C73652DAC
:1001600064656C6179007670705F6D7600616C67B4
:100170006F726974686D00726561642D7365747463
:100180006C696E672D64656C617900726561642DC0
:100190007374726F62652D757300706167652D737E
:1001A000697A6500444F4E450000070E091C1B127A
:1001B00015383F363124232A2D70777E796C6B6297
:1001C00065484F464154535A5DE0E7EEE9FCFBF2C7
:1001D000F5D8DFD6D1C4C3CACD90979E998C8B82B7
:1001E00085A8AFA6A1B4B3BABDC7C0C9CEDBDCD564
:1001F000D2FFF8F1F6E3E4EDEAB7B0B9BEABACA5D7
:10020000A28F88818693949D9A2720292E3B3C3586
:10021000321F18111603040D0A5750595E4B4C45F6
:10022000426F68616673747D7A898E878095929B30
:100230009CB1B6BFB8ADAAA3A4F9FEF7F0E5E2EB16
:10024000ECC1C6CFC8DDDAD3D4696E676075727B46
:100250007C51565F584D4A4344191E171005020B36
:100260000C21262F283D3A33344E49404752555CE5
:100270005B7671787F6A6D64633E39303722252C56
:100280002B0601080F1A1D1413AEA9A0A7B2B5BC06
:10029000BB9691989F8A8D8483DED9D0D7C2C5CC76
:1002A000CBE6E1E8EFFAFDF4F3F8240100000000EA
:1002B0000019000100F824010000000000190001ED
:1002C00000F824010050C30000FF00000107080BE4
:1002D0007232007231007265760072772D70696E2D
:1002E000007670702D70696E007374617469632D8F
:1002F0006869676800627573006275732D636F6E5D
:10030000666967001E012E241601012410015B247A
:100310000801D623FE00AC23F2007F23EB00542318
:10032000E1002723CD00F022BE00B922B4008E22C6
:10033000737461746500636D64004F4B3A204657D7
:100340003A2000737461746500636D6400000000FE
:1003500000250028002B002E0000000000240027AC
:10036000002A002D00040404040404040402020210
:10037000020202030303030303020203050505054A
:10038000010204081020408001020408102001022C
:10039000040810204080400102040800512F11245D
:1003A0001FBECFEFD8E0DEBFCDBF27E0AAEEB1E0A1
:1003B00001C01D92AD32B207E1F711E0A0E0B1E05B
:1003C000E0EFF4E602C005900D92AA3EB107D9F71E
:1003D00011E0CFECD1E004C02197FE010E942A3049
:1003E000CE3CD107C9F70E942A250C9476320C9492
:1003F0000000CF93DF9390E0FC01E058FC4F249184
:100400008B599C4FFC0184918823C1F090E0880FA8
:10041000991FFC01E75AFC4FC591D491FC01E35BA5
:10042000FC4FA591B4919FB7F8948881E22FE09595
:100430008E2388838C91E823EC939FBFDF91CF912B
:1004400008952091060190E4299F900111248E5077
:10045000822B80937C0080917A00806480937A0064
:1004600080917A0086FDFCCF809178009091790090
:1004700008958230910538F0880F991F880F991FD1
:1004800005970197F1F708953FB7F8948091CA0254
:100490009091CB02A091CC02B091CD0226B5A89B41
:1004A00005C02F3F19F00196A11DB11D3FBFBA2F06
:1004B000A92F982F8827BC01CD01620F711D811DC6
:1004C000911D42E0660F771F881F991F4A95D1F74B
:1004D00008958F929F92AF92BF92CF92DF92EF9248
:1004E000FF926B017C010E9444024B015C01C1142C
:1004F000D104E104F104B9F00E94440268197909B9
:100500008A099B09683E73408105910580F321E0CB
:10051000C21AD108E108F10888EE880E83E0981E1F
:10052000A11CB11CE4CFFF90EF90DF90CF90BF9063
:10053000AF909F908F9008952FB7F8946091C60266
:100540007091C7028091C8029091C9022FBF08958F
:10055000AF92BF92CF92DF92EF92FF920F931F93D1
:10056000CF93DF936C017B018B01040F151FEB010F
:100570005E01AE18BF08C017D10759F06991D601C6
:10058000ED91FC910190F081E02DC6010995892B38
:1005900079F7C501DF91CF911F910F91FF90EF90F7
:1005A000DF90CF90BF90AF900895FC01538D448DA4
:1005B000252F30E0842F90E0821B930B541710F00E
:1005C000CF96089501970895FC01918D828D98171B
:1005D00061F0A28DAE0FBF2FB11D5D968C91928DF3
:1005E0009F5F9F73928F90E008958FEF9FEF089524
:1005F000FC01918D828D981731F0828DE80FF11DED
:10060000858D90E008958FEF9FEF0895FC01918D07
:10061000228D892F90E0805C9F4F821B91098F7300
:100620009927089585E192E00E94060321E0892B35
:1006300009F420E0822F0895FC01A48DA80FB92FA2
:10064000B11DA35ABF4F2C91848D90E001968F73FA
:100650009927848FA689B7892C93A089B1898C9119
:10066000837080648C93938D848D981306C0028868
:10067000F389E02D80818F7D80830895EF92FF9232
:100680000F931F93CF93DF93EC0181E0888F9B8DB5
:100690008C8D98131AC0E889F989808185FF15C06F
:1006A0009FB7F894EE89FF896083E889F989808192
:1006B0008370806480839FBF81E090E0DF91CF9161
:1006C0001F910F91FF90EF900895F62E0B8D10E083
:1006D0000F5F1F4F0F731127E02E8C8D8E110CC0F2
:1006E0000FB607FCFACFE889F989808185FFF5CF3D
:1006F000CE010E941C03F1CFEB8DEC0FFD2FF11DFD
:10070000E35AFF4FF0829FB7F8940B8FEA89FB8979
:1007100080818062CFCFCF93DF93EC01888D8823D7
:10072000B9F0AA89BB89E889F9898C9185FD03C054
:10073000808186FD0DC00FB607FCF7CF8C9185FF39
:10074000F2CF808185FFEDCFCE010E941C03E9CF5F
:10075000DF91CF91089580E090E0892B29F00E94ED
:10076000120381110E94000080E090E0892B49F083
:1007700080E090E0892B29F00E94000081110C9408
:10078000000008958F929F92AF92BF92CF92DF9216
:10079000EF92FF920F931F93CF93DF93EC018C01A5
:1007A0000A5D1F4F812C912C54016C018AEDC81AEF
:1007B0008DEFD80A7E01AFEAEA1AADEFFA0AF60128
:1007C00080819181A281B38188169906AA06BB0611
:1007D000B0F4D8012D918D014C855D856E857F85A6
:1007E000480D591D6A1D7B1DD701ED91FC91CE016D
:1007F0000995BFEF8B1A9B0AAB0ABB0AE0CFDF91CA
:10080000CF911F910F91FF90EF90DF90CF90BF900D
:10081000AF909F908F9008958F929F92AF92BF92CA
:10082000CF92DF92EF92FF920F931F93CF93DF93BC
:10083000EC0188859985AA85BB854C855D856E858B
:100840007F85841B950BA60BB70B813022E09207A6
:10085000A105B10520F080E092E0A0E0B0E08C01BD
:100860007E0186E2E80EF11C812C912C54016E0170
:10087000ADEACA1AADEFDA0A80169106B4F44C85D7
:100880005D856E857F85480D591D6A1D7B1DD601CE
:10089000ED91FC91CE010995F70181937F01FFEF66
:1008A0008F1A9F0AAF0ABF0AE7CFCA5DDD4F012E3C
:1008B000000C220B330B088319832A833B83DF91BF
:1008C000CF911F910F91FF90EF90DF90CF90BF904D
:1008D000AF909F908F900895CF93DF93EB016115B8
:1008E00020E472078105910558F028EE33E040E0DE
:1008F00050E00E94E92FEB01CA01B9010E94690290
:10090000209729F0CE01DF91CF910C943902DF912D
:10091000CF9108958091010190910201682379237C
:1009200081E0672B09F480E00895CF93DF93EC0119
:10093000FC01EF5AFD4F0190F081E02D2FEF40E0D8
:1009400050E0BA010995FE01E95AFD4F0190F0818E
:10095000E02D40E068E870E0CE01DF91CF9109948E
:10096000FC012781203241F4EC5BFD4F81E0908156
:10097000953151F080E008C02C3139F4EC5BFD4F2B
:1009800081E090819F30B1F70895283199F7EC5BB1
:10099000FD4F81E090819B3069F7F6CFFF920F9376
:1009A0001F93CF93DF938C01EB01F42E62FF07C0FE
:1009B000C8010E94B004882311F0CB7FC860E09189
:1009C0001302F09114024F2DBE01C801DF91CF91A7
:1009D0001F910F91FF9009942F923F924F925F9237
:1009E0006F927F928F929F92AF92BF92CF92DF923F
:1009F000EF92FF921F93CF93DF93CDB7DEB7A79708
:100A00000FB6F894DEBF0FBECDBFFC01E65DFD4F13
:100A10003FE1DE01119601900D923A95E1F7FC015C
:100A2000ED5BFD4F308131961081319640805180D1
:100A30006280738048A259A26AA27BA23797C080C5
:100A4000D180E280F380C422D522E622F722E98118
:100A5000EF3F09F43FC0FC01EE5BFD4FE0812E2E1D
:100A6000312CE1E0F0E0EC0FFD1FE20DF31DA4E1FD
:100A70002A1631047CF5A191AF3F61F1812C912CB4
:100A80005401839404C0880C991CAA1CBB1CAA9511
:100A9000D2F72A013B01022C04C076946794579444
:100AA00047940A94D2F74CA25DA26EA27FA240FCAA
:100AB0000CC080949094A094B094C820D920EA20CF
:100AC000FB20AFEF2A1A3A0AD2CFC828D928EA2841
:100AD000FB28F7CF3F3F79F0422F50E070E060E015
:100AE00004C0440F551F661F771F3A95D2F7C42ADA
:100AF000D52AE62AF72A1F3F99F00E94B0048111F7
:100B00000FC081E090E0A0E0B0E004C0880F991F22
:100B1000AA1FBB1F1A95D2F7C82AD92AEA2AFB2A8C
:100B200068A179A18AA19BA16C297D298E299F2981
:100B3000A7960FB6F894DEBF0FBECDBFDF91CF9161
:100B40001F91FF90EF90DF90CF90BF90AF909F905C
:100B50008F907F906F905F904F903F902F9008956F
:100B60002D9808950F931F93EDECF2E0E4910E2F72
:100B700010E030E020E0601771078207930729F149
:100B8000EEECF2E0E4910E2F10E030E020E0601790
:100B9000710782079307E1F0EFECF2E0E4910E2F8A
:100BA00010E030E020E0601771078207930799F4A6
:100BB00022E030E04CE0429FC001439F900D1124A1
:100BC00087559D4F1F910F91089530E020E0F2CF9F
:100BD00021E030E0EFCF90E080E0F4CFFC016381D2
:100BE0007481858196810E94B205009741F00B9631
:100BF000FC018491813019F480E890E0089580E848
:100C000091E00895EF92FF920F931F93E22F22231A
:100C1000C1F0A82FB0E09A01AB010E94AB2F9B015D
:100C2000AC01AE2FB0E00E94AB2FE616F706080726
:100C3000190710F4C801B7011F910F91FF90EF90B1
:100C4000089560E070E0CB01F7CFEF92FF920F9331
:100C50001F93CF93DF938C016AE070E080E090E017
:100C60000E94690278018DEAE81A8DEFF80AD7012F
:100C7000ED91FC9145E555E560E070E0C80109950E
:100C8000C82FD0E28AE090E00E943902D701ED91AE
:100C9000FC9145E555E560E070E0C8010995C8277D
:100CA000C6FF03C0D150C82F69F7DF91CF911F91C4
:100CB0000F91FF90EF900895CF93DF93EC0120E028
:100CC00030E0A901E99180ED8E0F8A3028F0CA0149
:100CD000B901DF91CF910895AAE0B0E00E94AB2F57
:100CE0002E2FEE0F330B20533109032E000C440B33
:100CF000550B260F371F481F591FE4CF0E949C0237
:100D000068517C4F8F4F9F4F6093C1027093C20216
:100D10008093C3029093C402089595B1662319F09D
:100D2000892B85B9089580958923FBCF1092000106
:100D300085E192E00E948B03E5E1F2E0A289B389AC
:100D40008C9187748C93828D818F65E070E080E058
:100D500090E00E946902509A0895CF93C82F823084
:100D600039F48FEF8AB91BB80000000000000000C2
:100D70008FEF8AB96BB985B18C2B85B981E090E092
:100D80000E94390285B1C095C823C5B9CF91089595
:100D90008091C0028F3F11F48091050108950F9357
:100DA0001F93CF938B0101771127FC01C781C032BC
:100DB00028F00E94C8068250843088F48EE891E0C2
:100DC000209101013091020182239323802B912BEA
:100DD000CC3109F48061CF911F910F9108958EE875
:100DE00090E0EECFCF93DF93EC010E94C8068230F3
:100DF000C0F08630D0F48D2F81709C2F9E7D892B82
:100E00009E0136952795369527952870822B25E0EB
:100E1000CC0FDD1F2A95E1F7C0728C2BDF91CF91AB
:100E200008958D2F81708C2BF9CF80E0F7CFCF9371
:100E3000DF93D82F8230B1F08830D9F08130A1F51E
:100E400080910401861781F160930401C0E08D2F29
:100E50000E94AD06CC2341F184E090E0DF91CF9178
:100E60000C943902809103018617F1F0609303011D
:100E7000EDCF809101019091020186179707A1F0B3
:100E800088709927C1E09B012870332728173907FC
:100E900008F0C0E07093020160930101CB010E9451
:100EA000F206682F70E0D3CFDF91CF910895EF92D3
:100EB000FF920F931F93CF93DF938C01D42FC52FF5
:100EC0007B01642F70E081E00E9417076C2F70E0B7
:100ED00082E00E9417074D2F5C2FB701C8010E94C6
:100EE000CF06BC0188E0DF91CF911F910F91FF9059
:100EF000EF900C9417078091010190910201442317
:100F000029F0682B792B88E00C9417076095709571
:100F100068237923F8CFDF92EF92FF920F931F930C
:100F2000CF93DF93C82FD62ED72F142FEAE2F1E00C
:100F3000649185E192E00E943E03EBE2F1E064916E
:100F400085E192E00E943E03ECE2F1E0649185E1EC
:100F500092E00E943E03EDE2F1E0649185E192E0CF
:100F60000E943E03E12EF12CC7010296692F85E114
:100F700092E00E943E0362E0610F85E192E00E94F0
:100F80003E036C2F85E192E00E943E03EC2FF0E0DF
:100F9000E755FE4FC4910D2D1D2FE00EF11E0E15CD
:100FA0001F0579F0F801D1918F016D2F85E192E055
:100FB0000E943E03EC2FED27F0E0E755FE4FC49171
:100FC000EECF6C2F85E192E00E943E036AE085E15E
:100FD00092E00E943E0385E192E0DF91CF911F9164
:100FE0000F91FF90EF90DF900C948B039091000194
:100FF00091110C948B0790911202943018F549309E
:1010000008F048E02AE0299FF0011124E651FE4F44
:1010100080834183562F929F90011124FB0161E050
:1010200070E06F5F7F4F8E2F851B841740F4819196
:10103000DB01A20FB31FA651BE4F8C93F2CF9F5F6F
:101040009093120208954F925F926F927F92AF92A7
:10105000BF92CF92DF92EF92FF920F931F93CF93A5
:10106000DF9300D000D01F92CDB7DEB78C017C019A
:1010700086E2E80EF11C412C512C32016801AAEDE8
:10108000CA1AADEFDA0A5801BDEAAB1ABDEFBB0AC6
:10109000F60180819181A281B381481659066A06C2
:1010A0007B0670F5D8011C964D915D916D917C91F8
:1010B0001F97440D551D661D771DD501ED91FC91BF
:1010C000C8010995F70191917F01891769F1D8014C
:1010D0001C964D915D916D917C911F97440E551E0C
:1010E000661E771E99838A836B825C824D8245E0FF
:1010F000BE016F5F7F4F8FEA0E94F607F8011282F0
:101100000F900F900F900F900F90DF91CF911F9144
:101110000F91FF90EF90DF90CF90BF90AF907F90B6
:101120006F905F904F900895FFEF4F1A5F0A6F0A1C
:101130007F0AAECFAF92BF92CF92DF92EF92FF9233
:101140000F931F93CF93DF9300D000D0CDB7DEB7BE
:101150008C016C018FEAC81A8DEFD80AD601ED9187
:10116000FC9120E940E050E0BA01C801099558011E
:10117000BDEAAB1ABDEFBB0AD501ED91FC9140E091
:1011800050E0BA01C8010995E82EF12CFE2CEE249E
:10119000D501ED91FC9141E050E060E070E0C801C4
:1011A0000995E82AD601ED91FC912FEF40E050E03F
:1011B000BA01C8010995F80182A193A18E159F0576
:1011C00091F0F982EA829B838C83868D44E0BE0194
:1011D0006F5F7F4F80FF16C083E80E94F60782E0B2
:1011E000D80112968C930F900F900F900F90DF9173
:1011F000CF911F910F91FF90EF90DF90CF90BF9014
:10120000AF90089589EB0E94F607F8011282EBCFA8
:10121000CF92DF92EF92FF920F931F93CF93DF93C2
:10122000EC018B010E949C026B017C01C00ED11E5F
:10123000E11CF11C8E010D5A1D4F0E949C026C1581
:101240007D058E059F0580F5D801ED91FC9140E06C
:1012500050E0BA01CE01099587FFEFCF84FF1DC092
:1012600040E070E060E084EB0E94F6071A82FE0125
:10127000EF5AFD4F0190F081E02D2FEF40E050E05C
:10128000BA01CE01099580E0DF91CF911F910F91B6
:10129000FF90EF90DF90CF90089583FF0AC040E069
:1012A00070E060E085EBE0CF40E070E060E086EB6E
:1012B000DBCF81E0E9CF3F924F925F926F927F92B6
:1012C0008F929F92AF92BF92CF92DF92EF92FF9256
:1012D0000F931F93CF93DF93EC018C010A5D1F4F97
:1012E000C12CD12C76014C018AED881A8DEF980A19
:1012F0005E01AFEAAA1AADEFBA0AF40180819181CA
:10130000A281B381C816D906EA06FB0640F54C84D3
:101310005D846E847F844C0C5D1C6E1C7F1CD80128
:101320003D908D01D501ED91FC9120E4B301A20126
:10133000CE010995D501ED91FC91232DB301A201B8
:10134000CE01099566E970E0CE010E940809882364
:1013500031F0BFEFCB1ADB0AEB0AFB0ACECFDF91ED
:10136000CF911F910F91FF90EF90DF90CF90BF90A2
:10137000AF909F908F907F906F905F904F903F9035
:1013800008950F931F93CF93DF93EC01FC01E95A6B
:10139000FD4F0190F081E02D41E068E870E0099593
:1013A00064EF71E080E090E00E9469028E010F5AC4
:1013B0001D4FD801ED91FC9120E240E050E0BA01D0
:1013C000CE010995D801ED91FC9120ED40E050E06F
:1013D000BA01CE01099568E97AE3CE01DF91CF9198
:1013E0001F910F910C9408099F92AF92BF92CF92D8
:1013F000DF92EF92FF920F931F93CF93DF9300D072
:1014000000D0CDB7DEB78C01962E6C0189EAC81AE0
:101410008DEFD80AD601ED91FC9141E060E870E0D3
:10142000C801099562E370E080E090E00E946902E3
:10143000D601ED91FC9141E062E070E0C8010995B0
:1014400064E670E080E090E00E9469025801BDEA25
:10145000AB1ABDEFBB0AD501ED91FC9140E050E025
:10146000BA01C8010995E82EF12CFE2CEE24D50115
:10147000ED91FC9141E050E060E070E0C801099519
:10148000E82AD601ED91FC9140E066E871E0C801E0
:101490000995F80182A193A18E159F0589F0F98223
:1014A000EA829B838C83F2E044E0BE016F5F7F4F52
:1014B0009F1216C083E80E94F607D80112969C92EC
:1014C0000F900F900F900F90DF91CF911F910F9180
:1014D000FF90EF90DF90CF90BF90AF909F900895D6
:1014E00089EB0E94F607F8011282EACF60E00C94C3
:1014F000F409BF92CF92DF92EF92FF920F931F9366
:10150000CF93DF9300D000D0CDB7DEB77C01D42ECF
:10151000C52EB62E122FFC01E95AFD4F0190F08125
:10152000E02D40E066E871E00995B982CA82DB826D
:101530001C8344E0BE016F5F7F4F802F0E94F6073F
:10154000F70112820F900F900F900F90DF91CF91C3
:101550001F910F91FF90EF90DF90CF90BF90089573
:10156000CF93DF93EC018E8D87FF06C040E070E0E3
:1015700060E081E40E94F6079981892F8F738F5F65
:10158000907C892B898340E070E060E080E2DF910D
:10159000CF910C94F607CF93DF9300D000D0CDB756
:1015A000DEB779836A835B834C8344E0BE016F5F5F
:1015B0007F4F0E94F6070F900F900F900F90DF91D2
:1015C000CF9108952F923F924F925F926F927F92A8
:1015D0008F929F92AF92BF92CF92DF92EF92FF9243
:1015E0000F931F93CF93DF93CDB7DEB76E970FB6F0
:1015F000F894DEBF0FBECDBF1C01DC0194968D9127
:101600009C919C01215031092115B2E03B0790F4D7
:1016100028233923232B09F0EBC0B0E0A0E09C0184
:10162000AD0121503109410951092B873C874D8774
:101630005E8708C08FE390E0A0E0B0E08B879C87D6
:10164000AD87BE870E944402698B7A8B8B8B9C8B03
:10165000A1014A5D5F4F5A8F498F1F8218861986F4
:101660001A86412C512C3201812C912C5401C1013C
:101670008A5D9D4F9C8F8B8FD101AF5ABD4FBE8F1E
:10168000AD8FF101ED5AFD4FF88BEF87EB8DFC8D9F
:1016900080819181A281B381481659066A067B0632
:1016A00008F086C0D1011C96CD90DD90ED90FC90A5
:1016B0001F97C40CD51CE61CF71CE98DFA8D2191EF
:1016C000FA8FE98F2E83AD8DBE8DED91FC91B70120
:1016D000A601C10109950E9444026D8B7E8B8F8B00
:1016E000988FDC01CB0129893A894B895C89821B5F
:1016F000930BA40BB50B2F81388549855A85281784
:1017000039074A075B0720F48F839887A987BA8730
:10171000D701C6010196A11DB11D2B853C854D85C4
:101720005E8582239323A423B523892B8A2B8B2BBD
:1017300079F0EB8DFC8D80819181A281B38101973D
:10174000A109B10984159505A605B70509F08AC058
:1017500000ED17E08AE090E00E943902AF85B88979
:10176000ED91FC91B701A601C10109959E819827D1
:1017700097FD0CC0AF85B889ED91FC91B701A6012A
:10178000C10109959E81982797FF3CC0015011091E
:1017900009F7E982DA82CB82BE81BC838D8345E082
:1017A000BE016F5F7F4F82EB0E94F607F10112824C
:1017B0004F81588569857A8582E60E94CB0A6E96AC
:1017C0000FB6F894DEBF0FBECDBFDF91CF911F9152
:1017D0000F91FF90EF90DF90CF90BF90AF909F90D0
:1017E0008F907F906F905F904F903F902F900895D3
:1017F0002FE330E040E050E018CFFFEF8F1A9F0A50
:10180000AF0ABF0A481459046A047B0420F1F101AD
:10181000E80DF91D16A1D1011C96CD90DD90ED903B
:10182000FC901F97C80CD91CEA1CFB1CAF85B8891B
:10183000ED91FC91B701A601C10109951817E9F2D4
:1018400019838A83EB82DC82CD8245E0BE016F5F23
:101850007F4F8FEAA9CF530142012FEF821A920ADC
:10186000A20AB20A3FEF431A530A630A730A8D8928
:101870009E89AF89B88D898B9A8BAB8BBC8B06CF39
:101880004F925F926F927F928F929F92AF92BF9290
:10189000CF92DF92EF92FF920F93CF93DF936C0181
:1018A0007B014A01822F40E070E060E00E94F60771
:1018B0000E9444022B013C018FEF8AB9E701F12C11
:1018C000E12C56018FEAA81A8DEFB80A4881598198
:1018D0006A817B81D501ED91FC912C81C60109952E
:1018E000BFEFEB1AFB0A25968E149F0479F70E942E
:1018F00044026B017C01C418D508E608F708B7015B
:10190000A601802F0E94CB0A9401A4E6B0E00E94B9
:10191000B62F6C157D058E059F05A0F4B701A601B5
:1019200087E8DF91CF910F91FF90EF90DF90CF90FC
:10193000BF90AF909F908F907F906F905F904F90EF
:101940000C94CB0ADF91CF910F91FF90EF90DF9035
:10195000CF90BF90AF909F908F907F906F905F904F
:101960004F9008950F93CF93DF93EC010FE52EE591
:1019700046E050E06CE171E00E94400CCE01DF9146
:10198000CF910F910C9425060F931F93CF93DF9364
:10199000EC010E94B20C8FEF8AB98E010F5A1D4FD5
:1019A000D801ED91FC912AEA45E555E560E070E04B
:1019B000CE010995D801ED91FC9125E54AEA5AE25C
:1019C00060E070E0CE010995D801ED91FC9120E82E
:1019D00045E555E560E070E0CE010995D801ED914F
:1019E000FC912AEA45E555E560E070E0CE010995F5
:1019F000D801ED91FC9125E54AEA5AE260E070E0F9
:101A0000CE010995D801ED91FC9120E145E555E520
:101A100060E070E0CE01099564E170E080E090E064
:101A2000DF91CF911F910F910C9469020F9301E602
:101A300020E643E050E06DE071E00E94400C6AE077
:101A400070E080E090E00F910C9469024F925F92F9
:101A50006F927F92AF92BF92CF92DF92EF92FF92FE
:101A60000F931F93CF93DF9300D000D0CDB7DEB795
:101A70007C01DC0192968D919C919397892BA1F426
:101A8000F701868D978DA0A1B1A190FDAFC00FE5A4
:101A90002EE546E050E06CE171E0C7010E94400C89
:101AA000C7010E9425061AC018964D915D916D914F
:101AB0007C911B97403451056105710548F55E9690
:101AC0008C9180FF1EC084E80E94CB0A82E0F7015F
:101AD0008283D70112968C918111D2CF0F900F90F3
:101AE0000F900F90DF91CF911F910F91FF90EF908A
:101AF000DF90CF90BF90AF907F906F905F904F90AE
:101B000008958AEB0E94CB0AD70112961C92E1CF6E
:101B10006701B9EACB1ABDEFDB0AD601ED91FC9162
:101B200041E060E870E0C701099562E370E080E0A1
:101B300090E00E946902D601ED91FC9141E062E0E3
:101B400070E0C701099564E670E080E090E00E94D3
:101B50006902F7014084518462847384B301A20155
:101B600040545109610971095701FDEAAF1AFDEFAF
:101B7000BF0AD501ED91FC91C7010995082F10E02E
:101B8000102F0027B301A2014F53510961097109B8
:101B9000D501ED91FC91C7010995082BD601ED9176
:101BA000FC9140E062E870E0C7010995F70182A16D
:101BB00093A10817190709F48CCF19830A839B8313
:101BC0008C83868D44E0BE016F5F7F4F80FF08C02D
:101BD00083E80E94F60782E0D70112968C9379CFB2
:101BE00089EB0E94F607F701128273CF40E070E0A4
:101BF00060E086E80E94F60771CFCF93DF9300D0B4
:101C0000CDB7DEB779836A8342E0BE016F5F7F4F55
:101C10000E94F6070F900F90DF91CF910895CF9318
:101C2000DF931F92CDB7DEB7698341E0BE016F5FDE
:101C30007F4F0E94F6070F90DF91CF9108954F924A
:101C40005F926F927F928F929F92AF92BF92CF924C
:101C5000DF92EF92FF920F931F93CF93DF93EC01EC
:101C60007C0125EBE21A2DEFF20AF70111821082B6
:101C70008C01035B1D4FF801118210826C01F1EBA6
:101C8000CF1AFDEFDF0AF6011182108288818230BF
:101C900009F456C0863009F456C0813029F48CE02E
:101CA00094E0F8019183808382E997E1FE01ED5A87
:101CB000FD4F918380838DE597E1329791838083F7
:101CC00087E597E03496918380835E01F9EAAF1A45
:101CD000FDEFBF0A8BE797E0F501918380838AE8E7
:101CE00094E032969183808340E050E0BA01CE01C7
:101CF0000E9457076B817C818D819E8160317105C7
:101D00008105910509F040C085E994E0F6019183D1
:101D100080838881833091F1C8F4823021F1DF9192
:101D2000CF911F910F91FF90EF90DF90CF90BF90D8
:101D3000AF909F908F907F906F905F904F9008959D
:101D400082EC93E0AECF83E298E0ABCF8430C9F071
:101D5000853029F7F70111821082F6011182108275
:101D60008AE998E007C080E496E1F70191838083D7
:101D70008BE599E0F80191838083D1CF81EC99E0E4
:101D8000F9CF81E495E1F6CF6D30710581059105BC
:101D900019F51A8A1B8A1C8A1D8A8881843089F366
:101DA00040F4823071F0833009F0B9CF84EC9CE0CC
:101DB000E1CF893071F08A3009F0B1CF86E19DE042
:101DC000D9CF86E29DE0F7019183808382EE9AE08D
:101DD000D1CF82EB9CE0CECF6630710581059105B5
:101DE00039F58CEE99E1F701918380838881843005
:101DF00041F240F4823081F0833009F090CF86EFD9
:101E000099E1B8CF853079F0803109F088CF11821F
:101E1000108289E798E1AECF86E59AE191838083CD
:101E200089E89AE1A7CF1182108284EF99E1A2CFCD
:101E3000653071058105910551F0653371058105A6
:101E4000910529F0693371058105910519F588819E
:101E5000843009F496CF40F4823071F0833009F079
:101E60005ECF86E49BE186CF853071F0803109F04A
:101E700056CF81E598E17ECF8AEB9BE1F701918314
:101E8000808380EA98E176CFF701118210828AEE92
:101E900099E170CF2B013C01F7E04F1A510861081E
:101EA000710822E0421651046104710430F06B3075
:101EB00071058105910509F081C02FE434E1F70136
:101EC000318320832881233009F44DC0C8F52230A6
:101ED00009F441C0F501208131813093140220932F
:101EE00013022EEC34E0318320830A891B892C896C
:101EF0003D89012B022B032BD1F404E610E020E0F6
:101F000030E0683071058105910569F004EF11E05A
:101F100020E030E06B3071058105910521F008EE7D
:101F200013E020E030E00A8B1B8B2C8B3D8B0E9452
:101F3000B205009749F56B818BEB0E940F0E3CC0F8
:101F40002430F9F0253031F628E634E1318320835E
:101F500026E73AE006C029E13CE13183208326E60A
:101F60003CE1F8010BC027E13CE1F801318320831B
:101F70002E8D23FDAFCF21E435E1F601318320839F
:101F8000A9CF21E435E1EDCFFC01349685919591FF
:101F9000A591B4910097A105B10509F4C0CE4A8975
:101FA0005B896C897D8984179507A607B70708F0B8
:101FB000B6CE8EEA0E94CB0A1A82B1CE6E3071057F
:101FC0008105910509F4ABCE4B015C01F7E28F1A54
:101FD0009108A108B10823E082169104A104B1047C
:101FE00008F49DCEF70111821082F801118210824F
:101FF000F60111821082A0CFCF93DF93589A5098A8
:10200000E0912502F091260282E08083E091210296
:10201000F09122021082E0912302F091240287E0E5
:10202000808310922D02E0912902F0912A0286E02D
:102030008083E0912702F091280280818869808363
:10204000E0912702F091280280818F7D808362E3F6
:1020500070E080E090E00E94690285E192E00E94D9
:102060000603892B29F085E192E00E94E402F5CF76
:1020700081E080930001C0E0DAE080911202C8178D
:1020800070F4DC9FB0011124FB01E651FE4F645156
:102090007E4F418180810E948B07CF5FEECF1092EF
:1020A0001202DF91CF9108956F927F928F929F924B
:1020B000AF92BF92CF92DF92EF92FF920F931F9356
:1020C000CF93DF93EC017B010E949606C701FE01CE
:1020D00009950E94FC0FF7018281813008F499C0B4
:1020E000833008F46DC0833009F093C0EA5DFD4F82
:1020F000A080B180E701A6964E01DE01612CCD01E2
:102100008C1B9D0B8A159B0540F4ED916E26E62DE8
:10211000F0E0E755FE4F6490F2CFD12CC12C712C2A
:1021200010E000E0CA14DB0450F5F40181914F0186
:1021300061E0670DFFEFCF1ADF0A811113C085E15F
:1021400092E00E943E03772049F0472D50E0BE0107
:10215000600F711F85E192E00E94A802860160E095
:10216000762EE0CF6E3FE1F76FEF85E192E00E94BF
:102170003E03BE01600F711F4EEF50E0EBCF6110C8
:1021800035C061E0670D85E192E00E943E03772053
:1021900049F0472D50E0BE01600F711F85E192E0CC
:1021A0000E94A80261E085E192E00E943E0360E0A7
:1021B00085E192E00E943E0385E192E00E948B035C
:1021C0000E947E0681E0F701828390E080E0DF914B
:1021D000CF911F910F91FF90EF90DF90CF90BF9024
:1021E000AF909F908F907F906F90089562E0670D01
:1021F00085E192E00E943E03772049F0472D50E0B0
:10220000BE01600F711F85E192E00E94A802662D59
:10221000CACF8FEF9FEFDBCF0F931F93CF93DF9347
:10222000CDB7DEB728970FB6F894DEBF0FBECDBF8F
:102230008C01FC01E35BFD4F80819181009741F1AE
:10224000B8010E945410F8012081243009F047C0E1
:10225000019609F5F801EA5DFD4F80819181A28127
:10226000B3810497A105B10539F4B8016A5D7F4FC8
:1022700044E080EB0E94F60780E028960FB6F894C1
:10228000DEBF0FBECDBFDF91CF911F910F9108959B
:1022900081E090E0D8CFF801818186FF17C04485A6
:1022A00055856685778580859185228533857983F7
:1022B0006A835B834C833D832E839F83888748E0BA
:1022C000BE016F5F7F4F80EE0E94F607F8018181AB
:1022D00086FD03C0C8010E94B00A81E0CECF0196FE
:1022E000A9F7CACF85E192E00C94E40285E192E07F
:1022F0000C940603CF92DF92EF92FF92CF93C82FF8
:102300000E94761118161906E4F0CC23A1F00E9461
:102310009C026B017C010E947611181619068CF044
:102320000E949C026C197D098E099F09683E7340CA
:102330008105910580F3CF91FF90EF90DF90CF90D2
:1023400008950E94721197FDF6CF8111D9CFF3CF76
:102350004F925F926F927F929F92AF92BF92CF9275
:10236000DF92EF92FF920F931F93CF93DF937C0145
:102370006B0100E0B12CA12C912C10E0D0E0C0E06A
:102380000E94761118161906CCF00E949C022B01AF
:102390003C010E9476111816190684F00E949C02D6
:1023A0006419750986099709683E7340810591058E
:1023B00080F380E00E947A118FEF19C00E947211A1
:1023C00097FF02C081E0F6CF282F811105C01123AD
:1023D00009F44FC08DEF0BC0112379F1BB20E9F058
:1023E000CC15DD05A8F081E00E947A118EEF9FEFF9
:1023F000DF91CF911F910F91FF90EF90DF90CF90E1
:10240000BF90AF909F907F906F905F904F90089596
:10241000F701EC0FFD1F008321968FEF810FBB2486
:10242000B394811107C0B92C911004C0BB24B3949C
:10243000AA24A394022F182FA3CFAA20B1F0BB2067
:10244000B1F0CC15DD0578F6F701EC0FFD1F008328
:102450002196992493942F3F09F0912C8150AA241E
:10246000A3948111A12C212FE5CF102FF2CFBA2CEC
:10247000F0CFBB2009F4A0CFD701C7018C0F9D1F5F
:102480008A179B0741F0ED911E27E12FF0E0E755F9
:10249000FE4F1491F5CFCE01011709F4A9CF8CEFAF
:1024A000A6CF8EE480937C0062E070E080E090E054
:1024B0000E94690280917A00806480937A00809102
:1024C0007A0086FDFCCF209178006091790070E061
:1024D000762F6627072E000C880B990B622B089528
:1024E0002F923F924F925F926F927F928F929F9224
:1024F000AF92BF92CF92DF92EF92FF920F931F9312
:10250000CF93DF93CDB7DEB72F970FB6F894DEBF2A
:102510000FBECDBFA090B802B090B902C090BA0271
:10252000D090BB02A986BA86CB86DC86C090BC025E
:10253000D090BD02E090BE02F090BF02C982DA8264
:10254000EB82FC8281E08093060180E10E942102FF
:102550009E878D870E945112611571058105910535
:1025600009F494C0CD28CE28CF2809F48FC02B01C0
:102570003C01770C4408542C3201A980BA80CB80EE
:10258000DC80E12CF12C00E010E09B01AC01642D1B
:10259000742D842D942D0E943030722E632E542E73
:1025A000452E962E872E382E292E69857A858B8585
:1025B0009C85C980DA80EB80FC806C0D7D1D8E1DB2
:1025C0009F1D2CE434E040E050E00E948830ED8410
:1025D000FE840F2C000C000B110B670156016801E3
:1025E000E12CF12C8701A982BA82CB82DC82ED82B8
:1025F000FE820F831887E12CF12C00E010E00E948E
:102600003030298339874F875D87B62FA72FF82F62
:10261000E92F272D362D452D542D692D782D832D0D
:10262000922D01E00E94143159016A017B018C0155
:10263000298139854F855D856B2F7A2F8F2F9E2FAE
:102640000E942F31A72CB62CC52CD42CE92CF82CA9
:10265000032D122D0E94B530C9012F960FB6F894A4
:10266000DEBF0FBECDBFDF91CF911F910F91FF90C5
:10267000EF90DF90CF90BF90AF909F908F907F9022
:102680006F905F904F903F902F90089580E090E082
:10269000E4CF4F925F926F927F92AF92BF92CF92B0
:1026A000DF92EF92FF920F931F93CF93DF93CDB7FB
:1026B000DEB728970FB6F894DEBF0FBECDBF8C01F2
:1026C0000E94C80681111FC040E070E060E080E811
:1026D0000E94F60782E0D80112968C9328960FB6D6
:1026E000F894DEBF0FBECDBFDF91CF911F910F9148
:1026F000FF90EF90DF90CF90BF90AF907F906F9062
:102700005F904F9008955801B9EAAB1ABDEFBB0A2C
:10271000F501E080F180D8015E968C9184FD6BC05C
:10272000C8010E94EE0541E0BC01C801F70109950E
:1027300064E670E080E090E00E9469020E947012FE
:102740006C012C01712C612CD8015096ED90FC90FD
:10275000C701B0E0A0E08C509E4FAF4FBF4F841533
:102760009505A605B70508F050C0B2E3CB0ED11C05
:10277000E2E3EE0EF11C198298EE692E93E0792EB9
:10278000C601B3010E94D52F6A831B82E4E6F0E004
:10279000C601BF010E94D52FCB012AE030E0B9016C
:1027A0000E94D52F8C831D82C701B3010E94D52FB3
:1027B0006E831F82C701BF010E94D52FCB01B901D3
:1027C0000E94D52F8887D8015E968C9148E0BE0183
:1027D0006F5F7F4F80FF12C082E80E94F60782E0A1
:1027E000F8018283D501ED91FC9140E066E871E04B
:1027F000C801099573CF80E890E095CF88EB0E94DF
:10280000F607D80112961C92EDCF9701AFE5B0E024
:102810000E94B62F24E630E040E050E00E94E92F0D
:102820004216530664067506E8F6B2E3CB0ED11CD9
:10283000E2E3EE0EF11C198288EE682E83E0782E1A
:10284000C601B3010E94D52F6A831B82E4E6F0E043
:10285000C601BF010E94D52FCB012AE030E0B901AB
:102860000E94D52F8C831D82C701B3010E94D52FF2
:102870006E831F82C701BF010E94D52FCB01B90112
:102880000E94D52F888748E0BE016F5F7F4F81E8A7
:102890000E94F60782E0D80112968C93A3CFCF93C3
:1028A000DF93EC010E9449138A81882371F08AA189
:1028B0009BA1892B51F06E8D7F8D660F771F627003
:1028C000CE01DF91CF910C94F409DF91CF9108955F
:1028D0000C944913BF92CF92DF92EF92FF920F9325
:1028E0001F93CF93DF93CDB7DEB7C854D1090FB68E
:1028F000F894DEBF0FBECDBF7B01B42EFC0101906A
:102900000020E9F731971E2F181B1F3008F01EE03A
:102910001983C12ED12CA601BC01CE0102960E94C2
:102920005D32E2E0F0E0EC0FFD1FEC0DFD1DE082FA
:102930008091EC0487FF08C042E0410FBE016F5F49
:102940007F4F82E50E94F60729E064EC71E0B21245
:1029500002C066EA71E0FB0101900020E9F73197BF
:102960008F01061B170B0983A8015527CE0102967C
:102970000E945D328091EC0487FF08C041E0400F67
:10298000BE016F5F7F4F83E50E94F60789E0DE019D
:102990001196B8120AC08CE7898380E28A8380E3AB
:1029A000F0FC81E38B83DE011496FD0187E090E06B
:1029B0003CE740E230834183B701082E02C07695A0
:1029C00067950A94E2F720E360FD21E322830197F3
:1029D00033968F3F980771F78CE758968C935897EA
:1029E00059961C92BE016F5F7F4FFB010190002042
:1029F000E9F731971E2F161B103208F01FE119A7B7
:102A0000412F50E0CE018A960E945D328091EC0405
:102A100087FF08C041E0410FBE01675D7F4F84E53D
:102A20000E94F607C85BDF4F0FB6F894DEBF0FBEFB
:102A3000CDBFDF91CF911F910F91FF90EF90DF906D
:102A4000CF90BF900895FF920F931F93CF93DF9382
:102A50008C01C0E3D0E0F801F1908F01CE010E941B
:102A6000952FF81621F06F2DCE010E949D2F2196F3
:102A7000CF33D10581F7DF91CF911F910F91FF9057
:102A800008954F925F926F927F92AF92BF92CF92D2
:102A9000DF92EF92FF920F931F93CF93DF93CDB707
:102AA000DEB728970FB6F894DEBF0FBECDBF8C01FE
:102AB000DC0111969C9111971C96CD90DD90ED90C4
:102AC000FC901F9796FD65C0906411969C9384E0DE
:102AD00090E00E943831F801E75BFD4F91838083DD
:102AE000FC01C082D182E282F382D8011C961D9241
:102AF0001D921D921C921F97F801C484D584E68410
:102B0000F78426013701F8E05F0E611C711C580143
:102B10008DEAA81A8DEFB80AF80180859185A28503
:102B2000B385C414D504E604F70408F07BC0C816C6
:102B3000D906EA06FB0608F075C0D501ED91FC91B7
:102B4000B701A601C80109958F3F09F465C02701A7
:102B500066247724498277276F2D5E2D4D2D4A8379
:102B6000CB828C83F8019081943009F04DC046A24D
:102B700047A3C0A681A784E090E0A0E0B0E0EA5DB2
:102B8000FD4F80839183A283B383D80112961C9258
:102B900026C0F8014085518562857385C416D50627
:102BA000E606F70608F4A8CF7801F7EBEF1AFDEF79
:102BB000FF0AD7012D913C919F7BF8019183F90188
:102BC00080819181A281B381F80184879587A6874E
:102BD000B787C9010E94D431D7011D921C92289653
:102BE0000FB6F894DEBF0FBECDBFDF91CF911F911E
:102BF0000F91FF90EF90DF90CF90BF90AF907F90BC
:102C00006F905F904F90089544E0BE016F5F7F4FDB
:102C100080EB0E94F607B9CFBFEFCB1ADB0AEB0AB5
:102C2000FB0A7ACFF8014485558566857785585F1C
:102C30006F4F7F4F84179507A607B707E0F04487CB
:102C4000558766877787F8012081243041F22485F3
:102C500035854685578559834A833B832C83BD83BD
:102C6000AE839F83888748E0BE016F5F7F4F80EE11
:102C70000E94F607B4CF84879587A687B787E3CFEE
:102C80004F925F926F927F92AF92BF92CF92DF92FC
:102C9000EF92FF920F931F93CF93DF93CDB7DEB7E1
:102CA00028970FB6F894DEBF0FBECDBF8C015C0134
:102CB00089EAA81A8DEFB80AD501ED91FC9141E09F
:102CC00068E870E0C801099564EF71E080E090E089
:102CD0000E9469020E94C80681112AC040E070E08B
:102CE00060E080E80E94F60782E0F8018283F80144
:102CF00082818111BFC0D501ED91FC9140E068E86F
:102D000070E0C801099528960FB6F894DEBF0FBE93
:102D1000CDBFDF91CF911F910F91FF90EF90DF908A
:102D2000CF90BF90AF907F906F905F904F9008953D
:102D30000E9470126C012C01712C612CD8015096EC
:102D4000ED90FC90C701B0E0A0E08C509E4FAF4FDB
:102D5000BF4F84159505A605B70508F040C0B2E33E
:102D6000CB0ED11CE2E3EE0EF11C198298EE692E17
:102D700093E0792EC601B3010E94D52F6A831B828E
:102D8000E4E6F0E0C601BF010E94D52FCB012AE0A6
:102D900030E0B9010E94D52F8C831D82C701B30199
:102DA0000E94D52F6E831F82C701BF010E94D52FBD
:102DB000CB01B9010E94D52F8887D8015E968C91EE
:102DC00048E0BE016F5F7F4F80FF02C082E88ACF7C
:102DD00088EB0E94F607D80112961C9288CF9701C3
:102DE000AFE5B0E00E94B62F24E630E040E050E0CE
:102DF0000E94E92F421653066406750608F077CF45
:102E0000B2E3CB0ED11CE2E3EE0EF11C198288EE88
:102E1000682E83E0782EC601B3010E94D52F6A8305
:102E20001B82E4E6F0E0C601BF010E94D52FCB0172
:102E30002AE030E0B9010E94D52F8C831D82C701A2
:102E4000B3010E94D52F6E831F82C701BF010E946C
:102E5000D52FCB01B9010E94D52F888748E0BE014C
:102E60006F5F7F4F81E80E94F60782E0D8011296DB
:102E70008C933DCF82A193A1892B49F0C8010E9478
:102E80009A08D80112968C91882309F434CFF8015E
:102E9000868D81FF05C082FD03C0C8010E94C10963
:102EA000D8015E968C9183FD2ECFC8010E944115FA
:102EB0002ACF2A9A08952D9A0895CF92DF92EF9201
:102EC000FF921F93CF93DF93EC016A017B01122FD6
:102ED0000E94591720E0B701A601CE010E94EC0420
:102EE000AB01BC01FE01EB5AFD4F0190F081E02DDA
:102EF000CE0109958FEF8AB91BB983E090E00E945B
:102F000039020E94B0056A897B898C899D890E945B
:102F10006C04DF91CF911F91FF90EF90DF90CF90E5
:102F20000C945B17CF93DF93EC012A9821E00E9469
:102F3000EC04AB01BC01FE01EB5AFD4F0190F081A6
:102F4000E02DCE0109951BB81AB88E899F89A88DEE
:102F5000B98D0097A105B10561F0893E23E0920784
:102F6000A105B10520F088EE93E0A0E0B0E00E945A
:102F700039020E94B0058A8D9B8DAC8DBD8D009766
:102F8000A105B10599F0893E23E09207A105B1059D
:102F900020F088EE93E0A0E0B0E00E943902C9B1D1
:102FA0000E945B178C2FDF91CF91089583E090E012
:102FB000A0E0B0E0F2CF7F928F929F92AF92BF924B
:102FC000CF92DF92EF92FF920F931F93CF93DF93F5
:102FD0008C017B015A016C0189EAC81A8DEFD80A6D
:102FE000D601ED91FC9140E060E470E0C8010995E4
:102FF000E701F12CE12C88248A947C8068819980F7
:103000008AB870E081E00E941707692D70E082E0C5
:103010000E9417078AB87BB80E9459170E94B00512
:103020000E945B17BFEFEB1AFB0A2596AE14BF0494
:1030300021F7D601ED91FC9140E060E470E0C80119
:10304000DF91CF911F910F91FF90EF90DF90CF9084
:10305000BF90AF909F908F907F9009941F93CF93D4
:10306000DF93EC0143E050E067E971E00E94DB1779
:10307000FE01ED5AFD4F0190F081E02D42E050E05D
:1030800060E070E0CE010995182F43E050E068E859
:1030900071E0CE010E94DB17812FDF91CF911F914C
:1030A00008950F931F93CF93DF9300D0CDB7DEB772
:1030B0008C010E942E1889838F3F91F41A8281E03F
:1030C000F801828342E0BE016F5F7F4F81EE0E9474
:1030D000F6070F900F90DF91CF911F910F910895F8
:1030E0008E3F19F481E08A83EBCF8FEF8A8382E0F1
:1030F000E7CF0F931F93CF93DF9300D0CDB7DEB709
:103100008C010E942E188983811112C01A8281E0DD
:10311000F801828342E0BE016F5F7F4F81EE0E9423
:10312000F6070F900F90DF91CF911F910F910895A7
:10313000813011F48A83ECCF8FEF8A8382E0E8CF6D
:103140002F923F924F925F926F927F928F929F92B7
:10315000AF92BF92CF92DF92EF92FF920F931F93A5
:10316000CF93DF93CDB7DEB72E970FB6F894DEBFBF
:103170000FBECDBF8C01FC0180859185A285B385F2
:1031800020E4822E912CA12CB12C81309105F1E00C
:10319000AF07B10568F030E8832E912CA12CB12C3B
:1031A0000197A440B10520F0812C912C54019394F7
:1031B000C801869698878F83412C512C3201D80103
:1031C000AA5DBD4FBA87A987F801EF5AFD4FFC876A
:1031D000EB87835D9D4F9E878D87E985FA8580818A
:1031E0009181A281B381481659066A067B0608F0D0
:1031F00072C0D8011C96CD90DD90ED90FC901F9789
:10320000C40CD51CE61CF71CEF81F8852191F887CA
:10321000EF832E83C701B601A50194010E94E92F17
:10322000672B682B692B29F0411451046104710448
:1032300039F443E050E06AE371E0C8010E94DB1713
:10324000AB85BC85ED91FC912E81B701A601C8012B
:103250000995C701B6016F5F7F4F8F4F9F4FA50143
:1032600094010E94E92F672B682B692B79F0E9857F
:10327000FA8580819181A281B3810197A109B10969
:1032800084159505A605B70509F03EC0212C84E0FC
:10329000382E8AE090E00E943902AD85BE85ED911E
:1032A000FC91B701A601C8010995BE81B81761F16B
:1032B000E1E02E1A310869F7B983EA82DB82CC8219
:1032C0008D8345E0BE016F5F7F4F83EB0E94F60761
:1032D000D80112961C922E960FB6F894DEBF0FBE40
:1032E000CDBFDF91CF911F910F91FF90EF90DF90B5
:1032F000CF90BF90AF909F908F907F906F905F9096
:103300004F903F902F900895BFEF4B1A5B0A6B0AC6
:103310007B0A63CFCF92DF92EF92FF920F931F93BE
:10332000CF93DF9300D000D0CDB7DEB78C0143E060
:1033300050E067E971E00E94DB1768018DEAC81A66
:103340008DEFD80AD601ED91FC9140E050E0BA0132
:10335000C8010995E82EF12CFE2CEE24D601ED9142
:10336000FC9141E050E060E070E0C8010995E82A76
:1033700043E050E068E871E0C8010E94DB17F80103
:1033800082A193A18E159F0591F0F982EA829B8319
:103390008C83868D44E0BE016F5F7F4F80FF14C039
:1033A00083E80E94F60782E0D80112968C930F9072
:1033B0000F900F900F90DF91CF911F910F91FF9081
:1033C000EF90DF90CF90089589EB0E94F607F80107
:1033D0001282EDCF0C948A19FC0122A133A1232B78
:1033E00011F00C948A1908950C948A19CF92DF92E7
:1033F000EF92FF920F931F93CF93DF93CDB7DEB77A
:103400006E970FB6F894DEBF0FBECDBFFC010485EA
:1034100015852685378546E050E068E571E00115A1
:1034200011052105310589F145E555E560E070E0BC
:1034300049835A836B837C83FAEAFD83EAEACE2EC2
:10344000EAE2DE2EE12CF12CCE82DF82E886F986DC
:10345000E5E5EA874B875C876D877E87A0E8AF87C5
:10346000488B598B6A8B7B8BFC8BCD8ADE8AEF8AEB
:10347000F88EE98F40E34E8F0A8F1B8F2C8F3D8F84
:1034800046E050E0BE016F5F7F4F0E94DB176E96F3
:103490000FB6F894DEBF0FBECDBFDF91CF911F9165
:1034A0000F91FF90EF90DF90CF900895CF93DF932F
:1034B000EC01898186FD07C08AA19BA1892B59F463
:1034C0008E8D81FD11C08E8D83FD0BC0CE01DF91ED
:1034D000CF910C944115CE010E948A198A818111E5
:1034E000EFCFDF91CF91089582FD0AC0CE010E94F7
:1034F000F61969E670E080E090E00E946902E3CF8F
:1035000087FFE1CF40E070E060E089E50E94F607C8
:10351000DACF2F923F924F925F926F927F928F926B
:103520009F92AF92BF92CF92DF92EF92FF920F9352
:103530001F93CF93DF9300D000D0CDB7DEB79C832D
:103540008B838C01412C512C32018A5D9D4F9A83D3
:10355000898348012FEA821A2DEF920A580189EADD
:10356000A81A8DEFB80AE981FA8180819181A28140
:10357000B381481659066A067B0608F070C043E01E
:1035800050E069E471E08B819C810E94DB17AB8184
:10359000BC811C964D915D916D917C911F97440D5E
:1035A000551D661D771DD401ED91FC91D8019696AD
:1035B0002C918B819C810995F80126A0D501ED9174
:1035C000FC9141E060E470E08B819C8109950E9450
:1035D0009C026B017C01B6E9CB0ED11CE11CF11CF5
:1035E0000E949C026C157D058E059F0568F51BB831
:1035F0001AB80E94B0052A9839B00E945B170E9441
:103600005917322437FCECCF1BB81AB80E94B0050A
:103610002A9839B00E945B170E945917322437FC50
:10362000DFCFEFEFEAB90E945B170E9459170F5FD7
:103630001F4FEB81FC818281882389F0FFEF4F1AB5
:103640005F0A6F0A7F0A8FCF40E070E060E087EB8F
:103650000E94F607AB81BC8112961C92E8CF0F90B6
:103660000F900F900F90DF91CF911F910F91FF90CE
:10367000EF90DF90CF90BF90AF909F908F907F9012
:103680006F905F904F903F902F900895EF92FF9230
:103690000F931F93CF93DF93EC0121E040E050E0C4
:1036A000BA010E94EC04AB01BC017E018BEAE81A6E
:1036B0008DEFF80AD701ED91FC91CE0109950E949A
:1036C0005B178E01095A1D4FD801ED91FC9140E026
:1036D00064E871E0CE01099562E070E080E090E07E
:1036E0000E9469020E94B005D801ED91FC9141E071
:1036F00064E871E0CE01099562E070E080E090E05E
:103700000E94690220E040E050E0BA01CE010E9430
:10371000EC04AB01BC01D701ED91FC91CE01099500
:1037200064E170E080E090E00E94690221E040E006
:1037300050E0BA01CE010E94EC04AB01BC01D701FC
:10374000ED91FC91CE01099562E070E080E090E09F
:103750000E9469020E945B17D801ED91FC9140E044
:1037600064E871E0CE01DF91CF911F910F91FF903E
:10377000EF900994FC01218126FD11C022812223B2
:1037800071F0268D21FF0BC022FF0C94461B27FFF2
:1037900006C040E070E060E088E50C94F60708950C
:1037A0000F931F93CF93DF93EC010E9459178E0163
:1037B000095A1D4FD801ED91FC9141E060E870E09D
:1037C000CE01099564E670E080E090E00E94690215
:1037D000FE01EB5AFD4F0190F081E02D40E050E0FA
:1037E000BA01CE010995D801ED91FC9141E066E066
:1037F00070E0CE01099564E670E080E090E00E9400
:1038000069020E94B00560EA76E881E090E00E94DB
:103810006C040E945B17D801ED91FC9140E066E8D2
:1038200071E0CE01DF91CF911F910F9109940C941B
:10383000D01BCF93DF93EC01898186FD0EC0CE01B2
:103840000E944F148A81882389F08E8D81FF05C0E4
:1038500082FD19C0CE010E94D01B8E8D83FD03C056
:10386000CE010E9441158A81811116C0FE01E95ADC
:10387000FD4F0190F081E02D40E066E871E0CE015F
:10388000DF91CF91099487FFE8CF40E070E060E0DE
:1038900088E50E94F607E1CFDF91CF9108950E945D
:1038A00096060E945B1770E060E088E00E941707B0
:1038B00070E060E081E00E94170770E060E082E065
:1038C0000E9417071092CE040C94FC0F2F923F9287
:1038D0004F925F926F927F928F929F92AF92BF9220
:1038E000CF92DF92EF92FF920F931F93CF93DF93CC
:1038F000CDB7DEB7C756D1090FB6F894DEBF0FBEFD
:10390000CDBF6C01FC01E75AFD4F0190F081E02D25
:1039100060E870E00995811118C0F601E95AFD4F81
:1039200000811181D6015E968C9184FD5EC1C60135
:103930000E94EE0541E0BC01C601F801099564EF63
:1039400071E080E090E00E946902D60113966D91CB
:103950007D918D919C9116970E94B205009709F474
:103960008AC1FC01349625913591459154916E960A
:103970002CAF3DAF4EAF5FAF6E97FC0138963491E0
:1039800068963FAF6897FC01259135914591549118
:10399000A6962CAF3DAF4EAF5FAFA697FC01399610
:1039A0003491A1963FAFA19731964491A2964FAF23
:1039B000A297D60152968D919D910D90BC91A02D0C
:1039C00029968CAF9DAFAEAFBFAF2997F601EA5DE8
:1039D000FD4F208131816A963FAF2EAF6A97FE017D
:1039E000319680E4DF011D928A95E9F760961CAE5E
:1039F0001DAE1EAE1FAE6097212CF601ED5AFD4F95
:103A0000A896FFAFEEAFA8979601295A3D4F25968D
:103A10003FAF2EAF2597A6014F5A5D4FA0965FAFDF
:103A20004EAFA097D6011C96BC916596BFAF659727
:103A3000F601F5856696FFAF6697D6011E96BC9196
:103A40006796BFAF6797F60137846296DFAECEAE5A
:103A500062972C96DFAECEAE2C97412C512C3201C2
:103A600023961FAE1EAE23976A962EAD3FAD6A9782
:103A70004216530608F0E4C0C2018770992741E05E
:103A800050E002C0440F551F8A95E2F764965FAF7D
:103A90004EAF6497820193E0169507959A95E1F7EA
:103AA000E1E0F0E0EC0FFD1FE00FF11FF080E42EED
:103AB000EF20222019F0EE2009F487C02C96AEAD3D
:103AC000BFAD2C979696BC912A96BFAF2A97BF3F61
:103AD00009F47BC0F60184849584A684B784840CA1
:103AE000951CA61CB71CA896AEADBFADA897ED91CE
:103AF000FC91B501A401C60109952A96BFAD2A978C
:103B0000B81376C0EE2009F460C0E1E0F0E0EC0FFD
:103B1000FD1FE00FF11F63968FAD63978095F8222C
:103B2000F082A696ECACFDAC0EAD1FADA697A196AB
:103B30002FADA19729964CAD5DAD6EAD7FAD2997A8
:103B4000822D0E9402066115710581059105E9F13A
:103B5000F601628B738B848B958B2596AEADBFADD2
:103B60002597ED91FC9141E064E070E0C601099574
:103B700088EE93E00E943902A096AEADBFADA0974B
:103B8000ED91FC912A962FAD2A97B501A401C601AB
:103B9000099584E690E00E9439022596AEADBFAD4E
:103BA0002597ED91FC9140E064E070E0C601099535
:103BB00029962CAD3DAD4EAD5FAD2997D6015296FD
:103BC0002D933D934D935C9355972C964EAD5FADE1
:103BD0002C974F5F5F4F2C965FAF4EAF2C975FEFE8
:103BE000451A550A650A750A3FCF80E890E0A2CED3
:103BF000E1100BC0E1E0F0E0EC0FFD1FE00FF11F62
:103C00006396BFAD6397FB2AF0822396EEADFFADBE
:103C10002397EF2B51F465968FAE659766969FAE0E
:103C200066976796AFAE67973B2C23962EAD3FAD58
:103C300023972F5F3F4F23963FAF2EAF2397C5CFDC
:103C400023968EAD9FAD2397892B09F4D7C0689634
:103C50009FAD6897921138C00DEB292F65964FAD37
:103C6000659766965FAD669767966FAD6797732D9C
:103C7000C6010E94790AD60112968C918111C8C0A2
:103C8000F601E95AFD4F0190F081E02D40E066E831
:103C900071E0C601C959DF4F0FB6F894DEBF0FBE01
:103CA000CDBFDF91CF911F910F91FF90EF90DF90EB
:103CB000CF90BF90AF909F908F907F906F905F90CC
:103CC0004F903F902F9009946E962CAD3DAD4EAD28
:103CD0005FAD6E97211531054105510571F0609674
:103CE0008CAD9DADAEADBFAD609782179307A407B5
:103CF000B50718F00EEB222DB1CF2596AEADBFADB6
:103D00002597ED91FC9141E064E070E0C6010995D2
:103D100088EE93E00E943902812C912C54016A961E
:103D2000EEADFFAD6A978E169F0608F040C0F40115
:103D300083E0F695E7958A95E1F721E030E02C0FD6
:103D40003D1FE20FF31FC4018770992721E030E087
:103D500001C0220F8A95EAF780818223C9F0D6013B
:103D60001C964D915D916D917C911F97480D591D49
:103D70006A1D7B1DA096AEADBFADA097ED91FC91E5
:103D80006296AEADBFAD629796962C91C60109952D
:103D90006296EEADFFAD629731966296FFAFEEAFE1
:103DA0006297FFEF8F1A9F0AAF0ABF0AB8CF84E667
:103DB00090E00E9439022596AEADBFAD2597ED91FA
:103DC000FC9140E064E070E0C601099523946096A0
:103DD0002CAD3DAD4EAD5FAD609729968CAD9DADE0
:103DE000AEADBFAD2997280F391F4A1F5B1F6096E4
:103DF0002CAF3DAF4EAF5FAF609714CEA2969FAD94
:103E0000A297913009F037CFC6010E94230833CF23
:103E1000C959DF4F0FB6F894DEBF0FBECDBFDF919B
:103E2000CF911F910F91FF90EF90DF90CF90BF90B7
:103E3000AF909F908F907F906F905F904F903F904A
:103E40002F9008954F925F926F927F92AF92BF92A0
:103E5000CF92DF92EF92FF920F931F93CF93DF9356
:103E600000D000D0CDB7DEB77C010E9476111816C5
:103E700019060CF0A1C06E0185E0C80ED11C0E948D
:103E80007611181619060CF097C085E192E00E9491
:103E9000F80284349105E1F18F349105A1F0839704
:103EA00009F087C00E94721160E072E0C701869637
:103EB0000E94A81197FF6FC0BC0189EA0E94FD0D06
:103EC00084E090E012C00E94761102970CF474C056
:103ED0000E94721185E192E00E94F8028B349105F4
:103EE00071F60E94721190E080E00F900F900F9099
:103EF0000F90DF91CF911F910F91FF90EF90DF9086
:103F0000CF90BF90AF907F906F905F904F9008954B
:103F10000E94761104970CF44FC08E010F5F1F4F63
:103F2000B02EA12E0E949C0260931D0270931E026F
:103F300080931F029093200285E192E00E94E402A8
:103F400097FF3DC00E949C0240901D0250901E02AF
:103F500060901F0270902002641975098609970904
:103F60004090190250901A0260901B0270901C023F
:103F70006415750586059705F8F244E050E064EA9B
:103F800071E08B2D9A2D0E94872F892B09F077CF16
:103F900081E090E0AACFF701EA5DFD4F092E000C09
:103FA000AA0BBB0B80839183A283B38382E090E052
:103FB0009CCF0E94721163CF83E090E096CFF8010E
:103FC00081938F01CE16DF0609F0ACCFD6CF0F93C9
:103FD0001F93CF93DF93EC014C855D856E857F85C4
:103FE00088859985AA85BB85481759076A077B0785
:103FF00020F0CE010E94B00A12C0CE010E94221F02
:104000008330910591F4898187FD09C040E070E01B
:1040100060E082E00E94F60789818068898381E000
:10402000DF91CF911F910F91089529812F772983D7
:1040300081309105F1F2029711F080E0F1CF8E010D
:104040000A5D1D4F8C859D85AE85BF85F801408139
:10405000518162817381840F951FA61FB71F488508
:1040600059856A857B85481759076A077B0738F4A5
:1040700040E070E060E087EA0E94F607DECFFE01D4
:10408000E35BFD4F808191810097B9F2BE010E94F0
:104090005410019691F28C859D85AE85BF85F801FF
:1040A0004081518162817381840F951FA61FB71FC4
:1040B0008C879D87AE87BF87B2CFCF92DF92EF927A
:1040C000FF92CF93DF93EC010E949C026B017C0175
:1040D00028EEC20E23E0D21EE11CF11C0E949C02BD
:1040E0006C157D058E059F0570F4CE010E94221F80
:1040F000009789F0049769F06AE070E080E090E052
:104100000E946902EBCF40E070E060E088EA0E9424
:10411000F60780E001C081E0DF91CF91FF90EF9042
:10412000DF90CF9008950F931F93CF93DF938C016F
:10413000EB018091CF048F7390E09B0121503109F6
:104140008217930731F08617970779F181E090E0A5
:1041500008C08EEC94E00E945D20811107C08FEFB3
:104160009FEFDF91CF911F910F9108958091EC0403
:104170009091ED04A091EE04B091EF04807899271E
:10418000AA27BB27C130D105D1F4892B8A2B8B2BD1
:1041900031F040E070E060E082E40E94F607809138
:1041A000CF04807C8C2B8093CF040115110581F402
:1041B0008091CF0486FF14C090E080E0D2CF892B9D
:1041C0008A2B8B2B61F340E070E060E083E4E5CF65
:1041D0006EEC74E0C8010E945410019649F7BFCFFD
:1041E00040E070E060E080E1219709F080E30E9408
:1041F000F6079091CF04892F8F738F5F907C892B66
:104200008093CF04A3CFCF93DF93EC0180911B0762
:1042100090911C07892B09F458C08091CF048F73AB
:10422000863051F48EEC94E00E94221F21E0039727
:1042300009F444C020E042C0833001F1823021F50E
:104240008EEC94E00E945D208823E1F10E947E06BE
:104250008091CF04807C83608093CF048091EC04B4
:1042600087FF06C040E070E060E080E40E94F6074F
:104270008091CF048F7321E0833001F58EEC94E0C0
:10428000FE01DF91CF91099461E070E08091190700
:1042900090911A070E9493208130910559F465E0AE
:1042A00070E080911D0790911E070E94932081303D
:1042B0009105F1F221E0892B09F0BCCF822FDF912B
:1042C000CF9108958FEF9FEFF5CF40E070E060E071
:1042D00085EA0E94F6071092D004ACCFCF92DF920D
:1042E000EF92FF920F931F93CF93DF93FC01E35B59
:1042F000FD4F208131812115310559F410E0812FC6
:10430000DF91CF911F910F91FF90EF90DF90CF90B1
:104310000895EC01BC01C9010E945410019671F38B
:1043200040E070E060E082EE0E94F60780910001BC
:10433000882309F462C0FE01EA5DFD4FE080F18050
:104340008EEFE8168FEFF80608F057C0EAE2F1E0CA
:10435000649185E192E00E943E03EBE2F1E064911A
:1043600085E192E00E943E03ECE2F1E0649185E198
:1043700092E00E943E03EDE2F1E0649185E192E07B
:104380000E943E0387010E5F1F4F612F85E192E07F
:104390000E943E03602F85E192E00E943E0366EE9C
:1043A00085E192E00E943E03EFE8F2E004916E01A5
:1043B000C6018C1B9D0B8E159F0588F4F60116A176
:1043C000612F85E192E00E943E03E12FE027F0E0BB
:1043D000E755FE4F0491FFEFCF1ADF0AE9CF602FB8
:1043E00085E192E00E943E036AE085E192E00E944E
:1043F0003E0385E192E00E948B03CE010E945D2086
:10440000182F882309F47ACF8C859D85AE85BF85CA
:10441000FE01EA5DFD4F4081518162817381840F0D
:10442000951FA61FB71F8C879D87AE87BF874885BE
:1044300059856A857B8584179507A607B70708F411
:104440005ECFCE010E94B00A5ACFEF92FF920F9337
:104450001F93CF93DF93FB012081318124303105FD
:1044600039F58A01EB017C01CA010E947E2FEA81A5
:10447000FB812C813D812E1B3F0B82179307C1F4DA
:10448000AC01B801C7018E0F9F1F0E94872F21E04A
:1044900030E0892B11F430E020E088279927821B37
:1044A000930BDF91CF911F910F91FF90EF900895A3
:1044B0008FEF9FEFF6CFEF92FF920F931F93CF9363
:1044C000DF938C01EB0183E0CC0FDD1F8A95E1F7D0
:1044D000CE0182539D4F7C0149E453E0BC01C801E9
:1044E0000E942522892B41F043E453E0B701C80123
:1044F0000E942522892B81F4CA52DD4F8A819B813B
:10450000800F911F0E945C06862FDF91CF911F9133
:104510000F91FF90EF9008958FEFF7CFEF92FF92FA
:104520000F931F93CF93DF937C01890183E0440FA6
:10453000551F8A95E1F7EB01C40FD51F4AE951E0F9
:10454000BE01C7010E942522892B89F48A859B859B
:104550008E0D9F1D0E945C06F80175A364A381E087
:10456000DF91CF911F910F91FF90EF90089580E020
:10457000F7CFEF92FF920F931F93CF93DF937C01BE
:10458000890183E0440F551F8A95E1F7EB01C40FC1
:10459000D51F4BE851E0BE01C7010E942522892B9F
:1045A000E9F48A859B858E0D9F1D0E945C06693EFD
:1045B00023E072078105910520F068EE73E080E04A
:1045C00090E0F801628F738F848F958F81E0DF9187
:1045D000CF911F910F91FF90EF90089580E0F7CF5A
:1045E000EF92FF920F931F93CF93DF937C0189018A
:1045F00083E0440F551F8A95E1F7EB01C40FD51FE7
:1046000047E751E0BE01C7010E942522892BE9F44A
:104610008A859B858E0D9F1D0E945C06693E23E066
:1046200072078105910520F068EE73E080E090E06C
:10463000F801668B778B808F918F81E0DF91CF912E
:104640001F910F91FF90EF90089580E0F7CFEF92C8
:10465000FF920F931F93CF93DF937C01890183E037
:10466000440F551F8A95E1F7EB01C40FD51F4DE6A6
:1046700051E0BE01C7010E942522892B99F48A8549
:104680009B858E0D9F1D0E945C06F80163837483D9
:104690008583968381E0DF91CF911F910F91FF90E9
:1046A000EF90089580E0F7CFEF92FF920F931F9362
:1046B000CF93DF937C01890183E0440F551F8A95D6
:1046C000E1F7EB01C40FD51F46E651E0BE01C7017B
:1046D0000E942522892B89F48A859B858E0D9F1D3A
:1046E0000E945C06F801718B608B81E0DF91CF91B5
:1046F0001F910F91FF90EF90089580E0F7CFEF9218
:10470000FF920F931F93CF93DF937C01890183E086
:10471000440F551F8A95E1F7EB01C40FD51F4AE5F9
:1047200051E0BE01C7010E942522892B99F48A8598
:104730009B858E0D9F1D0E945C06F801628B738B1A
:10474000848B958B81E0DF91CF911F910F91FF902A
:10475000EF90089580E0F7CFEF92FF920F931F93B1
:10476000CF93DF937C01890183E0440F551F8A9525
:10477000E1F7EB01C40FD51F40E551E0BE01C701D1
:104780000E942522892B81F48A859B858E0D9F1D91
:104790000E945C06F801678381E0DF91CF911F9151
:1047A0000F91FF90EF90089580E0F7CFEF92FF9286
:1047B0000F931F93CF93DF937C01890183E0440F14
:1047C000551F8A95E1F7EB01C40FD51F48E451E06E
:1047D000BE01C7010E942522892B89F48A859B8509
:1047E0008E0D9F1D0E945C06F80173A362A381E0F9
:1047F000DF91CF911F910F91FF90EF90089580E08E
:10480000F7CFEF92FF920F931F93CF93DF937C012B
:10481000890183E0440F551F8A95E1F7EB01C40F2E
:10482000D51F40E451E0BE01C7010E942522892B1B
:1048300099F48A859B858E0D9F1D0E945C06F80168
:10484000648775878687978781E0DF91CF911F9175
:104850000F91FF90EF90089580E0F7CFEF92FF92D5
:104860000F931F93CF93DF937C01890183E0440F63
:10487000551F8A95E1F7EB01C40FD51F44E351E0C2
:10488000BE01C7010E942522892B99F48A859B8548
:104890008E0D9F1D0E945C06F801608771878287DC
:1048A000938781E0DF91CF911F910F91FF90EF905F
:1048B000089580E0F7CFEF92FF920F931F93CF936D
:1048C000DF937C01890183E0440F551F8A95E1F74E
:1048D000EB01C40FD51F4EE251E0BE01C7010E949B
:1048E0002522892B99F48A859B858E0D9F1D0E9418
:1048F0005C06F801668F778F80A391A381E0DF913A
:10490000CF911F910F91FF90EF90089580E0F7CF26
:104910001F920F920FB60F9211242F933F938F93F4
:104920009F93AF93BF938091C6029091C702A091CD
:10493000C802B091C9023091C50223E0230F2D3780
:1049400068F126E8230F0296A11DB11D2093C50230
:104950008093C6029093C702A093C802B093C90285
:104960008091CA029091CB02A091CC02B091CD026D
:104970000196A11DB11D8093CA029093CB02A09312
:10498000CC02B093CD02BF91AF919F918F913F9197
:104990002F910F900FBE0F901F9018950196A11D9B
:1049A000B11DD4CF1F920F920FB60F9211242F93E7
:1049B0003F934F935F936F937F938F939F93AF93A7
:1049C000BF93EF93FF9385E192E00E941C03FF9158
:1049D000EF91BF91AF919F918F917F916F915F9177
:1049E0004F913F912F910F900FBE0F901F901895F0
:1049F0001F920F920FB60F9211242F938F939F93B4
:104A0000EF93FF93E0912502F09126028081E091DF
:104A10002B02F0912C0282FD1BC0908180912E020E
:104A20008F5F8F7320912F02821741F0E0912E0249
:104A3000F0E0EB5EFD4F958F80932E02FF91EF919A
:104A40009F918F912F910F900FBE0F901F901895EF
:104A50008081F4CFCF93DF93CDB7DEB7E7970FB662
:104A6000F894DEBF0FBECDBF789484B5836084BD5B
:104A700085B5836085BD80916E00816080936E00F6
:104A800082E0809381008091810081608093810029
:104A9000809180008160809380008091B10084606B
:104AA0008093B1008091B00081608093B0008091CC
:104AB0009100836080939100809190008160809349
:104AC00090008091A10083608093A1008091A0005C
:104AD00081608093A00087E880937A001092C100E3
:104AE00022EBE22E22E0F22E00E310E0C8010E9449
:104AF000952FD7018D937D010F5F1F4F0F33110548
:104B0000A9F76AEA71E082EB92E00E946632892B93
:104B100029F16AEA71E082EB92E00E946F3280EB49
:104B20009EE1A4E0B0E08093B8029093B902A09314
:104B3000BA02B093BB0280EE9BEAA0E0B0E08093A3
:104B4000BC029093BD02A093BE02B093BF028FEF50
:104B50008093C00282EB92E00E94231581E10E94C3
:104B6000F90180E10E94F90198E0F92E10E000E0DF
:104B700081E10E942102080F191FFA94F110F8CF69
:104B800083E0169507958A95E1F782E0083C1105C8
:104B900038F0C8018C5D91098C37914020F485E094
:104BA000809305010EC08EEF08351240C8F380E1F6
:104BB0000E94210221E0883E93400CF020E02093E7
:104BC0000501809105018E3F41F48091C0028F3F25
:104BD00021F46EEF8BE50E940F0E8FE284B980E125
:104BE00085B90E945B170E94591770E060E081E070
:104BF0000E94170770E060E082E00E94170770E0F3
:104C000060E088E00E9417070E94FC0F1092CE041B
:104C10008091CE04882309F436C00E949C02009142
:104C2000C1021091C2022091C3023091C402061742
:104C300017072807390738F56091CE048AEA0E94E1
:104C40000F0E0E944F1C81E08093D0046091CE042F
:104C5000613110F00C94482FE62FF0E0EE5CF94D36
:104C60000C942A30F82CA62CB12CB42CBF2CC22CBE
:104C7000B12C522E9A2DBF2CBF2CCD2CCD2C6B2DB0
:104C8000272F8E2DBF2C8091CE048111DCCF0E9466
:104C90007611181619060CF0ABC66FEF71E084EFB1
:104CA00094E00E94A811181619060CF04AC6AC012F
:104CB000092E000C660B770B4093F4065093F50613
:104CC0006093F6067093F706811512E0910724F4BD
:104CD000FC01E253FB4F16A221E02093D004109276
:104CE000CF0420E830E040E050E02093EC04309323
:104CF000ED044093EE045093EF046FEF7FEF50E02C
:104D000040E030E020E0D12CC12CA8E0AA2EB12C4C
:104D1000B4E08B2E912CFA01EC50FB4FE081EE2396
:104D200009F48CC1EA330CF066C0E0330CF07AC0B1
:104D3000E03209F47DC16CF4E93034F0EB300CF46E
:104D400077C1ED3009F474C19EEFC92EDD24DA94E9
:104D500081C1EC3209F403C2ED3209F463C0E232DE
:104D600099F73A014F5F5F4F4817590708F0D9C0CC
:104D7000FA01EC50FB4FE081EE2309F4D2C0E2329D
:104D800009F09CC12034310508F0CBC089010F5FC8
:104D90001F4FE3E0220F331FEA95E1F7F901E253D9
:104DA000FD4FEE24EA94FE2CF582E482F382E28247
:104DB00017821682309709F4B4C091828082D301A1
:104DC0001196B383A283558344832FEFC21AD20A6C
:104DD0006F3F760709F4F8C0FB0123E0EE0FFF1FD9
:104DE0002A95E1F7E253FD4F268137812F5F3F4F30
:104DF00037832683E9C0E636A9F06CF4EB3509F475
:104E000097C0ED3509F4E2C0EA3309F09DCFB9014E
:104E1000615071090DC1E43729F00CF06BC0EE361A
:104E200009F092CF6F3F7607B1F0FB01A3E0EE0FE0
:104E3000FF1FAA95E1F7E253FD4FA081B181A13098
:104E4000B10509F46EC0149731F40680F781E02DA6
:104E5000EF2B09F066C08A01FA01EC50FB4F4817AE
:104E6000590708F05EC0A191AA2309F45AC0A032E4
:104E700051F00CF0A7C1A9300CF4ADC1AB301CF05F
:104E8000AD3009F0A8C12034310508F04AC0D9017D
:104E90001196E3E0220F331FEA95E1F7F901E2539F
:104EA000FD4FEE24EA94FE2CF582E482F382E28246
:104EB000178216823097A9F1B182A08202831383F0
:104EC00055834483415051091FEFC11AD10A6F3FE6
:104ED000760771F0FB0113E0EE0FFF1F1A95E1F763
:104EE000E253FD4F268137812F5F3F4F3783268363
:104EF0009D019EC0EB37E1F0ED3709F025CF662428
:104F00006394712CD9011197F90103E0EE0FFF1F93
:104F10000A95E1F7EA53FD4FB7FF5CC0119609F01F
:104F200087C040E070E060E080EA0E94F60760C55C
:104F3000AFEFCA1ADA0A2034310598F789010F5FFA
:104F40001F4F3901B3E0660C771CBA95E1F7D30126
:104F5000A253BD4F3D01EE24EA94FE2C1596FC921F
:104F6000EE9214971396FC92EE92129717961C925B
:104F70001E921697AB2BA9F26F3F7607C9F0A3E0FC
:104F8000660F771FAA95E1F762537D4FDB01ED9025
:104F9000FC90EA94EF2829F2DB011696ED90FC9044
:104FA000BFEFEB1AFB0ADB011796FC92EE92169705
:104FB00061E070E0EB3711F062E070E0F3017183C3
:104FC000608353834283B901980132C0E2E06E2EC0
:104FD000712C98CFE280F380EF20E09409F46BC04D
:104FE000E480F580EF20E09409F065C06081718174
:104FF0006615770509F095CFBA016F5F7F4F75830E
:105000006483FD0113E0EE0FFF1F1A95E1F7E253F1
:10501000FD4FBD01A281B381119621F0A481B5811C
:10502000119631F06150710938976F3F760791F70B
:105030004F5F5F4F4817590708F46DCEC9010197BC
:1050400043E0220F331F4A95E1F7F901E853FD4F82
:1050500097FFCAC01C141D040CF063CF8FEF809320
:10506000CE041092EC041092ED041092EE04109213
:10507000EF04F12C10E000E0B80184EF94E00E940E
:105080005B228F3F09F4BEC08093CE040F5F1F4F99
:105090008091CE048F3F11F0F110C4C00F5F1F4FFD
:1050A0000C151D054CF38F3F09F0BCC040E070E0CB
:1050B00060E081EA3ACF119738972ECFEC3509F0AE
:1050C00051CEFA013196E817F90708F04BCE8F015F
:1050D0000C501B4FD8011C91163639F074F41F3256
:1050E00021F02CF4123209F01CCFAF013BCE1C355D
:1050F000E1F3123609F015CFF8CF1237B1F324F4EB
:105100001E3609F00ECFF1CF143779F3153709F0B9
:1051100008CFFA0132968A010A501B4F4A5F5F4F4F
:10512000E817F907C0F4D801FD908D01FF2099F030
:10513000B0EDEB2EEF0CB9E0BE1548F4E894F5F8AD
:10514000AFEBEA2EFE0CA5E0AF1508F4EACE3196DF
:10515000E417F50729F7AF014150510903CE6F3F1E
:10516000760709F465CFFB0103E0EE0FFF1F0A95F8
:10517000E1F7E253FD4F0190F081E02D3197329736
:1051800008F456CFD9011197F90113E0EE0FFF1F74
:105190001A95E1F7EA53FD4FB7FD4ACF008111811F
:1051A000015011090230110550F4E280F380EF2024
:1051B000E09429F0E480F580EF20E09499F01197D5
:1051C0003897EACFAD3509F45ECEAD3709F45BCE42
:1051D000AC3209F458CE4F5F5F4FA052AF3508F4A0
:1051E0003ECE9FCEBD0124CF208131812F3F3F4F46
:1051F00031F0228133812F3F3F4F09F492CE019746
:10520000389726CF2EEC34E0A8016EEC72E084EFE4
:1052100094E00E945B24882309F43ACF0F5F1F4F6C
:10522000F82E36CF8B3008F077C0893028F49FEF06
:10523000980F963008F073C01092DA041092DB04D5
:105240001092DC041092DD041092EC041092ED0434
:105250001092EE041092EF048FEF80931107809369
:1052600012078093F80610920C0710920D07109207
:105270000E0710920F071092130710921407109246
:105280001507109216071092F1041092F004109274
:10529000F3041092F2048091CE029091CF02019714
:1052A00011F58090D4029090D5029DAA8CAA18A6E0
:1052B0001FA244244394512C8CA89DA8AFA0B8A44D
:1052C000A814B904C4F18091F8068F3F61F42FEF60
:1052D0003FEF40E050E020930C0730930D074093E0
:1052E0000E0750930F078091CE048B3008F0B9C1A0
:1052F000893020F48150863008F0B6C16EEC74E03D
:105300008FE19EE00E945410019609F0ADC140E08B
:1053100070E060E082EA09CE803109F48DCF8B30F5
:1053200008F48ACF8E3009F09FC1EE24E394F12C6B
:1053300010E000E0A3C24C145D04ACF6C20103E02F
:10534000880F991F0A95E1F79C0122533D4F1901DF
:1053500046E353E0B90184EF94E00E942522892BB3
:1053600059F040E353E0B10184EF94E00E9425221C
:1053700010E000E0892B49F432E0430E511C8FA16C
:1053800098A5019698A78FA397CFF801EC5FFC4FE3
:1053900045915491B10184EF94E00E942522892B1C
:1053A00091F4F801EA5FFC4FA591B4912EEC34E042
:1053B000A2016EEC72E084EF94E0FD010995F2E049
:1053C0004F0E511CDCCF0C5F1F4F0C321105E9F65C
:1053D00049EF52E0B10184EF94E00E9425225C0184
:1053E000892B09F03AC14601841895089FA68EA61C
:1053F000940122303105ECF0D10118968D919C91E9
:1054000019970197B1F41E968D909C909FAA8EAA31
:105410001CA61BA6B2E08B2E912CAA24A394B12C1F
:10542000EEA8FFA82BA53CA52E153F0544F0B7FC20
:105430005ACF3FEFA31AB30A4A0C5B1CA0CFEEA4CD
:10544000FFA48E149F040CF04ECF7401A3E0EE0C69
:10545000FF1CAA95E1F781010E0D1F1D45EF52E0DB
:10546000B80184EF94E00E9425223C01892B09F0C9
:1054700078C028E0E20EF11CF101EE0DFF1D8081E5
:105480009181029709F02FCFE680F7803FEF3093AC
:10549000100748EF56E05BAB4AABB0911007BDA7D1
:1054A0006E147F0424F4E4E16E167104E1F41DA58A
:1054B0001F3F11F4E092100724E1E216F1042CF4EE
:1054C000F701E850F94F3FEF308342E0E40EF11C62
:1054D000AE0CBF1C8E0C9F1C2BA53CA52F5F3F4F15
:1054E0003CA72BA79DCFD80152968D919C918C50B3
:1054F0009B4F0E945C06EAA9FBA96193FBABEAAB58
:10550000262F30E081E090E0A0E0B0E004C0880FFA
:10551000991FAA1FBB1F6A95D2F7AC01BD018091EC
:105520000C0790910D07A0910E07B0910F07842BE7
:10553000952BA62BB72B80930C0790930D07A09368
:105540000E07B0930F079DA59F3F29F462167306BF
:1055500011F060921007AFEF6A1A7A0A085F1F4FC6
:105560009CCF49EE52E0B80184EF94E00E942522DE
:105570003C01892B09F043C058E0E50EF11CF10114
:10558000EE0DFF1D80819181029709F0ACCEE6807F
:10559000F780085F1F4F6E147F0424F0A2E0EA0E2C
:1055A000F11C96CFD8011A968D919C918C509B4FEF
:1055B0000E945C0681E090E0A0E0B0E004C0880FAB
:1055C000991FAA1FBB1F6A95D2F7AC01BD0180913C
:1055D000130790911407A0911507B0911607842B1B
:1055E000952BA62BB72B8093130790931407A093AA
:1055F0001507B09316079FEF691A790ACACF4AEDCB
:1056000052E0B80184EF94E00E942522B2E0AB0E94
:10561000B11CE2E08E0E911C892B59F4D8011A9628
:105620008D919C918C509B4F0E945C06609311075A
:1056300053CF41EE52E0B80184EF94E00E9425225E
:10564000892B09F049CFF801828593858C509B4FB7
:105650000E945C06609312073FCF42E0440E511C4B
:105660008ECE803109F44ACE8091EC0487FF11C0C0
:1056700081E18983E0EBF1E0DE01129601900D9269
:105680008A95E1F742E1BE016F5F7F4F8AE50E9494
:10569000F6078091EC0487FF05C0609105018CE559
:1056A0000E940F0E8091EC0487FF06C00E94C8067E
:1056B000682F8BE50E940F0E8091EC0487FF05C0D8
:1056C0006091CE048DE50E940F0E82E089831A82DC
:1056D0000E94C8068B8381E18C83E0EBF1E0DE0160
:1056E000159601900D928A95E1F74090E004509054
:1056F000E1046090E2047090E3046091D104709141
:10570000D2048091D3049091D4040E94B2050097F2
:1057100009F414C1FC01389624913196D490359740
:105720004591559165917491FC01E590F590059135
:105730001491822E912CB12CA12C8FA298A6A9A6EF
:10574000BAA6411551056105710531F041145104A6
:105750006104710409F0D2C08FA098A4A9A4BAA4CE
:10576000A3019201C501B4010E94C52F6FA378A7C0
:1057700089A79AA72D2DB301A201882D0E940206A8
:105780008FA098A4A9A4BAA4680D791D8A1D9B1D99
:1057900020E432E44FE050E00E94E92F69017A01F1
:1057A00059E0660F771F881F991F5A95D1F7615CE2
:1057B0007D4B804F9F4F20E432E44FE050E00E9449
:1057C000E92FD701C60169E0880F991FAA1FBB1FE7
:1057D0006A95D1F70196A11DB11D820F931FA41FD9
:1057E000B51F880F991FAA1FBB1F009711E0A107C3
:1057F000B10520F08FEF9FEFA0E0B0E0282F892FB8
:105800008E8B2F8B47E1BE016F5F7F4F81E00E943F
:10581000F6070E947E06ECC0B70184EF94E00E9478
:105820005B228F3F41F52EEC34E0A7016EEC72E075
:1058300084EF94E00E945B2481111DC08701F3E096
:10584000000F111FFA95E1F702531D4F46ED52E08C
:10585000B80184EF94E00E942522892BD9F4D80165
:105860001A968D919C918C509B4F0E945C06609380
:10587000C00201E010E0B2E0EB0EF11CEC14FD04FC
:105880005CF20130110509F0EFCE82EB92E00E944C
:105890002315EACE43ED52E0B80184EF94E00E9474
:1058A0002522892B81F4F801828593858C509B4FAA
:1058B0000E945C066093B8027093B9028093BA02AA
:1058C0009093BB02D6CF40ED52E0B80184EF94E054
:1058D0000E942522892B09F0DFC2D8011A968D91EA
:1058E0009C918C509B4F0E945C066093BC0270930D
:1058F000BD028093BE029093BF02BBCFD301C20111
:105900000197A109B1094C015D01840E951EA61EE7
:10591000B71EC501B401A30192010E94E92F4901FC
:105920005A012FA138A549A55AA5281539054A05B8
:105930005B0508F015CF49015A0112CF20E080E045
:105940005FCF40E070E060E084EAEFCA8EE691E26B
:105950000E94032191E0892709F44AC00E944F1C4C
:1059600047C087EE9FE1F4CF8091EC0481FD07C032
:1059700040E070E060E085EA0E94F607EFCF8CE03F
:1059800091E1E6CF8091F0049091F104892BB9F771
:1059900040E070E060E086EAEFCF8091CF048111B3
:1059A00031C00E94C806811105C040E070E060E08F
:1059B0008CEAE2CF0E9496068091CE0460E871E006
:1059C0008B3021F08C30B9F460E870E088E00E9400
:1059D000170764E670E080E090E00E9469020E9490
:1059E000FC0F81E08093CF0460E072E00E94FD0D27
:1059F0000E94AB030DC90E94FC0F40E070E060E024
:105A00008DEABACF8EEC94E00E94221F813091057E
:105A100009F4A4CF892B61F764EF71E080E090E096
:105A20000E9469020E9451126B017C0110E000E0AB
:105A3000C114D104E104F10481F022E030E040E03F
:105A400050E00E940B30CA01B901705D8E4E9F4F2D
:105A5000A70196010E940B3089010E9470129C01DF
:105A60002E5C3F4F48EEE42E43E0F42EC901B7010F
:105A70000E94D52FD62EE4E6F0E0C901BF010E94B6
:105A8000D52FCB012AE030E0B9010E94D52F482F55
:105A90000E5C1F4FC801B7010E94D52FF62EC8011A
:105AA000BF010E94D52FCB01B9010E94D52F909143
:105AB000CE041982DA821B824C831D82FE821F82F1
:105AC000888748E0BE016F5F7F4F85EE9C3009F408
:105AD0009ECE84EE9CCE0AE313E0F8016491662327
