:100000000C9470010C9498010C9498010C94980134
:100010000C9498010C9498010C9498010C949801FC
:100020000C9498010C9498010C9498010C949801EC
:100030000C9498010C9498010C9498010C949801DC
:100040000C94B9200C9498010C9429210C94032150
:100050000C9498010C9498010C9498010C949801BC
:100060000C9498010C949801706167652D73697AFE
:100070006500726561642D7374726F62652D7573AE
:1000800000726561642D736574746C696E672D64AC
:10009000656C617900616C676F726974686D007678
:1000A00070705F6D760070756C73652D64656C6142
:1000B000790070696E2D636F756E74006368697086
:1000C0002D69640061646472657373006D656D6FA2
:1000D00072792D73697A6500AA55AA55444F4E4529
:1000E0000000070E091C1B1215383F363124232A45
:1000F0002D70777E796C6B6265484F464154535A38
:100100005DE0E7EEE9FCFBF2F5D8DFD6D1C4C3CA67
:10011000CD90979E998C8B8285A8AFA6A1B4B3BAD7
:10012000BDC7C0C9CEDBDCD5D2FFF8F1F6E3E4ED04
:10013000EAB7B0B9BEABACA5A28F88818693949D77
:100140009A2720292E3B3C35321F18111603040D27
:100150000A5750595E4B4C45426F68616673747D17
:100160007A898E878095929B9CB1B6BFB8ADAAA3C1
:10017000A4F9FEF7F0E5E2EBECC1C6CFC8DDDAD3B7
:10018000D4696E676075727B7C51565F584D4A43E7
:1001900044191E171005020B0C21262F283D3A3357
:1001A000344E49404752555C5B7671787F6A6D6486
:1001B000633E39303722252C2B0601080F1A1D14F7
:1001C00013AEA9A0A7B2B5BCBB9691989F8A8D84A7
:1001D00083DED9D0D7C2C5CCCBE6E1E8EFFAFDF497
:1001E000F3F82401000000000019000100F82401C8
:1001F000000000000019000100F824010050C300B5
:1002000000FF00000107080B7232007231007265B6
:10021000760072772D70696E007670702D70696E41
:10022000007374617469632D68696768006275732F
:10023000006275732D636F6E66696700CC00000005
:100240000504C400000009049B0200001B82BC00DE
:1002500000001D02B20000000401A60000000F040F
:100260009F0000000D029500000003018100E803DB
:1002700013047200E8031704680000001F0273747F
:1002800061746500636D64004F4B3A2046573A2015
:1002900000737461746500636D6400666C616773FC
:1002A0000000000000250028002B000000000024B2
:1002B0000027002A000404040404040404020202C7
:1002C0000202020303030303030102040810204097
:1002D0008001020408102001020408102000632B92
:1002E00011241FBECFEFD8E0DEBFCDBF26E0AEEDBC
:1002F000B1E001C01D92AA39B207E1F711E0A0E018
:10030000B1E0EAECF8E502C005900D92AE3DB10710
:10031000D9F711E0C0E7D1E004C02197FE010E94A7
:100320003C2CCF36D107C9F70E945B210C94632C7B
:100330000C940000CF93DF9390E0FC01E753FD4F56
:1003400024918B549D4FFC0184918823C1F090E04F
:10035000880F991FFC01E555FD4FC591D491FC0113
:10036000EF55FD4FA591B4919FB7F8948881E22F86
:10037000E0958E2388838C91E823EC939FBFDF91D7
:10038000CF9108952091060190E4299F90011124B6
:100390008E50822B80937C0080917A0080648093C1
:1003A0007A0080917A0086FDFCCF80917800909150
:1003B000790008958230910538F0880F991F880FD1
:1003C000991F05970197F1F708953FB7F894809129
:1003D000C2029091C302A091C402B091C50226B599
:1003E000A89B05C02F3F19F00196A11DB11D3FBF6D
:1003F000BA2FA92F982F8827BC01CD01620F711D3C
:10040000811D911D42E0660F771F881F991F4A9535
:10041000D1F708958F929F92AF92BF92CF92DF92C1
:10042000EF92FF926B017C010E94E5014B015C01A0
:10043000C114D104E104F104B9F00E94E501681986
:1004400079098A099B09683E73408105910580F30B
:1004500021E0C21AD108E108F10888EE880E83E095
:10046000981EA11CB11CE4CFFF90EF90DF90CF90BD
:10047000BF90AF909F908F9008952FB7F8946091A0
:10048000BE027091BF028091C0029091C1022FBF45
:100490000895AF92BF92CF92DF92EF92FF920F93A7
:1004A0001F93CF93DF936C017B018B01040F151F0A
:1004B000EB015E01AE18BF08C017D10759F0699172
:1004C000D601ED91FC910190F081E02DC6010995D6
:1004D000892B79F7C501DF91CF911F910F91FF9083
:1004E000EF90DF90CF90BF90AF900895FC01538DB7
:1004F000448D252F30E0842F90E0821B930B5417FE
:1005000010F0CF96089501970895FC01918D828D8A
:10051000981761F0A28DAE0FBF2FB11D5D968C9123
:10052000928D9F5F9F73928F90E008958FEF9FEF62
:100530000895FC01918D828D981731F0828DE80F1E
:10054000F11D858D90E008958FEF9FEF0895FC01D8
:10055000918D228D892F90E0805C9F4F821B9109A5
:100560008F73992708958DE092E00E94A70221E001
:10057000892B09F420E0822F089580E090E0892BF8
:1005800029F00E94B30281110C9400000895FC012F
:10059000A48DA80FB92FB11DA35ABF4F2C91848DE4
:1005A00090E001968F739927848FA689B7892C9341
:1005B000A089B1898C91837080648C93938D848D94
:1005C000981306C00288F389E02D80818F7D808397
:1005D0000895EF92FF920F931F93CF93DF93EC0157
:1005E00081E0888F9B8D8C8D98131AC0E889F989DA
:1005F000808185FF15C09FB7F894EE89FF896083DD
:10060000E889F98980818370806480839FBF81E05D
:1006100090E0DF91CF911F910F91FF90EF9008959F
:10062000F62E0B8D10E00F5F1F4F0F731127E02E7A
:100630008C8D8E110CC00FB607FCFACFE889F989B2
:10064000808185FFF5CFCE010E94C702F1CFEB8DEF
:10065000EC0FFD2FF11DE35AFF4FF0829FB7F89486
:100660000B8FEA89FB8980818062CFCFCF93DF93A4
:10067000EC01888D8823B9F0AA89BB89E889F989BA
:100680008C9185FD03C0808186FD0DC00FB607FCEF
:10069000F7CF8C9185FFF2CF808185FFEDCFCE0122
:1006A0000E94C702E9CFDF91CF9108958F929F9268
:1006B000AF92BF92CF92DF92EF92FF920F931F9370
:1006C000CF93DF93EC018C010F5D1F4F812C912C98
:1006D00054016C018FEDC81A8DEFD80A7E01A6EB8C
:1006E000EA1AADEFFA0AF60180819181A281B38105
:1006F00088169906AA06BB06B0F4D8012D918D0183
:1007000049855A856B857C85480D591D6A1D7B1D61
:10071000D701ED91FC91CE010995BFEF8B1A9B0A91
:10072000AB0ABB0AE0CFDF91CF911F910F91FF90F1
:10073000EF90DF90CF90BF90AF909F908F900895F3
:100740008F929F92AF92BF92CF92DF92EF92FF92E1
:100750000F931F93CF93DF93EC018D819E81AF8127
:10076000B88549855A856B857C85841B950BA60BBE
:10077000B70B813022E09207A105B10520F080E09F
:1007800092E0A0E0B0E08C017E0181E2E80EF11C75
:10079000812C912C54016E01A4EBCA1AADEFDA0A38
:1007A00080169106B4F449855A856B857C85480D81
:1007B000591D6A1D7B1DD601ED91FC91CE01099555
:1007C000F70181937F01FFEF8F1A9F0AAF0ABF0ADB
:1007D000E7CFCF5DDD4F012E000C220B330B0883DA
:1007E00019832A833B83DF91CF911F910F91FF9053
:1007F000EF90DF90CF90BF90AF909F908F90089533
:10080000CF93DF93EB01611520E472078105910519
:1008100058F028EE33E040E050E00E94FB2BEB0163
:10082000CA01B9010E940A02209729F0CE01DF9186
:10083000CF910C94DA01DF91CF910895809101015D
:10084000909102016823792381E0672B09F480E00D
:100850000895CF93DF93EC01FC01E65BFD4F01901F
:10086000F081E02D2FEF40E050E0BA010995FE0144
:10087000E05BFD4F0190F081E02D40E068E870E022
:10088000CE01DF91CF910994FC012481203241F403
:10089000E15CFD4F81E09081953151F080E008C02E
:1008A0002C3139F4E15CFD4F81E090819F30B1F74C
:1008B0000895283199F7E15CFD4F81E090819B30EC
:1008C00069F7F6CFFF920F931F93CF93DF938C01BD
:1008D000EB01F42E62FF07C0C8010E944404882384
:1008E00011F0CB7FC860E0910702F09108024F2D14
:1008F000BE01C801DF91CF911F910F91FF90099424
:100900002F923F924F925F926F927F928F929F921F
:10091000AF92BF92CF92DF92EF92FF921F93CF934D
:10092000DF93CDB7DEB7A7970FB6F894DEBF0FBE43
:10093000CDBFFC01EB5DFD4F3FE1DE011196019063
:100940000D923A95E1F7FC01E25CFD4F3081319662
:1009500010813196408051806280738048A259A2F4
:100960006AA27BA23797C080D180E280F380C42244
:10097000D522E622F722E981EF3F09F43FC0FC01CE
:10098000E35CFD4FE0812E2E312CE1E0F0E0EC0F36
:10099000FD1FE20DF31DA4E12A1631047CF5A1919F
:1009A000AF3F61F1812C912C5401839404C0880CD9
:1009B000991CAA1CBB1CAA95D2F72A013B01022C48
:1009C00004C076946794579447940A94D2F74CA243
:1009D0005DA26EA27FA240FC0CC080949094A09473
:1009E000B094C820D920EA20FB20AFEF2A1A3A0A97
:1009F000D2CFC828D928EA28FB28F7CF3F3F79F083
:100A0000422F50E070E060E004C0440F551F661FA5
:100A1000771F3A95D2F7C42AD52AE62AF72A1F3F2C
:100A200099F00E94440481110FC081E090E0A0E0A1
:100A3000B0E004C0880F991FAA1FBB1F1A95D2F7F8
:100A4000C82AD92AEA2AFB2A68A179A18AA19BA1EE
:100A50006C297D298E299F29A7960FB6F894DEBFB1
:100A60000FBECDBFDF91CF911F91FF90EF90DF9030
:100A7000CF90BF90AF909F908F907F906F905F903E
:100A80004F903F902F9008952D9808950F931F93A6
:100A9000E5E0F2E0E4910E2F10E030E020E0601796
:100AA00071078207930729F1E6E0F2E0E4910E2F47
:100AB00010E030E020E06017710782079307E1F053
:100AC000E7E0F2E0E4910E2F10E030E020E0601764
:100AD00071078207930799F422E030E04CE0429FCF
:100AE000C001439F900D11248F519E4F1F910F9174
:100AF000089530E020E0F2CF21E030E0EFCF90E049
:100B000080E0F4CFFC01638170E090E080E00E941F
:100B10004605009741F00B96FC018491813019F451
:100B200080E890E0089580E891E00895CF92DF9208
:100B3000EF92FF920F931F93CF93DF938C017C0171
:100B400080EBE81A8DEFF80AD701ED91FC9141E0B6
:100B500060E870E0C801099562E370E080E090E031
:100B60000E940A02D701ED91FC9141E062E070E041
:100B7000C801099564E670E080E090E00E940A02F6
:100B80006801B4EBCB1ABDEFDB0AD601ED91FC9105
:100B900040E050E0BA01C8010995C82FD0E0DC2F31
:100BA000CC27D601ED91FC9141E050E060E070E08F
:100BB000C8010995C82BD701ED91FC9140E066E88A
:100BC00071E0C8010995CE01DF91CF911F910F917E
:100BD000FF90EF90DF90CF900895EF92FF920F93E8
:100BE0001F93E22F2223C1F0A82FB0E09A01AB019E
:100BF0000E94BD2B9B01AC01AE2FB0E00E94BD2B2B
:100C0000E616F7060807190710F4C801B7011F9187
:100C10000F91FF90EF90089560E070E0CB01F7CF67
:100C2000CF92DF92EF92FF920F931F93CF93DF93B8
:100C30008C016AE070E080E090E00E940A02780196
:100C400084EBE81A8DEFF80AD701ED91FC9145E5A8
:100C500055E560E070E0C8010995C82FD0E283E255
:100C6000C82ED12CC6010197F1F7D701ED91FC9167
:100C700045E555E560E070E0C8010995C827C6FF65
:100C800003C0D150C82F71F7DF91CF911F910F9101
:100C9000FF90EF90DF90CF900895CF93DF93EC011A
:100CA00020E030E0A901E99180ED8E0F8A3028F034
:100CB000CA01B901DF91CF910895AAE0B0E00E9486
:100CC000BD2B2E2FEE0F330B20533109032E000CBA
:100CD000440B550B260F371F481F591FE4CF0E94A6
:100CE0003D0268517C4F8F4F9F4F6093B9027093C4
:100CF000BA028093BB029093BC02089595B166231B
:100D000019F0892B85B9089580958923FBCF10921E
:100D100000018DE092E00E943603EDE0F2E0A2894E
:100D2000B3898C918F7E8C93A289B3898C91877FB4
:100D30008C93A289B3898C918F778C93A289B38984
:100D40008C918F7D8C93828D818F65E070E080E047
:100D500090E00E940A02509A08958091B8028F3F55
:100D600011F48091050108950F931F93CF938B0188
:100D700001771127FC01C481C03228F00E94AD0622
:100D80008250843088F48EE891E020910101309106
:100D9000020182239323802B912BCC3109F48061B3
:100DA000CF911F910F9108958EE890E0EECFCF93F1
:100DB000DF93EC010E94AD068230C0F08630D0F4A3
:100DC0008D2F81709C2F9E7D892B9E0136952795B6
:100DD000369527952870822B25E0CC0FDD1F2A95AC
:100DE000E1F7C0728C2BDF91CF9108958D2F817028
:100DF0008C2BF9CF80E0F7CFDF92EF92FF920F9329
:100E00001F93CF93DF93C82FD62ED72F142FE8ED43
:100E1000F0E064918DE092E00E94E902E9EDF0E0FB
:100E200064918DE092E00E94E902EAEDF0E06491C5
:100E30008DE092E00E94E902EBEDF0E064918DE03C
:100E400092E00E94E902E12EF12CC7010296692F7F
:100E50008DE092E00E94E90262E0610F8DE092E095
:100E60000E94E9026C2F8DE092E00E94E902EC2FD3
:100E7000F0E0EF51FF4FC4910D2D1D2FE00EF11E3C
:100E80000E151F0579F0F801D1918F016D2F8DE0BE
:100E900092E00E94E902EC2FED27F0E0EF51FF4FC6
:100EA000C491EECF6C2F8DE092E00E94E9026AE0DF
:100EB0008DE092E00E94E9028DE092E0DF91CF9117
:100EC0001F910F91FF90EF90DF900C94360390915B
:100ED000000191110C94FC0690910602943018F5D3
:100EE000493008F048E02AE0299FF0011124E2523D
:100EF000FE4F80834183562F929F90011124FB0166
:100F000061E070E06F5F7F4F8E2F851B841740F488
:100F10008191DB01A20FB31FA252BE4F8C93F2CF7F
:100F20009F5F9093060208954F925F926F927F9217
:100F3000AF92BF92CF92DF92EF92FF920F931F93E7
:100F4000CF93DF93CDB7DEB728970FB6F894DEBF07
:100F50000FBECDBFFC0181814185528563857485BB
:100F600086FD5BC0806481834093090250930A022E
:100F700060930B0270930C021186128613861486FE
:100F80008F01C184D284E384F4842601370188E090
:100F9000580E611C711C5F01A4EBAA1AADEFBA0ACE
:100FA000F80185819681A781B085C414D504E60433
:100FB000F70408F06DC0C816D906EA06FB0608F06B
:100FC00067C0D501ED91FC91B701A601C801099553
:100FD0008F3F09F457C02701662477244982772779
:100FE0006F2D5E2D4D2D4A83CB828C83F80190812D
:100FF000943009F03FC041A242A3C3A284A384E07D
:1010000090E0A0E0B0E0EF5DFD4F80839183A2838C
:10101000B383D80112961C9218C0058116812781CE
:101020003085401751076207730708F4A9CF8F7BFB
:1010300081838091090290910A02A0910B02B091E4
:101040000C0281879287A387B48728960FB6F894FD
:10105000DEBF0FBECDBFDF91CF911F910F91FF90EB
:10106000EF90DF90CF90BF90AF907F906F905F90A8
:101070004F90089544E0BE016F5F7F4F80EB0E9468
:101080006707C7CFBFEFCB1ADB0AEB0AFB0A88CF93
:10109000F8014185528563857485585F6F4F7F4F96
:1010A00084179507A607B707E0F041875287638743
:1010B0007487F8012081243041F2218532854385EF
:1010C000548559834A833B832C83BD83AE839F839E
:1010D000888748E0BE016F5F7F4F80EE0E94670700
:1010E000B4CF81879287A387B487E3CF4F925F9273
:1010F0006F927F92AF92BF92CF92DF92EF92FF9268
:101100000F931F93CF93DF9300D000D01F92CDB7E2
:10111000DEB78C017C0181E2E80EF11C412C512CE0
:1011200032016801AFEDCA1AADEFDA0A5801B4EB2B
:10113000AB1ABDEFBB0AF60180819181A281B38118
:10114000481659066A067B0670F5D80119964D9126
:101150005D916D917C911C97440D551D661D771D09
:10116000D501ED91FC91C8010995F70191917F019D
:10117000891769F1D80119964D915D916D917C9116
:101180001C97440E551E661E771E99838A836B82B8
:101190005C824D8245E0BE016F5F7F4F8FEA0E9407
:1011A0006707F80112820F900F900F900F900F9029
:1011B000DF91CF911F910F91FF90EF90DF90CF9033
:1011C000BF90AF907F906F905F904F900895FFEF2A
:1011D0004F1A5F0A6F0A7F0AAECFFF920F931F93D9
:1011E000CF93DF9300D000D0CDB7DEB7FC01858D63
:1011F000968D86179707A1F079836A839B838C83EA
:1012000089EB411183E8F42E8F0144E0BE016F5F4A
:101210007F4F0E94670780E0F11082E0F80182832F
:101220000F900F900F900F90DF91CF911F910F9122
:10123000FF900895CF92DF92EF92FF920F931F934A
:10124000CF93DF93EC017C0186EBE81A8DEFF80A6F
:10125000D701ED91FC9120E940E050E0BA01CE01C8
:1012600009956E01B4EBCB1ABDEFDB0AD601ED9107
:10127000FC9140E050E0BA01CE010995082F10E042
:10128000102F0027D601ED91FC9141E050E060E085
:1012900070E0CE010995082BD701ED91FC912FEF5D
:1012A00040E050E0BA01CE0109954B8D4170B80184
:1012B000CE01DF91CF911F910F91FF90EF90DF90C2
:1012C000CF900C94ED08CF93DF93EC010E9496052C
:1012D00040E0BC01CE01DF91CF910C94ED088F92DC
:1012E0009F92AF92BF92CF92DF92EF92FF920F93B5
:1012F000CF93DF93CDB7DEB728970FB6F894DEBF54
:101300000FBECDBF5C017B0182E3E80EF11CFA0148
:10131000F296198288EE882E83E0982EC701B401D8
:101320000E94E72B6A831B8294E6C92ED12CC70149
:10133000B6010E94E72BCB013AE0E32EF12CB70176
:101340000E94E72B8C831D82CF01B4010E94E72B02
:101350006E831F82CF01B6010E94E72BCB01B7013C
:101360000E94E72B888748E0BE016F5F7F4F822F86
:101370000E946707F501028328960FB6F894DEBF36
:101380000FBECDBFDF91CF910F91FF90EF90DF9017
:10139000CF90BF90AF909F908F900895CF92DF92A3
:1013A000EF92FF920F931F93CF93DF93EC018B018A
:1013B0000E943D026B017C01C00ED11EE11CF11C9C
:1013C0008E01045B1D4F0E943D026C157D058E054C
:1013D0009F0580F5D801ED91FC9140E050E0BA0105
:1013E000CE01099587FFEFCF84FF1DC040E070E07C
:1013F00060E084EB0E9467071A82FE01E65BFD4F06
:101400000190F081E02D2FEF40E050E0BA01CE01D5
:10141000099580E0DF91CF911F910F91FF90EF90A0
:10142000DF90CF90089583FF0AC040E070E060E055
:1014300085EBE0CF40E070E060E086EBDBCF81E061
:10144000E9CF3F924F925F926F927F928F929F92DD
:10145000AF92BF92CF92DF92EF92FF920F931F93C2
:10146000CF93DF93EC018C010F5D1F4FC12CD12C6A
:1014700076014C018FED881A8DEF980A5E01A6EB7C
:10148000AA1AADEFBA0AF40180819181A281B381D9
:10149000C816D906EA06FB0640F549845A846B84CF
:1014A0007C844C0C5D1C6E1C7F1CD8013D908D0112
:1014B000D501ED91FC9120E4B301A201CE01099583
:1014C000D501ED91FC91232DB301A201CE01099527
:1014D00066E970E0CE010E94CE09882331F0BFEFAB
:1014E000CB1ADB0AEB0AFB0ACECFDF91CF911F911B
:1014F0000F91FF90EF90DF90CF90BF90AF909F90B3
:101500008F907F906F905F904F903F9008950F93D2
:101510001F93CF93DF93EC01FC01E05BFD4F019043
:10152000F081E02D41E068E870E0099564EF71E03A
:1015300080E090E00E940A028E01065B1D4FD801F8
:10154000ED91FC9120E240E050E0BA01CE01099516
:10155000D801ED91FC9120ED40E050E0BA01CE01C0
:10156000099568E97AE3CE01DF91CF911F910F9140
:101570000C94CE09BF92CF92DF92EF92FF920F931D
:101580001F93CF93DF9300D000D0CDB7DEB77C019F
:10159000D42EC52EB62E122FFC01E05BFD4F01901C
:1015A000F081E02D40E066E871E00995B982CA82D9
:1015B000DB821C8344E0BE016F5F7F4F802F0E945F
:1015C0006707F70112820F900F900F900F90DF9135
:1015D000CF911F910F91FF90EF90DF90CF90BF9030
:1015E0000895CF93DF93EC018B8D87FF06C040E019
:1015F00070E060E081E40E9467079981892F8F7312
:101600008F5F907C892B898340E070E060E080E20E
:10161000DF91CF910C946707CF93DF9300D000D078
:10162000CDB7DEB779836A835B834C8344E0BE0128
:101630006F5F7F4F0E9467070F900F900F900F9082
:10164000DF91CF9108952F923F924F925F926F92C8
:101650007F928F929F92AF92BF92CF92DF92EF9242
:10166000FF920F931F93CF93DF93CDB7DEB76E97A3
:101670000FB6F894DEBF0FBECDBF1C01DC015F9634
:101680008D919C919C01215031092115B2E03B07BD
:1016900090F428233923232B09F0EBC0B0E0A0E01D
:1016A0009C01AD0121503109410951092B873C872B
:1016B0004D875E8708C08FE390E0A0E0B0E08B87A5
:1016C0009C87AD87BE870E94E501698B7A8B8B8BE7
:1016D0009C8BA1014F5D5F4F5A8F498F412C512C3C
:1016E00032011F82188619861A86C12CD12C7601E8
:1016F000C1018F5D9D4F9C8F8B8FD101A65BBD4F2C
:10170000BE8FAD8FF101E45BFD4FF88BEF87EB8D62
:10171000FC8D80819181A281B381481659066A06A9
:101720007B0608F086C0D10119968D909D90AD90F2
:10173000BC901C97840C951CA61CB71CE98DFA8DD7
:101740002191FA8FE98F2E83AD8DBE8DED91FC91A5
:10175000B501A401C10109950E94E5016D8B7E8B45
:101760008F8B988FDC01CB0129893A894B895C8961
:10177000821B930BA40BB50B2F81388549855A85A5
:10178000281739074A075B0720F48F839887A987B2
:10179000BA87D501C4010196A11DB11D2B853C85D9
:1017A0004D855E8582239323A423B523892B8A2B21
:1017B0008B2B79F0EB8DFC8D80819181A281B3819F
:1017C0000197A109B10984159505A605B70509F08A
:1017D0008AC000ED17E083E290E00197F1F7AF8552
:1017E000B889ED91FC91B501A401C10109959E81D3
:1017F000982797FD0CC0AF85B889ED91FC91B50194
:10180000A401C10109959E81982797FF3CC0015012
:10181000110909F7A9829A828B82BE81BC838D83CC
:1018200045E0BE016F5F7F4F82EB0E946707F101C9
:1018300012824F81588569857A8582E60E940C0B59
:101840006E960FB6F894DEBF0FBECDBFDF91CF917D
:101850001F910F91FF90EF90DF90CF90BF90AF90CE
:101860009F908F907F906F905F904F903F902F90C0
:1018700008952FE330E040E050E018CFFFEFCF1A9B
:10188000DF0AEF0AFF0A4C145D046E047F0420F1A6
:10189000F101EC0DFD1D11A1D10119968D909D90C6
:1018A000AD90BC901C978C0C9D1CAE1CBF1CAF85D2
:1018B000B889ED91FC91B501A401C10109951817F2
:1018C000E9F219838A83AB829C828D8245E0BE0156
:1018D0006F5F7F4F8FEAA9CF730162012FEFC21AAA
:1018E000D20AE20AF20A3FEF431A530A630A730A62
:1018F0008D899E89AF89B88D898B9A8BAB8BBC8B78
:1019000006CF4F925F926F927F928F929F92AF928B
:10191000BF92CF92DF92EF92FF920F93CF93DF931C
:101920006C017B014A01822F40E070E060E00E9480
:1019300067070E94E5012B013C018FEF8AB9E7019F
:10194000F12CE12C560186EBA81A8DEFB80A4881DC
:1019500059816A817B81D501ED91FC912C81C60171
:101960000995BFEFEB1AFB0A25968E149F0479F7B1
:101970000E94E5016B017C01C418D508E608F70850
:10198000B701A601802F0E940C0B9401A4E6B0E0E1
:101990000E94C82B6C157D058E059F05A0F4B7012C
:1019A000A60187E8DF91CF910F91FF90EF90DF9034
:1019B000CF90BF90AF909F908F907F906F905F90EF
:1019C0004F900C940C0BDF91CF910F91FF90EF9003
:1019D000DF90CF90BF90AF909F908F907F906F904F
:1019E0005F904F9008950F93CF93DF93EC010FE535
:1019F0002EE546E050E066E171E00E94810CCE01E8
:101A0000DF91CF910F910C9410060F931F93CF93FA
:101A1000DF93EC010E94F30C8FEF8AB98E01065B15
:101A20001D4FD801ED91FC912AEA45E555E560E0AE
:101A300070E0CE010995D801ED91FC9125E54AEAC7
:101A40005AE260E070E0CE010995D801ED91FC9179
:101A500020E845E555E560E070E0CE010995D80144
:101A6000ED91FC912AEA45E555E560E070E0CE0194
:101A70000995D801ED91FC9125E54AEA5AE260E02A
:101A800070E0CE010995D801ED91FC9120E145E58A
:101A900055E560E070E0CE01099564E170E080E01A
:101AA00090E0DF91CF911F910F910C940A020F9358
:101AB00001E620E643E050E067E071E00E94810C1F
:101AC0006AE070E080E090E00F910C940A028F923F
:101AD0009F92AF92BF92CF92DF92EF92FF920F93BD
:101AE0001F93CF93DF93EC018D8D9E8D892BE1F4B5
:101AF0008B8D9C8D90FD92C00FE52EE546E050E069
:101B000066E171E0CE010E94810CCE01DF91CF91A0
:101B10001F910F91FF90EF90DF90CF90BF90AF900B
:101B20009F908F900C9410064D815E816F81788517
:101B30004034510561057105E8F48B8D80FF15C0B7
:101B400084E80E940C0B82E08A838A818111D0CFC5
:101B5000DF91CF911F910F91FF90EF90DF90CF9089
:101B6000BF90AF909F908F9008958AEB0E940C0BCE
:101B70001A82EBCF7E0180EBE81A8DEFF80AD701CD
:101B8000ED91FC9141E060E870E0CE01099562E3DF
:101B900070E080E090E00E940A02D701ED91FC9194
:101BA00041E062E070E0CE01099564E670E080E01B
:101BB00090E00E940A028D809E80AF80B884B501BB
:101BC000A40140545109610971096E01B4EBCB1AAB
:101BD000BDEFDB0AD601ED91FC91CE010995082FEE
:101BE00010E0102F0027B501A4014F5351096109DE
:101BF0007109D601ED91FC91CE010995082BD70111
:101C0000ED91FC9140E062E870E0CE0109954B8DCA
:101C10004170B801CE010E94ED0897CF40E070E01E
:101C200060E086E8DF91CF911F910F91FF90EF90D8
:101C3000DF90CF90BF90AF909F908F900C946707EC
:101C4000CF93DF9300D0CDB7DEB779836A8342E0CC
:101C5000BE016F5F7F4F0E9467070F900F90DF916B
:101C6000CF910895CF93DF931F92CDB7DEB76983ED
:101C700041E0BE016F5F7F4F0E9467070F90DF91C9
:101C8000CF910895CF93DF93589A5098E0911D0219
:101C9000F0911E0282E08083E0911902F0911A0215
:101CA0001082E0911B02F0911C0287E08083109269
:101CB0002502E0912102F091220286E08083E091EA
:101CC0001F02F0912002808180618083E0911F02D9
:101CD000F0912002808188608083E0911F02F09162
:101CE0002002808180688083E0911F02F0912002B1
:101CF00080818F7D808362E370E080E090E00E94CD
:101D00000A028DE092E00E94A702892B29F08DE063
:101D100092E00E948502F5CF81E080930001C0E04F
:101D2000DAE080910602C81770F4DC9FB00111243C
:101D3000FB01E252FE4F60527E4F418180810E9442
:101D4000FC06CF5FEECF10920602DF91CF9108958F
:101D50006F927F928F929F92AF92BF92CF92DF92BB
:101D6000EF92FF920F931F93CF93DF93EC017B01D0
:101D70000E948706C701FE0109950E94420EF701E5
:101D80008281813008F499C0833008F46DC08330BB
:101D900009F093C0EF5DFD4FA080B180E701A196EF
:101DA0004E01DE01612CCD018C1B9D0B8A159B051C
:101DB00040F4ED916E26E62DF0E0EF51FF4F649078
:101DC000F2CFD12CC12C712C10E000E0CA14DB043E
:101DD00050F5F40181914F0161E0670DFFEFCF1ADB
:101DE000DF0A811113C08DE092E00E94E9027720A2
:101DF00049F0472D50E0BE01600F711F8DE092E069
:101E00000E944902860160E0762EE0CF6E3FE1F746
:101E10006FEF8DE092E00E94E902BE01600F711F3A
:101E20004EEF50E0EBCF611035C061E0670D8DE003
:101E300092E00E94E902772049F0472D50E0BE0170
:101E4000600F711F8DE092E00E94490261E08DE019
:101E500092E00E94E90260E08DE092E00E94E902D7
:101E60008DE092E00E9436030E946F0681E0F70148
:101E7000828390E080E0DF91CF911F910F91FF90DE
:101E8000EF90DF90CF90BF90AF909F908F907F901A
:101E90006F90089562E0670D8DE092E00E94E90284
:101EA000772049F0472D50E0BE01600F711F8DE093
:101EB00092E00E944902662DCACF8FEF9FEFDBCFE1
:101EC0000F931F93CF93DF93CDB7DEB728970FB64D
:101ED000F894DEBF0FBECDBF8C01FC01EA5BFD4F65
:101EE00080819181009741F1B8010E94A80EF8010C
:101EF0002081243009F047C0019609F5F801EF5D13
:101F0000FD4F80819181A281B3810497A105B10524
:101F100039F4B8016F5D7F4F44E080EB0E946707A2
:101F200080E028960FB6F894DEBF0FBECDBFDF91DC
:101F3000CF911F910F91089581E090E0D8CFF801E3
:101F4000818186FF17C041855285638574858581AF
:101F500096812781308579836A835B834C833D83B7
:101F60002E839F83888748E0BE016F5F7F4F80EE9E
:101F70000E946707F801818186FD03C0C8010E94A5
:101F8000F10A81E0CECF0196A9F7CACF8DE092E0A9
:101F90000C9485028DE092E00C94A702CF92DF9220
:101FA000EF92FF92CF93C82F0E94CA0F18161906FE
:101FB000E4F0CC23A1F00E943D026B017C010E9461
:101FC000CA0F181619068CF00E943D026C197D0983
:101FD0008E099F09683E73408105910580F3CF917A
:101FE000FF90EF90DF90CF9008950E94C60F97FD6D
:101FF000F6CF8111D9CFF3CF4F925F926F927F923C
:102000009F92AF92BF92CF92DF92EF92FF920F9387
:102010001F93CF93DF937C016B0100E0B12CA12CC7
:10202000912C10E0D0E0C0E00E94CA0F18161906EB
:10203000CCF00E943D022B013C010E94CA0F1816F1
:10204000190684F00E943D026419750986099709F2
:10205000683E73408105910580F380E00E94CE0FB9
:102060008FEF19C00E94C60F97FF02C081E0F6CF24
:10207000282F811105C0112309F44FC08DEF0BC02B
:10208000112379F1BB20E9F0CC15DD05A8F081E042
:102090000E94CE0F8EEF9FEFDF91CF911F910F9196
:1020A000FF90EF90DF90CF90BF90AF909F907F9088
:1020B0006F905F904F900895F701EC0FFD1F008324
:1020C00021968FEF810FBB24B394811107C0B92CE7
:1020D000911004C0BB24B394AA24A394022F182FF8
:1020E000A3CFAA20B1F0BB20B1F0CC15DD0578F666
:1020F000F701EC0FFD1F00832196992493942F3F45
:1021000009F0912C8150AA24A3948111A12C212F94
:10211000E5CF102FF2CFBA2CF0CFBB2009F4A0CF1F
:10212000D701C7018C0F9D1FA817B90741F0ED918A
:102130001E27E12FF0E0EF51FF4F1491F5CFCE01B4
:10214000011709F4A9CF8CEFA6CF8EE480937C0011
:1021500062E070E080E090E00E940A0280917A00E4
:10216000806480937A0080917A0086FDFCCF209174
:1021700078006091790070E0762F6627072E000CBA
:10218000880B990B622B08954F925F926F927F920A
:102190008F929F92AF92BF92CF92DF92EF92FF9277
:1021A000CF93DF93C090B002D090B102E090B20222
:1021B000F090B3028090B4029090B502A090B60265
:1021C000B090B70281E08093060180E10E94C201D5
:1021D000EC010E94A5102B013C0141145104610443
:1021E000710409F441C081149104A104B104E1F126
:1021F000A7019601280D391D4A1D5B1D213682E875
:1022000038078BE34807510578F5ACE4B4E00E9449
:10221000BD2BA50194010E94FB2B2115310580E403
:102220004807510508F5DE010E94422C7301620146
:10223000F694E794D794C7946C0D7D1D8E1D9F1D59
:10224000A30192010E94FB2BC901DF91CF91FF9066
:10225000EF90DF90CF90BF90AF909F908F907F9046
:102260006F905F904F90089590E080E0EECF4F9296
:102270005F926F927F92AF92BF92CF92DF92EF9276
:10228000FF920F93CF93DF93EC016C0180EBC81AA0
:102290008DEFD80AD601ED91FC9141E068E870E03D
:1022A000CE01099564EF71E080E090E00E940A029F
:1022B0000E94AD06811120C040E070E060E080E83F
:1022C0000E94670782E08A838A8181114AC0D60111
:1022D000ED91FC9140E068E870E0CE01DF91CF9194
:1022E0000F91FF90EF90DF90CF90BF90AF907F90D5
:1022F0006F905F904F9009940E94C4105C012C0174
:10230000712C612CED84FE84C701B0E0A0E08C50FC
:102310009E4FAF4FBF4F84159505A605B70568F4CE
:102320008B8D02E022E880FD02C000E028EBA701CF
:10233000B501CE010E946F09C7CF9701AFE5B0E0AC
:102340000E94C82B24E630E040E050E00E94FB2BC6
:10235000421653066406750608F0B6CF02E021E87F
:10236000E6CF8D8D9E8D892B39F0CE010E941A0902
:102370008A81882309F4ABCF8B8D81FF05C082FD54
:1023800003C0CE010E94870A8B8D83FD10C0CE0151
:10239000DF91CF910F91FF90EF90DF90CF90BF90A2
:1023A000AF907F906F905F904F900C949407DF9167
:1023B000CF910F91FF90EF90DF90CF90BF90AF90B3
:1023C0007F906F905F904F9008954F925F926F92C1
:1023D0007F92AF92BF92CF92DF92EF92FF920F93D4
:1023E000CF93DF93EC010E94AD06811116C040E04F
:1023F00070E060E080E80E94670782E08A83DF91F6
:10240000CF910F91FF90EF90DF90CF90BF90AF9062
:102410007F906F905F904F9008955E0180EBA81AB7
:102420008DEFB80AD501ED90FC908B8D84FD43C0F3
:10243000CE010E94820541E0BC01CE01F701099561
:1024400064E670E080E090E00E940A020E94C410FE
:102450006C012C01712C612CED84FE84C701B0E06D
:10246000A0E08C509E4FAF4FBF4F84159505A60539
:10247000B70520F58B8D00E028EB80FF02C002E05D
:1024800022E8A701B601CE010E946F09D501ED91A6
:10249000FC9140E066E871E0CE01DF91CF910F91B1
:1024A000FF90EF90DF90CF90BF90AF907F906F90B4
:1024B0005F904F90099480E890E0BDCF9701AFE521
:1024C000B0E00E94C82B24E630E040E050E00E94DB
:1024D000FB2B4216530664067506C0F602E021E89F
:1024E000D0CF1F93CF93DF93EC010E94E5118A8137
:1024F0008823C1F08D8D9E8D892BA1F08B8D9C8DB5
:10250000880F991F182F1270CE010E94960541E086
:10251000111101C040E0BC01CE01DF91CF911F91AC
:102520000C94ED08DF91CF911F9108950C94E51163
:10253000BF92CF92DF92EF92FF920F931F93CF93B0
:10254000DF93CDB7DEB7C854D1090FB6F894DEBF1C
:102550000FBECDBF7B01B42EFC0101900020E9F736
:1025600031971E2F181B1F3008F01EE01983C12E53
:10257000D12CA601BC01CE0102960E944A2CE2E0B9
:10258000F0E0EC0FFD1FEC0DFD1DE0828091610479
:1025900087FF08C042E0410FBE016F5F7F4F82E5B9
:1025A0000E94670729E069EB71E0B21202C060EA9D
:1025B00071E0FB0101900020E9F731978F01061BC4
:1025C000170B0983A8015527CE0102960E944A2CB9
:1025D0008091610487FF08C041E0400FBE016F5F3A
:1025E0007F4F83E50E94670789E0DE011196B812EC
:1025F0000AC08CE7898380E28A8380E3F0FC81E370
:102600008B83DE011496FD0187E090E03CE740E219
:1026100030834183B701082E02C0769567950A94EE
:10262000E2F720E360FD21E32283019733968F3F99
:10263000980771F78CE758968C93589759961C9287
:10264000BE016F5F7F4FFB0101900020E9F73197DA
:102650001E2F161B103208F01FE119A7412F50E062
:10266000CE018A960E944A2C8091610487FF08C09F
:1026700041E0410FBE01675D7F4F84E50E9467071F
:10268000C85BDF4F0FB6F894DEBF0FBECDBFDF9142
:10269000CF911F910F91FF90EF90DF90CF90BF905F
:1026A0000895CF93DF93C82FCB01C230F1F0C8302B
:1026B00051F1C130B9F420910401261799F06093CB
:1026C0000401D0E09FEF9AB98BB985B18C2B85B905
:1026D00085B1C095C823C5B9DD2321F08BE090E01A
:1026E0000197F1F7DF91CF9108952091030126170B
:1026F000C9F3609303012FEF2AB91BB80000000053
:1027000000000000DECF2091010130910201261768
:10271000370741F328703327D1E0AB0148705527C4
:102720004217530708F0D0E0909302018093010113
:102730000E94D706C7CFEF92FF920F931F93CF93BC
:10274000DF938C01D42FC52F7B01642F70E081E0D3
:102750000E9451136C2F70E082E00E9451134D2FA4
:102760005C2FB701C8010E94B406BC0188E0DF916C
:10277000CF911F910F91FF90EF900C945113AF9256
:10278000BF92CF92DF92EF92FF920F931F93CF935E
:10279000DF93EC017C018CEBE81A8DEFF80AF7016E
:1027A000118210828E010A5B1D4FF8011182108286
:1027B0006E01F8EBCF1AFDEFDF0AF60111821082ED
:1027C0008881823009F449C0863009F449C08130DB
:1027D00029F480EA93E0F8019183808386EA95E109
:1027E000FE01E45BFD4F9183808381E795E13297A1
:1027F000918380838BE993E13496918380835E019A
:10280000F0EBAF1AFDEFBF0A8DE595E1F50191837D
:1028100080838EE194E032969183808340E050E0A3
:10282000BA01CE010E949B136B816031D1F589E220
:1028300094E0F601918380838881833061F198F47C
:102840008230F1F0DF91CF911F910F91FF90EF90C7
:10285000DF90CF90BF90AF90089586E593E0BBCF17
:1028600086E798E0B8CF8430C9F0853059F7F70192
:1028700011821082F601118210828AE199E007C06C
:1028800087E391E1F7019183808381E29AE0F80187
:1028900091838083D7CF87E89AE0F9CF84E997E0E6
:1028A000F6CF6D3011F51F86188A198A1A8A888129
:1028B0008430A1F338F4823069F0833019F685E072
:1028C0009DE0E5CF893071F08A3009F0BBCF87E514
:1028D0009DE0DDCF87E69DE0F7019183808383E271
:1028E0009BE0D5CF83EF9CE0D2CF663039F58BEDFE
:1028F00097E1F701918380838881843079F240F4F5
:10290000823081F0833009F09DCF85EE97E1BFCF13
:10291000853079F0803109F095CF118210828DE8F1
:1029200096E1B5CF85E498E19183808388E798E1CB
:10293000AECF1182108283EE97E1A9CF653021F0EE
:10294000653311F0693319F58881843009F4A6CF15
:1029500040F4823071F0833009F074CF85E399E15F
:1029600096CF853071F0803109F06CCF85E696E125
:102970008ECF89EA99E1F7019183808384EB96E118
:1029800086CFF7011182108289ED97E180CF89EF20
:10299000860F823018F06B3009F07DC081E792E13C
:1029A000F701918380838881833009F449C0A8F5B9
:1029B0008230F1F1F501808191819093080280933A
:1029C000070282E694E0918380838F859889A989A4
:1029D000BA89892B8A2B8B2BA1F484E690E0A0E0A6
:1029E000B0E0683051F084EF91E0A0E0B0E06B30EF
:1029F00021F088EE93E0A0E0B0E08F87988BA98B60
:102A0000BA8B70E090E080E00E944605009749F59F
:102A10006B818BEB0E94320E3CC08430F9F0853024
:102A200049F686E992E19183808383E699E006C0C6
:102A300088E09AE19183808383E79AE1F8010BC0F3
:102A400086E09AE1F801918380838B8D83FDB2CF7C
:102A500084E997E0F60191838083ACCF84E997E025
:102A6000EDCFFC01349685919591A591B491009795
:102A7000A105B10509F4E6CE4F85588969897A899F
:102A800084179507A607B70708F0DCCE8EEA0E94E8
:102A90000C0B1A82D7CE6E3009F4D4CE89ED860F96
:102AA000833008F4CFCEF70111821082F801118231
:102AB0001082F60111821082ACCF809101019091B9
:102AC0000201442329F0682B792B88E00C945113E0
:102AD0006095709568237923F8CF2A9A08952D9AE6
:102AE0000895CF92DF92EF92FF921F93CF93DF93DF
:102AF000EC016A017B01122F0E946D1520E0B701E5
:102B0000A601CE010E948004AB01BC01FE01E25B84
:102B1000FD4F0190F081E02DCE0109958FEF8AB92C
:102B20001BB987E090E00197F1F70E9444056F859B
:102B3000788989899A890E940004DF91CF911F9139
:102B4000FF90EF90DF90CF900C946F15CF93DF93B1
:102B5000EC012A9821E00E948004AB01BC01FE0137
:102B6000E25BFD4F0190F081E02DCE0109951BB88D
:102B70001AB88B899C89AD89BE890097A105B105DA
:102B800061F0893E23E09207A105B10520F088EEAF
:102B900093E0A0E0B0E00E94DA010E9444058F8932
:102BA000988DA98DBA8D0097A105B10599F0893E40
:102BB00023E09207A105B10520F088EE93E0A0E0A4
:102BC000B0E00E94DA01C9B10E946F158C2FDF912D
:102BD000CF91089583E090E0A0E0B0E0F2CF7F9243
:102BE0008F929F92AF92BF92CF92DF92EF92FF921D
:102BF0000F931F93CF93DF938C017B015A016C01DC
:102C000080EBC81A8DEFD80AD601ED91FC9140E017
:102C100060E470E0C8010995E701F12CE12C8824FB
:102C20008A947C80688199808AB870E081E00E94F3
:102C30005113692D70E082E00E9451138AB87BB86D
:102C40000E946D150E9444050E946F15BFEFEB1A9C
:102C5000FB0A2596AE14BF0421F7D601ED91FC9135
:102C600040E060E470E0C801DF91CF911F910F91C7
:102C7000FF90EF90DF90CF90BF90AF909F908F909C
:102C80007F9009941F93CF93DF93EC0143E050E0D2
:102C900061E971E00E94EF15FE01E45BFD4F0190D8
:102CA000F081E02D42E050E060E070E0CE01099557
:102CB000182F43E050E062E871E0CE010E94EF156A
:102CC000812FDF91CF911F9108950F931F93CF9381
:102CD000DF9300D0CDB7DEB78C010E944216898306
:102CE0008F3F91F41A8281E0F801828342E0BE01B5
:102CF0006F5F7F4F81EE0E9467070F900F90DF910B
:102D0000CF911F910F9108958E3F19F481E08A832E
:102D1000EBCF8FEF8A8382E0E7CF0F931F93CF93A0
:102D2000DF9300D0CDB7DEB78C010E9442168983B5
:102D3000811112C01A8281E0F801828342E0BE0153
:102D40006F5F7F4F81EE0E9467070F900F90DF91BA
:102D5000CF911F910F910895813011F48A83ECCFA8
:102D60008FEF8A8382E0E8CF2F923F924F925F925B
:102D70006F927F928F929F92AF92BF92CF92DF928B
:102D8000EF92FF920F931F93CF93DF93CDB7DEB7F0
:102D90002E970FB6F894DEBF0FBECDBF8C01FC019D
:102DA00085819681A781B08520E4822E912CA12C6B
:102DB000B12C81309105F1E0AF07B10568F030E842
:102DC000832E912CA12CB12C0197A440B10520F0A9
:102DD000812C912C54019394C801819698878F83FC
:102DE000412C512C3201D801AF5DBD4FBA87A98764
:102DF000F801E65BFD4FFC87EB87855D9D4F9E8765
:102E00008D87E985FA8580819181A281B3814816F9
:102E100059066A067B0608F072C0D8011996CD9053
:102E2000DD90ED90FC901C97C40CD51CE61CF71CA3
:102E3000EF81F8852191F887EF832E83C701B601D2
:102E4000A50194010E94FB2B672B682B692B29F0AD
:102E5000411451046104710439F443E050E064E327
:102E600071E0C8010E94EF15AB85BC85ED91FC9126
:102E70002E81B701A601C8010995C701B6016F5F90
:102E80007F4F8F4F9F4FA50194010E94FB2B672B13
:102E9000682B692B79F0E985FA8580819181A2817F
:102EA000B3810197A109B10984159505A605B70558
:102EB00009F03EC0212C84E0382E83E290E0019797
:102EC000F1F7AD85BE85ED91FC91B701A601C80172
:102ED0000995BE81B81761F1E1E02E1A310869F752
:102EE000B983EA82DB82CC828D8345E0BE016F5FCD
:102EF0007F4F83EB0E946707D80112961C922E9693
:102F00000FB6F894DEBF0FBECDBFDF91CF911F91FA
:102F10000F91FF90EF90DF90CF90BF90AF909F9078
:102F20008F907F906F905F904F903F902F9008957B
:102F3000BFEF4B1A5B0A6B0A7B0A63CFEF92FF92DB
:102F40000F931F93CF93DF93EC0143E050E061E9CF
:102F500071E00E94EF157E0184EBE81A8DEFF80A0C
:102F6000D701ED91FC9140E050E0BA01CE01099506
:102F7000082F10E0102F0027D701ED91FC9141E0C0
:102F800050E060E070E0CE010995082B43E050E08E
:102F900062E871E0CE010E94EF154B8D4170B801DF
:102FA000CE01DF91CF911F910F91FF90EF900C9484
:102FB000ED080C949E17FC01258D368D232B11F006
:102FC0000C949E1708950C949E17CF92DF92EF9267
:102FD000FF920F931F93CF93DF93CDB7DEB76E971A
:102FE0000FB6F894DEBF0FBECDBFFC010185128580
:102FF0002385348546E050E062E571E00115110556
:103000002105310589F145E555E560E070E049832A
:103010005A836B837C83FAEAFD83EAEACE2EEAE2E6
:10302000DE2EE12CF12CCE82DF82E886F986E5E502
:10303000EA874B875C876D877E87A0E8AF87488BE0
:10304000598B6A8B7B8BFC8BCD8ADE8AEF8AF88E5C
:10305000E98F40E34E8F0A8F1B8F2C8F3D8F46E008
:1030600050E0BE016F5F7F4F0E94EF156E960FB666
:10307000F894DEBF0FBECDBFDF91CF911F910F91AE
:10308000FF90EF90DF90CF900895CF93DF93EC0106
:10309000898186FD07C08D8D9E8D892B59F48B8D7E
:1030A00081FD11C08B8D83FD0BC0CE01DF91CF91CF
:1030B0000C949407CE010E949E178A818111EFCF54
:1030C000DF91CF91089582FD0AC0CE010E94E517DD
:1030D00069E670E080E090E00E940A02E3CF87FF9B
:1030E000E1CF40E070E060E089E50E946707DACF59
:1030F0002F923F924F925F926F927F928F929F9208
:10310000AF92BF92CF92DF92EF92FF920F931F93F5
:10311000CF93DF9300D000D0CDB7DEB79C838B83F5
:103120008C01412C512C32018F5D9D4F9A838983F4
:10313000480126EB821A2DEF920A580180EBA81A5B
:103140008DEFB80AE981FA8180819181A281B381F2
:10315000481659066A067B0608F070C043E050E046
:1031600063E471E08B819C810E94EF15AB81BC818F
:1031700019964D915D916D917C911C97440D551D53
:10318000661D771DD401ED91FC91D80191962C918B
:103190008B819C810995F80121A0D501ED91FC91CD
:1031A00041E060E470E08B819C8109950E943D02C2
:1031B0006B017C01B6E9CB0ED11CE11CF11C0E9415
:1031C0003D026C157D058E059F0568F51BB81AB884
:1031D0000E9444052A9839B00E946F150E946D150F
:1031E000322437FCECCF1BB81AB80E9444052A9849
:1031F00039B00E946F150E946D15322437FCDFCF65
:10320000EFEFEAB90E946F150E946D150F5F1F4F17
:10321000EB81FC818281882389F0FFEF4F1A5F0ADE
:103220006F0A7F0A8FCF40E070E060E087EB0E947A
:103230006707AB81BC8112961C92E8CF0F900F906C
:103240000F900F90DF91CF911F910F91FF90EF9012
:10325000DF90CF90BF90AF909F908F907F906F90B6
:103260005F904F903F902F900895EF92FF920F93B1
:103270001F93CF93DF93EC0121E040E050E0BA01CF
:103280000E948004AB01BC017E0182EBE81A8DEF45
:10329000F80AD701ED91FC91CE0109950E946F15B6
:1032A0008E01005B1D4FD801ED91FC9140E064E878
:1032B00071E0CE01099562E070E080E090E00E944C
:1032C0000A020E944405D801ED91FC9141E064E8B6
:1032D00071E0CE01099562E070E080E090E00E942C
:1032E0000A0220E040E050E0BA01CE010E948004D2
:1032F000AB01BC01D701ED91FC91CE01099564E1D0
:1033000070E080E090E00E940A0221E040E050E09E
:10331000BA01CE010E948004AB01BC01D701ED913E
:10332000FC91CE01099562E070E080E090E00E949F
:103330000A020E946F15D801ED91FC9140E064E80B
:1033400071E0CE01DF91CF911F910F91FF90EF902F
:103350000994FC01218126FD11C02281222371F0F4
:10336000238D21FF0BC022FF0C94351927FF06C0C7
:1033700040E070E060E088E50C94670708950F93E3
:103380001F93CF93DF93EC010E946D158E01005BBC
:103390001D4FD801ED91FC9141E060E870E0CE0155
:1033A000099564E670E080E090E00E940A02FE0168
:1033B000E25BFD4F0190F081E02D40E050E0BA016A
:1033C000CE010995D801ED91FC9141E066E070E0F5
:1033D000CE01099564E670E080E090E00E940A0268
:1033E0000E94440560EA76E881E090E00E940004D3
:1033F0000E946F15D801ED91FC9140E066E871E004
:10340000CE01DF91CF911F910F9109940C94BF19B8
:10341000CF93DF93EC01898186FD0EC0CE010E941F
:1034200071128A81882389F08B8D81FF05C082FD0E
:1034300019C0CE010E94BF198B8D83FD03C0CE0140
:103440000E9494078A81811116C0FE01E05BFD4F46
:103450000190F081E02D40E066E871E0CE01DF915F
:10346000CF91099487FFE8CF40E070E060E088E505
:103470000E946707E1CFDF91CF9108950E948706F0
:103480000E946F1570E060E088E00E94511370E0C8
:1034900060E081E00E94511370E060E082E00E94F1
:1034A0005113109246040C94420EFF920F931F93F7
:1034B000CF93DF938C01C0E3D0E0F801F1908F014E
:1034C000CE010E94A72BF81621F06F2DCE010E948D
:1034D000AF2B2196CF33D10581F7DF91CF911F918B
:1034E0000F91FF9008952F923F924F925F926F92AB
:1034F0007F928F929F92AF92BF92CF92DF92EF9284
:10350000FF920F931F93CF93DF93CDB7DEB7C756CC
:10351000D1090FB6F894DEBF0FBECDBF6C01FC0120
:10352000EE5AFD4F0190F081E02D60E870E00995C2
:10353000811118C0F601E05BFD4F00811181D601B9
:103540005B968C9184FD5EC1C6010E94820541E0BC
:10355000BC01C601F801099564EF71E080E090E0DC
:103560000E940A02D60113966C9170E090E080E010
:103570000E944605009709F48BC1FC013496259101
:103580003591459154916E962CAF3DAF4EAF5FAFE4
:103590006E97FC013896349168963FAF6897FC01AE
:1035A0002591359145915491A6962CAF3DAF4EAFE4
:1035B0005FAFA697FC0139963491A1963FAFA197D2
:1035C00031964491A2964FAFA297D6011F968D9146
:1035D0009D910D90BC91A02D29968CAF9DAFAEAF63
:1035E000BFAF2997F601EF5DFD4F208131816A96CB
:1035F0003FAF2EAF6A97FE01319680E4DF011D9246
:103600008A95E9F72E961CAE1DAE1EAE1FAE2E9704
:10361000212CF601E45BFD4FA896FFAFEEAFA89713
:103620009601205B3D4F25963FAF2EAF2597A60113
:10363000465B5D4FA0965FAF4EAFA097D60119963F
:10364000BC916596BFAF6597F601F2856696FFAFB0
:103650006697D6011B96BC916796BFAF6797F60138
:1036600034846296DFAECEAE62976096DFAECEAEA9
:103670006097412C512C320123961FAE1EAE23972A
:103680006A962EAD3FAD6A974216530608F0E5C024
:10369000C2018770992741E050E002C0440F551FD6
:1036A0008A95E2F764965FAF4EAF6497820193E02C
:1036B000169507959A95E1F7E1E0F0E0EC0FFD1F14
:1036C000E00FF11FF080E42EEF20222019F0EE2011
:1036D00009F488C06096AEADBFAD60979196BC917D
:1036E0002A96BFAF2A97BF3F09F47CC0F6018184B8
:1036F0009284A384B484840C951CA61CB71CA89641
:10370000AEADBFADA897ED91FC91B501A401C60186
:1037100009952A96BFAD2A97B81377C0EE2009F411
:1037200061C0E1E0F0E0EC0FFD1FE00FF11F6396D8
:103730008FAD63978095F822F082A696ECACFDAC35
:103740000EAD1FADA697A1962FADA19729964CADB2
:103750005DAD6EAD7FAD2997822D0E94ED0561159F
:1037600071058105910509F43DC0F6016787708BED
:10377000818B928B2596AEADBFAD2597ED91FC91D7
:1037800041E064E070E0C60109958BE99FE0019794
:10379000F1F7A096AEADBFADA097ED91FC912A9642
:1037A0002FAD2A97B501A401C60109958BE891E0D8
:1037B0000197F1F72596AEADBFAD2597ED91FC9140
:1037C00040E064E070E0C601099529962CAD3DAD5E
:1037D0004EAD5FAD2997D6011F962D933D934D9326
:1037E0005C93529760964EAD5FAD60974F5F5F4FB1
:1037F00060965FAF4EAF60975FEF451A550A650A56
:10380000750A3ECF80E890E0A2CEE1100BC0E1E067
:10381000F0E0EC0FFD1FE00FF11F6396BFAD639763
:10382000FB2AF0822396EEADFFAD2397EF2B51F4E8
:1038300065968FAE659766969FAE66976796AFAEB4
:1038400067973B2C23962EAD3FAD23972F5F3F4FBD
:1038500023963FAF2EAF2397C5CF23968EAD9FAD56
:103860002397892B09F4D7C068969FAD689792116A
:1038700038C00DEB292F65964FAD659766965FAD05
:10388000669767966FAD6797732DC6010E94BA0A57
:10389000D60112968C918111C8C0F601E05BFD4FF4
:1038A0000190F081E02D40E066E871E0C601C95961
:1038B000DF4F0FB6F894DEBF0FBECDBFDF91CF91C3
:1038C0001F910F91FF90EF90DF90CF90BF90AF903E
:1038D0009F908F907F906F905F904F903F902F9030
:1038E00009946E962CAD3DAD4EAD5FAD6E97211532
:1038F00031054105510571F02E968CAD9DADAEADF3
:10390000BFAD2E9782179307A407B50718F00EEBEB
:10391000222DB1CF2596AEADBFAD2597ED91FC918F
:1039200041E064E070E0C60109958BE99FE00197F2
:10393000F1F7812C912C54016A96EEADFFAD6A9798
:103940008E169F0608F040C0F40183E0F695E795D7
:103950008A95E1F721E030E02C0F3D1FE20FF31FC5
:10396000C4018770992721E030E001C0220F8A95B9
:10397000EAF780818223C9F0D60119964D915D91B5
:103980006D917C911C97480D591D6A1D7B1DA09659
:10399000AEADBFADA097ED91FC916296AEADBFAD5F
:1039A000629791962C91C60109956296EEADFFAD96
:1039B000629731966296FFAFEEAF6297FFEF8F1A74
:1039C0009F0AAF0ABF0AB8CF8BE891E00197F1F7E1
:1039D0002596AEADBFAD2597ED91FC9140E064E03A
:1039E00070E0C601099523942E962CAD3DAD4EADE9
:1039F0005FAD2E9729968CAD9DADAEADBFAD29972D
:103A0000280F391F4A1F5B1F2E962CAF3DAF4EAFBC
:103A10005FAF2E9713CEA2969FADA297913009F07B
:103A200037CFC6010E94760833CFC959DF4F0FB692
:103A3000F894DEBF0FBECDBFDF91CF911F910F91E4
:103A4000FF90EF90DF90CF90BF90AF909F908F90BE
:103A50007F906F905F904F903F902F9008954F927E
:103A60005F926F927F92AF92BF92CF92DF92EF926E
:103A7000FF920F931F93CF93DF9300D000D0CDB769
:103A8000DEB77C010E94CA0F181619060CF0A1C0FF
:103A90006E0185E0C80ED11C0E94CA0F18161906C7
:103AA0000CF097C08DE092E00E9499028434910559
:103AB000E1F18F349105A1F0839709F087C00E944E
:103AC000C60F60E072E0C70181960E94FC0F97FF6D
:103AD0006FC0BC0189EA0E94200E84E090E012C011
:103AE0000E94CA0F02970CF474C00E94C60F8DE0AA
:103AF00092E00E9499028B34910571F60E94C60FE4
:103B000090E080E00F900F900F900F90DF91CF9199
:103B10001F910F91FF90EF90DF90CF90BF90AF90EB
:103B20007F906F905F904F9008950E94CA0F049706
:103B30000CF44FC08E010F5F1F4FB02EA12E0E94BC
:103B40003D026093150270931602809317029093C2
:103B500018028DE092E00E94850297FF3DC00E940E
:103B60003D0240901502509016026090170270902E
:103B7000180264197509860997094090110250903E
:103B80001202609013027090140264157505860588
:103B90009705F8F244E050E06CED70E08B2D9A2D23
:103BA0000E94992B892B09F077CF81E090E0AACF72
:103BB000F701EF5DFD4F092E000CAA0BBB0B8083B4
:103BC0009183A283B38382E090E09CCF0E94C60FD2
:103BD00063CF83E090E096CFF80181938F01CE16FA
:103BE000DF0609F0ACCFD6CF0F931F93CF93DF93AF
:103BF000EC0149855A856B857C858D819E81AF81DD
:103C0000B885481759076A077B0720F0CE010E9444
:103C1000F10A12C0CE010E942F1D8330910591F44C
:103C2000898187FD09C040E070E060E082E00E9489
:103C3000670789818068898381E0DF91CF911F9137
:103C40000F91089529812F77298381309105F1F211
:103C5000029711F080E0F1CF8E010F5D1D4F898535
:103C60009A85AB85BC85F801408151816281738161
:103C7000840F951FA61FB71F4D815E816F817885C8
:103C8000481759076A077B0738F440E070E060E0A6
:103C900087EA0E946707DECFFE01EA5BFD4F808165
:103CA00091810097B9F2BE010E94A80E019691F28F
:103CB00089859A85AB85BC85F801408151816281F7
:103CC0007381840F951FA61FB71F89879A87AB87BB
:103CD000BC87B2CFCF92DF92EF92FF92CF93DF9368
:103CE000EC010E943D026B017C0128EEC20E23E034
:103CF000D21EE11CF11C0E943D026C157D058E0553
:103D00009F0570F4CE010E942F1D009789F0049743
:103D100069F06AE070E080E090E00E940A02EBCF78
:103D200040E070E060E088EA0E94670780E001C040
:103D300081E0DF91CF91FF90EF90DF90CF900895D9
:103D40000F931F93CF93DF938C01EB018091470476
:103D50008F7390E09B01215031098217930731F056
:103D60008617970739F181E090E008C086E494E077
:103D70000E946A1E811107C08FEF9FEFDF91CF91E4
:103D80001F910F9108958091610490916204807851
:103D90009927C130D105C1F4892B31F040E070E0A2
:103DA00060E082E40E94670780914704807C8C2B4E
:103DB000809347040115110571F48091470486FF33
:103DC00012C090E080E0DACF892B71F340E070E020
:103DD00060E083E4E7CF66E474E0C8010E94A80EC7
:103DE000019659F7C9CF40E070E060E080E121978B
:103DF00009F080E30E94670790914704892F8F7331
:103E00008F5F907C892B80934704ADCFCF93DF9356
:103E1000EC0180918C0690918D06892B09F458C095
:103E2000809147048F73863051F486E494E00E94B9
:103E30002F1D21E0039709F044C020E042C08330E9
:103E4000F9F0823021F586E494E00E946A1E88230E
:103E5000E1F10E946F0680914704807C836080932B
:103E600047048091610487FF06C040E070E060E095
:103E700080E40E946707809147048F738330E9F6DE
:103E800086E494E0FE01099521E028271AC061E04C
:103E900070E080918A0690918B060E94A01E81306E
:103EA000910559F465E070E080918E0690918F063F
:103EB0000E94A01E81309105F1F221E0892B09F4C6
:103EC000BCCF822FDF91CF9108958FEF9FEFF5CF79
:103ED00040E070E060E085EA0E94670710924804C5
:103EE00021E0EFCFCF92DF92EF92FF920F931F93DB
:103EF000CF93DF93FC01EA5BFD4F208131812115D7
:103F0000310559F410E0812FDF91CF911F910F916E
:103F1000FF90EF90DF90CF900895EC01BC01C901B4
:103F20000E94A80E019671F340E070E060E082EE1E
:103F30000E94670780910001882309F462C0FE0196
:103F4000EF5DFD4FE080F1808EEFE8168FEFF80611
:103F500008F057C0E8EDF0E064918DE092E00E9437
:103F6000E902E9EDF0E064918DE092E00E94E9025F
:103F7000EAEDF0E064918DE092E00E94E902EBED61
:103F8000F0E064918DE092E00E94E90287010E5F0B
:103F90001F4F612F8DE092E00E94E902602F8DE0BB
:103FA00092E00E94E90266EE8DE092E00E94E90252
:103FB000E7ECF1E004916E01C6018C1B9D0B8E15A0
:103FC0009F0588F4F60111A1612F8DE092E00E9417
:103FD000E902E12FE027F0E0EF51FF4F0491FFEFFE
:103FE000CF1ADF0AE9CF602F8DE092E00E94E9024C
:103FF0006AE08DE092E00E94E9028DE092E00E948A
:104000003603CE010E946A1E182F882309F47ACF46
:1040100089859A85AB85BC85FE01EF5DFD4F4081AA
:10402000518162817381840F951FA61FB71F8987F5
:104030009A87AB87BC874D815E816F8178858417B5
:104040009507A607B70708F45ECFCE010E94F10AD4
:104050005ACFEF92FF920F931F93CF93DF93FB0101
:104060002081243039F58A01EB017C01CA010E94CC
:10407000902BEA81FB812C813D812E1B3F0B821707
:104080009307C1F4AC01B801C7018E0F9F1F0E94B6
:10409000992B21E030E0892B11F430E020E08827D3
:1040A0009927821B930BDF91CF911F910F91FF9066
:1040B000EF9008958FEF9FEFF6CF0F931F93CF935D
:1040C000DF938C0186E0869FE001879FD00D11244D
:1040D000BE016A537D4F4BE952E0C8010E9429207E
:1040E000892B91F4C453DD4F8A819B81800F911FEE
:1040F0000E944D06709362046093610481E0DF9139
:10410000CF911F910F91089580E0F9CFEF92FF9228
:104110000F931F93CF93DF938C0186E0869FE0017E
:10412000879FD00D1124CE018A539D4F7C0147E912
:1041300052E0BC01C8010E942920892B41F041E9CD
:1041400052E0B701C8010E942920892B81F4C45391
:10415000DD4F8A819B81800F911F0E944D06862F23
:10416000DF91CF911F910F91FF90EF9008958FEF06
:10417000F7CF1F920F920FB60F9211242F933F93F8
:104180008F939F93AF93BF938091BE029091BF0294
:10419000A091C002B091C1023091BD0223E0230F73
:1041A0002D3758F50196A11DB11D2093BD028093B6
:1041B000BE029093BF02A093C002B093C10280914F
:1041C000C2029091C302A091C402B091C5020196AF
:1041D000A11DB11D8093C2029093C302A093C4029B
:1041E000B093C502BF91AF919F918F913F912F9155
:1041F0000F900FBE0F901F90189526E8230F029680
:10420000A11DB11DD2CF1F920F920FB60F92112494
:104210002F933F934F935F936F937F938F939F93CE
:10422000AF93BF93EF93FF938DE092E00E94C7029C
:10423000FF91EF91BF91AF919F918F917F916F917E
:104240005F914F913F912F910F900FBE0F901F9054
:1042500018951F920F920FB60F9211242F938F93E0
:104260009F93EF93FF93E0911D02F0911E028081D6
:10427000E0912302F091240282FD1BC09081809185
:1042800026028F5F8F7320912702821741F0E09101
:104290002602F0E0E35FFD4F958F80932602FF91A9
:1042A000EF919F918F912F910F900FBE0F901F90C4
:1042B00018958081F4CFCF93DF93CDB7DEB7EC971D
:1042C0000FB6F894DEBF0FBECDBF789484B5826080
:1042D00084BD84B5816084BD85B5826085BD85B5AA
:1042E000816085BD80916E00816080936E00109228
:1042F00081008091810082608093810080918100A3
:104300008160809381008091800081608093800033
:104310008091B10084608093B1008091B000816091
:104320008093B00080917A00846080937A008091BD
:104330007A00826080937A0080917A008160809315
:104340007A0080917A00806880937A001092C10090
:10435000BAEAEB2EB2E0FB2E00E310E0C8010E94A7
:10436000A72BD7018D937D010F5F1F4F0F331105D1
:10437000A9F764EA71E08AEA92E00E94532C892B43
:1043800029F164EA71E08AEA92E00E945C2C80EBF9
:104390009EE1A4E0B0E08093B0029093B102A093BC
:1043A000B202B093B30280EE9BEAA0E0B0E080934B
:1043B000B4029093B502A093B602B093B7028FEF08
:1043C0008093B8028AEA92E00E94551A81E10E9425
:1043D0009A0180E10E949A01A8E0FA2E10E000E024
:1043E00081E10E94C201080F191FFA94F110F8CF61
:1043F000F3E016950795FA95E1F782E0083C110580
:1044000038F0C8018C5D91098C37914020F485E02B
:10441000809305010EC08EEF08351240C8F380E18D
:104420000E94C20121E0883E93400CF020E02093DE
:104430000501809105018E3F41F48091B8028F3FC4
:1044400021F46EEF8BE50E94320E8FE284B980E199
:1044500085B90E946F150E946D1570E060E081E0E3
:104460000E94511370E060E082E00E94511370E0FE
:1044700060E088E00E9451130E94420E10924604B0
:1044800080914604882309F436C00E943D020091C1
:10449000B9021091BA022091BB023091BC020617FA
:1044A00017072807390738F5609146048AEA0E9401
:1044B000320E0E943E1A81E08093480460914604C7
:1044C000613110F00C945A2BE62FF0E0E659FD4DC7
:1044D0000C943C2C4A29F92803290629112914296E
:1044E00003298E2AF529112911291F291F29C629D7
:1044F000392BE9291129809146048111DCCF0E94D2
:10450000CA0F181619060CF0C5C66FEF71E087E6E2
:1045100094E00E94FC0FDC01181619060CF064C62A
:10452000AC01092E000C660B770B40936706509385
:1045300068066093690670936A06811502E0900729
:1045400024F4FC01EA5BFB4F11A281E08093480454
:104550001092470480E890E0909362048093610495
:104560006FEF7FEF30E020E050E040E0512C412C35
:1045700096E088E0B82EE4E0AE2EF901E959FB4F51
:104580008081882309F42FC18A330CF057C080330F
:104590000CF06BC0803209F420C16CF4893034F027
:1045A0008B300CF41AC18D3009F417C1FEEF4F2E79
:1045B00055245A9424C18C3209F4E3C18D3209F494
:1045C00054C0823299F739012F5F3F4F2A173B07BA
:1045D00008F0BFC0F901E959FB4FE081EE2309F46F
:1045E000B8C0E23209F06EC14034510508F0B1C0E4
:1045F0007A011FEFE11AF10A949FF001959FF00DE7
:104600001124EA53FD4F4FEF5FEF558344835383EB
:1046100042831182309709F49CC0A08283010F5F0E
:104620001F4F13830283358324835FEF451A550A96
:104630006F3F760709F09AC1A701CFC08636A9F06F
:104640006CF48B3509F48CC08D3509F405C18A33BF
:1046500009F0ACCFBA0161507109BFC0843729F0AD
:104660000CF05FC08E3609F0A1CF6F3F760781F066
:10467000969FF001979FF00D1124EA53FD4F108192
:10468000113009F466C0143019F4E181E11161C000
:104690007901F901E959FB4F2A173B0708F059C086
:1046A0001191112309F455C0103251F00CF099C149
:1046B00019300CF49FC11B301CF01D3009F09AC159
:1046C0004034510508F045C08A010F5F1F4F949F89
:1046D000F001959FF00D1124EA53FD4F88248A9430
:1046E000982C95828482938282821182309789F1FC
:1046F000B082E282F38235832483215031094FEF67
:10470000441A540A6F3F760751F0969FF001979F25
:10471000F00D1124EA53FD4F41814F5F4183A80101
:104720005CC08B37E9F08D3709F040CFEE24E3947D
:10473000F12C8A0101501109949FF001959FF00D11
:104740001124E054FD4F17FF8BC00F3F1F4F09F09E
:1047500044C040E070E060E080EA0E9467079AC5CC
:104760001FEF411A510A4034510598F76A01EFEFE3
:10477000CE1ADE0A949FF001959FF00D11248F014F
:104780000A531D4F4801EE24EA94FE2CF401F582F1
:10479000E482F382E282118281149104D1F26F3FAC
:1047A000760789F0969F7001979FF00C1124B7014E
:1047B0006A537D4FFB01F080F1E0FF1651F2FB01DF
:1047C000F180F394F18261E08B3709F062E0F4014B
:1047D000608333832283BA01A6012F5F3F4F2A17DC
:1047E0003B0708F4CACECA01019726E0249FF001D6
:1047F000259FF00D1124EE53FD4F97FF04C11414B3
:1048000015040CF0A6CF8FEF80934604109262043B
:1048100010926104F12C10E000E0B80187E694E00A
:104820000E9486208F3F09F4FCC0809346040F5FEE
:104830001F4F809146048F3F11F0F110FEC00F5FB3
:104840001F4F041515054CF38F3F09F0F6C040E0EB
:1048500070E060E081EA81CFF2E0EF2EF12C69CFC9
:10486000C280D380CD20C09449F1C480D580CD20B2
:10487000C09421F560816E151F0409F06ACFB9015B
:104880006F5F7F4F75836483909FF001919FF00D60
:104890001124EA53FD4FB801028113810F3F1F4FCE
:1048A00031F0048115810F3F1F4F09F496CF6150FD
:1048B000710936976F3F760779F78FCF015011094D
:1048C000369741CFEC3509F07FCE6901EFEFCE1A74
:1048D000DE0ACA16DB0608F077CE860109591B4F9F
:1048E000F8018081863639F074F48F3221F02CF48F
:1048F000823209F02ECF960167CE8C35E1F38236F5
:1049000009F027CFF8CF8237B1F324F48E3609F0BF
:1049100020CFF1CF843779F3853709F01ACF4901D9
:10492000F2E08F0E911C890107591B4F78012A5F15
:104930003F4F8A169B06B0F4F70181917F018823CF
:1049400089F0E0EDCE2EC80E19E01C1528F48F7DFD
:104950008154863008F0FDCE8FEF881A980A8216AF
:10496000930639F79401215031092ECE969FF0011C
:10497000979FF00D1124EA53FD4F41814F5F418312
:104980005BCE6F3F760709F428CF969FF001979F83
:10499000F00D1124EA53FD4FE081E150E23008F4BC
:1049A0001CCF8A0101501109949FF001959FF00DD1
:1049B0001124E054FD4F17FD10CFF080FA948824A5
:1049C00083948F1450F0E280F380EF20E09429F07C
:1049D000E480F580EF20E094A1F0015011093697B2
:1049E000EACF1D3509F46CCE1D3709F469CE1C32AF
:1049F00009F466CE2F5F3F4F10521F3508F44CCE9E
:104A0000A8CEB801EACE208131812F3F3F4F31F04F
:104A1000228133812F3F3F4F09F49BCE0197369778
:104A2000ECCEB80187E694E00E945D20882309F46B
:104A300000CF0F5F1F4FF82EFCCE8B3008F072C0F6
:104A4000893028F49FEF980F963008F06EC01092CE
:104A50004F0410925004109251041092520410927C
:104A60006204109261048FEF809384068093850620
:104A700080936B0610927F0610928006109281063A
:104A8000109282061092860610928706109288066F
:104A900010928906109264041092630410926604C6
:104AA000109265048091C602813019F58091C70289
:104AB000882E912C9AAE89AE1CA61BA62224239484
:104AC000312C89AC9AACABA4BCA4A814B904DCF119
:104AD00080916B068F3F69F4EE24EA94FE2C00E08F
:104AE00010E0E0927F06F09280060093810610931A
:104AF0008206809146048B3008F00EC2893020F483
:104B00008150863008F00BC266E474E08FEB93E1CD
:104B10000E94A80E019609F002C240E070E060E039
:104B200082EA1BCE803109F492CF8B3008F48FCF0C
:104B30008E3009F0F4C1EE24E394F12C10E000E093
:104B400096E0D92EEEC2241435049CF676E0972E1A
:104B5000929C8001939C100D112498012A533D4F83
:104B6000690144E852E0B90187E694E00E942920F7
:104B7000892B59F04EE752E0B60187E694E00E9497
:104B80002920F12CE12C892B51F432E0230E311C29
:104B90000BA51CA50F5F1F4F1CA70BA792CFF701FA
:104BA000E45CFD4F45915491B60187E694E00E9484
:104BB0002920892B09F061C0F801E453FD4F82815F
:104BC000938189599B4F0E944D066FA378A789A7AF
:104BD0009AA7F701E05CFD4FA491F701EF5BFD4F51
:104BE000B491F701E25CFD4F059114910115110597
:104BF00059F030E020E0061717072807390720F49E
:104C00000FA318A729A73AA72B2F2F70422F50E0E8
:104C1000243030F59A0163E0220F331F6A95E1F7E3
:104C200061E070E080E090E004C0660F771F881FAD
:104C3000991F2A95D2F78B019C0101501109210976
:104C40003109CFA0D8A4E9A4FAA40C151D052E059E
:104C50003F0530F4B7FD04C00FA318A729A73AA752
:104C60008A2F90E0BE01695D7F4F8A5B9B4F0E9457
:104C70004A2C72E0270E311C8BCF86E0E80EF11C27
:104C800092E4E916F10409F08ACF41E352E0B6015B
:104C900087E694E00E9429207C01892B09F038C125
:104CA0004201821893089BAA8AAA84010230110546
:104CB000DCF0D60116968C9116978130A9F41796E0
:104CC0008C91882E912C9CAE8BAE18AA1FA632E038
:104CD000A32EB12CEE24E394F12C8BAC9CAC0FA54D
:104CE00018A90815190534F01FEFE11AF10A2E0C66
:104CF0003F1C4ECF0AA91BA9A016B1060CF0F9CE95
:104D000016E01A9D40011B9D900C11248601080D90
:104D1000191D4DE252E0B80187E694E00E94292077
:104D20003C01892B09F079C026E0820E911CF60126
:104D3000E80DF91D8081823009F0DBCE81808CAADC
:104D4000912C2FEF209383064BE656E058AF4FABE4
:104D5000B0918306B9AB6814790424F4E4E16E16CB
:104D60007104E9F409A90F3F19F41CA910938306F3
:104D700024E1821691042CF4F401E559F94F3FEF38
:104D8000308342E0840E911CE80CF91CA80CB91C7D
:104D90000FA518A90F5F1F4F18AB0FA79ECFD80103
:104DA0001E968D919C9189599B4F0E944D06EFA9AB
:104DB000F8AD6193F8AFEFAB262F30E081E090E0E3
:104DC000A0E0B0E004C0880F991FAA1FBB1F6A951E
:104DD000D2F7AC01BD0180917F0690918006A09131
:104DE0008106B0918206842B952BA62BB72B80933E
:104DF0007F0690938006A0938106B093820699A9BE
:104E00009F3F29F46216730611F060928306AFEF9C
:104E10006A1A7A0A0A5F1F4F9BCF41E252E0B8013B
:104E200087E694E00E9429203C01892B09F042C0CA
:104E300056E0850E911CF601E80DF91D8081823047
:104E400009F057CE8180912C0A5F1F4F68147904B6
:104E500024F0A2E08A0E911C97CFD80118968D916C
:104E60009C9189599B4F0E944D0681E090E0A0E003
:104E7000B0E004C0880F991FAA1FBB1F6A95D2F724
:104E8000AC01BD018091860690918706A0918806AD
:104E9000B0918906842B952BA62BB72B8093860681
:104EA00090938706A0938806B09389069FEF691AAE
:104EB000790ACACF42E152E0B80187E694E00E9445
:104EC0002920B2E0EB0EF11CE2E0AE0EB11C892B02
:104ED00059F4D80118968D919C9189599B4F0E9445
:104EE0004D066093840654CF49E152E0B80187E64D
:104EF00094E00E942920892B09F04ACFF80180858F
:104F0000918589599B4F0E944D066093850640CF3D
:104F100022E0220E311C3CCE803109F4F5CD809187
:104F2000610487FF11C08CE08983EAEAF1E0DE01C9
:104F3000129601900D928A95E1F74DE0BE016F5FE8
:104F40007F4F8AE50E9467078091610487FF05C053
:104F5000609105018CE50E94320E8091610487FF0B
:104F600006C00E94AD06682F8BE50E94320E80912C
:104F7000610487FF05C0609146048DE50E94320EF2
:104F800082E089831A820E94AD068B838CE08C8339
:104F9000EAEAF1E0DE01159601900D928A95E1F7BB
:104FA00040905504509056046090570470905804F7
:104FB0006091490470E090E080E00E94460500970F
:104FC00009F40FC1FC01389624913196D49035979D
:104FD0004591559165917491FC01E590F59005918D
:104FE0001491822E912CB12CA12C8BA69CA6ADA63F
:104FF000BEA6411551056105710531F041145104FA
:105000006104710409F0CDC08BA49CA4ADA4BEA41E
:10501000A3019201C501B4010E94D72B6BA77CA705
:105020008DA79EA72D2DB301A201882D0E94ED050D
:105030008BA49CA4ADA4BEA4680D791D8A1D9B1DE4
:1050400020E432E44FE050E00E94FB2B69017A013A
:10505000B9E0660F771F881F991FBA95D1F7615C79
:105060007D4B804F9F4F20E432E44FE050E00E94A0
:10507000FB2BD701C60119E0880F991FAA1FBB1F80
:105080001A95D1F70196A11DB11D820F931FA41F80
:10509000B51F880F991FAA1FBB1F009701E0A0072B
:1050A000B10520F08FEF9FEFA0E0B0E0282F892F0F
:1050B000898B2A8B42E1BE016F5F7F4F81E00E94A6
:1050C00067070E946F06E6C0B70187E694E00E947A
:1050D00086208F3F19F5B70187E694E00E945D2096
:1050E00081111CC0DE9C8001DF9C100D11240A532D
:1050F0001D4F4EE052E0B80187E694E00E9429205F
:10510000892BD9F4D80118968D919C9189599B4F80
:105110000E944D066093B80201E010E0B2E0EB0E91
:10512000F11CE414F50484F20130110509F0F7CE06
:105130008AEA92E00E94551AF2CE4BE052E0B801A2
:1051400087E694E00E942920892B81F4F80180856C
:10515000918589599B4F0E944D066093B0027093D0
:10516000B1028093B2029093B302D6CF48E052E0EE
:10517000B80187E694E00E942920892B09F09EC29D
:10518000D80118968D919C9189599B4F0E944D068C
:105190006093B4027093B5028093B6029093B70205
:1051A000BBCFD301C2010197A109B1094C015D0137
:1051B000840E951EA61EB71EC501B401A30192015F
:1051C0000E94FB2B49015A012BA53CA54DA55EA5CC
:1051D000281539054A055B0508F01ACF49015A011F
:1051E00017CF20E080E064CF40E070E060E084EA28
:1051F000B4CA82E79FE10E94061F882309F44AC0CF
:105200000E943E1A47C084EF9DE1F5CF8091610472
:1052100081FD07C040E070E060E085EA0E9467071A
:10522000EFCF80E69FE0E7CF809163049091640424
:10523000892BB9F740E070E060E086EAEFCF80911B
:10524000470481113BC00E94AD06811105C040E0BA
:1052500070E060E08CEAE2CF0E948706809146040D
:1052600060E871E08B3021F08C3009F560E870E087
:1052700088E00E94511364E670E080E090E00E94B4
:105280000A020E94420E81E08093470460E072E0CF
:105290000E94200E80E090E0892B09F4F1C80E9462
:1052A000B302882309F4ECC80E940000E9C80E94F8
:1052B000420E40E070E060E08DEAB0CF86E494E01A
:1052C0000E942F1D8130910509F49ACF892B11F787
:1052D00064EF71E080E090E00E940A020E94A51055
:1052E0006B017C0110E000E0C114D104E104F10481
:1052F00081F022E030E040E050E00E941D2CCA0125
:10530000B901705D8E4E9F4FA70196010E941D2C22
:1053100089010E94C410FC01F296A8EEEA2EA3E0D7
:10532000FA2ECF01B7010E94E72BD62E24E630E0FB
:10533000CF01B9010E94E72BCB01EAE0F0E0BF0109
:105340000E94E72B482F0E5C1F4FC801B7010E9437
:10535000E72BF62EC801B9010E94E72BCB01BF0154
:105360000E94E72B909146041982DA821B824C83BB
:105370001D82FE821F82888748E0BE016F5F7F4FDB
:1053800085EE9C3009F49BCE84EE99CE08E812E0BD
:10539000F8016491662341F08DE092E00E94E902F9
:1053A0000F5F1F4F892BA1F74CE050E06AEA71E0D4
:1053B0008DE092E00E94490242E050E067EB71E02C
:1053C0008DE092E00E9449028DE092E00E94360357
:1053D00017CF8091B8029091050199838A8342E0AA
:1053E000BE016F5F7F4F84E019CF86E494E00E9496
:1053F0002F1D892B09F04ECF0E94CA0F04970CF481
:1054000049CF0E94C60F7C010E94C60F6C010E940A
:10541000C60F8EAB1DAA0E94C60FADA8BEA8A82AB3
:10542000B92A850111708091610486FB992790F952
:10543000998385FB992790F99A8387FF07C042E0FB
:10544000BE016F5F7F4F85E50E946707FF2448E03C
:10545000B7018AEB91E00E949812DD2448E0B60182
:105460008EEB91E00E94981248E0B80182EC91E046
:10547000B7FE0DC049E082EC91E00E949812C8018D
:105480000E94D706682F70E048E087EC91E00E9408
:10549000981260E072E081E00E94200E0E94870670
:1054A000B60181E00E945113B70182E00E945113BE
:1054B000B7FE2BC0B80188E00E94511360916104CF
:1054C00070916204E6E076956795EA95E1F7F1E080
:1054D0006F27617080E20E947E0660916104709186
:1054E0006204F5E076956795FA95E1F701E06027AB
:1054F000617084E00E947E061C9B0DC068EC70E029
:1055000080E090E00E940A02F7CF8FEF8AB90BB9D2
:105510002B9A2B98D3CF0E94420E72CE80916104B9
:1055200086FB992790F9998385FB992790F99A83AF
:1055300087FF07C042E0BE016F5F7F4F85E50E9495
:1055400067078091610487FF10C080914F0490919C
:1055500050042091510429839A838B8343E0BE0138
:105560006F5F7F4F86E50E9467070091610410918D
:105570006204980145E0369527954A95E1F7217038
:1055800040914F0450915004609151047091520425
:1055900086E494E00E9480046B017C018D2C9E2C9B
:1055A000AF2CBB2407FF0AC089838A826B8343E048
:1055B000BE016F5F7F4F87E50E946707B701A601B5
:1055C00086E494E00E94B4068C011127C8010E9471
:1055D000D706782EB401772748E08AEB91E00E9445
:1055E0009812B601772748E08EEB91E00E9498125E
:1055F00048E0B80185ED91E00E949812672D70E0B7
:1056000048E087EC91E00E94981260E072E081E04F
:105610000E94200E0E948706B701A60186E494E04E
:105620000E949B13609161047091620486E07695FC
:1056300067958A95E1F711E06127617080E20E9429
:105640007E06609161047091620495E0769567959D
:105650009A95E1F721E06227617084E00E947E065E
:105660001C9B59CF68EC70E080E090E00E940A0239
:10567000F7CF8091B8029091B0022091B1023091A1
:10568000B2024091B30249833A832B839C83909169
:10569000B4022091B5023091B6024091B7024D8319
:1056A0003E832F839887898749E0BE016F5F7F4FD4
:1056B00085E0B4CD8BEA0E94320EA2CD40E070E0CE
:1056C00060E083EA4AC8EDE0F2E01382128288EEDD
:1056D00093E0A0E0B0E084839583A683B78384E75A
:1056E00091E09183808385EC90E09587848784ECBA
:1056F00090E09787868780EC90E0918B808B81EC9F
:1057000090E0938B828B82EC90E0958B848B86EC7F
:1057100090E0978B868B118E128E138E148E0895C7
:10572000FC0105900020E9F7809590958E0F9F1F52
:105730000895FB01DC014150504030F08D910590FF
:10574000801919F40020B9F7881B990B0895F9996D
:10575000FECF92BD81BDF89A992780B50895262F76
:10576000F999FECF1FBA92BD81BD20BD0FB6F89446
:10577000FA9AF99A0FBE019608950E94C82BA59F28
:10578000900DB49F900DA49F800D911D112408953C
:10579000A29FB001B39FC001A39F700D811D112472
:1057A000911DB29F700D811D1124911D0895DB0183
:1057B0008F939F930E94BD2BBF91AF91A29F800DAD
:1057C000911DA39F900DB29F900D11240895AA1BC7
:1057D000BB1B51E107C0AA1FBB1FA617B70710F0DC
:1057E000A61BB70B881F991F5A95A9F7809590950E
:1057F000BC01CD010895A1E21A2EAA1BBB1BFD011D
:105800000DC0AA1FBB1FEE1FFF1FA217B307E4079F
:10581000F50720F0A21BB30BE40BF50B661F771FF7
:10582000881F991F1A9469F76095709580959095D7
:105830009B01AC01BD01CF010895052E97FB1EF41D
:1058400000940E94342C57FD07D00E94FB2B07FCCC
:1058500003D04EF40C94342C5095409530952195FE
:105860003F4F4F4F5F4F089590958095709561958C
:105870007F4F8F4F9F4F0895EE0FFF1F0590F491BC
:10588000E02D0994B7FF0C94BD2B0E94BD2B821B09
:10589000930B0895FB01DC0102C001900D92415071
:1058A0005040D8F70895FB01DC018D9101908019DB
:1058B0000110D9F3990B0895FB01DC0101900D92C1
:0A58C0000020E1F70895F894FFCFEF
:1058CA0001FF00FFFFFF0155550000AAAA2A0000A8
:1058DA005555550000A055550000AAAA2A000055A2
:1058EA00555500008055550000AAAA2A00005555B2
:1058FA005500002055550000AAAA2A000055555502
:10590A000000A055550000AAAA2A000055555500C6
:10591A0000A055550000AAAA2A00005555550000B6
:10592A008055550000AAAA2A0000555555000010B6
:10593A0000000000E902490276023603A702850246
:10594A00990255550000AAAA2A000055555500008B
:10595A00F055550000AAAA2A000055555500009096
:10596A007C443800564552303600332E302E306291
:10597A0032323A756E6F000D0A004D5342004C5395
:10598A0042004354524C004354524C2072656D619C
:0E599A007070656400544F50206164647200A8
:00000001FF
