:100000000C94A0010C94C8010C94C8010C94C80174
:100010000C94C8010C94C8010C94C8010C94C8013C
:100020000C94C8010C94C8010C94C8010C94C8012C
:100030000C94C8010C94C8010C94C8010C94C8011C
:100040000C945F240C94C8010C94CF240C94A92424
:100050000C94C8010C94C8010C94C8010C94C801FC
:100060000C94C8010C94C801706167652D73697A9E
:100070006500726561642D7374726F62652D7573AE
:1000800000726561642D736574746C696E672D64AC
:10009000656C617900616C676F726974686D007678
:1000A00070705F6D760070756C73652D64656C6142
:1000B000790070696E2D636F756E74006368697086
:1000C0002D696400666C61677300616464726573B6
:1000D00073006D656D6F72792D73697A6500AA552D
:1000E000AA55666C616773006D656D6F72792D73CB
:1000F000697A65006164647265737300636869702E
:100100002D69640070696E2D636F756E7400707573
:100110006C73652D64656C6179007670705F6D76C7
:1001200000616C676F726974686D00726561642D3F
:10013000736574746C696E672D64656C61790072A7
:100140006561642D7374726F62652D7573007061E3
:1001500067652D73697A6500444F4E450000070EB0
:10016000091C1B1215383F363124232A2D70777E47
:10017000796C6B6265484F464154535A5DE0E7EE37
:10018000E9FCFBF2F5D8DFD6D1C4C3CACD90979E67
:10019000998C8B8285A8AFA6A1B4B3BABDC7C0C9DC
:1001A000CEDBDCD5D2FFF8F1F6E3E4EDEAB7B0B987
:1001B000BEABACA5A28F88818693949D9A272029F7
:1001C0002E3B3C35321F18111603040D0A575059A7
:1001D0005E4B4C45426F68616673747D7A898E8789
:1001E0008095929B9CB1B6BFB8ADAAA3A4F9FEF7C7
:1001F000F0E5E2EBECC1C6CFC8DDDAD3D4696E67B7
:100200006075727B7C51565F584D4A4344191E17E6
:100210001005020B0C21262F283D3A33344E49405D
:100220004752555C5B7671787F6A6D64633E393006
:100230003722252C2B0601080F1A1D1413AEA9A076
:10024000A7B2B5BCBB9691989F8A8D8483DED9D026
:10025000D7C2C5CCCBE6E1E8EFFAFDF4F3F8240110
:10026000000000000019000100F824010000000057
:100270000019000100F824010050C30000FF000035
:100280000107080B723200723100726576007277D6
:100290002D70696E007670702D70696E00737461D8
:1002A0007469632D686967680062757300627573AD
:1002B0002D636F6E66696700D2000524CA00D823DB
:1002C000C4003224BC00AD23B2008323A600562311
:1002D0009F002B239500FE228100C72272009022EE
:1002E00068006522737461746500636D64004F4B30
:1002F0003A2046573A2000737461746500636D6458
:100300000000000000250028002B00000000002451
:100310000027002A00040404040404040402020266
:100320000202020303030303030102040810204036
:1003300080010204081020010204081020003C2F54
:1003400011241FBECFEFD8E0DEBFCDBF27E0A4EE63
:10035000B1E001C01D92A732B207E1F711E0A0E0C1
:10036000B1E0E6ECF4E602C005900D92A43EB107C0
:10037000D9F711E0C0EAD1E004C02197FE010E9444
:100380001530CF39D107C9F70E9401250C9461328D
:100390000C940000CF93DF9390E0FC01E75DFC4FED
:1003A00024918B5E9C4FFC0184918823C1F090E0E6
:1003B000880F991FFC01E55FFC4FC591D491FC01AA
:1003C000EF5FFC4FA591B4919FB7F8948881E22F1D
:1003D000E0958E2388838C91E823EC939FBFDF9177
:1003E000CF9108952091060190E4299F9001112456
:1003F0008E50822B80937C0080917A008064809361
:100400007A0080917A0086FDFCCF809178009091EF
:10041000790008958230910538F0880F991F880F70
:10042000991F05970197F1F708953FB7F8948091C8
:10043000C4029091C502A091C602B091C70226B530
:10044000A89B05C02F3F19F00196A11DB11D3FBF0C
:10045000BA2FA92F982F8827BC01CD01620F711DDB
:10046000811D911D42E0660F771F881F991F4A95D5
:10047000D1F708958F929F92AF92BF92CF92DF9261
:10048000EF92FF926B017C010E9415024B015C010F
:10049000C114D104E104F104B9F00E9415026819F5
:1004A00079098A099B09683E73408105910580F3AB
:1004B00021E0C21AD108E108F10888EE880E83E035
:1004C000981EA11CB11CE4CFFF90EF90DF90CF905D
:1004D000BF90AF909F908F9008952FB7F894609140
:1004E000C0027091C1028091C2029091C3022FBFDD
:1004F0000895AF92BF92CF92DF92EF92FF920F9347
:100500001F93CF93DF936C017B018B01040F151FA9
:10051000EB015E01AE18BF08C017D10759F0699111
:10052000D601ED91FC910190F081E02DC601099575
:10053000892B79F7C501DF91CF911F910F91FF9022
:10054000EF90DF90CF90BF90AF900895FC01538D56
:10055000448D252F30E0842F90E0821B930B54179D
:1005600010F0CF96089501970895FC01918D828D2A
:10057000981761F0A28DAE0FBF2FB11D5D968C91C3
:10058000928D9F5F9F73928F90E008958FEF9FEF02
:100590000895FC01918D828D981731F0828DE80FBE
:1005A000F11D858D90E008958FEF9FEF0895FC0178
:1005B000918D228D892F90E0805C9F4F821B910945
:1005C0008F73992708958FE092E00E94D70221E06F
:1005D000892B09F420E0822F089580E090E0892B98
:1005E00029F00E94E30281110C9400000895FC019F
:1005F000A48DA80FB92FB11DA35ABF4F2C91848D84
:1006000090E001968F739927848FA689B7892C93E0
:10061000A089B1898C91837080648C93938D848D33
:10062000981306C00288F389E02D80818F7D808336
:100630000895EF92FF920F931F93CF93DF93EC01F6
:1006400081E0888F9B8D8C8D98131AC0E889F98979
:10065000808185FF15C09FB7F894EE89FF8960837C
:10066000E889F98980818370806480839FBF81E0FD
:1006700090E0DF91CF911F910F91FF90EF9008953F
:10068000F62E0B8D10E00F5F1F4F0F731127E02E1A
:100690008C8D8E110CC00FB607FCFACFE889F98952
:1006A000808185FFF5CFCE010E94F702F1CFEB8D5F
:1006B000EC0FFD2FF11DE35AFF4FF0829FB7F89426
:1006C0000B8FEA89FB8980818062CFCFCF93DF9344
:1006D000EC01888D8823B9F0AA89BB89E889F9895A
:1006E0008C9185FD03C0808186FD0DC00FB607FC8F
:1006F000F7CF8C9185FFF2CF808185FFEDCFCE01C2
:100700000E94F702E9CFDF91CF9108958F929F92D7
:10071000AF92BF92CF92DF92EF92FF920F931F930F
:10072000CF93DF93EC018C010A5D1F4F812C912C3C
:1007300054016C018AEDC81A8DEFD80A7E01AFEA28
:10074000EA1AADEFFA0AF60180819181A281B381A4
:1007500088169906AA06BB06B0F4D8012D918D0122
:100760004C855D856E857F85480D591D6A1D7B1DF5
:10077000D701ED91FC91CE010995BFEF8B1A9B0A31
:10078000AB0ABB0AE0CFDF91CF911F910F91FF9091
:10079000EF90DF90CF90BF90AF909F908F90089593
:1007A0008F929F92AF92BF92CF92DF92EF92FF9281
:1007B0000F931F93CF93DF93EC0188859985AA85CA
:1007C000BB854C855D856E857F85841B950BA60B4F
:1007D000B70B813022E09207A105B10520F080E03F
:1007E00092E0A0E0B0E08C017E0186E2E80EF11C10
:1007F000812C912C54016E01ADEACA1AADEFDA0AD0
:1008000080169106B4F44C855D856E857F85480D14
:10081000591D6A1D7B1DD601ED91FC91CE010995F4
:10082000F70181937F01FFEF8F1A9F0AAF0ABF0A7A
:10083000E7CFCA5DDD4F012E000C220B330B08837E
:1008400019832A833B83DF91CF911F910F91FF90F2
:10085000EF90DF90CF90BF90AF909F908F900895D2
:10086000CF93DF93EB01611520E4720781059105B9
:1008700058F028EE33E040E050E00E94D42FEB0126
:10088000CA01B9010E943A02209729F0CE01DF91F6
:10089000CF910C940A02DF91CF91089580910101CC
:1008A000909102016823792381E0672B09F480E0AD
:1008B0000895CF93DF93EC01FC01EF5AFD4F0190B7
:1008C000F081E02D2FEF40E050E0BA010995FE01E4
:1008D000E95AFD4F0190F081E02D40E068E870E0BA
:1008E000CE01DF91CF910994FC012781203241F4A0
:1008F000EC5BFD4F81E09081953151F080E008C0C4
:100900002C3139F4EC5BFD4F81E090819F30B1F7E1
:100910000895283199F7EC5BFD4F81E090819B3081
:1009200069F7F6CFFF920F931F93CF93DF938C015C
:10093000EB01F42E62FF07C0C8010E9474048823F3
:1009400011F0CB7FC860E0910D02F0910E024F2DA7
:10095000BE01C801DF91CF911F910F91FF900994C3
:100960002F923F924F925F926F927F928F929F92BF
:10097000AF92BF92CF92DF92EF92FF921F93CF93ED
:10098000DF93CDB7DEB7A7970FB6F894DEBF0FBEE3
:10099000CDBFFC01E65DFD4F3FE1DE011196019008
:1009A0000D923A95E1F7FC01ED5BFD4F30813196F8
:1009B00010813196408051806280738048A259A294
:1009C0006AA27BA23797C080D180E280F380C422E4
:1009D000D522E622F722E981EF3F09F43FC0FC016E
:1009E000EE5BFD4FE0812E2E312CE1E0F0E0EC0FCC
:1009F000FD1FE20DF31DA4E12A1631047CF5A1913F
:100A0000AF3F61F1812C912C5401839404C0880C78
:100A1000991CAA1CBB1CAA95D2F72A013B01022CE7
:100A200004C076946794579447940A94D2F74CA2E2
:100A30005DA26EA27FA240FC0CC080949094A09412
:100A4000B094C820D920EA20FB20AFEF2A1A3A0A36
:100A5000D2CFC828D928EA28FB28F7CF3F3F79F022
:100A6000422F50E070E060E004C0440F551F661F45
:100A7000771F3A95D2F7C42AD52AE62AF72A1F3FCC
:100A800099F00E94740481110FC081E090E0A0E011
:100A9000B0E004C0880F991FAA1FBB1F1A95D2F798
:100AA000C82AD92AEA2AFB2A68A179A18AA19BA18E
:100AB0006C297D298E299F29A7960FB6F894DEBF51
:100AC0000FBECDBFDF91CF911F91FF90EF90DF90D0
:100AD000CF90BF90AF909F908F907F906F905F90DE
:100AE0004F903F902F9008952D9808950F931F9346
:100AF000E1E8F2E0E4910E2F10E030E020E0601732
:100B000071078207930729F1E2E8F2E0E4910E2FE2
:100B100010E030E020E06017710782079307E1F0F2
:100B2000E3E8F2E0E4910E2F10E030E020E06017FF
:100B300071078207930799F422E030E04CE0429F6E
:100B4000C001439F900D1124835A9D4F1F910F9117
:100B5000089530E020E0F2CF21E030E0EFCF90E0E8
:100B600080E0F4CFFC0163817481858196810E94CD
:100B70007605009741F00B96FC018491813019F4C1
:100B800080E890E0089580E891E00895EF92FF9268
:100B90000F931F93E22F2223C1F0A82FB0E09A01F8
:100BA000AB010E94962F9B01AC01AE2FB0E00E94DA
:100BB000962FE616F7060807190710F4C801B701C3
:100BC0001F910F91FF90EF90089560E070E0CB01CE
:100BD000F7CFCF92DF92EF92FF920F931F93CF93B5
:100BE000DF938C016AE070E080E090E00E943A02BE
:100BF00078018DEAE81A8DEFF80AD701ED91FC91A2
:100C000045E555E560E070E0C8010995C82FD0E2E0
:100C100083E2C82ED12CC6010197F1F7D701ED91DF
:100C2000FC9145E555E560E070E0C8010995C827ED
:100C3000C6FF03C0D150C82F71F7DF91CF911F912C
:100C40000F91FF90EF90DF90CF900895CF93DF93B7
:100C5000EC0120E030E0A901E99180ED8E0F8A30AF
:100C600028F0CA01B901DF91CF910895AAE0B0E060
:100C70000E94962F2E2FEE0F330B20533109032E97
:100C8000000C440B550B260F371F481F591FE4CF8C
:100C90000E946D0268517C4F8F4F9F4F6093BB0243
:100CA0007093BC028093BD029093BE02089595B1EB
:100CB000662319F0892B85B9089580958923FBCF88
:100CC000109200018FE092E00E946603EFE0F2E0F4
:100CD000A289B3898C918F7E8C93A289B3898C91E0
:100CE000877F8C93A289B3898C918F778C93A2890B
:100CF000B3898C918F7D8C93828D818F65E070E0BC
:100D000080E090E00E943A02509A08958091BA02E1
:100D10008F3F11F48091050108950F931F93CF9396
:100D20008B0101771127FC01C781C03228F00E9496
:100D300086068250843088F48EE891E0209101018B
:100D40003091020182239323802B912BCC3109F423
:100D50008061CF911F910F9108958EE890E0EECFC2
:100D6000CF93DF93EC010E9486068230C0F086307C
:100D7000D0F48D2F81709C2F9E7D892B9E013695FE
:100D80002795369527952870822B25E0CC0FDD1FFF
:100D90002A95E1F7C0728C2BDF91CF9108958D2FAA
:100DA00081708C2BF9CF80E0F7CFDF92EF92FF922A
:100DB0000F931F93CF93DF93C82FD62ED72F142FC7
:100DC000EEEDF0E064918FE092E00E941903EFED08
:100DD000F0E064918FE092E00E941903E0EEF0E011
:100DE00064918FE092E00E941903E1EEF0E06491DB
:100DF0008FE092E00E941903E12EF12CC7010296C8
:100E0000692F8FE092E00E94190362E0610F8FE08A
:100E100092E00E9419036C2F8FE092E00E94190368
:100E2000EC2FF0E0E35AFE4FC4910D2D1D2FE00E84
:100E3000F11E0E151F0579F0F801D1918F016D2F6C
:100E40008FE092E00E941903EC2FED27F0E0E35AC7
:100E5000FE4FC491EECF6C2F8FE092E00E941903F9
:100E60006AE08FE092E00E9419038FE092E0DF9148
:100E7000CF911F910F91FF90EF90DF900C9466033C
:100E80009091000191110C94D50690910C02943030
:100E900018F5493008F048E02AE0299FF0011124B4
:100EA000EC51FE4F80834183562F929F9001112475
:100EB000FB0161E070E06F5F7F4F8E2F851B841711
:100EC00040F48191DB01A20FB31FAC51BE4F8C9354
:100ED000F2CF9F5F90930C0208954F925F926F92B2
:100EE0007F92AF92BF92CF92DF92EF92FF920F93D9
:100EF0001F93CF93DF9300D000D01F92CDB7DEB702
:100F00008C017C0186E2E80EF11C412C512C32014F
:100F10006801AAEDCA1AADEFDA0A5801BDEAAB1AA8
:100F2000BDEFBB0AF60180819181A281B381481691
:100F300059066A067B0670F5D8011C964D915D91A5
:100F40006D917C911F97440D551D661D771DD50130
:100F5000ED91FC91C8010995F70191917F018917E5
:100F600069F1D8011C964D915D916D917C911F970F
:100F7000440E551E661E771E99838A836B825C829F
:100F80004D8245E0BE016F5F7F4F8FEA0E944007B0
:100F9000F80112820F900F900F900F900F90DF9139
:100FA000CF911F910F91FF90EF90DF90CF90BF9066
:100FB000AF907F906F905F904F900895FFEF4F1A22
:100FC0005F0A6F0A7F0AAECFAF92BF92CF92DF92D5
:100FD000EF92FF920F931F93CF93DF9300D000D037
:100FE000CDB7DEB78C016C018FEAC81A8DEFD80A35
:100FF000D601ED91FC9120E940E050E0BA01C80132
:1010000009955801BDEAAB1ABDEFBB0AD501ED91B8
:10101000FC9140E050E0BA01C8010995E82EF12C9E
:10102000FE2CEE24D501ED91FC9141E050E060E012
:1010300070E0C8010995E82AD601ED91FC912FEFE7
:1010400040E050E0BA01C8010995F80182A193A1DE
:101050008E159F0591F0F982EA829B838C83868DA1
:1010600044E0BE016F5F7F4F80FF16C083E80E949F
:10107000400782E0D80112968C930F900F900F904A
:101080000F90DF91CF911F910F91FF90EF90DF9024
:10109000CF90BF90AF90089589EB0E944007F80170
:1010A0001282EBCFCF92DF92EF92FF920F931F93BA
:1010B000CF93DF93EC018B010E946D026B017C01E9
:1010C000C00ED11EE11CF11C8E010D5A1D4F0E9455
:1010D0006D026C157D058E059F0580F5D801ED919B
:1010E000FC9140E050E0BA01CE01099587FFEFCFB7
:1010F00084FF1DC040E070E060E084EB0E94400788
:101100001A82FE01EF5AFD4F0190F081E02D2FEF82
:1011100040E050E0BA01CE01099580E0DF91CF9127
:101120001F910F91FF90EF90DF90CF90089583FF74
:101130000AC040E070E060E085EBE0CF40E070E0A6
:1011400060E086EBDBCF81E0E9CF3F924F925F9288
:101150006F927F928F929F92AF92BF92CF92DF92C7
:10116000EF92FF920F931F93CF93DF93EC018C01CB
:101170000A5D1F4FC12CD12C76014C018AED881AD3
:101180008DEF980A5E01AFEAAA1AADEFBA0AF40130
:1011900080819181A281B381C816D906EA06FB0637
:1011A00040F54C845D846E847F844C0C5D1C6E1C09
:1011B0007F1CD8013D908D01D501ED91FC9120E47B
:1011C000B301A201CE010995D501ED91FC91232D2A
:1011D000B301A201CE01099566E970E0CE010E943B
:1011E0005208882331F0BFEFCB1ADB0AEB0AFB0A67
:1011F000CECFDF91CF911F910F91FF90EF90DF90B5
:10120000CF90BF90AF909F908F907F906F905F90A6
:101210004F903F9008950F931F93CF93DF93EC016E
:10122000FC01E95AFD4F0190F081E02D41E068E8B2
:1012300070E0099564EF71E080E090E00E943A026E
:101240008E010F5A1D4FD801ED91FC9120E240E034
:1012500050E0BA01CE010995D801ED91FC9120ED45
:1012600040E050E0BA01CE01099568E97AE3CE0189
:10127000DF91CF911F910F910C9452089F92AF92E2
:10128000BF92CF92DF92EF92FF920F931F93CF9373
:10129000DF9300D000D0CDB7DEB78C01962E6C0165
:1012A00089EAC81A8DEFD80AD601ED91FC9141E088
:1012B00060E870E0C801099562E370E080E090E0CA
:1012C0000E943A02D601ED91FC9141E062E070E0AB
:1012D000C801099564E670E080E090E00E943A025F
:1012E0005801BDEAAB1ABDEFBB0AD501ED91FC91E7
:1012F00040E050E0BA01C8010995E82EF12CFE2C1F
:10130000EE24D501ED91FC9141E050E060E070E009
:10131000C8010995E82AD601ED91FC9140E066E804
:1013200071E0C8010995F80182A193A18E159F056E
:1013300089F0F982EA829B838C83F2E044E0BE016B
:101340006F5F7F4F9F1216C083E80E944007D8014D
:1013500012969C920F900F900F900F90DF91CF916B
:101360001F910F91FF90EF90DF90CF90BF90AF90C3
:101370009F90089589EB0E944007F8011282EACFFE
:1013800060E00C943E09BF92CF92DF92EF92FF9201
:101390000F931F93CF93DF9300D000D0CDB7DEB76C
:1013A0007C01D42EC52EB62E122FFC01E95AFD4F1A
:1013B0000190F081E02D40E066E871E00995B98286
:1013C000CA82DB821C8344E0BE016F5F7F4F802FA7
:1013D0000E944007F70112820F900F900F900F901C
:1013E000DF91CF911F910F91FF90EF90DF90CF9001
:1013F000BF900895CF93DF93EC018E8D87FF06C0D9
:1014000040E070E060E081E40E9440079981892F0C
:101410008F738F5F907C892B898340E070E060E060
:1014200080E2DF91CF910C944007CF93DF9300D0FF
:1014300000D0CDB7DEB779836A835B834C8344E009
:10144000BE016F5F7F4F0E9440070F900F900F907B
:101450000F90DF91CF9108952F923F924F925F921C
:101460006F927F928F929F92AF92BF92CF92DF92B4
:10147000EF92FF920F931F93CF93DF93CDB7DEB719
:101480006E970FB6F894DEBF0FBECDBF1C01DC0116
:1014900094968D919C919C01215031092115B2E0C7
:1014A0003B0790F428233923232B09F0EBC0B0E04D
:1014B000A0E09C01AD0121503109410951092B8760
:1014C0003C874D875E8708C08FE390E0A0E0B0E0E6
:1014D0008B879C87AD87BE870E941502698B7A8BAC
:1014E0008B8B9C8BA1014A5D5F4F5A8F498F412C9A
:1014F000512C32011F82188619861A86C12CD12CD4
:101500007601C1018A5D9D4F9C8F8B8FD101AF5AAF
:10151000BD4FBE8FAD8FF101ED5AFD4FF88BEF87B8
:10152000EB8DFC8D80819181A281B3814816590693
:101530006A067B0608F086C0D1011C968D909D90AE
:10154000AD90BC901F97840C951CA61CB71CE98D10
:10155000FA8D2191FA8FE98F2E83AD8DBE8DED919D
:10156000FC91B501A401C10109950E9415026D8B82
:101570007E8B8F8B988FDC01CB0129893A894B892F
:101580005C89821B930BA40BB50B2F813885498591
:101590005A85281739074A075B0720F48F839887F5
:1015A000A987BA87D501C4010196A11DB11D2B855C
:1015B0003C854D855E8582239323A423B523892B07
:1015C0008A2B8B2B79F0EB8DFC8D80819181A28110
:1015D000B3810197A109B10984159505A605B70541
:1015E00009F08AC000ED17E083E290E00197F1F77F
:1015F000AF85B889ED91FC91B501A401C1010995B0
:101600009E81982797FD0CC0AF85B889ED91FC911C
:10161000B501A401C10109959E81982797FF3CC09F
:101620000150110909F7A9829A828B82BE81BC837D
:101630008D8345E0BE016F5F7F4F82EB0E944007C4
:10164000F10112824F81588569857A8582E60E9470
:10165000150A6E960FB6F894DEBF0FBECDBFDF91B0
:10166000CF911F910F91FF90EF90DF90CF90BF909F
:10167000AF909F908F907F906F905F904F903F9032
:101680002F9008952FE330E040E050E018CFFFEFB7
:10169000CF1ADF0AEF0AFF0A4C145D046E047F04C0
:1016A00020F1F101EC0DFD1D16A1D1011C968D90CC
:1016B0009D90AD90BC901F978C0C9D1CAE1CBF1CC8
:1016C000AF85B889ED91FC91B501A401C1010995DF
:1016D0001817E9F219838A83AB829C828D8245E0D8
:1016E000BE016F5F7F4F8FEAA9CF730162012FEFB9
:1016F000C21AD20AE20AF20A3FEF431A530A630AF5
:10170000730A8D899E89AF89B88D898B9A8BAB8B33
:10171000BC8B06CF4F925F926F927F928F929F9277
:10172000AF92BF92CF92DF92EF92FF920F93CF933F
:10173000DF936C017B014A01822F40E070E060E0A2
:101740000E9440070E9415022B013C018FEF8AB9CD
:10175000E701F12CE12C56018FEAA81A8DEFB80AA7
:10176000488159816A817B81D501ED91FC912C8161
:10177000C6010995BFEFEB1AFB0A25968E149F044C
:1017800079F70E9415026B017C01C418D508E608A0
:10179000F708B701A601802F0E94150A9401A4E65C
:1017A000B0E00E94A12F6C157D058E059F05A0F469
:1017B000B701A60187E8DF91CF910F91FF90EF90DD
:1017C000DF90CF90BF90AF909F908F907F906F9061
:1017D0005F904F900C94150ADF91CF910F91FF907D
:1017E000EF90DF90CF90BF90AF909F908F907F90C1
:1017F0006F905F904F9008950F93CF93DF93EC011C
:101800000FE52EE546E050E06CE171E00E948A0BA6
:10181000CE01DF91CF910F910C94E9050F931F93A7
:10182000CF93DF93EC010E94FC0B8FEF8AB98E01FE
:101830000F5A1D4FD801ED91FC912AEA45E555E577
:1018400060E070E0CE010995D801ED91FC9125E5AD
:101850004AEA5AE260E070E0CE010995D801ED91C4
:10186000FC9120E845E555E560E070E0CE01099582
:10187000D801ED91FC912AEA45E555E560E070E07C
:10188000CE010995D801ED91FC9125E54AEA5AE28D
:1018900060E070E0CE010995D801ED91FC9120E166
:1018A00045E555E560E070E0CE01099564E170E042
:1018B00080E090E0DF91CF911F910F910C943A025C
:1018C0000F9301E620E643E050E06DE071E00E94F6
:1018D0008A0B6AE070E080E090E00F910C943A028D
:1018E0004F925F926F927F92AF92BF92CF92DF92B0
:1018F000EF92FF920F931F93CF93DF9300D000D00E
:10190000CDB7DEB77C01DC0192968D919C919397C7
:10191000892BA1F4F701868D978DA0A1B1A190FD2F
:10192000AFC00FE52EE546E050E06CE171E0C70185
:101930000E948A0BC7010E94E9051AC018964D91B2
:101940005D916D917C911B97403451056105710546
:1019500048F55E968C9180FF1EC084E80E94150AAF
:1019600082E0F7018283D70112968C918111D2CF48
:101970000F900F900F900F90DF91CF911F910F91CB
:10198000FF90EF90DF90CF90BF90AF907F906F90DF
:101990005F904F9008958AEB0E94150AD701129626
:1019A0001C92E1CF6701B9EACB1ABDEFDB0AD60181
:1019B000ED91FC9141E060E870E0C701099562E3B8
:1019C00070E080E090E00E943A02D601ED91FC9137
:1019D00041E062E070E0C701099564E670E080E0F4
:1019E00090E00E943A02F70140845184628473843B
:1019F000B301A20140545109610971095701FDEA7F
:101A0000AF1AFDEFBF0AD501ED91FC91C701099511
:101A1000082F10E0102F0027B301A2014F535109E6
:101A200061097109D501ED91FC91C7010995082B58
:101A3000D601ED91FC9140E062E870E0C7010995A4
:101A4000F70182A193A10817190709F48CCF198314
:101A50000A839B838C83868D44E0BE016F5F7F4F3A
:101A600080FF08C083E80E94400782E0D7011296F9
:101A70008C9379CF89EB0E944007F701128273CFD4
:101A800040E070E060E086E80E94400771CFCF93AD
:101A9000DF9300D0CDB7DEB779836A8342E0BE0121
:101AA0006F5F7F4F0E9440070F900F90DF91CF91A3
:101AB0000895CF93DF931F92CDB7DEB7698341E0DE
:101AC000BE016F5F7F4F0E9440070F90DF91CF9163
:101AD0000895CF93DF93589A5098E0911F02F091A8
:101AE000200282E08083E0911B02F0911C021082B0
:101AF000E0911D02F0911E0287E080831092270280
:101B0000E0912302F091240286E08083E09121029B
:101B1000F0912202808180618083E0912102F09126
:101B20002202808188608083E0912102F09122026C
:101B3000808180688083E0912102F091220280817F
:101B40008F7D808362E370E080E090E00E943A0243
:101B50008FE092E00E94D702892B29F08FE092E07B
:101B60000E94B502F5CF81E080930001C0E0DAE089
:101B700080910C02C81770F4DC9FB0011124FB01A6
:101B8000EC51FE4F6A517E4F418180810E94D50603
:101B9000CF5FEECF10920C02DF91CF9108956F923C
:101BA0007F928F929F92AF92BF92CF92DF92EF92ED
:101BB000FF920F931F93CF93DF93EC017B010E9461
:101BC0006006C701FE0109950E94690DF701828137
:101BD000813008F499C0833008F46DC0833009F077
:101BE00093C0EA5DFD4FA080B180E701A6964E014B
:101BF000DE01612CCD018C1B9D0B8A159B0540F4E9
:101C0000ED916E26E62DF0E0E35AFE4F6490F2CFA0
:101C1000D12CC12C712C10E000E0CA14DB0450F56B
:101C2000F40181914F0161E0670DFFEFCF1ADF0AE8
:101C3000811113C08FE092E00E941903772049F0D0
:101C4000472D50E0BE01600F711F8FE092E00E94AF
:101C50007902860160E0762EE0CF6E3FE1F76FEF0C
:101C60008FE092E00E941903BE01600F711F4EEFDA
:101C700050E0EBCF611035C061E0670D8FE092E07E
:101C80000E941903772049F0472D50E0BE01600FF4
:101C9000711F8FE092E00E94790261E08FE092E094
:101CA0000E94190360E08FE092E00E9419038FE028
:101CB00092E00E9466030E94480681E0F701828359
:101CC00090E080E0DF91CF911F910F91FF90EF9016
:101CD000DF90CF90BF90AF909F908F907F906F904C
:101CE000089562E0670D8FE092E00E94190377206B
:101CF00049F0472D50E0BE01600F711F8FE092E068
:101D00000E947902662DCACF8FEF9FEFDBCF0F9332
:101D10001F93CF93DF93CDB7DEB728970FB6F89414
:101D2000DEBF0FBECDBF8C01FC01E35BFD4F8081A8
:101D30009181009741F1B8010E94CF0DF8012081F7
:101D4000243009F047C0019609F5F801EA5DFD4F1E
:101D500080819181A281B3810497A105B10539F4F5
:101D6000B8016A5D7F4F44E080EB0E94400780E04D
:101D700028960FB6F894DEBF0FBECDBFDF91CF918E
:101D80001F910F91089581E090E0D8CFF8018181F3
:101D900086FF17C044855585668577858085918542
:101DA0002285338579836A835B834C833D832E83CD
:101DB0009F83888748E0BE016F5F7F4F80EE0E945F
:101DC0004007F801818186FD03C0C8010E94FA091D
:101DD00081E0CECF0196A9F7CACF8FE092E00C94B4
:101DE000B5028FE092E00C94D702CF92DF92EF928F
:101DF000FF92CF93C82F0E94F10E18161906E4F037
:101E0000CC23A1F00E946D026B017C010E94F10EB7
:101E1000181619068CF00E946D026C197D098E0946
:101E20009F09683E73408105910580F3CF91FF9033
:101E3000EF90DF90CF9008950E94ED0E97FDF6CFC2
:101E40008111D9CFF3CF4F925F926F927F929F9281
:101E5000AF92BF92CF92DF92EF92FF920F931F93B8
:101E6000CF93DF937C016B0100E0B12CA12C912C6E
:101E700010E0D0E0C0E00E94F10E18161906CCF078
:101E80000E946D022B013C010E94F10E18161906EA
:101E900084F00E946D026419750986099709683EED
:101EA00073408105910580F380E00E94F50E8FEF6D
:101EB00019C00E94ED0E97FF02C081E0F6CF282FD7
:101EC000811105C0112309F44FC08DEF0BC0112300
:101ED00079F1BB20E9F0CC15DD05A8F081E00E9486
:101EE000F50E8EEF9FEFDF91CF911F910F91FF9035
:101EF000EF90DF90CF90BF90AF909F907F906F90CA
:101F00005F904F900895F701EC0FFD1F008321961D
:101F10008FEF810FBB24B394811107C0B92C9110AE
:101F200004C0BB24B394AA24A394022F182FA3CFD8
:101F3000AA20B1F0BB20B1F0CC15DD0578F6F70191
:101F4000EC0FFD1F00832196992493942F3F09F0F5
:101F5000912C8150AA24A3948111A12C212FE5CF8B
:101F6000102FF2CFBA2CF0CFBB2009F4A0CFD701AD
:101F7000C7018C0F9D1FA817B90741F0ED911E27CF
:101F8000E12FF0E0E35AFE4F1491F5CFCE01011797
:101F900009F4A9CF8CEFA6CF8EE480937C0062E099
:101FA00070E080E090E00E943A0280917A008064C4
:101FB00080937A0080917A0086FDFCCF2091780092
:101FC0006091790070E0762F6627072E000C880B51
:101FD000990B622B08952F923F924F925F926F92CE
:101FE0007F928F929F92AF92BF92CF92DF92EF92A9
:101FF000FF920F931F93CF93DF93CDB7DEB72F9749
:102000000FB6F894DEBF0FBECDBFA090B202B09065
:10201000B302C090B402D090B502A986BA86CB862E
:10202000DC86C090B602D090B702E090B802F09083
:10203000B902C982DA82EB82FC8281E080930601D8
:1020400080E10E94F2019E878D870E94CC0F61156E
:1020500071058105910509F494C0CD28CE28CF28BB
:1020600009F48FC02B013C01770C4408542C320139
:10207000A980BA80CB80DC80E12CF12C00E010E05C
:102080009B01AC01642D742D842D942D0E941B3076
:10209000722E632E542E452E962E872E382E292EE4
:1020A00069857A858B859C85C980DA80EB80FC8088
:1020B0006C0D7D1D8E1D9F1D2CE434E040E050E032
:1020C0000E947330ED84FE840F2C000C000B110B6A
:1020D000670156016801E12CF12C8701A982BA82BF
:1020E000CB82DC82ED82FE820F831887E12CF12CFB
:1020F00000E010E00E941B30298339874F875D87FD
:10210000B62FA72FF82FE92F272D362D452D542D2B
:10211000692D782D832D922D01E00E94FF30590109
:102120006A017B018C01298139854F855D856B2F83
:102130007A2F8F2F9E2F0E941A31A72CB62CC52CD8
:10214000D42CE92CF82C032D122D0E94A030C901AB
:102150002F960FB6F894DEBF0FBECDBFDF91CF91A3
:102160001F910F91FF90EF90DF90CF90BF90AF90B5
:102170009F908F907F906F905F904F903F902F90A7
:10218000089580E090E0E4CF4F925F926F927F924B
:10219000AF92BF92CF92DF92EF92FF920F931F9375
:1021A000CF93DF93CDB7DEB728970FB6F894DEBF95
:1021B0000FBECDBF8C010E94860681111FC040E07A
:1021C00070E060E080E80E94400782E0D80112964B
:1021D0008C9328960FB6F894DEBF0FBECDBFDF916B
:1021E000CF911F910F91FF90EF90DF90CF90BF9014
:1021F000AF907F906F905F904F9008955801B9EA2B
:10220000AB1ABDEFBB0AF501E080F180D8015E9604
:102210008C9184FD6BC0C8010E94B20541E0BC01F5
:10222000C801F701099564E670E080E090E00E9443
:102230003A020E94EB0F6C012C01712C612CD80129
:102240005096ED90FC90C701B0E0A0E08C509E4FFE
:10225000AF4FBF4F84159505A605B70508F050C0D0
:10226000B2E3CB0ED11CE2E3EE0EF11C198298EE24
:10227000692E93E0792EC601B3010E94C02F6A83B4
:102280001B82E4E6F0E0C601BF010E94C02FCB0133
:102290002AE030E0B9010E94C02F8C831D82C70163
:1022A000B3010E94C02F6E831F82C701BF010E942D
:1022B000C02FCB01B9010E94C02F8887D8015E963C
:1022C0008C9148E0BE016F5F7F4F80FF12C082E8B3
:1022D0000E94400782E0F8018283D501ED91FC91D4
:1022E00040E066E871E0C801099573CF80E890E0AE
:1022F00095CF88EB0E944007D80112961C92EDCF33
:102300009701AFE5B0E00E94A12F24E630E040E065
:1023100050E00E94D42F4216530664067506E8F674
:10232000B2E3CB0ED11CE2E3EE0EF11C198288EE73
:10233000682E83E0782EC601B3010E94C02F6A8305
:102340001B82E4E6F0E0C601BF010E94C02FCB0172
:102350002AE030E0B9010E94C02F8C831D82C701A2
:10236000B3010E94C02F6E831F82C701BF010E946C
:10237000C02FCB01B9010E94C02F888748E0BE0161
:102380006F5F7F4F81E80E94400782E0D80112967C
:102390008C93A3CFCF93DF93EC010E94C4108A816A
:1023A000882371F08AA19BA1892B51F06E8D7F8DBE
:1023B000660F771F6270CE01DF91CF910C943E09BA
:1023C000DF91CF9108950C94C410BF92CF92DF9209
:1023D000EF92FF920F931F93CF93DF93CDB7DEB7AA
:1023E000C854D1090FB6F894DEBF0FBECDBF7B0134
:1023F000B42EFC0101900020E9F731971E2F181B25
:102400001F3008F01EE01983C12ED12CA601BC019B
:10241000CE0102960E944832E2E0F0E0EC0FFD1F90
:10242000EC0DFD1DE0828091E60487FF08C042E0CC
:10243000410FBE016F5F7F4F82E50E94400729E098
:102440006FEB71E0B21202C066EA71E0FB0101902D
:102450000020E9F731978F01061B170B0983A801AC
:102460005527CE0102960E9448328091E60487FFEC
:1024700008C041E0400FBE016F5F7F4F83E50E94BF
:10248000400789E0DE011196B8120AC08CE7898303
:1024900080E28A8380E3F0FC81E38B83DE01149683
:1024A000FD0187E090E03CE740E230834183B701E3
:1024B000082E02C0769567950A94E2F720E360FD46
:1024C00021E32283019733968F3F980771F78CE7BA
:1024D00058968C93589759961C92BE016F5F7F4F08
:1024E000FB0101900020E9F731971E2F161B1032D7
:1024F00008F01FE119A7412F50E0CE018A960E94F3
:1025000048328091E60487FF08C041E0410FBE01D8
:10251000675D7F4F84E50E944007C85BDF4F0FB6C1
:10252000F894DEBF0FBECDBFDF91CF911F910F9109
:10253000FF90EF90DF90CF90BF900895CF93DF93FF
:10254000C82FCB01C230F1F0C83051F1C130B9F41D
:1025500020910401261799F060930401D0E09FEFC9
:102560009AB98BB985B18C2B85B985B1C095C82333
:10257000C5B9DD2321F08BE090E00197F1F7DF9101
:10258000CF910895209103012617C9F360930301A9
:102590002FEF2AB91BB80000000000000000DECFBA
:1025A00020910101309102012617370741F328706D
:1025B0003327D1E0AB01487055274217530708F085
:1025C000D0E090930201809301010E94B006C7CF32
:1025D000EF92FF920F931F93CF93DF938C01D42F31
:1025E000C52F7B01642F70E081E00E949E126C2F4A
:1025F00070E082E00E949E124D2F5C2FB701C8014F
:102600000E948D06BC0188E0DF91CF911F910F9150
:10261000FF90EF900C949E124F925F926F927F9278
:102620008F929F92AF92BF92CF92DF92EF92FF92E2
:102630000F931F93CF93DF93EC017C0125EBE21AFC
:102640002DEFF20AF701118210828C01035B1D4FFE
:10265000F801118210826C01F1EBCF1AFDEFDF0A55
:10266000F601118210828881823009F456C08630CA
:1026700009F456C0813029F480ED93E0F80191838C
:10268000808382E395E1FE01ED5AFD4F91838083C3
:102690008DEF94E132979183808388EE92E13496B6
:1026A000918380835E01F9EAAF1AFDEFBF0A89EEDC
:1026B00094E1F501918380838EE494E032969183D6
:1026C000808340E050E0BA01CE010E94E8126B81A5
:1026D0007C818D819E81603171058105910509F0B4
:1026E00040C089E594E0F60191838083888183303E
:1026F00091F1C8F4823021F1DF91CF911F910F91B8
:10270000FF90EF90DF90CF90BF90AF909F908F9011
:102710007F906F905F904F90089586E893E0AECFE2
:102720008DE697E0ABCF8430C9F0853029F7F7010B
:1027300011821082F6011182108284EE97E007C0A8
:102740008DEE9AE1F7019183808385EA98E0F801A4
:1027500091838083D1CF8BE099E0F9CF8BEB99E126
:10276000F6CF6D3071058105910519F51A8A1B8A1E
:102770001C8A1D8A8881843089F340F4823071F08C
:10278000833009F0B9CF8EE09CE0E1CF893071F061
:102790008A3009F0B1CF80E69CE0D9CF80E79CE099
:1027A000F701918380838CE29AE0D1CF8CEF9BE09C
:1027B000CECF663071058105910539F58CE897E13A
:1027C000F701918380838881843041F240F4823024
:1027D00081F0833009F090CF86E997E1B8CF85305A
:1027E00079F0803109F088CF1182108289E196E179
:1027F000AECF8AEB9AE19183808386EF97E1A7CFF2
:102800001182108284E997E1A2CF653071058105BC
:10281000910551F0653371058105910529F0693302
:1028200071058105910519F58881843009F496CFE9
:1028300040F4823071F0833009F05ECF83EB98E191
:1028400086CF853071F0803109F056CF81EF95E168
:102850007ECF87E299E1F7019183808380E496E15E
:1028600076CFF701118210828AE897E170CF2B01B1
:102870003C01F7E04F1A51086108710822E0421646
:1028800051046104710430F06B30710581059105CC
:1028900009F081C02AEC31E1F701318320832881DE
:1028A000233009F44DC0C8F5223009F441C0F501C8
:1028B0002081318130930E0220930D0222E934E011
:1028C000318320830A891B892C893D89012B022BA6
:1028D000032BD1F404E610E020E030E0683071050D
:1028E0008105910569F004EF11E020E030E06B30E4
:1028F00071058105910521F008EE13E020E030E03C
:102900000A8B1B8B2C8B3D8B0E947605009749F51B
:102910006B818BEB0E94590D3CC02430F9F02530BF
:1029200031F623EE31E13183208320EC39E006C01B
:1029300026E03CE1318320832CE33CE1F8010BC02D
:1029400024E839E1F801318320832E8D23FDAFCFB8
:102950002BEB39E1F60131832083A9CF2BEB39E151
:10296000EDCFFC01349685919591A591B491009796
:10297000A105B10509F4C0CE4A895B896C897D89BE
:1029800084179507A607B70708F0B6CE8EEA0E940F
:10299000150A1A82B1CE6E3071058105910509F4D0
:1029A000ABCE4B015C01F7E28F1A9108A108B10888
:1029B00023E082169104A104B10408F49DCEF7012E
:1029C00011821082F80111821082F60111821082A8
:1029D000A0CF8091010190910201442329F0682B3E
:1029E000792B88E00C949E1260957095682379236A
:1029F000F8CF2A9A08952D9A0895CF92DF92EF92F8
:102A0000FF921F93CF93DF93EC016A017B01122F9A
:102A10000E94F91420E0B701A601CE010E94B00483
:102A2000AB01BC01FE01EB5AFD4F0190F081E02D9E
:102A3000CE0109958FEF8AB91BB987E090E0019725
:102A4000F1F70E9474056A897B898C899D890E94AF
:102A50003004DF91CF911F91FF90EF90DF90CF90E6
:102A60000C94FB14CF93DF93EC012A9821E00E9491
:102A7000B004AB01BC01FE01EB5AFD4F0190F081A7
:102A8000E02DCE0109951BB81AB88E899F89A88DB3
:102A9000B98D0097A105B10561F0893E23E0920749
:102AA000A105B10520F088EE93E0A0E0B0E00E941F
:102AB0000A020E9474058A8D9B8DAC8DBD8D009796
:102AC000A105B10599F0893E23E09207A105B10562
:102AD00020F088EE93E0A0E0B0E00E940A02C9B1C5
:102AE0000E94FB148C2FDF91CF91089583E090E03A
:102AF000A0E0B0E0F2CF7F928F929F92AF92BF9210
:102B0000CF92DF92EF92FF920F931F93CF93DF93B9
:102B10008C017B015A016C0189EAC81A8DEFD80A31
:102B2000D601ED91FC9140E060E470E0C8010995A8
:102B3000E701F12CE12C88248A947C8068819980BB
:102B40008AB870E081E00E949E12692D70E082E0F8
:102B50000E949E128AB87BB80E94F9140E947405E4
:102B60000E94FB14BFEFEB1AFB0A2596AE14BF04BC
:102B700021F7D601ED91FC9140E060E470E0C801DE
:102B8000DF91CF911F910F91FF90EF90DF90CF9049
:102B9000BF90AF909F908F907F9009941F93CF9399
:102BA000DF93EC0143E050E067E971E00E947B15A0
:102BB000FE01ED5AFD4F0190F081E02D42E050E022
:102BC00060E070E0CE010995182F43E050E068E81E
:102BD00071E0CE010E947B15812FDF91CF911F9173
:102BE00008950F931F93CF93DF9300D0CDB7DEB737
:102BF0008C010E94CE1589838F3F91F41A8281E067
:102C0000F801828342E0BE016F5F7F4F81EE0E9438
:102C100040070F900F90DF91CF911F910F91089572
:102C20008E3F19F481E08A83EBCF8FEF8A8382E0B5
:102C3000E7CF0F931F93CF93DF9300D0CDB7DEB7CD
:102C40008C010E94CE158983811112C01A8281E005
:102C5000F801828342E0BE016F5F7F4F81EE0E94E8
:102C600040070F900F90DF91CF911F910F91089522
:102C7000813011F48A83ECCF8FEF8A8382E0E8CF32
:102C80002F923F924F925F926F927F928F929F927C
:102C9000AF92BF92CF92DF92EF92FF920F931F936A
:102CA000CF93DF93CDB7DEB72E970FB6F894DEBF84
:102CB0000FBECDBF8C01FC0180859185A285B385B7
:102CC00020E4822E912CA12CB12C81309105F1E0D1
:102CD000AF07B10568F030E8832E912CA12CB12C00
:102CE0000197A440B10520F0812C912C54019394BC
:102CF000C801869698878F83412C512C3201D801C8
:102D0000AA5DBD4FBA87A987F801EF5AFD4FFC872E
:102D1000EB87835D9D4F9E878D87E985FA8580814E
:102D20009181A281B381481659066A067B0608F094
:102D300072C0D8011C96CD90DD90ED90FC901F974D
:102D4000C40CD51CE61CF71CEF81F8852191F8878F
:102D5000EF832E83C701B601A50194010E94D42FF1
:102D6000672B682B692B29F041145104610471040D
:102D700039F443E050E06AE371E0C8010E947B153A
:102D8000AB85BC85ED91FC912E81B701A601C801F0
:102D90000995C701B6016F5F7F4F8F4F9F4FA50108
:102DA00094010E94D42F672B682B692B79F0E98559
:102DB000FA8580819181A281B3810197A109B1092E
:102DC00084159505A605B70509F03EC0212C84E0C1
:102DD000382E83E290E00197F1F7AD85BE85ED9145
:102DE000FC91B701A601C8010995BE81B81761F130
:102DF000E1E02E1A310869F7B983EA82DB82CC82DE
:102E00008D8345E0BE016F5F7F4F83EB0E944007DB
:102E1000D80112961C922E960FB6F894DEBF0FBE04
:102E2000CDBFDF91CF911F910F91FF90EF90DF9079
:102E3000CF90BF90AF909F908F907F906F905F905A
:102E40004F903F902F900895BFEF4B1A5B0A6B0A8B
:102E50007B0A63CFCF92DF92EF92FF920F931F9383
:102E6000CF93DF9300D000D0CDB7DEB78C0143E025
:102E700050E067E971E00E947B1568018DEAC81A8D
:102E80008DEFD80AD601ED91FC9140E050E0BA01F7
:102E9000C8010995E82EF12CFE2CEE24D601ED9107
:102EA000FC9141E050E060E070E0C8010995E82A3B
:102EB00043E050E068E871E0C8010E947B15F8012A
:102EC00082A193A18E159F0591F0F982EA829B83DE
:102ED0008C83868D44E0BE016F5F7F4F80FF14C0FE
:102EE00083E80E94400782E0D80112968C930F90ED
:102EF0000F900F900F90DF91CF911F910F91FF9046
:102F0000EF90DF90CF90089589EB0E944007F80181
:102F10001282EDCF0C942A17FC0122A133A1232B9E
:102F200011F00C942A1708950C942A17CF92DF926F
:102F3000EF92FF920F931F93CF93DF93CDB7DEB73E
:102F40006E970FB6F894DEBF0FBECDBFFC010485AF
:102F500015852685378546E050E068E571E0011566
:102F600011052105310589F145E555E560E070E081
:102F700049835A836B837C83FAEAFD83EAEACE2E87
:102F8000EAE2DE2EE12CF12CCE82DF82E886F986A1
:102F9000E5E5EA874B875C876D877E87A0E8AF878A
:102FA000488B598B6A8B7B8BFC8BCD8ADE8AEF8AB0
:102FB000F88EE98F40E34E8F0A8F1B8F2C8F3D8F49
:102FC00046E050E0BE016F5F7F4F0E947B156E961A
:102FD0000FB6F894DEBF0FBECDBFDF91CF911F912A
:102FE0000F91FF90EF90DF90CF9008952F923F9236
:102FF0004F925F926F927F928F929F92AF92BF9209
:10300000CF92DF92EF92FF920F931F93CF93DF93B4
:1030100000D000D0CDB7DEB79C838B838C01412CD0
:10302000512C32018A5D9D4F9A83898348012FEA92
:10303000821A2DEF920A580189EAA81A8DEFB80A70
:10304000E981FA8180819181A281B3814816590674
:103050006A067B0608F070C043E050E069E471E066
:103060008B819C810E947B15AB81BC811C964D910C
:103070005D916D917C911F97440D551D661D771DC7
:10308000D401ED91FC91D80196962C918B819C8175
:103090000995F80126A0D501ED91FC9141E060E48D
:1030A00070E08B819C8109950E946D026B017C010F
:1030B000B6E9CB0ED11CE11CF11C0E946D026C150F
:1030C0007D058E059F0568F51BB81AB80E9474052A
:1030D0002A9839B00E94FB140E94F914322437FC5C
:1030E000ECCF1BB81AB80E9474052A9839B00E9418
:1030F000FB140E94F914322437FCDFCFEFEFEAB95A
:103100000E94FB140E94F9140F5F1F4FEB81FC819A
:103110008281882389F0FFEF4F1A5F0A6F0A7F0AC6
:103120008FCF40E070E060E087EB0E944007AB810A
:10313000BC8112961C92E8CF0F900F900F900F90C9
:10314000DF91CF911F910F91FF90EF90DF90CF9083
:10315000BF90AF909F908F907F906F905F904F90B7
:103160003F902F900895EF92FF920F931F93CF936C
:10317000DF93EC0121E040E050E0BA010E94B0048E
:10318000AB01BC017E018BEAE81A8DEFF80AD7018A
:10319000ED91FC91CE0109950E94FB148E01095A14
:1031A0001D4FD801ED91FC9140E064E871E0CE0143
:1031B000099562E070E080E090E00E943A020E948F
:1031C0007405D801ED91FC9141E064E871E0CE0115
:1031D000099562E070E080E090E00E943A0220E011
:1031E00040E050E0BA01CE010E94B004AB01BC0146
:1031F000D701ED91FC91CE01099564E170E080E08A
:1032000090E00E943A0221E040E050E0BA01CE0195
:103210000E94B004AB01BC01D701ED91FC91CE013D
:10322000099562E070E080E090E00E943A020E941E
:10323000FB14D801ED91FC9140E064E871E0CE010F
:10324000DF91CF911F910F91FF90EF900994FC01B6
:10325000218126FD11C02281222371F0268D21FFBC
:103260000BC022FF0C94B31827FF06C040E070E0AB
:1032700060E088E50C94400708950F931F93CF9367
:10328000DF93EC010E94F9148E01095A1D4FD801F9
:10329000ED91FC9141E060E870E0CE01099564E6B3
:1032A00070E080E090E00E943A02FE01EB5AFD4F90
:1032B0000190F081E02D40E050E0BA01CE01099587
:1032C000D801ED91FC9141E066E070E0CE010995F6
:1032D00064E670E080E090E00E943A020E9474058B
:1032E00060EA76E881E090E00E9430040E94FB14DE
:1032F000D801ED91FC9140E066E871E0CE01DF91EC
:10330000CF911F910F9109940C943D190E94600672
:103310000E94FB1470E060E088E00E949E1270E062
:1033200060E081E00E949E1270E060E082E00E9416
:103330009E121092C8040C94690DFF920F931F9374
:10334000CF93DF938C01C0E3D0E0F801F1908F01BF
:10335000CE010E94802FF81621F06F2DCE010E9421
:10336000882F2196CF33D10581F7DF91CF911F911F
:103370000F91FF9008954F925F926F927F92AF925C
:10338000BF92CF92DF92EF92FF920F931F93CF9352
:10339000DF93CDB7DEB728970FB6F894DEBF0FBE28
:1033A000CDBF8C01DC0111969C9111971C96CD909C
:1033B000DD90ED90FC901F9796FD65C0906411968E
:1033C0009C9384E090E00E942331F801E75BFD4F7D
:1033D00091838083FC01C082D182E282F382D80192
:1033E0001C961D921D921D921C921F97F801C48479
:1033F000D584E684F78426013701F8E05F0E611C6E
:10340000711C58018DEAA81A8DEFB80AF801808561
:103410009185A285B385C414D504E604F70408F0A9
:103420007BC0C816D906EA06FB0608F075C0D501B0
:10343000ED91FC91B701A601C80109958F3F09F4F0
:1034400065C0270166247724498277276F2D5E2D7A
:103450004D2D4A83CB828C83F8019081943009F002
:103460004DC046A247A3C0A681A784E090E0A0E09B
:10347000B0E0EA5DFD4F80839183A283B383D801DE
:1034800012961C9226C0F80140855185628573858D
:10349000C416D506E606F70608F4A8CF7801F7EBC0
:1034A000EF1AFDEFFF0AD7012D913C919F7BF801A8
:1034B0009183F90180819181A281B381F801848790
:1034C0009587A687B787C9010E94BF31D7011D9292
:1034D0001C9228960FB6F894DEBF0FBECDBFDF91C9
:1034E000CF911F910F91FF90EF90DF90CF90BF9001
:1034F000AF907F906F905F904F90089544E0BE0131
:103500006F5F7F4F80EB0E944007B9CFBFEFCB1AB0
:10351000DB0AEB0AFB0A7ACFF801448555856685FC
:103520007785585F6F4F7F4F84179507A607B707BA
:10353000E0F04487558766877787F801208124303B
:1035400041F2248535854685578559834A833B83D7
:103550002C83BD83AE839F83888748E0BE016F5F65
:103560007F4F80EE0E944007B4CF84879587A6875F
:10357000B787E3CFCF93DF93EC01898186FD07C046
:103580008AA19BA1892B59F48E8D81FD11C08E8D4E
:1035900083FD0BC0CE01DF91CF910C94BB19CE01FE
:1035A0000E942A178A818111EFCFDF91CF91089570
:1035B00082FD0AC0CE010E94961769E670E080E0A5
:1035C00090E00E943A02E3CF87FFE1CF40E070E055
:1035D00060E089E50E944007DACF4F925F926F92D8
:1035E0007F92AF92BF92CF92DF92EF92FF920F93B2
:1035F0001F93CF93DF93CDB7DEB728970FB6F8941C
:10360000DEBF0FBECDBF8C015C0189EAA81A8DEF29
:10361000B80AD501ED91FC9141E068E870E0C8017D
:10362000099564EF71E080E090E00E943A020E9408
:10363000860681112AC040E070E060E080E80E94C8
:10364000400782E0F8018283F80182818111BFC0C6
:10365000D501ED91FC9140E068E870E0C801099562
:1036600028960FB6F894DEBF0FBECDBFDF91CF9185
:103670001F910F91FF90EF90DF90CF90BF90AF9090
:103680007F906F905F904F9008950E94EB0F6C01B8
:103690002C01712C612CD8015096ED90FC90C70143
:1036A000B0E0A0E08C509E4FAF4FBF4F8415950502
:1036B000A605B70508F040C0B2E3CB0ED11CE2E38B
:1036C000EE0EF11C198298EE692E93E0792EC60158
:1036D000B3010E94C02F6A831B82E4E6F0E0C601BA
:1036E000BF010E94C02FCB012AE030E0B9010E9447
:1036F000C02F8C831D82C701B3010E94C02F6E832F
:103700001F82C701BF010E94C02FCB01B9010E94D7
:10371000C02F8887D8015E968C9148E0BE016F5F0C
:103720007F4F80FF02C082E88ACF88EB0E9440076B
:10373000D80112961C9288CF9701AFE5B0E00E94A5
:10374000A12F24E630E040E050E00E94D42F421642
:1037500053066406750608F077CFB2E3CB0ED11C92
:10376000E2E3EE0EF11C198288EE682E83E0782EDB
:10377000C601B3010E94C02F6A831B82E4E6F0E019
:10378000C601BF010E94C02FCB012AE030E0B90181
:103790000E94C02F8C831D82C701B3010E94C02FDD
:1037A0006E831F82C701BF010E94C02FCB01B901E8
:1037B0000E94C02F888748E0BE016F5F7F4F81E87D
:1037C0000E94400782E0D80112968C933DCF82A1DF
:1037D00093A1892B49F0C8010E94E407D8011296F1
:1037E0008C91882309F434CFF801868D81FF05C0C0
:1037F00082FD03C0C8010E940B09D8015E968C911E
:1038000083FD2ECFC8010E94BB192ACFCF93DF932F
:10381000EC01898186FD0EC0CE010E94CA118A8109
:10382000882389F08E8D81FF05C082FD19C0CE01ED
:103830000E943D198E8D83FD03C0CE010E94BB19ED
:103840008A81811116C0FE01E95AFD4F0190F08175
:10385000E02D40E066E871E0CE01DF91CF91099460
:1038600087FFE8CF40E070E060E088E50E94400715
:10387000E1CFDF91CF9108952F923F924F925F92C7
:103880006F927F928F929F92AF92BF92CF92DF9270
:10389000EF92FF920F931F93CF93DF93CDB7DEB7D5
:1038A000C756D1090FB6F894DEBF0FBECDBF6C016D
:1038B000FC01E75AFD4F0190F081E02D60E870E0D7
:1038C0000995811118C0F601E95AFD4F0081118157
:1038D000D6015E968C9184FD5FC1C6010E94B2053F
:1038E00041E0BC01C601F801099564EF71E080E098
:1038F00090E00E943A02D60113966D917D918D91D0
:103900009C9116970E947605009709F48BC1FC01E3
:10391000349625913591459154916E962CAF3DAFDB
:103920004EAF5FAF6E97FC013896349168963FAF0B
:103930006897FC012591359145915491A6962CAF3D
:103940003DAF4EAF5FAFA697FC0139963491A1967B
:103950003FAFA19731964491A2964FAFA297D6015F
:1039600052968D919D910D90BC91A02D29968CAF72
:103970009DAFAEAFBFAF2997F601EA5DFD4F208145
:1039800031816A963FAF2EAF6A97FE01319680E48F
:10399000DF011D928A95E9F72E961CAE1DAE1EAE74
:1039A0001FAE2E97212CF601ED5AFD4FA896FFAFC2
:1039B000EEAFA8979601295A3D4F25963FAF2EAFFF
:1039C0002597A6014F5A5D4FA0965FAF4EAFA097C7
:1039D000D6011C96BC916596BFAF6597F601F5853B
:1039E0006696FFAF6697D6011E96BC916796BFAFED
:1039F0006797F60137846296DFAECEAE6297609627
:103A0000DFAECEAE6097412C512C320123961FAE13
:103A10001EAE23976A962EAD3FAD6A9742165306A7
:103A200008F0E5C0C2018770992741E050E002C06C
:103A3000440F551F8A95E2F764965FAF4EAF6497C7
:103A4000820193E0169507959A95E1F7E1E0F0E0A1
:103A5000EC0FFD1FE00FF11FF080E42EEF2022207D
:103A600019F0EE2009F488C06096AEADBFAD609746
:103A70009696BC912A96BFAF2A97BF3F09F47CC0A7
:103A8000F60184849584A684B784840C951CA61CB6
:103A9000B71CA896AEADBFADA897ED91FC91B5014E
:103AA000A401C60109952A96BFAD2A97B81377C01D
:103AB000EE2009F461C0E1E0F0E0EC0FFD1FE00F43
:103AC000F11F63968FAD63978095F822F082A696DA
:103AD000ECACFDAC0EAD1FADA697A1962FADA19796
:103AE00029964CAD5DAD6EAD7FAD2997822D0E94BC
:103AF000C605611571058105910509F43DC0F60102
:103B0000628B738B848B958B2596AEADBFAD25975D
:103B1000ED91FC9141E064E070E0C60109958BE90C
:103B20009FE00197F1F7A096AEADBFADA097ED91E4
:103B3000FC912A962FAD2A97B501A401C6010995DB
:103B40008BE891E00197F1F72596AEADBFAD2597D3
:103B5000ED91FC9140E064E070E0C6010995299682
:103B60002CAD3DAD4EAD5FAD2997D60152962D934C
:103B70003D934D935C93559760964EAD5FAD6097C6
:103B80004F5F5F4F60965FAF4EAF60975FEF451A34
:103B9000550A650A750A3ECF80E890E0A1CEE11093
:103BA0000BC0E1E0F0E0EC0FFD1FE00FF11F6396AA
:103BB000BFAD6397FB2AF0822396EEADFFAD23974E
:103BC000EF2B51F465968FAE659766969FAE66971C
:103BD0006796AFAE67973B2C23962EAD3FAD2397EC
:103BE0002F5F3F4F23963FAF2EAF2397C5CF23962E
:103BF0008EAD9FAD2397892B09F4D7C068969FADF2
:103C00006897921138C00DEB292F65964FAD6597D7
:103C100066965FAD669767966FAD6797732DC60121
:103C20000E94C309D60112968C918111C8C0F60179
:103C3000E95AFD4F0190F081E02D40E066E871E027
:103C4000C601C959DF4F0FB6F894DEBF0FBECDBF16
:103C5000DF91CF911F910F91FF90EF90DF90CF9068
:103C6000BF90AF909F908F907F906F905F904F909C
:103C70003F902F9009946E962CAD3DAD4EAD5FAD4B
:103C80006E97211531054105510571F02E968CADC9
:103C90009DADAEADBFAD2E9782179307A407B507B4
:103CA00018F00EEB222DB1CF2596AEADBFAD259706
:103CB000ED91FC9141E064E070E0C60109958BE96B
:103CC0009FE00197F1F7812C912C54016A96EEAD9B
:103CD000FFAD6A978E169F0608F040C0F40183E09E
:103CE000F695E7958A95E1F721E030E02C0F3D1F2E
:103CF000E20FF31FC4018770992721E030E001C073
:103D0000220F8A95EAF780818223C9F0D6011C969A
:103D10004D915D916D917C911F97480D591D6A1DC4
:103D20007B1DA096AEADBFADA097ED91FC916296C4
:103D3000AEADBFAD629796962C91C601099562967D
:103D4000EEADFFAD629731966296FFAFEEAF629730
:103D5000FFEF8F1A9F0AAF0ABF0AB8CF8BE891E036
:103D60000197F1F72596AEADBFAD2597ED91FC918A
:103D700040E064E070E0C601099523942E962CADD6
:103D80003DAD4EAD5FAD2E9729968CAD9DADAEADE0
:103D9000BFAD2997280F391F4A1F5B1F2E962CAFE6
:103DA0003DAF4EAF5FAF2E9713CEA2969FADA297B9
:103DB000913009F037CFC6010E946D0733CFC95942
:103DC000DF4F0FB6F894DEBF0FBECDBFDF91CF91AE
:103DD0001F910F91FF90EF90DF90CF90BF90AF9029
:103DE0009F908F907F906F905F904F903F902F901B
:103DF00008954F925F926F927F92AF92BF92CF924F
:103E0000DF92EF92FF920F931F93CF93DF9300D037
:103E100000D0CDB7DEB77C010E94F10E181619064E
:103E20000CF0A1C06E0185E0C80ED11C0E94F10EFD
:103E3000181619060CF097C08FE092E00E94C90294
:103E400084349105E1F18F349105A1F0839709F055
:103E500087C00E94ED0E60E072E0C70186960E9466
:103E6000230F97FF6FC0BC0189EA0E94470D84E0D1
:103E700090E012C00E94F10E02970CF474C00E94F0
:103E8000ED0E8FE092E00E94C9028B34910571F62D
:103E90000E94ED0E90E080E00F900F900F900F9039
:103EA000DF91CF911F910F91FF90EF90DF90CF9016
:103EB000BF90AF907F906F905F904F9008950E9459
:103EC000F10E04970CF44FC08E010F5F1F4FB02E00
:103ED000A12E0E946D0260931702709318028093C6
:103EE000190290931A028FE092E00E94B50297FFA8
:103EF0003DC00E946D0240901702509018026090E1
:103F0000190270901A026419750986099709409080
:103F100013025090140260901502709016026415FE
:103F2000750586059705F8F244E050E068E571E014
:103F30008B2D9A2D0E94722F892B09F077CF81E06B
:103F400090E0AACFF701EA5DFD4F092E000CAA0B05
:103F5000BB0B80839183A283B38382E090E09CCFEC
:103F60000E94ED0E63CF83E090E096CFF80181933D
:103F70008F01CE16DF0609F0ACCFD6CF0F931F937B
:103F8000CF93DF93EC014C855D856E857F858885B9
:103F90009985AA85BB85481759076A077B0720F0D2
:103FA000CE010E94FA0912C0CE010E94F91E833090
:103FB000910591F4898187FD09C040E070E060E0DF
:103FC00082E00E94400789818068898381E0DF91D7
:103FD000CF911F910F91089529812F7729838130E7
:103FE0009105F1F2029711F080E0F1CF8E010A5DA8
:103FF0001D4F8C859D85AE85BF85F801408151811F
:1040000062817381840F951FA61FB71F488559854C
:104010006A857B85481759076A077B0738F440E0B3
:1040200070E060E087EA0E944007DECFFE01E35BBC
:10403000FD4F808191810097B9F2BE010E94CF0DA2
:10404000019691F28C859D85AE85BF85F8014081F2
:10405000518162817381840F951FA61FB71F8C87C2
:104060009D87AE87BF87B2CFCF92DF92EF92FF924C
:10407000CF93DF93EC010E946D026B017C0128EE6F
:10408000C20E23E0D21EE11CF11C0E946D026C15D1
:104090007D058E059F0570F4CE010E94F91E0097E4
:1040A00089F0049769F06AE070E080E090E00E9497
:1040B0003A02EBCF40E070E060E088EA0E944007FF
:1040C00080E001C081E0DF91CF91FF90EF90DF9021
:1040D000CF9008950F931F93CF93DF938C01EB0143
:1040E0008091C9048F7390E09B01215031098217A0
:1040F000930731F08617970779F181E090E008C0C7
:1041000088EC94E00E943420811107C08FEF9FEF6C
:10411000DF91CF911F910F9108958091E6049091C6
:10412000E704A091E804B091E90480789927AA27D0
:10413000BB27C130D105D1F4892B8A2B8B2B31F0D1
:1041400040E070E060E082E40E9440078091C90492
:10415000807C8C2B8093C9040115110581F480911A
:10416000C90486FF14C090E080E0D2CF892B8A2B4F
:104170008B2B61F340E070E060E083E4E5CF68EC16
:1041800074E0C8010E94CF0D019649F7BFCF40E00F
:1041900070E060E080E1219709F080E30E94400731
:1041A0009091C904892F8F738F5F907C892B8093A6
:1041B000C904A3CFCF93DF93EC01809115079091B1
:1041C0001607892B09F458C08091C9048F73863073
:1041D00051F488EC94E00E94F91E21E0039709F461
:1041E00044C020E042C0833001F1823021F588ECE8
:1041F00094E00E9434208823E1F10E9448068091D7
:10420000C904807C83608093C9048091E60487FFA1
:1042100006C040E070E060E080E40E9440078091CA
:10422000C9048F7321E0833001F588EC94E0FE012E
:10423000DF91CF91099461E070E080911307909134
:1042400014070E946A208130910559F465E070E0FE
:1042500080911707909118070E946A20813091057C
:10426000F1F221E0892B09F0BCCF822FDF91CF91B1
:1042700008958FEF9FEFF5CF40E070E060E085EAB2
:104280000E9440071092CA04ACCFCF92DF92EF9207
:10429000FF920F931F93CF93DF93FC01E35BFD4FDE
:1042A000208131812115310559F410E0812FDF91F2
:1042B000CF911F910F91FF90EF90DF90CF900895D5
:1042C000EC01BC01C9010E94CF0D019671F340E0E1
:1042D00070E060E082EE0E94400780910001882338
:1042E00009F462C0FE01EA5DFD4FE080F1808EEFCF
:1042F000E8168FEFF80608F057C0EEEDF0E0649195
:104300008FE092E00E941903EFEDF0E064918FE0FE
:1043100092E00E941903E0EEF0E064918FE092E0F9
:104320000E941903E1EEF0E064918FE092E00E94B8
:10433000190387010E5F1F4F612F8FE092E00E94EB
:104340001903602F8FE092E00E94190366EE8FE060
:1043500092E00E941903E3E4F2E004916E01C601C9
:104360008C1B9D0B8E159F0588F4F60116A1612FFD
:104370008FE092E00E941903E12FE027F0E0E35A7A
:10438000FE4F0491FFEFCF1ADF0AE9CF602F8FE0D5
:1043900092E00E9419036AE08FE092E00E94190304
:1043A0008FE092E00E946603CE010E943420182F15
:1043B000882309F47ACF8C859D85AE85BF85FE0163
:1043C000EA5DFD4F4081518162817381840F951FA9
:1043D000A61FB71F8C879D87AE87BF8748855985E5
:1043E0006A857B8584179507A607B70708F45ECF13
:1043F000CE010E94FA095ACFEF92FF920F931F93BA
:10440000CF93DF93FB01208131812430310539F5D1
:104410008A01EB017C01CA010E94692FEA81FB81BC
:104420002C813D812E1B3F0B82179307C1F4AC01F9
:10443000B801C7018E0F9F1F0E94722F21E030E04C
:10444000892B11F430E020E088279927821B930BF9
:10445000DF91CF911F910F91FF90EF9008958FEF13
:104460009FEFF6CFEF92FF920F931F93CF93DF93BF
:104470008C01EB0183E0CC0FDD1F8A95E1F7CE01C3
:1044800088539D4F7C014DEF52E0BC01C8010E9452
:10449000FC21892B41F047EF52E0B701C8010E948F
:1044A000FC21892B81F4C053DD4F8A819B81800FD1
:1044B000911F0E942606862FDF91CF911F910F91A9
:1044C000FF90EF9008958FEFF7CFEF92FF920F9349
:1044D0001F93CF93DF937C01890183E0440F551F25
:1044E0008A95E1F7EB01C40FD51F4EE451E0BE0100
:1044F000C7010E94FC21892B89F48A859B858E0D3A
:104500009F1D0E942606F80175A364A381E0DF9138
:10451000CF911F910F91FF90EF90089580E0F7CF1A
:10452000EF92FF920F931F93CF93DF937C0189014A
:1045300083E0440F551F8A95E1F7EB01C40FD51FA7
:104540004FE351E0BE01C7010E94FC21892BE9F431
:104550008A859B858E0D9F1D0E942606693E23E05D
:1045600072078105910520F068EE73E080E090E02D
:10457000F801628F738F848F958F81E0DF91CF91E7
:104580001F910F91FF90EF90089580E0F7CFEF9289
:10459000FF920F931F93CF93DF937C01890183E0F8
:1045A000440F551F8A95E1F7EB01C40FD51F4BE26D
:1045B00051E0BE01C7010E94FC21892BE9F48A85E4
:1045C0009B858E0D9F1D0E942606693E23E0720783
:1045D0008105910520F068EE73E080E090E0F8013D
:1045E000668B778B808F918F81E0DF91CF911F91C8
:1045F0000F91FF90EF90089580E0F7CFEF92FF9238
:104600000F931F93CF93DF937C01890183E0440FC5
:10461000551F8A95E1F7EB01C40FD51F41E251E028
:10462000BE01C7010E94FC21892B99F48A859B85D4
:104630008E0D9F1D0E942606F80163837483858377
:10464000968381E0DF91CF911F910F91FF90EF90C2
:10465000089580E0F7CFEF92FF920F931F93CF93CF
:10466000DF937C01890183E0440F551F8A95E1F7B0
:10467000EB01C40FD51F4AE151E0BE01C7010E9402
:10468000FC21892B89F48A859B858E0D9F1D0E94B4
:104690002606F801718B608B81E0DF91CF911F912D
:1046A0000F91FF90EF90089580E0F7CFEF92FF9287
:1046B0000F931F93CF93DF937C01890183E0440F15
:1046C000551F8A95E1F7EB01C40FD51F4EE051E06D
:1046D000BE01C7010E94FC21892B99F48A859B8524
:1046E0008E0D9F1D0E942606F801628B738B848BB2
:1046F000958B81E0DF91CF911F910F91FF90EF900B
:10470000089580E0F7CFEF92FF920F931F93CF931E
:10471000DF937C01890183E0440F551F8A95E1F7FF
:10472000EB01C40FD51F44E051E0BE01C7010E9458
:10473000FC21892B81F48A859B858E0D9F1D0E940B
:104740002606F801678381E0DF91CF911F910F91D9
:10475000FF90EF90089580E0F7CFEF92FF920F93D4
:104760001F93CF93DF937C01890183E0440F551F92
:104770008A95E1F7EB01C40FD51F4CEF50E0BE0165
:10478000C7010E94FC21892B89F48A859B858E0DA7
:104790009F1D0E942606F80173A362A381E0DF91AA
:1047A000CF911F910F91FF90EF90089580E0F7CF88
:1047B000EF92FF920F931F93CF93DF937C018901B8
:1047C00083E0440F551F8A95E1F7EB01C40FD51F15
:1047D00044EF50E0BE01C7010E94FC21892B99F4EF
:1047E0008A859B858E0D9F1D0E942606F801648791
:1047F00075878687978781E0DF91CF911F910F9111
:10480000FF90EF90089580E0F7CFEF92FF920F9323
:104810001F93CF93DF937C01890183E0440F551FE1
:104820008A95E1F7EB01C40FD51F48EE50E0BE01B9
:10483000C7010E94FC21892B99F48A859B858E0DE6
:104840009F1D0E942606F8016087718782879387E3
:1048500081E0DF91CF911F910F91FF90EF9008952C
:1048600080E0F7CFEF92FF920F931F93CF93DF93E8
:104870007C01890183E0440F551F8A95E1F7EB0124
:10488000C40FD51F42EE50E0BE01C7010E94FC21BB
:10489000892B99F48A859B858E0D9F1D0E94260683
:1048A000F801668F778F80A391A381E0DF91CF918C
:1048B0001F910F91FF90EF90089580E0F7CF1F9226
:1048C0000F920FB60F9211242F933F938F939F93C4
:1048D000AF93BF938091C0029091C102A091C20298
:1048E000B091C3023091BF0223E0230F2D3758F55A
:1048F0000196A11DB11D2093BF028093C002909329
:10490000C102A093C202B093C3028091C4029091ED
:10491000C502A091C602B091C7020196A11DB11DAA
:104920008093C4029093C502A093C602B093C702BD
:10493000BF91AF919F918F913F912F910F900FBE9B
:104940000F901F90189526E8230F0296A11DB11D08
:10495000D2CF1F920F920FB60F9211242F933F9335
:104960004F935F936F937F938F939F93AF93BF9377
:10497000EF93FF938FE092E00E94F702FF91EF9197
:10498000BF91AF919F918F917F916F915F914F9167
:104990003F912F910F900FBE0F901F9018951F926F
:1049A0000F920FB60F9211242F938F939F93EF9333
:1049B000FF93E0911F02F09120028081E091250297
:1049C000F091260282FD1BC09081809128028F5FAA
:1049D0008F7320912902821741F0E0912802F0E0C4
:1049E000E15FFD4F958F80932802FF91EF919F919A
:1049F0008F912F910F900FBE0F901F90189580816F
:104A0000F4CFCF93DF93CDB7DEB7E7970FB6F89427
:104A1000DEBF0FBECDBF789484B5826084BD84B5FF
:104A2000816084BD85B5826085BD85B5816085BDA9
:104A300080916E00816080936E0010928100809161
:104A400081008260809381008091810081608093E9
:104A50008100809180008160809380008091B1000E
:104A600084608093B1008091B00081608093B00039
:104A700080917A00846080937A0080917A008260CD
:104A800080937A0080917A00816080937A0080918F
:104A90007A00806880937A001092C1002CEAE22E9E
:104AA00022E0F22E00E310E0C8010E94802FD7011F
:104AB0008D937D010F5F1F4F0F331105A9F76AEA30
:104AC00071E08CEA92E00E945132892B29F16AEA66
:104AD00071E08CEA92E00E945A3280EB9EE1A4E001
:104AE000B0E08093B2029093B302A093B402B0936B
:104AF000B50280EE9BEAA0E0B0E08093B60290930E
:104B0000B702A093B802B093B9028FEF8093BA02B4
:104B10008CEA92E00E949D1981E10E94CA0180E125
:104B20000E94CA0198E0F92E10E000E081E10E94A5
:104B3000F201080F191FFA94F110F8CF83E01695CF
:104B400007958A95E1F782E0083C110538F0C80125
:104B50008C5D91098C37914020F485E080930501AC
:104B60000EC08EEF08351240C8F380E10E94F201BA
:104B700021E0883E93400CF020E0209305018091D5
:104B800005018E3F41F48091BA028F3F21F46EEF10
:104B90008BE50E94590D8FE284B980E185B90E94AE
:104BA000FB140E94F91470E060E081E00E949E1204
:104BB00070E060E082E00E949E1270E060E088E0B9
:104BC0000E949E120E94690D1092C8048091C80430
:104BD000882309F436C00E946D020091BB02109137
:104BE000BC022091BD023091BE02061717072807AC
:104BF000390738F56091C8048AEA0E94590D0E946D
:104C0000861981E08093CA046091C804613110F074
:104C10000C94332FE62FF0E0E05FF94D0C94153043
:104C2000D62C842C8F2C922C9D2CA02C8F2C3D2E9E
:104C3000822D9D2C9D2CAB2CAB2C532D122F762D21
:104C40009D2C8091C8048111DCCF0E94F10E1816B2
:104C500019060CF0ABC66FEF71E08EEE94E00E9487
:104C6000230F181619060CF04AC6AC01092E000CC9
:104C7000660B770B4093EE065093EF066093F006B9
:104C80007093F106811512E0910724F4FC01E853BA
:104C9000FB4F16A221E02093CA041092C90420E819
:104CA00030E040E050E02093E6043093E704409386
:104CB000E8045093E9046FEF7FEF50E040E030E00C
:104CC00020E0D12CC12CA8E0AA2EB12CB4E08B2E70
:104CD000912CFA01E251FB4FE081EE2309F48CC1E3
:104CE000EA330CF066C0E0330CF07AC0E03209F42D
:104CF0007DC16CF4E93034F0EB300CF477C1ED3069
:104D000009F474C19EEFC92EDD24DA9481C1EC321E
:104D100009F403C2ED3209F463C0E23299F73A01B3
:104D20004F5F5F4F4817590708F0D9C0FA01E251A9
:104D3000FB4FE081EE2309F4D2C0E23209F09CC1BE
:104D40002034310508F0CBC089010F5F1F4FE3E02D
:104D5000220F331FEA95E1F7F901E853FD4FEE24E6
:104D6000EA94FE2CF582E482F382E28217821682B4
:104D7000309709F4B4C091828082D3011196B38335
:104D8000A283558344832FEFC21AD20A6F3F76075E
:104D900009F4F8C0FB0123E0EE0FFF1F2A95E1F7AD
:104DA000E853FD4F268137812F5F3F4F378326839E
:104DB000E9C0E636A9F06CF4EB3509F497C0ED359F
:104DC00009F4E2C0EA3309F09DCFB90161507109DD
:104DD0000DC1E43729F00CF06BC0EE3609F092CF2C
:104DE0006F3F7607B1F0FB01A3E0EE0FFF1FAA951E
:104DF000E1F7E853FD4FA081B181A130B10509F47D
:104E00006EC0149731F40680F781E02DEF2B09F086
:104E100066C08A01FA01E251FB4F4817590708F0B2
:104E20005EC0A191AA2309F45AC0A03251F00CF03F
:104E3000A7C1A9300CF4ADC1AB301CF0AD3009F006
:104E4000A8C12034310508F04AC0D9011196E3E029
:104E5000220F331FEA95E1F7F901E853FD4FEE24E5
:104E6000EA94FE2CF582E482F382E28217821682B3
:104E70003097A9F1B182A0820283138355834483C2
:104E8000415051091FEFC11AD10A6F3F760771F0E7
:104E9000FB0113E0EE0FFF1F1A95E1F7E853FD4FFA
:104EA000268137812F5F3F4F378326839D019EC028
:104EB000EB37E1F0ED3709F025CF66246394712CD0
:104EC000D9011197F90103E0EE0FFF1F0A95E1F7F1
:104ED000E054FD4FB7FF5CC0119609F087C040E079
:104EE00070E060E080EA0E94400760C5AFEFCA1A38
:104EF000DA0A2034310598F789010F5F1F4F390115
:104F0000B3E0660C771CBA95E1F7D301A853BD4F07
:104F10003D01EE24EA94FE2C1596FC92EE92149735
:104F20001396FC92EE92129717961C921E92169769
:104F3000AB2BA9F26F3F7607C9F0A3E0660F771F8E
:104F4000AA95E1F768537D4FDB01ED90FC90EA9460
:104F5000EF2829F2DB011696ED90FC90BFEFEB1ADB
:104F6000FB0ADB011796FC92EE92169761E070E067
:104F7000EB3711F062E070E0F301718360835383DB
:104F80004283B901980132C0E2E06E2E712C98CFB5
:104F9000E280F380EF20E09409F46BC0E480F580B8
:104FA000EF20E09409F065C0608171816615770596
:104FB00009F095CFBA016F5F7F4F75836483FD0160
:104FC00013E0EE0FFF1F1A95E1F7E853FD4FBD0107
:104FD000A281B381119621F0A481B581119631F09F
:104FE0006150710938976F3F760791F74F5F5F4FB8
:104FF0004817590708F46DCEC901019743E0220F05
:10500000331F4A95E1F7F901EE53FD4F97FFCAC0F0
:105010001C141D040CF063CF8FEF8093C804109212
:10502000E6041092E7041092E8041092E904F12CCF
:1050300010E000E0B8018EEE94E00E9432228F3F33
:1050400009F4BEC08093C8040F5F1F4F8091C8044D
:105050008F3F11F0F110C4C00F5F1F4F0C151D05DD
:105060004CF38F3F09F0BCC040E070E060E081EAA3
:105070003ACF119738972ECFEC3509F051CEFA017F
:105080003196E817F90708F04BCE8F0102511B4FFC
:10509000D8011C91163639F074F41F3221F02CF42B
:1050A000123209F01CCFAF013BCE1C35E1F31236B2
:1050B00009F015CFF8CF1237B1F324F41E3609F0FA
:1050C0000ECFF1CF143779F3153709F008CFFA0175
:1050D00032968A0100511B4F4A5F5F4FE817F9076C
:1050E000C0F4D801FD908D01FF2099F0B0EDEB2EBA
:1050F000EF0CB9E0BE1548F4E894F5F8AFEBEA2EF2
:10510000FE0CA5E0AF1508F4EACE3196E417F507DA
:1051100029F7AF014150510903CE6F3F760709F4DB
:1051200065CFFB0103E0EE0FFF1F0A95E1F7E8539F
:10513000FD4F0190F081E02D3197329708F456CF62
:10514000D9011197F90113E0EE0FFF1F1A95E1F74E
:10515000E054FD4FB7FD4ACF008111810150110984
:105160000230110550F4E280F380EF20E09429F042
:10517000E480F580EF20E09499F011973897EACF1A
:10518000AD3509F45ECEAD3709F45BCEAC3209F42F
:1051900058CE4F5F5F4FA052AF3508F43ECE9FCE42
:1051A000BD0124CF208131812F3F3F4F31F022813B
:1051B00033812F3F3F4F09F492CE0197389726CF86
:1051C00028EC34E0A80168EC72E08EEE94E00E94D6
:1051D0003224882309F43ACF0F5F1F4FF82E36CFC1
:1051E0008B3008F077C0893028F49FEF980F963005
:1051F00008F073C01092D4041092D5041092D60413
:105200001092D7041092E6041092E7041092E8047A
:105210001092E9048FEF80930B0780930C07809323
:10522000F2061092060710920707109208071092D4
:10523000090710920D0710920E0710920F07109297
:1052400010071092EB041092EA041092ED041092F1
:10525000EC048091C8029091C902019711F58090E9
:10526000CE029090CF029DAA8CAA18A61FA2442419
:105270004394512C8CA89DA8AFA0B8A4A814B9043D
:10528000C4F18091F2068F3F61F42FEF3FEF40E0D1
:1052900050E0209306073093070740930807509388
:1052A00009078091C8048B3008F0B9C1893020F417
:1052B0008150863008F0B6C168EC74E08CE093E170
:1052C0000E94CF0D019609F0ADC140E070E060E0B2
:1052D00082EA09CE803109F48DCF8B3008F48ACF71
:1052E0008E3009F09FC1EE24E394F12C10E000E031
:1052F000A3C24C145D04ACF6C20103E0880F991FF1
:105300000A95E1F79C0128533D4F19014AEE52E0FE
:10531000B9018EEE94E00E94FC21892B59F044EEF5
:1053200052E0B1018EEE94E00E94FC2110E000E01A
:10533000892B49F432E0430E511C8FA198A50196A8
:1053400098A78FA397CFF801E854FD4F459154914A
:10535000B1018EEE94E00E94FC21892B91F4F801BA
:10536000E654FD4FA591B49128EC34E0A20168EC1D
:1053700072E08EEE94E0FD010995F2E04F0E511CB3
:10538000DCCF0C5F1F4F0C321105E9F64DEA52E0FD
:10539000B1018EEE94E00E94FC215C01892B09F0A2
:1053A0003AC14601841895089EA68DA69401223024
:1053B0003105ECF0D10118968D919C9119970197C8
:1053C000B1F41E968D909C909FAA8EAA1CA61BA637
:1053D000B2E08B2E912CAA24A394B12CEEA8FFA8A6
:1053E0002BA53CA52E153F0544F0B7FC5ACF3FEF47
:1053F000A31AB30A4A0C5B1CA0CFEDA4FEA48E1422
:105400009F040CF04ECF7401A3E0EE0CFF1CAA9594
:10541000E1F781010E0D1F1D49EA52E0B8018EEE41
:1054200094E00E94FC213C01892B09F078C028E01F
:10543000E20EF11CF101EE0DFF1D808191810297BA
:1054400009F02FCFE680F7803FEF30930A0742EF55
:1054500056E05AAB49ABB0910A07BBAB6E147F0460
:1054600024F4E4E16E167104E1F41BA91F3F11F46A
:10547000E0920A0724E1E216F1042CF4F701EE5061
:10548000F94F3FEF308342E0E40EF11CAE0CBF1C3D
:105490008E0C9F1C2BA53CA52F5F3F4F3CA72BA735
:1054A0009DCFD80152968D919C9182519B4F0E9425
:1054B0002606E9A9FAA96193FAABE9AB262F30E0F9
:1054C00081E090E0A0E0B0E004C0880F991FAA1F1F
:1054D000BB1F6A95D2F7AC01BD0180910607909180
:1054E0000707A0910807B0910907842B952BA62BDD
:1054F000B72B8093060790930707A0930807B093F4
:1055000009079BA99F3F29F46216730611F0609268
:105510000A07AFEF6A1A7A0A085F1F4F9CCF4DE95E
:1055200052E0B8018EEE94E00E94FC213C01892BF0
:1055300009F043C058E0E50EF11CF101EE0DFF1D2E
:1055400080819181029709F0ACCEE680F780085FF8
:105550001F4F6E147F0424F0A2E0EA0EF11C96CFD8
:10556000D8011A968D919C9182519B4F0E942606DC
:1055700081E090E0A0E0B0E004C0880F991FAA1F6E
:10558000BB1F6A95D2F7AC01BD0180910D079091C8
:105590000E07A0910F07B0911007842B952BA62B17
:1055A000B72B80930D0790930E07A0930F07B0932E
:1055B00010079FEF691A790ACACF4EE852E0B80186
:1055C0008EEE94E00E94FC21B2E0AB0EB11CE2E052
:1055D0008E0E911C892B59F4D8011A968D919C91AD
:1055E00082519B4F0E94260660930B0753CF45E9DB
:1055F00052E0B8018EEE94E00E94FC21892B09F064
:1056000049CFF8018285938582519B4F0E942606DF
:1056100060930C073FCF42E0440E511C8ECE803188
:1056200009F44ACE8091E60487FF11C08CE089839B
:10563000E0EBF1E0DE01129601900D928A95E1F720
:105640004DE0BE016F5F7F4F8AE50E944007809169
:10565000E60487FF05C0609105018CE50E94590DA5
:105660008091E60487FF06C00E948606682F8BE5BE
:105670000E94590D8091E60487FF05C06091C8041F
:105680008DE50E94590D82E089831A820E94860668
:105690008B838CE08C83E0EBF1E0DE0115960190CA
:1056A0000D928A95E1F74090DA045090DB04609007
:1056B000DC047090DD046091CB047091CC04809187
:1056C000CD049091CE040E947605009709F414C190
:1056D000FC01389624913196D49035974591559197
:1056E00065917491FC01E590F59005911491822EDD
:1056F000912CB12CA12C8FA298A6A9A6BAA64115CF
:1057000051056105710531F04114510461047104C2
:1057100009F0D2C08FA098A4A9A4BAA4A3019201B1
:10572000C501B4010E94B02F6FA378A789A79AA7DB
:105730002D2DB301A201882D0E94C6058FA098A42B
:10574000A9A4BAA4680D791D8A1D9B1D20E432E42A
:105750004FE050E00E94D42F69017A0159E0660FB2
:10576000771F881F991F5A95D1F7615C7D4B804F39
:105770009F4F20E432E44FE050E00E94D42FD70145
:10578000C60169E0880F991FAA1FBB1F6A95D1F750
:105790000196A11DB11D820F931FA41FB51F880F75
:1057A000991FAA1FBB1F009711E0A107B10520F0A8
:1057B0008FEF9FEFA0E0B0E0282F892F898B2A8BF5
:1057C00042E1BE016F5F7F4F81E00E9440070E946F
:1057D0004806ECC0B7018EEE94E00E9432228F3F63
:1057E00041F528EC34E0A70168EC72E08EEE94E01D
:1057F0000E94322481111DC08701F3E0000F111FA8
:10580000FA95E1F708531D4F4AE852E0B8018EEED1
:1058100094E00E94FC21892BD9F4D8011A968D912D
:105820009C9182519B4F0E9426066093BA0201E030
:1058300010E0B2E0EB0EF11CEC14FD045CF2013060
:10584000110509F0EFCE8CEA92E00E949D19EACE94
:1058500047E852E0B8018EEE94E00E94FC21892BCB
:1058600081F4F8018285938582519B4F0E94260620
:105870006093B2027093B3028093B4029093B50226
:10588000D6CF44E852E0B8018EEE94E00E94FC21AD
:10589000892B09F0ECC2D8011A968D919C91825106
:1058A0009B4F0E9426066093B6027093B7028093C6
:1058B000B8029093B902BBCFD301C2010197A109ED
:1058C000B1094C015D01840E951EA61EB71EC501CF
:1058D000B401A30192010E94D42F49015A012FA1C2
:1058E00038A549A55AA5281539054A055B0508F0CC
:1058F00015CF49015A0112CF20E080E05FCF40E090
:1059000070E060E084EAEFCA85E491E20E94DA2068
:1059100091E0892709F44AC00E94861947C08EEB9E
:105920009FE1F4CF8091E60481FD07C040E070E084
:1059300060E085EA0E944007EFCF87E89EE0E6CF6F
:105940008091EA049091EB04892BB9F740E070E074
:1059500060E086EAEFCF8091C90481113BC00E94CC
:105960008606811105C040E070E060E08CEAE2CF7D
:105970000E9460068091C80460E871E08B3021F0DD
:105980008C3009F560E870E088E00E949E1264E6C1
:1059900070E080E090E00E943A020E94690D81E090
:1059A0008093C90460E072E00E94470D80E090E0BF
:1059B000892B09F40BC90E94E302882309F406C964
:1059C0000E94000003C90E94690D40E070E060E0A1
:1059D0008DEAB0CF88EC94E00E94F91E81309105E9
:1059E00009F49ACF892B11F764EF71E080E090E021
:1059F0000E943A020E94CC0F6B017C0110E000E093
:105A0000C114D104E104F10481F022E030E040E06F
:105A100050E00E94F62FCA01B901705D8E4E9F4F73
:105A2000A70196010E94F62F89010E94EB0F9C01AD
:105A30002E5C3F4F48EEE42E43E0F42EC901B7013F
:105A40000E94C02FD62EE4E6F0E0C901BF010E94FB
:105A5000C02FCB012AE030E0B9010E94C02F482FAF
:105A60000E5C1F4FC801B7010E94C02FF62EC8015F
:105A7000BF010E94C02FCB01B9010E94C02F90919D
:105A8000C8041982DA821B824C831D82FE821F8227
:105A9000888748E0BE016F5F7F4F85EE9C3009F438
:105AA00094CE84EE92CE0EEE12E0F801649166235D
:105AB00041F08FE092E00E9419030F5F1F4F892B86
:105AC000A1F74CE050E060EB71E08FE092E00E94C3
:105AD000790242E050E06DEB71E08FE092E00E94CD
